{
	"contracts/ZrSignTransfer.sol": {
		"ZrSignTransfer": {
			"abi": [
				{
					"inputs": [
						{
							"internalType": "address",
							"name": "_zrSignAddress",
							"type": "address"
						}
					],
					"stateMutability": "nonpayable",
					"type": "constructor"
				},
				{
					"inputs": [
						{
							"internalType": "uint256",
							"name": "fromKeyIndex",
							"type": "uint256"
						},
						{
							"internalType": "address",
							"name": "to",
							"type": "address"
						},
						{
							"internalType": "uint256",
							"name": "value",
							"type": "uint256"
						},
						{
							"internalType": "uint256",
							"name": "gasPrice",
							"type": "uint256"
						},
						{
							"internalType": "uint256",
							"name": "gasLimit",
							"type": "uint256"
						},
						{
							"internalType": "uint256",
							"name": "nonce",
							"type": "uint256"
						},
						{
							"internalType": "bytes",
							"name": "data",
							"type": "bytes"
						}
					],
					"name": "submitTransaction",
					"outputs": [],
					"stateMutability": "nonpayable",
					"type": "function"
				},
				{
					"inputs": [
						{
							"internalType": "uint256",
							"name": "fromKeyIndex",
							"type": "uint256"
						},
						{
							"internalType": "address",
							"name": "to",
							"type": "address"
						},
						{
							"internalType": "uint256",
							"name": "value",
							"type": "uint256"
						},
						{
							"internalType": "uint256",
							"name": "gasPrice",
							"type": "uint256"
						},
						{
							"internalType": "uint256",
							"name": "gasLimit",
							"type": "uint256"
						},
						{
							"internalType": "uint256",
							"name": "nonce",
							"type": "uint256"
						},
						{
							"internalType": "bytes",
							"name": "data",
							"type": "bytes"
						},
						{
							"internalType": "bool",
							"name": "broadcast",
							"type": "bool"
						}
					],
					"name": "submitTransaction",
					"outputs": [],
					"stateMutability": "nonpayable",
					"type": "function"
				},
				{
					"inputs": [
						{
							"internalType": "uint256",
							"name": "_fromKeyIndex",
							"type": "uint256"
						},
						{
							"internalType": "address",
							"name": "_to",
							"type": "address"
						},
						{
							"internalType": "uint256",
							"name": "_value",
							"type": "uint256"
						},
						{
							"internalType": "bytes",
							"name": "_data",
							"type": "bytes"
						}
					],
					"name": "submitTransaction",
					"outputs": [],
					"stateMutability": "nonpayable",
					"type": "function"
				},
				{
					"inputs": [],
					"name": "zrSignConnect",
					"outputs": [
						{
							"internalType": "contract IZrSign",
							"name": "",
							"type": "address"
						}
					],
					"stateMutability": "view",
					"type": "function"
				}
			],
			"devdoc": {
				"kind": "dev",
				"methods": {},
				"version": 1
			},
			"evm": {
				"assembly": "    /* \"contracts/ZrSignTransfer.sol\":170:3414  contract ZrSignTransfer {... */\n  mstore(0x40, 0x80)\n    /* \"contracts/ZrSignTransfer.sol\":454:546  constructor(address _zrSignAddress) {... */\n  callvalue\n  dup1\n  iszero\n  tag_1\n  jumpi\n  0x00\n  dup1\n  revert\ntag_1:\n  pop\n  mload(0x40)\n  sub(codesize, bytecodeSize)\n  dup1\n  bytecodeSize\n  dup4\n  codecopy\n  dup2\n  dup2\n  add\n  0x40\n  mstore\n  dup2\n  add\n  swap1\n  tag_2\n  swap2\n  swap1\n  tag_3\n  jump\t// in\ntag_2:\n    /* \"contracts/ZrSignTransfer.sol\":524:538  _zrSignAddress */\n  dup1\n    /* \"contracts/ZrSignTransfer.sol\":500:513  zrSignConnect */\n  0x00\n  dup1\n    /* \"contracts/ZrSignTransfer.sol\":500:539  zrSignConnect = IZrSign(_zrSignAddress) */\n  0x0100\n  exp\n  dup2\n  sload\n  dup2\n  0xffffffffffffffffffffffffffffffffffffffff\n  mul\n  not\n  and\n  swap1\n  dup4\n  0xffffffffffffffffffffffffffffffffffffffff\n  and\n  mul\n  or\n  swap1\n  sstore\n  pop\n    /* \"contracts/ZrSignTransfer.sol\":454:546  constructor(address _zrSignAddress) {... */\n  pop\n    /* \"contracts/ZrSignTransfer.sol\":170:3414  contract ZrSignTransfer {... */\n  jump(tag_6)\n    /* \"#utility.yul\":88:205   */\ntag_8:\n    /* \"#utility.yul\":197:198   */\n  0x00\n    /* \"#utility.yul\":194:195   */\n  dup1\n    /* \"#utility.yul\":187:199   */\n  revert\n    /* \"#utility.yul\":334:460   */\ntag_10:\n    /* \"#utility.yul\":371:378   */\n  0x00\n    /* \"#utility.yul\":411:453   */\n  0xffffffffffffffffffffffffffffffffffffffff\n    /* \"#utility.yul\":404:409   */\n  dup3\n    /* \"#utility.yul\":400:454   */\n  and\n    /* \"#utility.yul\":389:454   */\n  swap1\n  pop\n    /* \"#utility.yul\":334:460   */\n  swap2\n  swap1\n  pop\n  jump\t// out\n    /* \"#utility.yul\":466:562   */\ntag_11:\n    /* \"#utility.yul\":503:510   */\n  0x00\n    /* \"#utility.yul\":532:556   */\n  tag_20\n    /* \"#utility.yul\":550:555   */\n  dup3\n    /* \"#utility.yul\":532:556   */\n  tag_10\n  jump\t// in\ntag_20:\n    /* \"#utility.yul\":521:556   */\n  swap1\n  pop\n    /* \"#utility.yul\":466:562   */\n  swap2\n  swap1\n  pop\n  jump\t// out\n    /* \"#utility.yul\":568:690   */\ntag_12:\n    /* \"#utility.yul\":641:665   */\n  tag_22\n    /* \"#utility.yul\":659:664   */\n  dup2\n    /* \"#utility.yul\":641:665   */\n  tag_11\n  jump\t// in\ntag_22:\n    /* \"#utility.yul\":634:639   */\n  dup2\n    /* \"#utility.yul\":631:666   */\n  eq\n    /* \"#utility.yul\":621:684   */\n  tag_23\n  jumpi\n    /* \"#utility.yul\":680:681   */\n  0x00\n    /* \"#utility.yul\":677:678   */\n  dup1\n    /* \"#utility.yul\":670:682   */\n  revert\n    /* \"#utility.yul\":621:684   */\ntag_23:\n    /* \"#utility.yul\":568:690   */\n  pop\n  jump\t// out\n    /* \"#utility.yul\":696:839   */\ntag_13:\n    /* \"#utility.yul\":753:758   */\n  0x00\n    /* \"#utility.yul\":784:790   */\n  dup2\n    /* \"#utility.yul\":778:791   */\n  mload\n    /* \"#utility.yul\":769:791   */\n  swap1\n  pop\n    /* \"#utility.yul\":800:833   */\n  tag_25\n    /* \"#utility.yul\":827:832   */\n  dup2\n    /* \"#utility.yul\":800:833   */\n  tag_12\n  jump\t// in\ntag_25:\n    /* \"#utility.yul\":696:839   */\n  swap3\n  swap2\n  pop\n  pop\n  jump\t// out\n    /* \"#utility.yul\":845:1196   */\ntag_3:\n    /* \"#utility.yul\":915:921   */\n  0x00\n    /* \"#utility.yul\":964:966   */\n  0x20\n    /* \"#utility.yul\":952:961   */\n  dup3\n    /* \"#utility.yul\":943:950   */\n  dup5\n    /* \"#utility.yul\":939:962   */\n  sub\n    /* \"#utility.yul\":935:967   */\n  slt\n    /* \"#utility.yul\":932:1051   */\n  iszero\n  tag_27\n  jumpi\n    /* \"#utility.yul\":970:1049   */\n  tag_28\n  tag_8\n  jump\t// in\ntag_28:\n    /* \"#utility.yul\":932:1051   */\ntag_27:\n    /* \"#utility.yul\":1090:1091   */\n  0x00\n    /* \"#utility.yul\":1115:1179   */\n  tag_29\n    /* \"#utility.yul\":1171:1178   */\n  dup5\n    /* \"#utility.yul\":1162:1168   */\n  dup3\n    /* \"#utility.yul\":1151:1160   */\n  dup6\n    /* \"#utility.yul\":1147:1169   */\n  add\n    /* \"#utility.yul\":1115:1179   */\n  tag_13\n  jump\t// in\ntag_29:\n    /* \"#utility.yul\":1105:1179   */\n  swap2\n  pop\n    /* \"#utility.yul\":1061:1189   */\n  pop\n    /* \"#utility.yul\":845:1196   */\n  swap3\n  swap2\n  pop\n  pop\n  jump\t// out\n    /* \"contracts/ZrSignTransfer.sol\":170:3414  contract ZrSignTransfer {... */\ntag_6:\n  dataSize(sub_0)\n  dup1\n  dataOffset(sub_0)\n  0x00\n  codecopy\n  0x00\n  return\nstop\n\nsub_0: assembly {\n        /* \"contracts/ZrSignTransfer.sol\":170:3414  contract ZrSignTransfer {... */\n      mstore(0x40, 0x80)\n      callvalue\n      dup1\n      iszero\n      tag_1\n      jumpi\n      0x00\n      dup1\n      revert\n    tag_1:\n      pop\n      jumpi(tag_2, lt(calldatasize, 0x04))\n      shr(0xe0, calldataload(0x00))\n      dup1\n      0x681face9\n      eq\n      tag_3\n      jumpi\n      dup1\n      0x94e375dd\n      eq\n      tag_4\n      jumpi\n      dup1\n      0xb463206c\n      eq\n      tag_5\n      jumpi\n      dup1\n      0xdbe637c6\n      eq\n      tag_6\n      jumpi\n    tag_2:\n      0x00\n      dup1\n      revert\n        /* \"contracts/ZrSignTransfer.sol\":1221:1971  function submitTransaction(... */\n    tag_3:\n      tag_7\n      0x04\n      dup1\n      calldatasize\n      sub\n      dup2\n      add\n      swap1\n      tag_8\n      swap2\n      swap1\n      tag_9\n      jump\t// in\n    tag_8:\n      tag_10\n      jump\t// in\n    tag_7:\n      stop\n        /* \"contracts/ZrSignTransfer.sol\":1977:2756  function submitTransaction(... */\n    tag_4:\n      tag_11\n      0x04\n      dup1\n      calldatasize\n      sub\n      dup2\n      add\n      swap1\n      tag_12\n      swap2\n      swap1\n      tag_13\n      jump\t// in\n    tag_12:\n      tag_14\n      jump\t// in\n    tag_11:\n      stop\n        /* \"contracts/ZrSignTransfer.sol\":201:229  IZrSign public zrSignConnect */\n    tag_5:\n      tag_15\n      tag_16\n      jump\t// in\n    tag_15:\n      mload(0x40)\n      tag_17\n      swap2\n      swap1\n      tag_18\n      jump\t// in\n    tag_17:\n      mload(0x40)\n      dup1\n      swap2\n      sub\n      swap1\n      return\n        /* \"contracts/ZrSignTransfer.sol\":552:1215  function submitTransaction(... */\n    tag_6:\n      tag_19\n      0x04\n      dup1\n      calldatasize\n      sub\n      dup2\n      add\n      swap1\n      tag_20\n      swap2\n      swap1\n      tag_21\n      jump\t// in\n    tag_20:\n      tag_22\n      jump\t// in\n    tag_19:\n      stop\n        /* \"contracts/ZrSignTransfer.sol\":1221:1971  function submitTransaction(... */\n    tag_10:\n        /* \"contracts/ZrSignTransfer.sol\":1446:1473  bytes memory rlpPayloadData */\n      0x00\n        /* \"contracts/ZrSignTransfer.sol\":1476:1506  Lib_RLPWriter.writeBytes(data) */\n      tag_24\n        /* \"contracts/ZrSignTransfer.sol\":1501:1505  data */\n      dup3\n        /* \"contracts/ZrSignTransfer.sol\":1476:1500  Lib_RLPWriter.writeBytes */\n      tag_25\n        /* \"contracts/ZrSignTransfer.sol\":1476:1506  Lib_RLPWriter.writeBytes(data) */\n      jump\t// in\n    tag_24:\n        /* \"contracts/ZrSignTransfer.sol\":1446:1506  bytes memory rlpPayloadData = Lib_RLPWriter.writeBytes(data) */\n      swap1\n      pop\n        /* \"contracts/ZrSignTransfer.sol\":1516:1547  bytes memory rlpTransactionData */\n      0x00\n        /* \"contracts/ZrSignTransfer.sol\":1550:1624  rlpEncodeTransaction(nonce, gasPrice, gasLimit, to, value, rlpPayloadData) */\n      tag_26\n        /* \"contracts/ZrSignTransfer.sol\":1571:1576  nonce */\n      dup5\n        /* \"contracts/ZrSignTransfer.sol\":1578:1586  gasPrice */\n      dup8\n        /* \"contracts/ZrSignTransfer.sol\":1588:1596  gasLimit */\n      dup8\n        /* \"contracts/ZrSignTransfer.sol\":1598:1600  to */\n      dup12\n        /* \"contracts/ZrSignTransfer.sol\":1602:1607  value */\n      dup12\n        /* \"contracts/ZrSignTransfer.sol\":1609:1623  rlpPayloadData */\n      dup8\n        /* \"contracts/ZrSignTransfer.sol\":1550:1570  rlpEncodeTransaction */\n      tag_27\n        /* \"contracts/ZrSignTransfer.sol\":1550:1624  rlpEncodeTransaction(nonce, gasPrice, gasLimit, to, value, rlpPayloadData) */\n      jump\t// in\n    tag_26:\n        /* \"contracts/ZrSignTransfer.sol\":1516:1624  bytes memory rlpTransactionData = rlpEncodeTransaction(nonce, gasPrice, gasLimit, to, value, rlpPayloadData) */\n      swap1\n      pop\n        /* \"contracts/ZrSignTransfer.sol\":1643:1679  SignTypes.ZrSignParams memory params */\n      0x00\n        /* \"contracts/ZrSignTransfer.sol\":1682:1905  SignTypes.ZrSignParams({... */\n      mload(0x40)\n      dup1\n      0xa0\n      add\n      0x40\n      mstore\n      dup1\n        /* \"contracts/ZrSignTransfer.sol\":1733:1746  EVMWalletType */\n      0x45564d5f57414c4c45545f545950450000000000000000000000000000000000\n        /* \"contracts/ZrSignTransfer.sol\":1682:1905  SignTypes.ZrSignParams({... */\n      dup2\n      mstore\n      0x20\n      add\n        /* \"contracts/ZrSignTransfer.sol\":1773:1785  fromKeyIndex */\n      dup12\n        /* \"contracts/ZrSignTransfer.sol\":1682:1905  SignTypes.ZrSignParams({... */\n      dup2\n      mstore\n      0x20\n      add\n        /* \"contracts/ZrSignTransfer.sol\":1811:1824  mumbaiChainId */\n      0x4d554d4241495f434841494e5f49440000000000000000000000000000000000\n        /* \"contracts/ZrSignTransfer.sol\":1682:1905  SignTypes.ZrSignParams({... */\n      dup2\n      mstore\n      0x20\n      add\n        /* \"contracts/ZrSignTransfer.sol\":1847:1865  rlpTransactionData */\n      dup4\n        /* \"contracts/ZrSignTransfer.sol\":1682:1905  SignTypes.ZrSignParams({... */\n      dup2\n      mstore\n      0x20\n      add\n        /* \"contracts/ZrSignTransfer.sol\":1890:1894  true */\n      0x01\n        /* \"contracts/ZrSignTransfer.sol\":1682:1905  SignTypes.ZrSignParams({... */\n      iszero\n      iszero\n      dup2\n      mstore\n      pop\n        /* \"contracts/ZrSignTransfer.sol\":1643:1905  SignTypes.ZrSignParams memory params = SignTypes.ZrSignParams({... */\n      swap1\n      pop\n        /* \"contracts/ZrSignTransfer.sol\":1916:1929  zrSignConnect */\n      0x00\n      dup1\n      sload\n      swap1\n      0x0100\n      exp\n      swap1\n      div\n      0xffffffffffffffffffffffffffffffffffffffff\n      and\n        /* \"contracts/ZrSignTransfer.sol\":1916:1938  zrSignConnect.zrSignTx */\n      0xffffffffffffffffffffffffffffffffffffffff\n      and\n      0x93f874c4\n        /* \"contracts/ZrSignTransfer.sol\":1939:1945  params */\n      dup3\n        /* \"contracts/ZrSignTransfer.sol\":1916:1946  zrSignConnect.zrSignTx(params) */\n      mload(0x40)\n      dup3\n      0xffffffff\n      and\n      0xe0\n      shl\n      dup2\n      mstore\n      0x04\n      add\n      tag_28\n      swap2\n      swap1\n      tag_29\n      jump\t// in\n    tag_28:\n      0x00\n      mload(0x40)\n      dup1\n      dup4\n      sub\n      dup2\n      0x00\n      dup8\n      dup1\n      extcodesize\n      iszero\n      dup1\n      iszero\n      tag_30\n      jumpi\n      0x00\n      dup1\n      revert\n    tag_30:\n      pop\n      gas\n      call\n      iszero\n      dup1\n      iszero\n      tag_32\n      jumpi\n      returndatasize\n      0x00\n      dup1\n      returndatacopy\n      revert(0x00, returndatasize)\n    tag_32:\n      pop\n      pop\n      pop\n      pop\n        /* \"contracts/ZrSignTransfer.sol\":1956:1962  _nonce */\n      0x01\n      0x00\n        /* \"contracts/ZrSignTransfer.sol\":1956:1964  _nonce++ */\n      dup2\n      sload\n      dup1\n      swap3\n      swap2\n      swap1\n      tag_33\n      swap1\n      tag_34\n      jump\t// in\n    tag_33:\n      swap2\n      swap1\n      pop\n      sstore\n      pop\n        /* \"contracts/ZrSignTransfer.sol\":1436:1971  {... */\n      pop\n      pop\n      pop\n        /* \"contracts/ZrSignTransfer.sol\":1221:1971  function submitTransaction(... */\n      pop\n      pop\n      pop\n      pop\n      pop\n      pop\n      pop\n      jump\t// out\n        /* \"contracts/ZrSignTransfer.sol\":1977:2756  function submitTransaction(... */\n    tag_14:\n        /* \"contracts/ZrSignTransfer.sol\":2226:2253  bytes memory rlpPayloadData */\n      0x00\n        /* \"contracts/ZrSignTransfer.sol\":2256:2286  Lib_RLPWriter.writeBytes(data) */\n      tag_36\n        /* \"contracts/ZrSignTransfer.sol\":2281:2285  data */\n      dup4\n        /* \"contracts/ZrSignTransfer.sol\":2256:2280  Lib_RLPWriter.writeBytes */\n      tag_25\n        /* \"contracts/ZrSignTransfer.sol\":2256:2286  Lib_RLPWriter.writeBytes(data) */\n      jump\t// in\n    tag_36:\n        /* \"contracts/ZrSignTransfer.sol\":2226:2286  bytes memory rlpPayloadData = Lib_RLPWriter.writeBytes(data) */\n      swap1\n      pop\n        /* \"contracts/ZrSignTransfer.sol\":2296:2327  bytes memory rlpTransactionData */\n      0x00\n        /* \"contracts/ZrSignTransfer.sol\":2330:2404  rlpEncodeTransaction(nonce, gasPrice, gasLimit, to, value, rlpPayloadData) */\n      tag_37\n        /* \"contracts/ZrSignTransfer.sol\":2351:2356  nonce */\n      dup6\n        /* \"contracts/ZrSignTransfer.sol\":2358:2366  gasPrice */\n      dup9\n        /* \"contracts/ZrSignTransfer.sol\":2368:2376  gasLimit */\n      dup9\n        /* \"contracts/ZrSignTransfer.sol\":2378:2380  to */\n      dup13\n        /* \"contracts/ZrSignTransfer.sol\":2382:2387  value */\n      dup13\n        /* \"contracts/ZrSignTransfer.sol\":2389:2403  rlpPayloadData */\n      dup8\n        /* \"contracts/ZrSignTransfer.sol\":2330:2350  rlpEncodeTransaction */\n      tag_27\n        /* \"contracts/ZrSignTransfer.sol\":2330:2404  rlpEncodeTransaction(nonce, gasPrice, gasLimit, to, value, rlpPayloadData) */\n      jump\t// in\n    tag_37:\n        /* \"contracts/ZrSignTransfer.sol\":2296:2404  bytes memory rlpTransactionData = rlpEncodeTransaction(nonce, gasPrice, gasLimit, to, value, rlpPayloadData) */\n      swap1\n      pop\n        /* \"contracts/ZrSignTransfer.sol\":2423:2459  SignTypes.ZrSignParams memory params */\n      0x00\n        /* \"contracts/ZrSignTransfer.sol\":2462:2690  SignTypes.ZrSignParams({... */\n      mload(0x40)\n      dup1\n      0xa0\n      add\n      0x40\n      mstore\n      dup1\n        /* \"contracts/ZrSignTransfer.sol\":2513:2526  EVMWalletType */\n      0x45564d5f57414c4c45545f545950450000000000000000000000000000000000\n        /* \"contracts/ZrSignTransfer.sol\":2462:2690  SignTypes.ZrSignParams({... */\n      dup2\n      mstore\n      0x20\n      add\n        /* \"contracts/ZrSignTransfer.sol\":2553:2565  fromKeyIndex */\n      dup13\n        /* \"contracts/ZrSignTransfer.sol\":2462:2690  SignTypes.ZrSignParams({... */\n      dup2\n      mstore\n      0x20\n      add\n        /* \"contracts/ZrSignTransfer.sol\":2591:2604  mumbaiChainId */\n      0x4d554d4241495f434841494e5f49440000000000000000000000000000000000\n        /* \"contracts/ZrSignTransfer.sol\":2462:2690  SignTypes.ZrSignParams({... */\n      dup2\n      mstore\n      0x20\n      add\n        /* \"contracts/ZrSignTransfer.sol\":2627:2645  rlpTransactionData */\n      dup4\n        /* \"contracts/ZrSignTransfer.sol\":2462:2690  SignTypes.ZrSignParams({... */\n      dup2\n      mstore\n      0x20\n      add\n        /* \"contracts/ZrSignTransfer.sol\":2670:2679  broadcast */\n      dup6\n        /* \"contracts/ZrSignTransfer.sol\":2462:2690  SignTypes.ZrSignParams({... */\n      iszero\n      iszero\n      dup2\n      mstore\n      pop\n        /* \"contracts/ZrSignTransfer.sol\":2423:2690  SignTypes.ZrSignParams memory params = SignTypes.ZrSignParams({... */\n      swap1\n      pop\n        /* \"contracts/ZrSignTransfer.sol\":2701:2714  zrSignConnect */\n      0x00\n      dup1\n      sload\n      swap1\n      0x0100\n      exp\n      swap1\n      div\n      0xffffffffffffffffffffffffffffffffffffffff\n      and\n        /* \"contracts/ZrSignTransfer.sol\":2701:2723  zrSignConnect.zrSignTx */\n      0xffffffffffffffffffffffffffffffffffffffff\n      and\n      0x93f874c4\n        /* \"contracts/ZrSignTransfer.sol\":2724:2730  params */\n      dup3\n        /* \"contracts/ZrSignTransfer.sol\":2701:2731  zrSignConnect.zrSignTx(params) */\n      mload(0x40)\n      dup3\n      0xffffffff\n      and\n      0xe0\n      shl\n      dup2\n      mstore\n      0x04\n      add\n      tag_38\n      swap2\n      swap1\n      tag_29\n      jump\t// in\n    tag_38:\n      0x00\n      mload(0x40)\n      dup1\n      dup4\n      sub\n      dup2\n      0x00\n      dup8\n      dup1\n      extcodesize\n      iszero\n      dup1\n      iszero\n      tag_39\n      jumpi\n      0x00\n      dup1\n      revert\n    tag_39:\n      pop\n      gas\n      call\n      iszero\n      dup1\n      iszero\n      tag_41\n      jumpi\n      returndatasize\n      0x00\n      dup1\n      returndatacopy\n      revert(0x00, returndatasize)\n    tag_41:\n      pop\n      pop\n      pop\n      pop\n        /* \"contracts/ZrSignTransfer.sol\":2741:2747  _nonce */\n      0x01\n      0x00\n        /* \"contracts/ZrSignTransfer.sol\":2741:2749  _nonce++ */\n      dup2\n      sload\n      dup1\n      swap3\n      swap2\n      swap1\n      tag_42\n      swap1\n      tag_34\n      jump\t// in\n    tag_42:\n      swap2\n      swap1\n      pop\n      sstore\n      pop\n        /* \"contracts/ZrSignTransfer.sol\":2216:2756  {... */\n      pop\n      pop\n      pop\n        /* \"contracts/ZrSignTransfer.sol\":1977:2756  function submitTransaction(... */\n      pop\n      pop\n      pop\n      pop\n      pop\n      pop\n      pop\n      pop\n      jump\t// out\n        /* \"contracts/ZrSignTransfer.sol\":201:229  IZrSign public zrSignConnect */\n    tag_16:\n      0x00\n      dup1\n      sload\n      swap1\n      0x0100\n      exp\n      swap1\n      div\n      0xffffffffffffffffffffffffffffffffffffffff\n      and\n      dup2\n      jump\t// out\n        /* \"contracts/ZrSignTransfer.sol\":552:1215  function submitTransaction(... */\n    tag_22:\n        /* \"contracts/ZrSignTransfer.sol\":703:720  bytes memory data */\n      0x00\n        /* \"contracts/ZrSignTransfer.sol\":723:754  Lib_RLPWriter.writeBytes(_data) */\n      tag_44\n        /* \"contracts/ZrSignTransfer.sol\":748:753  _data */\n      dup3\n        /* \"contracts/ZrSignTransfer.sol\":723:747  Lib_RLPWriter.writeBytes */\n      tag_25\n        /* \"contracts/ZrSignTransfer.sol\":723:754  Lib_RLPWriter.writeBytes(_data) */\n      jump\t// in\n    tag_44:\n        /* \"contracts/ZrSignTransfer.sol\":703:754  bytes memory data = Lib_RLPWriter.writeBytes(_data) */\n      swap1\n      pop\n        /* \"contracts/ZrSignTransfer.sol\":764:795  bytes memory rlpTransactionData */\n      0x00\n        /* \"contracts/ZrSignTransfer.sol\":798:867  rlpEncodeTransaction(_nonce, _gasPrice, _gasLimit, _to, _value, data) */\n      tag_45\n        /* \"contracts/ZrSignTransfer.sol\":819:825  _nonce */\n      sload(0x01)\n        /* \"contracts/ZrSignTransfer.sol\":827:836  _gasPrice */\n      sload(0x02)\n        /* \"contracts/ZrSignTransfer.sol\":838:847  _gasLimit */\n      sload(0x03)\n        /* \"contracts/ZrSignTransfer.sol\":849:852  _to */\n      dup9\n        /* \"contracts/ZrSignTransfer.sol\":854:860  _value */\n      dup9\n        /* \"contracts/ZrSignTransfer.sol\":862:866  data */\n      dup8\n        /* \"contracts/ZrSignTransfer.sol\":798:818  rlpEncodeTransaction */\n      tag_27\n        /* \"contracts/ZrSignTransfer.sol\":798:867  rlpEncodeTransaction(_nonce, _gasPrice, _gasLimit, _to, _value, data) */\n      jump\t// in\n    tag_45:\n        /* \"contracts/ZrSignTransfer.sol\":764:867  bytes memory rlpTransactionData = rlpEncodeTransaction(_nonce, _gasPrice, _gasLimit, _to, _value, data) */\n      swap1\n      pop\n        /* \"contracts/ZrSignTransfer.sol\":886:922  SignTypes.ZrSignParams memory params */\n      0x00\n        /* \"contracts/ZrSignTransfer.sol\":925:1149  SignTypes.ZrSignParams({... */\n      mload(0x40)\n      dup1\n      0xa0\n      add\n      0x40\n      mstore\n      dup1\n        /* \"contracts/ZrSignTransfer.sol\":976:989  EVMWalletType */\n      0x45564d5f57414c4c45545f545950450000000000000000000000000000000000\n        /* \"contracts/ZrSignTransfer.sol\":925:1149  SignTypes.ZrSignParams({... */\n      dup2\n      mstore\n      0x20\n      add\n        /* \"contracts/ZrSignTransfer.sol\":1016:1029  _fromKeyIndex */\n      dup9\n        /* \"contracts/ZrSignTransfer.sol\":925:1149  SignTypes.ZrSignParams({... */\n      dup2\n      mstore\n      0x20\n      add\n        /* \"contracts/ZrSignTransfer.sol\":1055:1068  mumbaiChainId */\n      0x4d554d4241495f434841494e5f49440000000000000000000000000000000000\n        /* \"contracts/ZrSignTransfer.sol\":925:1149  SignTypes.ZrSignParams({... */\n      dup2\n      mstore\n      0x20\n      add\n        /* \"contracts/ZrSignTransfer.sol\":1091:1109  rlpTransactionData */\n      dup4\n        /* \"contracts/ZrSignTransfer.sol\":925:1149  SignTypes.ZrSignParams({... */\n      dup2\n      mstore\n      0x20\n      add\n        /* \"contracts/ZrSignTransfer.sol\":1134:1138  true */\n      0x01\n        /* \"contracts/ZrSignTransfer.sol\":925:1149  SignTypes.ZrSignParams({... */\n      iszero\n      iszero\n      dup2\n      mstore\n      pop\n        /* \"contracts/ZrSignTransfer.sol\":886:1149  SignTypes.ZrSignParams memory params = SignTypes.ZrSignParams({... */\n      swap1\n      pop\n        /* \"contracts/ZrSignTransfer.sol\":1160:1173  zrSignConnect */\n      0x00\n      dup1\n      sload\n      swap1\n      0x0100\n      exp\n      swap1\n      div\n      0xffffffffffffffffffffffffffffffffffffffff\n      and\n        /* \"contracts/ZrSignTransfer.sol\":1160:1182  zrSignConnect.zrSignTx */\n      0xffffffffffffffffffffffffffffffffffffffff\n      and\n      0x93f874c4\n        /* \"contracts/ZrSignTransfer.sol\":1183:1189  params */\n      dup3\n        /* \"contracts/ZrSignTransfer.sol\":1160:1190  zrSignConnect.zrSignTx(params) */\n      mload(0x40)\n      dup3\n      0xffffffff\n      and\n      0xe0\n      shl\n      dup2\n      mstore\n      0x04\n      add\n      tag_46\n      swap2\n      swap1\n      tag_29\n      jump\t// in\n    tag_46:\n      0x00\n      mload(0x40)\n      dup1\n      dup4\n      sub\n      dup2\n      0x00\n      dup8\n      dup1\n      extcodesize\n      iszero\n      dup1\n      iszero\n      tag_47\n      jumpi\n      0x00\n      dup1\n      revert\n    tag_47:\n      pop\n      gas\n      call\n      iszero\n      dup1\n      iszero\n      tag_49\n      jumpi\n      returndatasize\n      0x00\n      dup1\n      returndatacopy\n      revert(0x00, returndatasize)\n    tag_49:\n      pop\n      pop\n      pop\n      pop\n        /* \"contracts/ZrSignTransfer.sol\":1200:1206  _nonce */\n      0x01\n      0x00\n        /* \"contracts/ZrSignTransfer.sol\":1200:1208  _nonce++ */\n      dup2\n      sload\n      dup1\n      swap3\n      swap2\n      swap1\n      tag_50\n      swap1\n      tag_34\n      jump\t// in\n    tag_50:\n      swap2\n      swap1\n      pop\n      sstore\n      pop\n        /* \"contracts/ZrSignTransfer.sol\":693:1215  {... */\n      pop\n      pop\n      pop\n        /* \"contracts/ZrSignTransfer.sol\":552:1215  function submitTransaction(... */\n      pop\n      pop\n      pop\n      pop\n      jump\t// out\n        /* \"contracts/libraries/Lib_RLPWriter.sol\":314:636  function writeBytes(bytes memory _in) internal pure returns (bytes memory) {... */\n    tag_25:\n        /* \"contracts/libraries/Lib_RLPWriter.sol\":375:387  bytes memory */\n      0x60\n        /* \"contracts/libraries/Lib_RLPWriter.sol\":399:419  bytes memory encoded */\n      dup1\n        /* \"contracts/libraries/Lib_RLPWriter.sol\":448:449  1 */\n      0x01\n        /* \"contracts/libraries/Lib_RLPWriter.sol\":434:437  _in */\n      dup4\n        /* \"contracts/libraries/Lib_RLPWriter.sol\":434:444  _in.length */\n      mload\n        /* \"contracts/libraries/Lib_RLPWriter.sol\":434:449  _in.length == 1 */\n      eq\n        /* \"contracts/libraries/Lib_RLPWriter.sol\":434:472  _in.length == 1 && uint8(_in[0]) < 128 */\n      dup1\n      iszero\n      tag_52\n      jumpi\n      pop\n        /* \"contracts/libraries/Lib_RLPWriter.sol\":469:472  128 */\n      0x80\n        /* \"contracts/libraries/Lib_RLPWriter.sol\":459:462  _in */\n      dup4\n        /* \"contracts/libraries/Lib_RLPWriter.sol\":463:464  0 */\n      0x00\n        /* \"contracts/libraries/Lib_RLPWriter.sol\":459:465  _in[0] */\n      dup2\n      mload\n      dup2\n      lt\n      tag_53\n      jumpi\n      tag_54\n      tag_55\n      jump\t// in\n    tag_54:\n    tag_53:\n      0x20\n      add\n      add\n      mload\n      0xf8\n      shr\n      0xf8\n      shl\n        /* \"contracts/libraries/Lib_RLPWriter.sol\":453:466  uint8(_in[0]) */\n      0xf8\n      shr\n        /* \"contracts/libraries/Lib_RLPWriter.sol\":453:472  uint8(_in[0]) < 128 */\n      0xff\n      and\n      lt\n        /* \"contracts/libraries/Lib_RLPWriter.sol\":434:472  _in.length == 1 && uint8(_in[0]) < 128 */\n    tag_52:\n        /* \"contracts/libraries/Lib_RLPWriter.sol\":430:605  if (_in.length == 1 && uint8(_in[0]) < 128) {... */\n      iszero\n      tag_56\n      jumpi\n        /* \"contracts/libraries/Lib_RLPWriter.sol\":498:501  _in */\n      dup3\n        /* \"contracts/libraries/Lib_RLPWriter.sol\":488:501  encoded = _in */\n      swap1\n      pop\n        /* \"contracts/libraries/Lib_RLPWriter.sol\":430:605  if (_in.length == 1 && uint8(_in[0]) < 128) {... */\n      jump(tag_57)\n    tag_56:\n        /* \"contracts/libraries/Lib_RLPWriter.sol\":559:588  _writeLength(_in.length, 128) */\n      tag_58\n        /* \"contracts/libraries/Lib_RLPWriter.sol\":572:575  _in */\n      dup4\n        /* \"contracts/libraries/Lib_RLPWriter.sol\":572:582  _in.length */\n      mload\n        /* \"contracts/libraries/Lib_RLPWriter.sol\":584:587  128 */\n      0x80\n        /* \"contracts/libraries/Lib_RLPWriter.sol\":559:571  _writeLength */\n      tag_59\n        /* \"contracts/libraries/Lib_RLPWriter.sol\":559:588  _writeLength(_in.length, 128) */\n      jump\t// in\n    tag_58:\n        /* \"contracts/libraries/Lib_RLPWriter.sol\":590:593  _in */\n      dup4\n        /* \"contracts/libraries/Lib_RLPWriter.sol\":542:594  abi.encodePacked(_writeLength(_in.length, 128), _in) */\n      add(0x20, mload(0x40))\n      tag_60\n      swap3\n      swap2\n      swap1\n      tag_61\n      jump\t// in\n    tag_60:\n      mload(0x40)\n      0x20\n      dup2\n      dup4\n      sub\n      sub\n      dup2\n      mstore\n      swap1\n      0x40\n      mstore\n        /* \"contracts/libraries/Lib_RLPWriter.sol\":532:594  encoded = abi.encodePacked(_writeLength(_in.length, 128), _in) */\n      swap1\n      pop\n        /* \"contracts/libraries/Lib_RLPWriter.sol\":430:605  if (_in.length == 1 && uint8(_in[0]) < 128) {... */\n    tag_57:\n        /* \"contracts/libraries/Lib_RLPWriter.sol\":622:629  encoded */\n      dup1\n        /* \"contracts/libraries/Lib_RLPWriter.sol\":615:629  return encoded */\n      swap2\n      pop\n      pop\n        /* \"contracts/libraries/Lib_RLPWriter.sol\":314:636  function writeBytes(bytes memory _in) internal pure returns (bytes memory) {... */\n      swap2\n      swap1\n      pop\n      jump\t// out\n        /* \"contracts/ZrSignTransfer.sol\":2762:3412  function rlpEncodeTransaction(... */\n    tag_27:\n        /* \"contracts/ZrSignTransfer.sol\":2966:2978  bytes memory */\n      0x60\n        /* \"contracts/ZrSignTransfer.sol\":2990:3015  bytes[] memory rlpEncoded */\n      0x00\n        /* \"contracts/ZrSignTransfer.sol\":3030:3031  6 */\n      0x06\n        /* \"contracts/ZrSignTransfer.sol\":3018:3032  new bytes[](6) */\n      0xffffffffffffffff\n      dup2\n      gt\n      iszero\n      tag_63\n      jumpi\n      tag_64\n      tag_65\n      jump\t// in\n    tag_64:\n    tag_63:\n      mload(0x40)\n      swap1\n      dup1\n      dup3\n      mstore\n      dup1\n      0x20\n      mul\n      0x20\n      add\n      dup3\n      add\n      0x40\n      mstore\n      dup1\n      iszero\n      tag_66\n      jumpi\n      dup2\n      0x20\n      add\n    tag_67:\n      0x60\n      dup2\n      mstore\n      0x20\n      add\n      swap1\n      0x01\n      swap1\n      sub\n      swap1\n      dup2\n      tag_67\n      jumpi\n      swap1\n      pop\n    tag_66:\n      pop\n        /* \"contracts/ZrSignTransfer.sol\":2990:3032  bytes[] memory rlpEncoded = new bytes[](6) */\n      swap1\n      pop\n        /* \"contracts/ZrSignTransfer.sol\":3058:3088  Lib_RLPWriter.writeUint(nonce) */\n      tag_68\n        /* \"contracts/ZrSignTransfer.sol\":3082:3087  nonce */\n      dup9\n        /* \"contracts/ZrSignTransfer.sol\":3058:3081  Lib_RLPWriter.writeUint */\n      tag_69\n        /* \"contracts/ZrSignTransfer.sol\":3058:3088  Lib_RLPWriter.writeUint(nonce) */\n      jump\t// in\n    tag_68:\n        /* \"contracts/ZrSignTransfer.sol\":3042:3052  rlpEncoded */\n      dup2\n        /* \"contracts/ZrSignTransfer.sol\":3053:3054  0 */\n      0x00\n        /* \"contracts/ZrSignTransfer.sol\":3042:3055  rlpEncoded[0] */\n      dup2\n      mload\n      dup2\n      lt\n      tag_70\n      jumpi\n      tag_71\n      tag_55\n      jump\t// in\n    tag_71:\n    tag_70:\n      0x20\n      mul\n      0x20\n      add\n      add\n        /* \"contracts/ZrSignTransfer.sol\":3042:3088  rlpEncoded[0] = Lib_RLPWriter.writeUint(nonce) */\n      dup2\n      swap1\n      mstore\n      pop\n        /* \"contracts/ZrSignTransfer.sol\":3114:3147  Lib_RLPWriter.writeUint(gasPrice) */\n      tag_72\n        /* \"contracts/ZrSignTransfer.sol\":3138:3146  gasPrice */\n      dup8\n        /* \"contracts/ZrSignTransfer.sol\":3114:3137  Lib_RLPWriter.writeUint */\n      tag_69\n        /* \"contracts/ZrSignTransfer.sol\":3114:3147  Lib_RLPWriter.writeUint(gasPrice) */\n      jump\t// in\n    tag_72:\n        /* \"contracts/ZrSignTransfer.sol\":3098:3108  rlpEncoded */\n      dup2\n        /* \"contracts/ZrSignTransfer.sol\":3109:3110  1 */\n      0x01\n        /* \"contracts/ZrSignTransfer.sol\":3098:3111  rlpEncoded[1] */\n      dup2\n      mload\n      dup2\n      lt\n      tag_73\n      jumpi\n      tag_74\n      tag_55\n      jump\t// in\n    tag_74:\n    tag_73:\n      0x20\n      mul\n      0x20\n      add\n      add\n        /* \"contracts/ZrSignTransfer.sol\":3098:3147  rlpEncoded[1] = Lib_RLPWriter.writeUint(gasPrice) */\n      dup2\n      swap1\n      mstore\n      pop\n        /* \"contracts/ZrSignTransfer.sol\":3173:3206  Lib_RLPWriter.writeUint(gasLimit) */\n      tag_75\n        /* \"contracts/ZrSignTransfer.sol\":3197:3205  gasLimit */\n      dup7\n        /* \"contracts/ZrSignTransfer.sol\":3173:3196  Lib_RLPWriter.writeUint */\n      tag_69\n        /* \"contracts/ZrSignTransfer.sol\":3173:3206  Lib_RLPWriter.writeUint(gasLimit) */\n      jump\t// in\n    tag_75:\n        /* \"contracts/ZrSignTransfer.sol\":3157:3167  rlpEncoded */\n      dup2\n        /* \"contracts/ZrSignTransfer.sol\":3168:3169  2 */\n      0x02\n        /* \"contracts/ZrSignTransfer.sol\":3157:3170  rlpEncoded[2] */\n      dup2\n      mload\n      dup2\n      lt\n      tag_76\n      jumpi\n      tag_77\n      tag_55\n      jump\t// in\n    tag_77:\n    tag_76:\n      0x20\n      mul\n      0x20\n      add\n      add\n        /* \"contracts/ZrSignTransfer.sol\":3157:3206  rlpEncoded[2] = Lib_RLPWriter.writeUint(gasLimit) */\n      dup2\n      swap1\n      mstore\n      pop\n        /* \"contracts/ZrSignTransfer.sol\":3232:3262  Lib_RLPWriter.writeAddress(to) */\n      tag_78\n        /* \"contracts/ZrSignTransfer.sol\":3259:3261  to */\n      dup6\n        /* \"contracts/ZrSignTransfer.sol\":3232:3258  Lib_RLPWriter.writeAddress */\n      tag_79\n        /* \"contracts/ZrSignTransfer.sol\":3232:3262  Lib_RLPWriter.writeAddress(to) */\n      jump\t// in\n    tag_78:\n        /* \"contracts/ZrSignTransfer.sol\":3216:3226  rlpEncoded */\n      dup2\n        /* \"contracts/ZrSignTransfer.sol\":3227:3228  3 */\n      0x03\n        /* \"contracts/ZrSignTransfer.sol\":3216:3229  rlpEncoded[3] */\n      dup2\n      mload\n      dup2\n      lt\n      tag_80\n      jumpi\n      tag_81\n      tag_55\n      jump\t// in\n    tag_81:\n    tag_80:\n      0x20\n      mul\n      0x20\n      add\n      add\n        /* \"contracts/ZrSignTransfer.sol\":3216:3262  rlpEncoded[3] = Lib_RLPWriter.writeAddress(to) */\n      dup2\n      swap1\n      mstore\n      pop\n        /* \"contracts/ZrSignTransfer.sol\":3288:3318  Lib_RLPWriter.writeUint(value) */\n      tag_82\n        /* \"contracts/ZrSignTransfer.sol\":3312:3317  value */\n      dup5\n        /* \"contracts/ZrSignTransfer.sol\":3288:3311  Lib_RLPWriter.writeUint */\n      tag_69\n        /* \"contracts/ZrSignTransfer.sol\":3288:3318  Lib_RLPWriter.writeUint(value) */\n      jump\t// in\n    tag_82:\n        /* \"contracts/ZrSignTransfer.sol\":3272:3282  rlpEncoded */\n      dup2\n        /* \"contracts/ZrSignTransfer.sol\":3283:3284  4 */\n      0x04\n        /* \"contracts/ZrSignTransfer.sol\":3272:3285  rlpEncoded[4] */\n      dup2\n      mload\n      dup2\n      lt\n      tag_83\n      jumpi\n      tag_84\n      tag_55\n      jump\t// in\n    tag_84:\n    tag_83:\n      0x20\n      mul\n      0x20\n      add\n      add\n        /* \"contracts/ZrSignTransfer.sol\":3272:3318  rlpEncoded[4] = Lib_RLPWriter.writeUint(value) */\n      dup2\n      swap1\n      mstore\n      pop\n        /* \"contracts/ZrSignTransfer.sol\":3344:3348  data */\n      dup3\n        /* \"contracts/ZrSignTransfer.sol\":3328:3338  rlpEncoded */\n      dup2\n        /* \"contracts/ZrSignTransfer.sol\":3339:3340  5 */\n      0x05\n        /* \"contracts/ZrSignTransfer.sol\":3328:3341  rlpEncoded[5] */\n      dup2\n      mload\n      dup2\n      lt\n      tag_85\n      jumpi\n      tag_86\n      tag_55\n      jump\t// in\n    tag_86:\n    tag_85:\n      0x20\n      mul\n      0x20\n      add\n      add\n        /* \"contracts/ZrSignTransfer.sol\":3328:3348  rlpEncoded[5] = data */\n      dup2\n      swap1\n      mstore\n      pop\n        /* \"contracts/ZrSignTransfer.sol\":3370:3405  Lib_RLPWriter.writeList(rlpEncoded) */\n      tag_87\n        /* \"contracts/ZrSignTransfer.sol\":3394:3404  rlpEncoded */\n      dup2\n        /* \"contracts/ZrSignTransfer.sol\":3370:3393  Lib_RLPWriter.writeList */\n      tag_88\n        /* \"contracts/ZrSignTransfer.sol\":3370:3405  Lib_RLPWriter.writeList(rlpEncoded) */\n      jump\t// in\n    tag_87:\n        /* \"contracts/ZrSignTransfer.sol\":3363:3405  return Lib_RLPWriter.writeList(rlpEncoded) */\n      swap2\n      pop\n      pop\n        /* \"contracts/ZrSignTransfer.sol\":2762:3412  function rlpEncodeTransaction(... */\n      swap7\n      swap6\n      pop\n      pop\n      pop\n      pop\n      pop\n      pop\n      jump\t// out\n        /* \"contracts/libraries/Lib_RLPWriter.sol\":2512:3226  function _writeLength(uint256 _len, uint256 _offset) private pure returns (bytes memory) {... */\n    tag_59:\n        /* \"contracts/libraries/Lib_RLPWriter.sol\":2587:2599  bytes memory */\n      0x60\n        /* \"contracts/libraries/Lib_RLPWriter.sol\":2611:2631  bytes memory encoded */\n      dup1\n        /* \"contracts/libraries/Lib_RLPWriter.sol\":2653:2655  56 */\n      0x38\n        /* \"contracts/libraries/Lib_RLPWriter.sol\":2646:2650  _len */\n      dup5\n        /* \"contracts/libraries/Lib_RLPWriter.sol\":2646:2655  _len < 56 */\n      lt\n        /* \"contracts/libraries/Lib_RLPWriter.sol\":2642:3195  if (_len < 56) {... */\n      iszero\n      tag_90\n      jumpi\n        /* \"contracts/libraries/Lib_RLPWriter.sol\":2691:2692  1 */\n      0x01\n        /* \"contracts/libraries/Lib_RLPWriter.sol\":2681:2693  new bytes(1) */\n      0xffffffffffffffff\n      dup2\n      gt\n      iszero\n      tag_91\n      jumpi\n      tag_92\n      tag_65\n      jump\t// in\n    tag_92:\n    tag_91:\n      mload(0x40)\n      swap1\n      dup1\n      dup3\n      mstore\n      dup1\n      0x1f\n      add\n      not(0x1f)\n      and\n      0x20\n      add\n      dup3\n      add\n      0x40\n      mstore\n      dup1\n      iszero\n      tag_93\n      jumpi\n      dup2\n      0x20\n      add\n      0x01\n      dup3\n      mul\n      dup1\n      calldatasize\n      dup4\n      calldatacopy\n      dup1\n      dup3\n      add\n      swap2\n      pop\n      pop\n      swap1\n      pop\n    tag_93:\n      pop\n        /* \"contracts/libraries/Lib_RLPWriter.sol\":2671:2693  encoded = new bytes(1) */\n      swap1\n      pop\n        /* \"contracts/libraries/Lib_RLPWriter.sol\":2747:2754  _offset */\n      dup3\n        /* \"contracts/libraries/Lib_RLPWriter.sol\":2733:2737  _len */\n      dup5\n        /* \"contracts/libraries/Lib_RLPWriter.sol\":2727:2755  uint8(_len) + uint8(_offset) */\n      tag_94\n      swap2\n      swap1\n      tag_95\n      jump\t// in\n    tag_94:\n        /* \"contracts/libraries/Lib_RLPWriter.sol\":2720:2756  bytes1(uint8(_len) + uint8(_offset)) */\n      0xf8\n      shl\n        /* \"contracts/libraries/Lib_RLPWriter.sol\":2707:2714  encoded */\n      dup2\n        /* \"contracts/libraries/Lib_RLPWriter.sol\":2715:2716  0 */\n      0x00\n        /* \"contracts/libraries/Lib_RLPWriter.sol\":2707:2717  encoded[0] */\n      dup2\n      mload\n      dup2\n      lt\n      tag_96\n      jumpi\n      tag_97\n      tag_55\n      jump\t// in\n    tag_97:\n    tag_96:\n      0x20\n      add\n      add\n        /* \"contracts/libraries/Lib_RLPWriter.sol\":2707:2756  encoded[0] = bytes1(uint8(_len) + uint8(_offset)) */\n      swap1\n      not(0xffffffffffffffffffffffffffffffffffffffffffffffffffffffffffffff)\n      and\n      swap1\n      dup2\n      0x00\n      byte\n      swap1\n      mstore8\n      pop\n        /* \"contracts/libraries/Lib_RLPWriter.sol\":2642:3195  if (_len < 56) {... */\n      jump(tag_98)\n    tag_90:\n        /* \"contracts/libraries/Lib_RLPWriter.sol\":2787:2801  uint256 lenLen */\n      0x00\n        /* \"contracts/libraries/Lib_RLPWriter.sol\":2815:2824  uint256 i */\n      dup1\n        /* \"contracts/libraries/Lib_RLPWriter.sol\":2827:2828  1 */\n      0x01\n        /* \"contracts/libraries/Lib_RLPWriter.sol\":2815:2828  uint256 i = 1 */\n      swap1\n      pop\n        /* \"contracts/libraries/Lib_RLPWriter.sol\":2842:2931  while (_len / i != 0) {... */\n    tag_99:\n        /* \"contracts/libraries/Lib_RLPWriter.sol\":2861:2862  0 */\n      0x00\n        /* \"contracts/libraries/Lib_RLPWriter.sol\":2856:2857  i */\n      dup2\n        /* \"contracts/libraries/Lib_RLPWriter.sol\":2849:2853  _len */\n      dup8\n        /* \"contracts/libraries/Lib_RLPWriter.sol\":2849:2857  _len / i */\n      tag_101\n      swap2\n      swap1\n      tag_102\n      jump\t// in\n    tag_101:\n        /* \"contracts/libraries/Lib_RLPWriter.sol\":2849:2862  _len / i != 0 */\n      eq\n        /* \"contracts/libraries/Lib_RLPWriter.sol\":2842:2931  while (_len / i != 0) {... */\n      tag_100\n      jumpi\n        /* \"contracts/libraries/Lib_RLPWriter.sol\":2882:2890  lenLen++ */\n      dup2\n      dup1\n      tag_103\n      swap1\n      tag_34\n      jump\t// in\n    tag_103:\n      swap3\n      pop\n      pop\n        /* \"contracts/libraries/Lib_RLPWriter.sol\":2913:2916  256 */\n      0x0100\n        /* \"contracts/libraries/Lib_RLPWriter.sol\":2908:2916  i *= 256 */\n      dup2\n      tag_104\n      swap2\n      swap1\n      tag_105\n      jump\t// in\n    tag_104:\n      swap1\n      pop\n        /* \"contracts/libraries/Lib_RLPWriter.sol\":2842:2931  while (_len / i != 0) {... */\n      jump(tag_99)\n    tag_100:\n        /* \"contracts/libraries/Lib_RLPWriter.sol\":2974:2975  1 */\n      0x01\n        /* \"contracts/libraries/Lib_RLPWriter.sol\":2965:2971  lenLen */\n      dup3\n        /* \"contracts/libraries/Lib_RLPWriter.sol\":2965:2975  lenLen + 1 */\n      tag_106\n      swap2\n      swap1\n      tag_107\n      jump\t// in\n    tag_106:\n        /* \"contracts/libraries/Lib_RLPWriter.sol\":2955:2976  new bytes(lenLen + 1) */\n      0xffffffffffffffff\n      dup2\n      gt\n      iszero\n      tag_108\n      jumpi\n      tag_109\n      tag_65\n      jump\t// in\n    tag_109:\n    tag_108:\n      mload(0x40)\n      swap1\n      dup1\n      dup3\n      mstore\n      dup1\n      0x1f\n      add\n      not(0x1f)\n      and\n      0x20\n      add\n      dup3\n      add\n      0x40\n      mstore\n      dup1\n      iszero\n      tag_110\n      jumpi\n      dup2\n      0x20\n      add\n      0x01\n      dup3\n      mul\n      dup1\n      calldatasize\n      dup4\n      calldatacopy\n      dup1\n      dup3\n      add\n      swap2\n      pop\n      pop\n      swap1\n      pop\n    tag_110:\n      pop\n        /* \"contracts/libraries/Lib_RLPWriter.sol\":2945:2976  encoded = new bytes(lenLen + 1) */\n      swap3\n      pop\n        /* \"contracts/libraries/Lib_RLPWriter.sol\":3043:3045  55 */\n      0x37\n        /* \"contracts/libraries/Lib_RLPWriter.sol\":3032:3039  _offset */\n      dup6\n        /* \"contracts/libraries/Lib_RLPWriter.sol\":3016:3022  lenLen */\n      dup4\n        /* \"contracts/libraries/Lib_RLPWriter.sol\":3010:3040  uint8(lenLen) + uint8(_offset) */\n      tag_111\n      swap2\n      swap1\n      tag_95\n      jump\t// in\n    tag_111:\n        /* \"contracts/libraries/Lib_RLPWriter.sol\":3010:3045  uint8(lenLen) + uint8(_offset) + 55 */\n      tag_112\n      swap2\n      swap1\n      tag_95\n      jump\t// in\n    tag_112:\n        /* \"contracts/libraries/Lib_RLPWriter.sol\":3003:3046  bytes1(uint8(lenLen) + uint8(_offset) + 55) */\n      0xf8\n      shl\n        /* \"contracts/libraries/Lib_RLPWriter.sol\":2990:2997  encoded */\n      dup4\n        /* \"contracts/libraries/Lib_RLPWriter.sol\":2998:2999  0 */\n      0x00\n        /* \"contracts/libraries/Lib_RLPWriter.sol\":2990:3000  encoded[0] */\n      dup2\n      mload\n      dup2\n      lt\n      tag_113\n      jumpi\n      tag_114\n      tag_55\n      jump\t// in\n    tag_114:\n    tag_113:\n      0x20\n      add\n      add\n        /* \"contracts/libraries/Lib_RLPWriter.sol\":2990:3046  encoded[0] = bytes1(uint8(lenLen) + uint8(_offset) + 55) */\n      swap1\n      not(0xffffffffffffffffffffffffffffffffffffffffffffffffffffffffffffff)\n      and\n      swap1\n      dup2\n      0x00\n      byte\n      swap1\n      mstore8\n      pop\n        /* \"contracts/libraries/Lib_RLPWriter.sol\":3069:3070  1 */\n      0x01\n        /* \"contracts/libraries/Lib_RLPWriter.sol\":3065:3070  i = 1 */\n      swap1\n      pop\n        /* \"contracts/libraries/Lib_RLPWriter.sol\":3060:3185  for (i = 1; i <= lenLen; i++) {... */\n    tag_115:\n        /* \"contracts/libraries/Lib_RLPWriter.sol\":3077:3083  lenLen */\n      dup2\n        /* \"contracts/libraries/Lib_RLPWriter.sol\":3072:3073  i */\n      dup2\n        /* \"contracts/libraries/Lib_RLPWriter.sol\":3072:3083  i <= lenLen */\n      gt\n        /* \"contracts/libraries/Lib_RLPWriter.sol\":3060:3185  for (i = 1; i <= lenLen; i++) {... */\n      tag_116\n      jumpi\n        /* \"contracts/libraries/Lib_RLPWriter.sol\":3165:3168  256 */\n      0x0100\n        /* \"contracts/libraries/Lib_RLPWriter.sol\":3158:3159  i */\n      dup2\n        /* \"contracts/libraries/Lib_RLPWriter.sol\":3149:3155  lenLen */\n      dup4\n        /* \"contracts/libraries/Lib_RLPWriter.sol\":3149:3159  lenLen - i */\n      tag_118\n      swap2\n      swap1\n      tag_119\n      jump\t// in\n    tag_118:\n        /* \"contracts/libraries/Lib_RLPWriter.sol\":3143:3146  256 */\n      0x0100\n        /* \"contracts/libraries/Lib_RLPWriter.sol\":3143:3160  256**(lenLen - i) */\n      tag_120\n      swap2\n      swap1\n      tag_121\n      jump\t// in\n    tag_120:\n        /* \"contracts/libraries/Lib_RLPWriter.sol\":3135:3139  _len */\n      dup8\n        /* \"contracts/libraries/Lib_RLPWriter.sol\":3135:3161  _len / (256**(lenLen - i)) */\n      tag_122\n      swap2\n      swap1\n      tag_102\n      jump\t// in\n    tag_122:\n        /* \"contracts/libraries/Lib_RLPWriter.sol\":3134:3168  (_len / (256**(lenLen - i))) % 256 */\n      tag_123\n      swap2\n      swap1\n      tag_124\n      jump\t// in\n    tag_123:\n        /* \"contracts/libraries/Lib_RLPWriter.sol\":3121:3170  bytes1(uint8((_len / (256**(lenLen - i))) % 256)) */\n      0xf8\n      shl\n        /* \"contracts/libraries/Lib_RLPWriter.sol\":3108:3115  encoded */\n      dup4\n        /* \"contracts/libraries/Lib_RLPWriter.sol\":3116:3117  i */\n      dup3\n        /* \"contracts/libraries/Lib_RLPWriter.sol\":3108:3118  encoded[i] */\n      dup2\n      mload\n      dup2\n      lt\n      tag_125\n      jumpi\n      tag_126\n      tag_55\n      jump\t// in\n    tag_126:\n    tag_125:\n      0x20\n      add\n      add\n        /* \"contracts/libraries/Lib_RLPWriter.sol\":3108:3170  encoded[i] = bytes1(uint8((_len / (256**(lenLen - i))) % 256)) */\n      swap1\n      not(0xffffffffffffffffffffffffffffffffffffffffffffffffffffffffffffff)\n      and\n      swap1\n      dup2\n      0x00\n      byte\n      swap1\n      mstore8\n      pop\n        /* \"contracts/libraries/Lib_RLPWriter.sol\":3085:3088  i++ */\n      dup1\n      dup1\n      tag_127\n      swap1\n      tag_34\n      jump\t// in\n    tag_127:\n      swap2\n      pop\n      pop\n        /* \"contracts/libraries/Lib_RLPWriter.sol\":3060:3185  for (i = 1; i <= lenLen; i++) {... */\n      jump(tag_115)\n    tag_116:\n        /* \"contracts/libraries/Lib_RLPWriter.sol\":2773:3195  {... */\n      pop\n      pop\n        /* \"contracts/libraries/Lib_RLPWriter.sol\":2642:3195  if (_len < 56) {... */\n    tag_98:\n        /* \"contracts/libraries/Lib_RLPWriter.sol\":3212:3219  encoded */\n      dup1\n        /* \"contracts/libraries/Lib_RLPWriter.sol\":3205:3219  return encoded */\n      swap2\n      pop\n      pop\n        /* \"contracts/libraries/Lib_RLPWriter.sol\":2512:3226  function _writeLength(uint256 _len, uint256 _offset) private pure returns (bytes memory) {... */\n      swap3\n      swap2\n      pop\n      pop\n      jump\t// out\n        /* \"contracts/libraries/Lib_RLPWriter.sol\":1699:1818  function writeUint(uint256 _in) internal pure returns (bytes memory) {... */\n    tag_69:\n        /* \"contracts/libraries/Lib_RLPWriter.sol\":1754:1766  bytes memory */\n      0x60\n        /* \"contracts/libraries/Lib_RLPWriter.sol\":1785:1811  writeBytes(_toBinary(_in)) */\n      tag_129\n        /* \"contracts/libraries/Lib_RLPWriter.sol\":1796:1810  _toBinary(_in) */\n      tag_130\n        /* \"contracts/libraries/Lib_RLPWriter.sol\":1806:1809  _in */\n      dup4\n        /* \"contracts/libraries/Lib_RLPWriter.sol\":1796:1805  _toBinary */\n      tag_131\n        /* \"contracts/libraries/Lib_RLPWriter.sol\":1796:1810  _toBinary(_in) */\n      jump\t// in\n    tag_130:\n        /* \"contracts/libraries/Lib_RLPWriter.sol\":1785:1795  writeBytes */\n      tag_25\n        /* \"contracts/libraries/Lib_RLPWriter.sol\":1785:1811  writeBytes(_toBinary(_in)) */\n      jump\t// in\n    tag_129:\n        /* \"contracts/libraries/Lib_RLPWriter.sol\":1778:1811  return writeBytes(_toBinary(_in)) */\n      swap1\n      pop\n        /* \"contracts/libraries/Lib_RLPWriter.sol\":1699:1818  function writeUint(uint256 _in) internal pure returns (bytes memory) {... */\n      swap2\n      swap1\n      pop\n      jump\t// out\n        /* \"contracts/libraries/Lib_RLPWriter.sol\":1431:1560  function writeAddress(address _in) internal pure returns (bytes memory) {... */\n    tag_79:\n        /* \"contracts/libraries/Lib_RLPWriter.sol\":1489:1501  bytes memory */\n      0x60\n        /* \"contracts/libraries/Lib_RLPWriter.sol\":1520:1553  writeBytes(abi.encodePacked(_in)) */\n      tag_133\n        /* \"contracts/libraries/Lib_RLPWriter.sol\":1548:1551  _in */\n      dup3\n        /* \"contracts/libraries/Lib_RLPWriter.sol\":1531:1552  abi.encodePacked(_in) */\n      add(0x20, mload(0x40))\n      tag_134\n      swap2\n      swap1\n      tag_135\n      jump\t// in\n    tag_134:\n      mload(0x40)\n      0x20\n      dup2\n      dup4\n      sub\n      sub\n      dup2\n      mstore\n      swap1\n      0x40\n      mstore\n        /* \"contracts/libraries/Lib_RLPWriter.sol\":1520:1530  writeBytes */\n      tag_25\n        /* \"contracts/libraries/Lib_RLPWriter.sol\":1520:1553  writeBytes(abi.encodePacked(_in)) */\n      jump\t// in\n    tag_133:\n        /* \"contracts/libraries/Lib_RLPWriter.sol\":1513:1553  return writeBytes(abi.encodePacked(_in)) */\n      swap1\n      pop\n        /* \"contracts/libraries/Lib_RLPWriter.sol\":1431:1560  function writeAddress(address _in) internal pure returns (bytes memory) {... */\n      swap2\n      swap1\n      pop\n      jump\t// out\n        /* \"contracts/libraries/Lib_RLPWriter.sol\":829:1026  function writeList(bytes[] memory _in) internal pure returns (bytes memory) {... */\n    tag_88:\n        /* \"contracts/libraries/Lib_RLPWriter.sol\":891:903  bytes memory */\n      0x60\n        /* \"contracts/libraries/Lib_RLPWriter.sol\":915:932  bytes memory list */\n      0x00\n        /* \"contracts/libraries/Lib_RLPWriter.sol\":935:948  _flatten(_in) */\n      tag_137\n        /* \"contracts/libraries/Lib_RLPWriter.sol\":944:947  _in */\n      dup4\n        /* \"contracts/libraries/Lib_RLPWriter.sol\":935:943  _flatten */\n      tag_138\n        /* \"contracts/libraries/Lib_RLPWriter.sol\":935:948  _flatten(_in) */\n      jump\t// in\n    tag_137:\n        /* \"contracts/libraries/Lib_RLPWriter.sol\":915:948  bytes memory list = _flatten(_in) */\n      swap1\n      pop\n        /* \"contracts/libraries/Lib_RLPWriter.sol\":982:1012  _writeLength(list.length, 192) */\n      tag_139\n        /* \"contracts/libraries/Lib_RLPWriter.sol\":995:999  list */\n      dup2\n        /* \"contracts/libraries/Lib_RLPWriter.sol\":995:1006  list.length */\n      mload\n        /* \"contracts/libraries/Lib_RLPWriter.sol\":1008:1011  192 */\n      0xc0\n        /* \"contracts/libraries/Lib_RLPWriter.sol\":982:994  _writeLength */\n      tag_59\n        /* \"contracts/libraries/Lib_RLPWriter.sol\":982:1012  _writeLength(list.length, 192) */\n      jump\t// in\n    tag_139:\n        /* \"contracts/libraries/Lib_RLPWriter.sol\":1014:1018  list */\n      dup2\n        /* \"contracts/libraries/Lib_RLPWriter.sol\":965:1019  abi.encodePacked(_writeLength(list.length, 192), list) */\n      add(0x20, mload(0x40))\n      tag_140\n      swap3\n      swap2\n      swap1\n      tag_61\n      jump\t// in\n    tag_140:\n      mload(0x40)\n      0x20\n      dup2\n      dup4\n      sub\n      sub\n      dup2\n      mstore\n      swap1\n      0x40\n      mstore\n        /* \"contracts/libraries/Lib_RLPWriter.sol\":958:1019  return abi.encodePacked(_writeLength(list.length, 192), list) */\n      swap2\n      pop\n      pop\n        /* \"contracts/libraries/Lib_RLPWriter.sol\":829:1026  function writeList(bytes[] memory _in) internal pure returns (bytes memory) {... */\n      swap2\n      swap1\n      pop\n      jump\t// out\n        /* \"contracts/libraries/Lib_RLPWriter.sol\":3473:3883  function _toBinary(uint256 _x) internal pure returns (bytes memory) {... */\n    tag_131:\n        /* \"contracts/libraries/Lib_RLPWriter.sol\":3527:3539  bytes memory */\n      0x60\n        /* \"contracts/libraries/Lib_RLPWriter.sol\":3551:3565  bytes memory b */\n      0x00\n        /* \"contracts/libraries/Lib_RLPWriter.sol\":3585:3587  _x */\n      dup3\n        /* \"contracts/libraries/Lib_RLPWriter.sol\":3568:3588  abi.encodePacked(_x) */\n      add(0x20, mload(0x40))\n      tag_142\n      swap2\n      swap1\n      tag_143\n      jump\t// in\n    tag_142:\n      mload(0x40)\n      0x20\n      dup2\n      dup4\n      sub\n      sub\n      dup2\n      mstore\n      swap1\n      0x40\n      mstore\n        /* \"contracts/libraries/Lib_RLPWriter.sol\":3551:3588  bytes memory b = abi.encodePacked(_x) */\n      swap1\n      pop\n        /* \"contracts/libraries/Lib_RLPWriter.sol\":3599:3608  uint256 i */\n      0x00\n        /* \"contracts/libraries/Lib_RLPWriter.sol\":3622:3719  for (; i < 32; i++) {... */\n    tag_144:\n        /* \"contracts/libraries/Lib_RLPWriter.sol\":3633:3635  32 */\n      0x20\n        /* \"contracts/libraries/Lib_RLPWriter.sol\":3629:3630  i */\n      dup2\n        /* \"contracts/libraries/Lib_RLPWriter.sol\":3629:3635  i < 32 */\n      lt\n        /* \"contracts/libraries/Lib_RLPWriter.sol\":3622:3719  for (; i < 32; i++) {... */\n      iszero\n      tag_145\n      jumpi\n        /* \"contracts/libraries/Lib_RLPWriter.sol\":3668:3669  0 */\n      0x00\n        /* \"contracts/libraries/Lib_RLPWriter.sol\":3660:3669  b[i] != 0 */\n      0xf8\n      shl\n        /* \"contracts/libraries/Lib_RLPWriter.sol\":3660:3661  b */\n      dup3\n        /* \"contracts/libraries/Lib_RLPWriter.sol\":3662:3663  i */\n      dup3\n        /* \"contracts/libraries/Lib_RLPWriter.sol\":3660:3664  b[i] */\n      dup2\n      mload\n      dup2\n      lt\n      tag_147\n      jumpi\n      tag_148\n      tag_55\n      jump\t// in\n    tag_148:\n    tag_147:\n      0x20\n      add\n      add\n      mload\n      0xf8\n      shr\n      0xf8\n      shl\n        /* \"contracts/libraries/Lib_RLPWriter.sol\":3660:3669  b[i] != 0 */\n      not(0xffffffffffffffffffffffffffffffffffffffffffffffffffffffffffffff)\n      and\n      sub\n        /* \"contracts/libraries/Lib_RLPWriter.sol\":3689:3694  break */\n      tag_145\n        /* \"contracts/libraries/Lib_RLPWriter.sol\":3656:3709  if (b[i] != 0) {... */\n      jumpi\n        /* \"contracts/libraries/Lib_RLPWriter.sol\":3637:3640  i++ */\n      dup1\n      dup1\n      0x01\n      add\n      swap2\n      pop\n      pop\n        /* \"contracts/libraries/Lib_RLPWriter.sol\":3622:3719  for (; i < 32; i++) {... */\n      jump(tag_144)\n    tag_145:\n        /* \"contracts/libraries/Lib_RLPWriter.sol\":3729:3745  bytes memory res */\n      0x00\n        /* \"contracts/libraries/Lib_RLPWriter.sol\":3763:3764  i */\n      dup2\n        /* \"contracts/libraries/Lib_RLPWriter.sol\":3758:3760  32 */\n      0x20\n        /* \"contracts/libraries/Lib_RLPWriter.sol\":3758:3764  32 - i */\n      tag_150\n      swap2\n      swap1\n      tag_119\n      jump\t// in\n    tag_150:\n        /* \"contracts/libraries/Lib_RLPWriter.sol\":3748:3765  new bytes(32 - i) */\n      0xffffffffffffffff\n      dup2\n      gt\n      iszero\n      tag_151\n      jumpi\n      tag_152\n      tag_65\n      jump\t// in\n    tag_152:\n    tag_151:\n      mload(0x40)\n      swap1\n      dup1\n      dup3\n      mstore\n      dup1\n      0x1f\n      add\n      not(0x1f)\n      and\n      0x20\n      add\n      dup3\n      add\n      0x40\n      mstore\n      dup1\n      iszero\n      tag_153\n      jumpi\n      dup2\n      0x20\n      add\n      0x01\n      dup3\n      mul\n      dup1\n      calldatasize\n      dup4\n      calldatacopy\n      dup1\n      dup3\n      add\n      swap2\n      pop\n      pop\n      swap1\n      pop\n    tag_153:\n      pop\n        /* \"contracts/libraries/Lib_RLPWriter.sol\":3729:3765  bytes memory res = new bytes(32 - i) */\n      swap1\n      pop\n        /* \"contracts/libraries/Lib_RLPWriter.sol\":3780:3789  uint256 j */\n      0x00\n        /* \"contracts/libraries/Lib_RLPWriter.sol\":3775:3856  for (uint256 j = 0; j < res.length; j++) {... */\n    tag_154:\n        /* \"contracts/libraries/Lib_RLPWriter.sol\":3799:3802  res */\n      dup2\n        /* \"contracts/libraries/Lib_RLPWriter.sol\":3799:3809  res.length */\n      mload\n        /* \"contracts/libraries/Lib_RLPWriter.sol\":3795:3796  j */\n      dup2\n        /* \"contracts/libraries/Lib_RLPWriter.sol\":3795:3809  j < res.length */\n      lt\n        /* \"contracts/libraries/Lib_RLPWriter.sol\":3775:3856  for (uint256 j = 0; j < res.length; j++) {... */\n      iszero\n      tag_155\n      jumpi\n        /* \"contracts/libraries/Lib_RLPWriter.sol\":3839:3840  b */\n      dup4\n        /* \"contracts/libraries/Lib_RLPWriter.sol\":3841:3844  i++ */\n      dup4\n      dup1\n      tag_157\n      swap1\n      tag_34\n      jump\t// in\n    tag_157:\n      swap5\n      pop\n        /* \"contracts/libraries/Lib_RLPWriter.sol\":3839:3845  b[i++] */\n      dup2\n      mload\n      dup2\n      lt\n      tag_158\n      jumpi\n      tag_159\n      tag_55\n      jump\t// in\n    tag_159:\n    tag_158:\n      0x20\n      add\n      add\n      mload\n      0xf8\n      shr\n      0xf8\n      shl\n        /* \"contracts/libraries/Lib_RLPWriter.sol\":3830:3833  res */\n      dup3\n        /* \"contracts/libraries/Lib_RLPWriter.sol\":3834:3835  j */\n      dup3\n        /* \"contracts/libraries/Lib_RLPWriter.sol\":3830:3836  res[j] */\n      dup2\n      mload\n      dup2\n      lt\n      tag_160\n      jumpi\n      tag_161\n      tag_55\n      jump\t// in\n    tag_161:\n    tag_160:\n      0x20\n      add\n      add\n        /* \"contracts/libraries/Lib_RLPWriter.sol\":3830:3845  res[j] = b[i++] */\n      swap1\n      not(0xffffffffffffffffffffffffffffffffffffffffffffffffffffffffffffff)\n      and\n      swap1\n      dup2\n      0x00\n      byte\n      swap1\n      mstore8\n      pop\n        /* \"contracts/libraries/Lib_RLPWriter.sol\":3811:3814  j++ */\n      dup1\n      dup1\n      0x01\n      add\n      swap2\n      pop\n      pop\n        /* \"contracts/libraries/Lib_RLPWriter.sol\":3775:3856  for (uint256 j = 0; j < res.length; j++) {... */\n      jump(tag_154)\n    tag_155:\n      pop\n        /* \"contracts/libraries/Lib_RLPWriter.sol\":3873:3876  res */\n      dup1\n        /* \"contracts/libraries/Lib_RLPWriter.sol\":3866:3876  return res */\n      swap4\n      pop\n      pop\n      pop\n      pop\n        /* \"contracts/libraries/Lib_RLPWriter.sol\":3473:3883  function _toBinary(uint256 _x) internal pure returns (bytes memory) {... */\n      swap2\n      swap1\n      pop\n      jump\t// out\n        /* \"contracts/libraries/Lib_RLPWriter.sol\":5100:5886  function _flatten(bytes[] memory _list) private pure returns (bytes memory) {... */\n    tag_138:\n        /* \"contracts/libraries/Lib_RLPWriter.sol\":5162:5174  bytes memory */\n      0x60\n        /* \"contracts/libraries/Lib_RLPWriter.sol\":5206:5207  0 */\n      0x00\n        /* \"contracts/libraries/Lib_RLPWriter.sol\":5190:5195  _list */\n      dup3\n        /* \"contracts/libraries/Lib_RLPWriter.sol\":5190:5202  _list.length */\n      mload\n        /* \"contracts/libraries/Lib_RLPWriter.sol\":5190:5207  _list.length == 0 */\n      sub\n        /* \"contracts/libraries/Lib_RLPWriter.sol\":5186:5253  if (_list.length == 0) {... */\n      tag_163\n      jumpi\n        /* \"contracts/libraries/Lib_RLPWriter.sol\":5240:5241  0 */\n      0x00\n        /* \"contracts/libraries/Lib_RLPWriter.sol\":5230:5242  new bytes(0) */\n      0xffffffffffffffff\n      dup2\n      gt\n      iszero\n      tag_164\n      jumpi\n      tag_165\n      tag_65\n      jump\t// in\n    tag_165:\n    tag_164:\n      mload(0x40)\n      swap1\n      dup1\n      dup3\n      mstore\n      dup1\n      0x1f\n      add\n      not(0x1f)\n      and\n      0x20\n      add\n      dup3\n      add\n      0x40\n      mstore\n      dup1\n      iszero\n      tag_166\n      jumpi\n      dup2\n      0x20\n      add\n      0x01\n      dup3\n      mul\n      dup1\n      calldatasize\n      dup4\n      calldatacopy\n      dup1\n      dup3\n      add\n      swap2\n      pop\n      pop\n      swap1\n      pop\n    tag_166:\n      pop\n        /* \"contracts/libraries/Lib_RLPWriter.sol\":5223:5242  return new bytes(0) */\n      swap1\n      pop\n      jump(tag_162)\n        /* \"contracts/libraries/Lib_RLPWriter.sol\":5186:5253  if (_list.length == 0) {... */\n    tag_163:\n        /* \"contracts/libraries/Lib_RLPWriter.sol\":5263:5274  uint256 len */\n      0x00\n        /* \"contracts/libraries/Lib_RLPWriter.sol\":5284:5293  uint256 i */\n      dup1\n        /* \"contracts/libraries/Lib_RLPWriter.sol\":5296:5297  0 */\n      0x00\n        /* \"contracts/libraries/Lib_RLPWriter.sol\":5284:5297  uint256 i = 0 */\n      swap1\n      pop\n        /* \"contracts/libraries/Lib_RLPWriter.sol\":5307:5384  for (; i < _list.length; i++) {... */\n    tag_167:\n        /* \"contracts/libraries/Lib_RLPWriter.sol\":5318:5323  _list */\n      dup4\n        /* \"contracts/libraries/Lib_RLPWriter.sol\":5318:5330  _list.length */\n      mload\n        /* \"contracts/libraries/Lib_RLPWriter.sol\":5314:5315  i */\n      dup2\n        /* \"contracts/libraries/Lib_RLPWriter.sol\":5314:5330  i < _list.length */\n      lt\n        /* \"contracts/libraries/Lib_RLPWriter.sol\":5307:5384  for (; i < _list.length; i++) {... */\n      iszero\n      tag_168\n      jumpi\n        /* \"contracts/libraries/Lib_RLPWriter.sol\":5358:5363  _list */\n      dup4\n        /* \"contracts/libraries/Lib_RLPWriter.sol\":5364:5365  i */\n      dup2\n        /* \"contracts/libraries/Lib_RLPWriter.sol\":5358:5366  _list[i] */\n      dup2\n      mload\n      dup2\n      lt\n      tag_170\n      jumpi\n      tag_171\n      tag_55\n      jump\t// in\n    tag_171:\n    tag_170:\n      0x20\n      mul\n      0x20\n      add\n      add\n      mload\n        /* \"contracts/libraries/Lib_RLPWriter.sol\":5358:5373  _list[i].length */\n      mload\n        /* \"contracts/libraries/Lib_RLPWriter.sol\":5351:5373  len += _list[i].length */\n      dup3\n      tag_172\n      swap2\n      swap1\n      tag_107\n      jump\t// in\n    tag_172:\n      swap2\n      pop\n        /* \"contracts/libraries/Lib_RLPWriter.sol\":5332:5335  i++ */\n      dup1\n      dup1\n      0x01\n      add\n      swap2\n      pop\n      pop\n        /* \"contracts/libraries/Lib_RLPWriter.sol\":5307:5384  for (; i < _list.length; i++) {... */\n      jump(tag_167)\n    tag_168:\n        /* \"contracts/libraries/Lib_RLPWriter.sol\":5394:5416  bytes memory flattened */\n      0x00\n        /* \"contracts/libraries/Lib_RLPWriter.sol\":5429:5432  len */\n      dup3\n        /* \"contracts/libraries/Lib_RLPWriter.sol\":5419:5433  new bytes(len) */\n      0xffffffffffffffff\n      dup2\n      gt\n      iszero\n      tag_173\n      jumpi\n      tag_174\n      tag_65\n      jump\t// in\n    tag_174:\n    tag_173:\n      mload(0x40)\n      swap1\n      dup1\n      dup3\n      mstore\n      dup1\n      0x1f\n      add\n      not(0x1f)\n      and\n      0x20\n      add\n      dup3\n      add\n      0x40\n      mstore\n      dup1\n      iszero\n      tag_175\n      jumpi\n      dup2\n      0x20\n      add\n      0x01\n      dup3\n      mul\n      dup1\n      calldatasize\n      dup4\n      calldatacopy\n      dup1\n      dup3\n      add\n      swap2\n      pop\n      pop\n      swap1\n      pop\n    tag_175:\n      pop\n        /* \"contracts/libraries/Lib_RLPWriter.sol\":5394:5433  bytes memory flattened = new bytes(len) */\n      swap1\n      pop\n        /* \"contracts/libraries/Lib_RLPWriter.sol\":5443:5463  uint256 flattenedPtr */\n      0x00\n        /* \"contracts/libraries/Lib_RLPWriter.sol\":5527:5531  0x20 */\n      0x20\n        /* \"contracts/libraries/Lib_RLPWriter.sol\":5516:5525  flattened */\n      dup3\n        /* \"contracts/libraries/Lib_RLPWriter.sol\":5512:5532  add(flattened, 0x20) */\n      add\n        /* \"contracts/libraries/Lib_RLPWriter.sol\":5496:5532  flattenedPtr := add(flattened, 0x20) */\n      swap1\n      pop\n        /* \"contracts/libraries/Lib_RLPWriter.sol\":5561:5562  0 */\n      0x00\n        /* \"contracts/libraries/Lib_RLPWriter.sol\":5557:5562  i = 0 */\n      swap3\n      pop\n        /* \"contracts/libraries/Lib_RLPWriter.sol\":5552:5853  for (i = 0; i < _list.length; i++) {... */\n    tag_176:\n        /* \"contracts/libraries/Lib_RLPWriter.sol\":5568:5573  _list */\n      dup6\n        /* \"contracts/libraries/Lib_RLPWriter.sol\":5568:5580  _list.length */\n      mload\n        /* \"contracts/libraries/Lib_RLPWriter.sol\":5564:5565  i */\n      dup4\n        /* \"contracts/libraries/Lib_RLPWriter.sol\":5564:5580  i < _list.length */\n      lt\n        /* \"contracts/libraries/Lib_RLPWriter.sol\":5552:5853  for (i = 0; i < _list.length; i++) {... */\n      iszero\n      tag_177\n      jumpi\n        /* \"contracts/libraries/Lib_RLPWriter.sol\":5601:5618  bytes memory item */\n      0x00\n        /* \"contracts/libraries/Lib_RLPWriter.sol\":5621:5626  _list */\n      dup7\n        /* \"contracts/libraries/Lib_RLPWriter.sol\":5627:5628  i */\n      dup5\n        /* \"contracts/libraries/Lib_RLPWriter.sol\":5621:5629  _list[i] */\n      dup2\n      mload\n      dup2\n      lt\n      tag_179\n      jumpi\n      tag_180\n      tag_55\n      jump\t// in\n    tag_180:\n    tag_179:\n      0x20\n      mul\n      0x20\n      add\n      add\n      mload\n        /* \"contracts/libraries/Lib_RLPWriter.sol\":5601:5629  bytes memory item = _list[i] */\n      swap1\n      pop\n        /* \"contracts/libraries/Lib_RLPWriter.sol\":5644:5659  uint256 listPtr */\n      0x00\n        /* \"contracts/libraries/Lib_RLPWriter.sol\":5721:5725  0x20 */\n      0x20\n        /* \"contracts/libraries/Lib_RLPWriter.sol\":5715:5719  item */\n      dup3\n        /* \"contracts/libraries/Lib_RLPWriter.sol\":5711:5726  add(item, 0x20) */\n      add\n        /* \"contracts/libraries/Lib_RLPWriter.sol\":5700:5726  listPtr := add(item, 0x20) */\n      swap1\n      pop\n        /* \"contracts/libraries/Lib_RLPWriter.sol\":5754:5797  _memcpy(flattenedPtr, listPtr, item.length) */\n      tag_181\n        /* \"contracts/libraries/Lib_RLPWriter.sol\":5762:5774  flattenedPtr */\n      dup4\n        /* \"contracts/libraries/Lib_RLPWriter.sol\":5776:5783  listPtr */\n      dup3\n        /* \"contracts/libraries/Lib_RLPWriter.sol\":5785:5789  item */\n      dup5\n        /* \"contracts/libraries/Lib_RLPWriter.sol\":5785:5796  item.length */\n      mload\n        /* \"contracts/libraries/Lib_RLPWriter.sol\":5754:5761  _memcpy */\n      tag_182\n        /* \"contracts/libraries/Lib_RLPWriter.sol\":5754:5797  _memcpy(flattenedPtr, listPtr, item.length) */\n      jump\t// in\n    tag_181:\n        /* \"contracts/libraries/Lib_RLPWriter.sol\":5827:5832  _list */\n      dup8\n        /* \"contracts/libraries/Lib_RLPWriter.sol\":5833:5834  i */\n      dup6\n        /* \"contracts/libraries/Lib_RLPWriter.sol\":5827:5835  _list[i] */\n      dup2\n      mload\n      dup2\n      lt\n      tag_183\n      jumpi\n      tag_184\n      tag_55\n      jump\t// in\n    tag_184:\n    tag_183:\n      0x20\n      mul\n      0x20\n      add\n      add\n      mload\n        /* \"contracts/libraries/Lib_RLPWriter.sol\":5827:5842  _list[i].length */\n      mload\n        /* \"contracts/libraries/Lib_RLPWriter.sol\":5811:5842  flattenedPtr += _list[i].length */\n      dup4\n      tag_185\n      swap2\n      swap1\n      tag_107\n      jump\t// in\n    tag_185:\n      swap3\n      pop\n        /* \"contracts/libraries/Lib_RLPWriter.sol\":5587:5853  {... */\n      pop\n      pop\n        /* \"contracts/libraries/Lib_RLPWriter.sol\":5582:5585  i++ */\n      dup3\n      dup1\n      0x01\n      add\n      swap4\n      pop\n      pop\n        /* \"contracts/libraries/Lib_RLPWriter.sol\":5552:5853  for (i = 0; i < _list.length; i++) {... */\n      jump(tag_176)\n    tag_177:\n        /* \"contracts/libraries/Lib_RLPWriter.sol\":5870:5879  flattened */\n      dup2\n        /* \"contracts/libraries/Lib_RLPWriter.sol\":5863:5879  return flattened */\n      swap5\n      pop\n      pop\n      pop\n      pop\n      pop\n        /* \"contracts/libraries/Lib_RLPWriter.sol\":5100:5886  function _flatten(bytes[] memory _list) private pure returns (bytes memory) {... */\n    tag_162:\n      swap2\n      swap1\n      pop\n      jump\t// out\n        /* \"contracts/libraries/Lib_RLPWriter.sol\":4180:4826  function _memcpy(... */\n    tag_182:\n        /* \"contracts/libraries/Lib_RLPWriter.sol\":4293:4305  uint256 dest */\n      0x00\n        /* \"contracts/libraries/Lib_RLPWriter.sol\":4308:4313  _dest */\n      dup4\n        /* \"contracts/libraries/Lib_RLPWriter.sol\":4293:4313  uint256 dest = _dest */\n      swap1\n      pop\n        /* \"contracts/libraries/Lib_RLPWriter.sol\":4323:4334  uint256 src */\n      0x00\n        /* \"contracts/libraries/Lib_RLPWriter.sol\":4337:4341  _src */\n      dup4\n        /* \"contracts/libraries/Lib_RLPWriter.sol\":4323:4341  uint256 src = _src */\n      swap1\n      pop\n        /* \"contracts/libraries/Lib_RLPWriter.sol\":4351:4362  uint256 len */\n      0x00\n        /* \"contracts/libraries/Lib_RLPWriter.sol\":4365:4369  _len */\n      dup4\n        /* \"contracts/libraries/Lib_RLPWriter.sol\":4351:4369  uint256 len = _len */\n      swap1\n      pop\n        /* \"contracts/libraries/Lib_RLPWriter.sol\":4380:4545  for (; len >= 32; len -= 32) {... */\n    tag_187:\n        /* \"contracts/libraries/Lib_RLPWriter.sol\":4394:4396  32 */\n      0x20\n        /* \"contracts/libraries/Lib_RLPWriter.sol\":4387:4390  len */\n      dup2\n        /* \"contracts/libraries/Lib_RLPWriter.sol\":4387:4396  len >= 32 */\n      lt\n        /* \"contracts/libraries/Lib_RLPWriter.sol\":4380:4545  for (; len >= 32; len -= 32) {... */\n      tag_188\n      jumpi\n        /* \"contracts/libraries/Lib_RLPWriter.sol\":4469:4472  src */\n      dup2\n        /* \"contracts/libraries/Lib_RLPWriter.sol\":4463:4473  mload(src) */\n      mload\n        /* \"contracts/libraries/Lib_RLPWriter.sol\":4457:4461  dest */\n      dup4\n        /* \"contracts/libraries/Lib_RLPWriter.sol\":4450:4474  mstore(dest, mload(src)) */\n      mstore\n        /* \"contracts/libraries/Lib_RLPWriter.sol\":4509:4511  32 */\n      0x20\n        /* \"contracts/libraries/Lib_RLPWriter.sol\":4501:4511  dest += 32 */\n      dup4\n      tag_190\n      swap2\n      swap1\n      tag_107\n      jump\t// in\n    tag_190:\n      swap3\n      pop\n        /* \"contracts/libraries/Lib_RLPWriter.sol\":4532:4534  32 */\n      0x20\n        /* \"contracts/libraries/Lib_RLPWriter.sol\":4525:4534  src += 32 */\n      dup3\n      tag_191\n      swap2\n      swap1\n      tag_107\n      jump\t// in\n    tag_191:\n      swap2\n      pop\n        /* \"contracts/libraries/Lib_RLPWriter.sol\":4405:4407  32 */\n      0x20\n        /* \"contracts/libraries/Lib_RLPWriter.sol\":4398:4407  len -= 32 */\n      dup2\n      tag_192\n      swap2\n      swap1\n      tag_119\n      jump\t// in\n    tag_192:\n      swap1\n      pop\n        /* \"contracts/libraries/Lib_RLPWriter.sol\":4380:4545  for (; len >= 32; len -= 32) {... */\n      jump(tag_187)\n    tag_188:\n        /* \"contracts/libraries/Lib_RLPWriter.sol\":4555:4567  uint256 mask */\n      0x00\n        /* \"contracts/libraries/Lib_RLPWriter.sol\":4626:4627  1 */\n      0x01\n        /* \"contracts/libraries/Lib_RLPWriter.sol\":4619:4622  len */\n      dup3\n        /* \"contracts/libraries/Lib_RLPWriter.sol\":4614:4616  32 */\n      0x20\n        /* \"contracts/libraries/Lib_RLPWriter.sol\":4614:4622  32 - len */\n      sub\n        /* \"contracts/libraries/Lib_RLPWriter.sol\":4608:4611  256 */\n      0x0100\n        /* \"contracts/libraries/Lib_RLPWriter.sol\":4608:4623  256**(32 - len) */\n      exp\n        /* \"contracts/libraries/Lib_RLPWriter.sol\":4608:4627  256**(32 - len) - 1 */\n      sub\n        /* \"contracts/libraries/Lib_RLPWriter.sol\":4601:4627  mask = 256**(32 - len) - 1 */\n      swap1\n      pop\n        /* \"contracts/libraries/Lib_RLPWriter.sol\":4705:4709  mask */\n      dup1\n        /* \"contracts/libraries/Lib_RLPWriter.sol\":4701:4710  not(mask) */\n      not\n        /* \"contracts/libraries/Lib_RLPWriter.sol\":4695:4698  src */\n      dup4\n        /* \"contracts/libraries/Lib_RLPWriter.sol\":4689:4699  mload(src) */\n      mload\n        /* \"contracts/libraries/Lib_RLPWriter.sol\":4685:4711  and(mload(src), not(mask)) */\n      and\n        /* \"contracts/libraries/Lib_RLPWriter.sol\":4757:4761  mask */\n      dup2\n        /* \"contracts/libraries/Lib_RLPWriter.sol\":4750:4754  dest */\n      dup6\n        /* \"contracts/libraries/Lib_RLPWriter.sol\":4744:4755  mload(dest) */\n      mload\n        /* \"contracts/libraries/Lib_RLPWriter.sol\":4740:4762  and(mload(dest), mask) */\n      and\n        /* \"contracts/libraries/Lib_RLPWriter.sol\":4801:4808  srcpart */\n      dup2\n        /* \"contracts/libraries/Lib_RLPWriter.sol\":4791:4799  destpart */\n      dup2\n        /* \"contracts/libraries/Lib_RLPWriter.sol\":4788:4809  or(destpart, srcpart) */\n      or\n        /* \"contracts/libraries/Lib_RLPWriter.sol\":4782:4786  dest */\n      dup7\n        /* \"contracts/libraries/Lib_RLPWriter.sol\":4775:4810  mstore(dest, or(destpart, srcpart)) */\n      mstore\n        /* \"contracts/libraries/Lib_RLPWriter.sol\":4656:4820  {... */\n      pop\n      pop\n      pop\n      pop\n      pop\n      pop\n        /* \"contracts/libraries/Lib_RLPWriter.sol\":4180:4826  function _memcpy(... */\n      pop\n      pop\n      pop\n      jump\t// out\n        /* \"#utility.yul\":7:82   */\n    tag_193:\n        /* \"#utility.yul\":40:46   */\n      0x00\n        /* \"#utility.yul\":73:75   */\n      0x40\n        /* \"#utility.yul\":67:76   */\n      mload\n        /* \"#utility.yul\":57:76   */\n      swap1\n      pop\n        /* \"#utility.yul\":7:82   */\n      swap1\n      jump\t// out\n        /* \"#utility.yul\":88:205   */\n    tag_194:\n        /* \"#utility.yul\":197:198   */\n      0x00\n        /* \"#utility.yul\":194:195   */\n      dup1\n        /* \"#utility.yul\":187:199   */\n      revert\n        /* \"#utility.yul\":211:328   */\n    tag_195:\n        /* \"#utility.yul\":320:321   */\n      0x00\n        /* \"#utility.yul\":317:318   */\n      dup1\n        /* \"#utility.yul\":310:322   */\n      revert\n        /* \"#utility.yul\":334:411   */\n    tag_196:\n        /* \"#utility.yul\":371:378   */\n      0x00\n        /* \"#utility.yul\":400:405   */\n      dup2\n        /* \"#utility.yul\":389:405   */\n      swap1\n      pop\n        /* \"#utility.yul\":334:411   */\n      swap2\n      swap1\n      pop\n      jump\t// out\n        /* \"#utility.yul\":417:539   */\n    tag_197:\n        /* \"#utility.yul\":490:514   */\n      tag_249\n        /* \"#utility.yul\":508:513   */\n      dup2\n        /* \"#utility.yul\":490:514   */\n      tag_196\n      jump\t// in\n    tag_249:\n        /* \"#utility.yul\":483:488   */\n      dup2\n        /* \"#utility.yul\":480:515   */\n      eq\n        /* \"#utility.yul\":470:533   */\n      tag_250\n      jumpi\n        /* \"#utility.yul\":529:530   */\n      0x00\n        /* \"#utility.yul\":526:527   */\n      dup1\n        /* \"#utility.yul\":519:531   */\n      revert\n        /* \"#utility.yul\":470:533   */\n    tag_250:\n        /* \"#utility.yul\":417:539   */\n      pop\n      jump\t// out\n        /* \"#utility.yul\":545:684   */\n    tag_198:\n        /* \"#utility.yul\":591:596   */\n      0x00\n        /* \"#utility.yul\":629:635   */\n      dup2\n        /* \"#utility.yul\":616:636   */\n      calldataload\n        /* \"#utility.yul\":607:636   */\n      swap1\n      pop\n        /* \"#utility.yul\":645:678   */\n      tag_252\n        /* \"#utility.yul\":672:677   */\n      dup2\n        /* \"#utility.yul\":645:678   */\n      tag_197\n      jump\t// in\n    tag_252:\n        /* \"#utility.yul\":545:684   */\n      swap3\n      swap2\n      pop\n      pop\n      jump\t// out\n        /* \"#utility.yul\":690:816   */\n    tag_199:\n        /* \"#utility.yul\":727:734   */\n      0x00\n        /* \"#utility.yul\":767:809   */\n      0xffffffffffffffffffffffffffffffffffffffff\n        /* \"#utility.yul\":760:765   */\n      dup3\n        /* \"#utility.yul\":756:810   */\n      and\n        /* \"#utility.yul\":745:810   */\n      swap1\n      pop\n        /* \"#utility.yul\":690:816   */\n      swap2\n      swap1\n      pop\n      jump\t// out\n        /* \"#utility.yul\":822:918   */\n    tag_200:\n        /* \"#utility.yul\":859:866   */\n      0x00\n        /* \"#utility.yul\":888:912   */\n      tag_255\n        /* \"#utility.yul\":906:911   */\n      dup3\n        /* \"#utility.yul\":888:912   */\n      tag_199\n      jump\t// in\n    tag_255:\n        /* \"#utility.yul\":877:912   */\n      swap1\n      pop\n        /* \"#utility.yul\":822:918   */\n      swap2\n      swap1\n      pop\n      jump\t// out\n        /* \"#utility.yul\":924:1046   */\n    tag_201:\n        /* \"#utility.yul\":997:1021   */\n      tag_257\n        /* \"#utility.yul\":1015:1020   */\n      dup2\n        /* \"#utility.yul\":997:1021   */\n      tag_200\n      jump\t// in\n    tag_257:\n        /* \"#utility.yul\":990:995   */\n      dup2\n        /* \"#utility.yul\":987:1022   */\n      eq\n        /* \"#utility.yul\":977:1040   */\n      tag_258\n      jumpi\n        /* \"#utility.yul\":1036:1037   */\n      0x00\n        /* \"#utility.yul\":1033:1034   */\n      dup1\n        /* \"#utility.yul\":1026:1038   */\n      revert\n        /* \"#utility.yul\":977:1040   */\n    tag_258:\n        /* \"#utility.yul\":924:1046   */\n      pop\n      jump\t// out\n        /* \"#utility.yul\":1052:1191   */\n    tag_202:\n        /* \"#utility.yul\":1098:1103   */\n      0x00\n        /* \"#utility.yul\":1136:1142   */\n      dup2\n        /* \"#utility.yul\":1123:1143   */\n      calldataload\n        /* \"#utility.yul\":1114:1143   */\n      swap1\n      pop\n        /* \"#utility.yul\":1152:1185   */\n      tag_260\n        /* \"#utility.yul\":1179:1184   */\n      dup2\n        /* \"#utility.yul\":1152:1185   */\n      tag_201\n      jump\t// in\n    tag_260:\n        /* \"#utility.yul\":1052:1191   */\n      swap3\n      swap2\n      pop\n      pop\n      jump\t// out\n        /* \"#utility.yul\":1197:1314   */\n    tag_203:\n        /* \"#utility.yul\":1306:1307   */\n      0x00\n        /* \"#utility.yul\":1303:1304   */\n      dup1\n        /* \"#utility.yul\":1296:1308   */\n      revert\n        /* \"#utility.yul\":1320:1437   */\n    tag_204:\n        /* \"#utility.yul\":1429:1430   */\n      0x00\n        /* \"#utility.yul\":1426:1427   */\n      dup1\n        /* \"#utility.yul\":1419:1431   */\n      revert\n        /* \"#utility.yul\":1443:1545   */\n    tag_205:\n        /* \"#utility.yul\":1484:1490   */\n      0x00\n        /* \"#utility.yul\":1535:1537   */\n      0x1f\n        /* \"#utility.yul\":1531:1538   */\n      not\n        /* \"#utility.yul\":1526:1528   */\n      0x1f\n        /* \"#utility.yul\":1519:1524   */\n      dup4\n        /* \"#utility.yul\":1515:1529   */\n      add\n        /* \"#utility.yul\":1511:1539   */\n      and\n        /* \"#utility.yul\":1501:1539   */\n      swap1\n      pop\n        /* \"#utility.yul\":1443:1545   */\n      swap2\n      swap1\n      pop\n      jump\t// out\n        /* \"#utility.yul\":1551:1731   */\n    tag_65:\n        /* \"#utility.yul\":1599:1676   */\n      0x4e487b7100000000000000000000000000000000000000000000000000000000\n        /* \"#utility.yul\":1596:1597   */\n      0x00\n        /* \"#utility.yul\":1589:1677   */\n      mstore\n        /* \"#utility.yul\":1696:1700   */\n      0x41\n        /* \"#utility.yul\":1693:1694   */\n      0x04\n        /* \"#utility.yul\":1686:1701   */\n      mstore\n        /* \"#utility.yul\":1720:1724   */\n      0x24\n        /* \"#utility.yul\":1717:1718   */\n      0x00\n        /* \"#utility.yul\":1710:1725   */\n      revert\n        /* \"#utility.yul\":1737:2018   */\n    tag_206:\n        /* \"#utility.yul\":1820:1847   */\n      tag_266\n        /* \"#utility.yul\":1842:1846   */\n      dup3\n        /* \"#utility.yul\":1820:1847   */\n      tag_205\n      jump\t// in\n    tag_266:\n        /* \"#utility.yul\":1812:1818   */\n      dup2\n        /* \"#utility.yul\":1808:1848   */\n      add\n        /* \"#utility.yul\":1950:1956   */\n      dup2\n        /* \"#utility.yul\":1938:1948   */\n      dup2\n        /* \"#utility.yul\":1935:1957   */\n      lt\n        /* \"#utility.yul\":1914:1932   */\n      0xffffffffffffffff\n        /* \"#utility.yul\":1902:1912   */\n      dup3\n        /* \"#utility.yul\":1899:1933   */\n      gt\n        /* \"#utility.yul\":1896:1958   */\n      or\n        /* \"#utility.yul\":1893:1981   */\n      iszero\n      tag_267\n      jumpi\n        /* \"#utility.yul\":1961:1979   */\n      tag_268\n      tag_65\n      jump\t// in\n    tag_268:\n        /* \"#utility.yul\":1893:1981   */\n    tag_267:\n        /* \"#utility.yul\":2001:2011   */\n      dup1\n        /* \"#utility.yul\":1997:1999   */\n      0x40\n        /* \"#utility.yul\":1990:2012   */\n      mstore\n        /* \"#utility.yul\":1780:2018   */\n      pop\n        /* \"#utility.yul\":1737:2018   */\n      pop\n      pop\n      jump\t// out\n        /* \"#utility.yul\":2024:2153   */\n    tag_207:\n        /* \"#utility.yul\":2058:2064   */\n      0x00\n        /* \"#utility.yul\":2085:2105   */\n      tag_270\n      tag_193\n      jump\t// in\n    tag_270:\n        /* \"#utility.yul\":2075:2105   */\n      swap1\n      pop\n        /* \"#utility.yul\":2114:2147   */\n      tag_271\n        /* \"#utility.yul\":2142:2146   */\n      dup3\n        /* \"#utility.yul\":2134:2140   */\n      dup3\n        /* \"#utility.yul\":2114:2147   */\n      tag_206\n      jump\t// in\n    tag_271:\n        /* \"#utility.yul\":2024:2153   */\n      swap2\n      swap1\n      pop\n      jump\t// out\n        /* \"#utility.yul\":2159:2466   */\n    tag_208:\n        /* \"#utility.yul\":2220:2224   */\n      0x00\n        /* \"#utility.yul\":2310:2328   */\n      0xffffffffffffffff\n        /* \"#utility.yul\":2302:2308   */\n      dup3\n        /* \"#utility.yul\":2299:2329   */\n      gt\n        /* \"#utility.yul\":2296:2352   */\n      iszero\n      tag_273\n      jumpi\n        /* \"#utility.yul\":2332:2350   */\n      tag_274\n      tag_65\n      jump\t// in\n    tag_274:\n        /* \"#utility.yul\":2296:2352   */\n    tag_273:\n        /* \"#utility.yul\":2370:2399   */\n      tag_275\n        /* \"#utility.yul\":2392:2398   */\n      dup3\n        /* \"#utility.yul\":2370:2399   */\n      tag_205\n      jump\t// in\n    tag_275:\n        /* \"#utility.yul\":2362:2399   */\n      swap1\n      pop\n        /* \"#utility.yul\":2454:2458   */\n      0x20\n        /* \"#utility.yul\":2448:2452   */\n      dup2\n        /* \"#utility.yul\":2444:2459   */\n      add\n        /* \"#utility.yul\":2436:2459   */\n      swap1\n      pop\n        /* \"#utility.yul\":2159:2466   */\n      swap2\n      swap1\n      pop\n      jump\t// out\n        /* \"#utility.yul\":2472:2620   */\n    tag_209:\n        /* \"#utility.yul\":2570:2576   */\n      dup3\n        /* \"#utility.yul\":2565:2568   */\n      dup2\n        /* \"#utility.yul\":2560:2563   */\n      dup4\n        /* \"#utility.yul\":2547:2577   */\n      calldatacopy\n        /* \"#utility.yul\":2611:2612   */\n      0x00\n        /* \"#utility.yul\":2602:2608   */\n      dup4\n        /* \"#utility.yul\":2597:2600   */\n      dup4\n        /* \"#utility.yul\":2593:2609   */\n      add\n        /* \"#utility.yul\":2586:2613   */\n      mstore\n        /* \"#utility.yul\":2472:2620   */\n      pop\n      pop\n      pop\n      jump\t// out\n        /* \"#utility.yul\":2626:3049   */\n    tag_210:\n        /* \"#utility.yul\":2703:2708   */\n      0x00\n        /* \"#utility.yul\":2728:2793   */\n      tag_278\n        /* \"#utility.yul\":2744:2792   */\n      tag_279\n        /* \"#utility.yul\":2785:2791   */\n      dup5\n        /* \"#utility.yul\":2744:2792   */\n      tag_208\n      jump\t// in\n    tag_279:\n        /* \"#utility.yul\":2728:2793   */\n      tag_207\n      jump\t// in\n    tag_278:\n        /* \"#utility.yul\":2719:2793   */\n      swap1\n      pop\n        /* \"#utility.yul\":2816:2822   */\n      dup3\n        /* \"#utility.yul\":2809:2814   */\n      dup2\n        /* \"#utility.yul\":2802:2823   */\n      mstore\n        /* \"#utility.yul\":2854:2858   */\n      0x20\n        /* \"#utility.yul\":2847:2852   */\n      dup2\n        /* \"#utility.yul\":2843:2859   */\n      add\n        /* \"#utility.yul\":2892:2895   */\n      dup5\n        /* \"#utility.yul\":2883:2889   */\n      dup5\n        /* \"#utility.yul\":2878:2881   */\n      dup5\n        /* \"#utility.yul\":2874:2890   */\n      add\n        /* \"#utility.yul\":2871:2896   */\n      gt\n        /* \"#utility.yul\":2868:2980   */\n      iszero\n      tag_280\n      jumpi\n        /* \"#utility.yul\":2899:2978   */\n      tag_281\n      tag_204\n      jump\t// in\n    tag_281:\n        /* \"#utility.yul\":2868:2980   */\n    tag_280:\n        /* \"#utility.yul\":2989:3043   */\n      tag_282\n        /* \"#utility.yul\":3036:3042   */\n      dup5\n        /* \"#utility.yul\":3031:3034   */\n      dup3\n        /* \"#utility.yul\":3026:3029   */\n      dup6\n        /* \"#utility.yul\":2989:3043   */\n      tag_209\n      jump\t// in\n    tag_282:\n        /* \"#utility.yul\":2709:3049   */\n      pop\n        /* \"#utility.yul\":2626:3049   */\n      swap4\n      swap3\n      pop\n      pop\n      pop\n      jump\t// out\n        /* \"#utility.yul\":3068:3406   */\n    tag_211:\n        /* \"#utility.yul\":3123:3128   */\n      0x00\n        /* \"#utility.yul\":3172:3175   */\n      dup3\n        /* \"#utility.yul\":3165:3169   */\n      0x1f\n        /* \"#utility.yul\":3157:3163   */\n      dup4\n        /* \"#utility.yul\":3153:3170   */\n      add\n        /* \"#utility.yul\":3149:3176   */\n      slt\n        /* \"#utility.yul\":3139:3261   */\n      tag_284\n      jumpi\n        /* \"#utility.yul\":3180:3259   */\n      tag_285\n      tag_203\n      jump\t// in\n    tag_285:\n        /* \"#utility.yul\":3139:3261   */\n    tag_284:\n        /* \"#utility.yul\":3297:3303   */\n      dup2\n        /* \"#utility.yul\":3284:3304   */\n      calldataload\n        /* \"#utility.yul\":3322:3400   */\n      tag_286\n        /* \"#utility.yul\":3396:3399   */\n      dup5\n        /* \"#utility.yul\":3388:3394   */\n      dup3\n        /* \"#utility.yul\":3381:3385   */\n      0x20\n        /* \"#utility.yul\":3373:3379   */\n      dup7\n        /* \"#utility.yul\":3369:3386   */\n      add\n        /* \"#utility.yul\":3322:3400   */\n      tag_210\n      jump\t// in\n    tag_286:\n        /* \"#utility.yul\":3313:3400   */\n      swap2\n      pop\n        /* \"#utility.yul\":3129:3406   */\n      pop\n        /* \"#utility.yul\":3068:3406   */\n      swap3\n      swap2\n      pop\n      pop\n      jump\t// out\n        /* \"#utility.yul\":3412:4793   */\n    tag_9:\n        /* \"#utility.yul\":3534:3540   */\n      0x00\n        /* \"#utility.yul\":3542:3548   */\n      dup1\n        /* \"#utility.yul\":3550:3556   */\n      0x00\n        /* \"#utility.yul\":3558:3564   */\n      dup1\n        /* \"#utility.yul\":3566:3572   */\n      0x00\n        /* \"#utility.yul\":3574:3580   */\n      dup1\n        /* \"#utility.yul\":3582:3588   */\n      0x00\n        /* \"#utility.yul\":3631:3634   */\n      0xe0\n        /* \"#utility.yul\":3619:3628   */\n      dup9\n        /* \"#utility.yul\":3610:3617   */\n      dup11\n        /* \"#utility.yul\":3606:3629   */\n      sub\n        /* \"#utility.yul\":3602:3635   */\n      slt\n        /* \"#utility.yul\":3599:3719   */\n      iszero\n      tag_288\n      jumpi\n        /* \"#utility.yul\":3638:3717   */\n      tag_289\n      tag_194\n      jump\t// in\n    tag_289:\n        /* \"#utility.yul\":3599:3719   */\n    tag_288:\n        /* \"#utility.yul\":3758:3759   */\n      0x00\n        /* \"#utility.yul\":3783:3836   */\n      tag_290\n        /* \"#utility.yul\":3828:3835   */\n      dup11\n        /* \"#utility.yul\":3819:3825   */\n      dup3\n        /* \"#utility.yul\":3808:3817   */\n      dup12\n        /* \"#utility.yul\":3804:3826   */\n      add\n        /* \"#utility.yul\":3783:3836   */\n      tag_198\n      jump\t// in\n    tag_290:\n        /* \"#utility.yul\":3773:3836   */\n      swap8\n      pop\n        /* \"#utility.yul\":3729:3846   */\n      pop\n        /* \"#utility.yul\":3885:3887   */\n      0x20\n        /* \"#utility.yul\":3911:3964   */\n      tag_291\n        /* \"#utility.yul\":3956:3963   */\n      dup11\n        /* \"#utility.yul\":3947:3953   */\n      dup3\n        /* \"#utility.yul\":3936:3945   */\n      dup12\n        /* \"#utility.yul\":3932:3954   */\n      add\n        /* \"#utility.yul\":3911:3964   */\n      tag_202\n      jump\t// in\n    tag_291:\n        /* \"#utility.yul\":3901:3964   */\n      swap7\n      pop\n        /* \"#utility.yul\":3856:3974   */\n      pop\n        /* \"#utility.yul\":4013:4015   */\n      0x40\n        /* \"#utility.yul\":4039:4092   */\n      tag_292\n        /* \"#utility.yul\":4084:4091   */\n      dup11\n        /* \"#utility.yul\":4075:4081   */\n      dup3\n        /* \"#utility.yul\":4064:4073   */\n      dup12\n        /* \"#utility.yul\":4060:4082   */\n      add\n        /* \"#utility.yul\":4039:4092   */\n      tag_198\n      jump\t// in\n    tag_292:\n        /* \"#utility.yul\":4029:4092   */\n      swap6\n      pop\n        /* \"#utility.yul\":3984:4102   */\n      pop\n        /* \"#utility.yul\":4141:4143   */\n      0x60\n        /* \"#utility.yul\":4167:4220   */\n      tag_293\n        /* \"#utility.yul\":4212:4219   */\n      dup11\n        /* \"#utility.yul\":4203:4209   */\n      dup3\n        /* \"#utility.yul\":4192:4201   */\n      dup12\n        /* \"#utility.yul\":4188:4210   */\n      add\n        /* \"#utility.yul\":4167:4220   */\n      tag_198\n      jump\t// in\n    tag_293:\n        /* \"#utility.yul\":4157:4220   */\n      swap5\n      pop\n        /* \"#utility.yul\":4112:4230   */\n      pop\n        /* \"#utility.yul\":4269:4272   */\n      0x80\n        /* \"#utility.yul\":4296:4349   */\n      tag_294\n        /* \"#utility.yul\":4341:4348   */\n      dup11\n        /* \"#utility.yul\":4332:4338   */\n      dup3\n        /* \"#utility.yul\":4321:4330   */\n      dup12\n        /* \"#utility.yul\":4317:4339   */\n      add\n        /* \"#utility.yul\":4296:4349   */\n      tag_198\n      jump\t// in\n    tag_294:\n        /* \"#utility.yul\":4286:4349   */\n      swap4\n      pop\n        /* \"#utility.yul\":4240:4359   */\n      pop\n        /* \"#utility.yul\":4398:4401   */\n      0xa0\n        /* \"#utility.yul\":4425:4478   */\n      tag_295\n        /* \"#utility.yul\":4470:4477   */\n      dup11\n        /* \"#utility.yul\":4461:4467   */\n      dup3\n        /* \"#utility.yul\":4450:4459   */\n      dup12\n        /* \"#utility.yul\":4446:4468   */\n      add\n        /* \"#utility.yul\":4425:4478   */\n      tag_198\n      jump\t// in\n    tag_295:\n        /* \"#utility.yul\":4415:4478   */\n      swap3\n      pop\n        /* \"#utility.yul\":4369:4488   */\n      pop\n        /* \"#utility.yul\":4555:4558   */\n      0xc0\n        /* \"#utility.yul\":4544:4553   */\n      dup9\n        /* \"#utility.yul\":4540:4559   */\n      add\n        /* \"#utility.yul\":4527:4560   */\n      calldataload\n        /* \"#utility.yul\":4587:4605   */\n      0xffffffffffffffff\n        /* \"#utility.yul\":4579:4585   */\n      dup2\n        /* \"#utility.yul\":4576:4606   */\n      gt\n        /* \"#utility.yul\":4573:4690   */\n      iszero\n      tag_296\n      jumpi\n        /* \"#utility.yul\":4609:4688   */\n      tag_297\n      tag_195\n      jump\t// in\n    tag_297:\n        /* \"#utility.yul\":4573:4690   */\n    tag_296:\n        /* \"#utility.yul\":4714:4776   */\n      tag_298\n        /* \"#utility.yul\":4768:4775   */\n      dup11\n        /* \"#utility.yul\":4759:4765   */\n      dup3\n        /* \"#utility.yul\":4748:4757   */\n      dup12\n        /* \"#utility.yul\":4744:4766   */\n      add\n        /* \"#utility.yul\":4714:4776   */\n      tag_211\n      jump\t// in\n    tag_298:\n        /* \"#utility.yul\":4704:4776   */\n      swap2\n      pop\n        /* \"#utility.yul\":4498:4786   */\n      pop\n        /* \"#utility.yul\":3412:4793   */\n      swap3\n      swap6\n      swap9\n      swap2\n      swap5\n      swap8\n      pop\n      swap3\n      swap6\n      pop\n      jump\t// out\n        /* \"#utility.yul\":4799:4889   */\n    tag_212:\n        /* \"#utility.yul\":4833:4840   */\n      0x00\n        /* \"#utility.yul\":4876:4881   */\n      dup2\n        /* \"#utility.yul\":4869:4882   */\n      iszero\n        /* \"#utility.yul\":4862:4883   */\n      iszero\n        /* \"#utility.yul\":4851:4883   */\n      swap1\n      pop\n        /* \"#utility.yul\":4799:4889   */\n      swap2\n      swap1\n      pop\n      jump\t// out\n        /* \"#utility.yul\":4895:5011   */\n    tag_213:\n        /* \"#utility.yul\":4965:4986   */\n      tag_301\n        /* \"#utility.yul\":4980:4985   */\n      dup2\n        /* \"#utility.yul\":4965:4986   */\n      tag_212\n      jump\t// in\n    tag_301:\n        /* \"#utility.yul\":4958:4963   */\n      dup2\n        /* \"#utility.yul\":4955:4987   */\n      eq\n        /* \"#utility.yul\":4945:5005   */\n      tag_302\n      jumpi\n        /* \"#utility.yul\":5001:5002   */\n      0x00\n        /* \"#utility.yul\":4998:4999   */\n      dup1\n        /* \"#utility.yul\":4991:5003   */\n      revert\n        /* \"#utility.yul\":4945:5005   */\n    tag_302:\n        /* \"#utility.yul\":4895:5011   */\n      pop\n      jump\t// out\n        /* \"#utility.yul\":5017:5150   */\n    tag_214:\n        /* \"#utility.yul\":5060:5065   */\n      0x00\n        /* \"#utility.yul\":5098:5104   */\n      dup2\n        /* \"#utility.yul\":5085:5105   */\n      calldataload\n        /* \"#utility.yul\":5076:5105   */\n      swap1\n      pop\n        /* \"#utility.yul\":5114:5144   */\n      tag_304\n        /* \"#utility.yul\":5138:5143   */\n      dup2\n        /* \"#utility.yul\":5114:5144   */\n      tag_213\n      jump\t// in\n    tag_304:\n        /* \"#utility.yul\":5017:5150   */\n      swap3\n      swap2\n      pop\n      pop\n      jump\t// out\n        /* \"#utility.yul\":5156:6677   */\n    tag_13:\n        /* \"#utility.yul\":5284:5290   */\n      0x00\n        /* \"#utility.yul\":5292:5298   */\n      dup1\n        /* \"#utility.yul\":5300:5306   */\n      0x00\n        /* \"#utility.yul\":5308:5314   */\n      dup1\n        /* \"#utility.yul\":5316:5322   */\n      0x00\n        /* \"#utility.yul\":5324:5330   */\n      dup1\n        /* \"#utility.yul\":5332:5338   */\n      0x00\n        /* \"#utility.yul\":5340:5346   */\n      dup1\n        /* \"#utility.yul\":5389:5392   */\n      0x0100\n        /* \"#utility.yul\":5377:5386   */\n      dup10\n        /* \"#utility.yul\":5368:5375   */\n      dup12\n        /* \"#utility.yul\":5364:5387   */\n      sub\n        /* \"#utility.yul\":5360:5393   */\n      slt\n        /* \"#utility.yul\":5357:5477   */\n      iszero\n      tag_306\n      jumpi\n        /* \"#utility.yul\":5396:5475   */\n      tag_307\n      tag_194\n      jump\t// in\n    tag_307:\n        /* \"#utility.yul\":5357:5477   */\n    tag_306:\n        /* \"#utility.yul\":5516:5517   */\n      0x00\n        /* \"#utility.yul\":5541:5594   */\n      tag_308\n        /* \"#utility.yul\":5586:5593   */\n      dup12\n        /* \"#utility.yul\":5577:5583   */\n      dup3\n        /* \"#utility.yul\":5566:5575   */\n      dup13\n        /* \"#utility.yul\":5562:5584   */\n      add\n        /* \"#utility.yul\":5541:5594   */\n      tag_198\n      jump\t// in\n    tag_308:\n        /* \"#utility.yul\":5531:5594   */\n      swap9\n      pop\n        /* \"#utility.yul\":5487:5604   */\n      pop\n        /* \"#utility.yul\":5643:5645   */\n      0x20\n        /* \"#utility.yul\":5669:5722   */\n      tag_309\n        /* \"#utility.yul\":5714:5721   */\n      dup12\n        /* \"#utility.yul\":5705:5711   */\n      dup3\n        /* \"#utility.yul\":5694:5703   */\n      dup13\n        /* \"#utility.yul\":5690:5712   */\n      add\n        /* \"#utility.yul\":5669:5722   */\n      tag_202\n      jump\t// in\n    tag_309:\n        /* \"#utility.yul\":5659:5722   */\n      swap8\n      pop\n        /* \"#utility.yul\":5614:5732   */\n      pop\n        /* \"#utility.yul\":5771:5773   */\n      0x40\n        /* \"#utility.yul\":5797:5850   */\n      tag_310\n        /* \"#utility.yul\":5842:5849   */\n      dup12\n        /* \"#utility.yul\":5833:5839   */\n      dup3\n        /* \"#utility.yul\":5822:5831   */\n      dup13\n        /* \"#utility.yul\":5818:5840   */\n      add\n        /* \"#utility.yul\":5797:5850   */\n      tag_198\n      jump\t// in\n    tag_310:\n        /* \"#utility.yul\":5787:5850   */\n      swap7\n      pop\n        /* \"#utility.yul\":5742:5860   */\n      pop\n        /* \"#utility.yul\":5899:5901   */\n      0x60\n        /* \"#utility.yul\":5925:5978   */\n      tag_311\n        /* \"#utility.yul\":5970:5977   */\n      dup12\n        /* \"#utility.yul\":5961:5967   */\n      dup3\n        /* \"#utility.yul\":5950:5959   */\n      dup13\n        /* \"#utility.yul\":5946:5968   */\n      add\n        /* \"#utility.yul\":5925:5978   */\n      tag_198\n      jump\t// in\n    tag_311:\n        /* \"#utility.yul\":5915:5978   */\n      swap6\n      pop\n        /* \"#utility.yul\":5870:5988   */\n      pop\n        /* \"#utility.yul\":6027:6030   */\n      0x80\n        /* \"#utility.yul\":6054:6107   */\n      tag_312\n        /* \"#utility.yul\":6099:6106   */\n      dup12\n        /* \"#utility.yul\":6090:6096   */\n      dup3\n        /* \"#utility.yul\":6079:6088   */\n      dup13\n        /* \"#utility.yul\":6075:6097   */\n      add\n        /* \"#utility.yul\":6054:6107   */\n      tag_198\n      jump\t// in\n    tag_312:\n        /* \"#utility.yul\":6044:6107   */\n      swap5\n      pop\n        /* \"#utility.yul\":5998:6117   */\n      pop\n        /* \"#utility.yul\":6156:6159   */\n      0xa0\n        /* \"#utility.yul\":6183:6236   */\n      tag_313\n        /* \"#utility.yul\":6228:6235   */\n      dup12\n        /* \"#utility.yul\":6219:6225   */\n      dup3\n        /* \"#utility.yul\":6208:6217   */\n      dup13\n        /* \"#utility.yul\":6204:6226   */\n      add\n        /* \"#utility.yul\":6183:6236   */\n      tag_198\n      jump\t// in\n    tag_313:\n        /* \"#utility.yul\":6173:6236   */\n      swap4\n      pop\n        /* \"#utility.yul\":6127:6246   */\n      pop\n        /* \"#utility.yul\":6313:6316   */\n      0xc0\n        /* \"#utility.yul\":6302:6311   */\n      dup10\n        /* \"#utility.yul\":6298:6317   */\n      add\n        /* \"#utility.yul\":6285:6318   */\n      calldataload\n        /* \"#utility.yul\":6345:6363   */\n      0xffffffffffffffff\n        /* \"#utility.yul\":6337:6343   */\n      dup2\n        /* \"#utility.yul\":6334:6364   */\n      gt\n        /* \"#utility.yul\":6331:6448   */\n      iszero\n      tag_314\n      jumpi\n        /* \"#utility.yul\":6367:6446   */\n      tag_315\n      tag_195\n      jump\t// in\n    tag_315:\n        /* \"#utility.yul\":6331:6448   */\n    tag_314:\n        /* \"#utility.yul\":6472:6534   */\n      tag_316\n        /* \"#utility.yul\":6526:6533   */\n      dup12\n        /* \"#utility.yul\":6517:6523   */\n      dup3\n        /* \"#utility.yul\":6506:6515   */\n      dup13\n        /* \"#utility.yul\":6502:6524   */\n      add\n        /* \"#utility.yul\":6472:6534   */\n      tag_211\n      jump\t// in\n    tag_316:\n        /* \"#utility.yul\":6462:6534   */\n      swap3\n      pop\n        /* \"#utility.yul\":6256:6544   */\n      pop\n        /* \"#utility.yul\":6583:6586   */\n      0xe0\n        /* \"#utility.yul\":6610:6660   */\n      tag_317\n        /* \"#utility.yul\":6652:6659   */\n      dup12\n        /* \"#utility.yul\":6643:6649   */\n      dup3\n        /* \"#utility.yul\":6632:6641   */\n      dup13\n        /* \"#utility.yul\":6628:6650   */\n      add\n        /* \"#utility.yul\":6610:6660   */\n      tag_214\n      jump\t// in\n    tag_317:\n        /* \"#utility.yul\":6600:6660   */\n      swap2\n      pop\n        /* \"#utility.yul\":6554:6670   */\n      pop\n        /* \"#utility.yul\":5156:6677   */\n      swap3\n      swap6\n      swap9\n      pop\n      swap3\n      swap6\n      swap9\n      swap1\n      swap4\n      swap7\n      pop\n      jump\t// out\n        /* \"#utility.yul\":6683:6743   */\n    tag_215:\n        /* \"#utility.yul\":6711:6714   */\n      0x00\n        /* \"#utility.yul\":6732:6737   */\n      dup2\n        /* \"#utility.yul\":6725:6737   */\n      swap1\n      pop\n        /* \"#utility.yul\":6683:6743   */\n      swap2\n      swap1\n      pop\n      jump\t// out\n        /* \"#utility.yul\":6749:6891   */\n    tag_216:\n        /* \"#utility.yul\":6799:6808   */\n      0x00\n        /* \"#utility.yul\":6832:6885   */\n      tag_320\n        /* \"#utility.yul\":6850:6884   */\n      tag_321\n        /* \"#utility.yul\":6859:6883   */\n      tag_322\n        /* \"#utility.yul\":6877:6882   */\n      dup5\n        /* \"#utility.yul\":6859:6883   */\n      tag_199\n      jump\t// in\n    tag_322:\n        /* \"#utility.yul\":6850:6884   */\n      tag_215\n      jump\t// in\n    tag_321:\n        /* \"#utility.yul\":6832:6885   */\n      tag_199\n      jump\t// in\n    tag_320:\n        /* \"#utility.yul\":6819:6885   */\n      swap1\n      pop\n        /* \"#utility.yul\":6749:6891   */\n      swap2\n      swap1\n      pop\n      jump\t// out\n        /* \"#utility.yul\":6897:7023   */\n    tag_217:\n        /* \"#utility.yul\":6947:6956   */\n      0x00\n        /* \"#utility.yul\":6980:7017   */\n      tag_324\n        /* \"#utility.yul\":7011:7016   */\n      dup3\n        /* \"#utility.yul\":6980:7017   */\n      tag_216\n      jump\t// in\n    tag_324:\n        /* \"#utility.yul\":6967:7017   */\n      swap1\n      pop\n        /* \"#utility.yul\":6897:7023   */\n      swap2\n      swap1\n      pop\n      jump\t// out\n        /* \"#utility.yul\":7029:7170   */\n    tag_218:\n        /* \"#utility.yul\":7094:7103   */\n      0x00\n        /* \"#utility.yul\":7127:7164   */\n      tag_326\n        /* \"#utility.yul\":7158:7163   */\n      dup3\n        /* \"#utility.yul\":7127:7164   */\n      tag_217\n      jump\t// in\n    tag_326:\n        /* \"#utility.yul\":7114:7164   */\n      swap1\n      pop\n        /* \"#utility.yul\":7029:7170   */\n      swap2\n      swap1\n      pop\n      jump\t// out\n        /* \"#utility.yul\":7176:7337   */\n    tag_219:\n        /* \"#utility.yul\":7278:7330   */\n      tag_328\n        /* \"#utility.yul\":7324:7329   */\n      dup2\n        /* \"#utility.yul\":7278:7330   */\n      tag_218\n      jump\t// in\n    tag_328:\n        /* \"#utility.yul\":7273:7276   */\n      dup3\n        /* \"#utility.yul\":7266:7331   */\n      mstore\n        /* \"#utility.yul\":7176:7337   */\n      pop\n      pop\n      jump\t// out\n        /* \"#utility.yul\":7343:7595   */\n    tag_18:\n        /* \"#utility.yul\":7451:7455   */\n      0x00\n        /* \"#utility.yul\":7489:7491   */\n      0x20\n        /* \"#utility.yul\":7478:7487   */\n      dup3\n        /* \"#utility.yul\":7474:7492   */\n      add\n        /* \"#utility.yul\":7466:7492   */\n      swap1\n      pop\n        /* \"#utility.yul\":7502:7588   */\n      tag_330\n        /* \"#utility.yul\":7585:7586   */\n      0x00\n        /* \"#utility.yul\":7574:7583   */\n      dup4\n        /* \"#utility.yul\":7570:7587   */\n      add\n        /* \"#utility.yul\":7561:7567   */\n      dup5\n        /* \"#utility.yul\":7502:7588   */\n      tag_219\n      jump\t// in\n    tag_330:\n        /* \"#utility.yul\":7343:7595   */\n      swap3\n      swap2\n      pop\n      pop\n      jump\t// out\n        /* \"#utility.yul\":7601:8544   */\n    tag_21:\n        /* \"#utility.yul\":7696:7702   */\n      0x00\n        /* \"#utility.yul\":7704:7710   */\n      dup1\n        /* \"#utility.yul\":7712:7718   */\n      0x00\n        /* \"#utility.yul\":7720:7726   */\n      dup1\n        /* \"#utility.yul\":7769:7772   */\n      0x80\n        /* \"#utility.yul\":7757:7766   */\n      dup6\n        /* \"#utility.yul\":7748:7755   */\n      dup8\n        /* \"#utility.yul\":7744:7767   */\n      sub\n        /* \"#utility.yul\":7740:7773   */\n      slt\n        /* \"#utility.yul\":7737:7857   */\n      iszero\n      tag_332\n      jumpi\n        /* \"#utility.yul\":7776:7855   */\n      tag_333\n      tag_194\n      jump\t// in\n    tag_333:\n        /* \"#utility.yul\":7737:7857   */\n    tag_332:\n        /* \"#utility.yul\":7896:7897   */\n      0x00\n        /* \"#utility.yul\":7921:7974   */\n      tag_334\n        /* \"#utility.yul\":7966:7973   */\n      dup8\n        /* \"#utility.yul\":7957:7963   */\n      dup3\n        /* \"#utility.yul\":7946:7955   */\n      dup9\n        /* \"#utility.yul\":7942:7964   */\n      add\n        /* \"#utility.yul\":7921:7974   */\n      tag_198\n      jump\t// in\n    tag_334:\n        /* \"#utility.yul\":7911:7974   */\n      swap5\n      pop\n        /* \"#utility.yul\":7867:7984   */\n      pop\n        /* \"#utility.yul\":8023:8025   */\n      0x20\n        /* \"#utility.yul\":8049:8102   */\n      tag_335\n        /* \"#utility.yul\":8094:8101   */\n      dup8\n        /* \"#utility.yul\":8085:8091   */\n      dup3\n        /* \"#utility.yul\":8074:8083   */\n      dup9\n        /* \"#utility.yul\":8070:8092   */\n      add\n        /* \"#utility.yul\":8049:8102   */\n      tag_202\n      jump\t// in\n    tag_335:\n        /* \"#utility.yul\":8039:8102   */\n      swap4\n      pop\n        /* \"#utility.yul\":7994:8112   */\n      pop\n        /* \"#utility.yul\":8151:8153   */\n      0x40\n        /* \"#utility.yul\":8177:8230   */\n      tag_336\n        /* \"#utility.yul\":8222:8229   */\n      dup8\n        /* \"#utility.yul\":8213:8219   */\n      dup3\n        /* \"#utility.yul\":8202:8211   */\n      dup9\n        /* \"#utility.yul\":8198:8220   */\n      add\n        /* \"#utility.yul\":8177:8230   */\n      tag_198\n      jump\t// in\n    tag_336:\n        /* \"#utility.yul\":8167:8230   */\n      swap3\n      pop\n        /* \"#utility.yul\":8122:8240   */\n      pop\n        /* \"#utility.yul\":8307:8309   */\n      0x60\n        /* \"#utility.yul\":8296:8305   */\n      dup6\n        /* \"#utility.yul\":8292:8310   */\n      add\n        /* \"#utility.yul\":8279:8311   */\n      calldataload\n        /* \"#utility.yul\":8338:8356   */\n      0xffffffffffffffff\n        /* \"#utility.yul\":8330:8336   */\n      dup2\n        /* \"#utility.yul\":8327:8357   */\n      gt\n        /* \"#utility.yul\":8324:8441   */\n      iszero\n      tag_337\n      jumpi\n        /* \"#utility.yul\":8360:8439   */\n      tag_338\n      tag_195\n      jump\t// in\n    tag_338:\n        /* \"#utility.yul\":8324:8441   */\n    tag_337:\n        /* \"#utility.yul\":8465:8527   */\n      tag_339\n        /* \"#utility.yul\":8519:8526   */\n      dup8\n        /* \"#utility.yul\":8510:8516   */\n      dup3\n        /* \"#utility.yul\":8499:8508   */\n      dup9\n        /* \"#utility.yul\":8495:8517   */\n      add\n        /* \"#utility.yul\":8465:8527   */\n      tag_211\n      jump\t// in\n    tag_339:\n        /* \"#utility.yul\":8455:8527   */\n      swap2\n      pop\n        /* \"#utility.yul\":8250:8537   */\n      pop\n        /* \"#utility.yul\":7601:8544   */\n      swap3\n      swap6\n      swap2\n      swap5\n      pop\n      swap3\n      pop\n      jump\t// out\n        /* \"#utility.yul\":8550:8627   */\n    tag_220:\n        /* \"#utility.yul\":8587:8594   */\n      0x00\n        /* \"#utility.yul\":8616:8621   */\n      dup2\n        /* \"#utility.yul\":8605:8621   */\n      swap1\n      pop\n        /* \"#utility.yul\":8550:8627   */\n      swap2\n      swap1\n      pop\n      jump\t// out\n        /* \"#utility.yul\":8633:8741   */\n    tag_221:\n        /* \"#utility.yul\":8710:8734   */\n      tag_342\n        /* \"#utility.yul\":8728:8733   */\n      dup2\n        /* \"#utility.yul\":8710:8734   */\n      tag_220\n      jump\t// in\n    tag_342:\n        /* \"#utility.yul\":8705:8708   */\n      dup3\n        /* \"#utility.yul\":8698:8735   */\n      mstore\n        /* \"#utility.yul\":8633:8741   */\n      pop\n      pop\n      jump\t// out\n        /* \"#utility.yul\":8747:8855   */\n    tag_222:\n        /* \"#utility.yul\":8824:8848   */\n      tag_344\n        /* \"#utility.yul\":8842:8847   */\n      dup2\n        /* \"#utility.yul\":8824:8848   */\n      tag_196\n      jump\t// in\n    tag_344:\n        /* \"#utility.yul\":8819:8822   */\n      dup3\n        /* \"#utility.yul\":8812:8849   */\n      mstore\n        /* \"#utility.yul\":8747:8855   */\n      pop\n      pop\n      jump\t// out\n        /* \"#utility.yul\":8861:8959   */\n    tag_223:\n        /* \"#utility.yul\":8912:8918   */\n      0x00\n        /* \"#utility.yul\":8946:8951   */\n      dup2\n        /* \"#utility.yul\":8940:8952   */\n      mload\n        /* \"#utility.yul\":8930:8952   */\n      swap1\n      pop\n        /* \"#utility.yul\":8861:8959   */\n      swap2\n      swap1\n      pop\n      jump\t// out\n        /* \"#utility.yul\":8965:9123   */\n    tag_224:\n        /* \"#utility.yul\":9038:9049   */\n      0x00\n        /* \"#utility.yul\":9072:9078   */\n      dup3\n        /* \"#utility.yul\":9067:9070   */\n      dup3\n        /* \"#utility.yul\":9060:9079   */\n      mstore\n        /* \"#utility.yul\":9112:9116   */\n      0x20\n        /* \"#utility.yul\":9107:9110   */\n      dup3\n        /* \"#utility.yul\":9103:9117   */\n      add\n        /* \"#utility.yul\":9088:9117   */\n      swap1\n      pop\n        /* \"#utility.yul\":8965:9123   */\n      swap3\n      swap2\n      pop\n      pop\n      jump\t// out\n        /* \"#utility.yul\":9129:9268   */\n    tag_225:\n        /* \"#utility.yul\":9218:9224   */\n      dup3\n        /* \"#utility.yul\":9213:9216   */\n      dup2\n        /* \"#utility.yul\":9208:9211   */\n      dup4\n        /* \"#utility.yul\":9202:9225   */\n      mcopy\n        /* \"#utility.yul\":9259:9260   */\n      0x00\n        /* \"#utility.yul\":9250:9256   */\n      dup4\n        /* \"#utility.yul\":9245:9248   */\n      dup4\n        /* \"#utility.yul\":9241:9257   */\n      add\n        /* \"#utility.yul\":9234:9261   */\n      mstore\n        /* \"#utility.yul\":9129:9268   */\n      pop\n      pop\n      pop\n      jump\t// out\n        /* \"#utility.yul\":9274:9627   */\n    tag_226:\n        /* \"#utility.yul\":9350:9353   */\n      0x00\n        /* \"#utility.yul\":9378:9416   */\n      tag_349\n        /* \"#utility.yul\":9410:9415   */\n      dup3\n        /* \"#utility.yul\":9378:9416   */\n      tag_223\n      jump\t// in\n    tag_349:\n        /* \"#utility.yul\":9432:9492   */\n      tag_350\n        /* \"#utility.yul\":9485:9491   */\n      dup2\n        /* \"#utility.yul\":9480:9483   */\n      dup6\n        /* \"#utility.yul\":9432:9492   */\n      tag_224\n      jump\t// in\n    tag_350:\n        /* \"#utility.yul\":9425:9492   */\n      swap4\n      pop\n        /* \"#utility.yul\":9501:9566   */\n      tag_351\n        /* \"#utility.yul\":9559:9565   */\n      dup2\n        /* \"#utility.yul\":9554:9557   */\n      dup6\n        /* \"#utility.yul\":9547:9551   */\n      0x20\n        /* \"#utility.yul\":9540:9545   */\n      dup7\n        /* \"#utility.yul\":9536:9552   */\n      add\n        /* \"#utility.yul\":9501:9566   */\n      tag_225\n      jump\t// in\n    tag_351:\n        /* \"#utility.yul\":9591:9620   */\n      tag_352\n        /* \"#utility.yul\":9613:9619   */\n      dup2\n        /* \"#utility.yul\":9591:9620   */\n      tag_205\n      jump\t// in\n    tag_352:\n        /* \"#utility.yul\":9586:9589   */\n      dup5\n        /* \"#utility.yul\":9582:9621   */\n      add\n        /* \"#utility.yul\":9575:9621   */\n      swap2\n      pop\n        /* \"#utility.yul\":9354:9627   */\n      pop\n        /* \"#utility.yul\":9274:9627   */\n      swap3\n      swap2\n      pop\n      pop\n      jump\t// out\n        /* \"#utility.yul\":9633:9732   */\n    tag_227:\n        /* \"#utility.yul\":9704:9725   */\n      tag_354\n        /* \"#utility.yul\":9719:9724   */\n      dup2\n        /* \"#utility.yul\":9704:9725   */\n      tag_212\n      jump\t// in\n    tag_354:\n        /* \"#utility.yul\":9699:9702   */\n      dup3\n        /* \"#utility.yul\":9692:9726   */\n      mstore\n        /* \"#utility.yul\":9633:9732   */\n      pop\n      pop\n      jump\t// out\n        /* \"#utility.yul\":9808:10965   */\n    tag_228:\n        /* \"#utility.yul\":9935:9938   */\n      0x00\n        /* \"#utility.yul\":9971:9975   */\n      0xa0\n        /* \"#utility.yul\":9966:9969   */\n      dup4\n        /* \"#utility.yul\":9962:9976   */\n      add\n        /* \"#utility.yul\":10066:10070   */\n      0x00\n        /* \"#utility.yul\":10059:10064   */\n      dup4\n        /* \"#utility.yul\":10055:10071   */\n      add\n        /* \"#utility.yul\":10049:10072   */\n      mload\n        /* \"#utility.yul\":10085:10148   */\n      tag_356\n        /* \"#utility.yul\":10142:10146   */\n      0x00\n        /* \"#utility.yul\":10137:10140   */\n      dup7\n        /* \"#utility.yul\":10133:10147   */\n      add\n        /* \"#utility.yul\":10119:10131   */\n      dup3\n        /* \"#utility.yul\":10085:10148   */\n      tag_221\n      jump\t// in\n    tag_356:\n        /* \"#utility.yul\":9986:10158   */\n      pop\n        /* \"#utility.yul\":10247:10251   */\n      0x20\n        /* \"#utility.yul\":10240:10245   */\n      dup4\n        /* \"#utility.yul\":10236:10252   */\n      add\n        /* \"#utility.yul\":10230:10253   */\n      mload\n        /* \"#utility.yul\":10266:10329   */\n      tag_357\n        /* \"#utility.yul\":10323:10327   */\n      0x20\n        /* \"#utility.yul\":10318:10321   */\n      dup7\n        /* \"#utility.yul\":10314:10328   */\n      add\n        /* \"#utility.yul\":10300:10312   */\n      dup3\n        /* \"#utility.yul\":10266:10329   */\n      tag_222\n      jump\t// in\n    tag_357:\n        /* \"#utility.yul\":10168:10339   */\n      pop\n        /* \"#utility.yul\":10427:10431   */\n      0x40\n        /* \"#utility.yul\":10420:10425   */\n      dup4\n        /* \"#utility.yul\":10416:10432   */\n      add\n        /* \"#utility.yul\":10410:10433   */\n      mload\n        /* \"#utility.yul\":10446:10509   */\n      tag_358\n        /* \"#utility.yul\":10503:10507   */\n      0x40\n        /* \"#utility.yul\":10498:10501   */\n      dup7\n        /* \"#utility.yul\":10494:10508   */\n      add\n        /* \"#utility.yul\":10480:10492   */\n      dup3\n        /* \"#utility.yul\":10446:10509   */\n      tag_221\n      jump\t// in\n    tag_358:\n        /* \"#utility.yul\":10349:10519   */\n      pop\n        /* \"#utility.yul\":10604:10608   */\n      0x60\n        /* \"#utility.yul\":10597:10602   */\n      dup4\n        /* \"#utility.yul\":10593:10609   */\n      add\n        /* \"#utility.yul\":10587:10610   */\n      mload\n        /* \"#utility.yul\":10657:10660   */\n      dup5\n        /* \"#utility.yul\":10651:10655   */\n      dup3\n        /* \"#utility.yul\":10647:10661   */\n      sub\n        /* \"#utility.yul\":10640:10644   */\n      0x60\n        /* \"#utility.yul\":10635:10638   */\n      dup7\n        /* \"#utility.yul\":10631:10645   */\n      add\n        /* \"#utility.yul\":10624:10662   */\n      mstore\n        /* \"#utility.yul\":10683:10754   */\n      tag_359\n        /* \"#utility.yul\":10749:10753   */\n      dup3\n        /* \"#utility.yul\":10735:10747   */\n      dup3\n        /* \"#utility.yul\":10683:10754   */\n      tag_226\n      jump\t// in\n    tag_359:\n        /* \"#utility.yul\":10675:10754   */\n      swap2\n      pop\n        /* \"#utility.yul\":10529:10765   */\n      pop\n        /* \"#utility.yul\":10852:10856   */\n      0x80\n        /* \"#utility.yul\":10845:10850   */\n      dup4\n        /* \"#utility.yul\":10841:10857   */\n      add\n        /* \"#utility.yul\":10835:10858   */\n      mload\n        /* \"#utility.yul\":10871:10928   */\n      tag_360\n        /* \"#utility.yul\":10922:10926   */\n      0x80\n        /* \"#utility.yul\":10917:10920   */\n      dup7\n        /* \"#utility.yul\":10913:10927   */\n      add\n        /* \"#utility.yul\":10899:10911   */\n      dup3\n        /* \"#utility.yul\":10871:10928   */\n      tag_227\n      jump\t// in\n    tag_360:\n        /* \"#utility.yul\":10775:10938   */\n      pop\n        /* \"#utility.yul\":10955:10959   */\n      dup1\n        /* \"#utility.yul\":10948:10959   */\n      swap2\n      pop\n        /* \"#utility.yul\":9940:10965   */\n      pop\n        /* \"#utility.yul\":9808:10965   */\n      swap3\n      swap2\n      pop\n      pop\n      jump\t// out\n        /* \"#utility.yul\":10971:11360   */\n    tag_29:\n        /* \"#utility.yul\":11122:11126   */\n      0x00\n        /* \"#utility.yul\":11160:11162   */\n      0x20\n        /* \"#utility.yul\":11149:11158   */\n      dup3\n        /* \"#utility.yul\":11145:11163   */\n      add\n        /* \"#utility.yul\":11137:11163   */\n      swap1\n      pop\n        /* \"#utility.yul\":11209:11218   */\n      dup2\n        /* \"#utility.yul\":11203:11207   */\n      dup2\n        /* \"#utility.yul\":11199:11219   */\n      sub\n        /* \"#utility.yul\":11195:11196   */\n      0x00\n        /* \"#utility.yul\":11184:11193   */\n      dup4\n        /* \"#utility.yul\":11180:11197   */\n      add\n        /* \"#utility.yul\":11173:11220   */\n      mstore\n        /* \"#utility.yul\":11237:11353   */\n      tag_362\n        /* \"#utility.yul\":11348:11352   */\n      dup2\n        /* \"#utility.yul\":11339:11345   */\n      dup5\n        /* \"#utility.yul\":11237:11353   */\n      tag_228\n      jump\t// in\n    tag_362:\n        /* \"#utility.yul\":11229:11353   */\n      swap1\n      pop\n        /* \"#utility.yul\":10971:11360   */\n      swap3\n      swap2\n      pop\n      pop\n      jump\t// out\n        /* \"#utility.yul\":11366:11546   */\n    tag_229:\n        /* \"#utility.yul\":11414:11491   */\n      0x4e487b7100000000000000000000000000000000000000000000000000000000\n        /* \"#utility.yul\":11411:11412   */\n      0x00\n        /* \"#utility.yul\":11404:11492   */\n      mstore\n        /* \"#utility.yul\":11511:11515   */\n      0x11\n        /* \"#utility.yul\":11508:11509   */\n      0x04\n        /* \"#utility.yul\":11501:11516   */\n      mstore\n        /* \"#utility.yul\":11535:11539   */\n      0x24\n        /* \"#utility.yul\":11532:11533   */\n      0x00\n        /* \"#utility.yul\":11525:11540   */\n      revert\n        /* \"#utility.yul\":11552:11785   */\n    tag_34:\n        /* \"#utility.yul\":11591:11594   */\n      0x00\n        /* \"#utility.yul\":11614:11638   */\n      tag_365\n        /* \"#utility.yul\":11632:11637   */\n      dup3\n        /* \"#utility.yul\":11614:11638   */\n      tag_196\n      jump\t// in\n    tag_365:\n        /* \"#utility.yul\":11605:11638   */\n      swap2\n      pop\n        /* \"#utility.yul\":11660:11726   */\n      0xffffffffffffffffffffffffffffffffffffffffffffffffffffffffffffffff\n        /* \"#utility.yul\":11653:11658   */\n      dup3\n        /* \"#utility.yul\":11650:11727   */\n      sub\n        /* \"#utility.yul\":11647:11750   */\n      tag_366\n      jumpi\n        /* \"#utility.yul\":11730:11748   */\n      tag_367\n      tag_229\n      jump\t// in\n    tag_367:\n        /* \"#utility.yul\":11647:11750   */\n    tag_366:\n        /* \"#utility.yul\":11777:11778   */\n      0x01\n        /* \"#utility.yul\":11770:11775   */\n      dup3\n        /* \"#utility.yul\":11766:11779   */\n      add\n        /* \"#utility.yul\":11759:11779   */\n      swap1\n      pop\n        /* \"#utility.yul\":11552:11785   */\n      swap2\n      swap1\n      pop\n      jump\t// out\n        /* \"#utility.yul\":11791:11971   */\n    tag_55:\n        /* \"#utility.yul\":11839:11916   */\n      0x4e487b7100000000000000000000000000000000000000000000000000000000\n        /* \"#utility.yul\":11836:11837   */\n      0x00\n        /* \"#utility.yul\":11829:11917   */\n      mstore\n        /* \"#utility.yul\":11936:11940   */\n      0x32\n        /* \"#utility.yul\":11933:11934   */\n      0x04\n        /* \"#utility.yul\":11926:11941   */\n      mstore\n        /* \"#utility.yul\":11960:11964   */\n      0x24\n        /* \"#utility.yul\":11957:11958   */\n      0x00\n        /* \"#utility.yul\":11950:11965   */\n      revert\n        /* \"#utility.yul\":11977:12124   */\n    tag_230:\n        /* \"#utility.yul\":12078:12089   */\n      0x00\n        /* \"#utility.yul\":12115:12118   */\n      dup2\n        /* \"#utility.yul\":12100:12118   */\n      swap1\n      pop\n        /* \"#utility.yul\":11977:12124   */\n      swap3\n      swap2\n      pop\n      pop\n      jump\t// out\n        /* \"#utility.yul\":12130:12516   */\n    tag_231:\n        /* \"#utility.yul\":12234:12237   */\n      0x00\n        /* \"#utility.yul\":12262:12300   */\n      tag_371\n        /* \"#utility.yul\":12294:12299   */\n      dup3\n        /* \"#utility.yul\":12262:12300   */\n      tag_223\n      jump\t// in\n    tag_371:\n        /* \"#utility.yul\":12316:12404   */\n      tag_372\n        /* \"#utility.yul\":12397:12403   */\n      dup2\n        /* \"#utility.yul\":12392:12395   */\n      dup6\n        /* \"#utility.yul\":12316:12404   */\n      tag_230\n      jump\t// in\n    tag_372:\n        /* \"#utility.yul\":12309:12404   */\n      swap4\n      pop\n        /* \"#utility.yul\":12413:12478   */\n      tag_373\n        /* \"#utility.yul\":12471:12477   */\n      dup2\n        /* \"#utility.yul\":12466:12469   */\n      dup6\n        /* \"#utility.yul\":12459:12463   */\n      0x20\n        /* \"#utility.yul\":12452:12457   */\n      dup7\n        /* \"#utility.yul\":12448:12464   */\n      add\n        /* \"#utility.yul\":12413:12478   */\n      tag_225\n      jump\t// in\n    tag_373:\n        /* \"#utility.yul\":12503:12509   */\n      dup1\n        /* \"#utility.yul\":12498:12501   */\n      dup5\n        /* \"#utility.yul\":12494:12510   */\n      add\n        /* \"#utility.yul\":12487:12510   */\n      swap2\n      pop\n        /* \"#utility.yul\":12238:12516   */\n      pop\n        /* \"#utility.yul\":12130:12516   */\n      swap3\n      swap2\n      pop\n      pop\n      jump\t// out\n        /* \"#utility.yul\":12522:12949   */\n    tag_61:\n        /* \"#utility.yul\":12698:12701   */\n      0x00\n        /* \"#utility.yul\":12720:12813   */\n      tag_375\n        /* \"#utility.yul\":12809:12812   */\n      dup3\n        /* \"#utility.yul\":12800:12806   */\n      dup6\n        /* \"#utility.yul\":12720:12813   */\n      tag_231\n      jump\t// in\n    tag_375:\n        /* \"#utility.yul\":12713:12813   */\n      swap2\n      pop\n        /* \"#utility.yul\":12830:12923   */\n      tag_376\n        /* \"#utility.yul\":12919:12922   */\n      dup3\n        /* \"#utility.yul\":12910:12916   */\n      dup5\n        /* \"#utility.yul\":12830:12923   */\n      tag_231\n      jump\t// in\n    tag_376:\n        /* \"#utility.yul\":12823:12923   */\n      swap2\n      pop\n        /* \"#utility.yul\":12940:12943   */\n      dup2\n        /* \"#utility.yul\":12933:12943   */\n      swap1\n      pop\n        /* \"#utility.yul\":12522:12949   */\n      swap4\n      swap3\n      pop\n      pop\n      pop\n      jump\t// out\n        /* \"#utility.yul\":12955:13041   */\n    tag_232:\n        /* \"#utility.yul\":12990:12997   */\n      0x00\n        /* \"#utility.yul\":13030:13034   */\n      0xff\n        /* \"#utility.yul\":13023:13028   */\n      dup3\n        /* \"#utility.yul\":13019:13035   */\n      and\n        /* \"#utility.yul\":13008:13035   */\n      swap1\n      pop\n        /* \"#utility.yul\":12955:13041   */\n      swap2\n      swap1\n      pop\n      jump\t// out\n        /* \"#utility.yul\":13047:13235   */\n    tag_95:\n        /* \"#utility.yul\":13085:13088   */\n      0x00\n        /* \"#utility.yul\":13104:13122   */\n      tag_379\n        /* \"#utility.yul\":13120:13121   */\n      dup3\n        /* \"#utility.yul\":13104:13122   */\n      tag_232\n      jump\t// in\n    tag_379:\n        /* \"#utility.yul\":13099:13122   */\n      swap2\n      pop\n        /* \"#utility.yul\":13136:13154   */\n      tag_380\n        /* \"#utility.yul\":13152:13153   */\n      dup4\n        /* \"#utility.yul\":13136:13154   */\n      tag_232\n      jump\t// in\n    tag_380:\n        /* \"#utility.yul\":13131:13154   */\n      swap3\n      pop\n        /* \"#utility.yul\":13177:13178   */\n      dup3\n        /* \"#utility.yul\":13174:13175   */\n      dup3\n        /* \"#utility.yul\":13170:13179   */\n      add\n        /* \"#utility.yul\":13163:13179   */\n      swap1\n      pop\n        /* \"#utility.yul\":13200:13204   */\n      0xff\n        /* \"#utility.yul\":13195:13198   */\n      dup2\n        /* \"#utility.yul\":13192:13205   */\n      gt\n        /* \"#utility.yul\":13189:13228   */\n      iszero\n      tag_381\n      jumpi\n        /* \"#utility.yul\":13208:13226   */\n      tag_382\n      tag_229\n      jump\t// in\n    tag_382:\n        /* \"#utility.yul\":13189:13228   */\n    tag_381:\n        /* \"#utility.yul\":13047:13235   */\n      swap3\n      swap2\n      pop\n      pop\n      jump\t// out\n        /* \"#utility.yul\":13241:13421   */\n    tag_233:\n        /* \"#utility.yul\":13289:13366   */\n      0x4e487b7100000000000000000000000000000000000000000000000000000000\n        /* \"#utility.yul\":13286:13287   */\n      0x00\n        /* \"#utility.yul\":13279:13367   */\n      mstore\n        /* \"#utility.yul\":13386:13390   */\n      0x12\n        /* \"#utility.yul\":13383:13384   */\n      0x04\n        /* \"#utility.yul\":13376:13391   */\n      mstore\n        /* \"#utility.yul\":13410:13414   */\n      0x24\n        /* \"#utility.yul\":13407:13408   */\n      0x00\n        /* \"#utility.yul\":13400:13415   */\n      revert\n        /* \"#utility.yul\":13427:13612   */\n    tag_102:\n        /* \"#utility.yul\":13467:13468   */\n      0x00\n        /* \"#utility.yul\":13484:13504   */\n      tag_385\n        /* \"#utility.yul\":13502:13503   */\n      dup3\n        /* \"#utility.yul\":13484:13504   */\n      tag_196\n      jump\t// in\n    tag_385:\n        /* \"#utility.yul\":13479:13504   */\n      swap2\n      pop\n        /* \"#utility.yul\":13518:13538   */\n      tag_386\n        /* \"#utility.yul\":13536:13537   */\n      dup4\n        /* \"#utility.yul\":13518:13538   */\n      tag_196\n      jump\t// in\n    tag_386:\n        /* \"#utility.yul\":13513:13538   */\n      swap3\n      pop\n        /* \"#utility.yul\":13557:13558   */\n      dup3\n        /* \"#utility.yul\":13547:13582   */\n      tag_387\n      jumpi\n        /* \"#utility.yul\":13562:13580   */\n      tag_388\n      tag_233\n      jump\t// in\n    tag_388:\n        /* \"#utility.yul\":13547:13582   */\n    tag_387:\n        /* \"#utility.yul\":13604:13605   */\n      dup3\n        /* \"#utility.yul\":13601:13602   */\n      dup3\n        /* \"#utility.yul\":13597:13606   */\n      div\n        /* \"#utility.yul\":13592:13606   */\n      swap1\n      pop\n        /* \"#utility.yul\":13427:13612   */\n      swap3\n      swap2\n      pop\n      pop\n      jump\t// out\n        /* \"#utility.yul\":13618:14028   */\n    tag_105:\n        /* \"#utility.yul\":13658:13665   */\n      0x00\n        /* \"#utility.yul\":13681:13701   */\n      tag_390\n        /* \"#utility.yul\":13699:13700   */\n      dup3\n        /* \"#utility.yul\":13681:13701   */\n      tag_196\n      jump\t// in\n    tag_390:\n        /* \"#utility.yul\":13676:13701   */\n      swap2\n      pop\n        /* \"#utility.yul\":13715:13735   */\n      tag_391\n        /* \"#utility.yul\":13733:13734   */\n      dup4\n        /* \"#utility.yul\":13715:13735   */\n      tag_196\n      jump\t// in\n    tag_391:\n        /* \"#utility.yul\":13710:13735   */\n      swap3\n      pop\n        /* \"#utility.yul\":13770:13771   */\n      dup3\n        /* \"#utility.yul\":13767:13768   */\n      dup3\n        /* \"#utility.yul\":13763:13772   */\n      mul\n        /* \"#utility.yul\":13792:13822   */\n      tag_392\n        /* \"#utility.yul\":13810:13821   */\n      dup2\n        /* \"#utility.yul\":13792:13822   */\n      tag_196\n      jump\t// in\n    tag_392:\n        /* \"#utility.yul\":13781:13822   */\n      swap2\n      pop\n        /* \"#utility.yul\":13971:13972   */\n      dup3\n        /* \"#utility.yul\":13962:13969   */\n      dup3\n        /* \"#utility.yul\":13958:13973   */\n      div\n        /* \"#utility.yul\":13955:13956   */\n      dup5\n        /* \"#utility.yul\":13952:13974   */\n      eq\n        /* \"#utility.yul\":13932:13933   */\n      dup4\n        /* \"#utility.yul\":13925:13934   */\n      iszero\n        /* \"#utility.yul\":13905:13988   */\n      or\n        /* \"#utility.yul\":13882:14021   */\n      tag_393\n      jumpi\n        /* \"#utility.yul\":14001:14019   */\n      tag_394\n      tag_229\n      jump\t// in\n    tag_394:\n        /* \"#utility.yul\":13882:14021   */\n    tag_393:\n        /* \"#utility.yul\":13666:14028   */\n      pop\n        /* \"#utility.yul\":13618:14028   */\n      swap3\n      swap2\n      pop\n      pop\n      jump\t// out\n        /* \"#utility.yul\":14034:14225   */\n    tag_107:\n        /* \"#utility.yul\":14074:14077   */\n      0x00\n        /* \"#utility.yul\":14093:14113   */\n      tag_396\n        /* \"#utility.yul\":14111:14112   */\n      dup3\n        /* \"#utility.yul\":14093:14113   */\n      tag_196\n      jump\t// in\n    tag_396:\n        /* \"#utility.yul\":14088:14113   */\n      swap2\n      pop\n        /* \"#utility.yul\":14127:14147   */\n      tag_397\n        /* \"#utility.yul\":14145:14146   */\n      dup4\n        /* \"#utility.yul\":14127:14147   */\n      tag_196\n      jump\t// in\n    tag_397:\n        /* \"#utility.yul\":14122:14147   */\n      swap3\n      pop\n        /* \"#utility.yul\":14170:14171   */\n      dup3\n        /* \"#utility.yul\":14167:14168   */\n      dup3\n        /* \"#utility.yul\":14163:14172   */\n      add\n        /* \"#utility.yul\":14156:14172   */\n      swap1\n      pop\n        /* \"#utility.yul\":14191:14194   */\n      dup1\n        /* \"#utility.yul\":14188:14189   */\n      dup3\n        /* \"#utility.yul\":14185:14195   */\n      gt\n        /* \"#utility.yul\":14182:14218   */\n      iszero\n      tag_398\n      jumpi\n        /* \"#utility.yul\":14198:14216   */\n      tag_399\n      tag_229\n      jump\t// in\n    tag_399:\n        /* \"#utility.yul\":14182:14218   */\n    tag_398:\n        /* \"#utility.yul\":14034:14225   */\n      swap3\n      swap2\n      pop\n      pop\n      jump\t// out\n        /* \"#utility.yul\":14231:14425   */\n    tag_119:\n        /* \"#utility.yul\":14271:14275   */\n      0x00\n        /* \"#utility.yul\":14291:14311   */\n      tag_401\n        /* \"#utility.yul\":14309:14310   */\n      dup3\n        /* \"#utility.yul\":14291:14311   */\n      tag_196\n      jump\t// in\n    tag_401:\n        /* \"#utility.yul\":14286:14311   */\n      swap2\n      pop\n        /* \"#utility.yul\":14325:14345   */\n      tag_402\n        /* \"#utility.yul\":14343:14344   */\n      dup4\n        /* \"#utility.yul\":14325:14345   */\n      tag_196\n      jump\t// in\n    tag_402:\n        /* \"#utility.yul\":14320:14345   */\n      swap3\n      pop\n        /* \"#utility.yul\":14369:14370   */\n      dup3\n        /* \"#utility.yul\":14366:14367   */\n      dup3\n        /* \"#utility.yul\":14362:14371   */\n      sub\n        /* \"#utility.yul\":14354:14371   */\n      swap1\n      pop\n        /* \"#utility.yul\":14393:14394   */\n      dup2\n        /* \"#utility.yul\":14387:14391   */\n      dup2\n        /* \"#utility.yul\":14384:14395   */\n      gt\n        /* \"#utility.yul\":14381:14418   */\n      iszero\n      tag_403\n      jumpi\n        /* \"#utility.yul\":14398:14416   */\n      tag_404\n      tag_229\n      jump\t// in\n    tag_404:\n        /* \"#utility.yul\":14381:14418   */\n    tag_403:\n        /* \"#utility.yul\":14231:14425   */\n      swap3\n      swap2\n      pop\n      pop\n      jump\t// out\n        /* \"#utility.yul\":14431:14533   */\n    tag_234:\n        /* \"#utility.yul\":14473:14481   */\n      0x00\n        /* \"#utility.yul\":14520:14525   */\n      dup2\n        /* \"#utility.yul\":14517:14518   */\n      0x01\n        /* \"#utility.yul\":14513:14526   */\n      shr\n        /* \"#utility.yul\":14492:14526   */\n      swap1\n      pop\n        /* \"#utility.yul\":14431:14533   */\n      swap2\n      swap1\n      pop\n      jump\t// out\n        /* \"#utility.yul\":14539:15387   */\n    tag_235:\n        /* \"#utility.yul\":14600:14605   */\n      0x00\n        /* \"#utility.yul\":14607:14611   */\n      dup1\n        /* \"#utility.yul\":14631:14637   */\n      dup3\n        /* \"#utility.yul\":14622:14637   */\n      swap2\n      pop\n        /* \"#utility.yul\":14655:14660   */\n      dup4\n        /* \"#utility.yul\":14646:14660   */\n      swap1\n      pop\n        /* \"#utility.yul\":14669:15381   */\n    tag_407:\n        /* \"#utility.yul\":14690:14691   */\n      0x01\n        /* \"#utility.yul\":14680:14688   */\n      dup6\n        /* \"#utility.yul\":14677:14692   */\n      gt\n        /* \"#utility.yul\":14669:15381   */\n      iszero\n      tag_409\n      jumpi\n        /* \"#utility.yul\":14785:14789   */\n      dup1\n        /* \"#utility.yul\":14780:14783   */\n      dup7\n        /* \"#utility.yul\":14776:14790   */\n      div\n        /* \"#utility.yul\":14770:14774   */\n      dup2\n        /* \"#utility.yul\":14767:14791   */\n      gt\n        /* \"#utility.yul\":14764:14814   */\n      iszero\n      tag_410\n      jumpi\n        /* \"#utility.yul\":14794:14812   */\n      tag_411\n      tag_229\n      jump\t// in\n    tag_411:\n        /* \"#utility.yul\":14764:14814   */\n    tag_410:\n        /* \"#utility.yul\":14844:14845   */\n      0x01\n        /* \"#utility.yul\":14834:14842   */\n      dup6\n        /* \"#utility.yul\":14830:14846   */\n      and\n        /* \"#utility.yul\":14827:15278   */\n      iszero\n      tag_412\n      jumpi\n        /* \"#utility.yul\":15259:15263   */\n      dup1\n        /* \"#utility.yul\":15252:15257   */\n      dup3\n        /* \"#utility.yul\":15248:15264   */\n      mul\n        /* \"#utility.yul\":15239:15264   */\n      swap2\n      pop\n        /* \"#utility.yul\":14827:15278   */\n    tag_412:\n        /* \"#utility.yul\":15309:15313   */\n      dup1\n        /* \"#utility.yul\":15303:15307   */\n      dup2\n        /* \"#utility.yul\":15299:15314   */\n      mul\n        /* \"#utility.yul\":15291:15314   */\n      swap1\n      pop\n        /* \"#utility.yul\":15339:15371   */\n      tag_413\n        /* \"#utility.yul\":15362:15370   */\n      dup6\n        /* \"#utility.yul\":15339:15371   */\n      tag_234\n      jump\t// in\n    tag_413:\n        /* \"#utility.yul\":15327:15371   */\n      swap5\n      pop\n        /* \"#utility.yul\":14669:15381   */\n      jump(tag_407)\n    tag_409:\n        /* \"#utility.yul\":14539:15387   */\n      swap5\n      pop\n      swap5\n      swap3\n      pop\n      pop\n      pop\n      jump\t// out\n        /* \"#utility.yul\":15393:16466   */\n    tag_236:\n        /* \"#utility.yul\":15447:15452   */\n      0x00\n        /* \"#utility.yul\":15638:15646   */\n      dup3\n        /* \"#utility.yul\":15628:15668   */\n      tag_415\n      jumpi\n        /* \"#utility.yul\":15659:15660   */\n      0x01\n        /* \"#utility.yul\":15650:15660   */\n      swap1\n      pop\n        /* \"#utility.yul\":15661:15666   */\n      jump(tag_414)\n        /* \"#utility.yul\":15628:15668   */\n    tag_415:\n        /* \"#utility.yul\":15687:15691   */\n      dup2\n        /* \"#utility.yul\":15677:15713   */\n      tag_416\n      jumpi\n        /* \"#utility.yul\":15704:15705   */\n      0x00\n        /* \"#utility.yul\":15695:15705   */\n      swap1\n      pop\n        /* \"#utility.yul\":15706:15711   */\n      jump(tag_414)\n        /* \"#utility.yul\":15677:15713   */\n    tag_416:\n        /* \"#utility.yul\":15773:15777   */\n      dup2\n        /* \"#utility.yul\":15821:15822   */\n      0x01\n        /* \"#utility.yul\":15816:15843   */\n      dup2\n      eq\n      tag_418\n      jumpi\n        /* \"#utility.yul\":15857:15858   */\n      0x02\n        /* \"#utility.yul\":15852:16043   */\n      dup2\n      eq\n      tag_419\n      jumpi\n        /* \"#utility.yul\":15766:16043   */\n      jump(tag_417)\n        /* \"#utility.yul\":15816:15843   */\n    tag_418:\n        /* \"#utility.yul\":15834:15835   */\n      0x01\n        /* \"#utility.yul\":15825:15835   */\n      swap2\n      pop\n        /* \"#utility.yul\":15836:15841   */\n      pop\n      jump(tag_414)\n        /* \"#utility.yul\":15852:16043   */\n    tag_419:\n        /* \"#utility.yul\":15897:15900   */\n      0xff\n        /* \"#utility.yul\":15887:15895   */\n      dup5\n        /* \"#utility.yul\":15884:15901   */\n      gt\n        /* \"#utility.yul\":15881:15924   */\n      iszero\n      tag_420\n      jumpi\n        /* \"#utility.yul\":15904:15922   */\n      tag_421\n      tag_229\n      jump\t// in\n    tag_421:\n        /* \"#utility.yul\":15881:15924   */\n    tag_420:\n        /* \"#utility.yul\":15953:15961   */\n      dup4\n        /* \"#utility.yul\":15950:15951   */\n      0x02\n        /* \"#utility.yul\":15946:15962   */\n      exp\n        /* \"#utility.yul\":15937:15962   */\n      swap2\n      pop\n        /* \"#utility.yul\":15988:15991   */\n      dup5\n        /* \"#utility.yul\":15981:15986   */\n      dup3\n        /* \"#utility.yul\":15978:15992   */\n      gt\n        /* \"#utility.yul\":15975:16015   */\n      iszero\n      tag_422\n      jumpi\n        /* \"#utility.yul\":15995:16013   */\n      tag_423\n      tag_229\n      jump\t// in\n    tag_423:\n        /* \"#utility.yul\":15975:16015   */\n    tag_422:\n        /* \"#utility.yul\":16028:16033   */\n      pop\n      jump(tag_414)\n        /* \"#utility.yul\":15766:16043   */\n    tag_417:\n      pop\n        /* \"#utility.yul\":16152:16154   */\n      0x20\n        /* \"#utility.yul\":16142:16150   */\n      dup4\n        /* \"#utility.yul\":16139:16155   */\n      lt\n        /* \"#utility.yul\":16133:16136   */\n      0x0133\n        /* \"#utility.yul\":16127:16131   */\n      dup4\n        /* \"#utility.yul\":16124:16137   */\n      lt\n        /* \"#utility.yul\":16120:16156   */\n      and\n        /* \"#utility.yul\":16102:16104   */\n      0x4e\n        /* \"#utility.yul\":16092:16100   */\n      dup5\n        /* \"#utility.yul\":16089:16105   */\n      lt\n        /* \"#utility.yul\":16084:16086   */\n      0x0b\n        /* \"#utility.yul\":16078:16082   */\n      dup5\n        /* \"#utility.yul\":16075:16087   */\n      lt\n        /* \"#utility.yul\":16071:16106   */\n      and\n        /* \"#utility.yul\":16055:16166   */\n      or\n        /* \"#utility.yul\":16052:16298   */\n      iszero\n      tag_424\n      jumpi\n        /* \"#utility.yul\":16208:16216   */\n      dup3\n        /* \"#utility.yul\":16202:16206   */\n      dup3\n        /* \"#utility.yul\":16198:16217   */\n      exp\n        /* \"#utility.yul\":16189:16217   */\n      swap1\n      pop\n        /* \"#utility.yul\":16243:16246   */\n      dup4\n        /* \"#utility.yul\":16236:16241   */\n      dup2\n        /* \"#utility.yul\":16233:16247   */\n      gt\n        /* \"#utility.yul\":16230:16270   */\n      iszero\n      tag_425\n      jumpi\n        /* \"#utility.yul\":16250:16268   */\n      tag_426\n      tag_229\n      jump\t// in\n    tag_426:\n        /* \"#utility.yul\":16230:16270   */\n    tag_425:\n        /* \"#utility.yul\":16283:16288   */\n      jump(tag_414)\n        /* \"#utility.yul\":16052:16298   */\n    tag_424:\n        /* \"#utility.yul\":16323:16365   */\n      tag_427\n        /* \"#utility.yul\":16361:16364   */\n      dup5\n        /* \"#utility.yul\":16351:16359   */\n      dup5\n        /* \"#utility.yul\":16345:16349   */\n      dup5\n        /* \"#utility.yul\":16342:16343   */\n      0x01\n        /* \"#utility.yul\":16323:16365   */\n      tag_235\n      jump\t// in\n    tag_427:\n        /* \"#utility.yul\":16308:16365   */\n      swap3\n      pop\n      swap1\n      pop\n        /* \"#utility.yul\":16397:16401   */\n      dup2\n        /* \"#utility.yul\":16392:16395   */\n      dup5\n        /* \"#utility.yul\":16388:16402   */\n      div\n        /* \"#utility.yul\":16381:16386   */\n      dup2\n        /* \"#utility.yul\":16378:16403   */\n      gt\n        /* \"#utility.yul\":16375:16426   */\n      iszero\n      tag_428\n      jumpi\n        /* \"#utility.yul\":16406:16424   */\n      tag_429\n      tag_229\n      jump\t// in\n    tag_429:\n        /* \"#utility.yul\":16375:16426   */\n    tag_428:\n        /* \"#utility.yul\":16455:16459   */\n      dup2\n        /* \"#utility.yul\":16448:16453   */\n      dup2\n        /* \"#utility.yul\":16444:16460   */\n      mul\n        /* \"#utility.yul\":16435:16460   */\n      swap1\n      pop\n        /* \"#utility.yul\":15393:16466   */\n    tag_414:\n      swap4\n      swap3\n      pop\n      pop\n      pop\n      jump\t// out\n        /* \"#utility.yul\":16472:16757   */\n    tag_121:\n        /* \"#utility.yul\":16532:16537   */\n      0x00\n        /* \"#utility.yul\":16556:16579   */\n      tag_431\n        /* \"#utility.yul\":16574:16578   */\n      dup3\n        /* \"#utility.yul\":16556:16579   */\n      tag_196\n      jump\t// in\n    tag_431:\n        /* \"#utility.yul\":16548:16579   */\n      swap2\n      pop\n        /* \"#utility.yul\":16600:16627   */\n      tag_432\n        /* \"#utility.yul\":16618:16626   */\n      dup4\n        /* \"#utility.yul\":16600:16627   */\n      tag_196\n      jump\t// in\n    tag_432:\n        /* \"#utility.yul\":16588:16627   */\n      swap3\n      pop\n        /* \"#utility.yul\":16646:16750   */\n      tag_433\n        /* \"#utility.yul\":16683:16749   */\n      0xffffffffffffffffffffffffffffffffffffffffffffffffffffffffffffffff\n        /* \"#utility.yul\":16673:16681   */\n      dup5\n        /* \"#utility.yul\":16667:16671   */\n      dup5\n        /* \"#utility.yul\":16646:16750   */\n      tag_236\n      jump\t// in\n    tag_433:\n        /* \"#utility.yul\":16637:16750   */\n      swap1\n      pop\n        /* \"#utility.yul\":16472:16757   */\n      swap3\n      swap2\n      pop\n      pop\n      jump\t// out\n        /* \"#utility.yul\":16763:16939   */\n    tag_124:\n        /* \"#utility.yul\":16795:16796   */\n      0x00\n        /* \"#utility.yul\":16812:16832   */\n      tag_435\n        /* \"#utility.yul\":16830:16831   */\n      dup3\n        /* \"#utility.yul\":16812:16832   */\n      tag_196\n      jump\t// in\n    tag_435:\n        /* \"#utility.yul\":16807:16832   */\n      swap2\n      pop\n        /* \"#utility.yul\":16846:16866   */\n      tag_436\n        /* \"#utility.yul\":16864:16865   */\n      dup4\n        /* \"#utility.yul\":16846:16866   */\n      tag_196\n      jump\t// in\n    tag_436:\n        /* \"#utility.yul\":16841:16866   */\n      swap3\n      pop\n        /* \"#utility.yul\":16885:16886   */\n      dup3\n        /* \"#utility.yul\":16875:16910   */\n      tag_437\n      jumpi\n        /* \"#utility.yul\":16890:16908   */\n      tag_438\n      tag_233\n      jump\t// in\n    tag_438:\n        /* \"#utility.yul\":16875:16910   */\n    tag_437:\n        /* \"#utility.yul\":16931:16932   */\n      dup3\n        /* \"#utility.yul\":16928:16929   */\n      dup3\n        /* \"#utility.yul\":16924:16933   */\n      mod\n        /* \"#utility.yul\":16919:16933   */\n      swap1\n      pop\n        /* \"#utility.yul\":16763:16939   */\n      swap3\n      swap2\n      pop\n      pop\n      jump\t// out\n        /* \"#utility.yul\":16945:17039   */\n    tag_237:\n        /* \"#utility.yul\":16978:16986   */\n      0x00\n        /* \"#utility.yul\":17026:17031   */\n      dup2\n        /* \"#utility.yul\":17022:17024   */\n      0x60\n        /* \"#utility.yul\":17018:17032   */\n      shl\n        /* \"#utility.yul\":16997:17032   */\n      swap1\n      pop\n        /* \"#utility.yul\":16945:17039   */\n      swap2\n      swap1\n      pop\n      jump\t// out\n        /* \"#utility.yul\":17045:17139   */\n    tag_238:\n        /* \"#utility.yul\":17084:17091   */\n      0x00\n        /* \"#utility.yul\":17113:17133   */\n      tag_441\n        /* \"#utility.yul\":17127:17132   */\n      dup3\n        /* \"#utility.yul\":17113:17133   */\n      tag_237\n      jump\t// in\n    tag_441:\n        /* \"#utility.yul\":17102:17133   */\n      swap1\n      pop\n        /* \"#utility.yul\":17045:17139   */\n      swap2\n      swap1\n      pop\n      jump\t// out\n        /* \"#utility.yul\":17145:17245   */\n    tag_239:\n        /* \"#utility.yul\":17184:17191   */\n      0x00\n        /* \"#utility.yul\":17213:17239   */\n      tag_443\n        /* \"#utility.yul\":17233:17238   */\n      dup3\n        /* \"#utility.yul\":17213:17239   */\n      tag_238\n      jump\t// in\n    tag_443:\n        /* \"#utility.yul\":17202:17239   */\n      swap1\n      pop\n        /* \"#utility.yul\":17145:17245   */\n      swap2\n      swap1\n      pop\n      jump\t// out\n        /* \"#utility.yul\":17251:17408   */\n    tag_240:\n        /* \"#utility.yul\":17356:17401   */\n      tag_445\n        /* \"#utility.yul\":17376:17400   */\n      tag_446\n        /* \"#utility.yul\":17394:17399   */\n      dup3\n        /* \"#utility.yul\":17376:17400   */\n      tag_200\n      jump\t// in\n    tag_446:\n        /* \"#utility.yul\":17356:17401   */\n      tag_239\n      jump\t// in\n    tag_445:\n        /* \"#utility.yul\":17351:17354   */\n      dup3\n        /* \"#utility.yul\":17344:17402   */\n      mstore\n        /* \"#utility.yul\":17251:17408   */\n      pop\n      pop\n      jump\t// out\n        /* \"#utility.yul\":17414:17670   */\n    tag_135:\n        /* \"#utility.yul\":17526:17529   */\n      0x00\n        /* \"#utility.yul\":17541:17616   */\n      tag_448\n        /* \"#utility.yul\":17612:17615   */\n      dup3\n        /* \"#utility.yul\":17603:17609   */\n      dup5\n        /* \"#utility.yul\":17541:17616   */\n      tag_240\n      jump\t// in\n    tag_448:\n        /* \"#utility.yul\":17641:17643   */\n      0x14\n        /* \"#utility.yul\":17636:17639   */\n      dup3\n        /* \"#utility.yul\":17632:17644   */\n      add\n        /* \"#utility.yul\":17625:17644   */\n      swap2\n      pop\n        /* \"#utility.yul\":17661:17664   */\n      dup2\n        /* \"#utility.yul\":17654:17664   */\n      swap1\n      pop\n        /* \"#utility.yul\":17414:17670   */\n      swap3\n      swap2\n      pop\n      pop\n      jump\t// out\n        /* \"#utility.yul\":17676:17755   */\n    tag_241:\n        /* \"#utility.yul\":17715:17722   */\n      0x00\n        /* \"#utility.yul\":17744:17749   */\n      dup2\n        /* \"#utility.yul\":17733:17749   */\n      swap1\n      pop\n        /* \"#utility.yul\":17676:17755   */\n      swap2\n      swap1\n      pop\n      jump\t// out\n        /* \"#utility.yul\":17761:17918   */\n    tag_242:\n        /* \"#utility.yul\":17866:17911   */\n      tag_451\n        /* \"#utility.yul\":17886:17910   */\n      tag_452\n        /* \"#utility.yul\":17904:17909   */\n      dup3\n        /* \"#utility.yul\":17886:17910   */\n      tag_196\n      jump\t// in\n    tag_452:\n        /* \"#utility.yul\":17866:17911   */\n      tag_241\n      jump\t// in\n    tag_451:\n        /* \"#utility.yul\":17861:17864   */\n      dup3\n        /* \"#utility.yul\":17854:17912   */\n      mstore\n        /* \"#utility.yul\":17761:17918   */\n      pop\n      pop\n      jump\t// out\n        /* \"#utility.yul\":17924:18180   */\n    tag_143:\n        /* \"#utility.yul\":18036:18039   */\n      0x00\n        /* \"#utility.yul\":18051:18126   */\n      tag_454\n        /* \"#utility.yul\":18122:18125   */\n      dup3\n        /* \"#utility.yul\":18113:18119   */\n      dup5\n        /* \"#utility.yul\":18051:18126   */\n      tag_242\n      jump\t// in\n    tag_454:\n        /* \"#utility.yul\":18151:18153   */\n      0x20\n        /* \"#utility.yul\":18146:18149   */\n      dup3\n        /* \"#utility.yul\":18142:18154   */\n      add\n        /* \"#utility.yul\":18135:18154   */\n      swap2\n      pop\n        /* \"#utility.yul\":18171:18174   */\n      dup2\n        /* \"#utility.yul\":18164:18174   */\n      swap1\n      pop\n        /* \"#utility.yul\":17924:18180   */\n      swap3\n      swap2\n      pop\n      pop\n      jump\t// out\n\n    auxdata: 0xa26469706673582212200cf87216b9d31024da8d110106087451d60172e8ae24e3e67979f94d4e46a70764736f6c634300081a0033\n}\n",
				"bytecode": {
					"linkReferences": {},
					"object": "608060405234801561000f575f80fd5b506040516117f53803806117f5833981810160405281019061003191906100d4565b805f806101000a81548173ffffffffffffffffffffffffffffffffffffffff021916908373ffffffffffffffffffffffffffffffffffffffff160217905550506100ff565b5f80fd5b5f73ffffffffffffffffffffffffffffffffffffffff82169050919050565b5f6100a38261007a565b9050919050565b6100b381610099565b81146100bd575f80fd5b50565b5f815190506100ce816100aa565b92915050565b5f602082840312156100e9576100e8610076565b5b5f6100f6848285016100c0565b91505092915050565b6116e98061010c5f395ff3fe608060405234801561000f575f80fd5b506004361061004a575f3560e01c8063681face91461004e57806394e375dd1461006a578063b463206c14610086578063dbe637c6146100a4575b5f80fd5b61006860048036038101906100639190610e57565b6100c0565b005b610084600480360381019061007f9190610f45565b6101f2565b005b61008e610324565b60405161009b919061106d565b60405180910390f35b6100be60048036038101906100b99190611086565b610347565b005b5f6100ca8261047c565b90505f6100db8487878b8b876104f9565b90505f6040518060a001604052807f45564d5f57414c4c45545f54595045000000000000000000000000000000000081526020018b81526020017f4d554d4241495f434841494e5f4944000000000000000000000000000000000081526020018381526020016001151581525090505f8054906101000a900473ffffffffffffffffffffffffffffffffffffffff1673ffffffffffffffffffffffffffffffffffffffff166393f874c4826040518263ffffffff1660e01b81526004016101a2919061120f565b5f604051808303815f87803b1580156101b9575f80fd5b505af11580156101cb573d5f803e3d5ffd5b5050505060015f8154809291906101e19061125c565b919050555050505050505050505050565b5f6101fc8361047c565b90505f61020d8588888c8c876104f9565b90505f6040518060a001604052807f45564d5f57414c4c45545f54595045000000000000000000000000000000000081526020018c81526020017f4d554d4241495f434841494e5f49440000000000000000000000000000000000815260200183815260200185151581525090505f8054906101000a900473ffffffffffffffffffffffffffffffffffffffff1673ffffffffffffffffffffffffffffffffffffffff166393f874c4826040518263ffffffff1660e01b81526004016102d3919061120f565b5f604051808303815f87803b1580156102ea575f80fd5b505af11580156102fc573d5f803e3d5ffd5b5050505060015f8154809291906103129061125c565b91905055505050505050505050505050565b5f8054906101000a900473ffffffffffffffffffffffffffffffffffffffff1681565b5f6103518261047c565b90505f6103686001546002546003548888876104f9565b90505f6040518060a001604052807f45564d5f57414c4c45545f54595045000000000000000000000000000000000081526020018881526020017f4d554d4241495f434841494e5f4944000000000000000000000000000000000081526020018381526020016001151581525090505f8054906101000a900473ffffffffffffffffffffffffffffffffffffffff1673ffffffffffffffffffffffffffffffffffffffff166393f874c4826040518263ffffffff1660e01b815260040161042f919061120f565b5f604051808303815f87803b158015610446575f80fd5b505af1158015610458573d5f803e3d5ffd5b5050505060015f81548092919061046e9061125c565b919050555050505050505050565b606080600183511480156104b357506080835f815181106104a05761049f6112a3565b5b602001015160f81c60f81b60f81c60ff16105b156104c0578290506104f0565b6104cc8351608061064a565b836040516020016104de92919061130a565b60405160208183030381529060405290505b80915050919050565b60605f600667ffffffffffffffff81111561051757610516610d33565b5b60405190808252806020026020018201604052801561054a57816020015b60608152602001906001900390816105355790505b5090506105568861088f565b815f81518110610569576105686112a3565b5b602002602001018190525061057d8761088f565b81600181518110610591576105906112a3565b5b60200260200101819052506105a58661088f565b816002815181106105b9576105b86112a3565b5b60200260200101819052506105cd856108a9565b816003815181106105e1576105e06112a3565b5b60200260200101819052506105f58461088f565b81600481518110610609576106086112a3565b5b60200260200101819052508281600581518110610629576106286112a3565b5b602002602001018190525061063d816108da565b9150509695505050505050565b60608060388410156106fb57600167ffffffffffffffff81111561067157610670610d33565b5b6040519080825280601f01601f1916602001820160405280156106a35781602001600182028036833780820191505090505b50905082846106b29190611339565b60f81b815f815181106106c8576106c76112a3565b5b60200101907effffffffffffffffffffffffffffffffffffffffffffffffffffffffffffff191690815f1a905350610885565b5f80600190505b5f818761070f919061139a565b1461073757818061071f9061125c565b9250506101008161073091906113ca565b9050610702565b600182610744919061140b565b67ffffffffffffffff81111561075d5761075c610d33565b5b6040519080825280601f01601f19166020018201604052801561078f5781602001600182028036833780820191505090505b509250603785836107a09190611339565b6107aa9190611339565b60f81b835f815181106107c0576107bf6112a3565b5b60200101907effffffffffffffffffffffffffffffffffffffffffffffffffffffffffffff191690815f1a905350600190505b818111610882576101008183610809919061143e565b61010061081691906115a0565b87610821919061139a565b61082b91906115ea565b60f81b838281518110610841576108406112a3565b5b60200101907effffffffffffffffffffffffffffffffffffffffffffffffffffffffffffff191690815f1a905350808061087a9061125c565b9150506107f3565b50505b8091505092915050565b60606108a261089d8361091d565b61047c565b9050919050565b60606108d3826040516020016108bf919061165f565b60405160208183030381529060405261047c565b9050919050565b60605f6108e683610a8e565b90506108f4815160c061064a565b8160405160200161090692919061130a565b604051602081830303815290604052915050919050565b60605f826040516020016109319190611699565b60405160208183030381529060405290505f5b60208110156109a3575f60f81b828281518110610964576109636112a3565b5b602001015160f81c60f81b7effffffffffffffffffffffffffffffffffffffffffffffffffffffffffffff1916036109a3578080600101915050610944565b5f8160206109b1919061143e565b67ffffffffffffffff8111156109ca576109c9610d33565b5b6040519080825280601f01601f1916602001820160405280156109fc5781602001600182028036833780820191505090505b5090505f5b8151811015610a8257838380610a169061125c565b945081518110610a2957610a286112a3565b5b602001015160f81c60f81b828281518110610a4757610a466112a3565b5b60200101907effffffffffffffffffffffffffffffffffffffffffffffffffffffffffffff191690815f1a9053508080600101915050610a01565b50809350505050919050565b60605f825103610aec575f67ffffffffffffffff811115610ab257610ab1610d33565b5b6040519080825280601f01601f191660200182016040528015610ae45781602001600182028036833780820191505090505b509050610c06565b5f805f90505b8351811015610b3157838181518110610b0e57610b0d6112a3565b5b60200260200101515182610b22919061140b565b91508080600101915050610af2565b5f8267ffffffffffffffff811115610b4c57610b4b610d33565b5b6040519080825280601f01601f191660200182016040528015610b7e5781602001600182028036833780820191505090505b5090505f6020820190505f92505b8551831015610bfe575f868481518110610ba957610ba86112a3565b5b602002602001015190505f602082019050610bc683828451610c0b565b878581518110610bd957610bd86112a3565b5b60200260200101515183610bed919061140b565b925050508280600101935050610b8c565b819450505050505b919050565b5f8390505f8390505f8390505b60208110610c565781518352602083610c31919061140b565b9250602082610c40919061140b565b9150602081610c4f919061143e565b9050610c18565b5f6001826020036101000a0390508019835116818551168181178652505050505050505050565b5f604051905090565b5f80fd5b5f80fd5b5f819050919050565b610ca081610c8e565b8114610caa575f80fd5b50565b5f81359050610cbb81610c97565b92915050565b5f73ffffffffffffffffffffffffffffffffffffffff82169050919050565b5f610cea82610cc1565b9050919050565b610cfa81610ce0565b8114610d04575f80fd5b50565b5f81359050610d1581610cf1565b92915050565b5f80fd5b5f80fd5b5f601f19601f8301169050919050565b7f4e487b71000000000000000000000000000000000000000000000000000000005f52604160045260245ffd5b610d6982610d23565b810181811067ffffffffffffffff82111715610d8857610d87610d33565b5b80604052505050565b5f610d9a610c7d565b9050610da68282610d60565b919050565b5f67ffffffffffffffff821115610dc557610dc4610d33565b5b610dce82610d23565b9050602081019050919050565b828183375f83830152505050565b5f610dfb610df684610dab565b610d91565b905082815260208101848484011115610e1757610e16610d1f565b5b610e22848285610ddb565b509392505050565b5f82601f830112610e3e57610e3d610d1b565b5b8135610e4e848260208601610de9565b91505092915050565b5f805f805f805f60e0888a031215610e7257610e71610c86565b5b5f610e7f8a828b01610cad565b9750506020610e908a828b01610d07565b9650506040610ea18a828b01610cad565b9550506060610eb28a828b01610cad565b9450506080610ec38a828b01610cad565b93505060a0610ed48a828b01610cad565b92505060c088013567ffffffffffffffff811115610ef557610ef4610c8a565b5b610f018a828b01610e2a565b91505092959891949750929550565b5f8115159050919050565b610f2481610f10565b8114610f2e575f80fd5b50565b5f81359050610f3f81610f1b565b92915050565b5f805f805f805f80610100898b031215610f6257610f61610c86565b5b5f610f6f8b828c01610cad565b9850506020610f808b828c01610d07565b9750506040610f918b828c01610cad565b9650506060610fa28b828c01610cad565b9550506080610fb38b828c01610cad565b94505060a0610fc48b828c01610cad565b93505060c089013567ffffffffffffffff811115610fe557610fe4610c8a565b5b610ff18b828c01610e2a565b92505060e06110028b828c01610f31565b9150509295985092959890939650565b5f819050919050565b5f61103561103061102b84610cc1565b611012565b610cc1565b9050919050565b5f6110468261101b565b9050919050565b5f6110578261103c565b9050919050565b6110678161104d565b82525050565b5f6020820190506110805f83018461105e565b92915050565b5f805f806080858703121561109e5761109d610c86565b5b5f6110ab87828801610cad565b94505060206110bc87828801610d07565b93505060406110cd87828801610cad565b925050606085013567ffffffffffffffff8111156110ee576110ed610c8a565b5b6110fa87828801610e2a565b91505092959194509250565b5f819050919050565b61111881611106565b82525050565b61112781610c8e565b82525050565b5f81519050919050565b5f82825260208201905092915050565b8281835e5f83830152505050565b5f61115f8261112d565b6111698185611137565b9350611179818560208601611147565b61118281610d23565b840191505092915050565b61119681610f10565b82525050565b5f60a083015f8301516111b15f86018261110f565b5060208301516111c4602086018261111e565b5060408301516111d7604086018261110f565b50606083015184820360608601526111ef8282611155565b9150506080830151611204608086018261118d565b508091505092915050565b5f6020820190508181035f830152611227818461119c565b905092915050565b7f4e487b71000000000000000000000000000000000000000000000000000000005f52601160045260245ffd5b5f61126682610c8e565b91507fffffffffffffffffffffffffffffffffffffffffffffffffffffffffffffffff82036112985761129761122f565b5b600182019050919050565b7f4e487b71000000000000000000000000000000000000000000000000000000005f52603260045260245ffd5b5f81905092915050565b5f6112e48261112d565b6112ee81856112d0565b93506112fe818560208601611147565b80840191505092915050565b5f61131582856112da565b915061132182846112da565b91508190509392505050565b5f60ff82169050919050565b5f6113438261132d565b915061134e8361132d565b9250828201905060ff8111156113675761136661122f565b5b92915050565b7f4e487b71000000000000000000000000000000000000000000000000000000005f52601260045260245ffd5b5f6113a482610c8e565b91506113af83610c8e565b9250826113bf576113be61136d565b5b828204905092915050565b5f6113d482610c8e565b91506113df83610c8e565b92508282026113ed81610c8e565b915082820484148315176114045761140361122f565b5b5092915050565b5f61141582610c8e565b915061142083610c8e565b92508282019050808211156114385761143761122f565b5b92915050565b5f61144882610c8e565b915061145383610c8e565b925082820390508181111561146b5761146a61122f565b5b92915050565b5f8160011c9050919050565b5f808291508390505b60018511156114c6578086048111156114a2576114a161122f565b5b60018516156114b15780820291505b80810290506114bf85611471565b9450611486565b94509492505050565b5f826114de5760019050611599565b816114eb575f9050611599565b8160018114611501576002811461150b5761153a565b6001915050611599565b60ff84111561151d5761151c61122f565b5b8360020a9150848211156115345761153361122f565b5b50611599565b5060208310610133831016604e8410600b841016171561156f5782820a90508381111561156a5761156961122f565b5b611599565b61157c848484600161147d565b925090508184048111156115935761159261122f565b5b81810290505b9392505050565b5f6115aa82610c8e565b91506115b583610c8e565b92506115e27fffffffffffffffffffffffffffffffffffffffffffffffffffffffffffffffff84846114cf565b905092915050565b5f6115f482610c8e565b91506115ff83610c8e565b92508261160f5761160e61136d565b5b828206905092915050565b5f8160601b9050919050565b5f6116308261161a565b9050919050565b5f61164182611626565b9050919050565b61165961165482610ce0565b611637565b82525050565b5f61166a8284611648565b60148201915081905092915050565b5f819050919050565b61169361168e82610c8e565b611679565b82525050565b5f6116a48284611682565b6020820191508190509291505056fea26469706673582212200cf87216b9d31024da8d110106087451d60172e8ae24e3e67979f94d4e46a70764736f6c634300081a0033",
					"opcodes": "PUSH1 0x80 PUSH1 0x40 MSTORE CALLVALUE DUP1 ISZERO PUSH2 0xF JUMPI PUSH0 DUP1 REVERT JUMPDEST POP PUSH1 0x40 MLOAD PUSH2 0x17F5 CODESIZE SUB DUP1 PUSH2 0x17F5 DUP4 CODECOPY DUP2 DUP2 ADD PUSH1 0x40 MSTORE DUP2 ADD SWAP1 PUSH2 0x31 SWAP2 SWAP1 PUSH2 0xD4 JUMP JUMPDEST DUP1 PUSH0 DUP1 PUSH2 0x100 EXP DUP2 SLOAD DUP2 PUSH20 0xFFFFFFFFFFFFFFFFFFFFFFFFFFFFFFFFFFFFFFFF MUL NOT AND SWAP1 DUP4 PUSH20 0xFFFFFFFFFFFFFFFFFFFFFFFFFFFFFFFFFFFFFFFF AND MUL OR SWAP1 SSTORE POP POP PUSH2 0xFF JUMP JUMPDEST PUSH0 DUP1 REVERT JUMPDEST PUSH0 PUSH20 0xFFFFFFFFFFFFFFFFFFFFFFFFFFFFFFFFFFFFFFFF DUP3 AND SWAP1 POP SWAP2 SWAP1 POP JUMP JUMPDEST PUSH0 PUSH2 0xA3 DUP3 PUSH2 0x7A JUMP JUMPDEST SWAP1 POP SWAP2 SWAP1 POP JUMP JUMPDEST PUSH2 0xB3 DUP2 PUSH2 0x99 JUMP JUMPDEST DUP2 EQ PUSH2 0xBD JUMPI PUSH0 DUP1 REVERT JUMPDEST POP JUMP JUMPDEST PUSH0 DUP2 MLOAD SWAP1 POP PUSH2 0xCE DUP2 PUSH2 0xAA JUMP JUMPDEST SWAP3 SWAP2 POP POP JUMP JUMPDEST PUSH0 PUSH1 0x20 DUP3 DUP5 SUB SLT ISZERO PUSH2 0xE9 JUMPI PUSH2 0xE8 PUSH2 0x76 JUMP JUMPDEST JUMPDEST PUSH0 PUSH2 0xF6 DUP5 DUP3 DUP6 ADD PUSH2 0xC0 JUMP JUMPDEST SWAP2 POP POP SWAP3 SWAP2 POP POP JUMP JUMPDEST PUSH2 0x16E9 DUP1 PUSH2 0x10C PUSH0 CODECOPY PUSH0 RETURN INVALID PUSH1 0x80 PUSH1 0x40 MSTORE CALLVALUE DUP1 ISZERO PUSH2 0xF JUMPI PUSH0 DUP1 REVERT JUMPDEST POP PUSH1 0x4 CALLDATASIZE LT PUSH2 0x4A JUMPI PUSH0 CALLDATALOAD PUSH1 0xE0 SHR DUP1 PUSH4 0x681FACE9 EQ PUSH2 0x4E JUMPI DUP1 PUSH4 0x94E375DD EQ PUSH2 0x6A JUMPI DUP1 PUSH4 0xB463206C EQ PUSH2 0x86 JUMPI DUP1 PUSH4 0xDBE637C6 EQ PUSH2 0xA4 JUMPI JUMPDEST PUSH0 DUP1 REVERT JUMPDEST PUSH2 0x68 PUSH1 0x4 DUP1 CALLDATASIZE SUB DUP2 ADD SWAP1 PUSH2 0x63 SWAP2 SWAP1 PUSH2 0xE57 JUMP JUMPDEST PUSH2 0xC0 JUMP JUMPDEST STOP JUMPDEST PUSH2 0x84 PUSH1 0x4 DUP1 CALLDATASIZE SUB DUP2 ADD SWAP1 PUSH2 0x7F SWAP2 SWAP1 PUSH2 0xF45 JUMP JUMPDEST PUSH2 0x1F2 JUMP JUMPDEST STOP JUMPDEST PUSH2 0x8E PUSH2 0x324 JUMP JUMPDEST PUSH1 0x40 MLOAD PUSH2 0x9B SWAP2 SWAP1 PUSH2 0x106D JUMP JUMPDEST PUSH1 0x40 MLOAD DUP1 SWAP2 SUB SWAP1 RETURN JUMPDEST PUSH2 0xBE PUSH1 0x4 DUP1 CALLDATASIZE SUB DUP2 ADD SWAP1 PUSH2 0xB9 SWAP2 SWAP1 PUSH2 0x1086 JUMP JUMPDEST PUSH2 0x347 JUMP JUMPDEST STOP JUMPDEST PUSH0 PUSH2 0xCA DUP3 PUSH2 0x47C JUMP JUMPDEST SWAP1 POP PUSH0 PUSH2 0xDB DUP5 DUP8 DUP8 DUP12 DUP12 DUP8 PUSH2 0x4F9 JUMP JUMPDEST SWAP1 POP PUSH0 PUSH1 0x40 MLOAD DUP1 PUSH1 0xA0 ADD PUSH1 0x40 MSTORE DUP1 PUSH32 0x45564D5F57414C4C45545F545950450000000000000000000000000000000000 DUP2 MSTORE PUSH1 0x20 ADD DUP12 DUP2 MSTORE PUSH1 0x20 ADD PUSH32 0x4D554D4241495F434841494E5F49440000000000000000000000000000000000 DUP2 MSTORE PUSH1 0x20 ADD DUP4 DUP2 MSTORE PUSH1 0x20 ADD PUSH1 0x1 ISZERO ISZERO DUP2 MSTORE POP SWAP1 POP PUSH0 DUP1 SLOAD SWAP1 PUSH2 0x100 EXP SWAP1 DIV PUSH20 0xFFFFFFFFFFFFFFFFFFFFFFFFFFFFFFFFFFFFFFFF AND PUSH20 0xFFFFFFFFFFFFFFFFFFFFFFFFFFFFFFFFFFFFFFFF AND PUSH4 0x93F874C4 DUP3 PUSH1 0x40 MLOAD DUP3 PUSH4 0xFFFFFFFF AND PUSH1 0xE0 SHL DUP2 MSTORE PUSH1 0x4 ADD PUSH2 0x1A2 SWAP2 SWAP1 PUSH2 0x120F JUMP JUMPDEST PUSH0 PUSH1 0x40 MLOAD DUP1 DUP4 SUB DUP2 PUSH0 DUP8 DUP1 EXTCODESIZE ISZERO DUP1 ISZERO PUSH2 0x1B9 JUMPI PUSH0 DUP1 REVERT JUMPDEST POP GAS CALL ISZERO DUP1 ISZERO PUSH2 0x1CB JUMPI RETURNDATASIZE PUSH0 DUP1 RETURNDATACOPY RETURNDATASIZE PUSH0 REVERT JUMPDEST POP POP POP POP PUSH1 0x1 PUSH0 DUP2 SLOAD DUP1 SWAP3 SWAP2 SWAP1 PUSH2 0x1E1 SWAP1 PUSH2 0x125C JUMP JUMPDEST SWAP2 SWAP1 POP SSTORE POP POP POP POP POP POP POP POP POP POP POP JUMP JUMPDEST PUSH0 PUSH2 0x1FC DUP4 PUSH2 0x47C JUMP JUMPDEST SWAP1 POP PUSH0 PUSH2 0x20D DUP6 DUP9 DUP9 DUP13 DUP13 DUP8 PUSH2 0x4F9 JUMP JUMPDEST SWAP1 POP PUSH0 PUSH1 0x40 MLOAD DUP1 PUSH1 0xA0 ADD PUSH1 0x40 MSTORE DUP1 PUSH32 0x45564D5F57414C4C45545F545950450000000000000000000000000000000000 DUP2 MSTORE PUSH1 0x20 ADD DUP13 DUP2 MSTORE PUSH1 0x20 ADD PUSH32 0x4D554D4241495F434841494E5F49440000000000000000000000000000000000 DUP2 MSTORE PUSH1 0x20 ADD DUP4 DUP2 MSTORE PUSH1 0x20 ADD DUP6 ISZERO ISZERO DUP2 MSTORE POP SWAP1 POP PUSH0 DUP1 SLOAD SWAP1 PUSH2 0x100 EXP SWAP1 DIV PUSH20 0xFFFFFFFFFFFFFFFFFFFFFFFFFFFFFFFFFFFFFFFF AND PUSH20 0xFFFFFFFFFFFFFFFFFFFFFFFFFFFFFFFFFFFFFFFF AND PUSH4 0x93F874C4 DUP3 PUSH1 0x40 MLOAD DUP3 PUSH4 0xFFFFFFFF AND PUSH1 0xE0 SHL DUP2 MSTORE PUSH1 0x4 ADD PUSH2 0x2D3 SWAP2 SWAP1 PUSH2 0x120F JUMP JUMPDEST PUSH0 PUSH1 0x40 MLOAD DUP1 DUP4 SUB DUP2 PUSH0 DUP8 DUP1 EXTCODESIZE ISZERO DUP1 ISZERO PUSH2 0x2EA JUMPI PUSH0 DUP1 REVERT JUMPDEST POP GAS CALL ISZERO DUP1 ISZERO PUSH2 0x2FC JUMPI RETURNDATASIZE PUSH0 DUP1 RETURNDATACOPY RETURNDATASIZE PUSH0 REVERT JUMPDEST POP POP POP POP PUSH1 0x1 PUSH0 DUP2 SLOAD DUP1 SWAP3 SWAP2 SWAP1 PUSH2 0x312 SWAP1 PUSH2 0x125C JUMP JUMPDEST SWAP2 SWAP1 POP SSTORE POP POP POP POP POP POP POP POP POP POP POP POP JUMP JUMPDEST PUSH0 DUP1 SLOAD SWAP1 PUSH2 0x100 EXP SWAP1 DIV PUSH20 0xFFFFFFFFFFFFFFFFFFFFFFFFFFFFFFFFFFFFFFFF AND DUP2 JUMP JUMPDEST PUSH0 PUSH2 0x351 DUP3 PUSH2 0x47C JUMP JUMPDEST SWAP1 POP PUSH0 PUSH2 0x368 PUSH1 0x1 SLOAD PUSH1 0x2 SLOAD PUSH1 0x3 SLOAD DUP9 DUP9 DUP8 PUSH2 0x4F9 JUMP JUMPDEST SWAP1 POP PUSH0 PUSH1 0x40 MLOAD DUP1 PUSH1 0xA0 ADD PUSH1 0x40 MSTORE DUP1 PUSH32 0x45564D5F57414C4C45545F545950450000000000000000000000000000000000 DUP2 MSTORE PUSH1 0x20 ADD DUP9 DUP2 MSTORE PUSH1 0x20 ADD PUSH32 0x4D554D4241495F434841494E5F49440000000000000000000000000000000000 DUP2 MSTORE PUSH1 0x20 ADD DUP4 DUP2 MSTORE PUSH1 0x20 ADD PUSH1 0x1 ISZERO ISZERO DUP2 MSTORE POP SWAP1 POP PUSH0 DUP1 SLOAD SWAP1 PUSH2 0x100 EXP SWAP1 DIV PUSH20 0xFFFFFFFFFFFFFFFFFFFFFFFFFFFFFFFFFFFFFFFF AND PUSH20 0xFFFFFFFFFFFFFFFFFFFFFFFFFFFFFFFFFFFFFFFF AND PUSH4 0x93F874C4 DUP3 PUSH1 0x40 MLOAD DUP3 PUSH4 0xFFFFFFFF AND PUSH1 0xE0 SHL DUP2 MSTORE PUSH1 0x4 ADD PUSH2 0x42F SWAP2 SWAP1 PUSH2 0x120F JUMP JUMPDEST PUSH0 PUSH1 0x40 MLOAD DUP1 DUP4 SUB DUP2 PUSH0 DUP8 DUP1 EXTCODESIZE ISZERO DUP1 ISZERO PUSH2 0x446 JUMPI PUSH0 DUP1 REVERT JUMPDEST POP GAS CALL ISZERO DUP1 ISZERO PUSH2 0x458 JUMPI RETURNDATASIZE PUSH0 DUP1 RETURNDATACOPY RETURNDATASIZE PUSH0 REVERT JUMPDEST POP POP POP POP PUSH1 0x1 PUSH0 DUP2 SLOAD DUP1 SWAP3 SWAP2 SWAP1 PUSH2 0x46E SWAP1 PUSH2 0x125C JUMP JUMPDEST SWAP2 SWAP1 POP SSTORE POP POP POP POP POP POP POP POP JUMP JUMPDEST PUSH1 0x60 DUP1 PUSH1 0x1 DUP4 MLOAD EQ DUP1 ISZERO PUSH2 0x4B3 JUMPI POP PUSH1 0x80 DUP4 PUSH0 DUP2 MLOAD DUP2 LT PUSH2 0x4A0 JUMPI PUSH2 0x49F PUSH2 0x12A3 JUMP JUMPDEST JUMPDEST PUSH1 0x20 ADD ADD MLOAD PUSH1 0xF8 SHR PUSH1 0xF8 SHL PUSH1 0xF8 SHR PUSH1 0xFF AND LT JUMPDEST ISZERO PUSH2 0x4C0 JUMPI DUP3 SWAP1 POP PUSH2 0x4F0 JUMP JUMPDEST PUSH2 0x4CC DUP4 MLOAD PUSH1 0x80 PUSH2 0x64A JUMP JUMPDEST DUP4 PUSH1 0x40 MLOAD PUSH1 0x20 ADD PUSH2 0x4DE SWAP3 SWAP2 SWAP1 PUSH2 0x130A JUMP JUMPDEST PUSH1 0x40 MLOAD PUSH1 0x20 DUP2 DUP4 SUB SUB DUP2 MSTORE SWAP1 PUSH1 0x40 MSTORE SWAP1 POP JUMPDEST DUP1 SWAP2 POP POP SWAP2 SWAP1 POP JUMP JUMPDEST PUSH1 0x60 PUSH0 PUSH1 0x6 PUSH8 0xFFFFFFFFFFFFFFFF DUP2 GT ISZERO PUSH2 0x517 JUMPI PUSH2 0x516 PUSH2 0xD33 JUMP JUMPDEST JUMPDEST PUSH1 0x40 MLOAD SWAP1 DUP1 DUP3 MSTORE DUP1 PUSH1 0x20 MUL PUSH1 0x20 ADD DUP3 ADD PUSH1 0x40 MSTORE DUP1 ISZERO PUSH2 0x54A JUMPI DUP2 PUSH1 0x20 ADD JUMPDEST PUSH1 0x60 DUP2 MSTORE PUSH1 0x20 ADD SWAP1 PUSH1 0x1 SWAP1 SUB SWAP1 DUP2 PUSH2 0x535 JUMPI SWAP1 POP JUMPDEST POP SWAP1 POP PUSH2 0x556 DUP9 PUSH2 0x88F JUMP JUMPDEST DUP2 PUSH0 DUP2 MLOAD DUP2 LT PUSH2 0x569 JUMPI PUSH2 0x568 PUSH2 0x12A3 JUMP JUMPDEST JUMPDEST PUSH1 0x20 MUL PUSH1 0x20 ADD ADD DUP2 SWAP1 MSTORE POP PUSH2 0x57D DUP8 PUSH2 0x88F JUMP JUMPDEST DUP2 PUSH1 0x1 DUP2 MLOAD DUP2 LT PUSH2 0x591 JUMPI PUSH2 0x590 PUSH2 0x12A3 JUMP JUMPDEST JUMPDEST PUSH1 0x20 MUL PUSH1 0x20 ADD ADD DUP2 SWAP1 MSTORE POP PUSH2 0x5A5 DUP7 PUSH2 0x88F JUMP JUMPDEST DUP2 PUSH1 0x2 DUP2 MLOAD DUP2 LT PUSH2 0x5B9 JUMPI PUSH2 0x5B8 PUSH2 0x12A3 JUMP JUMPDEST JUMPDEST PUSH1 0x20 MUL PUSH1 0x20 ADD ADD DUP2 SWAP1 MSTORE POP PUSH2 0x5CD DUP6 PUSH2 0x8A9 JUMP JUMPDEST DUP2 PUSH1 0x3 DUP2 MLOAD DUP2 LT PUSH2 0x5E1 JUMPI PUSH2 0x5E0 PUSH2 0x12A3 JUMP JUMPDEST JUMPDEST PUSH1 0x20 MUL PUSH1 0x20 ADD ADD DUP2 SWAP1 MSTORE POP PUSH2 0x5F5 DUP5 PUSH2 0x88F JUMP JUMPDEST DUP2 PUSH1 0x4 DUP2 MLOAD DUP2 LT PUSH2 0x609 JUMPI PUSH2 0x608 PUSH2 0x12A3 JUMP JUMPDEST JUMPDEST PUSH1 0x20 MUL PUSH1 0x20 ADD ADD DUP2 SWAP1 MSTORE POP DUP3 DUP2 PUSH1 0x5 DUP2 MLOAD DUP2 LT PUSH2 0x629 JUMPI PUSH2 0x628 PUSH2 0x12A3 JUMP JUMPDEST JUMPDEST PUSH1 0x20 MUL PUSH1 0x20 ADD ADD DUP2 SWAP1 MSTORE POP PUSH2 0x63D DUP2 PUSH2 0x8DA JUMP JUMPDEST SWAP2 POP POP SWAP7 SWAP6 POP POP POP POP POP POP JUMP JUMPDEST PUSH1 0x60 DUP1 PUSH1 0x38 DUP5 LT ISZERO PUSH2 0x6FB JUMPI PUSH1 0x1 PUSH8 0xFFFFFFFFFFFFFFFF DUP2 GT ISZERO PUSH2 0x671 JUMPI PUSH2 0x670 PUSH2 0xD33 JUMP JUMPDEST JUMPDEST PUSH1 0x40 MLOAD SWAP1 DUP1 DUP3 MSTORE DUP1 PUSH1 0x1F ADD PUSH1 0x1F NOT AND PUSH1 0x20 ADD DUP3 ADD PUSH1 0x40 MSTORE DUP1 ISZERO PUSH2 0x6A3 JUMPI DUP2 PUSH1 0x20 ADD PUSH1 0x1 DUP3 MUL DUP1 CALLDATASIZE DUP4 CALLDATACOPY DUP1 DUP3 ADD SWAP2 POP POP SWAP1 POP JUMPDEST POP SWAP1 POP DUP3 DUP5 PUSH2 0x6B2 SWAP2 SWAP1 PUSH2 0x1339 JUMP JUMPDEST PUSH1 0xF8 SHL DUP2 PUSH0 DUP2 MLOAD DUP2 LT PUSH2 0x6C8 JUMPI PUSH2 0x6C7 PUSH2 0x12A3 JUMP JUMPDEST JUMPDEST PUSH1 0x20 ADD ADD SWAP1 PUSH31 0xFFFFFFFFFFFFFFFFFFFFFFFFFFFFFFFFFFFFFFFFFFFFFFFFFFFFFFFFFFFFFF NOT AND SWAP1 DUP2 PUSH0 BYTE SWAP1 MSTORE8 POP PUSH2 0x885 JUMP JUMPDEST PUSH0 DUP1 PUSH1 0x1 SWAP1 POP JUMPDEST PUSH0 DUP2 DUP8 PUSH2 0x70F SWAP2 SWAP1 PUSH2 0x139A JUMP JUMPDEST EQ PUSH2 0x737 JUMPI DUP2 DUP1 PUSH2 0x71F SWAP1 PUSH2 0x125C JUMP JUMPDEST SWAP3 POP POP PUSH2 0x100 DUP2 PUSH2 0x730 SWAP2 SWAP1 PUSH2 0x13CA JUMP JUMPDEST SWAP1 POP PUSH2 0x702 JUMP JUMPDEST PUSH1 0x1 DUP3 PUSH2 0x744 SWAP2 SWAP1 PUSH2 0x140B JUMP JUMPDEST PUSH8 0xFFFFFFFFFFFFFFFF DUP2 GT ISZERO PUSH2 0x75D JUMPI PUSH2 0x75C PUSH2 0xD33 JUMP JUMPDEST JUMPDEST PUSH1 0x40 MLOAD SWAP1 DUP1 DUP3 MSTORE DUP1 PUSH1 0x1F ADD PUSH1 0x1F NOT AND PUSH1 0x20 ADD DUP3 ADD PUSH1 0x40 MSTORE DUP1 ISZERO PUSH2 0x78F JUMPI DUP2 PUSH1 0x20 ADD PUSH1 0x1 DUP3 MUL DUP1 CALLDATASIZE DUP4 CALLDATACOPY DUP1 DUP3 ADD SWAP2 POP POP SWAP1 POP JUMPDEST POP SWAP3 POP PUSH1 0x37 DUP6 DUP4 PUSH2 0x7A0 SWAP2 SWAP1 PUSH2 0x1339 JUMP JUMPDEST PUSH2 0x7AA SWAP2 SWAP1 PUSH2 0x1339 JUMP JUMPDEST PUSH1 0xF8 SHL DUP4 PUSH0 DUP2 MLOAD DUP2 LT PUSH2 0x7C0 JUMPI PUSH2 0x7BF PUSH2 0x12A3 JUMP JUMPDEST JUMPDEST PUSH1 0x20 ADD ADD SWAP1 PUSH31 0xFFFFFFFFFFFFFFFFFFFFFFFFFFFFFFFFFFFFFFFFFFFFFFFFFFFFFFFFFFFFFF NOT AND SWAP1 DUP2 PUSH0 BYTE SWAP1 MSTORE8 POP PUSH1 0x1 SWAP1 POP JUMPDEST DUP2 DUP2 GT PUSH2 0x882 JUMPI PUSH2 0x100 DUP2 DUP4 PUSH2 0x809 SWAP2 SWAP1 PUSH2 0x143E JUMP JUMPDEST PUSH2 0x100 PUSH2 0x816 SWAP2 SWAP1 PUSH2 0x15A0 JUMP JUMPDEST DUP8 PUSH2 0x821 SWAP2 SWAP1 PUSH2 0x139A JUMP JUMPDEST PUSH2 0x82B SWAP2 SWAP1 PUSH2 0x15EA JUMP JUMPDEST PUSH1 0xF8 SHL DUP4 DUP3 DUP2 MLOAD DUP2 LT PUSH2 0x841 JUMPI PUSH2 0x840 PUSH2 0x12A3 JUMP JUMPDEST JUMPDEST PUSH1 0x20 ADD ADD SWAP1 PUSH31 0xFFFFFFFFFFFFFFFFFFFFFFFFFFFFFFFFFFFFFFFFFFFFFFFFFFFFFFFFFFFFFF NOT AND SWAP1 DUP2 PUSH0 BYTE SWAP1 MSTORE8 POP DUP1 DUP1 PUSH2 0x87A SWAP1 PUSH2 0x125C JUMP JUMPDEST SWAP2 POP POP PUSH2 0x7F3 JUMP JUMPDEST POP POP JUMPDEST DUP1 SWAP2 POP POP SWAP3 SWAP2 POP POP JUMP JUMPDEST PUSH1 0x60 PUSH2 0x8A2 PUSH2 0x89D DUP4 PUSH2 0x91D JUMP JUMPDEST PUSH2 0x47C JUMP JUMPDEST SWAP1 POP SWAP2 SWAP1 POP JUMP JUMPDEST PUSH1 0x60 PUSH2 0x8D3 DUP3 PUSH1 0x40 MLOAD PUSH1 0x20 ADD PUSH2 0x8BF SWAP2 SWAP1 PUSH2 0x165F JUMP JUMPDEST PUSH1 0x40 MLOAD PUSH1 0x20 DUP2 DUP4 SUB SUB DUP2 MSTORE SWAP1 PUSH1 0x40 MSTORE PUSH2 0x47C JUMP JUMPDEST SWAP1 POP SWAP2 SWAP1 POP JUMP JUMPDEST PUSH1 0x60 PUSH0 PUSH2 0x8E6 DUP4 PUSH2 0xA8E JUMP JUMPDEST SWAP1 POP PUSH2 0x8F4 DUP2 MLOAD PUSH1 0xC0 PUSH2 0x64A JUMP JUMPDEST DUP2 PUSH1 0x40 MLOAD PUSH1 0x20 ADD PUSH2 0x906 SWAP3 SWAP2 SWAP1 PUSH2 0x130A JUMP JUMPDEST PUSH1 0x40 MLOAD PUSH1 0x20 DUP2 DUP4 SUB SUB DUP2 MSTORE SWAP1 PUSH1 0x40 MSTORE SWAP2 POP POP SWAP2 SWAP1 POP JUMP JUMPDEST PUSH1 0x60 PUSH0 DUP3 PUSH1 0x40 MLOAD PUSH1 0x20 ADD PUSH2 0x931 SWAP2 SWAP1 PUSH2 0x1699 JUMP JUMPDEST PUSH1 0x40 MLOAD PUSH1 0x20 DUP2 DUP4 SUB SUB DUP2 MSTORE SWAP1 PUSH1 0x40 MSTORE SWAP1 POP PUSH0 JUMPDEST PUSH1 0x20 DUP2 LT ISZERO PUSH2 0x9A3 JUMPI PUSH0 PUSH1 0xF8 SHL DUP3 DUP3 DUP2 MLOAD DUP2 LT PUSH2 0x964 JUMPI PUSH2 0x963 PUSH2 0x12A3 JUMP JUMPDEST JUMPDEST PUSH1 0x20 ADD ADD MLOAD PUSH1 0xF8 SHR PUSH1 0xF8 SHL PUSH31 0xFFFFFFFFFFFFFFFFFFFFFFFFFFFFFFFFFFFFFFFFFFFFFFFFFFFFFFFFFFFFFF NOT AND SUB PUSH2 0x9A3 JUMPI DUP1 DUP1 PUSH1 0x1 ADD SWAP2 POP POP PUSH2 0x944 JUMP JUMPDEST PUSH0 DUP2 PUSH1 0x20 PUSH2 0x9B1 SWAP2 SWAP1 PUSH2 0x143E JUMP JUMPDEST PUSH8 0xFFFFFFFFFFFFFFFF DUP2 GT ISZERO PUSH2 0x9CA JUMPI PUSH2 0x9C9 PUSH2 0xD33 JUMP JUMPDEST JUMPDEST PUSH1 0x40 MLOAD SWAP1 DUP1 DUP3 MSTORE DUP1 PUSH1 0x1F ADD PUSH1 0x1F NOT AND PUSH1 0x20 ADD DUP3 ADD PUSH1 0x40 MSTORE DUP1 ISZERO PUSH2 0x9FC JUMPI DUP2 PUSH1 0x20 ADD PUSH1 0x1 DUP3 MUL DUP1 CALLDATASIZE DUP4 CALLDATACOPY DUP1 DUP3 ADD SWAP2 POP POP SWAP1 POP JUMPDEST POP SWAP1 POP PUSH0 JUMPDEST DUP2 MLOAD DUP2 LT ISZERO PUSH2 0xA82 JUMPI DUP4 DUP4 DUP1 PUSH2 0xA16 SWAP1 PUSH2 0x125C JUMP JUMPDEST SWAP5 POP DUP2 MLOAD DUP2 LT PUSH2 0xA29 JUMPI PUSH2 0xA28 PUSH2 0x12A3 JUMP JUMPDEST JUMPDEST PUSH1 0x20 ADD ADD MLOAD PUSH1 0xF8 SHR PUSH1 0xF8 SHL DUP3 DUP3 DUP2 MLOAD DUP2 LT PUSH2 0xA47 JUMPI PUSH2 0xA46 PUSH2 0x12A3 JUMP JUMPDEST JUMPDEST PUSH1 0x20 ADD ADD SWAP1 PUSH31 0xFFFFFFFFFFFFFFFFFFFFFFFFFFFFFFFFFFFFFFFFFFFFFFFFFFFFFFFFFFFFFF NOT AND SWAP1 DUP2 PUSH0 BYTE SWAP1 MSTORE8 POP DUP1 DUP1 PUSH1 0x1 ADD SWAP2 POP POP PUSH2 0xA01 JUMP JUMPDEST POP DUP1 SWAP4 POP POP POP POP SWAP2 SWAP1 POP JUMP JUMPDEST PUSH1 0x60 PUSH0 DUP3 MLOAD SUB PUSH2 0xAEC JUMPI PUSH0 PUSH8 0xFFFFFFFFFFFFFFFF DUP2 GT ISZERO PUSH2 0xAB2 JUMPI PUSH2 0xAB1 PUSH2 0xD33 JUMP JUMPDEST JUMPDEST PUSH1 0x40 MLOAD SWAP1 DUP1 DUP3 MSTORE DUP1 PUSH1 0x1F ADD PUSH1 0x1F NOT AND PUSH1 0x20 ADD DUP3 ADD PUSH1 0x40 MSTORE DUP1 ISZERO PUSH2 0xAE4 JUMPI DUP2 PUSH1 0x20 ADD PUSH1 0x1 DUP3 MUL DUP1 CALLDATASIZE DUP4 CALLDATACOPY DUP1 DUP3 ADD SWAP2 POP POP SWAP1 POP JUMPDEST POP SWAP1 POP PUSH2 0xC06 JUMP JUMPDEST PUSH0 DUP1 PUSH0 SWAP1 POP JUMPDEST DUP4 MLOAD DUP2 LT ISZERO PUSH2 0xB31 JUMPI DUP4 DUP2 DUP2 MLOAD DUP2 LT PUSH2 0xB0E JUMPI PUSH2 0xB0D PUSH2 0x12A3 JUMP JUMPDEST JUMPDEST PUSH1 0x20 MUL PUSH1 0x20 ADD ADD MLOAD MLOAD DUP3 PUSH2 0xB22 SWAP2 SWAP1 PUSH2 0x140B JUMP JUMPDEST SWAP2 POP DUP1 DUP1 PUSH1 0x1 ADD SWAP2 POP POP PUSH2 0xAF2 JUMP JUMPDEST PUSH0 DUP3 PUSH8 0xFFFFFFFFFFFFFFFF DUP2 GT ISZERO PUSH2 0xB4C JUMPI PUSH2 0xB4B PUSH2 0xD33 JUMP JUMPDEST JUMPDEST PUSH1 0x40 MLOAD SWAP1 DUP1 DUP3 MSTORE DUP1 PUSH1 0x1F ADD PUSH1 0x1F NOT AND PUSH1 0x20 ADD DUP3 ADD PUSH1 0x40 MSTORE DUP1 ISZERO PUSH2 0xB7E JUMPI DUP2 PUSH1 0x20 ADD PUSH1 0x1 DUP3 MUL DUP1 CALLDATASIZE DUP4 CALLDATACOPY DUP1 DUP3 ADD SWAP2 POP POP SWAP1 POP JUMPDEST POP SWAP1 POP PUSH0 PUSH1 0x20 DUP3 ADD SWAP1 POP PUSH0 SWAP3 POP JUMPDEST DUP6 MLOAD DUP4 LT ISZERO PUSH2 0xBFE JUMPI PUSH0 DUP7 DUP5 DUP2 MLOAD DUP2 LT PUSH2 0xBA9 JUMPI PUSH2 0xBA8 PUSH2 0x12A3 JUMP JUMPDEST JUMPDEST PUSH1 0x20 MUL PUSH1 0x20 ADD ADD MLOAD SWAP1 POP PUSH0 PUSH1 0x20 DUP3 ADD SWAP1 POP PUSH2 0xBC6 DUP4 DUP3 DUP5 MLOAD PUSH2 0xC0B JUMP JUMPDEST DUP8 DUP6 DUP2 MLOAD DUP2 LT PUSH2 0xBD9 JUMPI PUSH2 0xBD8 PUSH2 0x12A3 JUMP JUMPDEST JUMPDEST PUSH1 0x20 MUL PUSH1 0x20 ADD ADD MLOAD MLOAD DUP4 PUSH2 0xBED SWAP2 SWAP1 PUSH2 0x140B JUMP JUMPDEST SWAP3 POP POP POP DUP3 DUP1 PUSH1 0x1 ADD SWAP4 POP POP PUSH2 0xB8C JUMP JUMPDEST DUP2 SWAP5 POP POP POP POP POP JUMPDEST SWAP2 SWAP1 POP JUMP JUMPDEST PUSH0 DUP4 SWAP1 POP PUSH0 DUP4 SWAP1 POP PUSH0 DUP4 SWAP1 POP JUMPDEST PUSH1 0x20 DUP2 LT PUSH2 0xC56 JUMPI DUP2 MLOAD DUP4 MSTORE PUSH1 0x20 DUP4 PUSH2 0xC31 SWAP2 SWAP1 PUSH2 0x140B JUMP JUMPDEST SWAP3 POP PUSH1 0x20 DUP3 PUSH2 0xC40 SWAP2 SWAP1 PUSH2 0x140B JUMP JUMPDEST SWAP2 POP PUSH1 0x20 DUP2 PUSH2 0xC4F SWAP2 SWAP1 PUSH2 0x143E JUMP JUMPDEST SWAP1 POP PUSH2 0xC18 JUMP JUMPDEST PUSH0 PUSH1 0x1 DUP3 PUSH1 0x20 SUB PUSH2 0x100 EXP SUB SWAP1 POP DUP1 NOT DUP4 MLOAD AND DUP2 DUP6 MLOAD AND DUP2 DUP2 OR DUP7 MSTORE POP POP POP POP POP POP POP POP POP JUMP JUMPDEST PUSH0 PUSH1 0x40 MLOAD SWAP1 POP SWAP1 JUMP JUMPDEST PUSH0 DUP1 REVERT JUMPDEST PUSH0 DUP1 REVERT JUMPDEST PUSH0 DUP2 SWAP1 POP SWAP2 SWAP1 POP JUMP JUMPDEST PUSH2 0xCA0 DUP2 PUSH2 0xC8E JUMP JUMPDEST DUP2 EQ PUSH2 0xCAA JUMPI PUSH0 DUP1 REVERT JUMPDEST POP JUMP JUMPDEST PUSH0 DUP2 CALLDATALOAD SWAP1 POP PUSH2 0xCBB DUP2 PUSH2 0xC97 JUMP JUMPDEST SWAP3 SWAP2 POP POP JUMP JUMPDEST PUSH0 PUSH20 0xFFFFFFFFFFFFFFFFFFFFFFFFFFFFFFFFFFFFFFFF DUP3 AND SWAP1 POP SWAP2 SWAP1 POP JUMP JUMPDEST PUSH0 PUSH2 0xCEA DUP3 PUSH2 0xCC1 JUMP JUMPDEST SWAP1 POP SWAP2 SWAP1 POP JUMP JUMPDEST PUSH2 0xCFA DUP2 PUSH2 0xCE0 JUMP JUMPDEST DUP2 EQ PUSH2 0xD04 JUMPI PUSH0 DUP1 REVERT JUMPDEST POP JUMP JUMPDEST PUSH0 DUP2 CALLDATALOAD SWAP1 POP PUSH2 0xD15 DUP2 PUSH2 0xCF1 JUMP JUMPDEST SWAP3 SWAP2 POP POP JUMP JUMPDEST PUSH0 DUP1 REVERT JUMPDEST PUSH0 DUP1 REVERT JUMPDEST PUSH0 PUSH1 0x1F NOT PUSH1 0x1F DUP4 ADD AND SWAP1 POP SWAP2 SWAP1 POP JUMP JUMPDEST PUSH32 0x4E487B7100000000000000000000000000000000000000000000000000000000 PUSH0 MSTORE PUSH1 0x41 PUSH1 0x4 MSTORE PUSH1 0x24 PUSH0 REVERT JUMPDEST PUSH2 0xD69 DUP3 PUSH2 0xD23 JUMP JUMPDEST DUP2 ADD DUP2 DUP2 LT PUSH8 0xFFFFFFFFFFFFFFFF DUP3 GT OR ISZERO PUSH2 0xD88 JUMPI PUSH2 0xD87 PUSH2 0xD33 JUMP JUMPDEST JUMPDEST DUP1 PUSH1 0x40 MSTORE POP POP POP JUMP JUMPDEST PUSH0 PUSH2 0xD9A PUSH2 0xC7D JUMP JUMPDEST SWAP1 POP PUSH2 0xDA6 DUP3 DUP3 PUSH2 0xD60 JUMP JUMPDEST SWAP2 SWAP1 POP JUMP JUMPDEST PUSH0 PUSH8 0xFFFFFFFFFFFFFFFF DUP3 GT ISZERO PUSH2 0xDC5 JUMPI PUSH2 0xDC4 PUSH2 0xD33 JUMP JUMPDEST JUMPDEST PUSH2 0xDCE DUP3 PUSH2 0xD23 JUMP JUMPDEST SWAP1 POP PUSH1 0x20 DUP2 ADD SWAP1 POP SWAP2 SWAP1 POP JUMP JUMPDEST DUP3 DUP2 DUP4 CALLDATACOPY PUSH0 DUP4 DUP4 ADD MSTORE POP POP POP JUMP JUMPDEST PUSH0 PUSH2 0xDFB PUSH2 0xDF6 DUP5 PUSH2 0xDAB JUMP JUMPDEST PUSH2 0xD91 JUMP JUMPDEST SWAP1 POP DUP3 DUP2 MSTORE PUSH1 0x20 DUP2 ADD DUP5 DUP5 DUP5 ADD GT ISZERO PUSH2 0xE17 JUMPI PUSH2 0xE16 PUSH2 0xD1F JUMP JUMPDEST JUMPDEST PUSH2 0xE22 DUP5 DUP3 DUP6 PUSH2 0xDDB JUMP JUMPDEST POP SWAP4 SWAP3 POP POP POP JUMP JUMPDEST PUSH0 DUP3 PUSH1 0x1F DUP4 ADD SLT PUSH2 0xE3E JUMPI PUSH2 0xE3D PUSH2 0xD1B JUMP JUMPDEST JUMPDEST DUP2 CALLDATALOAD PUSH2 0xE4E DUP5 DUP3 PUSH1 0x20 DUP7 ADD PUSH2 0xDE9 JUMP JUMPDEST SWAP2 POP POP SWAP3 SWAP2 POP POP JUMP JUMPDEST PUSH0 DUP1 PUSH0 DUP1 PUSH0 DUP1 PUSH0 PUSH1 0xE0 DUP9 DUP11 SUB SLT ISZERO PUSH2 0xE72 JUMPI PUSH2 0xE71 PUSH2 0xC86 JUMP JUMPDEST JUMPDEST PUSH0 PUSH2 0xE7F DUP11 DUP3 DUP12 ADD PUSH2 0xCAD JUMP JUMPDEST SWAP8 POP POP PUSH1 0x20 PUSH2 0xE90 DUP11 DUP3 DUP12 ADD PUSH2 0xD07 JUMP JUMPDEST SWAP7 POP POP PUSH1 0x40 PUSH2 0xEA1 DUP11 DUP3 DUP12 ADD PUSH2 0xCAD JUMP JUMPDEST SWAP6 POP POP PUSH1 0x60 PUSH2 0xEB2 DUP11 DUP3 DUP12 ADD PUSH2 0xCAD JUMP JUMPDEST SWAP5 POP POP PUSH1 0x80 PUSH2 0xEC3 DUP11 DUP3 DUP12 ADD PUSH2 0xCAD JUMP JUMPDEST SWAP4 POP POP PUSH1 0xA0 PUSH2 0xED4 DUP11 DUP3 DUP12 ADD PUSH2 0xCAD JUMP JUMPDEST SWAP3 POP POP PUSH1 0xC0 DUP9 ADD CALLDATALOAD PUSH8 0xFFFFFFFFFFFFFFFF DUP2 GT ISZERO PUSH2 0xEF5 JUMPI PUSH2 0xEF4 PUSH2 0xC8A JUMP JUMPDEST JUMPDEST PUSH2 0xF01 DUP11 DUP3 DUP12 ADD PUSH2 0xE2A JUMP JUMPDEST SWAP2 POP POP SWAP3 SWAP6 SWAP9 SWAP2 SWAP5 SWAP8 POP SWAP3 SWAP6 POP JUMP JUMPDEST PUSH0 DUP2 ISZERO ISZERO SWAP1 POP SWAP2 SWAP1 POP JUMP JUMPDEST PUSH2 0xF24 DUP2 PUSH2 0xF10 JUMP JUMPDEST DUP2 EQ PUSH2 0xF2E JUMPI PUSH0 DUP1 REVERT JUMPDEST POP JUMP JUMPDEST PUSH0 DUP2 CALLDATALOAD SWAP1 POP PUSH2 0xF3F DUP2 PUSH2 0xF1B JUMP JUMPDEST SWAP3 SWAP2 POP POP JUMP JUMPDEST PUSH0 DUP1 PUSH0 DUP1 PUSH0 DUP1 PUSH0 DUP1 PUSH2 0x100 DUP10 DUP12 SUB SLT ISZERO PUSH2 0xF62 JUMPI PUSH2 0xF61 PUSH2 0xC86 JUMP JUMPDEST JUMPDEST PUSH0 PUSH2 0xF6F DUP12 DUP3 DUP13 ADD PUSH2 0xCAD JUMP JUMPDEST SWAP9 POP POP PUSH1 0x20 PUSH2 0xF80 DUP12 DUP3 DUP13 ADD PUSH2 0xD07 JUMP JUMPDEST SWAP8 POP POP PUSH1 0x40 PUSH2 0xF91 DUP12 DUP3 DUP13 ADD PUSH2 0xCAD JUMP JUMPDEST SWAP7 POP POP PUSH1 0x60 PUSH2 0xFA2 DUP12 DUP3 DUP13 ADD PUSH2 0xCAD JUMP JUMPDEST SWAP6 POP POP PUSH1 0x80 PUSH2 0xFB3 DUP12 DUP3 DUP13 ADD PUSH2 0xCAD JUMP JUMPDEST SWAP5 POP POP PUSH1 0xA0 PUSH2 0xFC4 DUP12 DUP3 DUP13 ADD PUSH2 0xCAD JUMP JUMPDEST SWAP4 POP POP PUSH1 0xC0 DUP10 ADD CALLDATALOAD PUSH8 0xFFFFFFFFFFFFFFFF DUP2 GT ISZERO PUSH2 0xFE5 JUMPI PUSH2 0xFE4 PUSH2 0xC8A JUMP JUMPDEST JUMPDEST PUSH2 0xFF1 DUP12 DUP3 DUP13 ADD PUSH2 0xE2A JUMP JUMPDEST SWAP3 POP POP PUSH1 0xE0 PUSH2 0x1002 DUP12 DUP3 DUP13 ADD PUSH2 0xF31 JUMP JUMPDEST SWAP2 POP POP SWAP3 SWAP6 SWAP9 POP SWAP3 SWAP6 SWAP9 SWAP1 SWAP4 SWAP7 POP JUMP JUMPDEST PUSH0 DUP2 SWAP1 POP SWAP2 SWAP1 POP JUMP JUMPDEST PUSH0 PUSH2 0x1035 PUSH2 0x1030 PUSH2 0x102B DUP5 PUSH2 0xCC1 JUMP JUMPDEST PUSH2 0x1012 JUMP JUMPDEST PUSH2 0xCC1 JUMP JUMPDEST SWAP1 POP SWAP2 SWAP1 POP JUMP JUMPDEST PUSH0 PUSH2 0x1046 DUP3 PUSH2 0x101B JUMP JUMPDEST SWAP1 POP SWAP2 SWAP1 POP JUMP JUMPDEST PUSH0 PUSH2 0x1057 DUP3 PUSH2 0x103C JUMP JUMPDEST SWAP1 POP SWAP2 SWAP1 POP JUMP JUMPDEST PUSH2 0x1067 DUP2 PUSH2 0x104D JUMP JUMPDEST DUP3 MSTORE POP POP JUMP JUMPDEST PUSH0 PUSH1 0x20 DUP3 ADD SWAP1 POP PUSH2 0x1080 PUSH0 DUP4 ADD DUP5 PUSH2 0x105E JUMP JUMPDEST SWAP3 SWAP2 POP POP JUMP JUMPDEST PUSH0 DUP1 PUSH0 DUP1 PUSH1 0x80 DUP6 DUP8 SUB SLT ISZERO PUSH2 0x109E JUMPI PUSH2 0x109D PUSH2 0xC86 JUMP JUMPDEST JUMPDEST PUSH0 PUSH2 0x10AB DUP8 DUP3 DUP9 ADD PUSH2 0xCAD JUMP JUMPDEST SWAP5 POP POP PUSH1 0x20 PUSH2 0x10BC DUP8 DUP3 DUP9 ADD PUSH2 0xD07 JUMP JUMPDEST SWAP4 POP POP PUSH1 0x40 PUSH2 0x10CD DUP8 DUP3 DUP9 ADD PUSH2 0xCAD JUMP JUMPDEST SWAP3 POP POP PUSH1 0x60 DUP6 ADD CALLDATALOAD PUSH8 0xFFFFFFFFFFFFFFFF DUP2 GT ISZERO PUSH2 0x10EE JUMPI PUSH2 0x10ED PUSH2 0xC8A JUMP JUMPDEST JUMPDEST PUSH2 0x10FA DUP8 DUP3 DUP9 ADD PUSH2 0xE2A JUMP JUMPDEST SWAP2 POP POP SWAP3 SWAP6 SWAP2 SWAP5 POP SWAP3 POP JUMP JUMPDEST PUSH0 DUP2 SWAP1 POP SWAP2 SWAP1 POP JUMP JUMPDEST PUSH2 0x1118 DUP2 PUSH2 0x1106 JUMP JUMPDEST DUP3 MSTORE POP POP JUMP JUMPDEST PUSH2 0x1127 DUP2 PUSH2 0xC8E JUMP JUMPDEST DUP3 MSTORE POP POP JUMP JUMPDEST PUSH0 DUP2 MLOAD SWAP1 POP SWAP2 SWAP1 POP JUMP JUMPDEST PUSH0 DUP3 DUP3 MSTORE PUSH1 0x20 DUP3 ADD SWAP1 POP SWAP3 SWAP2 POP POP JUMP JUMPDEST DUP3 DUP2 DUP4 MCOPY PUSH0 DUP4 DUP4 ADD MSTORE POP POP POP JUMP JUMPDEST PUSH0 PUSH2 0x115F DUP3 PUSH2 0x112D JUMP JUMPDEST PUSH2 0x1169 DUP2 DUP6 PUSH2 0x1137 JUMP JUMPDEST SWAP4 POP PUSH2 0x1179 DUP2 DUP6 PUSH1 0x20 DUP7 ADD PUSH2 0x1147 JUMP JUMPDEST PUSH2 0x1182 DUP2 PUSH2 0xD23 JUMP JUMPDEST DUP5 ADD SWAP2 POP POP SWAP3 SWAP2 POP POP JUMP JUMPDEST PUSH2 0x1196 DUP2 PUSH2 0xF10 JUMP JUMPDEST DUP3 MSTORE POP POP JUMP JUMPDEST PUSH0 PUSH1 0xA0 DUP4 ADD PUSH0 DUP4 ADD MLOAD PUSH2 0x11B1 PUSH0 DUP7 ADD DUP3 PUSH2 0x110F JUMP JUMPDEST POP PUSH1 0x20 DUP4 ADD MLOAD PUSH2 0x11C4 PUSH1 0x20 DUP7 ADD DUP3 PUSH2 0x111E JUMP JUMPDEST POP PUSH1 0x40 DUP4 ADD MLOAD PUSH2 0x11D7 PUSH1 0x40 DUP7 ADD DUP3 PUSH2 0x110F JUMP JUMPDEST POP PUSH1 0x60 DUP4 ADD MLOAD DUP5 DUP3 SUB PUSH1 0x60 DUP7 ADD MSTORE PUSH2 0x11EF DUP3 DUP3 PUSH2 0x1155 JUMP JUMPDEST SWAP2 POP POP PUSH1 0x80 DUP4 ADD MLOAD PUSH2 0x1204 PUSH1 0x80 DUP7 ADD DUP3 PUSH2 0x118D JUMP JUMPDEST POP DUP1 SWAP2 POP POP SWAP3 SWAP2 POP POP JUMP JUMPDEST PUSH0 PUSH1 0x20 DUP3 ADD SWAP1 POP DUP2 DUP2 SUB PUSH0 DUP4 ADD MSTORE PUSH2 0x1227 DUP2 DUP5 PUSH2 0x119C JUMP JUMPDEST SWAP1 POP SWAP3 SWAP2 POP POP JUMP JUMPDEST PUSH32 0x4E487B7100000000000000000000000000000000000000000000000000000000 PUSH0 MSTORE PUSH1 0x11 PUSH1 0x4 MSTORE PUSH1 0x24 PUSH0 REVERT JUMPDEST PUSH0 PUSH2 0x1266 DUP3 PUSH2 0xC8E JUMP JUMPDEST SWAP2 POP PUSH32 0xFFFFFFFFFFFFFFFFFFFFFFFFFFFFFFFFFFFFFFFFFFFFFFFFFFFFFFFFFFFFFFFF DUP3 SUB PUSH2 0x1298 JUMPI PUSH2 0x1297 PUSH2 0x122F JUMP JUMPDEST JUMPDEST PUSH1 0x1 DUP3 ADD SWAP1 POP SWAP2 SWAP1 POP JUMP JUMPDEST PUSH32 0x4E487B7100000000000000000000000000000000000000000000000000000000 PUSH0 MSTORE PUSH1 0x32 PUSH1 0x4 MSTORE PUSH1 0x24 PUSH0 REVERT JUMPDEST PUSH0 DUP2 SWAP1 POP SWAP3 SWAP2 POP POP JUMP JUMPDEST PUSH0 PUSH2 0x12E4 DUP3 PUSH2 0x112D JUMP JUMPDEST PUSH2 0x12EE DUP2 DUP6 PUSH2 0x12D0 JUMP JUMPDEST SWAP4 POP PUSH2 0x12FE DUP2 DUP6 PUSH1 0x20 DUP7 ADD PUSH2 0x1147 JUMP JUMPDEST DUP1 DUP5 ADD SWAP2 POP POP SWAP3 SWAP2 POP POP JUMP JUMPDEST PUSH0 PUSH2 0x1315 DUP3 DUP6 PUSH2 0x12DA JUMP JUMPDEST SWAP2 POP PUSH2 0x1321 DUP3 DUP5 PUSH2 0x12DA JUMP JUMPDEST SWAP2 POP DUP2 SWAP1 POP SWAP4 SWAP3 POP POP POP JUMP JUMPDEST PUSH0 PUSH1 0xFF DUP3 AND SWAP1 POP SWAP2 SWAP1 POP JUMP JUMPDEST PUSH0 PUSH2 0x1343 DUP3 PUSH2 0x132D JUMP JUMPDEST SWAP2 POP PUSH2 0x134E DUP4 PUSH2 0x132D JUMP JUMPDEST SWAP3 POP DUP3 DUP3 ADD SWAP1 POP PUSH1 0xFF DUP2 GT ISZERO PUSH2 0x1367 JUMPI PUSH2 0x1366 PUSH2 0x122F JUMP JUMPDEST JUMPDEST SWAP3 SWAP2 POP POP JUMP JUMPDEST PUSH32 0x4E487B7100000000000000000000000000000000000000000000000000000000 PUSH0 MSTORE PUSH1 0x12 PUSH1 0x4 MSTORE PUSH1 0x24 PUSH0 REVERT JUMPDEST PUSH0 PUSH2 0x13A4 DUP3 PUSH2 0xC8E JUMP JUMPDEST SWAP2 POP PUSH2 0x13AF DUP4 PUSH2 0xC8E JUMP JUMPDEST SWAP3 POP DUP3 PUSH2 0x13BF JUMPI PUSH2 0x13BE PUSH2 0x136D JUMP JUMPDEST JUMPDEST DUP3 DUP3 DIV SWAP1 POP SWAP3 SWAP2 POP POP JUMP JUMPDEST PUSH0 PUSH2 0x13D4 DUP3 PUSH2 0xC8E JUMP JUMPDEST SWAP2 POP PUSH2 0x13DF DUP4 PUSH2 0xC8E JUMP JUMPDEST SWAP3 POP DUP3 DUP3 MUL PUSH2 0x13ED DUP2 PUSH2 0xC8E JUMP JUMPDEST SWAP2 POP DUP3 DUP3 DIV DUP5 EQ DUP4 ISZERO OR PUSH2 0x1404 JUMPI PUSH2 0x1403 PUSH2 0x122F JUMP JUMPDEST JUMPDEST POP SWAP3 SWAP2 POP POP JUMP JUMPDEST PUSH0 PUSH2 0x1415 DUP3 PUSH2 0xC8E JUMP JUMPDEST SWAP2 POP PUSH2 0x1420 DUP4 PUSH2 0xC8E JUMP JUMPDEST SWAP3 POP DUP3 DUP3 ADD SWAP1 POP DUP1 DUP3 GT ISZERO PUSH2 0x1438 JUMPI PUSH2 0x1437 PUSH2 0x122F JUMP JUMPDEST JUMPDEST SWAP3 SWAP2 POP POP JUMP JUMPDEST PUSH0 PUSH2 0x1448 DUP3 PUSH2 0xC8E JUMP JUMPDEST SWAP2 POP PUSH2 0x1453 DUP4 PUSH2 0xC8E JUMP JUMPDEST SWAP3 POP DUP3 DUP3 SUB SWAP1 POP DUP2 DUP2 GT ISZERO PUSH2 0x146B JUMPI PUSH2 0x146A PUSH2 0x122F JUMP JUMPDEST JUMPDEST SWAP3 SWAP2 POP POP JUMP JUMPDEST PUSH0 DUP2 PUSH1 0x1 SHR SWAP1 POP SWAP2 SWAP1 POP JUMP JUMPDEST PUSH0 DUP1 DUP3 SWAP2 POP DUP4 SWAP1 POP JUMPDEST PUSH1 0x1 DUP6 GT ISZERO PUSH2 0x14C6 JUMPI DUP1 DUP7 DIV DUP2 GT ISZERO PUSH2 0x14A2 JUMPI PUSH2 0x14A1 PUSH2 0x122F JUMP JUMPDEST JUMPDEST PUSH1 0x1 DUP6 AND ISZERO PUSH2 0x14B1 JUMPI DUP1 DUP3 MUL SWAP2 POP JUMPDEST DUP1 DUP2 MUL SWAP1 POP PUSH2 0x14BF DUP6 PUSH2 0x1471 JUMP JUMPDEST SWAP5 POP PUSH2 0x1486 JUMP JUMPDEST SWAP5 POP SWAP5 SWAP3 POP POP POP JUMP JUMPDEST PUSH0 DUP3 PUSH2 0x14DE JUMPI PUSH1 0x1 SWAP1 POP PUSH2 0x1599 JUMP JUMPDEST DUP2 PUSH2 0x14EB JUMPI PUSH0 SWAP1 POP PUSH2 0x1599 JUMP JUMPDEST DUP2 PUSH1 0x1 DUP2 EQ PUSH2 0x1501 JUMPI PUSH1 0x2 DUP2 EQ PUSH2 0x150B JUMPI PUSH2 0x153A JUMP JUMPDEST PUSH1 0x1 SWAP2 POP POP PUSH2 0x1599 JUMP JUMPDEST PUSH1 0xFF DUP5 GT ISZERO PUSH2 0x151D JUMPI PUSH2 0x151C PUSH2 0x122F JUMP JUMPDEST JUMPDEST DUP4 PUSH1 0x2 EXP SWAP2 POP DUP5 DUP3 GT ISZERO PUSH2 0x1534 JUMPI PUSH2 0x1533 PUSH2 0x122F JUMP JUMPDEST JUMPDEST POP PUSH2 0x1599 JUMP JUMPDEST POP PUSH1 0x20 DUP4 LT PUSH2 0x133 DUP4 LT AND PUSH1 0x4E DUP5 LT PUSH1 0xB DUP5 LT AND OR ISZERO PUSH2 0x156F JUMPI DUP3 DUP3 EXP SWAP1 POP DUP4 DUP2 GT ISZERO PUSH2 0x156A JUMPI PUSH2 0x1569 PUSH2 0x122F JUMP JUMPDEST JUMPDEST PUSH2 0x1599 JUMP JUMPDEST PUSH2 0x157C DUP5 DUP5 DUP5 PUSH1 0x1 PUSH2 0x147D JUMP JUMPDEST SWAP3 POP SWAP1 POP DUP2 DUP5 DIV DUP2 GT ISZERO PUSH2 0x1593 JUMPI PUSH2 0x1592 PUSH2 0x122F JUMP JUMPDEST JUMPDEST DUP2 DUP2 MUL SWAP1 POP JUMPDEST SWAP4 SWAP3 POP POP POP JUMP JUMPDEST PUSH0 PUSH2 0x15AA DUP3 PUSH2 0xC8E JUMP JUMPDEST SWAP2 POP PUSH2 0x15B5 DUP4 PUSH2 0xC8E JUMP JUMPDEST SWAP3 POP PUSH2 0x15E2 PUSH32 0xFFFFFFFFFFFFFFFFFFFFFFFFFFFFFFFFFFFFFFFFFFFFFFFFFFFFFFFFFFFFFFFF DUP5 DUP5 PUSH2 0x14CF JUMP JUMPDEST SWAP1 POP SWAP3 SWAP2 POP POP JUMP JUMPDEST PUSH0 PUSH2 0x15F4 DUP3 PUSH2 0xC8E JUMP JUMPDEST SWAP2 POP PUSH2 0x15FF DUP4 PUSH2 0xC8E JUMP JUMPDEST SWAP3 POP DUP3 PUSH2 0x160F JUMPI PUSH2 0x160E PUSH2 0x136D JUMP JUMPDEST JUMPDEST DUP3 DUP3 MOD SWAP1 POP SWAP3 SWAP2 POP POP JUMP JUMPDEST PUSH0 DUP2 PUSH1 0x60 SHL SWAP1 POP SWAP2 SWAP1 POP JUMP JUMPDEST PUSH0 PUSH2 0x1630 DUP3 PUSH2 0x161A JUMP JUMPDEST SWAP1 POP SWAP2 SWAP1 POP JUMP JUMPDEST PUSH0 PUSH2 0x1641 DUP3 PUSH2 0x1626 JUMP JUMPDEST SWAP1 POP SWAP2 SWAP1 POP JUMP JUMPDEST PUSH2 0x1659 PUSH2 0x1654 DUP3 PUSH2 0xCE0 JUMP JUMPDEST PUSH2 0x1637 JUMP JUMPDEST DUP3 MSTORE POP POP JUMP JUMPDEST PUSH0 PUSH2 0x166A DUP3 DUP5 PUSH2 0x1648 JUMP JUMPDEST PUSH1 0x14 DUP3 ADD SWAP2 POP DUP2 SWAP1 POP SWAP3 SWAP2 POP POP JUMP JUMPDEST PUSH0 DUP2 SWAP1 POP SWAP2 SWAP1 POP JUMP JUMPDEST PUSH2 0x1693 PUSH2 0x168E DUP3 PUSH2 0xC8E JUMP JUMPDEST PUSH2 0x1679 JUMP JUMPDEST DUP3 MSTORE POP POP JUMP JUMPDEST PUSH0 PUSH2 0x16A4 DUP3 DUP5 PUSH2 0x1682 JUMP JUMPDEST PUSH1 0x20 DUP3 ADD SWAP2 POP DUP2 SWAP1 POP SWAP3 SWAP2 POP POP JUMP INVALID LOG2 PUSH5 0x6970667358 0x22 SLT KECCAK256 0xC 0xF8 PUSH19 0x16B9D31024DA8D110106087451D60172E8AE24 0xE3 0xE6 PUSH26 0x79F94D4E46A70764736F6C634300081A00330000000000000000 "
				},
				"gasEstimates": {
					"creation": {
						"codeDepositCost": "1173000",
						"executionCost": "infinite",
						"totalCost": "infinite"
					},
					"external": {
						"submitTransaction(uint256,address,uint256,bytes)": "infinite",
						"submitTransaction(uint256,address,uint256,uint256,uint256,uint256,bytes)": "infinite",
						"submitTransaction(uint256,address,uint256,uint256,uint256,uint256,bytes,bool)": "infinite",
						"zrSignConnect()": "infinite"
					},
					"internal": {
						"rlpEncodeTransaction(uint256,uint256,uint256,address,uint256,bytes memory)": "infinite"
					}
				},
				"methodIdentifiers": {
					"submitTransaction(uint256,address,uint256,bytes)": "dbe637c6",
					"submitTransaction(uint256,address,uint256,uint256,uint256,uint256,bytes)": "681face9",
					"submitTransaction(uint256,address,uint256,uint256,uint256,uint256,bytes,bool)": "94e375dd",
					"zrSignConnect()": "b463206c"
				}
			},
			"storageLayout": {
				"storage": [
					{
						"astId": 7,
						"contract": "contracts/ZrSignTransfer.sol:ZrSignTransfer",
						"label": "zrSignConnect",
						"offset": 0,
						"slot": "0",
						"type": "t_contract(IZrSign)370"
					},
					{
						"astId": 9,
						"contract": "contracts/ZrSignTransfer.sol:ZrSignTransfer",
						"label": "_nonce",
						"offset": 0,
						"slot": "1",
						"type": "t_uint256"
					},
					{
						"astId": 11,
						"contract": "contracts/ZrSignTransfer.sol:ZrSignTransfer",
						"label": "_gasPrice",
						"offset": 0,
						"slot": "2",
						"type": "t_uint256"
					},
					{
						"astId": 13,
						"contract": "contracts/ZrSignTransfer.sol:ZrSignTransfer",
						"label": "_gasLimit",
						"offset": 0,
						"slot": "3",
						"type": "t_uint256"
					}
				],
				"types": {
					"t_contract(IZrSign)370": {
						"encoding": "inplace",
						"label": "contract IZrSign",
						"numberOfBytes": "20"
					},
					"t_uint256": {
						"encoding": "inplace",
						"label": "uint256",
						"numberOfBytes": "32"
					}
				}
			},
			"userdoc": {
				"kind": "user",
				"methods": {},
				"version": 1
			}
		}
	}
}