{
	"data": {
		"bytecode": {
			"linkReferences": {},
			"object": "608060405234801561000f575f80fd5b506040516117f53803806117f5833981810160405281019061003191906100d4565b805f806101000a81548173ffffffffffffffffffffffffffffffffffffffff021916908373ffffffffffffffffffffffffffffffffffffffff160217905550506100ff565b5f80fd5b5f73ffffffffffffffffffffffffffffffffffffffff82169050919050565b5f6100a38261007a565b9050919050565b6100b381610099565b81146100bd575f80fd5b50565b5f815190506100ce816100aa565b92915050565b5f602082840312156100e9576100e8610076565b5b5f6100f6848285016100c0565b91505092915050565b6116e98061010c5f395ff3fe608060405234801561000f575f80fd5b506004361061004a575f3560e01c8063681face91461004e57806394e375dd1461006a578063b463206c14610086578063dbe637c6146100a4575b5f80fd5b61006860048036038101906100639190610e57565b6100c0565b005b610084600480360381019061007f9190610f45565b6101f2565b005b61008e610324565b60405161009b919061106d565b60405180910390f35b6100be60048036038101906100b99190611086565b610347565b005b5f6100ca8261047c565b90505f6100db8487878b8b876104f9565b90505f6040518060a001604052807f45564d5f57414c4c45545f54595045000000000000000000000000000000000081526020018b81526020017f4d554d4241495f434841494e5f4944000000000000000000000000000000000081526020018381526020016001151581525090505f8054906101000a900473ffffffffffffffffffffffffffffffffffffffff1673ffffffffffffffffffffffffffffffffffffffff166393f874c4826040518263ffffffff1660e01b81526004016101a2919061120f565b5f604051808303815f87803b1580156101b9575f80fd5b505af11580156101cb573d5f803e3d5ffd5b5050505060015f8154809291906101e19061125c565b919050555050505050505050505050565b5f6101fc8361047c565b90505f61020d8588888c8c876104f9565b90505f6040518060a001604052807f45564d5f57414c4c45545f54595045000000000000000000000000000000000081526020018c81526020017f4d554d4241495f434841494e5f49440000000000000000000000000000000000815260200183815260200185151581525090505f8054906101000a900473ffffffffffffffffffffffffffffffffffffffff1673ffffffffffffffffffffffffffffffffffffffff166393f874c4826040518263ffffffff1660e01b81526004016102d3919061120f565b5f604051808303815f87803b1580156102ea575f80fd5b505af11580156102fc573d5f803e3d5ffd5b5050505060015f8154809291906103129061125c565b91905055505050505050505050505050565b5f8054906101000a900473ffffffffffffffffffffffffffffffffffffffff1681565b5f6103518261047c565b90505f6103686001546002546003548888876104f9565b90505f6040518060a001604052807f45564d5f57414c4c45545f54595045000000000000000000000000000000000081526020018881526020017f4d554d4241495f434841494e5f4944000000000000000000000000000000000081526020018381526020016001151581525090505f8054906101000a900473ffffffffffffffffffffffffffffffffffffffff1673ffffffffffffffffffffffffffffffffffffffff166393f874c4826040518263ffffffff1660e01b815260040161042f919061120f565b5f604051808303815f87803b158015610446575f80fd5b505af1158015610458573d5f803e3d5ffd5b5050505060015f81548092919061046e9061125c565b919050555050505050505050565b606080600183511480156104b357506080835f815181106104a05761049f6112a3565b5b602001015160f81c60f81b60f81c60ff16105b156104c0578290506104f0565b6104cc8351608061064a565b836040516020016104de92919061130a565b60405160208183030381529060405290505b80915050919050565b60605f600667ffffffffffffffff81111561051757610516610d33565b5b60405190808252806020026020018201604052801561054a57816020015b60608152602001906001900390816105355790505b5090506105568861088f565b815f81518110610569576105686112a3565b5b602002602001018190525061057d8761088f565b81600181518110610591576105906112a3565b5b60200260200101819052506105a58661088f565b816002815181106105b9576105b86112a3565b5b60200260200101819052506105cd856108a9565b816003815181106105e1576105e06112a3565b5b60200260200101819052506105f58461088f565b81600481518110610609576106086112a3565b5b60200260200101819052508281600581518110610629576106286112a3565b5b602002602001018190525061063d816108da565b9150509695505050505050565b60608060388410156106fb57600167ffffffffffffffff81111561067157610670610d33565b5b6040519080825280601f01601f1916602001820160405280156106a35781602001600182028036833780820191505090505b50905082846106b29190611339565b60f81b815f815181106106c8576106c76112a3565b5b60200101907effffffffffffffffffffffffffffffffffffffffffffffffffffffffffffff191690815f1a905350610885565b5f80600190505b5f818761070f919061139a565b1461073757818061071f9061125c565b9250506101008161073091906113ca565b9050610702565b600182610744919061140b565b67ffffffffffffffff81111561075d5761075c610d33565b5b6040519080825280601f01601f19166020018201604052801561078f5781602001600182028036833780820191505090505b509250603785836107a09190611339565b6107aa9190611339565b60f81b835f815181106107c0576107bf6112a3565b5b60200101907effffffffffffffffffffffffffffffffffffffffffffffffffffffffffffff191690815f1a905350600190505b818111610882576101008183610809919061143e565b61010061081691906115a0565b87610821919061139a565b61082b91906115ea565b60f81b838281518110610841576108406112a3565b5b60200101907effffffffffffffffffffffffffffffffffffffffffffffffffffffffffffff191690815f1a905350808061087a9061125c565b9150506107f3565b50505b8091505092915050565b60606108a261089d8361091d565b61047c565b9050919050565b60606108d3826040516020016108bf919061165f565b60405160208183030381529060405261047c565b9050919050565b60605f6108e683610a8e565b90506108f4815160c061064a565b8160405160200161090692919061130a565b604051602081830303815290604052915050919050565b60605f826040516020016109319190611699565b60405160208183030381529060405290505f5b60208110156109a3575f60f81b828281518110610964576109636112a3565b5b602001015160f81c60f81b7effffffffffffffffffffffffffffffffffffffffffffffffffffffffffffff1916036109a3578080600101915050610944565b5f8160206109b1919061143e565b67ffffffffffffffff8111156109ca576109c9610d33565b5b6040519080825280601f01601f1916602001820160405280156109fc5781602001600182028036833780820191505090505b5090505f5b8151811015610a8257838380610a169061125c565b945081518110610a2957610a286112a3565b5b602001015160f81c60f81b828281518110610a4757610a466112a3565b5b60200101907effffffffffffffffffffffffffffffffffffffffffffffffffffffffffffff191690815f1a9053508080600101915050610a01565b50809350505050919050565b60605f825103610aec575f67ffffffffffffffff811115610ab257610ab1610d33565b5b6040519080825280601f01601f191660200182016040528015610ae45781602001600182028036833780820191505090505b509050610c06565b5f805f90505b8351811015610b3157838181518110610b0e57610b0d6112a3565b5b60200260200101515182610b22919061140b565b91508080600101915050610af2565b5f8267ffffffffffffffff811115610b4c57610b4b610d33565b5b6040519080825280601f01601f191660200182016040528015610b7e5781602001600182028036833780820191505090505b5090505f6020820190505f92505b8551831015610bfe575f868481518110610ba957610ba86112a3565b5b602002602001015190505f602082019050610bc683828451610c0b565b878581518110610bd957610bd86112a3565b5b60200260200101515183610bed919061140b565b925050508280600101935050610b8c565b819450505050505b919050565b5f8390505f8390505f8390505b60208110610c565781518352602083610c31919061140b565b9250602082610c40919061140b565b9150602081610c4f919061143e565b9050610c18565b5f6001826020036101000a0390508019835116818551168181178652505050505050505050565b5f604051905090565b5f80fd5b5f80fd5b5f819050919050565b610ca081610c8e565b8114610caa575f80fd5b50565b5f81359050610cbb81610c97565b92915050565b5f73ffffffffffffffffffffffffffffffffffffffff82169050919050565b5f610cea82610cc1565b9050919050565b610cfa81610ce0565b8114610d04575f80fd5b50565b5f81359050610d1581610cf1565b92915050565b5f80fd5b5f80fd5b5f601f19601f8301169050919050565b7f4e487b71000000000000000000000000000000000000000000000000000000005f52604160045260245ffd5b610d6982610d23565b810181811067ffffffffffffffff82111715610d8857610d87610d33565b5b80604052505050565b5f610d9a610c7d565b9050610da68282610d60565b919050565b5f67ffffffffffffffff821115610dc557610dc4610d33565b5b610dce82610d23565b9050602081019050919050565b828183375f83830152505050565b5f610dfb610df684610dab565b610d91565b905082815260208101848484011115610e1757610e16610d1f565b5b610e22848285610ddb565b509392505050565b5f82601f830112610e3e57610e3d610d1b565b5b8135610e4e848260208601610de9565b91505092915050565b5f805f805f805f60e0888a031215610e7257610e71610c86565b5b5f610e7f8a828b01610cad565b9750506020610e908a828b01610d07565b9650506040610ea18a828b01610cad565b9550506060610eb28a828b01610cad565b9450506080610ec38a828b01610cad565b93505060a0610ed48a828b01610cad565b92505060c088013567ffffffffffffffff811115610ef557610ef4610c8a565b5b610f018a828b01610e2a565b91505092959891949750929550565b5f8115159050919050565b610f2481610f10565b8114610f2e575f80fd5b50565b5f81359050610f3f81610f1b565b92915050565b5f805f805f805f80610100898b031215610f6257610f61610c86565b5b5f610f6f8b828c01610cad565b9850506020610f808b828c01610d07565b9750506040610f918b828c01610cad565b9650506060610fa28b828c01610cad565b9550506080610fb38b828c01610cad565b94505060a0610fc48b828c01610cad565b93505060c089013567ffffffffffffffff811115610fe557610fe4610c8a565b5b610ff18b828c01610e2a565b92505060e06110028b828c01610f31565b9150509295985092959890939650565b5f819050919050565b5f61103561103061102b84610cc1565b611012565b610cc1565b9050919050565b5f6110468261101b565b9050919050565b5f6110578261103c565b9050919050565b6110678161104d565b82525050565b5f6020820190506110805f83018461105e565b92915050565b5f805f806080858703121561109e5761109d610c86565b5b5f6110ab87828801610cad565b94505060206110bc87828801610d07565b93505060406110cd87828801610cad565b925050606085013567ffffffffffffffff8111156110ee576110ed610c8a565b5b6110fa87828801610e2a565b91505092959194509250565b5f819050919050565b61111881611106565b82525050565b61112781610c8e565b82525050565b5f81519050919050565b5f82825260208201905092915050565b8281835e5f83830152505050565b5f61115f8261112d565b6111698185611137565b9350611179818560208601611147565b61118281610d23565b840191505092915050565b61119681610f10565b82525050565b5f60a083015f8301516111b15f86018261110f565b5060208301516111c4602086018261111e565b5060408301516111d7604086018261110f565b50606083015184820360608601526111ef8282611155565b9150506080830151611204608086018261118d565b508091505092915050565b5f6020820190508181035f830152611227818461119c565b905092915050565b7f4e487b71000000000000000000000000000000000000000000000000000000005f52601160045260245ffd5b5f61126682610c8e565b91507fffffffffffffffffffffffffffffffffffffffffffffffffffffffffffffffff82036112985761129761122f565b5b600182019050919050565b7f4e487b71000000000000000000000000000000000000000000000000000000005f52603260045260245ffd5b5f81905092915050565b5f6112e48261112d565b6112ee81856112d0565b93506112fe818560208601611147565b80840191505092915050565b5f61131582856112da565b915061132182846112da565b91508190509392505050565b5f60ff82169050919050565b5f6113438261132d565b915061134e8361132d565b9250828201905060ff8111156113675761136661122f565b5b92915050565b7f4e487b71000000000000000000000000000000000000000000000000000000005f52601260045260245ffd5b5f6113a482610c8e565b91506113af83610c8e565b9250826113bf576113be61136d565b5b828204905092915050565b5f6113d482610c8e565b91506113df83610c8e565b92508282026113ed81610c8e565b915082820484148315176114045761140361122f565b5b5092915050565b5f61141582610c8e565b915061142083610c8e565b92508282019050808211156114385761143761122f565b5b92915050565b5f61144882610c8e565b915061145383610c8e565b925082820390508181111561146b5761146a61122f565b5b92915050565b5f8160011c9050919050565b5f808291508390505b60018511156114c6578086048111156114a2576114a161122f565b5b60018516156114b15780820291505b80810290506114bf85611471565b9450611486565b94509492505050565b5f826114de5760019050611599565b816114eb575f9050611599565b8160018114611501576002811461150b5761153a565b6001915050611599565b60ff84111561151d5761151c61122f565b5b8360020a9150848211156115345761153361122f565b5b50611599565b5060208310610133831016604e8410600b841016171561156f5782820a90508381111561156a5761156961122f565b5b611599565b61157c848484600161147d565b925090508184048111156115935761159261122f565b5b81810290505b9392505050565b5f6115aa82610c8e565b91506115b583610c8e565b92506115e27fffffffffffffffffffffffffffffffffffffffffffffffffffffffffffffffff84846114cf565b905092915050565b5f6115f482610c8e565b91506115ff83610c8e565b92508261160f5761160e61136d565b5b828206905092915050565b5f8160601b9050919050565b5f6116308261161a565b9050919050565b5f61164182611626565b9050919050565b61165961165482610ce0565b611637565b82525050565b5f61166a8284611648565b60148201915081905092915050565b5f819050919050565b61169361168e82610c8e565b611679565b82525050565b5f6116a48284611682565b6020820191508190509291505056fea26469706673582212200cf87216b9d31024da8d110106087451d60172e8ae24e3e67979f94d4e46a70764736f6c634300081a0033",
			"opcodes": "PUSH1 0x80 PUSH1 0x40 MSTORE CALLVALUE DUP1 ISZERO PUSH2 0xF JUMPI PUSH0 DUP1 REVERT JUMPDEST POP PUSH1 0x40 MLOAD PUSH2 0x17F5 CODESIZE SUB DUP1 PUSH2 0x17F5 DUP4 CODECOPY DUP2 DUP2 ADD PUSH1 0x40 MSTORE DUP2 ADD SWAP1 PUSH2 0x31 SWAP2 SWAP1 PUSH2 0xD4 JUMP JUMPDEST DUP1 PUSH0 DUP1 PUSH2 0x100 EXP DUP2 SLOAD DUP2 PUSH20 0xFFFFFFFFFFFFFFFFFFFFFFFFFFFFFFFFFFFFFFFF MUL NOT AND SWAP1 DUP4 PUSH20 0xFFFFFFFFFFFFFFFFFFFFFFFFFFFFFFFFFFFFFFFF AND MUL OR SWAP1 SSTORE POP POP PUSH2 0xFF JUMP JUMPDEST PUSH0 DUP1 REVERT JUMPDEST PUSH0 PUSH20 0xFFFFFFFFFFFFFFFFFFFFFFFFFFFFFFFFFFFFFFFF DUP3 AND SWAP1 POP SWAP2 SWAP1 POP JUMP JUMPDEST PUSH0 PUSH2 0xA3 DUP3 PUSH2 0x7A JUMP JUMPDEST SWAP1 POP SWAP2 SWAP1 POP JUMP JUMPDEST PUSH2 0xB3 DUP2 PUSH2 0x99 JUMP JUMPDEST DUP2 EQ PUSH2 0xBD JUMPI PUSH0 DUP1 REVERT JUMPDEST POP JUMP JUMPDEST PUSH0 DUP2 MLOAD SWAP1 POP PUSH2 0xCE DUP2 PUSH2 0xAA JUMP JUMPDEST SWAP3 SWAP2 POP POP JUMP JUMPDEST PUSH0 PUSH1 0x20 DUP3 DUP5 SUB SLT ISZERO PUSH2 0xE9 JUMPI PUSH2 0xE8 PUSH2 0x76 JUMP JUMPDEST JUMPDEST PUSH0 PUSH2 0xF6 DUP5 DUP3 DUP6 ADD PUSH2 0xC0 JUMP JUMPDEST SWAP2 POP POP SWAP3 SWAP2 POP POP JUMP JUMPDEST PUSH2 0x16E9 DUP1 PUSH2 0x10C PUSH0 CODECOPY PUSH0 RETURN INVALID PUSH1 0x80 PUSH1 0x40 MSTORE CALLVALUE DUP1 ISZERO PUSH2 0xF JUMPI PUSH0 DUP1 REVERT JUMPDEST POP PUSH1 0x4 CALLDATASIZE LT PUSH2 0x4A JUMPI PUSH0 CALLDATALOAD PUSH1 0xE0 SHR DUP1 PUSH4 0x681FACE9 EQ PUSH2 0x4E JUMPI DUP1 PUSH4 0x94E375DD EQ PUSH2 0x6A JUMPI DUP1 PUSH4 0xB463206C EQ PUSH2 0x86 JUMPI DUP1 PUSH4 0xDBE637C6 EQ PUSH2 0xA4 JUMPI JUMPDEST PUSH0 DUP1 REVERT JUMPDEST PUSH2 0x68 PUSH1 0x4 DUP1 CALLDATASIZE SUB DUP2 ADD SWAP1 PUSH2 0x63 SWAP2 SWAP1 PUSH2 0xE57 JUMP JUMPDEST PUSH2 0xC0 JUMP JUMPDEST STOP JUMPDEST PUSH2 0x84 PUSH1 0x4 DUP1 CALLDATASIZE SUB DUP2 ADD SWAP1 PUSH2 0x7F SWAP2 SWAP1 PUSH2 0xF45 JUMP JUMPDEST PUSH2 0x1F2 JUMP JUMPDEST STOP JUMPDEST PUSH2 0x8E PUSH2 0x324 JUMP JUMPDEST PUSH1 0x40 MLOAD PUSH2 0x9B SWAP2 SWAP1 PUSH2 0x106D JUMP JUMPDEST PUSH1 0x40 MLOAD DUP1 SWAP2 SUB SWAP1 RETURN JUMPDEST PUSH2 0xBE PUSH1 0x4 DUP1 CALLDATASIZE SUB DUP2 ADD SWAP1 PUSH2 0xB9 SWAP2 SWAP1 PUSH2 0x1086 JUMP JUMPDEST PUSH2 0x347 JUMP JUMPDEST STOP JUMPDEST PUSH0 PUSH2 0xCA DUP3 PUSH2 0x47C JUMP JUMPDEST SWAP1 POP PUSH0 PUSH2 0xDB DUP5 DUP8 DUP8 DUP12 DUP12 DUP8 PUSH2 0x4F9 JUMP JUMPDEST SWAP1 POP PUSH0 PUSH1 0x40 MLOAD DUP1 PUSH1 0xA0 ADD PUSH1 0x40 MSTORE DUP1 PUSH32 0x45564D5F57414C4C45545F545950450000000000000000000000000000000000 DUP2 MSTORE PUSH1 0x20 ADD DUP12 DUP2 MSTORE PUSH1 0x20 ADD PUSH32 0x4D554D4241495F434841494E5F49440000000000000000000000000000000000 DUP2 MSTORE PUSH1 0x20 ADD DUP4 DUP2 MSTORE PUSH1 0x20 ADD PUSH1 0x1 ISZERO ISZERO DUP2 MSTORE POP SWAP1 POP PUSH0 DUP1 SLOAD SWAP1 PUSH2 0x100 EXP SWAP1 DIV PUSH20 0xFFFFFFFFFFFFFFFFFFFFFFFFFFFFFFFFFFFFFFFF AND PUSH20 0xFFFFFFFFFFFFFFFFFFFFFFFFFFFFFFFFFFFFFFFF AND PUSH4 0x93F874C4 DUP3 PUSH1 0x40 MLOAD DUP3 PUSH4 0xFFFFFFFF AND PUSH1 0xE0 SHL DUP2 MSTORE PUSH1 0x4 ADD PUSH2 0x1A2 SWAP2 SWAP1 PUSH2 0x120F JUMP JUMPDEST PUSH0 PUSH1 0x40 MLOAD DUP1 DUP4 SUB DUP2 PUSH0 DUP8 DUP1 EXTCODESIZE ISZERO DUP1 ISZERO PUSH2 0x1B9 JUMPI PUSH0 DUP1 REVERT JUMPDEST POP GAS CALL ISZERO DUP1 ISZERO PUSH2 0x1CB JUMPI RETURNDATASIZE PUSH0 DUP1 RETURNDATACOPY RETURNDATASIZE PUSH0 REVERT JUMPDEST POP POP POP POP PUSH1 0x1 PUSH0 DUP2 SLOAD DUP1 SWAP3 SWAP2 SWAP1 PUSH2 0x1E1 SWAP1 PUSH2 0x125C JUMP JUMPDEST SWAP2 SWAP1 POP SSTORE POP POP POP POP POP POP POP POP POP POP POP JUMP JUMPDEST PUSH0 PUSH2 0x1FC DUP4 PUSH2 0x47C JUMP JUMPDEST SWAP1 POP PUSH0 PUSH2 0x20D DUP6 DUP9 DUP9 DUP13 DUP13 DUP8 PUSH2 0x4F9 JUMP JUMPDEST SWAP1 POP PUSH0 PUSH1 0x40 MLOAD DUP1 PUSH1 0xA0 ADD PUSH1 0x40 MSTORE DUP1 PUSH32 0x45564D5F57414C4C45545F545950450000000000000000000000000000000000 DUP2 MSTORE PUSH1 0x20 ADD DUP13 DUP2 MSTORE PUSH1 0x20 ADD PUSH32 0x4D554D4241495F434841494E5F49440000000000000000000000000000000000 DUP2 MSTORE PUSH1 0x20 ADD DUP4 DUP2 MSTORE PUSH1 0x20 ADD DUP6 ISZERO ISZERO DUP2 MSTORE POP SWAP1 POP PUSH0 DUP1 SLOAD SWAP1 PUSH2 0x100 EXP SWAP1 DIV PUSH20 0xFFFFFFFFFFFFFFFFFFFFFFFFFFFFFFFFFFFFFFFF AND PUSH20 0xFFFFFFFFFFFFFFFFFFFFFFFFFFFFFFFFFFFFFFFF AND PUSH4 0x93F874C4 DUP3 PUSH1 0x40 MLOAD DUP3 PUSH4 0xFFFFFFFF AND PUSH1 0xE0 SHL DUP2 MSTORE PUSH1 0x4 ADD PUSH2 0x2D3 SWAP2 SWAP1 PUSH2 0x120F JUMP JUMPDEST PUSH0 PUSH1 0x40 MLOAD DUP1 DUP4 SUB DUP2 PUSH0 DUP8 DUP1 EXTCODESIZE ISZERO DUP1 ISZERO PUSH2 0x2EA JUMPI PUSH0 DUP1 REVERT JUMPDEST POP GAS CALL ISZERO DUP1 ISZERO PUSH2 0x2FC JUMPI RETURNDATASIZE PUSH0 DUP1 RETURNDATACOPY RETURNDATASIZE PUSH0 REVERT JUMPDEST POP POP POP POP PUSH1 0x1 PUSH0 DUP2 SLOAD DUP1 SWAP3 SWAP2 SWAP1 PUSH2 0x312 SWAP1 PUSH2 0x125C JUMP JUMPDEST SWAP2 SWAP1 POP SSTORE POP POP POP POP POP POP POP POP POP POP POP POP JUMP JUMPDEST PUSH0 DUP1 SLOAD SWAP1 PUSH2 0x100 EXP SWAP1 DIV PUSH20 0xFFFFFFFFFFFFFFFFFFFFFFFFFFFFFFFFFFFFFFFF AND DUP2 JUMP JUMPDEST PUSH0 PUSH2 0x351 DUP3 PUSH2 0x47C JUMP JUMPDEST SWAP1 POP PUSH0 PUSH2 0x368 PUSH1 0x1 SLOAD PUSH1 0x2 SLOAD PUSH1 0x3 SLOAD DUP9 DUP9 DUP8 PUSH2 0x4F9 JUMP JUMPDEST SWAP1 POP PUSH0 PUSH1 0x40 MLOAD DUP1 PUSH1 0xA0 ADD PUSH1 0x40 MSTORE DUP1 PUSH32 0x45564D5F57414C4C45545F545950450000000000000000000000000000000000 DUP2 MSTORE PUSH1 0x20 ADD DUP9 DUP2 MSTORE PUSH1 0x20 ADD PUSH32 0x4D554D4241495F434841494E5F49440000000000000000000000000000000000 DUP2 MSTORE PUSH1 0x20 ADD DUP4 DUP2 MSTORE PUSH1 0x20 ADD PUSH1 0x1 ISZERO ISZERO DUP2 MSTORE POP SWAP1 POP PUSH0 DUP1 SLOAD SWAP1 PUSH2 0x100 EXP SWAP1 DIV PUSH20 0xFFFFFFFFFFFFFFFFFFFFFFFFFFFFFFFFFFFFFFFF AND PUSH20 0xFFFFFFFFFFFFFFFFFFFFFFFFFFFFFFFFFFFFFFFF AND PUSH4 0x93F874C4 DUP3 PUSH1 0x40 MLOAD DUP3 PUSH4 0xFFFFFFFF AND PUSH1 0xE0 SHL DUP2 MSTORE PUSH1 0x4 ADD PUSH2 0x42F SWAP2 SWAP1 PUSH2 0x120F JUMP JUMPDEST PUSH0 PUSH1 0x40 MLOAD DUP1 DUP4 SUB DUP2 PUSH0 DUP8 DUP1 EXTCODESIZE ISZERO DUP1 ISZERO PUSH2 0x446 JUMPI PUSH0 DUP1 REVERT JUMPDEST POP GAS CALL ISZERO DUP1 ISZERO PUSH2 0x458 JUMPI RETURNDATASIZE PUSH0 DUP1 RETURNDATACOPY RETURNDATASIZE PUSH0 REVERT JUMPDEST POP POP POP POP PUSH1 0x1 PUSH0 DUP2 SLOAD DUP1 SWAP3 SWAP2 SWAP1 PUSH2 0x46E SWAP1 PUSH2 0x125C JUMP JUMPDEST SWAP2 SWAP1 POP SSTORE POP POP POP POP POP POP POP POP JUMP JUMPDEST PUSH1 0x60 DUP1 PUSH1 0x1 DUP4 MLOAD EQ DUP1 ISZERO PUSH2 0x4B3 JUMPI POP PUSH1 0x80 DUP4 PUSH0 DUP2 MLOAD DUP2 LT PUSH2 0x4A0 JUMPI PUSH2 0x49F PUSH2 0x12A3 JUMP JUMPDEST JUMPDEST PUSH1 0x20 ADD ADD MLOAD PUSH1 0xF8 SHR PUSH1 0xF8 SHL PUSH1 0xF8 SHR PUSH1 0xFF AND LT JUMPDEST ISZERO PUSH2 0x4C0 JUMPI DUP3 SWAP1 POP PUSH2 0x4F0 JUMP JUMPDEST PUSH2 0x4CC DUP4 MLOAD PUSH1 0x80 PUSH2 0x64A JUMP JUMPDEST DUP4 PUSH1 0x40 MLOAD PUSH1 0x20 ADD PUSH2 0x4DE SWAP3 SWAP2 SWAP1 PUSH2 0x130A JUMP JUMPDEST PUSH1 0x40 MLOAD PUSH1 0x20 DUP2 DUP4 SUB SUB DUP2 MSTORE SWAP1 PUSH1 0x40 MSTORE SWAP1 POP JUMPDEST DUP1 SWAP2 POP POP SWAP2 SWAP1 POP JUMP JUMPDEST PUSH1 0x60 PUSH0 PUSH1 0x6 PUSH8 0xFFFFFFFFFFFFFFFF DUP2 GT ISZERO PUSH2 0x517 JUMPI PUSH2 0x516 PUSH2 0xD33 JUMP JUMPDEST JUMPDEST PUSH1 0x40 MLOAD SWAP1 DUP1 DUP3 MSTORE DUP1 PUSH1 0x20 MUL PUSH1 0x20 ADD DUP3 ADD PUSH1 0x40 MSTORE DUP1 ISZERO PUSH2 0x54A JUMPI DUP2 PUSH1 0x20 ADD JUMPDEST PUSH1 0x60 DUP2 MSTORE PUSH1 0x20 ADD SWAP1 PUSH1 0x1 SWAP1 SUB SWAP1 DUP2 PUSH2 0x535 JUMPI SWAP1 POP JUMPDEST POP SWAP1 POP PUSH2 0x556 DUP9 PUSH2 0x88F JUMP JUMPDEST DUP2 PUSH0 DUP2 MLOAD DUP2 LT PUSH2 0x569 JUMPI PUSH2 0x568 PUSH2 0x12A3 JUMP JUMPDEST JUMPDEST PUSH1 0x20 MUL PUSH1 0x20 ADD ADD DUP2 SWAP1 MSTORE POP PUSH2 0x57D DUP8 PUSH2 0x88F JUMP JUMPDEST DUP2 PUSH1 0x1 DUP2 MLOAD DUP2 LT PUSH2 0x591 JUMPI PUSH2 0x590 PUSH2 0x12A3 JUMP JUMPDEST JUMPDEST PUSH1 0x20 MUL PUSH1 0x20 ADD ADD DUP2 SWAP1 MSTORE POP PUSH2 0x5A5 DUP7 PUSH2 0x88F JUMP JUMPDEST DUP2 PUSH1 0x2 DUP2 MLOAD DUP2 LT PUSH2 0x5B9 JUMPI PUSH2 0x5B8 PUSH2 0x12A3 JUMP JUMPDEST JUMPDEST PUSH1 0x20 MUL PUSH1 0x20 ADD ADD DUP2 SWAP1 MSTORE POP PUSH2 0x5CD DUP6 PUSH2 0x8A9 JUMP JUMPDEST DUP2 PUSH1 0x3 DUP2 MLOAD DUP2 LT PUSH2 0x5E1 JUMPI PUSH2 0x5E0 PUSH2 0x12A3 JUMP JUMPDEST JUMPDEST PUSH1 0x20 MUL PUSH1 0x20 ADD ADD DUP2 SWAP1 MSTORE POP PUSH2 0x5F5 DUP5 PUSH2 0x88F JUMP JUMPDEST DUP2 PUSH1 0x4 DUP2 MLOAD DUP2 LT PUSH2 0x609 JUMPI PUSH2 0x608 PUSH2 0x12A3 JUMP JUMPDEST JUMPDEST PUSH1 0x20 MUL PUSH1 0x20 ADD ADD DUP2 SWAP1 MSTORE POP DUP3 DUP2 PUSH1 0x5 DUP2 MLOAD DUP2 LT PUSH2 0x629 JUMPI PUSH2 0x628 PUSH2 0x12A3 JUMP JUMPDEST JUMPDEST PUSH1 0x20 MUL PUSH1 0x20 ADD ADD DUP2 SWAP1 MSTORE POP PUSH2 0x63D DUP2 PUSH2 0x8DA JUMP JUMPDEST SWAP2 POP POP SWAP7 SWAP6 POP POP POP POP POP POP JUMP JUMPDEST PUSH1 0x60 DUP1 PUSH1 0x38 DUP5 LT ISZERO PUSH2 0x6FB JUMPI PUSH1 0x1 PUSH8 0xFFFFFFFFFFFFFFFF DUP2 GT ISZERO PUSH2 0x671 JUMPI PUSH2 0x670 PUSH2 0xD33 JUMP JUMPDEST JUMPDEST PUSH1 0x40 MLOAD SWAP1 DUP1 DUP3 MSTORE DUP1 PUSH1 0x1F ADD PUSH1 0x1F NOT AND PUSH1 0x20 ADD DUP3 ADD PUSH1 0x40 MSTORE DUP1 ISZERO PUSH2 0x6A3 JUMPI DUP2 PUSH1 0x20 ADD PUSH1 0x1 DUP3 MUL DUP1 CALLDATASIZE DUP4 CALLDATACOPY DUP1 DUP3 ADD SWAP2 POP POP SWAP1 POP JUMPDEST POP SWAP1 POP DUP3 DUP5 PUSH2 0x6B2 SWAP2 SWAP1 PUSH2 0x1339 JUMP JUMPDEST PUSH1 0xF8 SHL DUP2 PUSH0 DUP2 MLOAD DUP2 LT PUSH2 0x6C8 JUMPI PUSH2 0x6C7 PUSH2 0x12A3 JUMP JUMPDEST JUMPDEST PUSH1 0x20 ADD ADD SWAP1 PUSH31 0xFFFFFFFFFFFFFFFFFFFFFFFFFFFFFFFFFFFFFFFFFFFFFFFFFFFFFFFFFFFFFF NOT AND SWAP1 DUP2 PUSH0 BYTE SWAP1 MSTORE8 POP PUSH2 0x885 JUMP JUMPDEST PUSH0 DUP1 PUSH1 0x1 SWAP1 POP JUMPDEST PUSH0 DUP2 DUP8 PUSH2 0x70F SWAP2 SWAP1 PUSH2 0x139A JUMP JUMPDEST EQ PUSH2 0x737 JUMPI DUP2 DUP1 PUSH2 0x71F SWAP1 PUSH2 0x125C JUMP JUMPDEST SWAP3 POP POP PUSH2 0x100 DUP2 PUSH2 0x730 SWAP2 SWAP1 PUSH2 0x13CA JUMP JUMPDEST SWAP1 POP PUSH2 0x702 JUMP JUMPDEST PUSH1 0x1 DUP3 PUSH2 0x744 SWAP2 SWAP1 PUSH2 0x140B JUMP JUMPDEST PUSH8 0xFFFFFFFFFFFFFFFF DUP2 GT ISZERO PUSH2 0x75D JUMPI PUSH2 0x75C PUSH2 0xD33 JUMP JUMPDEST JUMPDEST PUSH1 0x40 MLOAD SWAP1 DUP1 DUP3 MSTORE DUP1 PUSH1 0x1F ADD PUSH1 0x1F NOT AND PUSH1 0x20 ADD DUP3 ADD PUSH1 0x40 MSTORE DUP1 ISZERO PUSH2 0x78F JUMPI DUP2 PUSH1 0x20 ADD PUSH1 0x1 DUP3 MUL DUP1 CALLDATASIZE DUP4 CALLDATACOPY DUP1 DUP3 ADD SWAP2 POP POP SWAP1 POP JUMPDEST POP SWAP3 POP PUSH1 0x37 DUP6 DUP4 PUSH2 0x7A0 SWAP2 SWAP1 PUSH2 0x1339 JUMP JUMPDEST PUSH2 0x7AA SWAP2 SWAP1 PUSH2 0x1339 JUMP JUMPDEST PUSH1 0xF8 SHL DUP4 PUSH0 DUP2 MLOAD DUP2 LT PUSH2 0x7C0 JUMPI PUSH2 0x7BF PUSH2 0x12A3 JUMP JUMPDEST JUMPDEST PUSH1 0x20 ADD ADD SWAP1 PUSH31 0xFFFFFFFFFFFFFFFFFFFFFFFFFFFFFFFFFFFFFFFFFFFFFFFFFFFFFFFFFFFFFF NOT AND SWAP1 DUP2 PUSH0 BYTE SWAP1 MSTORE8 POP PUSH1 0x1 SWAP1 POP JUMPDEST DUP2 DUP2 GT PUSH2 0x882 JUMPI PUSH2 0x100 DUP2 DUP4 PUSH2 0x809 SWAP2 SWAP1 PUSH2 0x143E JUMP JUMPDEST PUSH2 0x100 PUSH2 0x816 SWAP2 SWAP1 PUSH2 0x15A0 JUMP JUMPDEST DUP8 PUSH2 0x821 SWAP2 SWAP1 PUSH2 0x139A JUMP JUMPDEST PUSH2 0x82B SWAP2 SWAP1 PUSH2 0x15EA JUMP JUMPDEST PUSH1 0xF8 SHL DUP4 DUP3 DUP2 MLOAD DUP2 LT PUSH2 0x841 JUMPI PUSH2 0x840 PUSH2 0x12A3 JUMP JUMPDEST JUMPDEST PUSH1 0x20 ADD ADD SWAP1 PUSH31 0xFFFFFFFFFFFFFFFFFFFFFFFFFFFFFFFFFFFFFFFFFFFFFFFFFFFFFFFFFFFFFF NOT AND SWAP1 DUP2 PUSH0 BYTE SWAP1 MSTORE8 POP DUP1 DUP1 PUSH2 0x87A SWAP1 PUSH2 0x125C JUMP JUMPDEST SWAP2 POP POP PUSH2 0x7F3 JUMP JUMPDEST POP POP JUMPDEST DUP1 SWAP2 POP POP SWAP3 SWAP2 POP POP JUMP JUMPDEST PUSH1 0x60 PUSH2 0x8A2 PUSH2 0x89D DUP4 PUSH2 0x91D JUMP JUMPDEST PUSH2 0x47C JUMP JUMPDEST SWAP1 POP SWAP2 SWAP1 POP JUMP JUMPDEST PUSH1 0x60 PUSH2 0x8D3 DUP3 PUSH1 0x40 MLOAD PUSH1 0x20 ADD PUSH2 0x8BF SWAP2 SWAP1 PUSH2 0x165F JUMP JUMPDEST PUSH1 0x40 MLOAD PUSH1 0x20 DUP2 DUP4 SUB SUB DUP2 MSTORE SWAP1 PUSH1 0x40 MSTORE PUSH2 0x47C JUMP JUMPDEST SWAP1 POP SWAP2 SWAP1 POP JUMP JUMPDEST PUSH1 0x60 PUSH0 PUSH2 0x8E6 DUP4 PUSH2 0xA8E JUMP JUMPDEST SWAP1 POP PUSH2 0x8F4 DUP2 MLOAD PUSH1 0xC0 PUSH2 0x64A JUMP JUMPDEST DUP2 PUSH1 0x40 MLOAD PUSH1 0x20 ADD PUSH2 0x906 SWAP3 SWAP2 SWAP1 PUSH2 0x130A JUMP JUMPDEST PUSH1 0x40 MLOAD PUSH1 0x20 DUP2 DUP4 SUB SUB DUP2 MSTORE SWAP1 PUSH1 0x40 MSTORE SWAP2 POP POP SWAP2 SWAP1 POP JUMP JUMPDEST PUSH1 0x60 PUSH0 DUP3 PUSH1 0x40 MLOAD PUSH1 0x20 ADD PUSH2 0x931 SWAP2 SWAP1 PUSH2 0x1699 JUMP JUMPDEST PUSH1 0x40 MLOAD PUSH1 0x20 DUP2 DUP4 SUB SUB DUP2 MSTORE SWAP1 PUSH1 0x40 MSTORE SWAP1 POP PUSH0 JUMPDEST PUSH1 0x20 DUP2 LT ISZERO PUSH2 0x9A3 JUMPI PUSH0 PUSH1 0xF8 SHL DUP3 DUP3 DUP2 MLOAD DUP2 LT PUSH2 0x964 JUMPI PUSH2 0x963 PUSH2 0x12A3 JUMP JUMPDEST JUMPDEST PUSH1 0x20 ADD ADD MLOAD PUSH1 0xF8 SHR PUSH1 0xF8 SHL PUSH31 0xFFFFFFFFFFFFFFFFFFFFFFFFFFFFFFFFFFFFFFFFFFFFFFFFFFFFFFFFFFFFFF NOT AND SUB PUSH2 0x9A3 JUMPI DUP1 DUP1 PUSH1 0x1 ADD SWAP2 POP POP PUSH2 0x944 JUMP JUMPDEST PUSH0 DUP2 PUSH1 0x20 PUSH2 0x9B1 SWAP2 SWAP1 PUSH2 0x143E JUMP JUMPDEST PUSH8 0xFFFFFFFFFFFFFFFF DUP2 GT ISZERO PUSH2 0x9CA JUMPI PUSH2 0x9C9 PUSH2 0xD33 JUMP JUMPDEST JUMPDEST PUSH1 0x40 MLOAD SWAP1 DUP1 DUP3 MSTORE DUP1 PUSH1 0x1F ADD PUSH1 0x1F NOT AND PUSH1 0x20 ADD DUP3 ADD PUSH1 0x40 MSTORE DUP1 ISZERO PUSH2 0x9FC JUMPI DUP2 PUSH1 0x20 ADD PUSH1 0x1 DUP3 MUL DUP1 CALLDATASIZE DUP4 CALLDATACOPY DUP1 DUP3 ADD SWAP2 POP POP SWAP1 POP JUMPDEST POP SWAP1 POP PUSH0 JUMPDEST DUP2 MLOAD DUP2 LT ISZERO PUSH2 0xA82 JUMPI DUP4 DUP4 DUP1 PUSH2 0xA16 SWAP1 PUSH2 0x125C JUMP JUMPDEST SWAP5 POP DUP2 MLOAD DUP2 LT PUSH2 0xA29 JUMPI PUSH2 0xA28 PUSH2 0x12A3 JUMP JUMPDEST JUMPDEST PUSH1 0x20 ADD ADD MLOAD PUSH1 0xF8 SHR PUSH1 0xF8 SHL DUP3 DUP3 DUP2 MLOAD DUP2 LT PUSH2 0xA47 JUMPI PUSH2 0xA46 PUSH2 0x12A3 JUMP JUMPDEST JUMPDEST PUSH1 0x20 ADD ADD SWAP1 PUSH31 0xFFFFFFFFFFFFFFFFFFFFFFFFFFFFFFFFFFFFFFFFFFFFFFFFFFFFFFFFFFFFFF NOT AND SWAP1 DUP2 PUSH0 BYTE SWAP1 MSTORE8 POP DUP1 DUP1 PUSH1 0x1 ADD SWAP2 POP POP PUSH2 0xA01 JUMP JUMPDEST POP DUP1 SWAP4 POP POP POP POP SWAP2 SWAP1 POP JUMP JUMPDEST PUSH1 0x60 PUSH0 DUP3 MLOAD SUB PUSH2 0xAEC JUMPI PUSH0 PUSH8 0xFFFFFFFFFFFFFFFF DUP2 GT ISZERO PUSH2 0xAB2 JUMPI PUSH2 0xAB1 PUSH2 0xD33 JUMP JUMPDEST JUMPDEST PUSH1 0x40 MLOAD SWAP1 DUP1 DUP3 MSTORE DUP1 PUSH1 0x1F ADD PUSH1 0x1F NOT AND PUSH1 0x20 ADD DUP3 ADD PUSH1 0x40 MSTORE DUP1 ISZERO PUSH2 0xAE4 JUMPI DUP2 PUSH1 0x20 ADD PUSH1 0x1 DUP3 MUL DUP1 CALLDATASIZE DUP4 CALLDATACOPY DUP1 DUP3 ADD SWAP2 POP POP SWAP1 POP JUMPDEST POP SWAP1 POP PUSH2 0xC06 JUMP JUMPDEST PUSH0 DUP1 PUSH0 SWAP1 POP JUMPDEST DUP4 MLOAD DUP2 LT ISZERO PUSH2 0xB31 JUMPI DUP4 DUP2 DUP2 MLOAD DUP2 LT PUSH2 0xB0E JUMPI PUSH2 0xB0D PUSH2 0x12A3 JUMP JUMPDEST JUMPDEST PUSH1 0x20 MUL PUSH1 0x20 ADD ADD MLOAD MLOAD DUP3 PUSH2 0xB22 SWAP2 SWAP1 PUSH2 0x140B JUMP JUMPDEST SWAP2 POP DUP1 DUP1 PUSH1 0x1 ADD SWAP2 POP POP PUSH2 0xAF2 JUMP JUMPDEST PUSH0 DUP3 PUSH8 0xFFFFFFFFFFFFFFFF DUP2 GT ISZERO PUSH2 0xB4C JUMPI PUSH2 0xB4B PUSH2 0xD33 JUMP JUMPDEST JUMPDEST PUSH1 0x40 MLOAD SWAP1 DUP1 DUP3 MSTORE DUP1 PUSH1 0x1F ADD PUSH1 0x1F NOT AND PUSH1 0x20 ADD DUP3 ADD PUSH1 0x40 MSTORE DUP1 ISZERO PUSH2 0xB7E JUMPI DUP2 PUSH1 0x20 ADD PUSH1 0x1 DUP3 MUL DUP1 CALLDATASIZE DUP4 CALLDATACOPY DUP1 DUP3 ADD SWAP2 POP POP SWAP1 POP JUMPDEST POP SWAP1 POP PUSH0 PUSH1 0x20 DUP3 ADD SWAP1 POP PUSH0 SWAP3 POP JUMPDEST DUP6 MLOAD DUP4 LT ISZERO PUSH2 0xBFE JUMPI PUSH0 DUP7 DUP5 DUP2 MLOAD DUP2 LT PUSH2 0xBA9 JUMPI PUSH2 0xBA8 PUSH2 0x12A3 JUMP JUMPDEST JUMPDEST PUSH1 0x20 MUL PUSH1 0x20 ADD ADD MLOAD SWAP1 POP PUSH0 PUSH1 0x20 DUP3 ADD SWAP1 POP PUSH2 0xBC6 DUP4 DUP3 DUP5 MLOAD PUSH2 0xC0B JUMP JUMPDEST DUP8 DUP6 DUP2 MLOAD DUP2 LT PUSH2 0xBD9 JUMPI PUSH2 0xBD8 PUSH2 0x12A3 JUMP JUMPDEST JUMPDEST PUSH1 0x20 MUL PUSH1 0x20 ADD ADD MLOAD MLOAD DUP4 PUSH2 0xBED SWAP2 SWAP1 PUSH2 0x140B JUMP JUMPDEST SWAP3 POP POP POP DUP3 DUP1 PUSH1 0x1 ADD SWAP4 POP POP PUSH2 0xB8C JUMP JUMPDEST DUP2 SWAP5 POP POP POP POP POP JUMPDEST SWAP2 SWAP1 POP JUMP JUMPDEST PUSH0 DUP4 SWAP1 POP PUSH0 DUP4 SWAP1 POP PUSH0 DUP4 SWAP1 POP JUMPDEST PUSH1 0x20 DUP2 LT PUSH2 0xC56 JUMPI DUP2 MLOAD DUP4 MSTORE PUSH1 0x20 DUP4 PUSH2 0xC31 SWAP2 SWAP1 PUSH2 0x140B JUMP JUMPDEST SWAP3 POP PUSH1 0x20 DUP3 PUSH2 0xC40 SWAP2 SWAP1 PUSH2 0x140B JUMP JUMPDEST SWAP2 POP PUSH1 0x20 DUP2 PUSH2 0xC4F SWAP2 SWAP1 PUSH2 0x143E JUMP JUMPDEST SWAP1 POP PUSH2 0xC18 JUMP JUMPDEST PUSH0 PUSH1 0x1 DUP3 PUSH1 0x20 SUB PUSH2 0x100 EXP SUB SWAP1 POP DUP1 NOT DUP4 MLOAD AND DUP2 DUP6 MLOAD AND DUP2 DUP2 OR DUP7 MSTORE POP POP POP POP POP POP POP POP POP JUMP JUMPDEST PUSH0 PUSH1 0x40 MLOAD SWAP1 POP SWAP1 JUMP JUMPDEST PUSH0 DUP1 REVERT JUMPDEST PUSH0 DUP1 REVERT JUMPDEST PUSH0 DUP2 SWAP1 POP SWAP2 SWAP1 POP JUMP JUMPDEST PUSH2 0xCA0 DUP2 PUSH2 0xC8E JUMP JUMPDEST DUP2 EQ PUSH2 0xCAA JUMPI PUSH0 DUP1 REVERT JUMPDEST POP JUMP JUMPDEST PUSH0 DUP2 CALLDATALOAD SWAP1 POP PUSH2 0xCBB DUP2 PUSH2 0xC97 JUMP JUMPDEST SWAP3 SWAP2 POP POP JUMP JUMPDEST PUSH0 PUSH20 0xFFFFFFFFFFFFFFFFFFFFFFFFFFFFFFFFFFFFFFFF DUP3 AND SWAP1 POP SWAP2 SWAP1 POP JUMP JUMPDEST PUSH0 PUSH2 0xCEA DUP3 PUSH2 0xCC1 JUMP JUMPDEST SWAP1 POP SWAP2 SWAP1 POP JUMP JUMPDEST PUSH2 0xCFA DUP2 PUSH2 0xCE0 JUMP JUMPDEST DUP2 EQ PUSH2 0xD04 JUMPI PUSH0 DUP1 REVERT JUMPDEST POP JUMP JUMPDEST PUSH0 DUP2 CALLDATALOAD SWAP1 POP PUSH2 0xD15 DUP2 PUSH2 0xCF1 JUMP JUMPDEST SWAP3 SWAP2 POP POP JUMP JUMPDEST PUSH0 DUP1 REVERT JUMPDEST PUSH0 DUP1 REVERT JUMPDEST PUSH0 PUSH1 0x1F NOT PUSH1 0x1F DUP4 ADD AND SWAP1 POP SWAP2 SWAP1 POP JUMP JUMPDEST PUSH32 0x4E487B7100000000000000000000000000000000000000000000000000000000 PUSH0 MSTORE PUSH1 0x41 PUSH1 0x4 MSTORE PUSH1 0x24 PUSH0 REVERT JUMPDEST PUSH2 0xD69 DUP3 PUSH2 0xD23 JUMP JUMPDEST DUP2 ADD DUP2 DUP2 LT PUSH8 0xFFFFFFFFFFFFFFFF DUP3 GT OR ISZERO PUSH2 0xD88 JUMPI PUSH2 0xD87 PUSH2 0xD33 JUMP JUMPDEST JUMPDEST DUP1 PUSH1 0x40 MSTORE POP POP POP JUMP JUMPDEST PUSH0 PUSH2 0xD9A PUSH2 0xC7D JUMP JUMPDEST SWAP1 POP PUSH2 0xDA6 DUP3 DUP3 PUSH2 0xD60 JUMP JUMPDEST SWAP2 SWAP1 POP JUMP JUMPDEST PUSH0 PUSH8 0xFFFFFFFFFFFFFFFF DUP3 GT ISZERO PUSH2 0xDC5 JUMPI PUSH2 0xDC4 PUSH2 0xD33 JUMP JUMPDEST JUMPDEST PUSH2 0xDCE DUP3 PUSH2 0xD23 JUMP JUMPDEST SWAP1 POP PUSH1 0x20 DUP2 ADD SWAP1 POP SWAP2 SWAP1 POP JUMP JUMPDEST DUP3 DUP2 DUP4 CALLDATACOPY PUSH0 DUP4 DUP4 ADD MSTORE POP POP POP JUMP JUMPDEST PUSH0 PUSH2 0xDFB PUSH2 0xDF6 DUP5 PUSH2 0xDAB JUMP JUMPDEST PUSH2 0xD91 JUMP JUMPDEST SWAP1 POP DUP3 DUP2 MSTORE PUSH1 0x20 DUP2 ADD DUP5 DUP5 DUP5 ADD GT ISZERO PUSH2 0xE17 JUMPI PUSH2 0xE16 PUSH2 0xD1F JUMP JUMPDEST JUMPDEST PUSH2 0xE22 DUP5 DUP3 DUP6 PUSH2 0xDDB JUMP JUMPDEST POP SWAP4 SWAP3 POP POP POP JUMP JUMPDEST PUSH0 DUP3 PUSH1 0x1F DUP4 ADD SLT PUSH2 0xE3E JUMPI PUSH2 0xE3D PUSH2 0xD1B JUMP JUMPDEST JUMPDEST DUP2 CALLDATALOAD PUSH2 0xE4E DUP5 DUP3 PUSH1 0x20 DUP7 ADD PUSH2 0xDE9 JUMP JUMPDEST SWAP2 POP POP SWAP3 SWAP2 POP POP JUMP JUMPDEST PUSH0 DUP1 PUSH0 DUP1 PUSH0 DUP1 PUSH0 PUSH1 0xE0 DUP9 DUP11 SUB SLT ISZERO PUSH2 0xE72 JUMPI PUSH2 0xE71 PUSH2 0xC86 JUMP JUMPDEST JUMPDEST PUSH0 PUSH2 0xE7F DUP11 DUP3 DUP12 ADD PUSH2 0xCAD JUMP JUMPDEST SWAP8 POP POP PUSH1 0x20 PUSH2 0xE90 DUP11 DUP3 DUP12 ADD PUSH2 0xD07 JUMP JUMPDEST SWAP7 POP POP PUSH1 0x40 PUSH2 0xEA1 DUP11 DUP3 DUP12 ADD PUSH2 0xCAD JUMP JUMPDEST SWAP6 POP POP PUSH1 0x60 PUSH2 0xEB2 DUP11 DUP3 DUP12 ADD PUSH2 0xCAD JUMP JUMPDEST SWAP5 POP POP PUSH1 0x80 PUSH2 0xEC3 DUP11 DUP3 DUP12 ADD PUSH2 0xCAD JUMP JUMPDEST SWAP4 POP POP PUSH1 0xA0 PUSH2 0xED4 DUP11 DUP3 DUP12 ADD PUSH2 0xCAD JUMP JUMPDEST SWAP3 POP POP PUSH1 0xC0 DUP9 ADD CALLDATALOAD PUSH8 0xFFFFFFFFFFFFFFFF DUP2 GT ISZERO PUSH2 0xEF5 JUMPI PUSH2 0xEF4 PUSH2 0xC8A JUMP JUMPDEST JUMPDEST PUSH2 0xF01 DUP11 DUP3 DUP12 ADD PUSH2 0xE2A JUMP JUMPDEST SWAP2 POP POP SWAP3 SWAP6 SWAP9 SWAP2 SWAP5 SWAP8 POP SWAP3 SWAP6 POP JUMP JUMPDEST PUSH0 DUP2 ISZERO ISZERO SWAP1 POP SWAP2 SWAP1 POP JUMP JUMPDEST PUSH2 0xF24 DUP2 PUSH2 0xF10 JUMP JUMPDEST DUP2 EQ PUSH2 0xF2E JUMPI PUSH0 DUP1 REVERT JUMPDEST POP JUMP JUMPDEST PUSH0 DUP2 CALLDATALOAD SWAP1 POP PUSH2 0xF3F DUP2 PUSH2 0xF1B JUMP JUMPDEST SWAP3 SWAP2 POP POP JUMP JUMPDEST PUSH0 DUP1 PUSH0 DUP1 PUSH0 DUP1 PUSH0 DUP1 PUSH2 0x100 DUP10 DUP12 SUB SLT ISZERO PUSH2 0xF62 JUMPI PUSH2 0xF61 PUSH2 0xC86 JUMP JUMPDEST JUMPDEST PUSH0 PUSH2 0xF6F DUP12 DUP3 DUP13 ADD PUSH2 0xCAD JUMP JUMPDEST SWAP9 POP POP PUSH1 0x20 PUSH2 0xF80 DUP12 DUP3 DUP13 ADD PUSH2 0xD07 JUMP JUMPDEST SWAP8 POP POP PUSH1 0x40 PUSH2 0xF91 DUP12 DUP3 DUP13 ADD PUSH2 0xCAD JUMP JUMPDEST SWAP7 POP POP PUSH1 0x60 PUSH2 0xFA2 DUP12 DUP3 DUP13 ADD PUSH2 0xCAD JUMP JUMPDEST SWAP6 POP POP PUSH1 0x80 PUSH2 0xFB3 DUP12 DUP3 DUP13 ADD PUSH2 0xCAD JUMP JUMPDEST SWAP5 POP POP PUSH1 0xA0 PUSH2 0xFC4 DUP12 DUP3 DUP13 ADD PUSH2 0xCAD JUMP JUMPDEST SWAP4 POP POP PUSH1 0xC0 DUP10 ADD CALLDATALOAD PUSH8 0xFFFFFFFFFFFFFFFF DUP2 GT ISZERO PUSH2 0xFE5 JUMPI PUSH2 0xFE4 PUSH2 0xC8A JUMP JUMPDEST JUMPDEST PUSH2 0xFF1 DUP12 DUP3 DUP13 ADD PUSH2 0xE2A JUMP JUMPDEST SWAP3 POP POP PUSH1 0xE0 PUSH2 0x1002 DUP12 DUP3 DUP13 ADD PUSH2 0xF31 JUMP JUMPDEST SWAP2 POP POP SWAP3 SWAP6 SWAP9 POP SWAP3 SWAP6 SWAP9 SWAP1 SWAP4 SWAP7 POP JUMP JUMPDEST PUSH0 DUP2 SWAP1 POP SWAP2 SWAP1 POP JUMP JUMPDEST PUSH0 PUSH2 0x1035 PUSH2 0x1030 PUSH2 0x102B DUP5 PUSH2 0xCC1 JUMP JUMPDEST PUSH2 0x1012 JUMP JUMPDEST PUSH2 0xCC1 JUMP JUMPDEST SWAP1 POP SWAP2 SWAP1 POP JUMP JUMPDEST PUSH0 PUSH2 0x1046 DUP3 PUSH2 0x101B JUMP JUMPDEST SWAP1 POP SWAP2 SWAP1 POP JUMP JUMPDEST PUSH0 PUSH2 0x1057 DUP3 PUSH2 0x103C JUMP JUMPDEST SWAP1 POP SWAP2 SWAP1 POP JUMP JUMPDEST PUSH2 0x1067 DUP2 PUSH2 0x104D JUMP JUMPDEST DUP3 MSTORE POP POP JUMP JUMPDEST PUSH0 PUSH1 0x20 DUP3 ADD SWAP1 POP PUSH2 0x1080 PUSH0 DUP4 ADD DUP5 PUSH2 0x105E JUMP JUMPDEST SWAP3 SWAP2 POP POP JUMP JUMPDEST PUSH0 DUP1 PUSH0 DUP1 PUSH1 0x80 DUP6 DUP8 SUB SLT ISZERO PUSH2 0x109E JUMPI PUSH2 0x109D PUSH2 0xC86 JUMP JUMPDEST JUMPDEST PUSH0 PUSH2 0x10AB DUP8 DUP3 DUP9 ADD PUSH2 0xCAD JUMP JUMPDEST SWAP5 POP POP PUSH1 0x20 PUSH2 0x10BC DUP8 DUP3 DUP9 ADD PUSH2 0xD07 JUMP JUMPDEST SWAP4 POP POP PUSH1 0x40 PUSH2 0x10CD DUP8 DUP3 DUP9 ADD PUSH2 0xCAD JUMP JUMPDEST SWAP3 POP POP PUSH1 0x60 DUP6 ADD CALLDATALOAD PUSH8 0xFFFFFFFFFFFFFFFF DUP2 GT ISZERO PUSH2 0x10EE JUMPI PUSH2 0x10ED PUSH2 0xC8A JUMP JUMPDEST JUMPDEST PUSH2 0x10FA DUP8 DUP3 DUP9 ADD PUSH2 0xE2A JUMP JUMPDEST SWAP2 POP POP SWAP3 SWAP6 SWAP2 SWAP5 POP SWAP3 POP JUMP JUMPDEST PUSH0 DUP2 SWAP1 POP SWAP2 SWAP1 POP JUMP JUMPDEST PUSH2 0x1118 DUP2 PUSH2 0x1106 JUMP JUMPDEST DUP3 MSTORE POP POP JUMP JUMPDEST PUSH2 0x1127 DUP2 PUSH2 0xC8E JUMP JUMPDEST DUP3 MSTORE POP POP JUMP JUMPDEST PUSH0 DUP2 MLOAD SWAP1 POP SWAP2 SWAP1 POP JUMP JUMPDEST PUSH0 DUP3 DUP3 MSTORE PUSH1 0x20 DUP3 ADD SWAP1 POP SWAP3 SWAP2 POP POP JUMP JUMPDEST DUP3 DUP2 DUP4 MCOPY PUSH0 DUP4 DUP4 ADD MSTORE POP POP POP JUMP JUMPDEST PUSH0 PUSH2 0x115F DUP3 PUSH2 0x112D JUMP JUMPDEST PUSH2 0x1169 DUP2 DUP6 PUSH2 0x1137 JUMP JUMPDEST SWAP4 POP PUSH2 0x1179 DUP2 DUP6 PUSH1 0x20 DUP7 ADD PUSH2 0x1147 JUMP JUMPDEST PUSH2 0x1182 DUP2 PUSH2 0xD23 JUMP JUMPDEST DUP5 ADD SWAP2 POP POP SWAP3 SWAP2 POP POP JUMP JUMPDEST PUSH2 0x1196 DUP2 PUSH2 0xF10 JUMP JUMPDEST DUP3 MSTORE POP POP JUMP JUMPDEST PUSH0 PUSH1 0xA0 DUP4 ADD PUSH0 DUP4 ADD MLOAD PUSH2 0x11B1 PUSH0 DUP7 ADD DUP3 PUSH2 0x110F JUMP JUMPDEST POP PUSH1 0x20 DUP4 ADD MLOAD PUSH2 0x11C4 PUSH1 0x20 DUP7 ADD DUP3 PUSH2 0x111E JUMP JUMPDEST POP PUSH1 0x40 DUP4 ADD MLOAD PUSH2 0x11D7 PUSH1 0x40 DUP7 ADD DUP3 PUSH2 0x110F JUMP JUMPDEST POP PUSH1 0x60 DUP4 ADD MLOAD DUP5 DUP3 SUB PUSH1 0x60 DUP7 ADD MSTORE PUSH2 0x11EF DUP3 DUP3 PUSH2 0x1155 JUMP JUMPDEST SWAP2 POP POP PUSH1 0x80 DUP4 ADD MLOAD PUSH2 0x1204 PUSH1 0x80 DUP7 ADD DUP3 PUSH2 0x118D JUMP JUMPDEST POP DUP1 SWAP2 POP POP SWAP3 SWAP2 POP POP JUMP JUMPDEST PUSH0 PUSH1 0x20 DUP3 ADD SWAP1 POP DUP2 DUP2 SUB PUSH0 DUP4 ADD MSTORE PUSH2 0x1227 DUP2 DUP5 PUSH2 0x119C JUMP JUMPDEST SWAP1 POP SWAP3 SWAP2 POP POP JUMP JUMPDEST PUSH32 0x4E487B7100000000000000000000000000000000000000000000000000000000 PUSH0 MSTORE PUSH1 0x11 PUSH1 0x4 MSTORE PUSH1 0x24 PUSH0 REVERT JUMPDEST PUSH0 PUSH2 0x1266 DUP3 PUSH2 0xC8E JUMP JUMPDEST SWAP2 POP PUSH32 0xFFFFFFFFFFFFFFFFFFFFFFFFFFFFFFFFFFFFFFFFFFFFFFFFFFFFFFFFFFFFFFFF DUP3 SUB PUSH2 0x1298 JUMPI PUSH2 0x1297 PUSH2 0x122F JUMP JUMPDEST JUMPDEST PUSH1 0x1 DUP3 ADD SWAP1 POP SWAP2 SWAP1 POP JUMP JUMPDEST PUSH32 0x4E487B7100000000000000000000000000000000000000000000000000000000 PUSH0 MSTORE PUSH1 0x32 PUSH1 0x4 MSTORE PUSH1 0x24 PUSH0 REVERT JUMPDEST PUSH0 DUP2 SWAP1 POP SWAP3 SWAP2 POP POP JUMP JUMPDEST PUSH0 PUSH2 0x12E4 DUP3 PUSH2 0x112D JUMP JUMPDEST PUSH2 0x12EE DUP2 DUP6 PUSH2 0x12D0 JUMP JUMPDEST SWAP4 POP PUSH2 0x12FE DUP2 DUP6 PUSH1 0x20 DUP7 ADD PUSH2 0x1147 JUMP JUMPDEST DUP1 DUP5 ADD SWAP2 POP POP SWAP3 SWAP2 POP POP JUMP JUMPDEST PUSH0 PUSH2 0x1315 DUP3 DUP6 PUSH2 0x12DA JUMP JUMPDEST SWAP2 POP PUSH2 0x1321 DUP3 DUP5 PUSH2 0x12DA JUMP JUMPDEST SWAP2 POP DUP2 SWAP1 POP SWAP4 SWAP3 POP POP POP JUMP JUMPDEST PUSH0 PUSH1 0xFF DUP3 AND SWAP1 POP SWAP2 SWAP1 POP JUMP JUMPDEST PUSH0 PUSH2 0x1343 DUP3 PUSH2 0x132D JUMP JUMPDEST SWAP2 POP PUSH2 0x134E DUP4 PUSH2 0x132D JUMP JUMPDEST SWAP3 POP DUP3 DUP3 ADD SWAP1 POP PUSH1 0xFF DUP2 GT ISZERO PUSH2 0x1367 JUMPI PUSH2 0x1366 PUSH2 0x122F JUMP JUMPDEST JUMPDEST SWAP3 SWAP2 POP POP JUMP JUMPDEST PUSH32 0x4E487B7100000000000000000000000000000000000000000000000000000000 PUSH0 MSTORE PUSH1 0x12 PUSH1 0x4 MSTORE PUSH1 0x24 PUSH0 REVERT JUMPDEST PUSH0 PUSH2 0x13A4 DUP3 PUSH2 0xC8E JUMP JUMPDEST SWAP2 POP PUSH2 0x13AF DUP4 PUSH2 0xC8E JUMP JUMPDEST SWAP3 POP DUP3 PUSH2 0x13BF JUMPI PUSH2 0x13BE PUSH2 0x136D JUMP JUMPDEST JUMPDEST DUP3 DUP3 DIV SWAP1 POP SWAP3 SWAP2 POP POP JUMP JUMPDEST PUSH0 PUSH2 0x13D4 DUP3 PUSH2 0xC8E JUMP JUMPDEST SWAP2 POP PUSH2 0x13DF DUP4 PUSH2 0xC8E JUMP JUMPDEST SWAP3 POP DUP3 DUP3 MUL PUSH2 0x13ED DUP2 PUSH2 0xC8E JUMP JUMPDEST SWAP2 POP DUP3 DUP3 DIV DUP5 EQ DUP4 ISZERO OR PUSH2 0x1404 JUMPI PUSH2 0x1403 PUSH2 0x122F JUMP JUMPDEST JUMPDEST POP SWAP3 SWAP2 POP POP JUMP JUMPDEST PUSH0 PUSH2 0x1415 DUP3 PUSH2 0xC8E JUMP JUMPDEST SWAP2 POP PUSH2 0x1420 DUP4 PUSH2 0xC8E JUMP JUMPDEST SWAP3 POP DUP3 DUP3 ADD SWAP1 POP DUP1 DUP3 GT ISZERO PUSH2 0x1438 JUMPI PUSH2 0x1437 PUSH2 0x122F JUMP JUMPDEST JUMPDEST SWAP3 SWAP2 POP POP JUMP JUMPDEST PUSH0 PUSH2 0x1448 DUP3 PUSH2 0xC8E JUMP JUMPDEST SWAP2 POP PUSH2 0x1453 DUP4 PUSH2 0xC8E JUMP JUMPDEST SWAP3 POP DUP3 DUP3 SUB SWAP1 POP DUP2 DUP2 GT ISZERO PUSH2 0x146B JUMPI PUSH2 0x146A PUSH2 0x122F JUMP JUMPDEST JUMPDEST SWAP3 SWAP2 POP POP JUMP JUMPDEST PUSH0 DUP2 PUSH1 0x1 SHR SWAP1 POP SWAP2 SWAP1 POP JUMP JUMPDEST PUSH0 DUP1 DUP3 SWAP2 POP DUP4 SWAP1 POP JUMPDEST PUSH1 0x1 DUP6 GT ISZERO PUSH2 0x14C6 JUMPI DUP1 DUP7 DIV DUP2 GT ISZERO PUSH2 0x14A2 JUMPI PUSH2 0x14A1 PUSH2 0x122F JUMP JUMPDEST JUMPDEST PUSH1 0x1 DUP6 AND ISZERO PUSH2 0x14B1 JUMPI DUP1 DUP3 MUL SWAP2 POP JUMPDEST DUP1 DUP2 MUL SWAP1 POP PUSH2 0x14BF DUP6 PUSH2 0x1471 JUMP JUMPDEST SWAP5 POP PUSH2 0x1486 JUMP JUMPDEST SWAP5 POP SWAP5 SWAP3 POP POP POP JUMP JUMPDEST PUSH0 DUP3 PUSH2 0x14DE JUMPI PUSH1 0x1 SWAP1 POP PUSH2 0x1599 JUMP JUMPDEST DUP2 PUSH2 0x14EB JUMPI PUSH0 SWAP1 POP PUSH2 0x1599 JUMP JUMPDEST DUP2 PUSH1 0x1 DUP2 EQ PUSH2 0x1501 JUMPI PUSH1 0x2 DUP2 EQ PUSH2 0x150B JUMPI PUSH2 0x153A JUMP JUMPDEST PUSH1 0x1 SWAP2 POP POP PUSH2 0x1599 JUMP JUMPDEST PUSH1 0xFF DUP5 GT ISZERO PUSH2 0x151D JUMPI PUSH2 0x151C PUSH2 0x122F JUMP JUMPDEST JUMPDEST DUP4 PUSH1 0x2 EXP SWAP2 POP DUP5 DUP3 GT ISZERO PUSH2 0x1534 JUMPI PUSH2 0x1533 PUSH2 0x122F JUMP JUMPDEST JUMPDEST POP PUSH2 0x1599 JUMP JUMPDEST POP PUSH1 0x20 DUP4 LT PUSH2 0x133 DUP4 LT AND PUSH1 0x4E DUP5 LT PUSH1 0xB DUP5 LT AND OR ISZERO PUSH2 0x156F JUMPI DUP3 DUP3 EXP SWAP1 POP DUP4 DUP2 GT ISZERO PUSH2 0x156A JUMPI PUSH2 0x1569 PUSH2 0x122F JUMP JUMPDEST JUMPDEST PUSH2 0x1599 JUMP JUMPDEST PUSH2 0x157C DUP5 DUP5 DUP5 PUSH1 0x1 PUSH2 0x147D JUMP JUMPDEST SWAP3 POP SWAP1 POP DUP2 DUP5 DIV DUP2 GT ISZERO PUSH2 0x1593 JUMPI PUSH2 0x1592 PUSH2 0x122F JUMP JUMPDEST JUMPDEST DUP2 DUP2 MUL SWAP1 POP JUMPDEST SWAP4 SWAP3 POP POP POP JUMP JUMPDEST PUSH0 PUSH2 0x15AA DUP3 PUSH2 0xC8E JUMP JUMPDEST SWAP2 POP PUSH2 0x15B5 DUP4 PUSH2 0xC8E JUMP JUMPDEST SWAP3 POP PUSH2 0x15E2 PUSH32 0xFFFFFFFFFFFFFFFFFFFFFFFFFFFFFFFFFFFFFFFFFFFFFFFFFFFFFFFFFFFFFFFF DUP5 DUP5 PUSH2 0x14CF JUMP JUMPDEST SWAP1 POP SWAP3 SWAP2 POP POP JUMP JUMPDEST PUSH0 PUSH2 0x15F4 DUP3 PUSH2 0xC8E JUMP JUMPDEST SWAP2 POP PUSH2 0x15FF DUP4 PUSH2 0xC8E JUMP JUMPDEST SWAP3 POP DUP3 PUSH2 0x160F JUMPI PUSH2 0x160E PUSH2 0x136D JUMP JUMPDEST JUMPDEST DUP3 DUP3 MOD SWAP1 POP SWAP3 SWAP2 POP POP JUMP JUMPDEST PUSH0 DUP2 PUSH1 0x60 SHL SWAP1 POP SWAP2 SWAP1 POP JUMP JUMPDEST PUSH0 PUSH2 0x1630 DUP3 PUSH2 0x161A JUMP JUMPDEST SWAP1 POP SWAP2 SWAP1 POP JUMP JUMPDEST PUSH0 PUSH2 0x1641 DUP3 PUSH2 0x1626 JUMP JUMPDEST SWAP1 POP SWAP2 SWAP1 POP JUMP JUMPDEST PUSH2 0x1659 PUSH2 0x1654 DUP3 PUSH2 0xCE0 JUMP JUMPDEST PUSH2 0x1637 JUMP JUMPDEST DUP3 MSTORE POP POP JUMP JUMPDEST PUSH0 PUSH2 0x166A DUP3 DUP5 PUSH2 0x1648 JUMP JUMPDEST PUSH1 0x14 DUP3 ADD SWAP2 POP DUP2 SWAP1 POP SWAP3 SWAP2 POP POP JUMP JUMPDEST PUSH0 DUP2 SWAP1 POP SWAP2 SWAP1 POP JUMP JUMPDEST PUSH2 0x1693 PUSH2 0x168E DUP3 PUSH2 0xC8E JUMP JUMPDEST PUSH2 0x1679 JUMP JUMPDEST DUP3 MSTORE POP POP JUMP JUMPDEST PUSH0 PUSH2 0x16A4 DUP3 DUP5 PUSH2 0x1682 JUMP JUMPDEST PUSH1 0x20 DUP3 ADD SWAP2 POP DUP2 SWAP1 POP SWAP3 SWAP2 POP POP JUMP INVALID LOG2 PUSH5 0x6970667358 0x22 SLT KECCAK256 0xC 0xF8 PUSH19 0x16B9D31024DA8D110106087451D60172E8AE24 0xE3 0xE6 PUSH26 0x79F94D4E46A70764736F6C634300081A00330000000000000000 "
		},
		"gasEstimates": {
			"creation": {
				"codeDepositCost": "1173000",
				"executionCost": "infinite",
				"totalCost": "infinite"
			},
			"external": {
				"submitTransaction(uint256,address,uint256,bytes)": "infinite",
				"submitTransaction(uint256,address,uint256,uint256,uint256,uint256,bytes)": "infinite",
				"submitTransaction(uint256,address,uint256,uint256,uint256,uint256,bytes,bool)": "infinite",
				"zrSignConnect()": "infinite"
			},
			"internal": {
				"rlpEncodeTransaction(uint256,uint256,uint256,address,uint256,bytes memory)": "infinite"
			}
		},
		"methodIdentifiers": {
			"submitTransaction(uint256,address,uint256,bytes)": "dbe637c6",
			"submitTransaction(uint256,address,uint256,uint256,uint256,uint256,bytes)": "681face9",
			"submitTransaction(uint256,address,uint256,uint256,uint256,uint256,bytes,bool)": "94e375dd",
			"zrSignConnect()": "b463206c"
		}
	},
	"abi": [
		{
			"inputs": [
				{
					"internalType": "address",
					"name": "_zrSignAddress",
					"type": "address"
				}
			],
			"stateMutability": "nonpayable",
			"type": "constructor"
		},
		{
			"inputs": [
				{
					"internalType": "uint256",
					"name": "fromKeyIndex",
					"type": "uint256"
				},
				{
					"internalType": "address",
					"name": "to",
					"type": "address"
				},
				{
					"internalType": "uint256",
					"name": "value",
					"type": "uint256"
				},
				{
					"internalType": "uint256",
					"name": "gasPrice",
					"type": "uint256"
				},
				{
					"internalType": "uint256",
					"name": "gasLimit",
					"type": "uint256"
				},
				{
					"internalType": "uint256",
					"name": "nonce",
					"type": "uint256"
				},
				{
					"internalType": "bytes",
					"name": "data",
					"type": "bytes"
				}
			],
			"name": "submitTransaction",
			"outputs": [],
			"stateMutability": "nonpayable",
			"type": "function"
		},
		{
			"inputs": [
				{
					"internalType": "uint256",
					"name": "fromKeyIndex",
					"type": "uint256"
				},
				{
					"internalType": "address",
					"name": "to",
					"type": "address"
				},
				{
					"internalType": "uint256",
					"name": "value",
					"type": "uint256"
				},
				{
					"internalType": "uint256",
					"name": "gasPrice",
					"type": "uint256"
				},
				{
					"internalType": "uint256",
					"name": "gasLimit",
					"type": "uint256"
				},
				{
					"internalType": "uint256",
					"name": "nonce",
					"type": "uint256"
				},
				{
					"internalType": "bytes",
					"name": "data",
					"type": "bytes"
				},
				{
					"internalType": "bool",
					"name": "broadcast",
					"type": "bool"
				}
			],
			"name": "submitTransaction",
			"outputs": [],
			"stateMutability": "nonpayable",
			"type": "function"
		},
		{
			"inputs": [
				{
					"internalType": "uint256",
					"name": "_fromKeyIndex",
					"type": "uint256"
				},
				{
					"internalType": "address",
					"name": "_to",
					"type": "address"
				},
				{
					"internalType": "uint256",
					"name": "_value",
					"type": "uint256"
				},
				{
					"internalType": "bytes",
					"name": "_data",
					"type": "bytes"
				}
			],
			"name": "submitTransaction",
			"outputs": [],
			"stateMutability": "nonpayable",
			"type": "function"
		},
		{
			"inputs": [],
			"name": "zrSignConnect",
			"outputs": [
				{
					"internalType": "contract IZrSign",
					"name": "",
					"type": "address"
				}
			],
			"stateMutability": "view",
			"type": "function"
		}
	]
}