{
	"data": {
		"bytecode": {
			"linkReferences": {},
			"object": "608060405264012a05f2005f556203d0906001555f6002553480156021575f80fd5b506120b68061002f5f395ff3fe608060405260043610610073575f3560e01c8063c6b4a8f71161004d578063c6b4a8f71461015a578063dbe637c614610184578063e6bdb7d6146101ac578063ecf4ec57146101c2576100ca565b806332398d50146100ce578063681face91461010a57806394e375dd14610132576100ca565b366100ca573373ffffffffffffffffffffffffffffffffffffffff167f90890809c654f11d6e72a28fa60149770a0d11ec6c92319d6ceb2bb0a4ea1a1534476040516100c092919061111e565b60405180910390a2005b5f80fd5b3480156100d9575f80fd5b506100f460048036038101906100ef9190611180565b6101fe565b604051610101919061121b565b60405180910390f35b348015610115575f80fd5b50610130600480360381019061012b91906113c1565b6102bc565b005b34801561013d575f80fd5b50610158600480360381019061015391906114af565b610336565b005b348015610165575f80fd5b5061016e6103b0565b60405161017b919061167f565b60405180910390f35b34801561018f575f80fd5b506101aa60048036038101906101a5919061169f565b61046a565b005b3480156101b7575f80fd5b506101c06104fd565b005b3480156101cd575f80fd5b506101e860048036038101906101e3919061171f565b610635565b6040516101f59190611766565b60405180910390f35b6060738f309c9550d0d69c3f9b8d7bcdc7c93b05cd089e73ffffffffffffffffffffffffffffffffffffffff1663187e58187fe146c2986893c43af5ff396310220be92058fb9f4ce76b929b80ef0d5307100a5f1b30856040518463ffffffff1660e01b8152600401610273939291906117a6565b5f60405180830381865afa15801561028d573d5f803e3d5ffd5b505050506040513d5f823e3d601f19601f820116820180604052508101906102b59190611879565b9050919050565b5f6102c68261075f565b90505f6102d78487878b8b87610771565b905061032b7fe146c2986893c43af5ff396310220be92058fb9f4ce76b929b80ef0d5307100a5f1b8a7fafa90c317deacd3d68f330a30f96e4fa7736e35e8d1426b2e1b2c04bce1c2fb75f1b8460016107e4565b505050505050505050565b5f6103408361075f565b90505f6103518588888c8c87610771565b90506103a47fe146c2986893c43af5ff396310220be92058fb9f4ce76b929b80ef0d5307100a5f1b8b7fafa90c317deacd3d68f330a30f96e4fa7736e35e8d1426b2e1b2c04bce1c2fb75f1b84876107e4565b50505050505050505050565b6060738f309c9550d0d69c3f9b8d7bcdc7c93b05cd089e73ffffffffffffffffffffffffffffffffffffffff1663a11a572d7fe146c2986893c43af5ff396310220be92058fb9f4ce76b929b80ef0d5307100a5f1b306040518363ffffffff1660e01b81526004016104239291906118c0565b5f60405180830381865afa15801561043d573d5f803e3d5ffd5b505050506040513d5f823e3d601f19601f8201168201806040525081019061046591906119c9565b905090565b5f6104748261075f565b90505f61048a6002545f54600154888887610771565b90506104de7fe146c2986893c43af5ff396310220be92058fb9f4ce76b929b80ef0d5307100a5f1b877fafa90c317deacd3d68f330a30f96e4fa7736e35e8d1426b2e1b2c04bce1c2fb75f1b8460016107e4565b60025f8154809291906104f090611a3d565b9190505550505050505050565b5f738f309c9550d0d69c3f9b8d7bcdc7c93b05cd089e73ffffffffffffffffffffffffffffffffffffffff166315e812ad6040518163ffffffff1660e01b8152600401602060405180830381865afa15801561055b573d5f803e3d5ffd5b505050506040513d601f19601f8201168201806040525081019061057f9190611a98565b90505f60405180602001604052807fe146c2986893c43af5ff396310220be92058fb9f4ce76b929b80ef0d5307100a5f1b8152509050738f309c9550d0d69c3f9b8d7bcdc7c93b05cd089e73ffffffffffffffffffffffffffffffffffffffff1663331eba8283836040518363ffffffff1660e01b81526004016106039190611aec565b5f604051808303818588803b15801561061a575f80fd5b505af115801561062c573d5f803e3d5ffd5b50505050505050565b5f80738f309c9550d0d69c3f9b8d7bcdc7c93b05cd089e73ffffffffffffffffffffffffffffffffffffffff1663fc0438306040518163ffffffff1660e01b8152600401602060405180830381865afa158015610694573d5f803e3d5ffd5b505050506040513d601f19601f820116820180604052508101906106b89190611a98565b83516106c49190611b05565b90505f81738f309c9550d0d69c3f9b8d7bcdc7c93b05cd089e73ffffffffffffffffffffffffffffffffffffffff166315e812ad6040518163ffffffff1660e01b8152600401602060405180830381865afa158015610725573d5f803e3d5ffd5b505050506040513d601f19601f820116820180604052508101906107499190611a98565b6107539190611b46565b90508092505050919050565b606061076a826108c0565b9050919050565b60605f61077d8861093d565b90505f6107898861093d565b90505f6107958861093d565b90505f6107b78873ffffffffffffffffffffffffffffffffffffffff16610957565b90505f6107c38861093d565b90506107d385858585858c610988565b955050505050509695505050505050565b5f61080d836040516020016107f99190611bcb565b604051602081830303815290604052610635565b90505f6040518060a001604052808881526020018781526020018681526020018581526020018415158152509050738f309c9550d0d69c3f9b8d7bcdc7c93b05cd089e73ffffffffffffffffffffffffffffffffffffffff166393f874c483836040518363ffffffff1660e01b81526004016108899190611cc4565b5f604051808303818588803b1580156108a0575f80fd5b505af11580156108b2573d5f803e3d5ffd5b505050505050505050505050565b606080600183511480156108f757506080835f815181106108e4576108e3611ce4565b5b602001015160f81c60f81b60f81c60ff16105b1561090457829050610934565b61091083516080610b1e565b83604051602001610922929190611d4b565b60405160208183030381529060405290505b80915050919050565b606061095061094b83610d63565b6108c0565b9050919050565b60606109818260405160200161096d9190611db3565b6040516020818303038152906040526108c0565b9050919050565b60605f6109945f61093d565b90505f600967ffffffffffffffff8111156109b2576109b161129d565b5b6040519080825280602002602001820160405280156109e557816020015b60608152602001906001900390816109d05790505b50905088815f815181106109fc576109fb611ce4565b5b60200260200101819052508781600181518110610a1c57610a1b611ce4565b5b60200260200101819052508681600281518110610a3c57610a3b611ce4565b5b60200260200101819052508581600381518110610a5c57610a5b611ce4565b5b60200260200101819052508481600481518110610a7c57610a7b611ce4565b5b60200260200101819052508381600581518110610a9c57610a9b611ce4565b5b60200260200101819052508181600681518110610abc57610abb611ce4565b5b60200260200101819052508181600781518110610adc57610adb611ce4565b5b60200260200101819052508181600881518110610afc57610afb611ce4565b5b6020026020010181905250610b1081610ed4565b925050509695505050505050565b6060806038841015610bcf57600167ffffffffffffffff811115610b4557610b4461129d565b5b6040519080825280601f01601f191660200182016040528015610b775781602001600182028036833780820191505090505b5090508284610b869190611dd9565b60f81b815f81518110610b9c57610b9b611ce4565b5b60200101907effffffffffffffffffffffffffffffffffffffffffffffffffffffffffffff191690815f1a905350610d59565b5f80600190505b5f8187610be39190611e3a565b14610c0b578180610bf390611a3d565b92505061010081610c049190611b05565b9050610bd6565b600182610c189190611b46565b67ffffffffffffffff811115610c3157610c3061129d565b5b6040519080825280601f01601f191660200182016040528015610c635781602001600182028036833780820191505090505b50925060378583610c749190611dd9565b610c7e9190611dd9565b60f81b835f81518110610c9457610c93611ce4565b5b60200101907effffffffffffffffffffffffffffffffffffffffffffffffffffffffffffff191690815f1a905350600190505b818111610d56576101008183610cdd9190611e6a565b610100610cea9190611fcc565b87610cf59190611e3a565b610cff9190612016565b60f81b838281518110610d1557610d14611ce4565b5b60200101907effffffffffffffffffffffffffffffffffffffffffffffffffffffffffffff191690815f1a9053508080610d4e90611a3d565b915050610cc7565b50505b8091505092915050565b60605f82604051602001610d779190612066565b60405160208183030381529060405290505f5b6020811015610de9575f60f81b828281518110610daa57610da9611ce4565b5b602001015160f81c60f81b7effffffffffffffffffffffffffffffffffffffffffffffffffffffffffffff191603610de9578080600101915050610d8a565b5f816020610df79190611e6a565b67ffffffffffffffff811115610e1057610e0f61129d565b5b6040519080825280601f01601f191660200182016040528015610e425781602001600182028036833780820191505090505b5090505f5b8151811015610ec857838380610e5c90611a3d565b945081518110610e6f57610e6e611ce4565b5b602001015160f81c60f81b828281518110610e8d57610e8c611ce4565b5b60200101907effffffffffffffffffffffffffffffffffffffffffffffffffffffffffffff191690815f1a9053508080600101915050610e47565b50809350505050919050565b60605f610ee083610f17565b9050610eee815160c0610b1e565b81604051602001610f00929190611d4b565b604051602081830303815290604052915050919050565b60605f825103610f75575f67ffffffffffffffff811115610f3b57610f3a61129d565b5b6040519080825280601f01601f191660200182016040528015610f6d5781602001600182028036833780820191505090505b50905061108f565b5f805f90505b8351811015610fba57838181518110610f9757610f96611ce4565b5b60200260200101515182610fab9190611b46565b91508080600101915050610f7b565b5f8267ffffffffffffffff811115610fd557610fd461129d565b5b6040519080825280601f01601f1916602001820160405280156110075781602001600182028036833780820191505090505b5090505f6020820190505f92505b8551831015611087575f86848151811061103257611031611ce4565b5b602002602001015190505f60208201905061104f83828451611094565b87858151811061106257611061611ce4565b5b602002602001015151836110769190611b46565b925050508280600101935050611015565b819450505050505b919050565b5f8390505f8390505f8390505b602081106110df57815183526020836110ba9190611b46565b92506020826110c99190611b46565b91506020816110d89190611e6a565b90506110a1565b5f6001826020036101000a0390508019835116818551168181178652505050505050505050565b5f819050919050565b61111881611106565b82525050565b5f6040820190506111315f83018561110f565b61113e602083018461110f565b9392505050565b5f604051905090565b5f80fd5b5f80fd5b61115f81611106565b8114611169575f80fd5b50565b5f8135905061117a81611156565b92915050565b5f602082840312156111955761119461114e565b5b5f6111a28482850161116c565b91505092915050565b5f81519050919050565b5f82825260208201905092915050565b8281835e5f83830152505050565b5f601f19601f8301169050919050565b5f6111ed826111ab565b6111f781856111b5565b93506112078185602086016111c5565b611210816111d3565b840191505092915050565b5f6020820190508181035f83015261123381846111e3565b905092915050565b5f73ffffffffffffffffffffffffffffffffffffffff82169050919050565b5f6112648261123b565b9050919050565b6112748161125a565b811461127e575f80fd5b50565b5f8135905061128f8161126b565b92915050565b5f80fd5b5f80fd5b7f4e487b71000000000000000000000000000000000000000000000000000000005f52604160045260245ffd5b6112d3826111d3565b810181811067ffffffffffffffff821117156112f2576112f161129d565b5b80604052505050565b5f611304611145565b905061131082826112ca565b919050565b5f67ffffffffffffffff82111561132f5761132e61129d565b5b611338826111d3565b9050602081019050919050565b828183375f83830152505050565b5f61136561136084611315565b6112fb565b90508281526020810184848401111561138157611380611299565b5b61138c848285611345565b509392505050565b5f82601f8301126113a8576113a7611295565b5b81356113b8848260208601611353565b91505092915050565b5f805f805f805f60e0888a0312156113dc576113db61114e565b5b5f6113e98a828b0161116c565b97505060206113fa8a828b01611281565b965050604061140b8a828b0161116c565b955050606061141c8a828b0161116c565b945050608061142d8a828b0161116c565b93505060a061143e8a828b0161116c565b92505060c088013567ffffffffffffffff81111561145f5761145e611152565b5b61146b8a828b01611394565b91505092959891949750929550565b5f8115159050919050565b61148e8161147a565b8114611498575f80fd5b50565b5f813590506114a981611485565b92915050565b5f805f805f805f80610100898b0312156114cc576114cb61114e565b5b5f6114d98b828c0161116c565b98505060206114ea8b828c01611281565b97505060406114fb8b828c0161116c565b965050606061150c8b828c0161116c565b955050608061151d8b828c0161116c565b94505060a061152e8b828c0161116c565b93505060c089013567ffffffffffffffff81111561154f5761154e611152565b5b61155b8b828c01611394565b92505060e061156c8b828c0161149b565b9150509295985092959890939650565b5f81519050919050565b5f82825260208201905092915050565b5f819050602082019050919050565b5f82825260208201905092915050565b5f6115bf826111ab565b6115c981856115a5565b93506115d98185602086016111c5565b6115e2816111d3565b840191505092915050565b5f6115f883836115b5565b905092915050565b5f602082019050919050565b5f6116168261157c565b6116208185611586565b93508360208202850161163285611596565b805f5b8581101561166d578484038952815161164e85826115ed565b945061165983611600565b925060208a01995050600181019050611635565b50829750879550505050505092915050565b5f6020820190508181035f830152611697818461160c565b905092915050565b5f805f80608085870312156116b7576116b661114e565b5b5f6116c48782880161116c565b94505060206116d587828801611281565b93505060406116e68782880161116c565b925050606085013567ffffffffffffffff81111561170757611706611152565b5b61171387828801611394565b91505092959194509250565b5f602082840312156117345761173361114e565b5b5f82013567ffffffffffffffff81111561175157611750611152565b5b61175d84828501611394565b91505092915050565b5f6020820190506117795f83018461110f565b92915050565b5f819050919050565b6117918161177f565b82525050565b6117a08161125a565b82525050565b5f6060820190506117b95f830186611788565b6117c66020830185611797565b6117d3604083018461110f565b949350505050565b5f67ffffffffffffffff8211156117f5576117f461129d565b5b6117fe826111d3565b9050602081019050919050565b5f61181d611818846117db565b6112fb565b90508281526020810184848401111561183957611838611299565b5b6118448482856111c5565b509392505050565b5f82601f8301126118605761185f611295565b5b815161187084826020860161180b565b91505092915050565b5f6020828403121561188e5761188d61114e565b5b5f82015167ffffffffffffffff8111156118ab576118aa611152565b5b6118b78482850161184c565b91505092915050565b5f6040820190506118d35f830185611788565b6118e06020830184611797565b9392505050565b5f67ffffffffffffffff8211156119015761190061129d565b5b602082029050602081019050919050565b5f80fd5b5f611928611923846118e7565b6112fb565b9050808382526020820190506020840283018581111561194b5761194a611912565b5b835b8181101561199257805167ffffffffffffffff8111156119705761196f611295565b5b80860161197d898261184c565b8552602085019450505060208101905061194d565b5050509392505050565b5f82601f8301126119b0576119af611295565b5b81516119c0848260208601611916565b91505092915050565b5f602082840312156119de576119dd61114e565b5b5f82015167ffffffffffffffff8111156119fb576119fa611152565b5b611a078482850161199c565b91505092915050565b7f4e487b71000000000000000000000000000000000000000000000000000000005f52601160045260245ffd5b5f611a4782611106565b91507fffffffffffffffffffffffffffffffffffffffffffffffffffffffffffffffff8203611a7957611a78611a10565b5b600182019050919050565b5f81519050611a9281611156565b92915050565b5f60208284031215611aad57611aac61114e565b5b5f611aba84828501611a84565b91505092915050565b611acc8161177f565b82525050565b602082015f820151611ae65f850182611ac3565b50505050565b5f602082019050611aff5f830184611ad2565b92915050565b5f611b0f82611106565b9150611b1a83611106565b9250828202611b2881611106565b91508282048414831517611b3f57611b3e611a10565b5b5092915050565b5f611b5082611106565b9150611b5b83611106565b9250828201905080821115611b7357611b72611a10565b5b92915050565b5f81519050919050565b5f82825260208201905092915050565b5f611b9d82611b79565b611ba78185611b83565b9350611bb78185602086016111c5565b611bc0816111d3565b840191505092915050565b5f6020820190508181035f830152611be38184611b93565b905092915050565b611bf481611106565b82525050565b5f82825260208201905092915050565b5f611c1482611b79565b611c1e8185611bfa565b9350611c2e8185602086016111c5565b611c37816111d3565b840191505092915050565b611c4b8161147a565b82525050565b5f60a083015f830151611c665f860182611ac3565b506020830151611c796020860182611beb565b506040830151611c8c6040860182611ac3565b5060608301518482036060860152611ca48282611c0a565b9150506080830151611cb96080860182611c42565b508091505092915050565b5f6020820190508181035f830152611cdc8184611c51565b905092915050565b7f4e487b71000000000000000000000000000000000000000000000000000000005f52603260045260245ffd5b5f81905092915050565b5f611d2582611b79565b611d2f8185611d11565b9350611d3f8185602086016111c5565b80840191505092915050565b5f611d568285611d1b565b9150611d628284611d1b565b91508190509392505050565b5f8160601b9050919050565b5f611d8482611d6e565b9050919050565b5f611d9582611d7a565b9050919050565b611dad611da88261125a565b611d8b565b82525050565b5f611dbe8284611d9c565b60148201915081905092915050565b5f60ff82169050919050565b5f611de382611dcd565b9150611dee83611dcd565b9250828201905060ff811115611e0757611e06611a10565b5b92915050565b7f4e487b71000000000000000000000000000000000000000000000000000000005f52601260045260245ffd5b5f611e4482611106565b9150611e4f83611106565b925082611e5f57611e5e611e0d565b5b828204905092915050565b5f611e7482611106565b9150611e7f83611106565b9250828203905081811115611e9757611e96611a10565b5b92915050565b5f8160011c9050919050565b5f808291508390505b6001851115611ef257808604811115611ece57611ecd611a10565b5b6001851615611edd5780820291505b8081029050611eeb85611e9d565b9450611eb2565b94509492505050565b5f82611f0a5760019050611fc5565b81611f17575f9050611fc5565b8160018114611f2d5760028114611f3757611f66565b6001915050611fc5565b60ff841115611f4957611f48611a10565b5b8360020a915084821115611f6057611f5f611a10565b5b50611fc5565b5060208310610133831016604e8410600b8410161715611f9b5782820a905083811115611f9657611f95611a10565b5b611fc5565b611fa88484846001611ea9565b92509050818404811115611fbf57611fbe611a10565b5b81810290505b9392505050565b5f611fd682611106565b9150611fe183611106565b925061200e7fffffffffffffffffffffffffffffffffffffffffffffffffffffffffffffffff8484611efb565b905092915050565b5f61202082611106565b915061202b83611106565b92508261203b5761203a611e0d565b5b828206905092915050565b5f819050919050565b61206061205b82611106565b612046565b82525050565b5f612071828461204f565b6020820191508190509291505056fea2646970667358221220e56966b6ff129ca969c5e5c8543a774a50bb1a026d873ac465bfcb75bfbe2f9864736f6c634300081a0033",
			"opcodes": "PUSH1 0x80 PUSH1 0x40 MSTORE PUSH5 0x12A05F200 PUSH0 SSTORE PUSH3 0x3D090 PUSH1 0x1 SSTORE PUSH0 PUSH1 0x2 SSTORE CALLVALUE DUP1 ISZERO PUSH1 0x21 JUMPI PUSH0 DUP1 REVERT JUMPDEST POP PUSH2 0x20B6 DUP1 PUSH2 0x2F PUSH0 CODECOPY PUSH0 RETURN INVALID PUSH1 0x80 PUSH1 0x40 MSTORE PUSH1 0x4 CALLDATASIZE LT PUSH2 0x73 JUMPI PUSH0 CALLDATALOAD PUSH1 0xE0 SHR DUP1 PUSH4 0xC6B4A8F7 GT PUSH2 0x4D JUMPI DUP1 PUSH4 0xC6B4A8F7 EQ PUSH2 0x15A JUMPI DUP1 PUSH4 0xDBE637C6 EQ PUSH2 0x184 JUMPI DUP1 PUSH4 0xE6BDB7D6 EQ PUSH2 0x1AC JUMPI DUP1 PUSH4 0xECF4EC57 EQ PUSH2 0x1C2 JUMPI PUSH2 0xCA JUMP JUMPDEST DUP1 PUSH4 0x32398D50 EQ PUSH2 0xCE JUMPI DUP1 PUSH4 0x681FACE9 EQ PUSH2 0x10A JUMPI DUP1 PUSH4 0x94E375DD EQ PUSH2 0x132 JUMPI PUSH2 0xCA JUMP JUMPDEST CALLDATASIZE PUSH2 0xCA JUMPI CALLER PUSH20 0xFFFFFFFFFFFFFFFFFFFFFFFFFFFFFFFFFFFFFFFF AND PUSH32 0x90890809C654F11D6E72A28FA60149770A0D11EC6C92319D6CEB2BB0A4EA1A15 CALLVALUE SELFBALANCE PUSH1 0x40 MLOAD PUSH2 0xC0 SWAP3 SWAP2 SWAP1 PUSH2 0x111E JUMP JUMPDEST PUSH1 0x40 MLOAD DUP1 SWAP2 SUB SWAP1 LOG2 STOP JUMPDEST PUSH0 DUP1 REVERT JUMPDEST CALLVALUE DUP1 ISZERO PUSH2 0xD9 JUMPI PUSH0 DUP1 REVERT JUMPDEST POP PUSH2 0xF4 PUSH1 0x4 DUP1 CALLDATASIZE SUB DUP2 ADD SWAP1 PUSH2 0xEF SWAP2 SWAP1 PUSH2 0x1180 JUMP JUMPDEST PUSH2 0x1FE JUMP JUMPDEST PUSH1 0x40 MLOAD PUSH2 0x101 SWAP2 SWAP1 PUSH2 0x121B JUMP JUMPDEST PUSH1 0x40 MLOAD DUP1 SWAP2 SUB SWAP1 RETURN JUMPDEST CALLVALUE DUP1 ISZERO PUSH2 0x115 JUMPI PUSH0 DUP1 REVERT JUMPDEST POP PUSH2 0x130 PUSH1 0x4 DUP1 CALLDATASIZE SUB DUP2 ADD SWAP1 PUSH2 0x12B SWAP2 SWAP1 PUSH2 0x13C1 JUMP JUMPDEST PUSH2 0x2BC JUMP JUMPDEST STOP JUMPDEST CALLVALUE DUP1 ISZERO PUSH2 0x13D JUMPI PUSH0 DUP1 REVERT JUMPDEST POP PUSH2 0x158 PUSH1 0x4 DUP1 CALLDATASIZE SUB DUP2 ADD SWAP1 PUSH2 0x153 SWAP2 SWAP1 PUSH2 0x14AF JUMP JUMPDEST PUSH2 0x336 JUMP JUMPDEST STOP JUMPDEST CALLVALUE DUP1 ISZERO PUSH2 0x165 JUMPI PUSH0 DUP1 REVERT JUMPDEST POP PUSH2 0x16E PUSH2 0x3B0 JUMP JUMPDEST PUSH1 0x40 MLOAD PUSH2 0x17B SWAP2 SWAP1 PUSH2 0x167F JUMP JUMPDEST PUSH1 0x40 MLOAD DUP1 SWAP2 SUB SWAP1 RETURN JUMPDEST CALLVALUE DUP1 ISZERO PUSH2 0x18F JUMPI PUSH0 DUP1 REVERT JUMPDEST POP PUSH2 0x1AA PUSH1 0x4 DUP1 CALLDATASIZE SUB DUP2 ADD SWAP1 PUSH2 0x1A5 SWAP2 SWAP1 PUSH2 0x169F JUMP JUMPDEST PUSH2 0x46A JUMP JUMPDEST STOP JUMPDEST CALLVALUE DUP1 ISZERO PUSH2 0x1B7 JUMPI PUSH0 DUP1 REVERT JUMPDEST POP PUSH2 0x1C0 PUSH2 0x4FD JUMP JUMPDEST STOP JUMPDEST CALLVALUE DUP1 ISZERO PUSH2 0x1CD JUMPI PUSH0 DUP1 REVERT JUMPDEST POP PUSH2 0x1E8 PUSH1 0x4 DUP1 CALLDATASIZE SUB DUP2 ADD SWAP1 PUSH2 0x1E3 SWAP2 SWAP1 PUSH2 0x171F JUMP JUMPDEST PUSH2 0x635 JUMP JUMPDEST PUSH1 0x40 MLOAD PUSH2 0x1F5 SWAP2 SWAP1 PUSH2 0x1766 JUMP JUMPDEST PUSH1 0x40 MLOAD DUP1 SWAP2 SUB SWAP1 RETURN JUMPDEST PUSH1 0x60 PUSH20 0x8F309C9550D0D69C3F9B8D7BCDC7C93B05CD089E PUSH20 0xFFFFFFFFFFFFFFFFFFFFFFFFFFFFFFFFFFFFFFFF AND PUSH4 0x187E5818 PUSH32 0xE146C2986893C43AF5FF396310220BE92058FB9F4CE76B929B80EF0D5307100A PUSH0 SHL ADDRESS DUP6 PUSH1 0x40 MLOAD DUP5 PUSH4 0xFFFFFFFF AND PUSH1 0xE0 SHL DUP2 MSTORE PUSH1 0x4 ADD PUSH2 0x273 SWAP4 SWAP3 SWAP2 SWAP1 PUSH2 0x17A6 JUMP JUMPDEST PUSH0 PUSH1 0x40 MLOAD DUP1 DUP4 SUB DUP2 DUP7 GAS STATICCALL ISZERO DUP1 ISZERO PUSH2 0x28D JUMPI RETURNDATASIZE PUSH0 DUP1 RETURNDATACOPY RETURNDATASIZE PUSH0 REVERT JUMPDEST POP POP POP POP PUSH1 0x40 MLOAD RETURNDATASIZE PUSH0 DUP3 RETURNDATACOPY RETURNDATASIZE PUSH1 0x1F NOT PUSH1 0x1F DUP3 ADD AND DUP3 ADD DUP1 PUSH1 0x40 MSTORE POP DUP2 ADD SWAP1 PUSH2 0x2B5 SWAP2 SWAP1 PUSH2 0x1879 JUMP JUMPDEST SWAP1 POP SWAP2 SWAP1 POP JUMP JUMPDEST PUSH0 PUSH2 0x2C6 DUP3 PUSH2 0x75F JUMP JUMPDEST SWAP1 POP PUSH0 PUSH2 0x2D7 DUP5 DUP8 DUP8 DUP12 DUP12 DUP8 PUSH2 0x771 JUMP JUMPDEST SWAP1 POP PUSH2 0x32B PUSH32 0xE146C2986893C43AF5FF396310220BE92058FB9F4CE76B929B80EF0D5307100A PUSH0 SHL DUP11 PUSH32 0xAFA90C317DEACD3D68F330A30F96E4FA7736E35E8D1426B2E1B2C04BCE1C2FB7 PUSH0 SHL DUP5 PUSH1 0x1 PUSH2 0x7E4 JUMP JUMPDEST POP POP POP POP POP POP POP POP POP JUMP JUMPDEST PUSH0 PUSH2 0x340 DUP4 PUSH2 0x75F JUMP JUMPDEST SWAP1 POP PUSH0 PUSH2 0x351 DUP6 DUP9 DUP9 DUP13 DUP13 DUP8 PUSH2 0x771 JUMP JUMPDEST SWAP1 POP PUSH2 0x3A4 PUSH32 0xE146C2986893C43AF5FF396310220BE92058FB9F4CE76B929B80EF0D5307100A PUSH0 SHL DUP12 PUSH32 0xAFA90C317DEACD3D68F330A30F96E4FA7736E35E8D1426B2E1B2C04BCE1C2FB7 PUSH0 SHL DUP5 DUP8 PUSH2 0x7E4 JUMP JUMPDEST POP POP POP POP POP POP POP POP POP POP JUMP JUMPDEST PUSH1 0x60 PUSH20 0x8F309C9550D0D69C3F9B8D7BCDC7C93B05CD089E PUSH20 0xFFFFFFFFFFFFFFFFFFFFFFFFFFFFFFFFFFFFFFFF AND PUSH4 0xA11A572D PUSH32 0xE146C2986893C43AF5FF396310220BE92058FB9F4CE76B929B80EF0D5307100A PUSH0 SHL ADDRESS PUSH1 0x40 MLOAD DUP4 PUSH4 0xFFFFFFFF AND PUSH1 0xE0 SHL DUP2 MSTORE PUSH1 0x4 ADD PUSH2 0x423 SWAP3 SWAP2 SWAP1 PUSH2 0x18C0 JUMP JUMPDEST PUSH0 PUSH1 0x40 MLOAD DUP1 DUP4 SUB DUP2 DUP7 GAS STATICCALL ISZERO DUP1 ISZERO PUSH2 0x43D JUMPI RETURNDATASIZE PUSH0 DUP1 RETURNDATACOPY RETURNDATASIZE PUSH0 REVERT JUMPDEST POP POP POP POP PUSH1 0x40 MLOAD RETURNDATASIZE PUSH0 DUP3 RETURNDATACOPY RETURNDATASIZE PUSH1 0x1F NOT PUSH1 0x1F DUP3 ADD AND DUP3 ADD DUP1 PUSH1 0x40 MSTORE POP DUP2 ADD SWAP1 PUSH2 0x465 SWAP2 SWAP1 PUSH2 0x19C9 JUMP JUMPDEST SWAP1 POP SWAP1 JUMP JUMPDEST PUSH0 PUSH2 0x474 DUP3 PUSH2 0x75F JUMP JUMPDEST SWAP1 POP PUSH0 PUSH2 0x48A PUSH1 0x2 SLOAD PUSH0 SLOAD PUSH1 0x1 SLOAD DUP9 DUP9 DUP8 PUSH2 0x771 JUMP JUMPDEST SWAP1 POP PUSH2 0x4DE PUSH32 0xE146C2986893C43AF5FF396310220BE92058FB9F4CE76B929B80EF0D5307100A PUSH0 SHL DUP8 PUSH32 0xAFA90C317DEACD3D68F330A30F96E4FA7736E35E8D1426B2E1B2C04BCE1C2FB7 PUSH0 SHL DUP5 PUSH1 0x1 PUSH2 0x7E4 JUMP JUMPDEST PUSH1 0x2 PUSH0 DUP2 SLOAD DUP1 SWAP3 SWAP2 SWAP1 PUSH2 0x4F0 SWAP1 PUSH2 0x1A3D JUMP JUMPDEST SWAP2 SWAP1 POP SSTORE POP POP POP POP POP POP POP JUMP JUMPDEST PUSH0 PUSH20 0x8F309C9550D0D69C3F9B8D7BCDC7C93B05CD089E PUSH20 0xFFFFFFFFFFFFFFFFFFFFFFFFFFFFFFFFFFFFFFFF AND PUSH4 0x15E812AD PUSH1 0x40 MLOAD DUP2 PUSH4 0xFFFFFFFF AND PUSH1 0xE0 SHL DUP2 MSTORE PUSH1 0x4 ADD PUSH1 0x20 PUSH1 0x40 MLOAD DUP1 DUP4 SUB DUP2 DUP7 GAS STATICCALL ISZERO DUP1 ISZERO PUSH2 0x55B JUMPI RETURNDATASIZE PUSH0 DUP1 RETURNDATACOPY RETURNDATASIZE PUSH0 REVERT JUMPDEST POP POP POP POP PUSH1 0x40 MLOAD RETURNDATASIZE PUSH1 0x1F NOT PUSH1 0x1F DUP3 ADD AND DUP3 ADD DUP1 PUSH1 0x40 MSTORE POP DUP2 ADD SWAP1 PUSH2 0x57F SWAP2 SWAP1 PUSH2 0x1A98 JUMP JUMPDEST SWAP1 POP PUSH0 PUSH1 0x40 MLOAD DUP1 PUSH1 0x20 ADD PUSH1 0x40 MSTORE DUP1 PUSH32 0xE146C2986893C43AF5FF396310220BE92058FB9F4CE76B929B80EF0D5307100A PUSH0 SHL DUP2 MSTORE POP SWAP1 POP PUSH20 0x8F309C9550D0D69C3F9B8D7BCDC7C93B05CD089E PUSH20 0xFFFFFFFFFFFFFFFFFFFFFFFFFFFFFFFFFFFFFFFF AND PUSH4 0x331EBA82 DUP4 DUP4 PUSH1 0x40 MLOAD DUP4 PUSH4 0xFFFFFFFF AND PUSH1 0xE0 SHL DUP2 MSTORE PUSH1 0x4 ADD PUSH2 0x603 SWAP2 SWAP1 PUSH2 0x1AEC JUMP JUMPDEST PUSH0 PUSH1 0x40 MLOAD DUP1 DUP4 SUB DUP2 DUP6 DUP9 DUP1 EXTCODESIZE ISZERO DUP1 ISZERO PUSH2 0x61A JUMPI PUSH0 DUP1 REVERT JUMPDEST POP GAS CALL ISZERO DUP1 ISZERO PUSH2 0x62C JUMPI RETURNDATASIZE PUSH0 DUP1 RETURNDATACOPY RETURNDATASIZE PUSH0 REVERT JUMPDEST POP POP POP POP POP POP POP JUMP JUMPDEST PUSH0 DUP1 PUSH20 0x8F309C9550D0D69C3F9B8D7BCDC7C93B05CD089E PUSH20 0xFFFFFFFFFFFFFFFFFFFFFFFFFFFFFFFFFFFFFFFF AND PUSH4 0xFC043830 PUSH1 0x40 MLOAD DUP2 PUSH4 0xFFFFFFFF AND PUSH1 0xE0 SHL DUP2 MSTORE PUSH1 0x4 ADD PUSH1 0x20 PUSH1 0x40 MLOAD DUP1 DUP4 SUB DUP2 DUP7 GAS STATICCALL ISZERO DUP1 ISZERO PUSH2 0x694 JUMPI RETURNDATASIZE PUSH0 DUP1 RETURNDATACOPY RETURNDATASIZE PUSH0 REVERT JUMPDEST POP POP POP POP PUSH1 0x40 MLOAD RETURNDATASIZE PUSH1 0x1F NOT PUSH1 0x1F DUP3 ADD AND DUP3 ADD DUP1 PUSH1 0x40 MSTORE POP DUP2 ADD SWAP1 PUSH2 0x6B8 SWAP2 SWAP1 PUSH2 0x1A98 JUMP JUMPDEST DUP4 MLOAD PUSH2 0x6C4 SWAP2 SWAP1 PUSH2 0x1B05 JUMP JUMPDEST SWAP1 POP PUSH0 DUP2 PUSH20 0x8F309C9550D0D69C3F9B8D7BCDC7C93B05CD089E PUSH20 0xFFFFFFFFFFFFFFFFFFFFFFFFFFFFFFFFFFFFFFFF AND PUSH4 0x15E812AD PUSH1 0x40 MLOAD DUP2 PUSH4 0xFFFFFFFF AND PUSH1 0xE0 SHL DUP2 MSTORE PUSH1 0x4 ADD PUSH1 0x20 PUSH1 0x40 MLOAD DUP1 DUP4 SUB DUP2 DUP7 GAS STATICCALL ISZERO DUP1 ISZERO PUSH2 0x725 JUMPI RETURNDATASIZE PUSH0 DUP1 RETURNDATACOPY RETURNDATASIZE PUSH0 REVERT JUMPDEST POP POP POP POP PUSH1 0x40 MLOAD RETURNDATASIZE PUSH1 0x1F NOT PUSH1 0x1F DUP3 ADD AND DUP3 ADD DUP1 PUSH1 0x40 MSTORE POP DUP2 ADD SWAP1 PUSH2 0x749 SWAP2 SWAP1 PUSH2 0x1A98 JUMP JUMPDEST PUSH2 0x753 SWAP2 SWAP1 PUSH2 0x1B46 JUMP JUMPDEST SWAP1 POP DUP1 SWAP3 POP POP POP SWAP2 SWAP1 POP JUMP JUMPDEST PUSH1 0x60 PUSH2 0x76A DUP3 PUSH2 0x8C0 JUMP JUMPDEST SWAP1 POP SWAP2 SWAP1 POP JUMP JUMPDEST PUSH1 0x60 PUSH0 PUSH2 0x77D DUP9 PUSH2 0x93D JUMP JUMPDEST SWAP1 POP PUSH0 PUSH2 0x789 DUP9 PUSH2 0x93D JUMP JUMPDEST SWAP1 POP PUSH0 PUSH2 0x795 DUP9 PUSH2 0x93D JUMP JUMPDEST SWAP1 POP PUSH0 PUSH2 0x7B7 DUP9 PUSH20 0xFFFFFFFFFFFFFFFFFFFFFFFFFFFFFFFFFFFFFFFF AND PUSH2 0x957 JUMP JUMPDEST SWAP1 POP PUSH0 PUSH2 0x7C3 DUP9 PUSH2 0x93D JUMP JUMPDEST SWAP1 POP PUSH2 0x7D3 DUP6 DUP6 DUP6 DUP6 DUP6 DUP13 PUSH2 0x988 JUMP JUMPDEST SWAP6 POP POP POP POP POP POP SWAP7 SWAP6 POP POP POP POP POP POP JUMP JUMPDEST PUSH0 PUSH2 0x80D DUP4 PUSH1 0x40 MLOAD PUSH1 0x20 ADD PUSH2 0x7F9 SWAP2 SWAP1 PUSH2 0x1BCB JUMP JUMPDEST PUSH1 0x40 MLOAD PUSH1 0x20 DUP2 DUP4 SUB SUB DUP2 MSTORE SWAP1 PUSH1 0x40 MSTORE PUSH2 0x635 JUMP JUMPDEST SWAP1 POP PUSH0 PUSH1 0x40 MLOAD DUP1 PUSH1 0xA0 ADD PUSH1 0x40 MSTORE DUP1 DUP9 DUP2 MSTORE PUSH1 0x20 ADD DUP8 DUP2 MSTORE PUSH1 0x20 ADD DUP7 DUP2 MSTORE PUSH1 0x20 ADD DUP6 DUP2 MSTORE PUSH1 0x20 ADD DUP5 ISZERO ISZERO DUP2 MSTORE POP SWAP1 POP PUSH20 0x8F309C9550D0D69C3F9B8D7BCDC7C93B05CD089E PUSH20 0xFFFFFFFFFFFFFFFFFFFFFFFFFFFFFFFFFFFFFFFF AND PUSH4 0x93F874C4 DUP4 DUP4 PUSH1 0x40 MLOAD DUP4 PUSH4 0xFFFFFFFF AND PUSH1 0xE0 SHL DUP2 MSTORE PUSH1 0x4 ADD PUSH2 0x889 SWAP2 SWAP1 PUSH2 0x1CC4 JUMP JUMPDEST PUSH0 PUSH1 0x40 MLOAD DUP1 DUP4 SUB DUP2 DUP6 DUP9 DUP1 EXTCODESIZE ISZERO DUP1 ISZERO PUSH2 0x8A0 JUMPI PUSH0 DUP1 REVERT JUMPDEST POP GAS CALL ISZERO DUP1 ISZERO PUSH2 0x8B2 JUMPI RETURNDATASIZE PUSH0 DUP1 RETURNDATACOPY RETURNDATASIZE PUSH0 REVERT JUMPDEST POP POP POP POP POP POP POP POP POP POP POP POP JUMP JUMPDEST PUSH1 0x60 DUP1 PUSH1 0x1 DUP4 MLOAD EQ DUP1 ISZERO PUSH2 0x8F7 JUMPI POP PUSH1 0x80 DUP4 PUSH0 DUP2 MLOAD DUP2 LT PUSH2 0x8E4 JUMPI PUSH2 0x8E3 PUSH2 0x1CE4 JUMP JUMPDEST JUMPDEST PUSH1 0x20 ADD ADD MLOAD PUSH1 0xF8 SHR PUSH1 0xF8 SHL PUSH1 0xF8 SHR PUSH1 0xFF AND LT JUMPDEST ISZERO PUSH2 0x904 JUMPI DUP3 SWAP1 POP PUSH2 0x934 JUMP JUMPDEST PUSH2 0x910 DUP4 MLOAD PUSH1 0x80 PUSH2 0xB1E JUMP JUMPDEST DUP4 PUSH1 0x40 MLOAD PUSH1 0x20 ADD PUSH2 0x922 SWAP3 SWAP2 SWAP1 PUSH2 0x1D4B JUMP JUMPDEST PUSH1 0x40 MLOAD PUSH1 0x20 DUP2 DUP4 SUB SUB DUP2 MSTORE SWAP1 PUSH1 0x40 MSTORE SWAP1 POP JUMPDEST DUP1 SWAP2 POP POP SWAP2 SWAP1 POP JUMP JUMPDEST PUSH1 0x60 PUSH2 0x950 PUSH2 0x94B DUP4 PUSH2 0xD63 JUMP JUMPDEST PUSH2 0x8C0 JUMP JUMPDEST SWAP1 POP SWAP2 SWAP1 POP JUMP JUMPDEST PUSH1 0x60 PUSH2 0x981 DUP3 PUSH1 0x40 MLOAD PUSH1 0x20 ADD PUSH2 0x96D SWAP2 SWAP1 PUSH2 0x1DB3 JUMP JUMPDEST PUSH1 0x40 MLOAD PUSH1 0x20 DUP2 DUP4 SUB SUB DUP2 MSTORE SWAP1 PUSH1 0x40 MSTORE PUSH2 0x8C0 JUMP JUMPDEST SWAP1 POP SWAP2 SWAP1 POP JUMP JUMPDEST PUSH1 0x60 PUSH0 PUSH2 0x994 PUSH0 PUSH2 0x93D JUMP JUMPDEST SWAP1 POP PUSH0 PUSH1 0x9 PUSH8 0xFFFFFFFFFFFFFFFF DUP2 GT ISZERO PUSH2 0x9B2 JUMPI PUSH2 0x9B1 PUSH2 0x129D JUMP JUMPDEST JUMPDEST PUSH1 0x40 MLOAD SWAP1 DUP1 DUP3 MSTORE DUP1 PUSH1 0x20 MUL PUSH1 0x20 ADD DUP3 ADD PUSH1 0x40 MSTORE DUP1 ISZERO PUSH2 0x9E5 JUMPI DUP2 PUSH1 0x20 ADD JUMPDEST PUSH1 0x60 DUP2 MSTORE PUSH1 0x20 ADD SWAP1 PUSH1 0x1 SWAP1 SUB SWAP1 DUP2 PUSH2 0x9D0 JUMPI SWAP1 POP JUMPDEST POP SWAP1 POP DUP9 DUP2 PUSH0 DUP2 MLOAD DUP2 LT PUSH2 0x9FC JUMPI PUSH2 0x9FB PUSH2 0x1CE4 JUMP JUMPDEST JUMPDEST PUSH1 0x20 MUL PUSH1 0x20 ADD ADD DUP2 SWAP1 MSTORE POP DUP8 DUP2 PUSH1 0x1 DUP2 MLOAD DUP2 LT PUSH2 0xA1C JUMPI PUSH2 0xA1B PUSH2 0x1CE4 JUMP JUMPDEST JUMPDEST PUSH1 0x20 MUL PUSH1 0x20 ADD ADD DUP2 SWAP1 MSTORE POP DUP7 DUP2 PUSH1 0x2 DUP2 MLOAD DUP2 LT PUSH2 0xA3C JUMPI PUSH2 0xA3B PUSH2 0x1CE4 JUMP JUMPDEST JUMPDEST PUSH1 0x20 MUL PUSH1 0x20 ADD ADD DUP2 SWAP1 MSTORE POP DUP6 DUP2 PUSH1 0x3 DUP2 MLOAD DUP2 LT PUSH2 0xA5C JUMPI PUSH2 0xA5B PUSH2 0x1CE4 JUMP JUMPDEST JUMPDEST PUSH1 0x20 MUL PUSH1 0x20 ADD ADD DUP2 SWAP1 MSTORE POP DUP5 DUP2 PUSH1 0x4 DUP2 MLOAD DUP2 LT PUSH2 0xA7C JUMPI PUSH2 0xA7B PUSH2 0x1CE4 JUMP JUMPDEST JUMPDEST PUSH1 0x20 MUL PUSH1 0x20 ADD ADD DUP2 SWAP1 MSTORE POP DUP4 DUP2 PUSH1 0x5 DUP2 MLOAD DUP2 LT PUSH2 0xA9C JUMPI PUSH2 0xA9B PUSH2 0x1CE4 JUMP JUMPDEST JUMPDEST PUSH1 0x20 MUL PUSH1 0x20 ADD ADD DUP2 SWAP1 MSTORE POP DUP2 DUP2 PUSH1 0x6 DUP2 MLOAD DUP2 LT PUSH2 0xABC JUMPI PUSH2 0xABB PUSH2 0x1CE4 JUMP JUMPDEST JUMPDEST PUSH1 0x20 MUL PUSH1 0x20 ADD ADD DUP2 SWAP1 MSTORE POP DUP2 DUP2 PUSH1 0x7 DUP2 MLOAD DUP2 LT PUSH2 0xADC JUMPI PUSH2 0xADB PUSH2 0x1CE4 JUMP JUMPDEST JUMPDEST PUSH1 0x20 MUL PUSH1 0x20 ADD ADD DUP2 SWAP1 MSTORE POP DUP2 DUP2 PUSH1 0x8 DUP2 MLOAD DUP2 LT PUSH2 0xAFC JUMPI PUSH2 0xAFB PUSH2 0x1CE4 JUMP JUMPDEST JUMPDEST PUSH1 0x20 MUL PUSH1 0x20 ADD ADD DUP2 SWAP1 MSTORE POP PUSH2 0xB10 DUP2 PUSH2 0xED4 JUMP JUMPDEST SWAP3 POP POP POP SWAP7 SWAP6 POP POP POP POP POP POP JUMP JUMPDEST PUSH1 0x60 DUP1 PUSH1 0x38 DUP5 LT ISZERO PUSH2 0xBCF JUMPI PUSH1 0x1 PUSH8 0xFFFFFFFFFFFFFFFF DUP2 GT ISZERO PUSH2 0xB45 JUMPI PUSH2 0xB44 PUSH2 0x129D JUMP JUMPDEST JUMPDEST PUSH1 0x40 MLOAD SWAP1 DUP1 DUP3 MSTORE DUP1 PUSH1 0x1F ADD PUSH1 0x1F NOT AND PUSH1 0x20 ADD DUP3 ADD PUSH1 0x40 MSTORE DUP1 ISZERO PUSH2 0xB77 JUMPI DUP2 PUSH1 0x20 ADD PUSH1 0x1 DUP3 MUL DUP1 CALLDATASIZE DUP4 CALLDATACOPY DUP1 DUP3 ADD SWAP2 POP POP SWAP1 POP JUMPDEST POP SWAP1 POP DUP3 DUP5 PUSH2 0xB86 SWAP2 SWAP1 PUSH2 0x1DD9 JUMP JUMPDEST PUSH1 0xF8 SHL DUP2 PUSH0 DUP2 MLOAD DUP2 LT PUSH2 0xB9C JUMPI PUSH2 0xB9B PUSH2 0x1CE4 JUMP JUMPDEST JUMPDEST PUSH1 0x20 ADD ADD SWAP1 PUSH31 0xFFFFFFFFFFFFFFFFFFFFFFFFFFFFFFFFFFFFFFFFFFFFFFFFFFFFFFFFFFFFFF NOT AND SWAP1 DUP2 PUSH0 BYTE SWAP1 MSTORE8 POP PUSH2 0xD59 JUMP JUMPDEST PUSH0 DUP1 PUSH1 0x1 SWAP1 POP JUMPDEST PUSH0 DUP2 DUP8 PUSH2 0xBE3 SWAP2 SWAP1 PUSH2 0x1E3A JUMP JUMPDEST EQ PUSH2 0xC0B JUMPI DUP2 DUP1 PUSH2 0xBF3 SWAP1 PUSH2 0x1A3D JUMP JUMPDEST SWAP3 POP POP PUSH2 0x100 DUP2 PUSH2 0xC04 SWAP2 SWAP1 PUSH2 0x1B05 JUMP JUMPDEST SWAP1 POP PUSH2 0xBD6 JUMP JUMPDEST PUSH1 0x1 DUP3 PUSH2 0xC18 SWAP2 SWAP1 PUSH2 0x1B46 JUMP JUMPDEST PUSH8 0xFFFFFFFFFFFFFFFF DUP2 GT ISZERO PUSH2 0xC31 JUMPI PUSH2 0xC30 PUSH2 0x129D JUMP JUMPDEST JUMPDEST PUSH1 0x40 MLOAD SWAP1 DUP1 DUP3 MSTORE DUP1 PUSH1 0x1F ADD PUSH1 0x1F NOT AND PUSH1 0x20 ADD DUP3 ADD PUSH1 0x40 MSTORE DUP1 ISZERO PUSH2 0xC63 JUMPI DUP2 PUSH1 0x20 ADD PUSH1 0x1 DUP3 MUL DUP1 CALLDATASIZE DUP4 CALLDATACOPY DUP1 DUP3 ADD SWAP2 POP POP SWAP1 POP JUMPDEST POP SWAP3 POP PUSH1 0x37 DUP6 DUP4 PUSH2 0xC74 SWAP2 SWAP1 PUSH2 0x1DD9 JUMP JUMPDEST PUSH2 0xC7E SWAP2 SWAP1 PUSH2 0x1DD9 JUMP JUMPDEST PUSH1 0xF8 SHL DUP4 PUSH0 DUP2 MLOAD DUP2 LT PUSH2 0xC94 JUMPI PUSH2 0xC93 PUSH2 0x1CE4 JUMP JUMPDEST JUMPDEST PUSH1 0x20 ADD ADD SWAP1 PUSH31 0xFFFFFFFFFFFFFFFFFFFFFFFFFFFFFFFFFFFFFFFFFFFFFFFFFFFFFFFFFFFFFF NOT AND SWAP1 DUP2 PUSH0 BYTE SWAP1 MSTORE8 POP PUSH1 0x1 SWAP1 POP JUMPDEST DUP2 DUP2 GT PUSH2 0xD56 JUMPI PUSH2 0x100 DUP2 DUP4 PUSH2 0xCDD SWAP2 SWAP1 PUSH2 0x1E6A JUMP JUMPDEST PUSH2 0x100 PUSH2 0xCEA SWAP2 SWAP1 PUSH2 0x1FCC JUMP JUMPDEST DUP8 PUSH2 0xCF5 SWAP2 SWAP1 PUSH2 0x1E3A JUMP JUMPDEST PUSH2 0xCFF SWAP2 SWAP1 PUSH2 0x2016 JUMP JUMPDEST PUSH1 0xF8 SHL DUP4 DUP3 DUP2 MLOAD DUP2 LT PUSH2 0xD15 JUMPI PUSH2 0xD14 PUSH2 0x1CE4 JUMP JUMPDEST JUMPDEST PUSH1 0x20 ADD ADD SWAP1 PUSH31 0xFFFFFFFFFFFFFFFFFFFFFFFFFFFFFFFFFFFFFFFFFFFFFFFFFFFFFFFFFFFFFF NOT AND SWAP1 DUP2 PUSH0 BYTE SWAP1 MSTORE8 POP DUP1 DUP1 PUSH2 0xD4E SWAP1 PUSH2 0x1A3D JUMP JUMPDEST SWAP2 POP POP PUSH2 0xCC7 JUMP JUMPDEST POP POP JUMPDEST DUP1 SWAP2 POP POP SWAP3 SWAP2 POP POP JUMP JUMPDEST PUSH1 0x60 PUSH0 DUP3 PUSH1 0x40 MLOAD PUSH1 0x20 ADD PUSH2 0xD77 SWAP2 SWAP1 PUSH2 0x2066 JUMP JUMPDEST PUSH1 0x40 MLOAD PUSH1 0x20 DUP2 DUP4 SUB SUB DUP2 MSTORE SWAP1 PUSH1 0x40 MSTORE SWAP1 POP PUSH0 JUMPDEST PUSH1 0x20 DUP2 LT ISZERO PUSH2 0xDE9 JUMPI PUSH0 PUSH1 0xF8 SHL DUP3 DUP3 DUP2 MLOAD DUP2 LT PUSH2 0xDAA JUMPI PUSH2 0xDA9 PUSH2 0x1CE4 JUMP JUMPDEST JUMPDEST PUSH1 0x20 ADD ADD MLOAD PUSH1 0xF8 SHR PUSH1 0xF8 SHL PUSH31 0xFFFFFFFFFFFFFFFFFFFFFFFFFFFFFFFFFFFFFFFFFFFFFFFFFFFFFFFFFFFFFF NOT AND SUB PUSH2 0xDE9 JUMPI DUP1 DUP1 PUSH1 0x1 ADD SWAP2 POP POP PUSH2 0xD8A JUMP JUMPDEST PUSH0 DUP2 PUSH1 0x20 PUSH2 0xDF7 SWAP2 SWAP1 PUSH2 0x1E6A JUMP JUMPDEST PUSH8 0xFFFFFFFFFFFFFFFF DUP2 GT ISZERO PUSH2 0xE10 JUMPI PUSH2 0xE0F PUSH2 0x129D JUMP JUMPDEST JUMPDEST PUSH1 0x40 MLOAD SWAP1 DUP1 DUP3 MSTORE DUP1 PUSH1 0x1F ADD PUSH1 0x1F NOT AND PUSH1 0x20 ADD DUP3 ADD PUSH1 0x40 MSTORE DUP1 ISZERO PUSH2 0xE42 JUMPI DUP2 PUSH1 0x20 ADD PUSH1 0x1 DUP3 MUL DUP1 CALLDATASIZE DUP4 CALLDATACOPY DUP1 DUP3 ADD SWAP2 POP POP SWAP1 POP JUMPDEST POP SWAP1 POP PUSH0 JUMPDEST DUP2 MLOAD DUP2 LT ISZERO PUSH2 0xEC8 JUMPI DUP4 DUP4 DUP1 PUSH2 0xE5C SWAP1 PUSH2 0x1A3D JUMP JUMPDEST SWAP5 POP DUP2 MLOAD DUP2 LT PUSH2 0xE6F JUMPI PUSH2 0xE6E PUSH2 0x1CE4 JUMP JUMPDEST JUMPDEST PUSH1 0x20 ADD ADD MLOAD PUSH1 0xF8 SHR PUSH1 0xF8 SHL DUP3 DUP3 DUP2 MLOAD DUP2 LT PUSH2 0xE8D JUMPI PUSH2 0xE8C PUSH2 0x1CE4 JUMP JUMPDEST JUMPDEST PUSH1 0x20 ADD ADD SWAP1 PUSH31 0xFFFFFFFFFFFFFFFFFFFFFFFFFFFFFFFFFFFFFFFFFFFFFFFFFFFFFFFFFFFFFF NOT AND SWAP1 DUP2 PUSH0 BYTE SWAP1 MSTORE8 POP DUP1 DUP1 PUSH1 0x1 ADD SWAP2 POP POP PUSH2 0xE47 JUMP JUMPDEST POP DUP1 SWAP4 POP POP POP POP SWAP2 SWAP1 POP JUMP JUMPDEST PUSH1 0x60 PUSH0 PUSH2 0xEE0 DUP4 PUSH2 0xF17 JUMP JUMPDEST SWAP1 POP PUSH2 0xEEE DUP2 MLOAD PUSH1 0xC0 PUSH2 0xB1E JUMP JUMPDEST DUP2 PUSH1 0x40 MLOAD PUSH1 0x20 ADD PUSH2 0xF00 SWAP3 SWAP2 SWAP1 PUSH2 0x1D4B JUMP JUMPDEST PUSH1 0x40 MLOAD PUSH1 0x20 DUP2 DUP4 SUB SUB DUP2 MSTORE SWAP1 PUSH1 0x40 MSTORE SWAP2 POP POP SWAP2 SWAP1 POP JUMP JUMPDEST PUSH1 0x60 PUSH0 DUP3 MLOAD SUB PUSH2 0xF75 JUMPI PUSH0 PUSH8 0xFFFFFFFFFFFFFFFF DUP2 GT ISZERO PUSH2 0xF3B JUMPI PUSH2 0xF3A PUSH2 0x129D JUMP JUMPDEST JUMPDEST PUSH1 0x40 MLOAD SWAP1 DUP1 DUP3 MSTORE DUP1 PUSH1 0x1F ADD PUSH1 0x1F NOT AND PUSH1 0x20 ADD DUP3 ADD PUSH1 0x40 MSTORE DUP1 ISZERO PUSH2 0xF6D JUMPI DUP2 PUSH1 0x20 ADD PUSH1 0x1 DUP3 MUL DUP1 CALLDATASIZE DUP4 CALLDATACOPY DUP1 DUP3 ADD SWAP2 POP POP SWAP1 POP JUMPDEST POP SWAP1 POP PUSH2 0x108F JUMP JUMPDEST PUSH0 DUP1 PUSH0 SWAP1 POP JUMPDEST DUP4 MLOAD DUP2 LT ISZERO PUSH2 0xFBA JUMPI DUP4 DUP2 DUP2 MLOAD DUP2 LT PUSH2 0xF97 JUMPI PUSH2 0xF96 PUSH2 0x1CE4 JUMP JUMPDEST JUMPDEST PUSH1 0x20 MUL PUSH1 0x20 ADD ADD MLOAD MLOAD DUP3 PUSH2 0xFAB SWAP2 SWAP1 PUSH2 0x1B46 JUMP JUMPDEST SWAP2 POP DUP1 DUP1 PUSH1 0x1 ADD SWAP2 POP POP PUSH2 0xF7B JUMP JUMPDEST PUSH0 DUP3 PUSH8 0xFFFFFFFFFFFFFFFF DUP2 GT ISZERO PUSH2 0xFD5 JUMPI PUSH2 0xFD4 PUSH2 0x129D JUMP JUMPDEST JUMPDEST PUSH1 0x40 MLOAD SWAP1 DUP1 DUP3 MSTORE DUP1 PUSH1 0x1F ADD PUSH1 0x1F NOT AND PUSH1 0x20 ADD DUP3 ADD PUSH1 0x40 MSTORE DUP1 ISZERO PUSH2 0x1007 JUMPI DUP2 PUSH1 0x20 ADD PUSH1 0x1 DUP3 MUL DUP1 CALLDATASIZE DUP4 CALLDATACOPY DUP1 DUP3 ADD SWAP2 POP POP SWAP1 POP JUMPDEST POP SWAP1 POP PUSH0 PUSH1 0x20 DUP3 ADD SWAP1 POP PUSH0 SWAP3 POP JUMPDEST DUP6 MLOAD DUP4 LT ISZERO PUSH2 0x1087 JUMPI PUSH0 DUP7 DUP5 DUP2 MLOAD DUP2 LT PUSH2 0x1032 JUMPI PUSH2 0x1031 PUSH2 0x1CE4 JUMP JUMPDEST JUMPDEST PUSH1 0x20 MUL PUSH1 0x20 ADD ADD MLOAD SWAP1 POP PUSH0 PUSH1 0x20 DUP3 ADD SWAP1 POP PUSH2 0x104F DUP4 DUP3 DUP5 MLOAD PUSH2 0x1094 JUMP JUMPDEST DUP8 DUP6 DUP2 MLOAD DUP2 LT PUSH2 0x1062 JUMPI PUSH2 0x1061 PUSH2 0x1CE4 JUMP JUMPDEST JUMPDEST PUSH1 0x20 MUL PUSH1 0x20 ADD ADD MLOAD MLOAD DUP4 PUSH2 0x1076 SWAP2 SWAP1 PUSH2 0x1B46 JUMP JUMPDEST SWAP3 POP POP POP DUP3 DUP1 PUSH1 0x1 ADD SWAP4 POP POP PUSH2 0x1015 JUMP JUMPDEST DUP2 SWAP5 POP POP POP POP POP JUMPDEST SWAP2 SWAP1 POP JUMP JUMPDEST PUSH0 DUP4 SWAP1 POP PUSH0 DUP4 SWAP1 POP PUSH0 DUP4 SWAP1 POP JUMPDEST PUSH1 0x20 DUP2 LT PUSH2 0x10DF JUMPI DUP2 MLOAD DUP4 MSTORE PUSH1 0x20 DUP4 PUSH2 0x10BA SWAP2 SWAP1 PUSH2 0x1B46 JUMP JUMPDEST SWAP3 POP PUSH1 0x20 DUP3 PUSH2 0x10C9 SWAP2 SWAP1 PUSH2 0x1B46 JUMP JUMPDEST SWAP2 POP PUSH1 0x20 DUP2 PUSH2 0x10D8 SWAP2 SWAP1 PUSH2 0x1E6A JUMP JUMPDEST SWAP1 POP PUSH2 0x10A1 JUMP JUMPDEST PUSH0 PUSH1 0x1 DUP3 PUSH1 0x20 SUB PUSH2 0x100 EXP SUB SWAP1 POP DUP1 NOT DUP4 MLOAD AND DUP2 DUP6 MLOAD AND DUP2 DUP2 OR DUP7 MSTORE POP POP POP POP POP POP POP POP POP JUMP JUMPDEST PUSH0 DUP2 SWAP1 POP SWAP2 SWAP1 POP JUMP JUMPDEST PUSH2 0x1118 DUP2 PUSH2 0x1106 JUMP JUMPDEST DUP3 MSTORE POP POP JUMP JUMPDEST PUSH0 PUSH1 0x40 DUP3 ADD SWAP1 POP PUSH2 0x1131 PUSH0 DUP4 ADD DUP6 PUSH2 0x110F JUMP JUMPDEST PUSH2 0x113E PUSH1 0x20 DUP4 ADD DUP5 PUSH2 0x110F JUMP JUMPDEST SWAP4 SWAP3 POP POP POP JUMP JUMPDEST PUSH0 PUSH1 0x40 MLOAD SWAP1 POP SWAP1 JUMP JUMPDEST PUSH0 DUP1 REVERT JUMPDEST PUSH0 DUP1 REVERT JUMPDEST PUSH2 0x115F DUP2 PUSH2 0x1106 JUMP JUMPDEST DUP2 EQ PUSH2 0x1169 JUMPI PUSH0 DUP1 REVERT JUMPDEST POP JUMP JUMPDEST PUSH0 DUP2 CALLDATALOAD SWAP1 POP PUSH2 0x117A DUP2 PUSH2 0x1156 JUMP JUMPDEST SWAP3 SWAP2 POP POP JUMP JUMPDEST PUSH0 PUSH1 0x20 DUP3 DUP5 SUB SLT ISZERO PUSH2 0x1195 JUMPI PUSH2 0x1194 PUSH2 0x114E JUMP JUMPDEST JUMPDEST PUSH0 PUSH2 0x11A2 DUP5 DUP3 DUP6 ADD PUSH2 0x116C JUMP JUMPDEST SWAP2 POP POP SWAP3 SWAP2 POP POP JUMP JUMPDEST PUSH0 DUP2 MLOAD SWAP1 POP SWAP2 SWAP1 POP JUMP JUMPDEST PUSH0 DUP3 DUP3 MSTORE PUSH1 0x20 DUP3 ADD SWAP1 POP SWAP3 SWAP2 POP POP JUMP JUMPDEST DUP3 DUP2 DUP4 MCOPY PUSH0 DUP4 DUP4 ADD MSTORE POP POP POP JUMP JUMPDEST PUSH0 PUSH1 0x1F NOT PUSH1 0x1F DUP4 ADD AND SWAP1 POP SWAP2 SWAP1 POP JUMP JUMPDEST PUSH0 PUSH2 0x11ED DUP3 PUSH2 0x11AB JUMP JUMPDEST PUSH2 0x11F7 DUP2 DUP6 PUSH2 0x11B5 JUMP JUMPDEST SWAP4 POP PUSH2 0x1207 DUP2 DUP6 PUSH1 0x20 DUP7 ADD PUSH2 0x11C5 JUMP JUMPDEST PUSH2 0x1210 DUP2 PUSH2 0x11D3 JUMP JUMPDEST DUP5 ADD SWAP2 POP POP SWAP3 SWAP2 POP POP JUMP JUMPDEST PUSH0 PUSH1 0x20 DUP3 ADD SWAP1 POP DUP2 DUP2 SUB PUSH0 DUP4 ADD MSTORE PUSH2 0x1233 DUP2 DUP5 PUSH2 0x11E3 JUMP JUMPDEST SWAP1 POP SWAP3 SWAP2 POP POP JUMP JUMPDEST PUSH0 PUSH20 0xFFFFFFFFFFFFFFFFFFFFFFFFFFFFFFFFFFFFFFFF DUP3 AND SWAP1 POP SWAP2 SWAP1 POP JUMP JUMPDEST PUSH0 PUSH2 0x1264 DUP3 PUSH2 0x123B JUMP JUMPDEST SWAP1 POP SWAP2 SWAP1 POP JUMP JUMPDEST PUSH2 0x1274 DUP2 PUSH2 0x125A JUMP JUMPDEST DUP2 EQ PUSH2 0x127E JUMPI PUSH0 DUP1 REVERT JUMPDEST POP JUMP JUMPDEST PUSH0 DUP2 CALLDATALOAD SWAP1 POP PUSH2 0x128F DUP2 PUSH2 0x126B JUMP JUMPDEST SWAP3 SWAP2 POP POP JUMP JUMPDEST PUSH0 DUP1 REVERT JUMPDEST PUSH0 DUP1 REVERT JUMPDEST PUSH32 0x4E487B7100000000000000000000000000000000000000000000000000000000 PUSH0 MSTORE PUSH1 0x41 PUSH1 0x4 MSTORE PUSH1 0x24 PUSH0 REVERT JUMPDEST PUSH2 0x12D3 DUP3 PUSH2 0x11D3 JUMP JUMPDEST DUP2 ADD DUP2 DUP2 LT PUSH8 0xFFFFFFFFFFFFFFFF DUP3 GT OR ISZERO PUSH2 0x12F2 JUMPI PUSH2 0x12F1 PUSH2 0x129D JUMP JUMPDEST JUMPDEST DUP1 PUSH1 0x40 MSTORE POP POP POP JUMP JUMPDEST PUSH0 PUSH2 0x1304 PUSH2 0x1145 JUMP JUMPDEST SWAP1 POP PUSH2 0x1310 DUP3 DUP3 PUSH2 0x12CA JUMP JUMPDEST SWAP2 SWAP1 POP JUMP JUMPDEST PUSH0 PUSH8 0xFFFFFFFFFFFFFFFF DUP3 GT ISZERO PUSH2 0x132F JUMPI PUSH2 0x132E PUSH2 0x129D JUMP JUMPDEST JUMPDEST PUSH2 0x1338 DUP3 PUSH2 0x11D3 JUMP JUMPDEST SWAP1 POP PUSH1 0x20 DUP2 ADD SWAP1 POP SWAP2 SWAP1 POP JUMP JUMPDEST DUP3 DUP2 DUP4 CALLDATACOPY PUSH0 DUP4 DUP4 ADD MSTORE POP POP POP JUMP JUMPDEST PUSH0 PUSH2 0x1365 PUSH2 0x1360 DUP5 PUSH2 0x1315 JUMP JUMPDEST PUSH2 0x12FB JUMP JUMPDEST SWAP1 POP DUP3 DUP2 MSTORE PUSH1 0x20 DUP2 ADD DUP5 DUP5 DUP5 ADD GT ISZERO PUSH2 0x1381 JUMPI PUSH2 0x1380 PUSH2 0x1299 JUMP JUMPDEST JUMPDEST PUSH2 0x138C DUP5 DUP3 DUP6 PUSH2 0x1345 JUMP JUMPDEST POP SWAP4 SWAP3 POP POP POP JUMP JUMPDEST PUSH0 DUP3 PUSH1 0x1F DUP4 ADD SLT PUSH2 0x13A8 JUMPI PUSH2 0x13A7 PUSH2 0x1295 JUMP JUMPDEST JUMPDEST DUP2 CALLDATALOAD PUSH2 0x13B8 DUP5 DUP3 PUSH1 0x20 DUP7 ADD PUSH2 0x1353 JUMP JUMPDEST SWAP2 POP POP SWAP3 SWAP2 POP POP JUMP JUMPDEST PUSH0 DUP1 PUSH0 DUP1 PUSH0 DUP1 PUSH0 PUSH1 0xE0 DUP9 DUP11 SUB SLT ISZERO PUSH2 0x13DC JUMPI PUSH2 0x13DB PUSH2 0x114E JUMP JUMPDEST JUMPDEST PUSH0 PUSH2 0x13E9 DUP11 DUP3 DUP12 ADD PUSH2 0x116C JUMP JUMPDEST SWAP8 POP POP PUSH1 0x20 PUSH2 0x13FA DUP11 DUP3 DUP12 ADD PUSH2 0x1281 JUMP JUMPDEST SWAP7 POP POP PUSH1 0x40 PUSH2 0x140B DUP11 DUP3 DUP12 ADD PUSH2 0x116C JUMP JUMPDEST SWAP6 POP POP PUSH1 0x60 PUSH2 0x141C DUP11 DUP3 DUP12 ADD PUSH2 0x116C JUMP JUMPDEST SWAP5 POP POP PUSH1 0x80 PUSH2 0x142D DUP11 DUP3 DUP12 ADD PUSH2 0x116C JUMP JUMPDEST SWAP4 POP POP PUSH1 0xA0 PUSH2 0x143E DUP11 DUP3 DUP12 ADD PUSH2 0x116C JUMP JUMPDEST SWAP3 POP POP PUSH1 0xC0 DUP9 ADD CALLDATALOAD PUSH8 0xFFFFFFFFFFFFFFFF DUP2 GT ISZERO PUSH2 0x145F JUMPI PUSH2 0x145E PUSH2 0x1152 JUMP JUMPDEST JUMPDEST PUSH2 0x146B DUP11 DUP3 DUP12 ADD PUSH2 0x1394 JUMP JUMPDEST SWAP2 POP POP SWAP3 SWAP6 SWAP9 SWAP2 SWAP5 SWAP8 POP SWAP3 SWAP6 POP JUMP JUMPDEST PUSH0 DUP2 ISZERO ISZERO SWAP1 POP SWAP2 SWAP1 POP JUMP JUMPDEST PUSH2 0x148E DUP2 PUSH2 0x147A JUMP JUMPDEST DUP2 EQ PUSH2 0x1498 JUMPI PUSH0 DUP1 REVERT JUMPDEST POP JUMP JUMPDEST PUSH0 DUP2 CALLDATALOAD SWAP1 POP PUSH2 0x14A9 DUP2 PUSH2 0x1485 JUMP JUMPDEST SWAP3 SWAP2 POP POP JUMP JUMPDEST PUSH0 DUP1 PUSH0 DUP1 PUSH0 DUP1 PUSH0 DUP1 PUSH2 0x100 DUP10 DUP12 SUB SLT ISZERO PUSH2 0x14CC JUMPI PUSH2 0x14CB PUSH2 0x114E JUMP JUMPDEST JUMPDEST PUSH0 PUSH2 0x14D9 DUP12 DUP3 DUP13 ADD PUSH2 0x116C JUMP JUMPDEST SWAP9 POP POP PUSH1 0x20 PUSH2 0x14EA DUP12 DUP3 DUP13 ADD PUSH2 0x1281 JUMP JUMPDEST SWAP8 POP POP PUSH1 0x40 PUSH2 0x14FB DUP12 DUP3 DUP13 ADD PUSH2 0x116C JUMP JUMPDEST SWAP7 POP POP PUSH1 0x60 PUSH2 0x150C DUP12 DUP3 DUP13 ADD PUSH2 0x116C JUMP JUMPDEST SWAP6 POP POP PUSH1 0x80 PUSH2 0x151D DUP12 DUP3 DUP13 ADD PUSH2 0x116C JUMP JUMPDEST SWAP5 POP POP PUSH1 0xA0 PUSH2 0x152E DUP12 DUP3 DUP13 ADD PUSH2 0x116C JUMP JUMPDEST SWAP4 POP POP PUSH1 0xC0 DUP10 ADD CALLDATALOAD PUSH8 0xFFFFFFFFFFFFFFFF DUP2 GT ISZERO PUSH2 0x154F JUMPI PUSH2 0x154E PUSH2 0x1152 JUMP JUMPDEST JUMPDEST PUSH2 0x155B DUP12 DUP3 DUP13 ADD PUSH2 0x1394 JUMP JUMPDEST SWAP3 POP POP PUSH1 0xE0 PUSH2 0x156C DUP12 DUP3 DUP13 ADD PUSH2 0x149B JUMP JUMPDEST SWAP2 POP POP SWAP3 SWAP6 SWAP9 POP SWAP3 SWAP6 SWAP9 SWAP1 SWAP4 SWAP7 POP JUMP JUMPDEST PUSH0 DUP2 MLOAD SWAP1 POP SWAP2 SWAP1 POP JUMP JUMPDEST PUSH0 DUP3 DUP3 MSTORE PUSH1 0x20 DUP3 ADD SWAP1 POP SWAP3 SWAP2 POP POP JUMP JUMPDEST PUSH0 DUP2 SWAP1 POP PUSH1 0x20 DUP3 ADD SWAP1 POP SWAP2 SWAP1 POP JUMP JUMPDEST PUSH0 DUP3 DUP3 MSTORE PUSH1 0x20 DUP3 ADD SWAP1 POP SWAP3 SWAP2 POP POP JUMP JUMPDEST PUSH0 PUSH2 0x15BF DUP3 PUSH2 0x11AB JUMP JUMPDEST PUSH2 0x15C9 DUP2 DUP6 PUSH2 0x15A5 JUMP JUMPDEST SWAP4 POP PUSH2 0x15D9 DUP2 DUP6 PUSH1 0x20 DUP7 ADD PUSH2 0x11C5 JUMP JUMPDEST PUSH2 0x15E2 DUP2 PUSH2 0x11D3 JUMP JUMPDEST DUP5 ADD SWAP2 POP POP SWAP3 SWAP2 POP POP JUMP JUMPDEST PUSH0 PUSH2 0x15F8 DUP4 DUP4 PUSH2 0x15B5 JUMP JUMPDEST SWAP1 POP SWAP3 SWAP2 POP POP JUMP JUMPDEST PUSH0 PUSH1 0x20 DUP3 ADD SWAP1 POP SWAP2 SWAP1 POP JUMP JUMPDEST PUSH0 PUSH2 0x1616 DUP3 PUSH2 0x157C JUMP JUMPDEST PUSH2 0x1620 DUP2 DUP6 PUSH2 0x1586 JUMP JUMPDEST SWAP4 POP DUP4 PUSH1 0x20 DUP3 MUL DUP6 ADD PUSH2 0x1632 DUP6 PUSH2 0x1596 JUMP JUMPDEST DUP1 PUSH0 JUMPDEST DUP6 DUP2 LT ISZERO PUSH2 0x166D JUMPI DUP5 DUP5 SUB DUP10 MSTORE DUP2 MLOAD PUSH2 0x164E DUP6 DUP3 PUSH2 0x15ED JUMP JUMPDEST SWAP5 POP PUSH2 0x1659 DUP4 PUSH2 0x1600 JUMP JUMPDEST SWAP3 POP PUSH1 0x20 DUP11 ADD SWAP10 POP POP PUSH1 0x1 DUP2 ADD SWAP1 POP PUSH2 0x1635 JUMP JUMPDEST POP DUP3 SWAP8 POP DUP8 SWAP6 POP POP POP POP POP POP SWAP3 SWAP2 POP POP JUMP JUMPDEST PUSH0 PUSH1 0x20 DUP3 ADD SWAP1 POP DUP2 DUP2 SUB PUSH0 DUP4 ADD MSTORE PUSH2 0x1697 DUP2 DUP5 PUSH2 0x160C JUMP JUMPDEST SWAP1 POP SWAP3 SWAP2 POP POP JUMP JUMPDEST PUSH0 DUP1 PUSH0 DUP1 PUSH1 0x80 DUP6 DUP8 SUB SLT ISZERO PUSH2 0x16B7 JUMPI PUSH2 0x16B6 PUSH2 0x114E JUMP JUMPDEST JUMPDEST PUSH0 PUSH2 0x16C4 DUP8 DUP3 DUP9 ADD PUSH2 0x116C JUMP JUMPDEST SWAP5 POP POP PUSH1 0x20 PUSH2 0x16D5 DUP8 DUP3 DUP9 ADD PUSH2 0x1281 JUMP JUMPDEST SWAP4 POP POP PUSH1 0x40 PUSH2 0x16E6 DUP8 DUP3 DUP9 ADD PUSH2 0x116C JUMP JUMPDEST SWAP3 POP POP PUSH1 0x60 DUP6 ADD CALLDATALOAD PUSH8 0xFFFFFFFFFFFFFFFF DUP2 GT ISZERO PUSH2 0x1707 JUMPI PUSH2 0x1706 PUSH2 0x1152 JUMP JUMPDEST JUMPDEST PUSH2 0x1713 DUP8 DUP3 DUP9 ADD PUSH2 0x1394 JUMP JUMPDEST SWAP2 POP POP SWAP3 SWAP6 SWAP2 SWAP5 POP SWAP3 POP JUMP JUMPDEST PUSH0 PUSH1 0x20 DUP3 DUP5 SUB SLT ISZERO PUSH2 0x1734 JUMPI PUSH2 0x1733 PUSH2 0x114E JUMP JUMPDEST JUMPDEST PUSH0 DUP3 ADD CALLDATALOAD PUSH8 0xFFFFFFFFFFFFFFFF DUP2 GT ISZERO PUSH2 0x1751 JUMPI PUSH2 0x1750 PUSH2 0x1152 JUMP JUMPDEST JUMPDEST PUSH2 0x175D DUP5 DUP3 DUP6 ADD PUSH2 0x1394 JUMP JUMPDEST SWAP2 POP POP SWAP3 SWAP2 POP POP JUMP JUMPDEST PUSH0 PUSH1 0x20 DUP3 ADD SWAP1 POP PUSH2 0x1779 PUSH0 DUP4 ADD DUP5 PUSH2 0x110F JUMP JUMPDEST SWAP3 SWAP2 POP POP JUMP JUMPDEST PUSH0 DUP2 SWAP1 POP SWAP2 SWAP1 POP JUMP JUMPDEST PUSH2 0x1791 DUP2 PUSH2 0x177F JUMP JUMPDEST DUP3 MSTORE POP POP JUMP JUMPDEST PUSH2 0x17A0 DUP2 PUSH2 0x125A JUMP JUMPDEST DUP3 MSTORE POP POP JUMP JUMPDEST PUSH0 PUSH1 0x60 DUP3 ADD SWAP1 POP PUSH2 0x17B9 PUSH0 DUP4 ADD DUP7 PUSH2 0x1788 JUMP JUMPDEST PUSH2 0x17C6 PUSH1 0x20 DUP4 ADD DUP6 PUSH2 0x1797 JUMP JUMPDEST PUSH2 0x17D3 PUSH1 0x40 DUP4 ADD DUP5 PUSH2 0x110F JUMP JUMPDEST SWAP5 SWAP4 POP POP POP POP JUMP JUMPDEST PUSH0 PUSH8 0xFFFFFFFFFFFFFFFF DUP3 GT ISZERO PUSH2 0x17F5 JUMPI PUSH2 0x17F4 PUSH2 0x129D JUMP JUMPDEST JUMPDEST PUSH2 0x17FE DUP3 PUSH2 0x11D3 JUMP JUMPDEST SWAP1 POP PUSH1 0x20 DUP2 ADD SWAP1 POP SWAP2 SWAP1 POP JUMP JUMPDEST PUSH0 PUSH2 0x181D PUSH2 0x1818 DUP5 PUSH2 0x17DB JUMP JUMPDEST PUSH2 0x12FB JUMP JUMPDEST SWAP1 POP DUP3 DUP2 MSTORE PUSH1 0x20 DUP2 ADD DUP5 DUP5 DUP5 ADD GT ISZERO PUSH2 0x1839 JUMPI PUSH2 0x1838 PUSH2 0x1299 JUMP JUMPDEST JUMPDEST PUSH2 0x1844 DUP5 DUP3 DUP6 PUSH2 0x11C5 JUMP JUMPDEST POP SWAP4 SWAP3 POP POP POP JUMP JUMPDEST PUSH0 DUP3 PUSH1 0x1F DUP4 ADD SLT PUSH2 0x1860 JUMPI PUSH2 0x185F PUSH2 0x1295 JUMP JUMPDEST JUMPDEST DUP2 MLOAD PUSH2 0x1870 DUP5 DUP3 PUSH1 0x20 DUP7 ADD PUSH2 0x180B JUMP JUMPDEST SWAP2 POP POP SWAP3 SWAP2 POP POP JUMP JUMPDEST PUSH0 PUSH1 0x20 DUP3 DUP5 SUB SLT ISZERO PUSH2 0x188E JUMPI PUSH2 0x188D PUSH2 0x114E JUMP JUMPDEST JUMPDEST PUSH0 DUP3 ADD MLOAD PUSH8 0xFFFFFFFFFFFFFFFF DUP2 GT ISZERO PUSH2 0x18AB JUMPI PUSH2 0x18AA PUSH2 0x1152 JUMP JUMPDEST JUMPDEST PUSH2 0x18B7 DUP5 DUP3 DUP6 ADD PUSH2 0x184C JUMP JUMPDEST SWAP2 POP POP SWAP3 SWAP2 POP POP JUMP JUMPDEST PUSH0 PUSH1 0x40 DUP3 ADD SWAP1 POP PUSH2 0x18D3 PUSH0 DUP4 ADD DUP6 PUSH2 0x1788 JUMP JUMPDEST PUSH2 0x18E0 PUSH1 0x20 DUP4 ADD DUP5 PUSH2 0x1797 JUMP JUMPDEST SWAP4 SWAP3 POP POP POP JUMP JUMPDEST PUSH0 PUSH8 0xFFFFFFFFFFFFFFFF DUP3 GT ISZERO PUSH2 0x1901 JUMPI PUSH2 0x1900 PUSH2 0x129D JUMP JUMPDEST JUMPDEST PUSH1 0x20 DUP3 MUL SWAP1 POP PUSH1 0x20 DUP2 ADD SWAP1 POP SWAP2 SWAP1 POP JUMP JUMPDEST PUSH0 DUP1 REVERT JUMPDEST PUSH0 PUSH2 0x1928 PUSH2 0x1923 DUP5 PUSH2 0x18E7 JUMP JUMPDEST PUSH2 0x12FB JUMP JUMPDEST SWAP1 POP DUP1 DUP4 DUP3 MSTORE PUSH1 0x20 DUP3 ADD SWAP1 POP PUSH1 0x20 DUP5 MUL DUP4 ADD DUP6 DUP2 GT ISZERO PUSH2 0x194B JUMPI PUSH2 0x194A PUSH2 0x1912 JUMP JUMPDEST JUMPDEST DUP4 JUMPDEST DUP2 DUP2 LT ISZERO PUSH2 0x1992 JUMPI DUP1 MLOAD PUSH8 0xFFFFFFFFFFFFFFFF DUP2 GT ISZERO PUSH2 0x1970 JUMPI PUSH2 0x196F PUSH2 0x1295 JUMP JUMPDEST JUMPDEST DUP1 DUP7 ADD PUSH2 0x197D DUP10 DUP3 PUSH2 0x184C JUMP JUMPDEST DUP6 MSTORE PUSH1 0x20 DUP6 ADD SWAP5 POP POP POP PUSH1 0x20 DUP2 ADD SWAP1 POP PUSH2 0x194D JUMP JUMPDEST POP POP POP SWAP4 SWAP3 POP POP POP JUMP JUMPDEST PUSH0 DUP3 PUSH1 0x1F DUP4 ADD SLT PUSH2 0x19B0 JUMPI PUSH2 0x19AF PUSH2 0x1295 JUMP JUMPDEST JUMPDEST DUP2 MLOAD PUSH2 0x19C0 DUP5 DUP3 PUSH1 0x20 DUP7 ADD PUSH2 0x1916 JUMP JUMPDEST SWAP2 POP POP SWAP3 SWAP2 POP POP JUMP JUMPDEST PUSH0 PUSH1 0x20 DUP3 DUP5 SUB SLT ISZERO PUSH2 0x19DE JUMPI PUSH2 0x19DD PUSH2 0x114E JUMP JUMPDEST JUMPDEST PUSH0 DUP3 ADD MLOAD PUSH8 0xFFFFFFFFFFFFFFFF DUP2 GT ISZERO PUSH2 0x19FB JUMPI PUSH2 0x19FA PUSH2 0x1152 JUMP JUMPDEST JUMPDEST PUSH2 0x1A07 DUP5 DUP3 DUP6 ADD PUSH2 0x199C JUMP JUMPDEST SWAP2 POP POP SWAP3 SWAP2 POP POP JUMP JUMPDEST PUSH32 0x4E487B7100000000000000000000000000000000000000000000000000000000 PUSH0 MSTORE PUSH1 0x11 PUSH1 0x4 MSTORE PUSH1 0x24 PUSH0 REVERT JUMPDEST PUSH0 PUSH2 0x1A47 DUP3 PUSH2 0x1106 JUMP JUMPDEST SWAP2 POP PUSH32 0xFFFFFFFFFFFFFFFFFFFFFFFFFFFFFFFFFFFFFFFFFFFFFFFFFFFFFFFFFFFFFFFF DUP3 SUB PUSH2 0x1A79 JUMPI PUSH2 0x1A78 PUSH2 0x1A10 JUMP JUMPDEST JUMPDEST PUSH1 0x1 DUP3 ADD SWAP1 POP SWAP2 SWAP1 POP JUMP JUMPDEST PUSH0 DUP2 MLOAD SWAP1 POP PUSH2 0x1A92 DUP2 PUSH2 0x1156 JUMP JUMPDEST SWAP3 SWAP2 POP POP JUMP JUMPDEST PUSH0 PUSH1 0x20 DUP3 DUP5 SUB SLT ISZERO PUSH2 0x1AAD JUMPI PUSH2 0x1AAC PUSH2 0x114E JUMP JUMPDEST JUMPDEST PUSH0 PUSH2 0x1ABA DUP5 DUP3 DUP6 ADD PUSH2 0x1A84 JUMP JUMPDEST SWAP2 POP POP SWAP3 SWAP2 POP POP JUMP JUMPDEST PUSH2 0x1ACC DUP2 PUSH2 0x177F JUMP JUMPDEST DUP3 MSTORE POP POP JUMP JUMPDEST PUSH1 0x20 DUP3 ADD PUSH0 DUP3 ADD MLOAD PUSH2 0x1AE6 PUSH0 DUP6 ADD DUP3 PUSH2 0x1AC3 JUMP JUMPDEST POP POP POP POP JUMP JUMPDEST PUSH0 PUSH1 0x20 DUP3 ADD SWAP1 POP PUSH2 0x1AFF PUSH0 DUP4 ADD DUP5 PUSH2 0x1AD2 JUMP JUMPDEST SWAP3 SWAP2 POP POP JUMP JUMPDEST PUSH0 PUSH2 0x1B0F DUP3 PUSH2 0x1106 JUMP JUMPDEST SWAP2 POP PUSH2 0x1B1A DUP4 PUSH2 0x1106 JUMP JUMPDEST SWAP3 POP DUP3 DUP3 MUL PUSH2 0x1B28 DUP2 PUSH2 0x1106 JUMP JUMPDEST SWAP2 POP DUP3 DUP3 DIV DUP5 EQ DUP4 ISZERO OR PUSH2 0x1B3F JUMPI PUSH2 0x1B3E PUSH2 0x1A10 JUMP JUMPDEST JUMPDEST POP SWAP3 SWAP2 POP POP JUMP JUMPDEST PUSH0 PUSH2 0x1B50 DUP3 PUSH2 0x1106 JUMP JUMPDEST SWAP2 POP PUSH2 0x1B5B DUP4 PUSH2 0x1106 JUMP JUMPDEST SWAP3 POP DUP3 DUP3 ADD SWAP1 POP DUP1 DUP3 GT ISZERO PUSH2 0x1B73 JUMPI PUSH2 0x1B72 PUSH2 0x1A10 JUMP JUMPDEST JUMPDEST SWAP3 SWAP2 POP POP JUMP JUMPDEST PUSH0 DUP2 MLOAD SWAP1 POP SWAP2 SWAP1 POP JUMP JUMPDEST PUSH0 DUP3 DUP3 MSTORE PUSH1 0x20 DUP3 ADD SWAP1 POP SWAP3 SWAP2 POP POP JUMP JUMPDEST PUSH0 PUSH2 0x1B9D DUP3 PUSH2 0x1B79 JUMP JUMPDEST PUSH2 0x1BA7 DUP2 DUP6 PUSH2 0x1B83 JUMP JUMPDEST SWAP4 POP PUSH2 0x1BB7 DUP2 DUP6 PUSH1 0x20 DUP7 ADD PUSH2 0x11C5 JUMP JUMPDEST PUSH2 0x1BC0 DUP2 PUSH2 0x11D3 JUMP JUMPDEST DUP5 ADD SWAP2 POP POP SWAP3 SWAP2 POP POP JUMP JUMPDEST PUSH0 PUSH1 0x20 DUP3 ADD SWAP1 POP DUP2 DUP2 SUB PUSH0 DUP4 ADD MSTORE PUSH2 0x1BE3 DUP2 DUP5 PUSH2 0x1B93 JUMP JUMPDEST SWAP1 POP SWAP3 SWAP2 POP POP JUMP JUMPDEST PUSH2 0x1BF4 DUP2 PUSH2 0x1106 JUMP JUMPDEST DUP3 MSTORE POP POP JUMP JUMPDEST PUSH0 DUP3 DUP3 MSTORE PUSH1 0x20 DUP3 ADD SWAP1 POP SWAP3 SWAP2 POP POP JUMP JUMPDEST PUSH0 PUSH2 0x1C14 DUP3 PUSH2 0x1B79 JUMP JUMPDEST PUSH2 0x1C1E DUP2 DUP6 PUSH2 0x1BFA JUMP JUMPDEST SWAP4 POP PUSH2 0x1C2E DUP2 DUP6 PUSH1 0x20 DUP7 ADD PUSH2 0x11C5 JUMP JUMPDEST PUSH2 0x1C37 DUP2 PUSH2 0x11D3 JUMP JUMPDEST DUP5 ADD SWAP2 POP POP SWAP3 SWAP2 POP POP JUMP JUMPDEST PUSH2 0x1C4B DUP2 PUSH2 0x147A JUMP JUMPDEST DUP3 MSTORE POP POP JUMP JUMPDEST PUSH0 PUSH1 0xA0 DUP4 ADD PUSH0 DUP4 ADD MLOAD PUSH2 0x1C66 PUSH0 DUP7 ADD DUP3 PUSH2 0x1AC3 JUMP JUMPDEST POP PUSH1 0x20 DUP4 ADD MLOAD PUSH2 0x1C79 PUSH1 0x20 DUP7 ADD DUP3 PUSH2 0x1BEB JUMP JUMPDEST POP PUSH1 0x40 DUP4 ADD MLOAD PUSH2 0x1C8C PUSH1 0x40 DUP7 ADD DUP3 PUSH2 0x1AC3 JUMP JUMPDEST POP PUSH1 0x60 DUP4 ADD MLOAD DUP5 DUP3 SUB PUSH1 0x60 DUP7 ADD MSTORE PUSH2 0x1CA4 DUP3 DUP3 PUSH2 0x1C0A JUMP JUMPDEST SWAP2 POP POP PUSH1 0x80 DUP4 ADD MLOAD PUSH2 0x1CB9 PUSH1 0x80 DUP7 ADD DUP3 PUSH2 0x1C42 JUMP JUMPDEST POP DUP1 SWAP2 POP POP SWAP3 SWAP2 POP POP JUMP JUMPDEST PUSH0 PUSH1 0x20 DUP3 ADD SWAP1 POP DUP2 DUP2 SUB PUSH0 DUP4 ADD MSTORE PUSH2 0x1CDC DUP2 DUP5 PUSH2 0x1C51 JUMP JUMPDEST SWAP1 POP SWAP3 SWAP2 POP POP JUMP JUMPDEST PUSH32 0x4E487B7100000000000000000000000000000000000000000000000000000000 PUSH0 MSTORE PUSH1 0x32 PUSH1 0x4 MSTORE PUSH1 0x24 PUSH0 REVERT JUMPDEST PUSH0 DUP2 SWAP1 POP SWAP3 SWAP2 POP POP JUMP JUMPDEST PUSH0 PUSH2 0x1D25 DUP3 PUSH2 0x1B79 JUMP JUMPDEST PUSH2 0x1D2F DUP2 DUP6 PUSH2 0x1D11 JUMP JUMPDEST SWAP4 POP PUSH2 0x1D3F DUP2 DUP6 PUSH1 0x20 DUP7 ADD PUSH2 0x11C5 JUMP JUMPDEST DUP1 DUP5 ADD SWAP2 POP POP SWAP3 SWAP2 POP POP JUMP JUMPDEST PUSH0 PUSH2 0x1D56 DUP3 DUP6 PUSH2 0x1D1B JUMP JUMPDEST SWAP2 POP PUSH2 0x1D62 DUP3 DUP5 PUSH2 0x1D1B JUMP JUMPDEST SWAP2 POP DUP2 SWAP1 POP SWAP4 SWAP3 POP POP POP JUMP JUMPDEST PUSH0 DUP2 PUSH1 0x60 SHL SWAP1 POP SWAP2 SWAP1 POP JUMP JUMPDEST PUSH0 PUSH2 0x1D84 DUP3 PUSH2 0x1D6E JUMP JUMPDEST SWAP1 POP SWAP2 SWAP1 POP JUMP JUMPDEST PUSH0 PUSH2 0x1D95 DUP3 PUSH2 0x1D7A JUMP JUMPDEST SWAP1 POP SWAP2 SWAP1 POP JUMP JUMPDEST PUSH2 0x1DAD PUSH2 0x1DA8 DUP3 PUSH2 0x125A JUMP JUMPDEST PUSH2 0x1D8B JUMP JUMPDEST DUP3 MSTORE POP POP JUMP JUMPDEST PUSH0 PUSH2 0x1DBE DUP3 DUP5 PUSH2 0x1D9C JUMP JUMPDEST PUSH1 0x14 DUP3 ADD SWAP2 POP DUP2 SWAP1 POP SWAP3 SWAP2 POP POP JUMP JUMPDEST PUSH0 PUSH1 0xFF DUP3 AND SWAP1 POP SWAP2 SWAP1 POP JUMP JUMPDEST PUSH0 PUSH2 0x1DE3 DUP3 PUSH2 0x1DCD JUMP JUMPDEST SWAP2 POP PUSH2 0x1DEE DUP4 PUSH2 0x1DCD JUMP JUMPDEST SWAP3 POP DUP3 DUP3 ADD SWAP1 POP PUSH1 0xFF DUP2 GT ISZERO PUSH2 0x1E07 JUMPI PUSH2 0x1E06 PUSH2 0x1A10 JUMP JUMPDEST JUMPDEST SWAP3 SWAP2 POP POP JUMP JUMPDEST PUSH32 0x4E487B7100000000000000000000000000000000000000000000000000000000 PUSH0 MSTORE PUSH1 0x12 PUSH1 0x4 MSTORE PUSH1 0x24 PUSH0 REVERT JUMPDEST PUSH0 PUSH2 0x1E44 DUP3 PUSH2 0x1106 JUMP JUMPDEST SWAP2 POP PUSH2 0x1E4F DUP4 PUSH2 0x1106 JUMP JUMPDEST SWAP3 POP DUP3 PUSH2 0x1E5F JUMPI PUSH2 0x1E5E PUSH2 0x1E0D JUMP JUMPDEST JUMPDEST DUP3 DUP3 DIV SWAP1 POP SWAP3 SWAP2 POP POP JUMP JUMPDEST PUSH0 PUSH2 0x1E74 DUP3 PUSH2 0x1106 JUMP JUMPDEST SWAP2 POP PUSH2 0x1E7F DUP4 PUSH2 0x1106 JUMP JUMPDEST SWAP3 POP DUP3 DUP3 SUB SWAP1 POP DUP2 DUP2 GT ISZERO PUSH2 0x1E97 JUMPI PUSH2 0x1E96 PUSH2 0x1A10 JUMP JUMPDEST JUMPDEST SWAP3 SWAP2 POP POP JUMP JUMPDEST PUSH0 DUP2 PUSH1 0x1 SHR SWAP1 POP SWAP2 SWAP1 POP JUMP JUMPDEST PUSH0 DUP1 DUP3 SWAP2 POP DUP4 SWAP1 POP JUMPDEST PUSH1 0x1 DUP6 GT ISZERO PUSH2 0x1EF2 JUMPI DUP1 DUP7 DIV DUP2 GT ISZERO PUSH2 0x1ECE JUMPI PUSH2 0x1ECD PUSH2 0x1A10 JUMP JUMPDEST JUMPDEST PUSH1 0x1 DUP6 AND ISZERO PUSH2 0x1EDD JUMPI DUP1 DUP3 MUL SWAP2 POP JUMPDEST DUP1 DUP2 MUL SWAP1 POP PUSH2 0x1EEB DUP6 PUSH2 0x1E9D JUMP JUMPDEST SWAP5 POP PUSH2 0x1EB2 JUMP JUMPDEST SWAP5 POP SWAP5 SWAP3 POP POP POP JUMP JUMPDEST PUSH0 DUP3 PUSH2 0x1F0A JUMPI PUSH1 0x1 SWAP1 POP PUSH2 0x1FC5 JUMP JUMPDEST DUP2 PUSH2 0x1F17 JUMPI PUSH0 SWAP1 POP PUSH2 0x1FC5 JUMP JUMPDEST DUP2 PUSH1 0x1 DUP2 EQ PUSH2 0x1F2D JUMPI PUSH1 0x2 DUP2 EQ PUSH2 0x1F37 JUMPI PUSH2 0x1F66 JUMP JUMPDEST PUSH1 0x1 SWAP2 POP POP PUSH2 0x1FC5 JUMP JUMPDEST PUSH1 0xFF DUP5 GT ISZERO PUSH2 0x1F49 JUMPI PUSH2 0x1F48 PUSH2 0x1A10 JUMP JUMPDEST JUMPDEST DUP4 PUSH1 0x2 EXP SWAP2 POP DUP5 DUP3 GT ISZERO PUSH2 0x1F60 JUMPI PUSH2 0x1F5F PUSH2 0x1A10 JUMP JUMPDEST JUMPDEST POP PUSH2 0x1FC5 JUMP JUMPDEST POP PUSH1 0x20 DUP4 LT PUSH2 0x133 DUP4 LT AND PUSH1 0x4E DUP5 LT PUSH1 0xB DUP5 LT AND OR ISZERO PUSH2 0x1F9B JUMPI DUP3 DUP3 EXP SWAP1 POP DUP4 DUP2 GT ISZERO PUSH2 0x1F96 JUMPI PUSH2 0x1F95 PUSH2 0x1A10 JUMP JUMPDEST JUMPDEST PUSH2 0x1FC5 JUMP JUMPDEST PUSH2 0x1FA8 DUP5 DUP5 DUP5 PUSH1 0x1 PUSH2 0x1EA9 JUMP JUMPDEST SWAP3 POP SWAP1 POP DUP2 DUP5 DIV DUP2 GT ISZERO PUSH2 0x1FBF JUMPI PUSH2 0x1FBE PUSH2 0x1A10 JUMP JUMPDEST JUMPDEST DUP2 DUP2 MUL SWAP1 POP JUMPDEST SWAP4 SWAP3 POP POP POP JUMP JUMPDEST PUSH0 PUSH2 0x1FD6 DUP3 PUSH2 0x1106 JUMP JUMPDEST SWAP2 POP PUSH2 0x1FE1 DUP4 PUSH2 0x1106 JUMP JUMPDEST SWAP3 POP PUSH2 0x200E PUSH32 0xFFFFFFFFFFFFFFFFFFFFFFFFFFFFFFFFFFFFFFFFFFFFFFFFFFFFFFFFFFFFFFFF DUP5 DUP5 PUSH2 0x1EFB JUMP JUMPDEST SWAP1 POP SWAP3 SWAP2 POP POP JUMP JUMPDEST PUSH0 PUSH2 0x2020 DUP3 PUSH2 0x1106 JUMP JUMPDEST SWAP2 POP PUSH2 0x202B DUP4 PUSH2 0x1106 JUMP JUMPDEST SWAP3 POP DUP3 PUSH2 0x203B JUMPI PUSH2 0x203A PUSH2 0x1E0D JUMP JUMPDEST JUMPDEST DUP3 DUP3 MOD SWAP1 POP SWAP3 SWAP2 POP POP JUMP JUMPDEST PUSH0 DUP2 SWAP1 POP SWAP2 SWAP1 POP JUMP JUMPDEST PUSH2 0x2060 PUSH2 0x205B DUP3 PUSH2 0x1106 JUMP JUMPDEST PUSH2 0x2046 JUMP JUMPDEST DUP3 MSTORE POP POP JUMP JUMPDEST PUSH0 PUSH2 0x2071 DUP3 DUP5 PUSH2 0x204F JUMP JUMPDEST PUSH1 0x20 DUP3 ADD SWAP2 POP DUP2 SWAP1 POP SWAP3 SWAP2 POP POP JUMP INVALID LOG2 PUSH5 0x6970667358 0x22 SLT KECCAK256 0xE5 PUSH10 0x66B6FF129CA969C5E5C8 SLOAD GASPRICE PUSH24 0x4A50BB1A026D873AC465BFCB75BFBE2F9864736F6C634300 ADDMOD BYTE STOP CALLER "
		},
		"gasEstimates": {
			"creation": {
				"codeDepositCost": "1674800",
				"executionCost": "50971",
				"totalCost": "1725771"
			},
			"external": {
				"calculateFeeForSign(bytes)": "infinite",
				"getEVMWallet(uint256)": "infinite",
				"getEVMWallets()": "infinite",
				"requestNewEVMWallet()": "infinite",
				"submitTransaction(uint256,address,uint256,bytes)": "infinite",
				"submitTransaction(uint256,address,uint256,uint256,uint256,uint256,bytes)": "infinite",
				"submitTransaction(uint256,address,uint256,uint256,uint256,uint256,bytes,bool)": "infinite"
			}
		},
		"methodIdentifiers": {
			"calculateFeeForSign(bytes)": "ecf4ec57",
			"getEVMWallet(uint256)": "32398d50",
			"getEVMWallets()": "c6b4a8f7",
			"requestNewEVMWallet()": "e6bdb7d6",
			"submitTransaction(uint256,address,uint256,bytes)": "dbe637c6",
			"submitTransaction(uint256,address,uint256,uint256,uint256,uint256,bytes)": "681face9",
			"submitTransaction(uint256,address,uint256,uint256,uint256,uint256,bytes,bool)": "94e375dd"
		}
	},
	"abi": [
		{
			"anonymous": false,
			"inputs": [
				{
					"indexed": true,
					"internalType": "address",
					"name": "sender",
					"type": "address"
				},
				{
					"indexed": false,
					"internalType": "uint256",
					"name": "amount",
					"type": "uint256"
				},
				{
					"indexed": false,
					"internalType": "uint256",
					"name": "balance",
					"type": "uint256"
				}
			],
			"name": "Deposit",
			"type": "event"
		},
		{
			"inputs": [
				{
					"internalType": "bytes",
					"name": "payload",
					"type": "bytes"
				}
			],
			"name": "calculateFeeForSign",
			"outputs": [
				{
					"internalType": "uint256",
					"name": "",
					"type": "uint256"
				}
			],
			"stateMutability": "view",
			"type": "function"
		},
		{
			"inputs": [
				{
					"internalType": "uint256",
					"name": "index",
					"type": "uint256"
				}
			],
			"name": "getEVMWallet",
			"outputs": [
				{
					"internalType": "string",
					"name": "",
					"type": "string"
				}
			],
			"stateMutability": "view",
			"type": "function"
		},
		{
			"inputs": [],
			"name": "getEVMWallets",
			"outputs": [
				{
					"internalType": "string[]",
					"name": "",
					"type": "string[]"
				}
			],
			"stateMutability": "view",
			"type": "function"
		},
		{
			"inputs": [],
			"name": "requestNewEVMWallet",
			"outputs": [],
			"stateMutability": "nonpayable",
			"type": "function"
		},
		{
			"inputs": [
				{
					"internalType": "uint256",
					"name": "fromKeyIndex",
					"type": "uint256"
				},
				{
					"internalType": "address",
					"name": "to",
					"type": "address"
				},
				{
					"internalType": "uint256",
					"name": "value",
					"type": "uint256"
				},
				{
					"internalType": "uint256",
					"name": "gasPrice",
					"type": "uint256"
				},
				{
					"internalType": "uint256",
					"name": "gasLimit",
					"type": "uint256"
				},
				{
					"internalType": "uint256",
					"name": "nonce",
					"type": "uint256"
				},
				{
					"internalType": "bytes",
					"name": "data",
					"type": "bytes"
				}
			],
			"name": "submitTransaction",
			"outputs": [],
			"stateMutability": "nonpayable",
			"type": "function"
		},
		{
			"inputs": [
				{
					"internalType": "uint256",
					"name": "fromKeyIndex",
					"type": "uint256"
				},
				{
					"internalType": "address",
					"name": "to",
					"type": "address"
				},
				{
					"internalType": "uint256",
					"name": "value",
					"type": "uint256"
				},
				{
					"internalType": "uint256",
					"name": "gasPrice",
					"type": "uint256"
				},
				{
					"internalType": "uint256",
					"name": "gasLimit",
					"type": "uint256"
				},
				{
					"internalType": "uint256",
					"name": "nonce",
					"type": "uint256"
				},
				{
					"internalType": "bytes",
					"name": "data",
					"type": "bytes"
				},
				{
					"internalType": "bool",
					"name": "broadcast",
					"type": "bool"
				}
			],
			"name": "submitTransaction",
			"outputs": [],
			"stateMutability": "nonpayable",
			"type": "function"
		},
		{
			"inputs": [
				{
					"internalType": "uint256",
					"name": "_fromKeyIndex",
					"type": "uint256"
				},
				{
					"internalType": "address",
					"name": "_to",
					"type": "address"
				},
				{
					"internalType": "uint256",
					"name": "_value",
					"type": "uint256"
				},
				{
					"internalType": "bytes",
					"name": "_data",
					"type": "bytes"
				}
			],
			"name": "submitTransaction",
			"outputs": [],
			"stateMutability": "nonpayable",
			"type": "function"
		},
		{
			"stateMutability": "payable",
			"type": "receive"
		}
	]
}