{
	"contracts/wallets/ZrWallet.sol": {
		"ZrWallet": {
			"abi": [
				{
					"inputs": [
						{
							"internalType": "address[]",
							"name": "_owners",
							"type": "address[]"
						},
						{
							"internalType": "uint256",
							"name": "_requiredConfirmations",
							"type": "uint256"
						}
					],
					"stateMutability": "nonpayable",
					"type": "constructor"
				},
				{
					"anonymous": false,
					"inputs": [
						{
							"indexed": true,
							"internalType": "address",
							"name": "owner",
							"type": "address"
						},
						{
							"indexed": true,
							"internalType": "address",
							"name": "spender",
							"type": "address"
						},
						{
							"indexed": false,
							"internalType": "uint256",
							"name": "value",
							"type": "uint256"
						}
					],
					"name": "Approval",
					"type": "event"
				},
				{
					"anonymous": false,
					"inputs": [
						{
							"indexed": true,
							"internalType": "address",
							"name": "sender",
							"type": "address"
						},
						{
							"indexed": false,
							"internalType": "uint256",
							"name": "amount",
							"type": "uint256"
						}
					],
					"name": "Deposit",
					"type": "event"
				},
				{
					"anonymous": false,
					"inputs": [
						{
							"indexed": true,
							"internalType": "address",
							"name": "to",
							"type": "address"
						},
						{
							"indexed": false,
							"internalType": "uint256",
							"name": "amount",
							"type": "uint256"
						},
						{
							"indexed": false,
							"internalType": "bytes",
							"name": "data",
							"type": "bytes"
						}
					],
					"name": "TransactionExecuted",
					"type": "event"
				},
				{
					"anonymous": false,
					"inputs": [
						{
							"indexed": true,
							"internalType": "address",
							"name": "recipient",
							"type": "address"
						},
						{
							"indexed": false,
							"internalType": "uint256",
							"name": "amount",
							"type": "uint256"
						}
					],
					"name": "Withdrawal",
					"type": "event"
				},
				{
					"inputs": [
						{
							"internalType": "bytes32",
							"name": "txHash",
							"type": "bytes32"
						}
					],
					"name": "confirmTransaction",
					"outputs": [],
					"stateMutability": "nonpayable",
					"type": "function"
				},
				{
					"inputs": [
						{
							"internalType": "address",
							"name": "to",
							"type": "address"
						},
						{
							"internalType": "uint256",
							"name": "amount",
							"type": "uint256"
						},
						{
							"internalType": "bytes",
							"name": "data",
							"type": "bytes"
						}
					],
					"name": "createTransaction",
					"outputs": [
						{
							"internalType": "bytes32",
							"name": "txHash",
							"type": "bytes32"
						}
					],
					"stateMutability": "nonpayable",
					"type": "function"
				},
				{
					"inputs": [
						{
							"internalType": "bytes32",
							"name": "txHash",
							"type": "bytes32"
						}
					],
					"name": "getTransactionDetails",
					"outputs": [
						{
							"internalType": "address",
							"name": "to",
							"type": "address"
						},
						{
							"internalType": "uint256",
							"name": "amount",
							"type": "uint256"
						},
						{
							"internalType": "bytes",
							"name": "data",
							"type": "bytes"
						},
						{
							"internalType": "bool",
							"name": "executed",
							"type": "bool"
						},
						{
							"internalType": "uint256",
							"name": "confirmations",
							"type": "uint256"
						},
						{
							"internalType": "address[]",
							"name": "confirmedBy",
							"type": "address[]"
						}
					],
					"stateMutability": "view",
					"type": "function"
				},
				{
					"inputs": [
						{
							"internalType": "address",
							"name": "",
							"type": "address"
						}
					],
					"name": "isOwner",
					"outputs": [
						{
							"internalType": "bool",
							"name": "",
							"type": "bool"
						}
					],
					"stateMutability": "view",
					"type": "function"
				},
				{
					"inputs": [
						{
							"internalType": "uint256",
							"name": "",
							"type": "uint256"
						}
					],
					"name": "owners",
					"outputs": [
						{
							"internalType": "address",
							"name": "",
							"type": "address"
						}
					],
					"stateMutability": "view",
					"type": "function"
				},
				{
					"inputs": [],
					"name": "requiredConfirmations",
					"outputs": [
						{
							"internalType": "uint256",
							"name": "",
							"type": "uint256"
						}
					],
					"stateMutability": "view",
					"type": "function"
				},
				{
					"inputs": [
						{
							"internalType": "bytes32",
							"name": "",
							"type": "bytes32"
						}
					],
					"name": "transactions",
					"outputs": [
						{
							"internalType": "address",
							"name": "to",
							"type": "address"
						},
						{
							"internalType": "uint256",
							"name": "amount",
							"type": "uint256"
						},
						{
							"internalType": "bytes",
							"name": "data",
							"type": "bytes"
						},
						{
							"internalType": "bool",
							"name": "executed",
							"type": "bool"
						},
						{
							"internalType": "uint256",
							"name": "confirmations",
							"type": "uint256"
						}
					],
					"stateMutability": "view",
					"type": "function"
				},
				{
					"stateMutability": "payable",
					"type": "receive"
				}
			],
			"devdoc": {
				"details": "Advanced wallet contract with features such as multi-signature support, transaction limits, and secure fund management.",
				"kind": "dev",
				"methods": {
					"confirmTransaction(bytes32)": {
						"params": {
							"txHash": "The hash of the transaction."
						}
					},
					"createTransaction(address,uint256,bytes)": {
						"params": {
							"amount": "Amount of Ether to send.",
							"data": "Data to send with the transaction.",
							"to": "Address of the recipient."
						},
						"returns": {
							"txHash": "The hash of the transaction."
						}
					},
					"getTransactionDetails(bytes32)": {
						"params": {
							"txHash": "The hash of the transaction."
						},
						"returns": {
							"amount": "Amount of Ether to send.",
							"confirmations": "Number of confirmations for the transaction.",
							"confirmedBy": "Addresses that have confirmed the transaction.",
							"data": "Data to send with the transaction.",
							"executed": "Boolean indicating if the transaction has been executed.",
							"to": "Address of the recipient."
						}
					}
				},
				"title": "ZrWallet",
				"version": 1
			},
			"evm": {
				"assembly": "    /* \"contracts/wallets/ZrWallet.sol\":213:5530  contract ZrWallet {... */\n  mstore(0x40, 0x80)\n    /* \"contracts/wallets/ZrWallet.sol\":1542:2213  constructor(address[] memory _owners, uint256 _requiredConfirmations) {... */\n  callvalue\n  dup1\n  iszero\n  tag_1\n  jumpi\n  0x00\n  dup1\n  revert\ntag_1:\n  pop\n  mload(0x40)\n  sub(codesize, bytecodeSize)\n  dup1\n  bytecodeSize\n  dup4\n  codecopy\n  dup2\n  dup2\n  add\n  0x40\n  mstore\n  dup2\n  add\n  swap1\n  tag_2\n  swap2\n  swap1\n  tag_3\n  jump\t// in\ntag_2:\n    /* \"contracts/wallets/ZrWallet.sol\":1647:1648  0 */\n  0x00\n    /* \"contracts/wallets/ZrWallet.sol\":1630:1637  _owners */\n  dup3\n    /* \"contracts/wallets/ZrWallet.sol\":1630:1644  _owners.length */\n  mload\n    /* \"contracts/wallets/ZrWallet.sol\":1630:1648  _owners.length > 0 */\n  gt\n    /* \"contracts/wallets/ZrWallet.sol\":1622:1671  require(_owners.length > 0, \"No owners provided\") */\n  tag_6\n  jumpi\n  mload(0x40)\n  0x08c379a000000000000000000000000000000000000000000000000000000000\n  dup2\n  mstore\n  0x04\n  add\n  tag_7\n  swap1\n  tag_8\n  jump\t// in\ntag_7:\n  mload(0x40)\n  dup1\n  swap2\n  sub\n  swap1\n  revert\ntag_6:\n    /* \"contracts/wallets/ZrWallet.sol\":1714:1715  0 */\n  0x00\n    /* \"contracts/wallets/ZrWallet.sol\":1689:1711  _requiredConfirmations */\n  dup2\n    /* \"contracts/wallets/ZrWallet.sol\":1689:1715  _requiredConfirmations > 0 */\n  gt\n    /* \"contracts/wallets/ZrWallet.sol\":1689:1759  _requiredConfirmations > 0 && _requiredConfirmations <= _owners.length */\n  dup1\n  iszero\n  tag_9\n  jumpi\n  pop\n    /* \"contracts/wallets/ZrWallet.sol\":1745:1752  _owners */\n  dup2\n    /* \"contracts/wallets/ZrWallet.sol\":1745:1759  _owners.length */\n  mload\n    /* \"contracts/wallets/ZrWallet.sol\":1719:1741  _requiredConfirmations */\n  dup2\n    /* \"contracts/wallets/ZrWallet.sol\":1719:1759  _requiredConfirmations <= _owners.length */\n  gt\n  iszero\n    /* \"contracts/wallets/ZrWallet.sol\":1689:1759  _requiredConfirmations > 0 && _requiredConfirmations <= _owners.length */\ntag_9:\n    /* \"contracts/wallets/ZrWallet.sol\":1681:1804  require(_requiredConfirmations > 0 && _requiredConfirmations <= _owners.length, \"Invalid number of required confirmations\") */\n  tag_10\n  jumpi\n  mload(0x40)\n  0x08c379a000000000000000000000000000000000000000000000000000000000\n  dup2\n  mstore\n  0x04\n  add\n  tag_11\n  swap1\n  tag_12\n  jump\t// in\ntag_11:\n  mload(0x40)\n  dup1\n  swap2\n  sub\n  swap1\n  revert\ntag_10:\n    /* \"contracts/wallets/ZrWallet.sol\":1820:1826  uint i */\n  0x00\n    /* \"contracts/wallets/ZrWallet.sol\":1815:2150  for (uint i = 0; i < _owners.length; i++) {... */\ntag_13:\n    /* \"contracts/wallets/ZrWallet.sol\":1836:1843  _owners */\n  dup3\n    /* \"contracts/wallets/ZrWallet.sol\":1836:1850  _owners.length */\n  mload\n    /* \"contracts/wallets/ZrWallet.sol\":1832:1833  i */\n  dup2\n    /* \"contracts/wallets/ZrWallet.sol\":1832:1850  i < _owners.length */\n  lt\n    /* \"contracts/wallets/ZrWallet.sol\":1815:2150  for (uint i = 0; i < _owners.length; i++) {... */\n  iszero\n  tag_14\n  jumpi\n    /* \"contracts/wallets/ZrWallet.sol\":1871:1884  address owner */\n  0x00\n    /* \"contracts/wallets/ZrWallet.sol\":1887:1894  _owners */\n  dup4\n    /* \"contracts/wallets/ZrWallet.sol\":1895:1896  i */\n  dup3\n    /* \"contracts/wallets/ZrWallet.sol\":1887:1897  _owners[i] */\n  dup2\n  mload\n  dup2\n  lt\n  tag_16\n  jumpi\n  tag_17\n  tag_18\n  jump\t// in\ntag_17:\ntag_16:\n  0x20\n  mul\n  0x20\n  add\n  add\n  mload\n    /* \"contracts/wallets/ZrWallet.sol\":1871:1897  address owner = _owners[i] */\n  swap1\n  pop\n    /* \"contracts/wallets/ZrWallet.sol\":1936:1937  0 */\n  0x00\n    /* \"contracts/wallets/ZrWallet.sol\":1919:1938  owner != address(0) */\n  0xffffffffffffffffffffffffffffffffffffffff\n  and\n    /* \"contracts/wallets/ZrWallet.sol\":1919:1924  owner */\n  dup2\n    /* \"contracts/wallets/ZrWallet.sol\":1919:1938  owner != address(0) */\n  0xffffffffffffffffffffffffffffffffffffffff\n  and\n  sub\n    /* \"contracts/wallets/ZrWallet.sol\":1911:1988  require(owner != address(0), \"Invalid address: Owner cannot be zero address\") */\n  tag_19\n  jumpi\n  mload(0x40)\n  0x08c379a000000000000000000000000000000000000000000000000000000000\n  dup2\n  mstore\n  0x04\n  add\n  tag_20\n  swap1\n  tag_21\n  jump\t// in\ntag_20:\n  mload(0x40)\n  dup1\n  swap2\n  sub\n  swap1\n  revert\ntag_19:\n    /* \"contracts/wallets/ZrWallet.sol\":2011:2018  isOwner */\n  0x01\n    /* \"contracts/wallets/ZrWallet.sol\":2011:2025  isOwner[owner] */\n  0x00\n    /* \"contracts/wallets/ZrWallet.sol\":2019:2024  owner */\n  dup3\n    /* \"contracts/wallets/ZrWallet.sol\":2011:2025  isOwner[owner] */\n  0xffffffffffffffffffffffffffffffffffffffff\n  and\n  0xffffffffffffffffffffffffffffffffffffffff\n  and\n  dup2\n  mstore\n  0x20\n  add\n  swap1\n  dup2\n  mstore\n  0x20\n  add\n  0x00\n  keccak256\n  0x00\n  swap1\n  sload\n  swap1\n  0x0100\n  exp\n  swap1\n  div\n  0xff\n  and\n    /* \"contracts/wallets/ZrWallet.sol\":2010:2025  !isOwner[owner] */\n  iszero\n    /* \"contracts/wallets/ZrWallet.sol\":2002:2071  require(!isOwner[owner], \"Duplicate owner: Address already an owner\") */\n  tag_22\n  jumpi\n  mload(0x40)\n  0x08c379a000000000000000000000000000000000000000000000000000000000\n  dup2\n  mstore\n  0x04\n  add\n  tag_23\n  swap1\n  tag_24\n  jump\t// in\ntag_23:\n  mload(0x40)\n  dup1\n  swap2\n  sub\n  swap1\n  revert\ntag_22:\n    /* \"contracts/wallets/ZrWallet.sol\":2103:2107  true */\n  0x01\n    /* \"contracts/wallets/ZrWallet.sol\":2086:2093  isOwner */\n  dup1\n    /* \"contracts/wallets/ZrWallet.sol\":2086:2100  isOwner[owner] */\n  0x00\n    /* \"contracts/wallets/ZrWallet.sol\":2094:2099  owner */\n  dup4\n    /* \"contracts/wallets/ZrWallet.sol\":2086:2100  isOwner[owner] */\n  0xffffffffffffffffffffffffffffffffffffffff\n  and\n  0xffffffffffffffffffffffffffffffffffffffff\n  and\n  dup2\n  mstore\n  0x20\n  add\n  swap1\n  dup2\n  mstore\n  0x20\n  add\n  0x00\n  keccak256\n  0x00\n    /* \"contracts/wallets/ZrWallet.sol\":2086:2107  isOwner[owner] = true */\n  0x0100\n  exp\n  dup2\n  sload\n  dup2\n  0xff\n  mul\n  not\n  and\n  swap1\n  dup4\n  iszero\n  iszero\n  mul\n  or\n  swap1\n  sstore\n  pop\n    /* \"contracts/wallets/ZrWallet.sol\":2121:2127  owners */\n  0x00\n    /* \"contracts/wallets/ZrWallet.sol\":2133:2138  owner */\n  dup2\n    /* \"contracts/wallets/ZrWallet.sol\":2121:2139  owners.push(owner) */\n  swap1\n  dup1\n  0x01\n  dup2\n  sload\n  add\n  dup1\n  dup3\n  sstore\n  dup1\n  swap2\n  pop\n  pop\n  0x01\n  swap1\n  sub\n  swap1\n  0x00\n  mstore\n  keccak256(0x00, 0x20)\n  add\n  0x00\n  swap1\n  swap2\n  swap1\n  swap2\n  swap1\n  swap2\n  0x0100\n  exp\n  dup2\n  sload\n  dup2\n  0xffffffffffffffffffffffffffffffffffffffff\n  mul\n  not\n  and\n  swap1\n  dup4\n  0xffffffffffffffffffffffffffffffffffffffff\n  and\n  mul\n  or\n  swap1\n  sstore\n  pop\n    /* \"contracts/wallets/ZrWallet.sol\":1857:2150  {... */\n  pop\n    /* \"contracts/wallets/ZrWallet.sol\":1852:1855  i++ */\n  dup1\n  dup1\n  0x01\n  add\n  swap2\n  pop\n  pop\n    /* \"contracts/wallets/ZrWallet.sol\":1815:2150  for (uint i = 0; i < _owners.length; i++) {... */\n  jump(tag_13)\ntag_14:\n  pop\n    /* \"contracts/wallets/ZrWallet.sol\":2184:2206  _requiredConfirmations */\n  dup1\n    /* \"contracts/wallets/ZrWallet.sol\":2160:2181  requiredConfirmations */\n  0x02\n    /* \"contracts/wallets/ZrWallet.sol\":2160:2206  requiredConfirmations = _requiredConfirmations */\n  dup2\n  swap1\n  sstore\n  pop\n    /* \"contracts/wallets/ZrWallet.sol\":1542:2213  constructor(address[] memory _owners, uint256 _requiredConfirmations) {... */\n  pop\n  pop\n    /* \"contracts/wallets/ZrWallet.sol\":213:5530  contract ZrWallet {... */\n  jump(tag_26)\n    /* \"#utility.yul\":7:82   */\ntag_27:\n    /* \"#utility.yul\":40:46   */\n  0x00\n    /* \"#utility.yul\":73:75   */\n  0x40\n    /* \"#utility.yul\":67:76   */\n  mload\n    /* \"#utility.yul\":57:76   */\n  swap1\n  pop\n    /* \"#utility.yul\":7:82   */\n  swap1\n  jump\t// out\n    /* \"#utility.yul\":88:205   */\ntag_28:\n    /* \"#utility.yul\":197:198   */\n  0x00\n    /* \"#utility.yul\":194:195   */\n  dup1\n    /* \"#utility.yul\":187:199   */\n  revert\n    /* \"#utility.yul\":211:328   */\ntag_29:\n    /* \"#utility.yul\":320:321   */\n  0x00\n    /* \"#utility.yul\":317:318   */\n  dup1\n    /* \"#utility.yul\":310:322   */\n  revert\n    /* \"#utility.yul\":334:451   */\ntag_30:\n    /* \"#utility.yul\":443:444   */\n  0x00\n    /* \"#utility.yul\":440:441   */\n  dup1\n    /* \"#utility.yul\":433:445   */\n  revert\n    /* \"#utility.yul\":457:559   */\ntag_31:\n    /* \"#utility.yul\":498:504   */\n  0x00\n    /* \"#utility.yul\":549:551   */\n  0x1f\n    /* \"#utility.yul\":545:552   */\n  not\n    /* \"#utility.yul\":540:542   */\n  0x1f\n    /* \"#utility.yul\":533:538   */\n  dup4\n    /* \"#utility.yul\":529:543   */\n  add\n    /* \"#utility.yul\":525:553   */\n  and\n    /* \"#utility.yul\":515:553   */\n  swap1\n  pop\n    /* \"#utility.yul\":457:559   */\n  swap2\n  swap1\n  pop\n  jump\t// out\n    /* \"#utility.yul\":565:745   */\ntag_32:\n    /* \"#utility.yul\":613:690   */\n  0x4e487b7100000000000000000000000000000000000000000000000000000000\n    /* \"#utility.yul\":610:611   */\n  0x00\n    /* \"#utility.yul\":603:691   */\n  mstore\n    /* \"#utility.yul\":710:714   */\n  0x41\n    /* \"#utility.yul\":707:708   */\n  0x04\n    /* \"#utility.yul\":700:715   */\n  mstore\n    /* \"#utility.yul\":734:738   */\n  0x24\n    /* \"#utility.yul\":731:732   */\n  0x00\n    /* \"#utility.yul\":724:739   */\n  revert\n    /* \"#utility.yul\":751:1032   */\ntag_33:\n    /* \"#utility.yul\":834:861   */\n  tag_63\n    /* \"#utility.yul\":856:860   */\n  dup3\n    /* \"#utility.yul\":834:861   */\n  tag_31\n  jump\t// in\ntag_63:\n    /* \"#utility.yul\":826:832   */\n  dup2\n    /* \"#utility.yul\":822:862   */\n  add\n    /* \"#utility.yul\":964:970   */\n  dup2\n    /* \"#utility.yul\":952:962   */\n  dup2\n    /* \"#utility.yul\":949:971   */\n  lt\n    /* \"#utility.yul\":928:946   */\n  0xffffffffffffffff\n    /* \"#utility.yul\":916:926   */\n  dup3\n    /* \"#utility.yul\":913:947   */\n  gt\n    /* \"#utility.yul\":910:972   */\n  or\n    /* \"#utility.yul\":907:995   */\n  iszero\n  tag_64\n  jumpi\n    /* \"#utility.yul\":975:993   */\n  tag_65\n  tag_32\n  jump\t// in\ntag_65:\n    /* \"#utility.yul\":907:995   */\ntag_64:\n    /* \"#utility.yul\":1015:1025   */\n  dup1\n    /* \"#utility.yul\":1011:1013   */\n  0x40\n    /* \"#utility.yul\":1004:1026   */\n  mstore\n    /* \"#utility.yul\":794:1032   */\n  pop\n    /* \"#utility.yul\":751:1032   */\n  pop\n  pop\n  jump\t// out\n    /* \"#utility.yul\":1038:1167   */\ntag_34:\n    /* \"#utility.yul\":1072:1078   */\n  0x00\n    /* \"#utility.yul\":1099:1119   */\n  tag_67\n  tag_27\n  jump\t// in\ntag_67:\n    /* \"#utility.yul\":1089:1119   */\n  swap1\n  pop\n    /* \"#utility.yul\":1128:1161   */\n  tag_68\n    /* \"#utility.yul\":1156:1160   */\n  dup3\n    /* \"#utility.yul\":1148:1154   */\n  dup3\n    /* \"#utility.yul\":1128:1161   */\n  tag_33\n  jump\t// in\ntag_68:\n    /* \"#utility.yul\":1038:1167   */\n  swap2\n  swap1\n  pop\n  jump\t// out\n    /* \"#utility.yul\":1173:1484   */\ntag_35:\n    /* \"#utility.yul\":1250:1254   */\n  0x00\n    /* \"#utility.yul\":1340:1358   */\n  0xffffffffffffffff\n    /* \"#utility.yul\":1332:1338   */\n  dup3\n    /* \"#utility.yul\":1329:1359   */\n  gt\n    /* \"#utility.yul\":1326:1382   */\n  iszero\n  tag_70\n  jumpi\n    /* \"#utility.yul\":1362:1380   */\n  tag_71\n  tag_32\n  jump\t// in\ntag_71:\n    /* \"#utility.yul\":1326:1382   */\ntag_70:\n    /* \"#utility.yul\":1412:1416   */\n  0x20\n    /* \"#utility.yul\":1404:1410   */\n  dup3\n    /* \"#utility.yul\":1400:1417   */\n  mul\n    /* \"#utility.yul\":1392:1417   */\n  swap1\n  pop\n    /* \"#utility.yul\":1472:1476   */\n  0x20\n    /* \"#utility.yul\":1466:1470   */\n  dup2\n    /* \"#utility.yul\":1462:1477   */\n  add\n    /* \"#utility.yul\":1454:1477   */\n  swap1\n  pop\n    /* \"#utility.yul\":1173:1484   */\n  swap2\n  swap1\n  pop\n  jump\t// out\n    /* \"#utility.yul\":1490:1607   */\ntag_36:\n    /* \"#utility.yul\":1599:1600   */\n  0x00\n    /* \"#utility.yul\":1596:1597   */\n  dup1\n    /* \"#utility.yul\":1589:1601   */\n  revert\n    /* \"#utility.yul\":1613:1739   */\ntag_37:\n    /* \"#utility.yul\":1650:1657   */\n  0x00\n    /* \"#utility.yul\":1690:1732   */\n  0xffffffffffffffffffffffffffffffffffffffff\n    /* \"#utility.yul\":1683:1688   */\n  dup3\n    /* \"#utility.yul\":1679:1733   */\n  and\n    /* \"#utility.yul\":1668:1733   */\n  swap1\n  pop\n    /* \"#utility.yul\":1613:1739   */\n  swap2\n  swap1\n  pop\n  jump\t// out\n    /* \"#utility.yul\":1745:1841   */\ntag_38:\n    /* \"#utility.yul\":1782:1789   */\n  0x00\n    /* \"#utility.yul\":1811:1835   */\n  tag_75\n    /* \"#utility.yul\":1829:1834   */\n  dup3\n    /* \"#utility.yul\":1811:1835   */\n  tag_37\n  jump\t// in\ntag_75:\n    /* \"#utility.yul\":1800:1835   */\n  swap1\n  pop\n    /* \"#utility.yul\":1745:1841   */\n  swap2\n  swap1\n  pop\n  jump\t// out\n    /* \"#utility.yul\":1847:1969   */\ntag_39:\n    /* \"#utility.yul\":1920:1944   */\n  tag_77\n    /* \"#utility.yul\":1938:1943   */\n  dup2\n    /* \"#utility.yul\":1920:1944   */\n  tag_38\n  jump\t// in\ntag_77:\n    /* \"#utility.yul\":1913:1918   */\n  dup2\n    /* \"#utility.yul\":1910:1945   */\n  eq\n    /* \"#utility.yul\":1900:1963   */\n  tag_78\n  jumpi\n    /* \"#utility.yul\":1959:1960   */\n  0x00\n    /* \"#utility.yul\":1956:1957   */\n  dup1\n    /* \"#utility.yul\":1949:1961   */\n  revert\n    /* \"#utility.yul\":1900:1963   */\ntag_78:\n    /* \"#utility.yul\":1847:1969   */\n  pop\n  jump\t// out\n    /* \"#utility.yul\":1975:2118   */\ntag_40:\n    /* \"#utility.yul\":2032:2037   */\n  0x00\n    /* \"#utility.yul\":2063:2069   */\n  dup2\n    /* \"#utility.yul\":2057:2070   */\n  mload\n    /* \"#utility.yul\":2048:2070   */\n  swap1\n  pop\n    /* \"#utility.yul\":2079:2112   */\n  tag_80\n    /* \"#utility.yul\":2106:2111   */\n  dup2\n    /* \"#utility.yul\":2079:2112   */\n  tag_39\n  jump\t// in\ntag_80:\n    /* \"#utility.yul\":1975:2118   */\n  swap3\n  swap2\n  pop\n  pop\n  jump\t// out\n    /* \"#utility.yul\":2141:2873   */\ntag_41:\n    /* \"#utility.yul\":2248:2253   */\n  0x00\n    /* \"#utility.yul\":2273:2354   */\n  tag_82\n    /* \"#utility.yul\":2289:2353   */\n  tag_83\n    /* \"#utility.yul\":2346:2352   */\n  dup5\n    /* \"#utility.yul\":2289:2353   */\n  tag_35\n  jump\t// in\ntag_83:\n    /* \"#utility.yul\":2273:2354   */\n  tag_34\n  jump\t// in\ntag_82:\n    /* \"#utility.yul\":2264:2354   */\n  swap1\n  pop\n    /* \"#utility.yul\":2374:2379   */\n  dup1\n    /* \"#utility.yul\":2403:2409   */\n  dup4\n    /* \"#utility.yul\":2396:2401   */\n  dup3\n    /* \"#utility.yul\":2389:2410   */\n  mstore\n    /* \"#utility.yul\":2437:2441   */\n  0x20\n    /* \"#utility.yul\":2430:2435   */\n  dup3\n    /* \"#utility.yul\":2426:2442   */\n  add\n    /* \"#utility.yul\":2419:2442   */\n  swap1\n  pop\n    /* \"#utility.yul\":2490:2494   */\n  0x20\n    /* \"#utility.yul\":2482:2488   */\n  dup5\n    /* \"#utility.yul\":2478:2495   */\n  mul\n    /* \"#utility.yul\":2470:2476   */\n  dup4\n    /* \"#utility.yul\":2466:2496   */\n  add\n    /* \"#utility.yul\":2519:2522   */\n  dup6\n    /* \"#utility.yul\":2511:2517   */\n  dup2\n    /* \"#utility.yul\":2508:2523   */\n  gt\n    /* \"#utility.yul\":2505:2627   */\n  iszero\n  tag_84\n  jumpi\n    /* \"#utility.yul\":2538:2617   */\n  tag_85\n  tag_36\n  jump\t// in\ntag_85:\n    /* \"#utility.yul\":2505:2627   */\ntag_84:\n    /* \"#utility.yul\":2653:2659   */\n  dup4\n    /* \"#utility.yul\":2636:2867   */\ntag_86:\n    /* \"#utility.yul\":2670:2676   */\n  dup2\n    /* \"#utility.yul\":2665:2668   */\n  dup2\n    /* \"#utility.yul\":2662:2677   */\n  lt\n    /* \"#utility.yul\":2636:2867   */\n  iszero\n  tag_88\n  jumpi\n    /* \"#utility.yul\":2745:2748   */\n  dup1\n    /* \"#utility.yul\":2774:2822   */\n  tag_89\n    /* \"#utility.yul\":2818:2821   */\n  dup9\n    /* \"#utility.yul\":2806:2816   */\n  dup3\n    /* \"#utility.yul\":2774:2822   */\n  tag_40\n  jump\t// in\ntag_89:\n    /* \"#utility.yul\":2769:2772   */\n  dup5\n    /* \"#utility.yul\":2762:2823   */\n  mstore\n    /* \"#utility.yul\":2852:2856   */\n  0x20\n    /* \"#utility.yul\":2847:2850   */\n  dup5\n    /* \"#utility.yul\":2843:2857   */\n  add\n    /* \"#utility.yul\":2836:2857   */\n  swap4\n  pop\n    /* \"#utility.yul\":2712:2867   */\n  pop\n    /* \"#utility.yul\":2696:2700   */\n  0x20\n    /* \"#utility.yul\":2691:2694   */\n  dup2\n    /* \"#utility.yul\":2687:2701   */\n  add\n    /* \"#utility.yul\":2680:2701   */\n  swap1\n  pop\n    /* \"#utility.yul\":2636:2867   */\n  jump(tag_86)\ntag_88:\n    /* \"#utility.yul\":2640:2661   */\n  pop\n    /* \"#utility.yul\":2254:2873   */\n  pop\n  pop\n    /* \"#utility.yul\":2141:2873   */\n  swap4\n  swap3\n  pop\n  pop\n  pop\n  jump\t// out\n    /* \"#utility.yul\":2896:3281   */\ntag_42:\n    /* \"#utility.yul\":2978:2983   */\n  0x00\n    /* \"#utility.yul\":3027:3030   */\n  dup3\n    /* \"#utility.yul\":3020:3024   */\n  0x1f\n    /* \"#utility.yul\":3012:3018   */\n  dup4\n    /* \"#utility.yul\":3008:3025   */\n  add\n    /* \"#utility.yul\":3004:3031   */\n  slt\n    /* \"#utility.yul\":2994:3116   */\n  tag_91\n  jumpi\n    /* \"#utility.yul\":3035:3114   */\n  tag_92\n  tag_30\n  jump\t// in\ntag_92:\n    /* \"#utility.yul\":2994:3116   */\ntag_91:\n    /* \"#utility.yul\":3145:3151   */\n  dup2\n    /* \"#utility.yul\":3139:3152   */\n  mload\n    /* \"#utility.yul\":3170:3275   */\n  tag_93\n    /* \"#utility.yul\":3271:3274   */\n  dup5\n    /* \"#utility.yul\":3263:3269   */\n  dup3\n    /* \"#utility.yul\":3256:3260   */\n  0x20\n    /* \"#utility.yul\":3248:3254   */\n  dup7\n    /* \"#utility.yul\":3244:3261   */\n  add\n    /* \"#utility.yul\":3170:3275   */\n  tag_41\n  jump\t// in\ntag_93:\n    /* \"#utility.yul\":3161:3275   */\n  swap2\n  pop\n    /* \"#utility.yul\":2984:3281   */\n  pop\n    /* \"#utility.yul\":2896:3281   */\n  swap3\n  swap2\n  pop\n  pop\n  jump\t// out\n    /* \"#utility.yul\":3287:3364   */\ntag_43:\n    /* \"#utility.yul\":3324:3331   */\n  0x00\n    /* \"#utility.yul\":3353:3358   */\n  dup2\n    /* \"#utility.yul\":3342:3358   */\n  swap1\n  pop\n    /* \"#utility.yul\":3287:3364   */\n  swap2\n  swap1\n  pop\n  jump\t// out\n    /* \"#utility.yul\":3370:3492   */\ntag_44:\n    /* \"#utility.yul\":3443:3467   */\n  tag_96\n    /* \"#utility.yul\":3461:3466   */\n  dup2\n    /* \"#utility.yul\":3443:3467   */\n  tag_43\n  jump\t// in\ntag_96:\n    /* \"#utility.yul\":3436:3441   */\n  dup2\n    /* \"#utility.yul\":3433:3468   */\n  eq\n    /* \"#utility.yul\":3423:3486   */\n  tag_97\n  jumpi\n    /* \"#utility.yul\":3482:3483   */\n  0x00\n    /* \"#utility.yul\":3479:3480   */\n  dup1\n    /* \"#utility.yul\":3472:3484   */\n  revert\n    /* \"#utility.yul\":3423:3486   */\ntag_97:\n    /* \"#utility.yul\":3370:3492   */\n  pop\n  jump\t// out\n    /* \"#utility.yul\":3498:3641   */\ntag_45:\n    /* \"#utility.yul\":3555:3560   */\n  0x00\n    /* \"#utility.yul\":3586:3592   */\n  dup2\n    /* \"#utility.yul\":3580:3593   */\n  mload\n    /* \"#utility.yul\":3571:3593   */\n  swap1\n  pop\n    /* \"#utility.yul\":3602:3635   */\n  tag_99\n    /* \"#utility.yul\":3629:3634   */\n  dup2\n    /* \"#utility.yul\":3602:3635   */\n  tag_44\n  jump\t// in\ntag_99:\n    /* \"#utility.yul\":3498:3641   */\n  swap3\n  swap2\n  pop\n  pop\n  jump\t// out\n    /* \"#utility.yul\":3647:4357   */\ntag_3:\n    /* \"#utility.yul\":3751:3757   */\n  0x00\n    /* \"#utility.yul\":3759:3765   */\n  dup1\n    /* \"#utility.yul\":3808:3810   */\n  0x40\n    /* \"#utility.yul\":3796:3805   */\n  dup4\n    /* \"#utility.yul\":3787:3794   */\n  dup6\n    /* \"#utility.yul\":3783:3806   */\n  sub\n    /* \"#utility.yul\":3779:3811   */\n  slt\n    /* \"#utility.yul\":3776:3895   */\n  iszero\n  tag_101\n  jumpi\n    /* \"#utility.yul\":3814:3893   */\n  tag_102\n  tag_28\n  jump\t// in\ntag_102:\n    /* \"#utility.yul\":3776:3895   */\ntag_101:\n    /* \"#utility.yul\":3955:3956   */\n  0x00\n    /* \"#utility.yul\":3944:3953   */\n  dup4\n    /* \"#utility.yul\":3940:3957   */\n  add\n    /* \"#utility.yul\":3934:3958   */\n  mload\n    /* \"#utility.yul\":3985:4003   */\n  0xffffffffffffffff\n    /* \"#utility.yul\":3977:3983   */\n  dup2\n    /* \"#utility.yul\":3974:4004   */\n  gt\n    /* \"#utility.yul\":3971:4088   */\n  iszero\n  tag_103\n  jumpi\n    /* \"#utility.yul\":4007:4086   */\n  tag_104\n  tag_29\n  jump\t// in\ntag_104:\n    /* \"#utility.yul\":3971:4088   */\ntag_103:\n    /* \"#utility.yul\":4112:4201   */\n  tag_105\n    /* \"#utility.yul\":4193:4200   */\n  dup6\n    /* \"#utility.yul\":4184:4190   */\n  dup3\n    /* \"#utility.yul\":4173:4182   */\n  dup7\n    /* \"#utility.yul\":4169:4191   */\n  add\n    /* \"#utility.yul\":4112:4201   */\n  tag_42\n  jump\t// in\ntag_105:\n    /* \"#utility.yul\":4102:4201   */\n  swap3\n  pop\n    /* \"#utility.yul\":3905:4211   */\n  pop\n    /* \"#utility.yul\":4250:4252   */\n  0x20\n    /* \"#utility.yul\":4276:4340   */\n  tag_106\n    /* \"#utility.yul\":4332:4339   */\n  dup6\n    /* \"#utility.yul\":4323:4329   */\n  dup3\n    /* \"#utility.yul\":4312:4321   */\n  dup7\n    /* \"#utility.yul\":4308:4330   */\n  add\n    /* \"#utility.yul\":4276:4340   */\n  tag_45\n  jump\t// in\ntag_106:\n    /* \"#utility.yul\":4266:4340   */\n  swap2\n  pop\n    /* \"#utility.yul\":4221:4350   */\n  pop\n    /* \"#utility.yul\":3647:4357   */\n  swap3\n  pop\n  swap3\n  swap1\n  pop\n  jump\t// out\n    /* \"#utility.yul\":4363:4532   */\ntag_46:\n    /* \"#utility.yul\":4447:4458   */\n  0x00\n    /* \"#utility.yul\":4481:4487   */\n  dup3\n    /* \"#utility.yul\":4476:4479   */\n  dup3\n    /* \"#utility.yul\":4469:4488   */\n  mstore\n    /* \"#utility.yul\":4521:4525   */\n  0x20\n    /* \"#utility.yul\":4516:4519   */\n  dup3\n    /* \"#utility.yul\":4512:4526   */\n  add\n    /* \"#utility.yul\":4497:4526   */\n  swap1\n  pop\n    /* \"#utility.yul\":4363:4532   */\n  swap3\n  swap2\n  pop\n  pop\n  jump\t// out\n    /* \"#utility.yul\":4538:4706   */\ntag_47:\n    /* \"#utility.yul\":4678:4698   */\n  0x4e6f206f776e6572732070726f76696465640000000000000000000000000000\n    /* \"#utility.yul\":4674:4675   */\n  0x00\n    /* \"#utility.yul\":4666:4672   */\n  dup3\n    /* \"#utility.yul\":4662:4676   */\n  add\n    /* \"#utility.yul\":4655:4699   */\n  mstore\n    /* \"#utility.yul\":4538:4706   */\n  pop\n  jump\t// out\n    /* \"#utility.yul\":4712:5078   */\ntag_48:\n    /* \"#utility.yul\":4854:4857   */\n  0x00\n    /* \"#utility.yul\":4875:4942   */\n  tag_110\n    /* \"#utility.yul\":4939:4941   */\n  0x12\n    /* \"#utility.yul\":4934:4937   */\n  dup4\n    /* \"#utility.yul\":4875:4942   */\n  tag_46\n  jump\t// in\ntag_110:\n    /* \"#utility.yul\":4868:4942   */\n  swap2\n  pop\n    /* \"#utility.yul\":4951:5044   */\n  tag_111\n    /* \"#utility.yul\":5040:5043   */\n  dup3\n    /* \"#utility.yul\":4951:5044   */\n  tag_47\n  jump\t// in\ntag_111:\n    /* \"#utility.yul\":5069:5071   */\n  0x20\n    /* \"#utility.yul\":5064:5067   */\n  dup3\n    /* \"#utility.yul\":5060:5072   */\n  add\n    /* \"#utility.yul\":5053:5072   */\n  swap1\n  pop\n    /* \"#utility.yul\":4712:5078   */\n  swap2\n  swap1\n  pop\n  jump\t// out\n    /* \"#utility.yul\":5084:5503   */\ntag_8:\n    /* \"#utility.yul\":5250:5254   */\n  0x00\n    /* \"#utility.yul\":5288:5290   */\n  0x20\n    /* \"#utility.yul\":5277:5286   */\n  dup3\n    /* \"#utility.yul\":5273:5291   */\n  add\n    /* \"#utility.yul\":5265:5291   */\n  swap1\n  pop\n    /* \"#utility.yul\":5337:5346   */\n  dup2\n    /* \"#utility.yul\":5331:5335   */\n  dup2\n    /* \"#utility.yul\":5327:5347   */\n  sub\n    /* \"#utility.yul\":5323:5324   */\n  0x00\n    /* \"#utility.yul\":5312:5321   */\n  dup4\n    /* \"#utility.yul\":5308:5325   */\n  add\n    /* \"#utility.yul\":5301:5348   */\n  mstore\n    /* \"#utility.yul\":5365:5496   */\n  tag_113\n    /* \"#utility.yul\":5491:5495   */\n  dup2\n    /* \"#utility.yul\":5365:5496   */\n  tag_48\n  jump\t// in\ntag_113:\n    /* \"#utility.yul\":5357:5496   */\n  swap1\n  pop\n    /* \"#utility.yul\":5084:5503   */\n  swap2\n  swap1\n  pop\n  jump\t// out\n    /* \"#utility.yul\":5509:5736   */\ntag_49:\n    /* \"#utility.yul\":5649:5683   */\n  0x496e76616c6964206e756d626572206f6620726571756972656420636f6e6669\n    /* \"#utility.yul\":5645:5646   */\n  0x00\n    /* \"#utility.yul\":5637:5643   */\n  dup3\n    /* \"#utility.yul\":5633:5647   */\n  add\n    /* \"#utility.yul\":5626:5684   */\n  mstore\n    /* \"#utility.yul\":5718:5728   */\n  0x726d6174696f6e73000000000000000000000000000000000000000000000000\n    /* \"#utility.yul\":5713:5715   */\n  0x20\n    /* \"#utility.yul\":5705:5711   */\n  dup3\n    /* \"#utility.yul\":5701:5716   */\n  add\n    /* \"#utility.yul\":5694:5729   */\n  mstore\n    /* \"#utility.yul\":5509:5736   */\n  pop\n  jump\t// out\n    /* \"#utility.yul\":5742:6108   */\ntag_50:\n    /* \"#utility.yul\":5884:5887   */\n  0x00\n    /* \"#utility.yul\":5905:5972   */\n  tag_116\n    /* \"#utility.yul\":5969:5971   */\n  0x28\n    /* \"#utility.yul\":5964:5967   */\n  dup4\n    /* \"#utility.yul\":5905:5972   */\n  tag_46\n  jump\t// in\ntag_116:\n    /* \"#utility.yul\":5898:5972   */\n  swap2\n  pop\n    /* \"#utility.yul\":5981:6074   */\n  tag_117\n    /* \"#utility.yul\":6070:6073   */\n  dup3\n    /* \"#utility.yul\":5981:6074   */\n  tag_49\n  jump\t// in\ntag_117:\n    /* \"#utility.yul\":6099:6101   */\n  0x40\n    /* \"#utility.yul\":6094:6097   */\n  dup3\n    /* \"#utility.yul\":6090:6102   */\n  add\n    /* \"#utility.yul\":6083:6102   */\n  swap1\n  pop\n    /* \"#utility.yul\":5742:6108   */\n  swap2\n  swap1\n  pop\n  jump\t// out\n    /* \"#utility.yul\":6114:6533   */\ntag_12:\n    /* \"#utility.yul\":6280:6284   */\n  0x00\n    /* \"#utility.yul\":6318:6320   */\n  0x20\n    /* \"#utility.yul\":6307:6316   */\n  dup3\n    /* \"#utility.yul\":6303:6321   */\n  add\n    /* \"#utility.yul\":6295:6321   */\n  swap1\n  pop\n    /* \"#utility.yul\":6367:6376   */\n  dup2\n    /* \"#utility.yul\":6361:6365   */\n  dup2\n    /* \"#utility.yul\":6357:6377   */\n  sub\n    /* \"#utility.yul\":6353:6354   */\n  0x00\n    /* \"#utility.yul\":6342:6351   */\n  dup4\n    /* \"#utility.yul\":6338:6355   */\n  add\n    /* \"#utility.yul\":6331:6378   */\n  mstore\n    /* \"#utility.yul\":6395:6526   */\n  tag_119\n    /* \"#utility.yul\":6521:6525   */\n  dup2\n    /* \"#utility.yul\":6395:6526   */\n  tag_50\n  jump\t// in\ntag_119:\n    /* \"#utility.yul\":6387:6526   */\n  swap1\n  pop\n    /* \"#utility.yul\":6114:6533   */\n  swap2\n  swap1\n  pop\n  jump\t// out\n    /* \"#utility.yul\":6539:6719   */\ntag_18:\n    /* \"#utility.yul\":6587:6664   */\n  0x4e487b7100000000000000000000000000000000000000000000000000000000\n    /* \"#utility.yul\":6584:6585   */\n  0x00\n    /* \"#utility.yul\":6577:6665   */\n  mstore\n    /* \"#utility.yul\":6684:6688   */\n  0x32\n    /* \"#utility.yul\":6681:6682   */\n  0x04\n    /* \"#utility.yul\":6674:6689   */\n  mstore\n    /* \"#utility.yul\":6708:6712   */\n  0x24\n    /* \"#utility.yul\":6705:6706   */\n  0x00\n    /* \"#utility.yul\":6698:6713   */\n  revert\n    /* \"#utility.yul\":6725:6957   */\ntag_51:\n    /* \"#utility.yul\":6865:6899   */\n  0x496e76616c696420616464726573733a204f776e65722063616e6e6f74206265\n    /* \"#utility.yul\":6861:6862   */\n  0x00\n    /* \"#utility.yul\":6853:6859   */\n  dup3\n    /* \"#utility.yul\":6849:6863   */\n  add\n    /* \"#utility.yul\":6842:6900   */\n  mstore\n    /* \"#utility.yul\":6934:6949   */\n  0x207a65726f206164647265737300000000000000000000000000000000000000\n    /* \"#utility.yul\":6929:6931   */\n  0x20\n    /* \"#utility.yul\":6921:6927   */\n  dup3\n    /* \"#utility.yul\":6917:6932   */\n  add\n    /* \"#utility.yul\":6910:6950   */\n  mstore\n    /* \"#utility.yul\":6725:6957   */\n  pop\n  jump\t// out\n    /* \"#utility.yul\":6963:7329   */\ntag_52:\n    /* \"#utility.yul\":7105:7108   */\n  0x00\n    /* \"#utility.yul\":7126:7193   */\n  tag_123\n    /* \"#utility.yul\":7190:7192   */\n  0x2d\n    /* \"#utility.yul\":7185:7188   */\n  dup4\n    /* \"#utility.yul\":7126:7193   */\n  tag_46\n  jump\t// in\ntag_123:\n    /* \"#utility.yul\":7119:7193   */\n  swap2\n  pop\n    /* \"#utility.yul\":7202:7295   */\n  tag_124\n    /* \"#utility.yul\":7291:7294   */\n  dup3\n    /* \"#utility.yul\":7202:7295   */\n  tag_51\n  jump\t// in\ntag_124:\n    /* \"#utility.yul\":7320:7322   */\n  0x40\n    /* \"#utility.yul\":7315:7318   */\n  dup3\n    /* \"#utility.yul\":7311:7323   */\n  add\n    /* \"#utility.yul\":7304:7323   */\n  swap1\n  pop\n    /* \"#utility.yul\":6963:7329   */\n  swap2\n  swap1\n  pop\n  jump\t// out\n    /* \"#utility.yul\":7335:7754   */\ntag_21:\n    /* \"#utility.yul\":7501:7505   */\n  0x00\n    /* \"#utility.yul\":7539:7541   */\n  0x20\n    /* \"#utility.yul\":7528:7537   */\n  dup3\n    /* \"#utility.yul\":7524:7542   */\n  add\n    /* \"#utility.yul\":7516:7542   */\n  swap1\n  pop\n    /* \"#utility.yul\":7588:7597   */\n  dup2\n    /* \"#utility.yul\":7582:7586   */\n  dup2\n    /* \"#utility.yul\":7578:7598   */\n  sub\n    /* \"#utility.yul\":7574:7575   */\n  0x00\n    /* \"#utility.yul\":7563:7572   */\n  dup4\n    /* \"#utility.yul\":7559:7576   */\n  add\n    /* \"#utility.yul\":7552:7599   */\n  mstore\n    /* \"#utility.yul\":7616:7747   */\n  tag_126\n    /* \"#utility.yul\":7742:7746   */\n  dup2\n    /* \"#utility.yul\":7616:7747   */\n  tag_52\n  jump\t// in\ntag_126:\n    /* \"#utility.yul\":7608:7747   */\n  swap1\n  pop\n    /* \"#utility.yul\":7335:7754   */\n  swap2\n  swap1\n  pop\n  jump\t// out\n    /* \"#utility.yul\":7760:7988   */\ntag_53:\n    /* \"#utility.yul\":7900:7934   */\n  0x4475706c6963617465206f776e65723a204164647265737320616c7265616479\n    /* \"#utility.yul\":7896:7897   */\n  0x00\n    /* \"#utility.yul\":7888:7894   */\n  dup3\n    /* \"#utility.yul\":7884:7898   */\n  add\n    /* \"#utility.yul\":7877:7935   */\n  mstore\n    /* \"#utility.yul\":7969:7980   */\n  0x20616e206f776e65720000000000000000000000000000000000000000000000\n    /* \"#utility.yul\":7964:7966   */\n  0x20\n    /* \"#utility.yul\":7956:7962   */\n  dup3\n    /* \"#utility.yul\":7952:7967   */\n  add\n    /* \"#utility.yul\":7945:7981   */\n  mstore\n    /* \"#utility.yul\":7760:7988   */\n  pop\n  jump\t// out\n    /* \"#utility.yul\":7994:8360   */\ntag_54:\n    /* \"#utility.yul\":8136:8139   */\n  0x00\n    /* \"#utility.yul\":8157:8224   */\n  tag_129\n    /* \"#utility.yul\":8221:8223   */\n  0x29\n    /* \"#utility.yul\":8216:8219   */\n  dup4\n    /* \"#utility.yul\":8157:8224   */\n  tag_46\n  jump\t// in\ntag_129:\n    /* \"#utility.yul\":8150:8224   */\n  swap2\n  pop\n    /* \"#utility.yul\":8233:8326   */\n  tag_130\n    /* \"#utility.yul\":8322:8325   */\n  dup3\n    /* \"#utility.yul\":8233:8326   */\n  tag_53\n  jump\t// in\ntag_130:\n    /* \"#utility.yul\":8351:8353   */\n  0x40\n    /* \"#utility.yul\":8346:8349   */\n  dup3\n    /* \"#utility.yul\":8342:8354   */\n  add\n    /* \"#utility.yul\":8335:8354   */\n  swap1\n  pop\n    /* \"#utility.yul\":7994:8360   */\n  swap2\n  swap1\n  pop\n  jump\t// out\n    /* \"#utility.yul\":8366:8785   */\ntag_24:\n    /* \"#utility.yul\":8532:8536   */\n  0x00\n    /* \"#utility.yul\":8570:8572   */\n  0x20\n    /* \"#utility.yul\":8559:8568   */\n  dup3\n    /* \"#utility.yul\":8555:8573   */\n  add\n    /* \"#utility.yul\":8547:8573   */\n  swap1\n  pop\n    /* \"#utility.yul\":8619:8628   */\n  dup2\n    /* \"#utility.yul\":8613:8617   */\n  dup2\n    /* \"#utility.yul\":8609:8629   */\n  sub\n    /* \"#utility.yul\":8605:8606   */\n  0x00\n    /* \"#utility.yul\":8594:8603   */\n  dup4\n    /* \"#utility.yul\":8590:8607   */\n  add\n    /* \"#utility.yul\":8583:8630   */\n  mstore\n    /* \"#utility.yul\":8647:8778   */\n  tag_132\n    /* \"#utility.yul\":8773:8777   */\n  dup2\n    /* \"#utility.yul\":8647:8778   */\n  tag_54\n  jump\t// in\ntag_132:\n    /* \"#utility.yul\":8639:8778   */\n  swap1\n  pop\n    /* \"#utility.yul\":8366:8785   */\n  swap2\n  swap1\n  pop\n  jump\t// out\n    /* \"contracts/wallets/ZrWallet.sol\":213:5530  contract ZrWallet {... */\ntag_26:\n  dataSize(sub_0)\n  dup1\n  dataOffset(sub_0)\n  0x00\n  codecopy\n  0x00\n  return\nstop\n\nsub_0: assembly {\n        /* \"contracts/wallets/ZrWallet.sol\":213:5530  contract ZrWallet {... */\n      mstore(0x40, 0x80)\n      jumpi(tag_1, lt(calldatasize, 0x04))\n      shr(0xe0, calldataload(0x00))\n      dup1\n      0x642f2eaf\n      gt\n      tag_10\n      jumpi\n      dup1\n      0x642f2eaf\n      eq\n      tag_6\n      jumpi\n      dup1\n      0x79716e43\n      eq\n      tag_7\n      jumpi\n      dup1\n      0x82e717f7\n      eq\n      tag_8\n      jumpi\n      dup1\n      0xa9496e75\n      eq\n      tag_9\n      jumpi\n      jump(tag_2)\n    tag_10:\n      dup1\n      0x025e7c27\n      eq\n      tag_3\n      jumpi\n      dup1\n      0x2f54bf6e\n      eq\n      tag_4\n      jumpi\n      dup1\n      0x515a39b6\n      eq\n      tag_5\n      jumpi\n      jump(tag_2)\n    tag_1:\n      jumpi(tag_2, calldatasize)\n        /* \"contracts/wallets/ZrWallet.sol\":2331:2341  msg.sender */\n      caller\n        /* \"contracts/wallets/ZrWallet.sol\":2323:2353  Deposit(msg.sender, msg.value) */\n      0xffffffffffffffffffffffffffffffffffffffff\n      and\n      0xe1fffcc4923d04b559f4d29a8bfc6cda04eb5b0d3c460751c2402c5c5cc9109c\n        /* \"contracts/wallets/ZrWallet.sol\":2343:2352  msg.value */\n      callvalue\n        /* \"contracts/wallets/ZrWallet.sol\":2323:2353  Deposit(msg.sender, msg.value) */\n      mload(0x40)\n      tag_13\n      swap2\n      swap1\n      tag_14\n      jump\t// in\n    tag_13:\n      mload(0x40)\n      dup1\n      swap2\n      sub\n      swap1\n      log2\n        /* \"contracts/wallets/ZrWallet.sol\":213:5530  contract ZrWallet {... */\n      stop\n    tag_2:\n      0x00\n      dup1\n      revert\n        /* \"contracts/wallets/ZrWallet.sol\":561:584  address[] public owners */\n    tag_3:\n      callvalue\n      dup1\n      iszero\n      tag_15\n      jumpi\n      0x00\n      dup1\n      revert\n    tag_15:\n      pop\n      tag_16\n      0x04\n      dup1\n      calldatasize\n      sub\n      dup2\n      add\n      swap1\n      tag_17\n      swap2\n      swap1\n      tag_18\n      jump\t// in\n    tag_17:\n      tag_19\n      jump\t// in\n    tag_16:\n      mload(0x40)\n      tag_20\n      swap2\n      swap1\n      tag_21\n      jump\t// in\n    tag_20:\n      mload(0x40)\n      dup1\n      swap2\n      sub\n      swap1\n      return\n        /* \"contracts/wallets/ZrWallet.sol\":590:629  mapping(address => bool) public isOwner */\n    tag_4:\n      callvalue\n      dup1\n      iszero\n      tag_22\n      jumpi\n      0x00\n      dup1\n      revert\n    tag_22:\n      pop\n      tag_23\n      0x04\n      dup1\n      calldatasize\n      sub\n      dup2\n      add\n      swap1\n      tag_24\n      swap2\n      swap1\n      tag_25\n      jump\t// in\n    tag_24:\n      tag_26\n      jump\t// in\n    tag_23:\n      mload(0x40)\n      tag_27\n      swap2\n      swap1\n      tag_28\n      jump\t// in\n    tag_27:\n      mload(0x40)\n      dup1\n      swap2\n      sub\n      swap1\n      return\n        /* \"contracts/wallets/ZrWallet.sol\":4687:5528  function getTransactionDetails(bytes32 txHash) external view returns (... */\n    tag_5:\n      callvalue\n      dup1\n      iszero\n      tag_29\n      jumpi\n      0x00\n      dup1\n      revert\n    tag_29:\n      pop\n      tag_30\n      0x04\n      dup1\n      calldatasize\n      sub\n      dup2\n      add\n      swap1\n      tag_31\n      swap2\n      swap1\n      tag_32\n      jump\t// in\n    tag_31:\n      tag_33\n      jump\t// in\n    tag_30:\n      mload(0x40)\n      tag_34\n      swap7\n      swap6\n      swap5\n      swap4\n      swap3\n      swap2\n      swap1\n      tag_35\n      jump\t// in\n    tag_34:\n      mload(0x40)\n      dup1\n      swap2\n      sub\n      swap1\n      return\n        /* \"contracts/wallets/ZrWallet.sol\":677:728  mapping(bytes32 => Transaction) public transactions */\n    tag_6:\n      callvalue\n      dup1\n      iszero\n      tag_36\n      jumpi\n      0x00\n      dup1\n      revert\n    tag_36:\n      pop\n      tag_37\n      0x04\n      dup1\n      calldatasize\n      sub\n      dup2\n      add\n      swap1\n      tag_38\n      swap2\n      swap1\n      tag_32\n      jump\t// in\n    tag_38:\n      tag_39\n      jump\t// in\n    tag_37:\n      mload(0x40)\n      tag_40\n      swap6\n      swap5\n      swap4\n      swap3\n      swap2\n      swap1\n      tag_41\n      jump\t// in\n    tag_40:\n      mload(0x40)\n      dup1\n      swap2\n      sub\n      swap1\n      return\n        /* \"contracts/wallets/ZrWallet.sol\":3253:3611  function confirmTransaction(bytes32 txHash) external onlyOwner transactionExists(txHash) notConfirmed(txHash) {... */\n    tag_7:\n      callvalue\n      dup1\n      iszero\n      tag_42\n      jumpi\n      0x00\n      dup1\n      revert\n    tag_42:\n      pop\n      tag_43\n      0x04\n      dup1\n      calldatasize\n      sub\n      dup2\n      add\n      swap1\n      tag_44\n      swap2\n      swap1\n      tag_32\n      jump\t// in\n    tag_44:\n      tag_45\n      jump\t// in\n    tag_43:\n      stop\n        /* \"contracts/wallets/ZrWallet.sol\":635:671  uint256 public requiredConfirmations */\n    tag_8:\n      callvalue\n      dup1\n      iszero\n      tag_46\n      jumpi\n      0x00\n      dup1\n      revert\n    tag_46:\n      pop\n      tag_47\n      tag_48\n      jump\t// in\n    tag_47:\n      mload(0x40)\n      tag_49\n      swap2\n      swap1\n      tag_14\n      jump\t// in\n    tag_49:\n      mload(0x40)\n      dup1\n      swap2\n      sub\n      swap1\n      return\n        /* \"contracts/wallets/ZrWallet.sol\":2627:3143  function createTransaction(address to, uint256 amount, bytes memory data) external onlyOwner returns (bytes32 txHash) {... */\n    tag_9:\n      callvalue\n      dup1\n      iszero\n      tag_50\n      jumpi\n      0x00\n      dup1\n      revert\n    tag_50:\n      pop\n      tag_51\n      0x04\n      dup1\n      calldatasize\n      sub\n      dup2\n      add\n      swap1\n      tag_52\n      swap2\n      swap1\n      tag_53\n      jump\t// in\n    tag_52:\n      tag_54\n      jump\t// in\n    tag_51:\n      mload(0x40)\n      tag_55\n      swap2\n      swap1\n      tag_56\n      jump\t// in\n    tag_55:\n      mload(0x40)\n      dup1\n      swap2\n      sub\n      swap1\n      return\n        /* \"contracts/wallets/ZrWallet.sol\":561:584  address[] public owners */\n    tag_19:\n      0x00\n      dup2\n      dup2\n      sload\n      dup2\n      lt\n      tag_57\n      jumpi\n      0x00\n      dup1\n      revert\n    tag_57:\n      swap1\n      0x00\n      mstore\n      keccak256(0x00, 0x20)\n      add\n      0x00\n      swap2\n      pop\n      sload\n      swap1\n      0x0100\n      exp\n      swap1\n      div\n      0xffffffffffffffffffffffffffffffffffffffff\n      and\n      dup2\n      jump\t// out\n        /* \"contracts/wallets/ZrWallet.sol\":590:629  mapping(address => bool) public isOwner */\n    tag_26:\n      mstore(0x20, 0x01)\n      dup1\n      0x00\n      mstore\n      keccak256(0x00, 0x40)\n      0x00\n      swap2\n      pop\n      sload\n      swap1\n      0x0100\n      exp\n      swap1\n      div\n      0xff\n      and\n      dup2\n      jump\t// out\n        /* \"contracts/wallets/ZrWallet.sol\":4687:5528  function getTransactionDetails(bytes32 txHash) external view returns (... */\n    tag_33:\n        /* \"contracts/wallets/ZrWallet.sol\":4766:4776  address to */\n      0x00\n        /* \"contracts/wallets/ZrWallet.sol\":4786:4800  uint256 amount */\n      dup1\n        /* \"contracts/wallets/ZrWallet.sol\":4810:4827  bytes memory data */\n      0x60\n        /* \"contracts/wallets/ZrWallet.sol\":4837:4850  bool executed */\n      0x00\n        /* \"contracts/wallets/ZrWallet.sol\":4860:4881  uint256 confirmations */\n      dup1\n        /* \"contracts/wallets/ZrWallet.sol\":4891:4919  address[] memory confirmedBy */\n      0x60\n        /* \"contracts/wallets/ZrWallet.sol\":4936:4959  Transaction storage txn */\n      0x00\n        /* \"contracts/wallets/ZrWallet.sol\":4962:4974  transactions */\n      0x03\n        /* \"contracts/wallets/ZrWallet.sol\":4962:4982  transactions[txHash] */\n      0x00\n        /* \"contracts/wallets/ZrWallet.sol\":4975:4981  txHash */\n      dup10\n        /* \"contracts/wallets/ZrWallet.sol\":4962:4982  transactions[txHash] */\n      dup2\n      mstore\n      0x20\n      add\n      swap1\n      dup2\n      mstore\n      0x20\n      add\n      0x00\n      keccak256\n        /* \"contracts/wallets/ZrWallet.sol\":4936:4982  Transaction storage txn = transactions[txHash] */\n      swap1\n      pop\n        /* \"contracts/wallets/ZrWallet.sol\":5018:5019  0 */\n      0x00\n        /* \"contracts/wallets/ZrWallet.sol\":5000:5020  txn.to != address(0) */\n      0xffffffffffffffffffffffffffffffffffffffff\n      and\n        /* \"contracts/wallets/ZrWallet.sol\":5000:5003  txn */\n      dup2\n        /* \"contracts/wallets/ZrWallet.sol\":5000:5006  txn.to */\n      0x00\n      add\n      0x00\n      swap1\n      sload\n      swap1\n      0x0100\n      exp\n      swap1\n      div\n      0xffffffffffffffffffffffffffffffffffffffff\n      and\n        /* \"contracts/wallets/ZrWallet.sol\":5000:5020  txn.to != address(0) */\n      0xffffffffffffffffffffffffffffffffffffffff\n      and\n      sub\n        /* \"contracts/wallets/ZrWallet.sol\":4992:5051  require(txn.to != address(0), \"Transaction does not exist\") */\n      tag_60\n      jumpi\n      mload(0x40)\n      0x08c379a000000000000000000000000000000000000000000000000000000000\n      dup2\n      mstore\n      0x04\n      add\n      tag_61\n      swap1\n      tag_62\n      jump\t// in\n    tag_61:\n      mload(0x40)\n      dup1\n      swap2\n      sub\n      swap1\n      revert\n    tag_60:\n        /* \"contracts/wallets/ZrWallet.sol\":5062:5091  address[] memory _confirmedBy */\n      0x00\n        /* \"contracts/wallets/ZrWallet.sol\":5108:5114  owners */\n      dup1\n        /* \"contracts/wallets/ZrWallet.sol\":5108:5121  owners.length */\n      dup1\n      sload\n      swap1\n      pop\n        /* \"contracts/wallets/ZrWallet.sol\":5094:5122  new address[](owners.length) */\n      0xffffffffffffffff\n      dup2\n      gt\n      iszero\n      tag_63\n      jumpi\n      tag_64\n      tag_65\n      jump\t// in\n    tag_64:\n    tag_63:\n      mload(0x40)\n      swap1\n      dup1\n      dup3\n      mstore\n      dup1\n      0x20\n      mul\n      0x20\n      add\n      dup3\n      add\n      0x40\n      mstore\n      dup1\n      iszero\n      tag_66\n      jumpi\n      dup2\n      0x20\n      add\n      0x20\n      dup3\n      mul\n      dup1\n      calldatasize\n      dup4\n      calldatacopy\n      dup1\n      dup3\n      add\n      swap2\n      pop\n      pop\n      swap1\n      pop\n    tag_66:\n      pop\n        /* \"contracts/wallets/ZrWallet.sol\":5062:5122  address[] memory _confirmedBy = new address[](owners.length) */\n      swap1\n      pop\n        /* \"contracts/wallets/ZrWallet.sol\":5132:5145  uint256 count */\n      0x00\n        /* \"contracts/wallets/ZrWallet.sol\":5164:5170  uint i */\n      dup1\n        /* \"contracts/wallets/ZrWallet.sol\":5159:5345  for (uint i = 0; i < owners.length; i++) {... */\n    tag_67:\n        /* \"contracts/wallets/ZrWallet.sol\":5180:5186  owners */\n      0x00\n        /* \"contracts/wallets/ZrWallet.sol\":5180:5193  owners.length */\n      dup1\n      sload\n      swap1\n      pop\n        /* \"contracts/wallets/ZrWallet.sol\":5176:5177  i */\n      dup2\n        /* \"contracts/wallets/ZrWallet.sol\":5176:5193  i < owners.length */\n      lt\n        /* \"contracts/wallets/ZrWallet.sol\":5159:5345  for (uint i = 0; i < owners.length; i++) {... */\n      iszero\n      tag_68\n      jumpi\n        /* \"contracts/wallets/ZrWallet.sol\":5218:5221  txn */\n      dup4\n        /* \"contracts/wallets/ZrWallet.sol\":5218:5233  txn.confirmedBy */\n      0x05\n      add\n        /* \"contracts/wallets/ZrWallet.sol\":5218:5244  txn.confirmedBy[owners[i]] */\n      0x00\n        /* \"contracts/wallets/ZrWallet.sol\":5234:5240  owners */\n      dup1\n        /* \"contracts/wallets/ZrWallet.sol\":5241:5242  i */\n      dup4\n        /* \"contracts/wallets/ZrWallet.sol\":5234:5243  owners[i] */\n      dup2\n      sload\n      dup2\n      lt\n      tag_70\n      jumpi\n      tag_71\n      tag_72\n      jump\t// in\n    tag_71:\n    tag_70:\n      swap1\n      0x00\n      mstore\n      keccak256(0x00, 0x20)\n      add\n      0x00\n      swap1\n      sload\n      swap1\n      0x0100\n      exp\n      swap1\n      div\n      0xffffffffffffffffffffffffffffffffffffffff\n      and\n        /* \"contracts/wallets/ZrWallet.sol\":5218:5244  txn.confirmedBy[owners[i]] */\n      0xffffffffffffffffffffffffffffffffffffffff\n      and\n      0xffffffffffffffffffffffffffffffffffffffff\n      and\n      dup2\n      mstore\n      0x20\n      add\n      swap1\n      dup2\n      mstore\n      0x20\n      add\n      0x00\n      keccak256\n      0x00\n      swap1\n      sload\n      swap1\n      0x0100\n      exp\n      swap1\n      div\n      0xff\n      and\n        /* \"contracts/wallets/ZrWallet.sol\":5214:5335  if (txn.confirmedBy[owners[i]]) {... */\n      iszero\n      tag_74\n      jumpi\n        /* \"contracts/wallets/ZrWallet.sol\":5286:5292  owners */\n      0x00\n        /* \"contracts/wallets/ZrWallet.sol\":5293:5294  i */\n      dup2\n        /* \"contracts/wallets/ZrWallet.sol\":5286:5295  owners[i] */\n      dup2\n      sload\n      dup2\n      lt\n      tag_75\n      jumpi\n      tag_76\n      tag_72\n      jump\t// in\n    tag_76:\n    tag_75:\n      swap1\n      0x00\n      mstore\n      keccak256(0x00, 0x20)\n      add\n      0x00\n      swap1\n      sload\n      swap1\n      0x0100\n      exp\n      swap1\n      div\n      0xffffffffffffffffffffffffffffffffffffffff\n      and\n        /* \"contracts/wallets/ZrWallet.sol\":5264:5276  _confirmedBy */\n      dup4\n        /* \"contracts/wallets/ZrWallet.sol\":5277:5282  count */\n      dup4\n        /* \"contracts/wallets/ZrWallet.sol\":5264:5283  _confirmedBy[count] */\n      dup2\n      mload\n      dup2\n      lt\n      tag_78\n      jumpi\n      tag_79\n      tag_72\n      jump\t// in\n    tag_79:\n    tag_78:\n      0x20\n      mul\n      0x20\n      add\n      add\n        /* \"contracts/wallets/ZrWallet.sol\":5264:5295  _confirmedBy[count] = owners[i] */\n      swap1\n      0xffffffffffffffffffffffffffffffffffffffff\n      and\n      swap1\n      dup2\n      0xffffffffffffffffffffffffffffffffffffffff\n      and\n      dup2\n      mstore\n      pop\n      pop\n        /* \"contracts/wallets/ZrWallet.sol\":5313:5320  count++ */\n      dup2\n      dup1\n      tag_80\n      swap1\n      tag_81\n      jump\t// in\n    tag_80:\n      swap3\n      pop\n      pop\n        /* \"contracts/wallets/ZrWallet.sol\":5214:5335  if (txn.confirmedBy[owners[i]]) {... */\n    tag_74:\n        /* \"contracts/wallets/ZrWallet.sol\":5195:5198  i++ */\n      dup1\n      dup1\n      0x01\n      add\n      swap2\n      pop\n      pop\n        /* \"contracts/wallets/ZrWallet.sol\":5159:5345  for (uint i = 0; i < owners.length; i++) {... */\n      jump(tag_67)\n    tag_68:\n      pop\n        /* \"contracts/wallets/ZrWallet.sol\":5376:5379  txn */\n      dup3\n        /* \"contracts/wallets/ZrWallet.sol\":5376:5382  txn.to */\n      0x00\n      add\n      0x00\n      swap1\n      sload\n      swap1\n      0x0100\n      exp\n      swap1\n      div\n      0xffffffffffffffffffffffffffffffffffffffff\n      and\n        /* \"contracts/wallets/ZrWallet.sol\":5396:5399  txn */\n      dup4\n        /* \"contracts/wallets/ZrWallet.sol\":5396:5406  txn.amount */\n      0x01\n      add\n      sload\n        /* \"contracts/wallets/ZrWallet.sol\":5420:5423  txn */\n      dup5\n        /* \"contracts/wallets/ZrWallet.sol\":5420:5428  txn.data */\n      0x02\n      add\n        /* \"contracts/wallets/ZrWallet.sol\":5442:5445  txn */\n      dup6\n        /* \"contracts/wallets/ZrWallet.sol\":5442:5454  txn.executed */\n      0x03\n      add\n      0x00\n      swap1\n      sload\n      swap1\n      0x0100\n      exp\n      swap1\n      div\n      0xff\n      and\n        /* \"contracts/wallets/ZrWallet.sol\":5468:5471  txn */\n      dup7\n        /* \"contracts/wallets/ZrWallet.sol\":5468:5485  txn.confirmations */\n      0x04\n      add\n      sload\n        /* \"contracts/wallets/ZrWallet.sol\":5499:5511  _confirmedBy */\n      dup7\n        /* \"contracts/wallets/ZrWallet.sol\":5355:5521  return (... */\n      dup4\n      dup1\n      sload\n      tag_82\n      swap1\n      tag_83\n      jump\t// in\n    tag_82:\n      dup1\n      0x1f\n      add\n      0x20\n      dup1\n      swap2\n      div\n      mul\n      0x20\n      add\n      mload(0x40)\n      swap1\n      dup2\n      add\n      0x40\n      mstore\n      dup1\n      swap3\n      swap2\n      swap1\n      dup2\n      dup2\n      mstore\n      0x20\n      add\n      dup3\n      dup1\n      sload\n      tag_84\n      swap1\n      tag_83\n      jump\t// in\n    tag_84:\n      dup1\n      iszero\n      tag_85\n      jumpi\n      dup1\n      0x1f\n      lt\n      tag_86\n      jumpi\n      0x0100\n      dup1\n      dup4\n      sload\n      div\n      mul\n      dup4\n      mstore\n      swap2\n      0x20\n      add\n      swap2\n      jump(tag_85)\n    tag_86:\n      dup3\n      add\n      swap2\n      swap1\n      0x00\n      mstore\n      keccak256(0x00, 0x20)\n      swap1\n    tag_87:\n      dup2\n      sload\n      dup2\n      mstore\n      swap1\n      0x01\n      add\n      swap1\n      0x20\n      add\n      dup1\n      dup4\n      gt\n      tag_87\n      jumpi\n      dup3\n      swap1\n      sub\n      0x1f\n      and\n      dup3\n      add\n      swap2\n    tag_85:\n      pop\n      pop\n      pop\n      pop\n      pop\n      swap4\n      pop\n      swap9\n      pop\n      swap9\n      pop\n      swap9\n      pop\n      swap9\n      pop\n      swap9\n      pop\n      swap9\n      pop\n      pop\n      pop\n      pop\n        /* \"contracts/wallets/ZrWallet.sol\":4687:5528  function getTransactionDetails(bytes32 txHash) external view returns (... */\n      swap2\n      swap4\n      swap6\n      pop\n      swap2\n      swap4\n      swap6\n      jump\t// out\n        /* \"contracts/wallets/ZrWallet.sol\":677:728  mapping(bytes32 => Transaction) public transactions */\n    tag_39:\n      mstore(0x20, 0x03)\n      dup1\n      0x00\n      mstore\n      keccak256(0x00, 0x40)\n      0x00\n      swap2\n      pop\n      swap1\n      pop\n      dup1\n      0x00\n      add\n      0x00\n      swap1\n      sload\n      swap1\n      0x0100\n      exp\n      swap1\n      div\n      0xffffffffffffffffffffffffffffffffffffffff\n      and\n      swap1\n      dup1\n      0x01\n      add\n      sload\n      swap1\n      dup1\n      0x02\n      add\n      dup1\n      sload\n      tag_88\n      swap1\n      tag_83\n      jump\t// in\n    tag_88:\n      dup1\n      0x1f\n      add\n      0x20\n      dup1\n      swap2\n      div\n      mul\n      0x20\n      add\n      mload(0x40)\n      swap1\n      dup2\n      add\n      0x40\n      mstore\n      dup1\n      swap3\n      swap2\n      swap1\n      dup2\n      dup2\n      mstore\n      0x20\n      add\n      dup3\n      dup1\n      sload\n      tag_89\n      swap1\n      tag_83\n      jump\t// in\n    tag_89:\n      dup1\n      iszero\n      tag_90\n      jumpi\n      dup1\n      0x1f\n      lt\n      tag_91\n      jumpi\n      0x0100\n      dup1\n      dup4\n      sload\n      div\n      mul\n      dup4\n      mstore\n      swap2\n      0x20\n      add\n      swap2\n      jump(tag_90)\n    tag_91:\n      dup3\n      add\n      swap2\n      swap1\n      0x00\n      mstore\n      keccak256(0x00, 0x20)\n      swap1\n    tag_92:\n      dup2\n      sload\n      dup2\n      mstore\n      swap1\n      0x01\n      add\n      swap1\n      0x20\n      add\n      dup1\n      dup4\n      gt\n      tag_92\n      jumpi\n      dup3\n      swap1\n      sub\n      0x1f\n      and\n      dup3\n      add\n      swap2\n    tag_90:\n      pop\n      pop\n      pop\n      pop\n      pop\n      swap1\n      dup1\n      0x03\n      add\n      0x00\n      swap1\n      sload\n      swap1\n      0x0100\n      exp\n      swap1\n      div\n      0xff\n      and\n      swap1\n      dup1\n      0x04\n      add\n      sload\n      swap1\n      pop\n      dup6\n      jump\t// out\n        /* \"contracts/wallets/ZrWallet.sol\":3253:3611  function confirmTransaction(bytes32 txHash) external onlyOwner transactionExists(txHash) notConfirmed(txHash) {... */\n    tag_45:\n        /* \"contracts/wallets/ZrWallet.sol\":1002:1009  isOwner */\n      0x01\n        /* \"contracts/wallets/ZrWallet.sol\":1002:1021  isOwner[msg.sender] */\n      0x00\n        /* \"contracts/wallets/ZrWallet.sol\":1010:1020  msg.sender */\n      caller\n        /* \"contracts/wallets/ZrWallet.sol\":1002:1021  isOwner[msg.sender] */\n      0xffffffffffffffffffffffffffffffffffffffff\n      and\n      0xffffffffffffffffffffffffffffffffffffffff\n      and\n      dup2\n      mstore\n      0x20\n      add\n      swap1\n      dup2\n      mstore\n      0x20\n      add\n      0x00\n      keccak256\n      0x00\n      swap1\n      sload\n      swap1\n      0x0100\n      exp\n      swap1\n      div\n      0xff\n      and\n        /* \"contracts/wallets/ZrWallet.sol\":994:1064  require(isOwner[msg.sender], \"Not authorized: Caller is not an owner\") */\n      tag_94\n      jumpi\n      mload(0x40)\n      0x08c379a000000000000000000000000000000000000000000000000000000000\n      dup2\n      mstore\n      0x04\n      add\n      tag_95\n      swap1\n      tag_96\n      jump\t// in\n    tag_95:\n      mload(0x40)\n      dup1\n      swap2\n      sub\n      swap1\n      revert\n    tag_94:\n        /* \"contracts/wallets/ZrWallet.sol\":3334:3340  txHash */\n      dup1\n        /* \"contracts/wallets/ZrWallet.sol\":1184:1185  0 */\n      0x00\n        /* \"contracts/wallets/ZrWallet.sol\":1149:1186  transactions[txHash].to != address(0) */\n      0xffffffffffffffffffffffffffffffffffffffff\n      and\n        /* \"contracts/wallets/ZrWallet.sol\":1149:1161  transactions */\n      0x03\n        /* \"contracts/wallets/ZrWallet.sol\":1149:1169  transactions[txHash] */\n      0x00\n        /* \"contracts/wallets/ZrWallet.sol\":1162:1168  txHash */\n      dup4\n        /* \"contracts/wallets/ZrWallet.sol\":1149:1169  transactions[txHash] */\n      dup2\n      mstore\n      0x20\n      add\n      swap1\n      dup2\n      mstore\n      0x20\n      add\n      0x00\n      keccak256\n        /* \"contracts/wallets/ZrWallet.sol\":1149:1172  transactions[txHash].to */\n      0x00\n      add\n      0x00\n      swap1\n      sload\n      swap1\n      0x0100\n      exp\n      swap1\n      div\n      0xffffffffffffffffffffffffffffffffffffffff\n      and\n        /* \"contracts/wallets/ZrWallet.sol\":1149:1186  transactions[txHash].to != address(0) */\n      0xffffffffffffffffffffffffffffffffffffffff\n      and\n      sub\n        /* \"contracts/wallets/ZrWallet.sol\":1141:1217  require(transactions[txHash].to != address(0), \"Transaction does not exist\") */\n      tag_98\n      jumpi\n      mload(0x40)\n      0x08c379a000000000000000000000000000000000000000000000000000000000\n      dup2\n      mstore\n      0x04\n      add\n      tag_99\n      swap1\n      tag_62\n      jump\t// in\n    tag_99:\n      mload(0x40)\n      dup1\n      swap2\n      sub\n      swap1\n      revert\n    tag_98:\n        /* \"contracts/wallets/ZrWallet.sol\":3355:3361  txHash */\n      dup2\n        /* \"contracts/wallets/ZrWallet.sol\":1440:1452  transactions */\n      0x03\n        /* \"contracts/wallets/ZrWallet.sol\":1440:1460  transactions[txHash] */\n      0x00\n        /* \"contracts/wallets/ZrWallet.sol\":1453:1459  txHash */\n      dup3\n        /* \"contracts/wallets/ZrWallet.sol\":1440:1460  transactions[txHash] */\n      dup2\n      mstore\n      0x20\n      add\n      swap1\n      dup2\n      mstore\n      0x20\n      add\n      0x00\n      keccak256\n        /* \"contracts/wallets/ZrWallet.sol\":1440:1472  transactions[txHash].confirmedBy */\n      0x05\n      add\n        /* \"contracts/wallets/ZrWallet.sol\":1440:1484  transactions[txHash].confirmedBy[msg.sender] */\n      0x00\n        /* \"contracts/wallets/ZrWallet.sol\":1473:1483  msg.sender */\n      caller\n        /* \"contracts/wallets/ZrWallet.sol\":1440:1484  transactions[txHash].confirmedBy[msg.sender] */\n      0xffffffffffffffffffffffffffffffffffffffff\n      and\n      0xffffffffffffffffffffffffffffffffffffffff\n      and\n      dup2\n      mstore\n      0x20\n      add\n      swap1\n      dup2\n      mstore\n      0x20\n      add\n      0x00\n      keccak256\n      0x00\n      swap1\n      sload\n      swap1\n      0x0100\n      exp\n      swap1\n      div\n      0xff\n      and\n        /* \"contracts/wallets/ZrWallet.sol\":1439:1484  !transactions[txHash].confirmedBy[msg.sender] */\n      iszero\n        /* \"contracts/wallets/ZrWallet.sol\":1431:1518  require(!transactions[txHash].confirmedBy[msg.sender], \"Transaction already confirmed\") */\n      tag_101\n      jumpi\n      mload(0x40)\n      0x08c379a000000000000000000000000000000000000000000000000000000000\n      dup2\n      mstore\n      0x04\n      add\n      tag_102\n      swap1\n      tag_103\n      jump\t// in\n    tag_102:\n      mload(0x40)\n      dup1\n      swap2\n      sub\n      swap1\n      revert\n    tag_101:\n        /* \"contracts/wallets/ZrWallet.sol\":3373:3396  Transaction storage txn */\n      0x00\n        /* \"contracts/wallets/ZrWallet.sol\":3399:3411  transactions */\n      0x03\n        /* \"contracts/wallets/ZrWallet.sol\":3399:3419  transactions[txHash] */\n      0x00\n        /* \"contracts/wallets/ZrWallet.sol\":3412:3418  txHash */\n      dup6\n        /* \"contracts/wallets/ZrWallet.sol\":3399:3419  transactions[txHash] */\n      dup2\n      mstore\n      0x20\n      add\n      swap1\n      dup2\n      mstore\n      0x20\n      add\n      0x00\n      keccak256\n        /* \"contracts/wallets/ZrWallet.sol\":3373:3419  Transaction storage txn = transactions[txHash] */\n      swap1\n      pop\n        /* \"contracts/wallets/ZrWallet.sol\":3459:3463  true */\n      0x01\n        /* \"contracts/wallets/ZrWallet.sol\":3429:3432  txn */\n      dup2\n        /* \"contracts/wallets/ZrWallet.sol\":3429:3444  txn.confirmedBy */\n      0x05\n      add\n        /* \"contracts/wallets/ZrWallet.sol\":3429:3456  txn.confirmedBy[msg.sender] */\n      0x00\n        /* \"contracts/wallets/ZrWallet.sol\":3445:3455  msg.sender */\n      caller\n        /* \"contracts/wallets/ZrWallet.sol\":3429:3456  txn.confirmedBy[msg.sender] */\n      0xffffffffffffffffffffffffffffffffffffffff\n      and\n      0xffffffffffffffffffffffffffffffffffffffff\n      and\n      dup2\n      mstore\n      0x20\n      add\n      swap1\n      dup2\n      mstore\n      0x20\n      add\n      0x00\n      keccak256\n      0x00\n        /* \"contracts/wallets/ZrWallet.sol\":3429:3463  txn.confirmedBy[msg.sender] = true */\n      0x0100\n      exp\n      dup2\n      sload\n      dup2\n      0xff\n      mul\n      not\n      and\n      swap1\n      dup4\n      iszero\n      iszero\n      mul\n      or\n      swap1\n      sstore\n      pop\n        /* \"contracts/wallets/ZrWallet.sol\":3494:3495  1 */\n      0x01\n        /* \"contracts/wallets/ZrWallet.sol\":3473:3476  txn */\n      dup2\n        /* \"contracts/wallets/ZrWallet.sol\":3473:3490  txn.confirmations */\n      0x04\n      add\n      0x00\n        /* \"contracts/wallets/ZrWallet.sol\":3473:3495  txn.confirmations += 1 */\n      dup3\n      dup3\n      sload\n      tag_105\n      swap2\n      swap1\n      tag_106\n      jump\t// in\n    tag_105:\n      swap3\n      pop\n      pop\n      dup2\n      swap1\n      sstore\n      pop\n        /* \"contracts/wallets/ZrWallet.sol\":3531:3552  requiredConfirmations */\n      sload(0x02)\n        /* \"contracts/wallets/ZrWallet.sol\":3510:3513  txn */\n      dup2\n        /* \"contracts/wallets/ZrWallet.sol\":3510:3527  txn.confirmations */\n      0x04\n      add\n      sload\n        /* \"contracts/wallets/ZrWallet.sol\":3510:3552  txn.confirmations >= requiredConfirmations */\n      lt\n        /* \"contracts/wallets/ZrWallet.sol\":3506:3605  if (txn.confirmations >= requiredConfirmations) {... */\n      tag_107\n      jumpi\n        /* \"contracts/wallets/ZrWallet.sol\":3568:3594  executeTransaction(txHash) */\n      tag_108\n        /* \"contracts/wallets/ZrWallet.sol\":3587:3593  txHash */\n      dup5\n        /* \"contracts/wallets/ZrWallet.sol\":3568:3586  executeTransaction */\n      tag_109\n        /* \"contracts/wallets/ZrWallet.sol\":3568:3594  executeTransaction(txHash) */\n      jump\t// in\n    tag_108:\n        /* \"contracts/wallets/ZrWallet.sol\":3506:3605  if (txn.confirmations >= requiredConfirmations) {... */\n    tag_107:\n        /* \"contracts/wallets/ZrWallet.sol\":3363:3611  {... */\n      pop\n        /* \"contracts/wallets/ZrWallet.sol\":1227:1228  _ */\n      pop\n        /* \"contracts/wallets/ZrWallet.sol\":1074:1075  _ */\n      pop\n        /* \"contracts/wallets/ZrWallet.sol\":3253:3611  function confirmTransaction(bytes32 txHash) external onlyOwner transactionExists(txHash) notConfirmed(txHash) {... */\n      pop\n      jump\t// out\n        /* \"contracts/wallets/ZrWallet.sol\":635:671  uint256 public requiredConfirmations */\n    tag_48:\n      sload(0x02)\n      dup2\n      jump\t// out\n        /* \"contracts/wallets/ZrWallet.sol\":2627:3143  function createTransaction(address to, uint256 amount, bytes memory data) external onlyOwner returns (bytes32 txHash) {... */\n    tag_54:\n        /* \"contracts/wallets/ZrWallet.sol\":2729:2743  bytes32 txHash */\n      0x00\n        /* \"contracts/wallets/ZrWallet.sol\":1002:1009  isOwner */\n      0x01\n        /* \"contracts/wallets/ZrWallet.sol\":1002:1021  isOwner[msg.sender] */\n      0x00\n        /* \"contracts/wallets/ZrWallet.sol\":1010:1020  msg.sender */\n      caller\n        /* \"contracts/wallets/ZrWallet.sol\":1002:1021  isOwner[msg.sender] */\n      0xffffffffffffffffffffffffffffffffffffffff\n      and\n      0xffffffffffffffffffffffffffffffffffffffff\n      and\n      dup2\n      mstore\n      0x20\n      add\n      swap1\n      dup2\n      mstore\n      0x20\n      add\n      0x00\n      keccak256\n      0x00\n      swap1\n      sload\n      swap1\n      0x0100\n      exp\n      swap1\n      div\n      0xff\n      and\n        /* \"contracts/wallets/ZrWallet.sol\":994:1064  require(isOwner[msg.sender], \"Not authorized: Caller is not an owner\") */\n      tag_111\n      jumpi\n      mload(0x40)\n      0x08c379a000000000000000000000000000000000000000000000000000000000\n      dup2\n      mstore\n      0x04\n      add\n      tag_112\n      swap1\n      tag_96\n      jump\t// in\n    tag_112:\n      mload(0x40)\n      dup1\n      swap2\n      sub\n      swap1\n      revert\n    tag_111:\n        /* \"contracts/wallets/ZrWallet.sol\":2791:2793  to */\n      dup4\n        /* \"contracts/wallets/ZrWallet.sol\":2795:2801  amount */\n      dup4\n        /* \"contracts/wallets/ZrWallet.sol\":2803:2807  data */\n      dup4\n        /* \"contracts/wallets/ZrWallet.sol\":2809:2824  block.timestamp */\n      timestamp\n        /* \"contracts/wallets/ZrWallet.sol\":2774:2825  abi.encodePacked(to, amount, data, block.timestamp) */\n      add(0x20, mload(0x40))\n      tag_114\n      swap5\n      swap4\n      swap3\n      swap2\n      swap1\n      tag_115\n      jump\t// in\n    tag_114:\n      mload(0x40)\n      0x20\n      dup2\n      dup4\n      sub\n      sub\n      dup2\n      mstore\n      swap1\n      0x40\n      mstore\n        /* \"contracts/wallets/ZrWallet.sol\":2764:2826  keccak256(abi.encodePacked(to, amount, data, block.timestamp)) */\n      dup1\n      mload\n      swap1\n      0x20\n      add\n      keccak256\n        /* \"contracts/wallets/ZrWallet.sol\":2755:2826  txHash = keccak256(abi.encodePacked(to, amount, data, block.timestamp)) */\n      swap1\n      pop\n        /* \"contracts/wallets/ZrWallet.sol\":2836:2859  Transaction storage txn */\n      0x00\n        /* \"contracts/wallets/ZrWallet.sol\":2862:2874  transactions */\n      0x03\n        /* \"contracts/wallets/ZrWallet.sol\":2862:2882  transactions[txHash] */\n      0x00\n        /* \"contracts/wallets/ZrWallet.sol\":2875:2881  txHash */\n      dup4\n        /* \"contracts/wallets/ZrWallet.sol\":2862:2882  transactions[txHash] */\n      dup2\n      mstore\n      0x20\n      add\n      swap1\n      dup2\n      mstore\n      0x20\n      add\n      0x00\n      keccak256\n        /* \"contracts/wallets/ZrWallet.sol\":2836:2882  Transaction storage txn = transactions[txHash] */\n      swap1\n      pop\n        /* \"contracts/wallets/ZrWallet.sol\":2918:2919  0 */\n      0x00\n        /* \"contracts/wallets/ZrWallet.sol\":2900:2920  txn.to == address(0) */\n      0xffffffffffffffffffffffffffffffffffffffff\n      and\n        /* \"contracts/wallets/ZrWallet.sol\":2900:2903  txn */\n      dup2\n        /* \"contracts/wallets/ZrWallet.sol\":2900:2906  txn.to */\n      0x00\n      add\n      0x00\n      swap1\n      sload\n      swap1\n      0x0100\n      exp\n      swap1\n      div\n      0xffffffffffffffffffffffffffffffffffffffff\n      and\n        /* \"contracts/wallets/ZrWallet.sol\":2900:2920  txn.to == address(0) */\n      0xffffffffffffffffffffffffffffffffffffffff\n      and\n      eq\n        /* \"contracts/wallets/ZrWallet.sol\":2892:2951  require(txn.to == address(0), \"Transaction already exists\") */\n      tag_116\n      jumpi\n      mload(0x40)\n      0x08c379a000000000000000000000000000000000000000000000000000000000\n      dup2\n      mstore\n      0x04\n      add\n      tag_117\n      swap1\n      tag_118\n      jump\t// in\n    tag_117:\n      mload(0x40)\n      dup1\n      swap2\n      sub\n      swap1\n      revert\n    tag_116:\n        /* \"contracts/wallets/ZrWallet.sol\":2971:2973  to */\n      dup5\n        /* \"contracts/wallets/ZrWallet.sol\":2962:2965  txn */\n      dup2\n        /* \"contracts/wallets/ZrWallet.sol\":2962:2968  txn.to */\n      0x00\n      add\n      0x00\n        /* \"contracts/wallets/ZrWallet.sol\":2962:2973  txn.to = to */\n      0x0100\n      exp\n      dup2\n      sload\n      dup2\n      0xffffffffffffffffffffffffffffffffffffffff\n      mul\n      not\n      and\n      swap1\n      dup4\n      0xffffffffffffffffffffffffffffffffffffffff\n      and\n      mul\n      or\n      swap1\n      sstore\n      pop\n        /* \"contracts/wallets/ZrWallet.sol\":2996:3002  amount */\n      dup4\n        /* \"contracts/wallets/ZrWallet.sol\":2983:2986  txn */\n      dup2\n        /* \"contracts/wallets/ZrWallet.sol\":2983:2993  txn.amount */\n      0x01\n      add\n        /* \"contracts/wallets/ZrWallet.sol\":2983:3002  txn.amount = amount */\n      dup2\n      swap1\n      sstore\n      pop\n        /* \"contracts/wallets/ZrWallet.sol\":3023:3027  data */\n      dup3\n        /* \"contracts/wallets/ZrWallet.sol\":3012:3015  txn */\n      dup2\n        /* \"contracts/wallets/ZrWallet.sol\":3012:3020  txn.data */\n      0x02\n      add\n        /* \"contracts/wallets/ZrWallet.sol\":3012:3027  txn.data = data */\n      swap1\n      dup2\n      tag_119\n      swap2\n      swap1\n      tag_120\n      jump\t// in\n    tag_119:\n      pop\n        /* \"contracts/wallets/ZrWallet.sol\":3052:3057  false */\n      0x00\n        /* \"contracts/wallets/ZrWallet.sol\":3037:3040  txn */\n      dup2\n        /* \"contracts/wallets/ZrWallet.sol\":3037:3049  txn.executed */\n      0x03\n      add\n      0x00\n        /* \"contracts/wallets/ZrWallet.sol\":3037:3057  txn.executed = false */\n      0x0100\n      exp\n      dup2\n      sload\n      dup2\n      0xff\n      mul\n      not\n      and\n      swap1\n      dup4\n      iszero\n      iszero\n      mul\n      or\n      swap1\n      sstore\n      pop\n        /* \"contracts/wallets/ZrWallet.sol\":3087:3088  0 */\n      0x00\n        /* \"contracts/wallets/ZrWallet.sol\":3067:3070  txn */\n      dup2\n        /* \"contracts/wallets/ZrWallet.sol\":3067:3084  txn.confirmations */\n      0x04\n      add\n        /* \"contracts/wallets/ZrWallet.sol\":3067:3088  txn.confirmations = 0 */\n      dup2\n      swap1\n      sstore\n      pop\n        /* \"contracts/wallets/ZrWallet.sol\":3125:3127  to */\n      dup5\n        /* \"contracts/wallets/ZrWallet.sol\":3104:3136  Approval(msg.sender, to, amount) */\n      0xffffffffffffffffffffffffffffffffffffffff\n      and\n        /* \"contracts/wallets/ZrWallet.sol\":3113:3123  msg.sender */\n      caller\n        /* \"contracts/wallets/ZrWallet.sol\":3104:3136  Approval(msg.sender, to, amount) */\n      0xffffffffffffffffffffffffffffffffffffffff\n      and\n      0x8c5be1e5ebec7d5bd14f71427d1e84f3dd0314c0f7b2291e5b200ac8c7c3b925\n        /* \"contracts/wallets/ZrWallet.sol\":3129:3135  amount */\n      dup7\n        /* \"contracts/wallets/ZrWallet.sol\":3104:3136  Approval(msg.sender, to, amount) */\n      mload(0x40)\n      tag_121\n      swap2\n      swap1\n      tag_14\n      jump\t// in\n    tag_121:\n      mload(0x40)\n      dup1\n      swap2\n      sub\n      swap1\n      log3\n        /* \"contracts/wallets/ZrWallet.sol\":2745:3143  {... */\n      pop\n        /* \"contracts/wallets/ZrWallet.sol\":2627:3143  function createTransaction(address to, uint256 amount, bytes memory data) external onlyOwner returns (bytes32 txHash) {... */\n      swap4\n      swap3\n      pop\n      pop\n      pop\n      jump\t// out\n        /* \"contracts/wallets/ZrWallet.sol\":3731:4196  function executeTransaction(bytes32 txHash) internal transactionExists(txHash) notExecuted(txHash) {... */\n    tag_109:\n        /* \"contracts/wallets/ZrWallet.sol\":3802:3808  txHash */\n      dup1\n        /* \"contracts/wallets/ZrWallet.sol\":1184:1185  0 */\n      0x00\n        /* \"contracts/wallets/ZrWallet.sol\":1149:1186  transactions[txHash].to != address(0) */\n      0xffffffffffffffffffffffffffffffffffffffff\n      and\n        /* \"contracts/wallets/ZrWallet.sol\":1149:1161  transactions */\n      0x03\n        /* \"contracts/wallets/ZrWallet.sol\":1149:1169  transactions[txHash] */\n      0x00\n        /* \"contracts/wallets/ZrWallet.sol\":1162:1168  txHash */\n      dup4\n        /* \"contracts/wallets/ZrWallet.sol\":1149:1169  transactions[txHash] */\n      dup2\n      mstore\n      0x20\n      add\n      swap1\n      dup2\n      mstore\n      0x20\n      add\n      0x00\n      keccak256\n        /* \"contracts/wallets/ZrWallet.sol\":1149:1172  transactions[txHash].to */\n      0x00\n      add\n      0x00\n      swap1\n      sload\n      swap1\n      0x0100\n      exp\n      swap1\n      div\n      0xffffffffffffffffffffffffffffffffffffffff\n      and\n        /* \"contracts/wallets/ZrWallet.sol\":1149:1186  transactions[txHash].to != address(0) */\n      0xffffffffffffffffffffffffffffffffffffffff\n      and\n      sub\n        /* \"contracts/wallets/ZrWallet.sol\":1141:1217  require(transactions[txHash].to != address(0), \"Transaction does not exist\") */\n      tag_123\n      jumpi\n      mload(0x40)\n      0x08c379a000000000000000000000000000000000000000000000000000000000\n      dup2\n      mstore\n      0x04\n      add\n      tag_124\n      swap1\n      tag_62\n      jump\t// in\n    tag_124:\n      mload(0x40)\n      dup1\n      swap2\n      sub\n      swap1\n      revert\n    tag_123:\n        /* \"contracts/wallets/ZrWallet.sol\":3822:3828  txHash */\n      dup2\n        /* \"contracts/wallets/ZrWallet.sol\":1297:1309  transactions */\n      0x03\n        /* \"contracts/wallets/ZrWallet.sol\":1297:1317  transactions[txHash] */\n      0x00\n        /* \"contracts/wallets/ZrWallet.sol\":1310:1316  txHash */\n      dup3\n        /* \"contracts/wallets/ZrWallet.sol\":1297:1317  transactions[txHash] */\n      dup2\n      mstore\n      0x20\n      add\n      swap1\n      dup2\n      mstore\n      0x20\n      add\n      0x00\n      keccak256\n        /* \"contracts/wallets/ZrWallet.sol\":1297:1326  transactions[txHash].executed */\n      0x03\n      add\n      0x00\n      swap1\n      sload\n      swap1\n      0x0100\n      exp\n      swap1\n      div\n      0xff\n      and\n        /* \"contracts/wallets/ZrWallet.sol\":1296:1326  !transactions[txHash].executed */\n      iszero\n        /* \"contracts/wallets/ZrWallet.sol\":1288:1359  require(!transactions[txHash].executed, \"Transaction already executed\") */\n      tag_126\n      jumpi\n      mload(0x40)\n      0x08c379a000000000000000000000000000000000000000000000000000000000\n      dup2\n      mstore\n      0x04\n      add\n      tag_127\n      swap1\n      tag_128\n      jump\t// in\n    tag_127:\n      mload(0x40)\n      dup1\n      swap2\n      sub\n      swap1\n      revert\n    tag_126:\n        /* \"contracts/wallets/ZrWallet.sol\":3840:3863  Transaction storage txn */\n      0x00\n        /* \"contracts/wallets/ZrWallet.sol\":3866:3878  transactions */\n      0x03\n        /* \"contracts/wallets/ZrWallet.sol\":3866:3886  transactions[txHash] */\n      0x00\n        /* \"contracts/wallets/ZrWallet.sol\":3879:3885  txHash */\n      dup6\n        /* \"contracts/wallets/ZrWallet.sol\":3866:3886  transactions[txHash] */\n      dup2\n      mstore\n      0x20\n      add\n      swap1\n      dup2\n      mstore\n      0x20\n      add\n      0x00\n      keccak256\n        /* \"contracts/wallets/ZrWallet.sol\":3840:3886  Transaction storage txn = transactions[txHash] */\n      swap1\n      pop\n        /* \"contracts/wallets/ZrWallet.sol\":3925:3946  requiredConfirmations */\n      sload(0x02)\n        /* \"contracts/wallets/ZrWallet.sol\":3904:3907  txn */\n      dup2\n        /* \"contracts/wallets/ZrWallet.sol\":3904:3921  txn.confirmations */\n      0x04\n      add\n      sload\n        /* \"contracts/wallets/ZrWallet.sol\":3904:3946  txn.confirmations >= requiredConfirmations */\n      lt\n      iszero\n        /* \"contracts/wallets/ZrWallet.sol\":3896:3977  require(txn.confirmations >= requiredConfirmations, \"Insufficient confirmations\") */\n      tag_130\n      jumpi\n      mload(0x40)\n      0x08c379a000000000000000000000000000000000000000000000000000000000\n      dup2\n      mstore\n      0x04\n      add\n      tag_131\n      swap1\n      tag_132\n      jump\t// in\n    tag_131:\n      mload(0x40)\n      dup1\n      swap2\n      sub\n      swap1\n      revert\n    tag_130:\n        /* \"contracts/wallets/ZrWallet.sol\":4003:4007  true */\n      0x01\n        /* \"contracts/wallets/ZrWallet.sol\":3988:3991  txn */\n      dup2\n        /* \"contracts/wallets/ZrWallet.sol\":3988:4000  txn.executed */\n      0x03\n      add\n      0x00\n        /* \"contracts/wallets/ZrWallet.sol\":3988:4007  txn.executed = true */\n      0x0100\n      exp\n      dup2\n      sload\n      dup2\n      0xff\n      mul\n      not\n      and\n      swap1\n      dup4\n      iszero\n      iszero\n      mul\n      or\n      swap1\n      sstore\n      pop\n        /* \"contracts/wallets/ZrWallet.sol\":4018:4030  bool success */\n      0x00\n        /* \"contracts/wallets/ZrWallet.sol\":4036:4039  txn */\n      dup2\n        /* \"contracts/wallets/ZrWallet.sol\":4036:4042  txn.to */\n      0x00\n      add\n      0x00\n      swap1\n      sload\n      swap1\n      0x0100\n      exp\n      swap1\n      div\n      0xffffffffffffffffffffffffffffffffffffffff\n      and\n        /* \"contracts/wallets/ZrWallet.sol\":4036:4047  txn.to.call */\n      0xffffffffffffffffffffffffffffffffffffffff\n      and\n        /* \"contracts/wallets/ZrWallet.sol\":4055:4058  txn */\n      dup3\n        /* \"contracts/wallets/ZrWallet.sol\":4055:4065  txn.amount */\n      0x01\n      add\n      sload\n        /* \"contracts/wallets/ZrWallet.sol\":4067:4070  txn */\n      dup4\n        /* \"contracts/wallets/ZrWallet.sol\":4067:4075  txn.data */\n      0x02\n      add\n        /* \"contracts/wallets/ZrWallet.sol\":4036:4076  txn.to.call{value: txn.amount}(txn.data) */\n      mload(0x40)\n      tag_133\n      swap2\n      swap1\n      tag_134\n      jump\t// in\n    tag_133:\n      0x00\n      mload(0x40)\n      dup1\n      dup4\n      sub\n      dup2\n      dup6\n      dup8\n      gas\n      call\n      swap3\n      pop\n      pop\n      pop\n      returndatasize\n      dup1\n      0x00\n      dup2\n      eq\n      tag_137\n      jumpi\n      mload(0x40)\n      swap2\n      pop\n      and(add(returndatasize, 0x3f), not(0x1f))\n      dup3\n      add\n      0x40\n      mstore\n      returndatasize\n      dup3\n      mstore\n      returndatasize\n      0x00\n      0x20\n      dup5\n      add\n      returndatacopy\n      jump(tag_136)\n    tag_137:\n      0x60\n      swap2\n      pop\n    tag_136:\n      pop\n        /* \"contracts/wallets/ZrWallet.sol\":4017:4076  (bool success, ) = txn.to.call{value: txn.amount}(txn.data) */\n      pop\n      swap1\n      pop\n        /* \"contracts/wallets/ZrWallet.sol\":4094:4101  success */\n      dup1\n        /* \"contracts/wallets/ZrWallet.sol\":4086:4124  require(success, \"Transaction failed\") */\n      tag_138\n      jumpi\n      mload(0x40)\n      0x08c379a000000000000000000000000000000000000000000000000000000000\n      dup2\n      mstore\n      0x04\n      add\n      tag_139\n      swap1\n      tag_140\n      jump\t// in\n    tag_139:\n      mload(0x40)\n      dup1\n      swap2\n      sub\n      swap1\n      revert\n    tag_138:\n        /* \"contracts/wallets/ZrWallet.sol\":4160:4163  txn */\n      dup2\n        /* \"contracts/wallets/ZrWallet.sol\":4160:4166  txn.to */\n      0x00\n      add\n      0x00\n      swap1\n      sload\n      swap1\n      0x0100\n      exp\n      swap1\n      div\n      0xffffffffffffffffffffffffffffffffffffffff\n      and\n        /* \"contracts/wallets/ZrWallet.sol\":4140:4189  TransactionExecuted(txn.to, txn.amount, txn.data) */\n      0xffffffffffffffffffffffffffffffffffffffff\n      and\n      0x47d99ad340f52da66535aff7e10da1ceb85a32bcbd9fa1c42314d194545e14d2\n        /* \"contracts/wallets/ZrWallet.sol\":4168:4171  txn */\n      dup4\n        /* \"contracts/wallets/ZrWallet.sol\":4168:4178  txn.amount */\n      0x01\n      add\n      sload\n        /* \"contracts/wallets/ZrWallet.sol\":4180:4183  txn */\n      dup5\n        /* \"contracts/wallets/ZrWallet.sol\":4180:4188  txn.data */\n      0x02\n      add\n        /* \"contracts/wallets/ZrWallet.sol\":4140:4189  TransactionExecuted(txn.to, txn.amount, txn.data) */\n      mload(0x40)\n      tag_141\n      swap3\n      swap2\n      swap1\n      tag_142\n      jump\t// in\n    tag_141:\n      mload(0x40)\n      dup1\n      swap2\n      sub\n      swap1\n      log2\n        /* \"contracts/wallets/ZrWallet.sol\":3830:4196  {... */\n      pop\n      pop\n        /* \"contracts/wallets/ZrWallet.sol\":1227:1228  _ */\n      pop\n        /* \"contracts/wallets/ZrWallet.sol\":3731:4196  function executeTransaction(bytes32 txHash) internal transactionExists(txHash) notExecuted(txHash) {... */\n      pop\n      pop\n      jump\t// out\n        /* \"#utility.yul\":7:84   */\n    tag_143:\n        /* \"#utility.yul\":44:51   */\n      0x00\n        /* \"#utility.yul\":73:78   */\n      dup2\n        /* \"#utility.yul\":62:78   */\n      swap1\n      pop\n        /* \"#utility.yul\":7:84   */\n      swap2\n      swap1\n      pop\n      jump\t// out\n        /* \"#utility.yul\":90:208   */\n    tag_144:\n        /* \"#utility.yul\":177:201   */\n      tag_226\n        /* \"#utility.yul\":195:200   */\n      dup2\n        /* \"#utility.yul\":177:201   */\n      tag_143\n      jump\t// in\n    tag_226:\n        /* \"#utility.yul\":172:175   */\n      dup3\n        /* \"#utility.yul\":165:202   */\n      mstore\n        /* \"#utility.yul\":90:208   */\n      pop\n      pop\n      jump\t// out\n        /* \"#utility.yul\":214:436   */\n    tag_14:\n        /* \"#utility.yul\":307:311   */\n      0x00\n        /* \"#utility.yul\":345:347   */\n      0x20\n        /* \"#utility.yul\":334:343   */\n      dup3\n        /* \"#utility.yul\":330:348   */\n      add\n        /* \"#utility.yul\":322:348   */\n      swap1\n      pop\n        /* \"#utility.yul\":358:429   */\n      tag_228\n        /* \"#utility.yul\":426:427   */\n      0x00\n        /* \"#utility.yul\":415:424   */\n      dup4\n        /* \"#utility.yul\":411:428   */\n      add\n        /* \"#utility.yul\":402:408   */\n      dup5\n        /* \"#utility.yul\":358:429   */\n      tag_144\n      jump\t// in\n    tag_228:\n        /* \"#utility.yul\":214:436   */\n      swap3\n      swap2\n      pop\n      pop\n      jump\t// out\n        /* \"#utility.yul\":442:517   */\n    tag_145:\n        /* \"#utility.yul\":475:481   */\n      0x00\n        /* \"#utility.yul\":508:510   */\n      0x40\n        /* \"#utility.yul\":502:511   */\n      mload\n        /* \"#utility.yul\":492:511   */\n      swap1\n      pop\n        /* \"#utility.yul\":442:517   */\n      swap1\n      jump\t// out\n        /* \"#utility.yul\":523:640   */\n    tag_146:\n        /* \"#utility.yul\":632:633   */\n      0x00\n        /* \"#utility.yul\":629:630   */\n      dup1\n        /* \"#utility.yul\":622:634   */\n      revert\n        /* \"#utility.yul\":646:763   */\n    tag_147:\n        /* \"#utility.yul\":755:756   */\n      0x00\n        /* \"#utility.yul\":752:753   */\n      dup1\n        /* \"#utility.yul\":745:757   */\n      revert\n        /* \"#utility.yul\":769:891   */\n    tag_148:\n        /* \"#utility.yul\":842:866   */\n      tag_233\n        /* \"#utility.yul\":860:865   */\n      dup2\n        /* \"#utility.yul\":842:866   */\n      tag_143\n      jump\t// in\n    tag_233:\n        /* \"#utility.yul\":835:840   */\n      dup2\n        /* \"#utility.yul\":832:867   */\n      eq\n        /* \"#utility.yul\":822:885   */\n      tag_234\n      jumpi\n        /* \"#utility.yul\":881:882   */\n      0x00\n        /* \"#utility.yul\":878:879   */\n      dup1\n        /* \"#utility.yul\":871:883   */\n      revert\n        /* \"#utility.yul\":822:885   */\n    tag_234:\n        /* \"#utility.yul\":769:891   */\n      pop\n      jump\t// out\n        /* \"#utility.yul\":897:1036   */\n    tag_149:\n        /* \"#utility.yul\":943:948   */\n      0x00\n        /* \"#utility.yul\":981:987   */\n      dup2\n        /* \"#utility.yul\":968:988   */\n      calldataload\n        /* \"#utility.yul\":959:988   */\n      swap1\n      pop\n        /* \"#utility.yul\":997:1030   */\n      tag_236\n        /* \"#utility.yul\":1024:1029   */\n      dup2\n        /* \"#utility.yul\":997:1030   */\n      tag_148\n      jump\t// in\n    tag_236:\n        /* \"#utility.yul\":897:1036   */\n      swap3\n      swap2\n      pop\n      pop\n      jump\t// out\n        /* \"#utility.yul\":1042:1371   */\n    tag_18:\n        /* \"#utility.yul\":1101:1107   */\n      0x00\n        /* \"#utility.yul\":1150:1152   */\n      0x20\n        /* \"#utility.yul\":1138:1147   */\n      dup3\n        /* \"#utility.yul\":1129:1136   */\n      dup5\n        /* \"#utility.yul\":1125:1148   */\n      sub\n        /* \"#utility.yul\":1121:1153   */\n      slt\n        /* \"#utility.yul\":1118:1237   */\n      iszero\n      tag_238\n      jumpi\n        /* \"#utility.yul\":1156:1235   */\n      tag_239\n      tag_146\n      jump\t// in\n    tag_239:\n        /* \"#utility.yul\":1118:1237   */\n    tag_238:\n        /* \"#utility.yul\":1276:1277   */\n      0x00\n        /* \"#utility.yul\":1301:1354   */\n      tag_240\n        /* \"#utility.yul\":1346:1353   */\n      dup5\n        /* \"#utility.yul\":1337:1343   */\n      dup3\n        /* \"#utility.yul\":1326:1335   */\n      dup6\n        /* \"#utility.yul\":1322:1344   */\n      add\n        /* \"#utility.yul\":1301:1354   */\n      tag_149\n      jump\t// in\n    tag_240:\n        /* \"#utility.yul\":1291:1354   */\n      swap2\n      pop\n        /* \"#utility.yul\":1247:1364   */\n      pop\n        /* \"#utility.yul\":1042:1371   */\n      swap3\n      swap2\n      pop\n      pop\n      jump\t// out\n        /* \"#utility.yul\":1377:1503   */\n    tag_150:\n        /* \"#utility.yul\":1414:1421   */\n      0x00\n        /* \"#utility.yul\":1454:1496   */\n      0xffffffffffffffffffffffffffffffffffffffff\n        /* \"#utility.yul\":1447:1452   */\n      dup3\n        /* \"#utility.yul\":1443:1497   */\n      and\n        /* \"#utility.yul\":1432:1497   */\n      swap1\n      pop\n        /* \"#utility.yul\":1377:1503   */\n      swap2\n      swap1\n      pop\n      jump\t// out\n        /* \"#utility.yul\":1509:1605   */\n    tag_151:\n        /* \"#utility.yul\":1546:1553   */\n      0x00\n        /* \"#utility.yul\":1575:1599   */\n      tag_243\n        /* \"#utility.yul\":1593:1598   */\n      dup3\n        /* \"#utility.yul\":1575:1599   */\n      tag_150\n      jump\t// in\n    tag_243:\n        /* \"#utility.yul\":1564:1599   */\n      swap1\n      pop\n        /* \"#utility.yul\":1509:1605   */\n      swap2\n      swap1\n      pop\n      jump\t// out\n        /* \"#utility.yul\":1611:1729   */\n    tag_152:\n        /* \"#utility.yul\":1698:1722   */\n      tag_245\n        /* \"#utility.yul\":1716:1721   */\n      dup2\n        /* \"#utility.yul\":1698:1722   */\n      tag_151\n      jump\t// in\n    tag_245:\n        /* \"#utility.yul\":1693:1696   */\n      dup3\n        /* \"#utility.yul\":1686:1723   */\n      mstore\n        /* \"#utility.yul\":1611:1729   */\n      pop\n      pop\n      jump\t// out\n        /* \"#utility.yul\":1735:1957   */\n    tag_21:\n        /* \"#utility.yul\":1828:1832   */\n      0x00\n        /* \"#utility.yul\":1866:1868   */\n      0x20\n        /* \"#utility.yul\":1855:1864   */\n      dup3\n        /* \"#utility.yul\":1851:1869   */\n      add\n        /* \"#utility.yul\":1843:1869   */\n      swap1\n      pop\n        /* \"#utility.yul\":1879:1950   */\n      tag_247\n        /* \"#utility.yul\":1947:1948   */\n      0x00\n        /* \"#utility.yul\":1936:1945   */\n      dup4\n        /* \"#utility.yul\":1932:1949   */\n      add\n        /* \"#utility.yul\":1923:1929   */\n      dup5\n        /* \"#utility.yul\":1879:1950   */\n      tag_152\n      jump\t// in\n    tag_247:\n        /* \"#utility.yul\":1735:1957   */\n      swap3\n      swap2\n      pop\n      pop\n      jump\t// out\n        /* \"#utility.yul\":1963:2085   */\n    tag_153:\n        /* \"#utility.yul\":2036:2060   */\n      tag_249\n        /* \"#utility.yul\":2054:2059   */\n      dup2\n        /* \"#utility.yul\":2036:2060   */\n      tag_151\n      jump\t// in\n    tag_249:\n        /* \"#utility.yul\":2029:2034   */\n      dup2\n        /* \"#utility.yul\":2026:2061   */\n      eq\n        /* \"#utility.yul\":2016:2079   */\n      tag_250\n      jumpi\n        /* \"#utility.yul\":2075:2076   */\n      0x00\n        /* \"#utility.yul\":2072:2073   */\n      dup1\n        /* \"#utility.yul\":2065:2077   */\n      revert\n        /* \"#utility.yul\":2016:2079   */\n    tag_250:\n        /* \"#utility.yul\":1963:2085   */\n      pop\n      jump\t// out\n        /* \"#utility.yul\":2091:2230   */\n    tag_154:\n        /* \"#utility.yul\":2137:2142   */\n      0x00\n        /* \"#utility.yul\":2175:2181   */\n      dup2\n        /* \"#utility.yul\":2162:2182   */\n      calldataload\n        /* \"#utility.yul\":2153:2182   */\n      swap1\n      pop\n        /* \"#utility.yul\":2191:2224   */\n      tag_252\n        /* \"#utility.yul\":2218:2223   */\n      dup2\n        /* \"#utility.yul\":2191:2224   */\n      tag_153\n      jump\t// in\n    tag_252:\n        /* \"#utility.yul\":2091:2230   */\n      swap3\n      swap2\n      pop\n      pop\n      jump\t// out\n        /* \"#utility.yul\":2236:2565   */\n    tag_25:\n        /* \"#utility.yul\":2295:2301   */\n      0x00\n        /* \"#utility.yul\":2344:2346   */\n      0x20\n        /* \"#utility.yul\":2332:2341   */\n      dup3\n        /* \"#utility.yul\":2323:2330   */\n      dup5\n        /* \"#utility.yul\":2319:2342   */\n      sub\n        /* \"#utility.yul\":2315:2347   */\n      slt\n        /* \"#utility.yul\":2312:2431   */\n      iszero\n      tag_254\n      jumpi\n        /* \"#utility.yul\":2350:2429   */\n      tag_255\n      tag_146\n      jump\t// in\n    tag_255:\n        /* \"#utility.yul\":2312:2431   */\n    tag_254:\n        /* \"#utility.yul\":2470:2471   */\n      0x00\n        /* \"#utility.yul\":2495:2548   */\n      tag_256\n        /* \"#utility.yul\":2540:2547   */\n      dup5\n        /* \"#utility.yul\":2531:2537   */\n      dup3\n        /* \"#utility.yul\":2520:2529   */\n      dup6\n        /* \"#utility.yul\":2516:2538   */\n      add\n        /* \"#utility.yul\":2495:2548   */\n      tag_154\n      jump\t// in\n    tag_256:\n        /* \"#utility.yul\":2485:2548   */\n      swap2\n      pop\n        /* \"#utility.yul\":2441:2558   */\n      pop\n        /* \"#utility.yul\":2236:2565   */\n      swap3\n      swap2\n      pop\n      pop\n      jump\t// out\n        /* \"#utility.yul\":2571:2661   */\n    tag_155:\n        /* \"#utility.yul\":2605:2612   */\n      0x00\n        /* \"#utility.yul\":2648:2653   */\n      dup2\n        /* \"#utility.yul\":2641:2654   */\n      iszero\n        /* \"#utility.yul\":2634:2655   */\n      iszero\n        /* \"#utility.yul\":2623:2655   */\n      swap1\n      pop\n        /* \"#utility.yul\":2571:2661   */\n      swap2\n      swap1\n      pop\n      jump\t// out\n        /* \"#utility.yul\":2667:2776   */\n    tag_156:\n        /* \"#utility.yul\":2748:2769   */\n      tag_259\n        /* \"#utility.yul\":2763:2768   */\n      dup2\n        /* \"#utility.yul\":2748:2769   */\n      tag_155\n      jump\t// in\n    tag_259:\n        /* \"#utility.yul\":2743:2746   */\n      dup3\n        /* \"#utility.yul\":2736:2770   */\n      mstore\n        /* \"#utility.yul\":2667:2776   */\n      pop\n      pop\n      jump\t// out\n        /* \"#utility.yul\":2782:2992   */\n    tag_28:\n        /* \"#utility.yul\":2869:2873   */\n      0x00\n        /* \"#utility.yul\":2907:2909   */\n      0x20\n        /* \"#utility.yul\":2896:2905   */\n      dup3\n        /* \"#utility.yul\":2892:2910   */\n      add\n        /* \"#utility.yul\":2884:2910   */\n      swap1\n      pop\n        /* \"#utility.yul\":2920:2985   */\n      tag_261\n        /* \"#utility.yul\":2982:2983   */\n      0x00\n        /* \"#utility.yul\":2971:2980   */\n      dup4\n        /* \"#utility.yul\":2967:2984   */\n      add\n        /* \"#utility.yul\":2958:2964   */\n      dup5\n        /* \"#utility.yul\":2920:2985   */\n      tag_156\n      jump\t// in\n    tag_261:\n        /* \"#utility.yul\":2782:2992   */\n      swap3\n      swap2\n      pop\n      pop\n      jump\t// out\n        /* \"#utility.yul\":2998:3075   */\n    tag_157:\n        /* \"#utility.yul\":3035:3042   */\n      0x00\n        /* \"#utility.yul\":3064:3069   */\n      dup2\n        /* \"#utility.yul\":3053:3069   */\n      swap1\n      pop\n        /* \"#utility.yul\":2998:3075   */\n      swap2\n      swap1\n      pop\n      jump\t// out\n        /* \"#utility.yul\":3081:3203   */\n    tag_158:\n        /* \"#utility.yul\":3154:3178   */\n      tag_264\n        /* \"#utility.yul\":3172:3177   */\n      dup2\n        /* \"#utility.yul\":3154:3178   */\n      tag_157\n      jump\t// in\n    tag_264:\n        /* \"#utility.yul\":3147:3152   */\n      dup2\n        /* \"#utility.yul\":3144:3179   */\n      eq\n        /* \"#utility.yul\":3134:3197   */\n      tag_265\n      jumpi\n        /* \"#utility.yul\":3193:3194   */\n      0x00\n        /* \"#utility.yul\":3190:3191   */\n      dup1\n        /* \"#utility.yul\":3183:3195   */\n      revert\n        /* \"#utility.yul\":3134:3197   */\n    tag_265:\n        /* \"#utility.yul\":3081:3203   */\n      pop\n      jump\t// out\n        /* \"#utility.yul\":3209:3348   */\n    tag_159:\n        /* \"#utility.yul\":3255:3260   */\n      0x00\n        /* \"#utility.yul\":3293:3299   */\n      dup2\n        /* \"#utility.yul\":3280:3300   */\n      calldataload\n        /* \"#utility.yul\":3271:3300   */\n      swap1\n      pop\n        /* \"#utility.yul\":3309:3342   */\n      tag_267\n        /* \"#utility.yul\":3336:3341   */\n      dup2\n        /* \"#utility.yul\":3309:3342   */\n      tag_158\n      jump\t// in\n    tag_267:\n        /* \"#utility.yul\":3209:3348   */\n      swap3\n      swap2\n      pop\n      pop\n      jump\t// out\n        /* \"#utility.yul\":3354:3683   */\n    tag_32:\n        /* \"#utility.yul\":3413:3419   */\n      0x00\n        /* \"#utility.yul\":3462:3464   */\n      0x20\n        /* \"#utility.yul\":3450:3459   */\n      dup3\n        /* \"#utility.yul\":3441:3448   */\n      dup5\n        /* \"#utility.yul\":3437:3460   */\n      sub\n        /* \"#utility.yul\":3433:3465   */\n      slt\n        /* \"#utility.yul\":3430:3549   */\n      iszero\n      tag_269\n      jumpi\n        /* \"#utility.yul\":3468:3547   */\n      tag_270\n      tag_146\n      jump\t// in\n    tag_270:\n        /* \"#utility.yul\":3430:3549   */\n    tag_269:\n        /* \"#utility.yul\":3588:3589   */\n      0x00\n        /* \"#utility.yul\":3613:3666   */\n      tag_271\n        /* \"#utility.yul\":3658:3665   */\n      dup5\n        /* \"#utility.yul\":3649:3655   */\n      dup3\n        /* \"#utility.yul\":3638:3647   */\n      dup6\n        /* \"#utility.yul\":3634:3656   */\n      add\n        /* \"#utility.yul\":3613:3666   */\n      tag_159\n      jump\t// in\n    tag_271:\n        /* \"#utility.yul\":3603:3666   */\n      swap2\n      pop\n        /* \"#utility.yul\":3559:3676   */\n      pop\n        /* \"#utility.yul\":3354:3683   */\n      swap3\n      swap2\n      pop\n      pop\n      jump\t// out\n        /* \"#utility.yul\":3689:3787   */\n    tag_160:\n        /* \"#utility.yul\":3740:3746   */\n      0x00\n        /* \"#utility.yul\":3774:3779   */\n      dup2\n        /* \"#utility.yul\":3768:3780   */\n      mload\n        /* \"#utility.yul\":3758:3780   */\n      swap1\n      pop\n        /* \"#utility.yul\":3689:3787   */\n      swap2\n      swap1\n      pop\n      jump\t// out\n        /* \"#utility.yul\":3793:3961   */\n    tag_161:\n        /* \"#utility.yul\":3876:3887   */\n      0x00\n        /* \"#utility.yul\":3910:3916   */\n      dup3\n        /* \"#utility.yul\":3905:3908   */\n      dup3\n        /* \"#utility.yul\":3898:3917   */\n      mstore\n        /* \"#utility.yul\":3950:3954   */\n      0x20\n        /* \"#utility.yul\":3945:3948   */\n      dup3\n        /* \"#utility.yul\":3941:3955   */\n      add\n        /* \"#utility.yul\":3926:3955   */\n      swap1\n      pop\n        /* \"#utility.yul\":3793:3961   */\n      swap3\n      swap2\n      pop\n      pop\n      jump\t// out\n        /* \"#utility.yul\":3967:4106   */\n    tag_162:\n        /* \"#utility.yul\":4056:4062   */\n      dup3\n        /* \"#utility.yul\":4051:4054   */\n      dup2\n        /* \"#utility.yul\":4046:4049   */\n      dup4\n        /* \"#utility.yul\":4040:4063   */\n      mcopy\n        /* \"#utility.yul\":4097:4098   */\n      0x00\n        /* \"#utility.yul\":4088:4094   */\n      dup4\n        /* \"#utility.yul\":4083:4086   */\n      dup4\n        /* \"#utility.yul\":4079:4095   */\n      add\n        /* \"#utility.yul\":4072:4099   */\n      mstore\n        /* \"#utility.yul\":3967:4106   */\n      pop\n      pop\n      pop\n      jump\t// out\n        /* \"#utility.yul\":4112:4214   */\n    tag_163:\n        /* \"#utility.yul\":4153:4159   */\n      0x00\n        /* \"#utility.yul\":4204:4206   */\n      0x1f\n        /* \"#utility.yul\":4200:4207   */\n      not\n        /* \"#utility.yul\":4195:4197   */\n      0x1f\n        /* \"#utility.yul\":4188:4193   */\n      dup4\n        /* \"#utility.yul\":4184:4198   */\n      add\n        /* \"#utility.yul\":4180:4208   */\n      and\n        /* \"#utility.yul\":4170:4208   */\n      swap1\n      pop\n        /* \"#utility.yul\":4112:4214   */\n      swap2\n      swap1\n      pop\n      jump\t// out\n        /* \"#utility.yul\":4220:4593   */\n    tag_164:\n        /* \"#utility.yul\":4306:4309   */\n      0x00\n        /* \"#utility.yul\":4334:4372   */\n      tag_277\n        /* \"#utility.yul\":4366:4371   */\n      dup3\n        /* \"#utility.yul\":4334:4372   */\n      tag_160\n      jump\t// in\n    tag_277:\n        /* \"#utility.yul\":4388:4458   */\n      tag_278\n        /* \"#utility.yul\":4451:4457   */\n      dup2\n        /* \"#utility.yul\":4446:4449   */\n      dup6\n        /* \"#utility.yul\":4388:4458   */\n      tag_161\n      jump\t// in\n    tag_278:\n        /* \"#utility.yul\":4381:4458   */\n      swap4\n      pop\n        /* \"#utility.yul\":4467:4532   */\n      tag_279\n        /* \"#utility.yul\":4525:4531   */\n      dup2\n        /* \"#utility.yul\":4520:4523   */\n      dup6\n        /* \"#utility.yul\":4513:4517   */\n      0x20\n        /* \"#utility.yul\":4506:4511   */\n      dup7\n        /* \"#utility.yul\":4502:4518   */\n      add\n        /* \"#utility.yul\":4467:4532   */\n      tag_162\n      jump\t// in\n    tag_279:\n        /* \"#utility.yul\":4557:4586   */\n      tag_280\n        /* \"#utility.yul\":4579:4585   */\n      dup2\n        /* \"#utility.yul\":4557:4586   */\n      tag_163\n      jump\t// in\n    tag_280:\n        /* \"#utility.yul\":4552:4555   */\n      dup5\n        /* \"#utility.yul\":4548:4587   */\n      add\n        /* \"#utility.yul\":4541:4587   */\n      swap2\n      pop\n        /* \"#utility.yul\":4310:4593   */\n      pop\n        /* \"#utility.yul\":4220:4593   */\n      swap3\n      swap2\n      pop\n      pop\n      jump\t// out\n        /* \"#utility.yul\":4599:4713   */\n    tag_165:\n        /* \"#utility.yul\":4666:4672   */\n      0x00\n        /* \"#utility.yul\":4700:4705   */\n      dup2\n        /* \"#utility.yul\":4694:4706   */\n      mload\n        /* \"#utility.yul\":4684:4706   */\n      swap1\n      pop\n        /* \"#utility.yul\":4599:4713   */\n      swap2\n      swap1\n      pop\n      jump\t// out\n        /* \"#utility.yul\":4719:4903   */\n    tag_166:\n        /* \"#utility.yul\":4818:4829   */\n      0x00\n        /* \"#utility.yul\":4852:4858   */\n      dup3\n        /* \"#utility.yul\":4847:4850   */\n      dup3\n        /* \"#utility.yul\":4840:4859   */\n      mstore\n        /* \"#utility.yul\":4892:4896   */\n      0x20\n        /* \"#utility.yul\":4887:4890   */\n      dup3\n        /* \"#utility.yul\":4883:4897   */\n      add\n        /* \"#utility.yul\":4868:4897   */\n      swap1\n      pop\n        /* \"#utility.yul\":4719:4903   */\n      swap3\n      swap2\n      pop\n      pop\n      jump\t// out\n        /* \"#utility.yul\":4909:5041   */\n    tag_167:\n        /* \"#utility.yul\":4976:4980   */\n      0x00\n        /* \"#utility.yul\":4999:5002   */\n      dup2\n        /* \"#utility.yul\":4991:5002   */\n      swap1\n      pop\n        /* \"#utility.yul\":5029:5033   */\n      0x20\n        /* \"#utility.yul\":5024:5027   */\n      dup3\n        /* \"#utility.yul\":5020:5034   */\n      add\n        /* \"#utility.yul\":5012:5034   */\n      swap1\n      pop\n        /* \"#utility.yul\":4909:5041   */\n      swap2\n      swap1\n      pop\n      jump\t// out\n        /* \"#utility.yul\":5047:5155   */\n    tag_168:\n        /* \"#utility.yul\":5124:5148   */\n      tag_285\n        /* \"#utility.yul\":5142:5147   */\n      dup2\n        /* \"#utility.yul\":5124:5148   */\n      tag_151\n      jump\t// in\n    tag_285:\n        /* \"#utility.yul\":5119:5122   */\n      dup3\n        /* \"#utility.yul\":5112:5149   */\n      mstore\n        /* \"#utility.yul\":5047:5155   */\n      pop\n      pop\n      jump\t// out\n        /* \"#utility.yul\":5161:5340   */\n    tag_169:\n        /* \"#utility.yul\":5230:5240   */\n      0x00\n        /* \"#utility.yul\":5251:5297   */\n      tag_287\n        /* \"#utility.yul\":5293:5296   */\n      dup4\n        /* \"#utility.yul\":5285:5291   */\n      dup4\n        /* \"#utility.yul\":5251:5297   */\n      tag_168\n      jump\t// in\n    tag_287:\n        /* \"#utility.yul\":5329:5333   */\n      0x20\n        /* \"#utility.yul\":5324:5327   */\n      dup4\n        /* \"#utility.yul\":5320:5334   */\n      add\n        /* \"#utility.yul\":5306:5334   */\n      swap1\n      pop\n        /* \"#utility.yul\":5161:5340   */\n      swap3\n      swap2\n      pop\n      pop\n      jump\t// out\n        /* \"#utility.yul\":5346:5459   */\n    tag_170:\n        /* \"#utility.yul\":5416:5420   */\n      0x00\n        /* \"#utility.yul\":5448:5452   */\n      0x20\n        /* \"#utility.yul\":5443:5446   */\n      dup3\n        /* \"#utility.yul\":5439:5453   */\n      add\n        /* \"#utility.yul\":5431:5453   */\n      swap1\n      pop\n        /* \"#utility.yul\":5346:5459   */\n      swap2\n      swap1\n      pop\n      jump\t// out\n        /* \"#utility.yul\":5495:6227   */\n    tag_171:\n        /* \"#utility.yul\":5614:5617   */\n      0x00\n        /* \"#utility.yul\":5643:5697   */\n      tag_290\n        /* \"#utility.yul\":5691:5696   */\n      dup3\n        /* \"#utility.yul\":5643:5697   */\n      tag_165\n      jump\t// in\n    tag_290:\n        /* \"#utility.yul\":5713:5799   */\n      tag_291\n        /* \"#utility.yul\":5792:5798   */\n      dup2\n        /* \"#utility.yul\":5787:5790   */\n      dup6\n        /* \"#utility.yul\":5713:5799   */\n      tag_166\n      jump\t// in\n    tag_291:\n        /* \"#utility.yul\":5706:5799   */\n      swap4\n      pop\n        /* \"#utility.yul\":5823:5879   */\n      tag_292\n        /* \"#utility.yul\":5873:5878   */\n      dup4\n        /* \"#utility.yul\":5823:5879   */\n      tag_167\n      jump\t// in\n    tag_292:\n        /* \"#utility.yul\":5902:5909   */\n      dup1\n        /* \"#utility.yul\":5933:5934   */\n      0x00\n        /* \"#utility.yul\":5918:6202   */\n    tag_293:\n        /* \"#utility.yul\":5943:5949   */\n      dup4\n        /* \"#utility.yul\":5940:5941   */\n      dup2\n        /* \"#utility.yul\":5937:5950   */\n      lt\n        /* \"#utility.yul\":5918:6202   */\n      iszero\n      tag_295\n      jumpi\n        /* \"#utility.yul\":6019:6025   */\n      dup2\n        /* \"#utility.yul\":6013:6026   */\n      mload\n        /* \"#utility.yul\":6046:6109   */\n      tag_296\n        /* \"#utility.yul\":6105:6108   */\n      dup9\n        /* \"#utility.yul\":6090:6103   */\n      dup3\n        /* \"#utility.yul\":6046:6109   */\n      tag_169\n      jump\t// in\n    tag_296:\n        /* \"#utility.yul\":6039:6109   */\n      swap8\n      pop\n        /* \"#utility.yul\":6132:6192   */\n      tag_297\n        /* \"#utility.yul\":6185:6191   */\n      dup4\n        /* \"#utility.yul\":6132:6192   */\n      tag_170\n      jump\t// in\n    tag_297:\n        /* \"#utility.yul\":6122:6192   */\n      swap3\n      pop\n        /* \"#utility.yul\":5978:6202   */\n      pop\n        /* \"#utility.yul\":5965:5966   */\n      0x01\n        /* \"#utility.yul\":5962:5963   */\n      dup2\n        /* \"#utility.yul\":5958:5967   */\n      add\n        /* \"#utility.yul\":5953:5967   */\n      swap1\n      pop\n        /* \"#utility.yul\":5918:6202   */\n      jump(tag_293)\n    tag_295:\n        /* \"#utility.yul\":5922:5936   */\n      pop\n        /* \"#utility.yul\":6218:6221   */\n      dup6\n        /* \"#utility.yul\":6211:6221   */\n      swap4\n      pop\n        /* \"#utility.yul\":5619:6227   */\n      pop\n      pop\n      pop\n        /* \"#utility.yul\":5495:6227   */\n      swap3\n      swap2\n      pop\n      pop\n      jump\t// out\n        /* \"#utility.yul\":6233:7234   */\n    tag_35:\n        /* \"#utility.yul\":6528:6532   */\n      0x00\n        /* \"#utility.yul\":6566:6569   */\n      0xc0\n        /* \"#utility.yul\":6555:6564   */\n      dup3\n        /* \"#utility.yul\":6551:6570   */\n      add\n        /* \"#utility.yul\":6543:6570   */\n      swap1\n      pop\n        /* \"#utility.yul\":6580:6651   */\n      tag_299\n        /* \"#utility.yul\":6648:6649   */\n      0x00\n        /* \"#utility.yul\":6637:6646   */\n      dup4\n        /* \"#utility.yul\":6633:6650   */\n      add\n        /* \"#utility.yul\":6624:6630   */\n      dup10\n        /* \"#utility.yul\":6580:6651   */\n      tag_152\n      jump\t// in\n    tag_299:\n        /* \"#utility.yul\":6661:6733   */\n      tag_300\n        /* \"#utility.yul\":6729:6731   */\n      0x20\n        /* \"#utility.yul\":6718:6727   */\n      dup4\n        /* \"#utility.yul\":6714:6732   */\n      add\n        /* \"#utility.yul\":6705:6711   */\n      dup9\n        /* \"#utility.yul\":6661:6733   */\n      tag_144\n      jump\t// in\n    tag_300:\n        /* \"#utility.yul\":6780:6789   */\n      dup2\n        /* \"#utility.yul\":6774:6778   */\n      dup2\n        /* \"#utility.yul\":6770:6790   */\n      sub\n        /* \"#utility.yul\":6765:6767   */\n      0x40\n        /* \"#utility.yul\":6754:6763   */\n      dup4\n        /* \"#utility.yul\":6750:6768   */\n      add\n        /* \"#utility.yul\":6743:6791   */\n      mstore\n        /* \"#utility.yul\":6808:6884   */\n      tag_301\n        /* \"#utility.yul\":6879:6883   */\n      dup2\n        /* \"#utility.yul\":6870:6876   */\n      dup8\n        /* \"#utility.yul\":6808:6884   */\n      tag_164\n      jump\t// in\n    tag_301:\n        /* \"#utility.yul\":6800:6884   */\n      swap1\n      pop\n        /* \"#utility.yul\":6894:6960   */\n      tag_302\n        /* \"#utility.yul\":6956:6958   */\n      0x60\n        /* \"#utility.yul\":6945:6954   */\n      dup4\n        /* \"#utility.yul\":6941:6959   */\n      add\n        /* \"#utility.yul\":6932:6938   */\n      dup7\n        /* \"#utility.yul\":6894:6960   */\n      tag_156\n      jump\t// in\n    tag_302:\n        /* \"#utility.yul\":6970:7043   */\n      tag_303\n        /* \"#utility.yul\":7038:7041   */\n      0x80\n        /* \"#utility.yul\":7027:7036   */\n      dup4\n        /* \"#utility.yul\":7023:7042   */\n      add\n        /* \"#utility.yul\":7014:7020   */\n      dup6\n        /* \"#utility.yul\":6970:7043   */\n      tag_144\n      jump\t// in\n    tag_303:\n        /* \"#utility.yul\":7091:7100   */\n      dup2\n        /* \"#utility.yul\":7085:7089   */\n      dup2\n        /* \"#utility.yul\":7081:7101   */\n      sub\n        /* \"#utility.yul\":7075:7078   */\n      0xa0\n        /* \"#utility.yul\":7064:7073   */\n      dup4\n        /* \"#utility.yul\":7060:7079   */\n      add\n        /* \"#utility.yul\":7053:7102   */\n      mstore\n        /* \"#utility.yul\":7119:7227   */\n      tag_304\n        /* \"#utility.yul\":7222:7226   */\n      dup2\n        /* \"#utility.yul\":7213:7219   */\n      dup5\n        /* \"#utility.yul\":7119:7227   */\n      tag_171\n      jump\t// in\n    tag_304:\n        /* \"#utility.yul\":7111:7227   */\n      swap1\n      pop\n        /* \"#utility.yul\":6233:7234   */\n      swap8\n      swap7\n      pop\n      pop\n      pop\n      pop\n      pop\n      pop\n      pop\n      jump\t// out\n        /* \"#utility.yul\":7240:7979   */\n    tag_41:\n        /* \"#utility.yul\":7457:7461   */\n      0x00\n        /* \"#utility.yul\":7495:7498   */\n      0xa0\n        /* \"#utility.yul\":7484:7493   */\n      dup3\n        /* \"#utility.yul\":7480:7499   */\n      add\n        /* \"#utility.yul\":7472:7499   */\n      swap1\n      pop\n        /* \"#utility.yul\":7509:7580   */\n      tag_306\n        /* \"#utility.yul\":7577:7578   */\n      0x00\n        /* \"#utility.yul\":7566:7575   */\n      dup4\n        /* \"#utility.yul\":7562:7579   */\n      add\n        /* \"#utility.yul\":7553:7559   */\n      dup9\n        /* \"#utility.yul\":7509:7580   */\n      tag_152\n      jump\t// in\n    tag_306:\n        /* \"#utility.yul\":7590:7662   */\n      tag_307\n        /* \"#utility.yul\":7658:7660   */\n      0x20\n        /* \"#utility.yul\":7647:7656   */\n      dup4\n        /* \"#utility.yul\":7643:7661   */\n      add\n        /* \"#utility.yul\":7634:7640   */\n      dup8\n        /* \"#utility.yul\":7590:7662   */\n      tag_144\n      jump\t// in\n    tag_307:\n        /* \"#utility.yul\":7709:7718   */\n      dup2\n        /* \"#utility.yul\":7703:7707   */\n      dup2\n        /* \"#utility.yul\":7699:7719   */\n      sub\n        /* \"#utility.yul\":7694:7696   */\n      0x40\n        /* \"#utility.yul\":7683:7692   */\n      dup4\n        /* \"#utility.yul\":7679:7697   */\n      add\n        /* \"#utility.yul\":7672:7720   */\n      mstore\n        /* \"#utility.yul\":7737:7813   */\n      tag_308\n        /* \"#utility.yul\":7808:7812   */\n      dup2\n        /* \"#utility.yul\":7799:7805   */\n      dup7\n        /* \"#utility.yul\":7737:7813   */\n      tag_164\n      jump\t// in\n    tag_308:\n        /* \"#utility.yul\":7729:7813   */\n      swap1\n      pop\n        /* \"#utility.yul\":7823:7889   */\n      tag_309\n        /* \"#utility.yul\":7885:7887   */\n      0x60\n        /* \"#utility.yul\":7874:7883   */\n      dup4\n        /* \"#utility.yul\":7870:7888   */\n      add\n        /* \"#utility.yul\":7861:7867   */\n      dup6\n        /* \"#utility.yul\":7823:7889   */\n      tag_156\n      jump\t// in\n    tag_309:\n        /* \"#utility.yul\":7899:7972   */\n      tag_310\n        /* \"#utility.yul\":7967:7970   */\n      0x80\n        /* \"#utility.yul\":7956:7965   */\n      dup4\n        /* \"#utility.yul\":7952:7971   */\n      add\n        /* \"#utility.yul\":7943:7949   */\n      dup5\n        /* \"#utility.yul\":7899:7972   */\n      tag_144\n      jump\t// in\n    tag_310:\n        /* \"#utility.yul\":7240:7979   */\n      swap7\n      swap6\n      pop\n      pop\n      pop\n      pop\n      pop\n      pop\n      jump\t// out\n        /* \"#utility.yul\":7985:8102   */\n    tag_172:\n        /* \"#utility.yul\":8094:8095   */\n      0x00\n        /* \"#utility.yul\":8091:8092   */\n      dup1\n        /* \"#utility.yul\":8084:8096   */\n      revert\n        /* \"#utility.yul\":8108:8225   */\n    tag_173:\n        /* \"#utility.yul\":8217:8218   */\n      0x00\n        /* \"#utility.yul\":8214:8215   */\n      dup1\n        /* \"#utility.yul\":8207:8219   */\n      revert\n        /* \"#utility.yul\":8231:8411   */\n    tag_65:\n        /* \"#utility.yul\":8279:8356   */\n      0x4e487b7100000000000000000000000000000000000000000000000000000000\n        /* \"#utility.yul\":8276:8277   */\n      0x00\n        /* \"#utility.yul\":8269:8357   */\n      mstore\n        /* \"#utility.yul\":8376:8380   */\n      0x41\n        /* \"#utility.yul\":8373:8374   */\n      0x04\n        /* \"#utility.yul\":8366:8381   */\n      mstore\n        /* \"#utility.yul\":8400:8404   */\n      0x24\n        /* \"#utility.yul\":8397:8398   */\n      0x00\n        /* \"#utility.yul\":8390:8405   */\n      revert\n        /* \"#utility.yul\":8417:8698   */\n    tag_174:\n        /* \"#utility.yul\":8500:8527   */\n      tag_315\n        /* \"#utility.yul\":8522:8526   */\n      dup3\n        /* \"#utility.yul\":8500:8527   */\n      tag_163\n      jump\t// in\n    tag_315:\n        /* \"#utility.yul\":8492:8498   */\n      dup2\n        /* \"#utility.yul\":8488:8528   */\n      add\n        /* \"#utility.yul\":8630:8636   */\n      dup2\n        /* \"#utility.yul\":8618:8628   */\n      dup2\n        /* \"#utility.yul\":8615:8637   */\n      lt\n        /* \"#utility.yul\":8594:8612   */\n      0xffffffffffffffff\n        /* \"#utility.yul\":8582:8592   */\n      dup3\n        /* \"#utility.yul\":8579:8613   */\n      gt\n        /* \"#utility.yul\":8576:8638   */\n      or\n        /* \"#utility.yul\":8573:8661   */\n      iszero\n      tag_316\n      jumpi\n        /* \"#utility.yul\":8641:8659   */\n      tag_317\n      tag_65\n      jump\t// in\n    tag_317:\n        /* \"#utility.yul\":8573:8661   */\n    tag_316:\n        /* \"#utility.yul\":8681:8691   */\n      dup1\n        /* \"#utility.yul\":8677:8679   */\n      0x40\n        /* \"#utility.yul\":8670:8692   */\n      mstore\n        /* \"#utility.yul\":8460:8698   */\n      pop\n        /* \"#utility.yul\":8417:8698   */\n      pop\n      pop\n      jump\t// out\n        /* \"#utility.yul\":8704:8833   */\n    tag_175:\n        /* \"#utility.yul\":8738:8744   */\n      0x00\n        /* \"#utility.yul\":8765:8785   */\n      tag_319\n      tag_145\n      jump\t// in\n    tag_319:\n        /* \"#utility.yul\":8755:8785   */\n      swap1\n      pop\n        /* \"#utility.yul\":8794:8827   */\n      tag_320\n        /* \"#utility.yul\":8822:8826   */\n      dup3\n        /* \"#utility.yul\":8814:8820   */\n      dup3\n        /* \"#utility.yul\":8794:8827   */\n      tag_174\n      jump\t// in\n    tag_320:\n        /* \"#utility.yul\":8704:8833   */\n      swap2\n      swap1\n      pop\n      jump\t// out\n        /* \"#utility.yul\":8839:9146   */\n    tag_176:\n        /* \"#utility.yul\":8900:8904   */\n      0x00\n        /* \"#utility.yul\":8990:9008   */\n      0xffffffffffffffff\n        /* \"#utility.yul\":8982:8988   */\n      dup3\n        /* \"#utility.yul\":8979:9009   */\n      gt\n        /* \"#utility.yul\":8976:9032   */\n      iszero\n      tag_322\n      jumpi\n        /* \"#utility.yul\":9012:9030   */\n      tag_323\n      tag_65\n      jump\t// in\n    tag_323:\n        /* \"#utility.yul\":8976:9032   */\n    tag_322:\n        /* \"#utility.yul\":9050:9079   */\n      tag_324\n        /* \"#utility.yul\":9072:9078   */\n      dup3\n        /* \"#utility.yul\":9050:9079   */\n      tag_163\n      jump\t// in\n    tag_324:\n        /* \"#utility.yul\":9042:9079   */\n      swap1\n      pop\n        /* \"#utility.yul\":9134:9138   */\n      0x20\n        /* \"#utility.yul\":9128:9132   */\n      dup2\n        /* \"#utility.yul\":9124:9139   */\n      add\n        /* \"#utility.yul\":9116:9139   */\n      swap1\n      pop\n        /* \"#utility.yul\":8839:9146   */\n      swap2\n      swap1\n      pop\n      jump\t// out\n        /* \"#utility.yul\":9152:9300   */\n    tag_177:\n        /* \"#utility.yul\":9250:9256   */\n      dup3\n        /* \"#utility.yul\":9245:9248   */\n      dup2\n        /* \"#utility.yul\":9240:9243   */\n      dup4\n        /* \"#utility.yul\":9227:9257   */\n      calldatacopy\n        /* \"#utility.yul\":9291:9292   */\n      0x00\n        /* \"#utility.yul\":9282:9288   */\n      dup4\n        /* \"#utility.yul\":9277:9280   */\n      dup4\n        /* \"#utility.yul\":9273:9289   */\n      add\n        /* \"#utility.yul\":9266:9293   */\n      mstore\n        /* \"#utility.yul\":9152:9300   */\n      pop\n      pop\n      pop\n      jump\t// out\n        /* \"#utility.yul\":9306:9729   */\n    tag_178:\n        /* \"#utility.yul\":9383:9388   */\n      0x00\n        /* \"#utility.yul\":9408:9473   */\n      tag_327\n        /* \"#utility.yul\":9424:9472   */\n      tag_328\n        /* \"#utility.yul\":9465:9471   */\n      dup5\n        /* \"#utility.yul\":9424:9472   */\n      tag_176\n      jump\t// in\n    tag_328:\n        /* \"#utility.yul\":9408:9473   */\n      tag_175\n      jump\t// in\n    tag_327:\n        /* \"#utility.yul\":9399:9473   */\n      swap1\n      pop\n        /* \"#utility.yul\":9496:9502   */\n      dup3\n        /* \"#utility.yul\":9489:9494   */\n      dup2\n        /* \"#utility.yul\":9482:9503   */\n      mstore\n        /* \"#utility.yul\":9534:9538   */\n      0x20\n        /* \"#utility.yul\":9527:9532   */\n      dup2\n        /* \"#utility.yul\":9523:9539   */\n      add\n        /* \"#utility.yul\":9572:9575   */\n      dup5\n        /* \"#utility.yul\":9563:9569   */\n      dup5\n        /* \"#utility.yul\":9558:9561   */\n      dup5\n        /* \"#utility.yul\":9554:9570   */\n      add\n        /* \"#utility.yul\":9551:9576   */\n      gt\n        /* \"#utility.yul\":9548:9660   */\n      iszero\n      tag_329\n      jumpi\n        /* \"#utility.yul\":9579:9658   */\n      tag_330\n      tag_173\n      jump\t// in\n    tag_330:\n        /* \"#utility.yul\":9548:9660   */\n    tag_329:\n        /* \"#utility.yul\":9669:9723   */\n      tag_331\n        /* \"#utility.yul\":9716:9722   */\n      dup5\n        /* \"#utility.yul\":9711:9714   */\n      dup3\n        /* \"#utility.yul\":9706:9709   */\n      dup6\n        /* \"#utility.yul\":9669:9723   */\n      tag_177\n      jump\t// in\n    tag_331:\n        /* \"#utility.yul\":9389:9729   */\n      pop\n        /* \"#utility.yul\":9306:9729   */\n      swap4\n      swap3\n      pop\n      pop\n      pop\n      jump\t// out\n        /* \"#utility.yul\":9748:10086   */\n    tag_179:\n        /* \"#utility.yul\":9803:9808   */\n      0x00\n        /* \"#utility.yul\":9852:9855   */\n      dup3\n        /* \"#utility.yul\":9845:9849   */\n      0x1f\n        /* \"#utility.yul\":9837:9843   */\n      dup4\n        /* \"#utility.yul\":9833:9850   */\n      add\n        /* \"#utility.yul\":9829:9856   */\n      slt\n        /* \"#utility.yul\":9819:9941   */\n      tag_333\n      jumpi\n        /* \"#utility.yul\":9860:9939   */\n      tag_334\n      tag_172\n      jump\t// in\n    tag_334:\n        /* \"#utility.yul\":9819:9941   */\n    tag_333:\n        /* \"#utility.yul\":9977:9983   */\n      dup2\n        /* \"#utility.yul\":9964:9984   */\n      calldataload\n        /* \"#utility.yul\":10002:10080   */\n      tag_335\n        /* \"#utility.yul\":10076:10079   */\n      dup5\n        /* \"#utility.yul\":10068:10074   */\n      dup3\n        /* \"#utility.yul\":10061:10065   */\n      0x20\n        /* \"#utility.yul\":10053:10059   */\n      dup7\n        /* \"#utility.yul\":10049:10066   */\n      add\n        /* \"#utility.yul\":10002:10080   */\n      tag_178\n      jump\t// in\n    tag_335:\n        /* \"#utility.yul\":9993:10080   */\n      swap2\n      pop\n        /* \"#utility.yul\":9809:10086   */\n      pop\n        /* \"#utility.yul\":9748:10086   */\n      swap3\n      swap2\n      pop\n      pop\n      jump\t// out\n        /* \"#utility.yul\":10092:10889   */\n    tag_53:\n        /* \"#utility.yul\":10178:10184   */\n      0x00\n        /* \"#utility.yul\":10186:10192   */\n      dup1\n        /* \"#utility.yul\":10194:10200   */\n      0x00\n        /* \"#utility.yul\":10243:10245   */\n      0x60\n        /* \"#utility.yul\":10231:10240   */\n      dup5\n        /* \"#utility.yul\":10222:10229   */\n      dup7\n        /* \"#utility.yul\":10218:10241   */\n      sub\n        /* \"#utility.yul\":10214:10246   */\n      slt\n        /* \"#utility.yul\":10211:10330   */\n      iszero\n      tag_337\n      jumpi\n        /* \"#utility.yul\":10249:10328   */\n      tag_338\n      tag_146\n      jump\t// in\n    tag_338:\n        /* \"#utility.yul\":10211:10330   */\n    tag_337:\n        /* \"#utility.yul\":10369:10370   */\n      0x00\n        /* \"#utility.yul\":10394:10447   */\n      tag_339\n        /* \"#utility.yul\":10439:10446   */\n      dup7\n        /* \"#utility.yul\":10430:10436   */\n      dup3\n        /* \"#utility.yul\":10419:10428   */\n      dup8\n        /* \"#utility.yul\":10415:10437   */\n      add\n        /* \"#utility.yul\":10394:10447   */\n      tag_154\n      jump\t// in\n    tag_339:\n        /* \"#utility.yul\":10384:10447   */\n      swap4\n      pop\n        /* \"#utility.yul\":10340:10457   */\n      pop\n        /* \"#utility.yul\":10496:10498   */\n      0x20\n        /* \"#utility.yul\":10522:10575   */\n      tag_340\n        /* \"#utility.yul\":10567:10574   */\n      dup7\n        /* \"#utility.yul\":10558:10564   */\n      dup3\n        /* \"#utility.yul\":10547:10556   */\n      dup8\n        /* \"#utility.yul\":10543:10565   */\n      add\n        /* \"#utility.yul\":10522:10575   */\n      tag_149\n      jump\t// in\n    tag_340:\n        /* \"#utility.yul\":10512:10575   */\n      swap3\n      pop\n        /* \"#utility.yul\":10467:10585   */\n      pop\n        /* \"#utility.yul\":10652:10654   */\n      0x40\n        /* \"#utility.yul\":10641:10650   */\n      dup5\n        /* \"#utility.yul\":10637:10655   */\n      add\n        /* \"#utility.yul\":10624:10656   */\n      calldataload\n        /* \"#utility.yul\":10683:10701   */\n      0xffffffffffffffff\n        /* \"#utility.yul\":10675:10681   */\n      dup2\n        /* \"#utility.yul\":10672:10702   */\n      gt\n        /* \"#utility.yul\":10669:10786   */\n      iszero\n      tag_341\n      jumpi\n        /* \"#utility.yul\":10705:10784   */\n      tag_342\n      tag_147\n      jump\t// in\n    tag_342:\n        /* \"#utility.yul\":10669:10786   */\n    tag_341:\n        /* \"#utility.yul\":10810:10872   */\n      tag_343\n        /* \"#utility.yul\":10864:10871   */\n      dup7\n        /* \"#utility.yul\":10855:10861   */\n      dup3\n        /* \"#utility.yul\":10844:10853   */\n      dup8\n        /* \"#utility.yul\":10840:10862   */\n      add\n        /* \"#utility.yul\":10810:10872   */\n      tag_179\n      jump\t// in\n    tag_343:\n        /* \"#utility.yul\":10800:10872   */\n      swap2\n      pop\n        /* \"#utility.yul\":10595:10882   */\n      pop\n        /* \"#utility.yul\":10092:10889   */\n      swap3\n      pop\n      swap3\n      pop\n      swap3\n      jump\t// out\n        /* \"#utility.yul\":10895:11013   */\n    tag_180:\n        /* \"#utility.yul\":10982:11006   */\n      tag_345\n        /* \"#utility.yul\":11000:11005   */\n      dup2\n        /* \"#utility.yul\":10982:11006   */\n      tag_157\n      jump\t// in\n    tag_345:\n        /* \"#utility.yul\":10977:10980   */\n      dup3\n        /* \"#utility.yul\":10970:11007   */\n      mstore\n        /* \"#utility.yul\":10895:11013   */\n      pop\n      pop\n      jump\t// out\n        /* \"#utility.yul\":11019:11241   */\n    tag_56:\n        /* \"#utility.yul\":11112:11116   */\n      0x00\n        /* \"#utility.yul\":11150:11152   */\n      0x20\n        /* \"#utility.yul\":11139:11148   */\n      dup3\n        /* \"#utility.yul\":11135:11153   */\n      add\n        /* \"#utility.yul\":11127:11153   */\n      swap1\n      pop\n        /* \"#utility.yul\":11163:11234   */\n      tag_347\n        /* \"#utility.yul\":11231:11232   */\n      0x00\n        /* \"#utility.yul\":11220:11229   */\n      dup4\n        /* \"#utility.yul\":11216:11233   */\n      add\n        /* \"#utility.yul\":11207:11213   */\n      dup5\n        /* \"#utility.yul\":11163:11234   */\n      tag_180\n      jump\t// in\n    tag_347:\n        /* \"#utility.yul\":11019:11241   */\n      swap3\n      swap2\n      pop\n      pop\n      jump\t// out\n        /* \"#utility.yul\":11247:11416   */\n    tag_181:\n        /* \"#utility.yul\":11331:11342   */\n      0x00\n        /* \"#utility.yul\":11365:11371   */\n      dup3\n        /* \"#utility.yul\":11360:11363   */\n      dup3\n        /* \"#utility.yul\":11353:11372   */\n      mstore\n        /* \"#utility.yul\":11405:11409   */\n      0x20\n        /* \"#utility.yul\":11400:11403   */\n      dup3\n        /* \"#utility.yul\":11396:11410   */\n      add\n        /* \"#utility.yul\":11381:11410   */\n      swap1\n      pop\n        /* \"#utility.yul\":11247:11416   */\n      swap3\n      swap2\n      pop\n      pop\n      jump\t// out\n        /* \"#utility.yul\":11422:11598   */\n    tag_182:\n        /* \"#utility.yul\":11562:11590   */\n      0x5472616e73616374696f6e20646f6573206e6f74206578697374000000000000\n        /* \"#utility.yul\":11558:11559   */\n      0x00\n        /* \"#utility.yul\":11550:11556   */\n      dup3\n        /* \"#utility.yul\":11546:11560   */\n      add\n        /* \"#utility.yul\":11539:11591   */\n      mstore\n        /* \"#utility.yul\":11422:11598   */\n      pop\n      jump\t// out\n        /* \"#utility.yul\":11604:11970   */\n    tag_183:\n        /* \"#utility.yul\":11746:11749   */\n      0x00\n        /* \"#utility.yul\":11767:11834   */\n      tag_351\n        /* \"#utility.yul\":11831:11833   */\n      0x1a\n        /* \"#utility.yul\":11826:11829   */\n      dup4\n        /* \"#utility.yul\":11767:11834   */\n      tag_181\n      jump\t// in\n    tag_351:\n        /* \"#utility.yul\":11760:11834   */\n      swap2\n      pop\n        /* \"#utility.yul\":11843:11936   */\n      tag_352\n        /* \"#utility.yul\":11932:11935   */\n      dup3\n        /* \"#utility.yul\":11843:11936   */\n      tag_182\n      jump\t// in\n    tag_352:\n        /* \"#utility.yul\":11961:11963   */\n      0x20\n        /* \"#utility.yul\":11956:11959   */\n      dup3\n        /* \"#utility.yul\":11952:11964   */\n      add\n        /* \"#utility.yul\":11945:11964   */\n      swap1\n      pop\n        /* \"#utility.yul\":11604:11970   */\n      swap2\n      swap1\n      pop\n      jump\t// out\n        /* \"#utility.yul\":11976:12395   */\n    tag_62:\n        /* \"#utility.yul\":12142:12146   */\n      0x00\n        /* \"#utility.yul\":12180:12182   */\n      0x20\n        /* \"#utility.yul\":12169:12178   */\n      dup3\n        /* \"#utility.yul\":12165:12183   */\n      add\n        /* \"#utility.yul\":12157:12183   */\n      swap1\n      pop\n        /* \"#utility.yul\":12229:12238   */\n      dup2\n        /* \"#utility.yul\":12223:12227   */\n      dup2\n        /* \"#utility.yul\":12219:12239   */\n      sub\n        /* \"#utility.yul\":12215:12216   */\n      0x00\n        /* \"#utility.yul\":12204:12213   */\n      dup4\n        /* \"#utility.yul\":12200:12217   */\n      add\n        /* \"#utility.yul\":12193:12240   */\n      mstore\n        /* \"#utility.yul\":12257:12388   */\n      tag_354\n        /* \"#utility.yul\":12383:12387   */\n      dup2\n        /* \"#utility.yul\":12257:12388   */\n      tag_183\n      jump\t// in\n    tag_354:\n        /* \"#utility.yul\":12249:12388   */\n      swap1\n      pop\n        /* \"#utility.yul\":11976:12395   */\n      swap2\n      swap1\n      pop\n      jump\t// out\n        /* \"#utility.yul\":12401:12581   */\n    tag_72:\n        /* \"#utility.yul\":12449:12526   */\n      0x4e487b7100000000000000000000000000000000000000000000000000000000\n        /* \"#utility.yul\":12446:12447   */\n      0x00\n        /* \"#utility.yul\":12439:12527   */\n      mstore\n        /* \"#utility.yul\":12546:12550   */\n      0x32\n        /* \"#utility.yul\":12543:12544   */\n      0x04\n        /* \"#utility.yul\":12536:12551   */\n      mstore\n        /* \"#utility.yul\":12570:12574   */\n      0x24\n        /* \"#utility.yul\":12567:12568   */\n      0x00\n        /* \"#utility.yul\":12560:12575   */\n      revert\n        /* \"#utility.yul\":12587:12767   */\n    tag_184:\n        /* \"#utility.yul\":12635:12712   */\n      0x4e487b7100000000000000000000000000000000000000000000000000000000\n        /* \"#utility.yul\":12632:12633   */\n      0x00\n        /* \"#utility.yul\":12625:12713   */\n      mstore\n        /* \"#utility.yul\":12732:12736   */\n      0x11\n        /* \"#utility.yul\":12729:12730   */\n      0x04\n        /* \"#utility.yul\":12722:12737   */\n      mstore\n        /* \"#utility.yul\":12756:12760   */\n      0x24\n        /* \"#utility.yul\":12753:12754   */\n      0x00\n        /* \"#utility.yul\":12746:12761   */\n      revert\n        /* \"#utility.yul\":12773:13006   */\n    tag_81:\n        /* \"#utility.yul\":12812:12815   */\n      0x00\n        /* \"#utility.yul\":12835:12859   */\n      tag_358\n        /* \"#utility.yul\":12853:12858   */\n      dup3\n        /* \"#utility.yul\":12835:12859   */\n      tag_143\n      jump\t// in\n    tag_358:\n        /* \"#utility.yul\":12826:12859   */\n      swap2\n      pop\n        /* \"#utility.yul\":12881:12947   */\n      0xffffffffffffffffffffffffffffffffffffffffffffffffffffffffffffffff\n        /* \"#utility.yul\":12874:12879   */\n      dup3\n        /* \"#utility.yul\":12871:12948   */\n      sub\n        /* \"#utility.yul\":12868:12971   */\n      tag_359\n      jumpi\n        /* \"#utility.yul\":12951:12969   */\n      tag_360\n      tag_184\n      jump\t// in\n    tag_360:\n        /* \"#utility.yul\":12868:12971   */\n    tag_359:\n        /* \"#utility.yul\":12998:12999   */\n      0x01\n        /* \"#utility.yul\":12991:12996   */\n      dup3\n        /* \"#utility.yul\":12987:13000   */\n      add\n        /* \"#utility.yul\":12980:13000   */\n      swap1\n      pop\n        /* \"#utility.yul\":12773:13006   */\n      swap2\n      swap1\n      pop\n      jump\t// out\n        /* \"#utility.yul\":13012:13192   */\n    tag_185:\n        /* \"#utility.yul\":13060:13137   */\n      0x4e487b7100000000000000000000000000000000000000000000000000000000\n        /* \"#utility.yul\":13057:13058   */\n      0x00\n        /* \"#utility.yul\":13050:13138   */\n      mstore\n        /* \"#utility.yul\":13157:13161   */\n      0x22\n        /* \"#utility.yul\":13154:13155   */\n      0x04\n        /* \"#utility.yul\":13147:13162   */\n      mstore\n        /* \"#utility.yul\":13181:13185   */\n      0x24\n        /* \"#utility.yul\":13178:13179   */\n      0x00\n        /* \"#utility.yul\":13171:13186   */\n      revert\n        /* \"#utility.yul\":13198:13518   */\n    tag_83:\n        /* \"#utility.yul\":13242:13248   */\n      0x00\n        /* \"#utility.yul\":13279:13280   */\n      0x02\n        /* \"#utility.yul\":13273:13277   */\n      dup3\n        /* \"#utility.yul\":13269:13281   */\n      div\n        /* \"#utility.yul\":13259:13281   */\n      swap1\n      pop\n        /* \"#utility.yul\":13326:13327   */\n      0x01\n        /* \"#utility.yul\":13320:13324   */\n      dup3\n        /* \"#utility.yul\":13316:13328   */\n      and\n        /* \"#utility.yul\":13347:13365   */\n      dup1\n        /* \"#utility.yul\":13337:13418   */\n      tag_363\n      jumpi\n        /* \"#utility.yul\":13403:13407   */\n      0x7f\n        /* \"#utility.yul\":13395:13401   */\n      dup3\n        /* \"#utility.yul\":13391:13408   */\n      and\n        /* \"#utility.yul\":13381:13408   */\n      swap2\n      pop\n        /* \"#utility.yul\":13337:13418   */\n    tag_363:\n        /* \"#utility.yul\":13465:13467   */\n      0x20\n        /* \"#utility.yul\":13457:13463   */\n      dup3\n        /* \"#utility.yul\":13454:13468   */\n      lt\n        /* \"#utility.yul\":13434:13452   */\n      dup2\n        /* \"#utility.yul\":13431:13469   */\n      sub\n        /* \"#utility.yul\":13428:13512   */\n      tag_364\n      jumpi\n        /* \"#utility.yul\":13484:13502   */\n      tag_365\n      tag_185\n      jump\t// in\n    tag_365:\n        /* \"#utility.yul\":13428:13512   */\n    tag_364:\n        /* \"#utility.yul\":13249:13518   */\n      pop\n        /* \"#utility.yul\":13198:13518   */\n      swap2\n      swap1\n      pop\n      jump\t// out\n        /* \"#utility.yul\":13524:13749   */\n    tag_186:\n        /* \"#utility.yul\":13664:13698   */\n      0x4e6f7420617574686f72697a65643a2043616c6c6572206973206e6f7420616e\n        /* \"#utility.yul\":13660:13661   */\n      0x00\n        /* \"#utility.yul\":13652:13658   */\n      dup3\n        /* \"#utility.yul\":13648:13662   */\n      add\n        /* \"#utility.yul\":13641:13699   */\n      mstore\n        /* \"#utility.yul\":13733:13741   */\n      0x206f776e65720000000000000000000000000000000000000000000000000000\n        /* \"#utility.yul\":13728:13730   */\n      0x20\n        /* \"#utility.yul\":13720:13726   */\n      dup3\n        /* \"#utility.yul\":13716:13731   */\n      add\n        /* \"#utility.yul\":13709:13742   */\n      mstore\n        /* \"#utility.yul\":13524:13749   */\n      pop\n      jump\t// out\n        /* \"#utility.yul\":13755:14121   */\n    tag_187:\n        /* \"#utility.yul\":13897:13900   */\n      0x00\n        /* \"#utility.yul\":13918:13985   */\n      tag_368\n        /* \"#utility.yul\":13982:13984   */\n      0x26\n        /* \"#utility.yul\":13977:13980   */\n      dup4\n        /* \"#utility.yul\":13918:13985   */\n      tag_181\n      jump\t// in\n    tag_368:\n        /* \"#utility.yul\":13911:13985   */\n      swap2\n      pop\n        /* \"#utility.yul\":13994:14087   */\n      tag_369\n        /* \"#utility.yul\":14083:14086   */\n      dup3\n        /* \"#utility.yul\":13994:14087   */\n      tag_186\n      jump\t// in\n    tag_369:\n        /* \"#utility.yul\":14112:14114   */\n      0x40\n        /* \"#utility.yul\":14107:14110   */\n      dup3\n        /* \"#utility.yul\":14103:14115   */\n      add\n        /* \"#utility.yul\":14096:14115   */\n      swap1\n      pop\n        /* \"#utility.yul\":13755:14121   */\n      swap2\n      swap1\n      pop\n      jump\t// out\n        /* \"#utility.yul\":14127:14546   */\n    tag_96:\n        /* \"#utility.yul\":14293:14297   */\n      0x00\n        /* \"#utility.yul\":14331:14333   */\n      0x20\n        /* \"#utility.yul\":14320:14329   */\n      dup3\n        /* \"#utility.yul\":14316:14334   */\n      add\n        /* \"#utility.yul\":14308:14334   */\n      swap1\n      pop\n        /* \"#utility.yul\":14380:14389   */\n      dup2\n        /* \"#utility.yul\":14374:14378   */\n      dup2\n        /* \"#utility.yul\":14370:14390   */\n      sub\n        /* \"#utility.yul\":14366:14367   */\n      0x00\n        /* \"#utility.yul\":14355:14364   */\n      dup4\n        /* \"#utility.yul\":14351:14368   */\n      add\n        /* \"#utility.yul\":14344:14391   */\n      mstore\n        /* \"#utility.yul\":14408:14539   */\n      tag_371\n        /* \"#utility.yul\":14534:14538   */\n      dup2\n        /* \"#utility.yul\":14408:14539   */\n      tag_187\n      jump\t// in\n    tag_371:\n        /* \"#utility.yul\":14400:14539   */\n      swap1\n      pop\n        /* \"#utility.yul\":14127:14546   */\n      swap2\n      swap1\n      pop\n      jump\t// out\n        /* \"#utility.yul\":14552:14731   */\n    tag_188:\n        /* \"#utility.yul\":14692:14723   */\n      0x5472616e73616374696f6e20616c726561647920636f6e6669726d6564000000\n        /* \"#utility.yul\":14688:14689   */\n      0x00\n        /* \"#utility.yul\":14680:14686   */\n      dup3\n        /* \"#utility.yul\":14676:14690   */\n      add\n        /* \"#utility.yul\":14669:14724   */\n      mstore\n        /* \"#utility.yul\":14552:14731   */\n      pop\n      jump\t// out\n        /* \"#utility.yul\":14737:15103   */\n    tag_189:\n        /* \"#utility.yul\":14879:14882   */\n      0x00\n        /* \"#utility.yul\":14900:14967   */\n      tag_374\n        /* \"#utility.yul\":14964:14966   */\n      0x1d\n        /* \"#utility.yul\":14959:14962   */\n      dup4\n        /* \"#utility.yul\":14900:14967   */\n      tag_181\n      jump\t// in\n    tag_374:\n        /* \"#utility.yul\":14893:14967   */\n      swap2\n      pop\n        /* \"#utility.yul\":14976:15069   */\n      tag_375\n        /* \"#utility.yul\":15065:15068   */\n      dup3\n        /* \"#utility.yul\":14976:15069   */\n      tag_188\n      jump\t// in\n    tag_375:\n        /* \"#utility.yul\":15094:15096   */\n      0x20\n        /* \"#utility.yul\":15089:15092   */\n      dup3\n        /* \"#utility.yul\":15085:15097   */\n      add\n        /* \"#utility.yul\":15078:15097   */\n      swap1\n      pop\n        /* \"#utility.yul\":14737:15103   */\n      swap2\n      swap1\n      pop\n      jump\t// out\n        /* \"#utility.yul\":15109:15528   */\n    tag_103:\n        /* \"#utility.yul\":15275:15279   */\n      0x00\n        /* \"#utility.yul\":15313:15315   */\n      0x20\n        /* \"#utility.yul\":15302:15311   */\n      dup3\n        /* \"#utility.yul\":15298:15316   */\n      add\n        /* \"#utility.yul\":15290:15316   */\n      swap1\n      pop\n        /* \"#utility.yul\":15362:15371   */\n      dup2\n        /* \"#utility.yul\":15356:15360   */\n      dup2\n        /* \"#utility.yul\":15352:15372   */\n      sub\n        /* \"#utility.yul\":15348:15349   */\n      0x00\n        /* \"#utility.yul\":15337:15346   */\n      dup4\n        /* \"#utility.yul\":15333:15350   */\n      add\n        /* \"#utility.yul\":15326:15373   */\n      mstore\n        /* \"#utility.yul\":15390:15521   */\n      tag_377\n        /* \"#utility.yul\":15516:15520   */\n      dup2\n        /* \"#utility.yul\":15390:15521   */\n      tag_189\n      jump\t// in\n    tag_377:\n        /* \"#utility.yul\":15382:15521   */\n      swap1\n      pop\n        /* \"#utility.yul\":15109:15528   */\n      swap2\n      swap1\n      pop\n      jump\t// out\n        /* \"#utility.yul\":15534:15725   */\n    tag_106:\n        /* \"#utility.yul\":15574:15577   */\n      0x00\n        /* \"#utility.yul\":15593:15613   */\n      tag_379\n        /* \"#utility.yul\":15611:15612   */\n      dup3\n        /* \"#utility.yul\":15593:15613   */\n      tag_143\n      jump\t// in\n    tag_379:\n        /* \"#utility.yul\":15588:15613   */\n      swap2\n      pop\n        /* \"#utility.yul\":15627:15647   */\n      tag_380\n        /* \"#utility.yul\":15645:15646   */\n      dup4\n        /* \"#utility.yul\":15627:15647   */\n      tag_143\n      jump\t// in\n    tag_380:\n        /* \"#utility.yul\":15622:15647   */\n      swap3\n      pop\n        /* \"#utility.yul\":15670:15671   */\n      dup3\n        /* \"#utility.yul\":15667:15668   */\n      dup3\n        /* \"#utility.yul\":15663:15672   */\n      add\n        /* \"#utility.yul\":15656:15672   */\n      swap1\n      pop\n        /* \"#utility.yul\":15691:15694   */\n      dup1\n        /* \"#utility.yul\":15688:15689   */\n      dup3\n        /* \"#utility.yul\":15685:15695   */\n      gt\n        /* \"#utility.yul\":15682:15718   */\n      iszero\n      tag_381\n      jumpi\n        /* \"#utility.yul\":15698:15716   */\n      tag_382\n      tag_184\n      jump\t// in\n    tag_382:\n        /* \"#utility.yul\":15682:15718   */\n    tag_381:\n        /* \"#utility.yul\":15534:15725   */\n      swap3\n      swap2\n      pop\n      pop\n      jump\t// out\n        /* \"#utility.yul\":15731:15825   */\n    tag_190:\n        /* \"#utility.yul\":15764:15772   */\n      0x00\n        /* \"#utility.yul\":15812:15817   */\n      dup2\n        /* \"#utility.yul\":15808:15810   */\n      0x60\n        /* \"#utility.yul\":15804:15818   */\n      shl\n        /* \"#utility.yul\":15783:15818   */\n      swap1\n      pop\n        /* \"#utility.yul\":15731:15825   */\n      swap2\n      swap1\n      pop\n      jump\t// out\n        /* \"#utility.yul\":15831:15925   */\n    tag_191:\n        /* \"#utility.yul\":15870:15877   */\n      0x00\n        /* \"#utility.yul\":15899:15919   */\n      tag_385\n        /* \"#utility.yul\":15913:15918   */\n      dup3\n        /* \"#utility.yul\":15899:15919   */\n      tag_190\n      jump\t// in\n    tag_385:\n        /* \"#utility.yul\":15888:15919   */\n      swap1\n      pop\n        /* \"#utility.yul\":15831:15925   */\n      swap2\n      swap1\n      pop\n      jump\t// out\n        /* \"#utility.yul\":15931:16031   */\n    tag_192:\n        /* \"#utility.yul\":15970:15977   */\n      0x00\n        /* \"#utility.yul\":15999:16025   */\n      tag_387\n        /* \"#utility.yul\":16019:16024   */\n      dup3\n        /* \"#utility.yul\":15999:16025   */\n      tag_191\n      jump\t// in\n    tag_387:\n        /* \"#utility.yul\":15988:16025   */\n      swap1\n      pop\n        /* \"#utility.yul\":15931:16031   */\n      swap2\n      swap1\n      pop\n      jump\t// out\n        /* \"#utility.yul\":16037:16194   */\n    tag_193:\n        /* \"#utility.yul\":16142:16187   */\n      tag_389\n        /* \"#utility.yul\":16162:16186   */\n      tag_390\n        /* \"#utility.yul\":16180:16185   */\n      dup3\n        /* \"#utility.yul\":16162:16186   */\n      tag_151\n      jump\t// in\n    tag_390:\n        /* \"#utility.yul\":16142:16187   */\n      tag_192\n      jump\t// in\n    tag_389:\n        /* \"#utility.yul\":16137:16140   */\n      dup3\n        /* \"#utility.yul\":16130:16188   */\n      mstore\n        /* \"#utility.yul\":16037:16194   */\n      pop\n      pop\n      jump\t// out\n        /* \"#utility.yul\":16200:16279   */\n    tag_194:\n        /* \"#utility.yul\":16239:16246   */\n      0x00\n        /* \"#utility.yul\":16268:16273   */\n      dup2\n        /* \"#utility.yul\":16257:16273   */\n      swap1\n      pop\n        /* \"#utility.yul\":16200:16279   */\n      swap2\n      swap1\n      pop\n      jump\t// out\n        /* \"#utility.yul\":16285:16442   */\n    tag_195:\n        /* \"#utility.yul\":16390:16435   */\n      tag_393\n        /* \"#utility.yul\":16410:16434   */\n      tag_394\n        /* \"#utility.yul\":16428:16433   */\n      dup3\n        /* \"#utility.yul\":16410:16434   */\n      tag_143\n      jump\t// in\n    tag_394:\n        /* \"#utility.yul\":16390:16435   */\n      tag_194\n      jump\t// in\n    tag_393:\n        /* \"#utility.yul\":16385:16388   */\n      dup3\n        /* \"#utility.yul\":16378:16436   */\n      mstore\n        /* \"#utility.yul\":16285:16442   */\n      pop\n      pop\n      jump\t// out\n        /* \"#utility.yul\":16448:16595   */\n    tag_196:\n        /* \"#utility.yul\":16549:16560   */\n      0x00\n        /* \"#utility.yul\":16586:16589   */\n      dup2\n        /* \"#utility.yul\":16571:16589   */\n      swap1\n      pop\n        /* \"#utility.yul\":16448:16595   */\n      swap3\n      swap2\n      pop\n      pop\n      jump\t// out\n        /* \"#utility.yul\":16601:16987   */\n    tag_197:\n        /* \"#utility.yul\":16705:16708   */\n      0x00\n        /* \"#utility.yul\":16733:16771   */\n      tag_397\n        /* \"#utility.yul\":16765:16770   */\n      dup3\n        /* \"#utility.yul\":16733:16771   */\n      tag_160\n      jump\t// in\n    tag_397:\n        /* \"#utility.yul\":16787:16875   */\n      tag_398\n        /* \"#utility.yul\":16868:16874   */\n      dup2\n        /* \"#utility.yul\":16863:16866   */\n      dup6\n        /* \"#utility.yul\":16787:16875   */\n      tag_196\n      jump\t// in\n    tag_398:\n        /* \"#utility.yul\":16780:16875   */\n      swap4\n      pop\n        /* \"#utility.yul\":16884:16949   */\n      tag_399\n        /* \"#utility.yul\":16942:16948   */\n      dup2\n        /* \"#utility.yul\":16937:16940   */\n      dup6\n        /* \"#utility.yul\":16930:16934   */\n      0x20\n        /* \"#utility.yul\":16923:16928   */\n      dup7\n        /* \"#utility.yul\":16919:16935   */\n      add\n        /* \"#utility.yul\":16884:16949   */\n      tag_162\n      jump\t// in\n    tag_399:\n        /* \"#utility.yul\":16974:16980   */\n      dup1\n        /* \"#utility.yul\":16969:16972   */\n      dup5\n        /* \"#utility.yul\":16965:16981   */\n      add\n        /* \"#utility.yul\":16958:16981   */\n      swap2\n      pop\n        /* \"#utility.yul\":16709:16987   */\n      pop\n        /* \"#utility.yul\":16601:16987   */\n      swap3\n      swap2\n      pop\n      pop\n      jump\t// out\n        /* \"#utility.yul\":16993:17687   */\n    tag_115:\n        /* \"#utility.yul\":17207:17210   */\n      0x00\n        /* \"#utility.yul\":17222:17297   */\n      tag_401\n        /* \"#utility.yul\":17293:17296   */\n      dup3\n        /* \"#utility.yul\":17284:17290   */\n      dup8\n        /* \"#utility.yul\":17222:17297   */\n      tag_193\n      jump\t// in\n    tag_401:\n        /* \"#utility.yul\":17322:17324   */\n      0x14\n        /* \"#utility.yul\":17317:17320   */\n      dup3\n        /* \"#utility.yul\":17313:17325   */\n      add\n        /* \"#utility.yul\":17306:17325   */\n      swap2\n      pop\n        /* \"#utility.yul\":17335:17410   */\n      tag_402\n        /* \"#utility.yul\":17406:17409   */\n      dup3\n        /* \"#utility.yul\":17397:17403   */\n      dup7\n        /* \"#utility.yul\":17335:17410   */\n      tag_195\n      jump\t// in\n    tag_402:\n        /* \"#utility.yul\":17435:17437   */\n      0x20\n        /* \"#utility.yul\":17430:17433   */\n      dup3\n        /* \"#utility.yul\":17426:17438   */\n      add\n        /* \"#utility.yul\":17419:17438   */\n      swap2\n      pop\n        /* \"#utility.yul\":17455:17548   */\n      tag_403\n        /* \"#utility.yul\":17544:17547   */\n      dup3\n        /* \"#utility.yul\":17535:17541   */\n      dup6\n        /* \"#utility.yul\":17455:17548   */\n      tag_197\n      jump\t// in\n    tag_403:\n        /* \"#utility.yul\":17448:17548   */\n      swap2\n      pop\n        /* \"#utility.yul\":17558:17633   */\n      tag_404\n        /* \"#utility.yul\":17629:17632   */\n      dup3\n        /* \"#utility.yul\":17620:17626   */\n      dup5\n        /* \"#utility.yul\":17558:17633   */\n      tag_195\n      jump\t// in\n    tag_404:\n        /* \"#utility.yul\":17658:17660   */\n      0x20\n        /* \"#utility.yul\":17653:17656   */\n      dup3\n        /* \"#utility.yul\":17649:17661   */\n      add\n        /* \"#utility.yul\":17642:17661   */\n      swap2\n      pop\n        /* \"#utility.yul\":17678:17681   */\n      dup2\n        /* \"#utility.yul\":17671:17681   */\n      swap1\n      pop\n        /* \"#utility.yul\":16993:17687   */\n      swap6\n      swap5\n      pop\n      pop\n      pop\n      pop\n      pop\n      jump\t// out\n        /* \"#utility.yul\":17693:17869   */\n    tag_198:\n        /* \"#utility.yul\":17833:17861   */\n      0x5472616e73616374696f6e20616c726561647920657869737473000000000000\n        /* \"#utility.yul\":17829:17830   */\n      0x00\n        /* \"#utility.yul\":17821:17827   */\n      dup3\n        /* \"#utility.yul\":17817:17831   */\n      add\n        /* \"#utility.yul\":17810:17862   */\n      mstore\n        /* \"#utility.yul\":17693:17869   */\n      pop\n      jump\t// out\n        /* \"#utility.yul\":17875:18241   */\n    tag_199:\n        /* \"#utility.yul\":18017:18020   */\n      0x00\n        /* \"#utility.yul\":18038:18105   */\n      tag_407\n        /* \"#utility.yul\":18102:18104   */\n      0x1a\n        /* \"#utility.yul\":18097:18100   */\n      dup4\n        /* \"#utility.yul\":18038:18105   */\n      tag_181\n      jump\t// in\n    tag_407:\n        /* \"#utility.yul\":18031:18105   */\n      swap2\n      pop\n        /* \"#utility.yul\":18114:18207   */\n      tag_408\n        /* \"#utility.yul\":18203:18206   */\n      dup3\n        /* \"#utility.yul\":18114:18207   */\n      tag_198\n      jump\t// in\n    tag_408:\n        /* \"#utility.yul\":18232:18234   */\n      0x20\n        /* \"#utility.yul\":18227:18230   */\n      dup3\n        /* \"#utility.yul\":18223:18235   */\n      add\n        /* \"#utility.yul\":18216:18235   */\n      swap1\n      pop\n        /* \"#utility.yul\":17875:18241   */\n      swap2\n      swap1\n      pop\n      jump\t// out\n        /* \"#utility.yul\":18247:18666   */\n    tag_118:\n        /* \"#utility.yul\":18413:18417   */\n      0x00\n        /* \"#utility.yul\":18451:18453   */\n      0x20\n        /* \"#utility.yul\":18440:18449   */\n      dup3\n        /* \"#utility.yul\":18436:18454   */\n      add\n        /* \"#utility.yul\":18428:18454   */\n      swap1\n      pop\n        /* \"#utility.yul\":18500:18509   */\n      dup2\n        /* \"#utility.yul\":18494:18498   */\n      dup2\n        /* \"#utility.yul\":18490:18510   */\n      sub\n        /* \"#utility.yul\":18486:18487   */\n      0x00\n        /* \"#utility.yul\":18475:18484   */\n      dup4\n        /* \"#utility.yul\":18471:18488   */\n      add\n        /* \"#utility.yul\":18464:18511   */\n      mstore\n        /* \"#utility.yul\":18528:18659   */\n      tag_410\n        /* \"#utility.yul\":18654:18658   */\n      dup2\n        /* \"#utility.yul\":18528:18659   */\n      tag_199\n      jump\t// in\n    tag_410:\n        /* \"#utility.yul\":18520:18659   */\n      swap1\n      pop\n        /* \"#utility.yul\":18247:18666   */\n      swap2\n      swap1\n      pop\n      jump\t// out\n        /* \"#utility.yul\":18672:18812   */\n    tag_200:\n        /* \"#utility.yul\":18720:18724   */\n      0x00\n        /* \"#utility.yul\":18743:18746   */\n      dup2\n        /* \"#utility.yul\":18735:18746   */\n      swap1\n      pop\n        /* \"#utility.yul\":18766:18769   */\n      dup2\n        /* \"#utility.yul\":18763:18764   */\n      0x00\n        /* \"#utility.yul\":18756:18770   */\n      mstore\n        /* \"#utility.yul\":18800:18804   */\n      0x20\n        /* \"#utility.yul\":18797:18798   */\n      0x00\n        /* \"#utility.yul\":18787:18805   */\n      keccak256\n        /* \"#utility.yul\":18779:18805   */\n      swap1\n      pop\n        /* \"#utility.yul\":18672:18812   */\n      swap2\n      swap1\n      pop\n      jump\t// out\n        /* \"#utility.yul\":18818:18911   */\n    tag_201:\n        /* \"#utility.yul\":18855:18861   */\n      0x00\n        /* \"#utility.yul\":18902:18904   */\n      0x20\n        /* \"#utility.yul\":18897:18899   */\n      0x1f\n        /* \"#utility.yul\":18890:18895   */\n      dup4\n        /* \"#utility.yul\":18886:18900   */\n      add\n        /* \"#utility.yul\":18882:18905   */\n      div\n        /* \"#utility.yul\":18872:18905   */\n      swap1\n      pop\n        /* \"#utility.yul\":18818:18911   */\n      swap2\n      swap1\n      pop\n      jump\t// out\n        /* \"#utility.yul\":18917:19024   */\n    tag_202:\n        /* \"#utility.yul\":18961:18969   */\n      0x00\n        /* \"#utility.yul\":19011:19016   */\n      dup3\n        /* \"#utility.yul\":19005:19009   */\n      dup3\n        /* \"#utility.yul\":19001:19017   */\n      shl\n        /* \"#utility.yul\":18980:19017   */\n      swap1\n      pop\n        /* \"#utility.yul\":18917:19024   */\n      swap3\n      swap2\n      pop\n      pop\n      jump\t// out\n        /* \"#utility.yul\":19030:19423   */\n    tag_203:\n        /* \"#utility.yul\":19099:19105   */\n      0x00\n        /* \"#utility.yul\":19149:19150   */\n      0x08\n        /* \"#utility.yul\":19137:19147   */\n      dup4\n        /* \"#utility.yul\":19133:19151   */\n      mul\n        /* \"#utility.yul\":19172:19269   */\n      tag_415\n        /* \"#utility.yul\":19202:19268   */\n      0xffffffffffffffffffffffffffffffffffffffffffffffffffffffffffffffff\n        /* \"#utility.yul\":19191:19200   */\n      dup3\n        /* \"#utility.yul\":19172:19269   */\n      tag_202\n      jump\t// in\n    tag_415:\n        /* \"#utility.yul\":19290:19329   */\n      tag_416\n        /* \"#utility.yul\":19320:19328   */\n      dup7\n        /* \"#utility.yul\":19309:19318   */\n      dup4\n        /* \"#utility.yul\":19290:19329   */\n      tag_202\n      jump\t// in\n    tag_416:\n        /* \"#utility.yul\":19278:19329   */\n      swap6\n      pop\n        /* \"#utility.yul\":19362:19366   */\n      dup1\n        /* \"#utility.yul\":19358:19367   */\n      not\n        /* \"#utility.yul\":19351:19356   */\n      dup5\n        /* \"#utility.yul\":19347:19368   */\n      and\n        /* \"#utility.yul\":19338:19368   */\n      swap4\n      pop\n        /* \"#utility.yul\":19411:19415   */\n      dup1\n        /* \"#utility.yul\":19401:19409   */\n      dup7\n        /* \"#utility.yul\":19397:19416   */\n      and\n        /* \"#utility.yul\":19390:19395   */\n      dup5\n        /* \"#utility.yul\":19387:19417   */\n      or\n        /* \"#utility.yul\":19377:19417   */\n      swap3\n      pop\n        /* \"#utility.yul\":19106:19423   */\n      pop\n      pop\n        /* \"#utility.yul\":19030:19423   */\n      swap4\n      swap3\n      pop\n      pop\n      pop\n      jump\t// out\n        /* \"#utility.yul\":19429:19489   */\n    tag_204:\n        /* \"#utility.yul\":19457:19460   */\n      0x00\n        /* \"#utility.yul\":19478:19483   */\n      dup2\n        /* \"#utility.yul\":19471:19483   */\n      swap1\n      pop\n        /* \"#utility.yul\":19429:19489   */\n      swap2\n      swap1\n      pop\n      jump\t// out\n        /* \"#utility.yul\":19495:19637   */\n    tag_205:\n        /* \"#utility.yul\":19545:19554   */\n      0x00\n        /* \"#utility.yul\":19578:19631   */\n      tag_419\n        /* \"#utility.yul\":19596:19630   */\n      tag_420\n        /* \"#utility.yul\":19605:19629   */\n      tag_421\n        /* \"#utility.yul\":19623:19628   */\n      dup5\n        /* \"#utility.yul\":19605:19629   */\n      tag_143\n      jump\t// in\n    tag_421:\n        /* \"#utility.yul\":19596:19630   */\n      tag_204\n      jump\t// in\n    tag_420:\n        /* \"#utility.yul\":19578:19631   */\n      tag_143\n      jump\t// in\n    tag_419:\n        /* \"#utility.yul\":19565:19631   */\n      swap1\n      pop\n        /* \"#utility.yul\":19495:19637   */\n      swap2\n      swap1\n      pop\n      jump\t// out\n        /* \"#utility.yul\":19643:19718   */\n    tag_206:\n        /* \"#utility.yul\":19686:19689   */\n      0x00\n        /* \"#utility.yul\":19707:19712   */\n      dup2\n        /* \"#utility.yul\":19700:19712   */\n      swap1\n      pop\n        /* \"#utility.yul\":19643:19718   */\n      swap2\n      swap1\n      pop\n      jump\t// out\n        /* \"#utility.yul\":19724:19993   */\n    tag_207:\n        /* \"#utility.yul\":19834:19873   */\n      tag_424\n        /* \"#utility.yul\":19865:19872   */\n      dup4\n        /* \"#utility.yul\":19834:19873   */\n      tag_205\n      jump\t// in\n    tag_424:\n        /* \"#utility.yul\":19895:19986   */\n      tag_425\n        /* \"#utility.yul\":19944:19985   */\n      tag_426\n        /* \"#utility.yul\":19968:19984   */\n      dup3\n        /* \"#utility.yul\":19944:19985   */\n      tag_206\n      jump\t// in\n    tag_426:\n        /* \"#utility.yul\":19936:19942   */\n      dup5\n        /* \"#utility.yul\":19929:19933   */\n      dup5\n        /* \"#utility.yul\":19923:19934   */\n      sload\n        /* \"#utility.yul\":19895:19986   */\n      tag_203\n      jump\t// in\n    tag_425:\n        /* \"#utility.yul\":19889:19893   */\n      dup3\n        /* \"#utility.yul\":19882:19987   */\n      sstore\n        /* \"#utility.yul\":19800:19993   */\n      pop\n        /* \"#utility.yul\":19724:19993   */\n      pop\n      pop\n      pop\n      jump\t// out\n        /* \"#utility.yul\":19999:20072   */\n    tag_208:\n        /* \"#utility.yul\":20044:20047   */\n      0x00\n        /* \"#utility.yul\":19999:20072   */\n      swap1\n      jump\t// out\n        /* \"#utility.yul\":20078:20267   */\n    tag_209:\n        /* \"#utility.yul\":20155:20187   */\n      tag_429\n      tag_208\n      jump\t// in\n    tag_429:\n        /* \"#utility.yul\":20196:20261   */\n      tag_430\n        /* \"#utility.yul\":20254:20260   */\n      dup2\n        /* \"#utility.yul\":20246:20252   */\n      dup5\n        /* \"#utility.yul\":20240:20244   */\n      dup5\n        /* \"#utility.yul\":20196:20261   */\n      tag_207\n      jump\t// in\n    tag_430:\n        /* \"#utility.yul\":20131:20267   */\n      pop\n        /* \"#utility.yul\":20078:20267   */\n      pop\n      pop\n      jump\t// out\n        /* \"#utility.yul\":20273:20459   */\n    tag_210:\n        /* \"#utility.yul\":20333:20453   */\n    tag_432:\n        /* \"#utility.yul\":20350:20353   */\n      dup2\n        /* \"#utility.yul\":20343:20348   */\n      dup2\n        /* \"#utility.yul\":20340:20354   */\n      lt\n        /* \"#utility.yul\":20333:20453   */\n      iszero\n      tag_434\n      jumpi\n        /* \"#utility.yul\":20404:20443   */\n      tag_435\n        /* \"#utility.yul\":20441:20442   */\n      0x00\n        /* \"#utility.yul\":20434:20439   */\n      dup3\n        /* \"#utility.yul\":20404:20443   */\n      tag_209\n      jump\t// in\n    tag_435:\n        /* \"#utility.yul\":20377:20378   */\n      0x01\n        /* \"#utility.yul\":20370:20375   */\n      dup2\n        /* \"#utility.yul\":20366:20379   */\n      add\n        /* \"#utility.yul\":20357:20379   */\n      swap1\n      pop\n        /* \"#utility.yul\":20333:20453   */\n      jump(tag_432)\n    tag_434:\n        /* \"#utility.yul\":20273:20459   */\n      pop\n      pop\n      jump\t// out\n        /* \"#utility.yul\":20465:21006   */\n    tag_211:\n        /* \"#utility.yul\":20565:20567   */\n      0x1f\n        /* \"#utility.yul\":20560:20563   */\n      dup3\n        /* \"#utility.yul\":20557:20568   */\n      gt\n        /* \"#utility.yul\":20554:20999   */\n      iszero\n      tag_437\n      jumpi\n        /* \"#utility.yul\":20599:20636   */\n      tag_438\n        /* \"#utility.yul\":20630:20635   */\n      dup2\n        /* \"#utility.yul\":20599:20636   */\n      tag_200\n      jump\t// in\n    tag_438:\n        /* \"#utility.yul\":20682:20711   */\n      tag_439\n        /* \"#utility.yul\":20700:20710   */\n      dup5\n        /* \"#utility.yul\":20682:20711   */\n      tag_201\n      jump\t// in\n    tag_439:\n        /* \"#utility.yul\":20672:20680   */\n      dup2\n        /* \"#utility.yul\":20668:20712   */\n      add\n        /* \"#utility.yul\":20865:20867   */\n      0x20\n        /* \"#utility.yul\":20853:20863   */\n      dup6\n        /* \"#utility.yul\":20850:20868   */\n      lt\n        /* \"#utility.yul\":20847:20896   */\n      iszero\n      tag_440\n      jumpi\n        /* \"#utility.yul\":20886:20894   */\n      dup2\n        /* \"#utility.yul\":20871:20894   */\n      swap1\n      pop\n        /* \"#utility.yul\":20847:20896   */\n    tag_440:\n        /* \"#utility.yul\":20909:20989   */\n      tag_441\n        /* \"#utility.yul\":20965:20987   */\n      tag_442\n        /* \"#utility.yul\":20983:20986   */\n      dup6\n        /* \"#utility.yul\":20965:20987   */\n      tag_201\n      jump\t// in\n    tag_442:\n        /* \"#utility.yul\":20955:20963   */\n      dup4\n        /* \"#utility.yul\":20951:20988   */\n      add\n        /* \"#utility.yul\":20938:20949   */\n      dup3\n        /* \"#utility.yul\":20909:20989   */\n      tag_210\n      jump\t// in\n    tag_441:\n        /* \"#utility.yul\":20569:20999   */\n      pop\n      pop\n        /* \"#utility.yul\":20554:20999   */\n    tag_437:\n        /* \"#utility.yul\":20465:21006   */\n      pop\n      pop\n      pop\n      jump\t// out\n        /* \"#utility.yul\":21012:21129   */\n    tag_212:\n        /* \"#utility.yul\":21066:21074   */\n      0x00\n        /* \"#utility.yul\":21116:21121   */\n      dup3\n        /* \"#utility.yul\":21110:21114   */\n      dup3\n        /* \"#utility.yul\":21106:21122   */\n      shr\n        /* \"#utility.yul\":21085:21122   */\n      swap1\n      pop\n        /* \"#utility.yul\":21012:21129   */\n      swap3\n      swap2\n      pop\n      pop\n      jump\t// out\n        /* \"#utility.yul\":21135:21304   */\n    tag_213:\n        /* \"#utility.yul\":21179:21185   */\n      0x00\n        /* \"#utility.yul\":21212:21263   */\n      tag_445\n        /* \"#utility.yul\":21260:21261   */\n      0x00\n        /* \"#utility.yul\":21256:21262   */\n      not\n        /* \"#utility.yul\":21248:21253   */\n      dup5\n        /* \"#utility.yul\":21245:21246   */\n      0x08\n        /* \"#utility.yul\":21241:21254   */\n      mul\n        /* \"#utility.yul\":21212:21263   */\n      tag_212\n      jump\t// in\n    tag_445:\n        /* \"#utility.yul\":21208:21264   */\n      not\n        /* \"#utility.yul\":21293:21297   */\n      dup1\n        /* \"#utility.yul\":21287:21291   */\n      dup4\n        /* \"#utility.yul\":21283:21298   */\n      and\n        /* \"#utility.yul\":21273:21298   */\n      swap2\n      pop\n        /* \"#utility.yul\":21186:21304   */\n      pop\n        /* \"#utility.yul\":21135:21304   */\n      swap3\n      swap2\n      pop\n      pop\n      jump\t// out\n        /* \"#utility.yul\":21309:21604   */\n    tag_214:\n        /* \"#utility.yul\":21385:21389   */\n      0x00\n        /* \"#utility.yul\":21531:21560   */\n      tag_447\n        /* \"#utility.yul\":21556:21559   */\n      dup4\n        /* \"#utility.yul\":21550:21554   */\n      dup4\n        /* \"#utility.yul\":21531:21560   */\n      tag_213\n      jump\t// in\n    tag_447:\n        /* \"#utility.yul\":21523:21560   */\n      swap2\n      pop\n        /* \"#utility.yul\":21593:21596   */\n      dup3\n        /* \"#utility.yul\":21590:21591   */\n      0x02\n        /* \"#utility.yul\":21586:21597   */\n      mul\n        /* \"#utility.yul\":21580:21584   */\n      dup3\n        /* \"#utility.yul\":21577:21598   */\n      or\n        /* \"#utility.yul\":21569:21598   */\n      swap1\n      pop\n        /* \"#utility.yul\":21309:21604   */\n      swap3\n      swap2\n      pop\n      pop\n      jump\t// out\n        /* \"#utility.yul\":21609:22999   */\n    tag_120:\n        /* \"#utility.yul\":21724:21760   */\n      tag_449\n        /* \"#utility.yul\":21756:21759   */\n      dup3\n        /* \"#utility.yul\":21724:21760   */\n      tag_160\n      jump\t// in\n    tag_449:\n        /* \"#utility.yul\":21825:21843   */\n      0xffffffffffffffff\n        /* \"#utility.yul\":21817:21823   */\n      dup2\n        /* \"#utility.yul\":21814:21844   */\n      gt\n        /* \"#utility.yul\":21811:21867   */\n      iszero\n      tag_450\n      jumpi\n        /* \"#utility.yul\":21847:21865   */\n      tag_451\n      tag_65\n      jump\t// in\n    tag_451:\n        /* \"#utility.yul\":21811:21867   */\n    tag_450:\n        /* \"#utility.yul\":21891:21929   */\n      tag_452\n        /* \"#utility.yul\":21923:21927   */\n      dup3\n        /* \"#utility.yul\":21917:21928   */\n      sload\n        /* \"#utility.yul\":21891:21929   */\n      tag_83\n      jump\t// in\n    tag_452:\n        /* \"#utility.yul\":21976:22042   */\n      tag_453\n        /* \"#utility.yul\":22035:22041   */\n      dup3\n        /* \"#utility.yul\":22027:22033   */\n      dup3\n        /* \"#utility.yul\":22021:22025   */\n      dup6\n        /* \"#utility.yul\":21976:22042   */\n      tag_211\n      jump\t// in\n    tag_453:\n        /* \"#utility.yul\":22069:22070   */\n      0x00\n        /* \"#utility.yul\":22093:22097   */\n      0x20\n        /* \"#utility.yul\":22080:22097   */\n      swap1\n      pop\n        /* \"#utility.yul\":22125:22127   */\n      0x1f\n        /* \"#utility.yul\":22117:22123   */\n      dup4\n        /* \"#utility.yul\":22114:22128   */\n      gt\n        /* \"#utility.yul\":22142:22143   */\n      0x01\n        /* \"#utility.yul\":22137:22754   */\n      dup2\n      eq\n      tag_455\n      jumpi\n        /* \"#utility.yul\":22798:22799   */\n      0x00\n        /* \"#utility.yul\":22815:22821   */\n      dup5\n        /* \"#utility.yul\":22812:22889   */\n      iszero\n      tag_456\n      jumpi\n        /* \"#utility.yul\":22864:22873   */\n      dup3\n        /* \"#utility.yul\":22859:22862   */\n      dup8\n        /* \"#utility.yul\":22855:22874   */\n      add\n        /* \"#utility.yul\":22849:22875   */\n      mload\n        /* \"#utility.yul\":22840:22875   */\n      swap1\n      pop\n        /* \"#utility.yul\":22812:22889   */\n    tag_456:\n        /* \"#utility.yul\":22915:22982   */\n      tag_457\n        /* \"#utility.yul\":22975:22981   */\n      dup6\n        /* \"#utility.yul\":22968:22973   */\n      dup3\n        /* \"#utility.yul\":22915:22982   */\n      tag_214\n      jump\t// in\n    tag_457:\n        /* \"#utility.yul\":22909:22913   */\n      dup7\n        /* \"#utility.yul\":22902:22983   */\n      sstore\n        /* \"#utility.yul\":22771:22993   */\n      pop\n        /* \"#utility.yul\":22107:22993   */\n      jump(tag_454)\n        /* \"#utility.yul\":22137:22754   */\n    tag_455:\n        /* \"#utility.yul\":22189:22193   */\n      0x1f\n        /* \"#utility.yul\":22185:22194   */\n      not\n        /* \"#utility.yul\":22177:22183   */\n      dup5\n        /* \"#utility.yul\":22173:22195   */\n      and\n        /* \"#utility.yul\":22223:22259   */\n      tag_458\n        /* \"#utility.yul\":22254:22258   */\n      dup7\n        /* \"#utility.yul\":22223:22259   */\n      tag_200\n      jump\t// in\n    tag_458:\n        /* \"#utility.yul\":22281:22282   */\n      0x00\n        /* \"#utility.yul\":22295:22503   */\n    tag_459:\n        /* \"#utility.yul\":22309:22316   */\n      dup3\n        /* \"#utility.yul\":22306:22307   */\n      dup2\n        /* \"#utility.yul\":22303:22317   */\n      lt\n        /* \"#utility.yul\":22295:22503   */\n      iszero\n      tag_461\n      jumpi\n        /* \"#utility.yul\":22388:22397   */\n      dup5\n        /* \"#utility.yul\":22383:22386   */\n      dup10\n        /* \"#utility.yul\":22379:22398   */\n      add\n        /* \"#utility.yul\":22373:22399   */\n      mload\n        /* \"#utility.yul\":22365:22371   */\n      dup3\n        /* \"#utility.yul\":22358:22400   */\n      sstore\n        /* \"#utility.yul\":22439:22440   */\n      0x01\n        /* \"#utility.yul\":22431:22437   */\n      dup3\n        /* \"#utility.yul\":22427:22441   */\n      add\n        /* \"#utility.yul\":22417:22441   */\n      swap2\n      pop\n        /* \"#utility.yul\":22486:22488   */\n      0x20\n        /* \"#utility.yul\":22475:22484   */\n      dup6\n        /* \"#utility.yul\":22471:22489   */\n      add\n        /* \"#utility.yul\":22458:22489   */\n      swap5\n      pop\n        /* \"#utility.yul\":22332:22336   */\n      0x20\n        /* \"#utility.yul\":22329:22330   */\n      dup2\n        /* \"#utility.yul\":22325:22337   */\n      add\n        /* \"#utility.yul\":22320:22337   */\n      swap1\n      pop\n        /* \"#utility.yul\":22295:22503   */\n      jump(tag_459)\n    tag_461:\n        /* \"#utility.yul\":22531:22537   */\n      dup7\n        /* \"#utility.yul\":22522:22529   */\n      dup4\n        /* \"#utility.yul\":22519:22538   */\n      lt\n        /* \"#utility.yul\":22516:22695   */\n      iszero\n      tag_462\n      jumpi\n        /* \"#utility.yul\":22589:22598   */\n      dup5\n        /* \"#utility.yul\":22584:22587   */\n      dup10\n        /* \"#utility.yul\":22580:22599   */\n      add\n        /* \"#utility.yul\":22574:22600   */\n      mload\n        /* \"#utility.yul\":22632:22680   */\n      tag_463\n        /* \"#utility.yul\":22674:22678   */\n      0x1f\n        /* \"#utility.yul\":22666:22672   */\n      dup10\n        /* \"#utility.yul\":22662:22679   */\n      and\n        /* \"#utility.yul\":22651:22660   */\n      dup3\n        /* \"#utility.yul\":22632:22680   */\n      tag_213\n      jump\t// in\n    tag_463:\n        /* \"#utility.yul\":22624:22630   */\n      dup4\n        /* \"#utility.yul\":22617:22681   */\n      sstore\n        /* \"#utility.yul\":22539:22695   */\n      pop\n        /* \"#utility.yul\":22516:22695   */\n    tag_462:\n        /* \"#utility.yul\":22741:22742   */\n      0x01\n        /* \"#utility.yul\":22737:22738   */\n      0x02\n        /* \"#utility.yul\":22729:22735   */\n      dup9\n        /* \"#utility.yul\":22725:22739   */\n      mul\n        /* \"#utility.yul\":22721:22743   */\n      add\n        /* \"#utility.yul\":22715:22719   */\n      dup9\n        /* \"#utility.yul\":22708:22744   */\n      sstore\n        /* \"#utility.yul\":22144:22754   */\n      pop\n      pop\n      pop\n        /* \"#utility.yul\":22107:22993   */\n    tag_454:\n      pop\n        /* \"#utility.yul\":21699:22999   */\n      pop\n      pop\n      pop\n        /* \"#utility.yul\":21609:22999   */\n      pop\n      pop\n      jump\t// out\n        /* \"#utility.yul\":23005:23183   */\n    tag_215:\n        /* \"#utility.yul\":23145:23175   */\n      0x5472616e73616374696f6e20616c726561647920657865637574656400000000\n        /* \"#utility.yul\":23141:23142   */\n      0x00\n        /* \"#utility.yul\":23133:23139   */\n      dup3\n        /* \"#utility.yul\":23129:23143   */\n      add\n        /* \"#utility.yul\":23122:23176   */\n      mstore\n        /* \"#utility.yul\":23005:23183   */\n      pop\n      jump\t// out\n        /* \"#utility.yul\":23189:23555   */\n    tag_216:\n        /* \"#utility.yul\":23331:23334   */\n      0x00\n        /* \"#utility.yul\":23352:23419   */\n      tag_466\n        /* \"#utility.yul\":23416:23418   */\n      0x1c\n        /* \"#utility.yul\":23411:23414   */\n      dup4\n        /* \"#utility.yul\":23352:23419   */\n      tag_181\n      jump\t// in\n    tag_466:\n        /* \"#utility.yul\":23345:23419   */\n      swap2\n      pop\n        /* \"#utility.yul\":23428:23521   */\n      tag_467\n        /* \"#utility.yul\":23517:23520   */\n      dup3\n        /* \"#utility.yul\":23428:23521   */\n      tag_215\n      jump\t// in\n    tag_467:\n        /* \"#utility.yul\":23546:23548   */\n      0x20\n        /* \"#utility.yul\":23541:23544   */\n      dup3\n        /* \"#utility.yul\":23537:23549   */\n      add\n        /* \"#utility.yul\":23530:23549   */\n      swap1\n      pop\n        /* \"#utility.yul\":23189:23555   */\n      swap2\n      swap1\n      pop\n      jump\t// out\n        /* \"#utility.yul\":23561:23980   */\n    tag_128:\n        /* \"#utility.yul\":23727:23731   */\n      0x00\n        /* \"#utility.yul\":23765:23767   */\n      0x20\n        /* \"#utility.yul\":23754:23763   */\n      dup3\n        /* \"#utility.yul\":23750:23768   */\n      add\n        /* \"#utility.yul\":23742:23768   */\n      swap1\n      pop\n        /* \"#utility.yul\":23814:23823   */\n      dup2\n        /* \"#utility.yul\":23808:23812   */\n      dup2\n        /* \"#utility.yul\":23804:23824   */\n      sub\n        /* \"#utility.yul\":23800:23801   */\n      0x00\n        /* \"#utility.yul\":23789:23798   */\n      dup4\n        /* \"#utility.yul\":23785:23802   */\n      add\n        /* \"#utility.yul\":23778:23825   */\n      mstore\n        /* \"#utility.yul\":23842:23973   */\n      tag_469\n        /* \"#utility.yul\":23968:23972   */\n      dup2\n        /* \"#utility.yul\":23842:23973   */\n      tag_216\n      jump\t// in\n    tag_469:\n        /* \"#utility.yul\":23834:23973   */\n      swap1\n      pop\n        /* \"#utility.yul\":23561:23980   */\n      swap2\n      swap1\n      pop\n      jump\t// out\n        /* \"#utility.yul\":23986:24162   */\n    tag_217:\n        /* \"#utility.yul\":24126:24154   */\n      0x496e73756666696369656e7420636f6e6669726d6174696f6e73000000000000\n        /* \"#utility.yul\":24122:24123   */\n      0x00\n        /* \"#utility.yul\":24114:24120   */\n      dup3\n        /* \"#utility.yul\":24110:24124   */\n      add\n        /* \"#utility.yul\":24103:24155   */\n      mstore\n        /* \"#utility.yul\":23986:24162   */\n      pop\n      jump\t// out\n        /* \"#utility.yul\":24168:24534   */\n    tag_218:\n        /* \"#utility.yul\":24310:24313   */\n      0x00\n        /* \"#utility.yul\":24331:24398   */\n      tag_472\n        /* \"#utility.yul\":24395:24397   */\n      0x1a\n        /* \"#utility.yul\":24390:24393   */\n      dup4\n        /* \"#utility.yul\":24331:24398   */\n      tag_181\n      jump\t// in\n    tag_472:\n        /* \"#utility.yul\":24324:24398   */\n      swap2\n      pop\n        /* \"#utility.yul\":24407:24500   */\n      tag_473\n        /* \"#utility.yul\":24496:24499   */\n      dup3\n        /* \"#utility.yul\":24407:24500   */\n      tag_217\n      jump\t// in\n    tag_473:\n        /* \"#utility.yul\":24525:24527   */\n      0x20\n        /* \"#utility.yul\":24520:24523   */\n      dup3\n        /* \"#utility.yul\":24516:24528   */\n      add\n        /* \"#utility.yul\":24509:24528   */\n      swap1\n      pop\n        /* \"#utility.yul\":24168:24534   */\n      swap2\n      swap1\n      pop\n      jump\t// out\n        /* \"#utility.yul\":24540:24959   */\n    tag_132:\n        /* \"#utility.yul\":24706:24710   */\n      0x00\n        /* \"#utility.yul\":24744:24746   */\n      0x20\n        /* \"#utility.yul\":24733:24742   */\n      dup3\n        /* \"#utility.yul\":24729:24747   */\n      add\n        /* \"#utility.yul\":24721:24747   */\n      swap1\n      pop\n        /* \"#utility.yul\":24793:24802   */\n      dup2\n        /* \"#utility.yul\":24787:24791   */\n      dup2\n        /* \"#utility.yul\":24783:24803   */\n      sub\n        /* \"#utility.yul\":24779:24780   */\n      0x00\n        /* \"#utility.yul\":24768:24777   */\n      dup4\n        /* \"#utility.yul\":24764:24781   */\n      add\n        /* \"#utility.yul\":24757:24804   */\n      mstore\n        /* \"#utility.yul\":24821:24952   */\n      tag_475\n        /* \"#utility.yul\":24947:24951   */\n      dup2\n        /* \"#utility.yul\":24821:24952   */\n      tag_218\n      jump\t// in\n    tag_475:\n        /* \"#utility.yul\":24813:24952   */\n      swap1\n      pop\n        /* \"#utility.yul\":24540:24959   */\n      swap2\n      swap1\n      pop\n      jump\t// out\n        /* \"#utility.yul\":24987:25857   */\n    tag_219:\n        /* \"#utility.yul\":25088:25091   */\n      0x00\n        /* \"#utility.yul\":25125:25130   */\n      dup2\n        /* \"#utility.yul\":25119:25131   */\n      sload\n        /* \"#utility.yul\":25154:25190   */\n      tag_477\n        /* \"#utility.yul\":25180:25189   */\n      dup2\n        /* \"#utility.yul\":25154:25190   */\n      tag_83\n      jump\t// in\n    tag_477:\n        /* \"#utility.yul\":25206:25294   */\n      tag_478\n        /* \"#utility.yul\":25287:25293   */\n      dup2\n        /* \"#utility.yul\":25282:25285   */\n      dup7\n        /* \"#utility.yul\":25206:25294   */\n      tag_196\n      jump\t// in\n    tag_478:\n        /* \"#utility.yul\":25199:25294   */\n      swap5\n      pop\n        /* \"#utility.yul\":25325:25326   */\n      0x01\n        /* \"#utility.yul\":25314:25323   */\n      dup3\n        /* \"#utility.yul\":25310:25327   */\n      and\n        /* \"#utility.yul\":25341:25342   */\n      0x00\n        /* \"#utility.yul\":25336:25502   */\n      dup2\n      eq\n      tag_480\n      jumpi\n        /* \"#utility.yul\":25516:25517   */\n      0x01\n        /* \"#utility.yul\":25511:25851   */\n      dup2\n      eq\n      tag_481\n      jumpi\n        /* \"#utility.yul\":25303:25851   */\n      jump(tag_479)\n        /* \"#utility.yul\":25336:25502   */\n    tag_480:\n        /* \"#utility.yul\":25420:25424   */\n      0xff\n        /* \"#utility.yul\":25416:25425   */\n      not\n        /* \"#utility.yul\":25405:25414   */\n      dup4\n        /* \"#utility.yul\":25401:25426   */\n      and\n        /* \"#utility.yul\":25396:25399   */\n      dup7\n        /* \"#utility.yul\":25389:25427   */\n      mstore\n        /* \"#utility.yul\":25482:25488   */\n      dup2\n        /* \"#utility.yul\":25475:25489   */\n      iszero\n        /* \"#utility.yul\":25468:25490   */\n      iszero\n        /* \"#utility.yul\":25460:25466   */\n      dup3\n        /* \"#utility.yul\":25456:25491   */\n      mul\n        /* \"#utility.yul\":25451:25454   */\n      dup7\n        /* \"#utility.yul\":25447:25492   */\n      add\n        /* \"#utility.yul\":25440:25492   */\n      swap4\n      pop\n        /* \"#utility.yul\":25336:25502   */\n      jump(tag_479)\n        /* \"#utility.yul\":25511:25851   */\n    tag_481:\n        /* \"#utility.yul\":25578:25615   */\n      tag_482\n        /* \"#utility.yul\":25609:25614   */\n      dup6\n        /* \"#utility.yul\":25578:25615   */\n      tag_200\n      jump\t// in\n    tag_482:\n        /* \"#utility.yul\":25637:25638   */\n      0x00\n        /* \"#utility.yul\":25651:25805   */\n    tag_483:\n        /* \"#utility.yul\":25665:25671   */\n      dup4\n        /* \"#utility.yul\":25662:25663   */\n      dup2\n        /* \"#utility.yul\":25659:25672   */\n      lt\n        /* \"#utility.yul\":25651:25805   */\n      iszero\n      tag_485\n      jumpi\n        /* \"#utility.yul\":25739:25746   */\n      dup2\n        /* \"#utility.yul\":25733:25747   */\n      sload\n        /* \"#utility.yul\":25729:25730   */\n      dup2\n        /* \"#utility.yul\":25724:25727   */\n      dup10\n        /* \"#utility.yul\":25720:25731   */\n      add\n        /* \"#utility.yul\":25713:25748   */\n      mstore\n        /* \"#utility.yul\":25789:25790   */\n      0x01\n        /* \"#utility.yul\":25780:25787   */\n      dup3\n        /* \"#utility.yul\":25776:25791   */\n      add\n        /* \"#utility.yul\":25765:25791   */\n      swap2\n      pop\n        /* \"#utility.yul\":25687:25691   */\n      0x20\n        /* \"#utility.yul\":25684:25685   */\n      dup2\n        /* \"#utility.yul\":25680:25692   */\n      add\n        /* \"#utility.yul\":25675:25692   */\n      swap1\n      pop\n        /* \"#utility.yul\":25651:25805   */\n      jump(tag_483)\n    tag_485:\n        /* \"#utility.yul\":25834:25840   */\n      dup4\n        /* \"#utility.yul\":25829:25832   */\n      dup9\n        /* \"#utility.yul\":25825:25841   */\n      add\n        /* \"#utility.yul\":25818:25841   */\n      swap6\n      pop\n        /* \"#utility.yul\":25518:25851   */\n      pop\n      pop\n        /* \"#utility.yul\":25303:25851   */\n    tag_479:\n      pop\n        /* \"#utility.yul\":25092:25857   */\n      pop\n      pop\n        /* \"#utility.yul\":24987:25857   */\n      swap3\n      swap2\n      pop\n      pop\n      jump\t// out\n        /* \"#utility.yul\":25863:26128   */\n    tag_134:\n        /* \"#utility.yul\":25990:25993   */\n      0x00\n        /* \"#utility.yul\":26012:26102   */\n      tag_487\n        /* \"#utility.yul\":26098:26101   */\n      dup3\n        /* \"#utility.yul\":26089:26095   */\n      dup5\n        /* \"#utility.yul\":26012:26102   */\n      tag_219\n      jump\t// in\n    tag_487:\n        /* \"#utility.yul\":26005:26102   */\n      swap2\n      pop\n        /* \"#utility.yul\":26119:26122   */\n      dup2\n        /* \"#utility.yul\":26112:26122   */\n      swap1\n      pop\n        /* \"#utility.yul\":25863:26128   */\n      swap3\n      swap2\n      pop\n      pop\n      jump\t// out\n        /* \"#utility.yul\":26134:26302   */\n    tag_220:\n        /* \"#utility.yul\":26274:26294   */\n      0x5472616e73616374696f6e206661696c65640000000000000000000000000000\n        /* \"#utility.yul\":26270:26271   */\n      0x00\n        /* \"#utility.yul\":26262:26268   */\n      dup3\n        /* \"#utility.yul\":26258:26272   */\n      add\n        /* \"#utility.yul\":26251:26295   */\n      mstore\n        /* \"#utility.yul\":26134:26302   */\n      pop\n      jump\t// out\n        /* \"#utility.yul\":26308:26674   */\n    tag_221:\n        /* \"#utility.yul\":26450:26453   */\n      0x00\n        /* \"#utility.yul\":26471:26538   */\n      tag_490\n        /* \"#utility.yul\":26535:26537   */\n      0x12\n        /* \"#utility.yul\":26530:26533   */\n      dup4\n        /* \"#utility.yul\":26471:26538   */\n      tag_181\n      jump\t// in\n    tag_490:\n        /* \"#utility.yul\":26464:26538   */\n      swap2\n      pop\n        /* \"#utility.yul\":26547:26640   */\n      tag_491\n        /* \"#utility.yul\":26636:26639   */\n      dup3\n        /* \"#utility.yul\":26547:26640   */\n      tag_220\n      jump\t// in\n    tag_491:\n        /* \"#utility.yul\":26665:26667   */\n      0x20\n        /* \"#utility.yul\":26660:26663   */\n      dup3\n        /* \"#utility.yul\":26656:26668   */\n      add\n        /* \"#utility.yul\":26649:26668   */\n      swap1\n      pop\n        /* \"#utility.yul\":26308:26674   */\n      swap2\n      swap1\n      pop\n      jump\t// out\n        /* \"#utility.yul\":26680:27099   */\n    tag_140:\n        /* \"#utility.yul\":26846:26850   */\n      0x00\n        /* \"#utility.yul\":26884:26886   */\n      0x20\n        /* \"#utility.yul\":26873:26882   */\n      dup3\n        /* \"#utility.yul\":26869:26887   */\n      add\n        /* \"#utility.yul\":26861:26887   */\n      swap1\n      pop\n        /* \"#utility.yul\":26933:26942   */\n      dup2\n        /* \"#utility.yul\":26927:26931   */\n      dup2\n        /* \"#utility.yul\":26923:26943   */\n      sub\n        /* \"#utility.yul\":26919:26920   */\n      0x00\n        /* \"#utility.yul\":26908:26917   */\n      dup4\n        /* \"#utility.yul\":26904:26921   */\n      add\n        /* \"#utility.yul\":26897:26944   */\n      mstore\n        /* \"#utility.yul\":26961:27092   */\n      tag_493\n        /* \"#utility.yul\":27087:27091   */\n      dup2\n        /* \"#utility.yul\":26961:27092   */\n      tag_221\n      jump\t// in\n    tag_493:\n        /* \"#utility.yul\":26953:27092   */\n      swap1\n      pop\n        /* \"#utility.yul\":26680:27099   */\n      swap2\n      swap1\n      pop\n      jump\t// out\n        /* \"#utility.yul\":27127:27954   */\n    tag_222:\n        /* \"#utility.yul\":27210:27213   */\n      0x00\n        /* \"#utility.yul\":27247:27252   */\n      dup2\n        /* \"#utility.yul\":27241:27253   */\n      sload\n        /* \"#utility.yul\":27276:27312   */\n      tag_495\n        /* \"#utility.yul\":27302:27311   */\n      dup2\n        /* \"#utility.yul\":27276:27312   */\n      tag_83\n      jump\t// in\n    tag_495:\n        /* \"#utility.yul\":27328:27398   */\n      tag_496\n        /* \"#utility.yul\":27391:27397   */\n      dup2\n        /* \"#utility.yul\":27386:27389   */\n      dup7\n        /* \"#utility.yul\":27328:27398   */\n      tag_161\n      jump\t// in\n    tag_496:\n        /* \"#utility.yul\":27321:27398   */\n      swap5\n      pop\n        /* \"#utility.yul\":27429:27430   */\n      0x01\n        /* \"#utility.yul\":27418:27427   */\n      dup3\n        /* \"#utility.yul\":27414:27431   */\n      and\n        /* \"#utility.yul\":27445:27446   */\n      0x00\n        /* \"#utility.yul\":27440:27604   */\n      dup2\n      eq\n      tag_498\n      jumpi\n        /* \"#utility.yul\":27618:27619   */\n      0x01\n        /* \"#utility.yul\":27613:27948   */\n      dup2\n      eq\n      tag_499\n      jumpi\n        /* \"#utility.yul\":27407:27948   */\n      jump(tag_497)\n        /* \"#utility.yul\":27440:27604   */\n    tag_498:\n        /* \"#utility.yul\":27524:27528   */\n      0xff\n        /* \"#utility.yul\":27520:27529   */\n      not\n        /* \"#utility.yul\":27509:27518   */\n      dup4\n        /* \"#utility.yul\":27505:27530   */\n      and\n        /* \"#utility.yul\":27500:27503   */\n      dup7\n        /* \"#utility.yul\":27493:27531   */\n      mstore\n        /* \"#utility.yul\":27584:27590   */\n      dup2\n        /* \"#utility.yul\":27577:27591   */\n      iszero\n        /* \"#utility.yul\":27570:27592   */\n      iszero\n        /* \"#utility.yul\":27564:27568   */\n      0x20\n        /* \"#utility.yul\":27560:27593   */\n      mul\n        /* \"#utility.yul\":27555:27558   */\n      dup7\n        /* \"#utility.yul\":27551:27594   */\n      add\n        /* \"#utility.yul\":27544:27594   */\n      swap4\n      pop\n        /* \"#utility.yul\":27440:27604   */\n      jump(tag_497)\n        /* \"#utility.yul\":27613:27948   */\n    tag_499:\n        /* \"#utility.yul\":27680:27717   */\n      tag_500\n        /* \"#utility.yul\":27711:27716   */\n      dup6\n        /* \"#utility.yul\":27680:27717   */\n      tag_200\n      jump\t// in\n    tag_500:\n        /* \"#utility.yul\":27739:27740   */\n      0x00\n        /* \"#utility.yul\":27753:27907   */\n    tag_501:\n        /* \"#utility.yul\":27767:27773   */\n      dup4\n        /* \"#utility.yul\":27764:27765   */\n      dup2\n        /* \"#utility.yul\":27761:27774   */\n      lt\n        /* \"#utility.yul\":27753:27907   */\n      iszero\n      tag_503\n      jumpi\n        /* \"#utility.yul\":27841:27848   */\n      dup2\n        /* \"#utility.yul\":27835:27849   */\n      sload\n        /* \"#utility.yul\":27831:27832   */\n      dup2\n        /* \"#utility.yul\":27826:27829   */\n      dup10\n        /* \"#utility.yul\":27822:27833   */\n      add\n        /* \"#utility.yul\":27815:27850   */\n      mstore\n        /* \"#utility.yul\":27891:27892   */\n      0x01\n        /* \"#utility.yul\":27882:27889   */\n      dup3\n        /* \"#utility.yul\":27878:27893   */\n      add\n        /* \"#utility.yul\":27867:27893   */\n      swap2\n      pop\n        /* \"#utility.yul\":27789:27793   */\n      0x20\n        /* \"#utility.yul\":27786:27787   */\n      dup2\n        /* \"#utility.yul\":27782:27794   */\n      add\n        /* \"#utility.yul\":27777:27794   */\n      swap1\n      pop\n        /* \"#utility.yul\":27753:27907   */\n      jump(tag_501)\n    tag_503:\n        /* \"#utility.yul\":27936:27937   */\n      dup1\n        /* \"#utility.yul\":27931:27934   */\n      dup9\n        /* \"#utility.yul\":27927:27938   */\n      add\n        /* \"#utility.yul\":27920:27938   */\n      swap6\n      pop\n        /* \"#utility.yul\":27620:27948   */\n      pop\n      pop\n        /* \"#utility.yul\":27407:27948   */\n    tag_497:\n      pop\n        /* \"#utility.yul\":27214:27954   */\n      pop\n      pop\n        /* \"#utility.yul\":27127:27954   */\n      swap3\n      swap2\n      pop\n      pop\n      jump\t// out\n        /* \"#utility.yul\":27960:28373   */\n    tag_142:\n        /* \"#utility.yul\":28096:28100   */\n      0x00\n        /* \"#utility.yul\":28134:28136   */\n      0x40\n        /* \"#utility.yul\":28123:28132   */\n      dup3\n        /* \"#utility.yul\":28119:28137   */\n      add\n        /* \"#utility.yul\":28111:28137   */\n      swap1\n      pop\n        /* \"#utility.yul\":28147:28218   */\n      tag_505\n        /* \"#utility.yul\":28215:28216   */\n      0x00\n        /* \"#utility.yul\":28204:28213   */\n      dup4\n        /* \"#utility.yul\":28200:28217   */\n      add\n        /* \"#utility.yul\":28191:28197   */\n      dup6\n        /* \"#utility.yul\":28147:28218   */\n      tag_144\n      jump\t// in\n    tag_505:\n        /* \"#utility.yul\":28265:28274   */\n      dup2\n        /* \"#utility.yul\":28259:28263   */\n      dup2\n        /* \"#utility.yul\":28255:28275   */\n      sub\n        /* \"#utility.yul\":28250:28252   */\n      0x20\n        /* \"#utility.yul\":28239:28248   */\n      dup4\n        /* \"#utility.yul\":28235:28253   */\n      add\n        /* \"#utility.yul\":28228:28276   */\n      mstore\n        /* \"#utility.yul\":28293:28366   */\n      tag_506\n        /* \"#utility.yul\":28361:28365   */\n      dup2\n        /* \"#utility.yul\":28352:28358   */\n      dup5\n        /* \"#utility.yul\":28293:28366   */\n      tag_222\n      jump\t// in\n    tag_506:\n        /* \"#utility.yul\":28285:28366   */\n      swap1\n      pop\n        /* \"#utility.yul\":27960:28373   */\n      swap4\n      swap3\n      pop\n      pop\n      pop\n      jump\t// out\n\n    auxdata: 0xa2646970667358221220c4dc08ee850956191e711f4859c859b6e5d16dec2bd93c380141091134e9ed8864736f6c634300081a0033\n}\n",
				"bytecode": {
					"linkReferences": {},
					"object": "608060405234801561000f575f80fd5b5060405161241d38038061241d833981810160405281019061003191906104a2565b5f825111610074576040517f08c379a000000000000000000000000000000000000000000000000000000000815260040161006b90610556565b60405180910390fd5b5f81118015610084575081518111155b6100c3576040517f08c379a00000000000000000000000000000000000000000000000000000000081526004016100ba906105e4565b60405180910390fd5b5f5b82518110156102a5575f8382815181106100e2576100e1610602565b5b602002602001015190505f73ffffffffffffffffffffffffffffffffffffffff168173ffffffffffffffffffffffffffffffffffffffff160361015a576040517f08c379a00000000000000000000000000000000000000000000000000000000081526004016101519061069f565b60405180910390fd5b60015f8273ffffffffffffffffffffffffffffffffffffffff1673ffffffffffffffffffffffffffffffffffffffff1681526020019081526020015f205f9054906101000a900460ff16156101e4576040517f08c379a00000000000000000000000000000000000000000000000000000000081526004016101db9061072d565b60405180910390fd5b6001805f8373ffffffffffffffffffffffffffffffffffffffff1673ffffffffffffffffffffffffffffffffffffffff1681526020019081526020015f205f6101000a81548160ff0219169083151502179055505f81908060018154018082558091505060019003905f5260205f20015f9091909190916101000a81548173ffffffffffffffffffffffffffffffffffffffff021916908373ffffffffffffffffffffffffffffffffffffffff1602179055505080806001019150506100c5565b5080600281905550505061074b565b5f604051905090565b5f80fd5b5f80fd5b5f80fd5b5f601f19601f8301169050919050565b7f4e487b71000000000000000000000000000000000000000000000000000000005f52604160045260245ffd5b61030f826102c9565b810181811067ffffffffffffffff8211171561032e5761032d6102d9565b5b80604052505050565b5f6103406102b4565b905061034c8282610306565b919050565b5f67ffffffffffffffff82111561036b5761036a6102d9565b5b602082029050602081019050919050565b5f80fd5b5f73ffffffffffffffffffffffffffffffffffffffff82169050919050565b5f6103a982610380565b9050919050565b6103b98161039f565b81146103c3575f80fd5b50565b5f815190506103d4816103b0565b92915050565b5f6103ec6103e784610351565b610337565b9050808382526020820190506020840283018581111561040f5761040e61037c565b5b835b81811015610438578061042488826103c6565b845260208401935050602081019050610411565b5050509392505050565b5f82601f830112610456576104556102c5565b5b81516104668482602086016103da565b91505092915050565b5f819050919050565b6104818161046f565b811461048b575f80fd5b50565b5f8151905061049c81610478565b92915050565b5f80604083850312156104b8576104b76102bd565b5b5f83015167ffffffffffffffff8111156104d5576104d46102c1565b5b6104e185828601610442565b92505060206104f28582860161048e565b9150509250929050565b5f82825260208201905092915050565b7f4e6f206f776e6572732070726f766964656400000000000000000000000000005f82015250565b5f6105406012836104fc565b915061054b8261050c565b602082019050919050565b5f6020820190508181035f83015261056d81610534565b9050919050565b7f496e76616c6964206e756d626572206f6620726571756972656420636f6e66695f8201527f726d6174696f6e73000000000000000000000000000000000000000000000000602082015250565b5f6105ce6028836104fc565b91506105d982610574565b604082019050919050565b5f6020820190508181035f8301526105fb816105c2565b9050919050565b7f4e487b71000000000000000000000000000000000000000000000000000000005f52603260045260245ffd5b7f496e76616c696420616464726573733a204f776e65722063616e6e6f742062655f8201527f207a65726f206164647265737300000000000000000000000000000000000000602082015250565b5f610689602d836104fc565b91506106948261062f565b604082019050919050565b5f6020820190508181035f8301526106b68161067d565b9050919050565b7f4475706c6963617465206f776e65723a204164647265737320616c72656164795f8201527f20616e206f776e65720000000000000000000000000000000000000000000000602082015250565b5f6107176029836104fc565b9150610722826106bd565b604082019050919050565b5f6020820190508181035f8301526107448161070b565b9050919050565b611cc5806107585f395ff3fe608060405260043610610073575f3560e01c8063642f2eaf1161004d578063642f2eaf1461018557806379716e43146101c557806382e717f7146101ed578063a9496e7514610217576100c8565b8063025e7c27146100cc5780632f54bf6e14610108578063515a39b614610144576100c8565b366100c8573373ffffffffffffffffffffffffffffffffffffffff167fe1fffcc4923d04b559f4d29a8bfc6cda04eb5b0d3c460751c2402c5c5cc9109c346040516100be9190610e4e565b60405180910390a2005b5f80fd5b3480156100d7575f80fd5b506100f260048036038101906100ed9190610ea2565b610253565b6040516100ff9190610f0c565b60405180910390f35b348015610113575f80fd5b5061012e60048036038101906101299190610f4f565b61028d565b60405161013b9190610f94565b60405180910390f35b34801561014f575f80fd5b5061016a60048036038101906101659190610fe0565b6102aa565b60405161017c96959493929190611132565b60405180910390f35b348015610190575f80fd5b506101ab60048036038101906101a69190610fe0565b6105ca565b6040516101bc95949392919061119f565b60405180910390f35b3480156101d0575f80fd5b506101eb60048036038101906101e69190610fe0565b6106ad565b005b3480156101f8575f80fd5b50610201610917565b60405161020e9190610e4e565b60405180910390f35b348015610222575f80fd5b5061023d60048036038101906102389190611323565b61091d565b60405161024a919061139e565b60405180910390f35b5f8181548110610261575f80fd5b905f5260205f20015f915054906101000a900473ffffffffffffffffffffffffffffffffffffffff1681565b6001602052805f5260405f205f915054906101000a900460ff1681565b5f8060605f8060605f60035f8981526020019081526020015f2090505f73ffffffffffffffffffffffffffffffffffffffff16815f015f9054906101000a900473ffffffffffffffffffffffffffffffffffffffff1673ffffffffffffffffffffffffffffffffffffffff1603610356576040517f08c379a000000000000000000000000000000000000000000000000000000000815260040161034d90611411565b60405180910390fd5b5f808054905067ffffffffffffffff811115610375576103746111ff565b5b6040519080825280602002602001820160405280156103a35781602001602082028036833780820191505090505b5090505f805b5f805490508110156104e457836005015f8083815481106103cd576103cc61142f565b5b905f5260205f20015f9054906101000a900473ffffffffffffffffffffffffffffffffffffffff1673ffffffffffffffffffffffffffffffffffffffff1673ffffffffffffffffffffffffffffffffffffffff1681526020019081526020015f205f9054906101000a900460ff16156104d7575f81815481106104535761045261142f565b5b905f5260205f20015f9054906101000a900473ffffffffffffffffffffffffffffffffffffffff1683838151811061048e5761048d61142f565b5b602002602001019073ffffffffffffffffffffffffffffffffffffffff16908173ffffffffffffffffffffffffffffffffffffffff168152505081806104d390611489565b9250505b80806001019150506103a9565b50825f015f9054906101000a900473ffffffffffffffffffffffffffffffffffffffff16836001015484600201856003015f9054906101000a900460ff16866004015486838054610534906114fd565b80601f0160208091040260200160405190810160405280929190818152602001828054610560906114fd565b80156105ab5780601f10610582576101008083540402835291602001916105ab565b820191905f5260205f20905b81548152906001019060200180831161058e57829003601f168201915b5050505050935098509850985098509850985050505091939550919395565b6003602052805f5260405f205f91509050805f015f9054906101000a900473ffffffffffffffffffffffffffffffffffffffff1690806001015490806002018054610614906114fd565b80601f0160208091040260200160405190810160405280929190818152602001828054610640906114fd565b801561068b5780601f106106625761010080835404028352916020019161068b565b820191905f5260205f20905b81548152906001019060200180831161066e57829003601f168201915b505050505090806003015f9054906101000a900460ff16908060040154905085565b60015f3373ffffffffffffffffffffffffffffffffffffffff1673ffffffffffffffffffffffffffffffffffffffff1681526020019081526020015f205f9054906101000a900460ff16610736576040517f08c379a000000000000000000000000000000000000000000000000000000000815260040161072d9061159d565b60405180910390fd5b805f73ffffffffffffffffffffffffffffffffffffffff1660035f8381526020019081526020015f205f015f9054906101000a900473ffffffffffffffffffffffffffffffffffffffff1673ffffffffffffffffffffffffffffffffffffffff16036107d7576040517f08c379a00000000000000000000000000000000000000000000000000000000081526004016107ce90611411565b60405180910390fd5b8160035f8281526020019081526020015f206005015f3373ffffffffffffffffffffffffffffffffffffffff1673ffffffffffffffffffffffffffffffffffffffff1681526020019081526020015f205f9054906101000a900460ff1615610874576040517f08c379a000000000000000000000000000000000000000000000000000000000815260040161086b90611605565b60405180910390fd5b5f60035f8581526020019081526020015f2090506001816005015f3373ffffffffffffffffffffffffffffffffffffffff1673ffffffffffffffffffffffffffffffffffffffff1681526020019081526020015f205f6101000a81548160ff0219169083151502179055506001816004015f8282546108f39190611623565b925050819055506002548160040154106109115761091084610b67565b5b50505050565b60025481565b5f60015f3373ffffffffffffffffffffffffffffffffffffffff1673ffffffffffffffffffffffffffffffffffffffff1681526020019081526020015f205f9054906101000a900460ff166109a7576040517f08c379a000000000000000000000000000000000000000000000000000000000815260040161099e9061159d565b60405180910390fd5b838383426040516020016109be94939291906116f5565b6040516020818303038152906040528051906020012090505f60035f8381526020019081526020015f2090505f73ffffffffffffffffffffffffffffffffffffffff16815f015f9054906101000a900473ffffffffffffffffffffffffffffffffffffffff1673ffffffffffffffffffffffffffffffffffffffff1614610a7a576040517f08c379a0000000000000000000000000000000000000000000000000000000008152600401610a7190611788565b60405180910390fd5b84815f015f6101000a81548173ffffffffffffffffffffffffffffffffffffffff021916908373ffffffffffffffffffffffffffffffffffffffff16021790555083816001018190555082816002019081610ad59190611943565b505f816003015f6101000a81548160ff0219169083151502179055505f81600401819055508473ffffffffffffffffffffffffffffffffffffffff163373ffffffffffffffffffffffffffffffffffffffff167f8c5be1e5ebec7d5bd14f71427d1e84f3dd0314c0f7b2291e5b200ac8c7c3b92586604051610b579190610e4e565b60405180910390a3509392505050565b805f73ffffffffffffffffffffffffffffffffffffffff1660035f8381526020019081526020015f205f015f9054906101000a900473ffffffffffffffffffffffffffffffffffffffff1673ffffffffffffffffffffffffffffffffffffffff1603610c08576040517f08c379a0000000000000000000000000000000000000000000000000000000008152600401610bff90611411565b60405180910390fd5b8160035f8281526020019081526020015f206003015f9054906101000a900460ff1615610c6a576040517f08c379a0000000000000000000000000000000000000000000000000000000008152600401610c6190611a5c565b60405180910390fd5b5f60035f8581526020019081526020015f20905060025481600401541015610cc7576040517f08c379a0000000000000000000000000000000000000000000000000000000008152600401610cbe90611ac4565b60405180910390fd5b6001816003015f6101000a81548160ff0219169083151502179055505f815f015f9054906101000a900473ffffffffffffffffffffffffffffffffffffffff1673ffffffffffffffffffffffffffffffffffffffff16826001015483600201604051610d339190611b62565b5f6040518083038185875af1925050503d805f8114610d6d576040519150601f19603f3d011682016040523d82523d5f602084013e610d72565b606091505b5050905080610db6576040517f08c379a0000000000000000000000000000000000000000000000000000000008152600401610dad90611bc2565b60405180910390fd5b815f015f9054906101000a900473ffffffffffffffffffffffffffffffffffffffff1673ffffffffffffffffffffffffffffffffffffffff167f47d99ad340f52da66535aff7e10da1ceb85a32bcbd9fa1c42314d194545e14d2836001015484600201604051610e27929190611c61565b60405180910390a25050505050565b5f819050919050565b610e4881610e36565b82525050565b5f602082019050610e615f830184610e3f565b92915050565b5f604051905090565b5f80fd5b5f80fd5b610e8181610e36565b8114610e8b575f80fd5b50565b5f81359050610e9c81610e78565b92915050565b5f60208284031215610eb757610eb6610e70565b5b5f610ec484828501610e8e565b91505092915050565b5f73ffffffffffffffffffffffffffffffffffffffff82169050919050565b5f610ef682610ecd565b9050919050565b610f0681610eec565b82525050565b5f602082019050610f1f5f830184610efd565b92915050565b610f2e81610eec565b8114610f38575f80fd5b50565b5f81359050610f4981610f25565b92915050565b5f60208284031215610f6457610f63610e70565b5b5f610f7184828501610f3b565b91505092915050565b5f8115159050919050565b610f8e81610f7a565b82525050565b5f602082019050610fa75f830184610f85565b92915050565b5f819050919050565b610fbf81610fad565b8114610fc9575f80fd5b50565b5f81359050610fda81610fb6565b92915050565b5f60208284031215610ff557610ff4610e70565b5b5f61100284828501610fcc565b91505092915050565b5f81519050919050565b5f82825260208201905092915050565b8281835e5f83830152505050565b5f601f19601f8301169050919050565b5f61104d8261100b565b6110578185611015565b9350611067818560208601611025565b61107081611033565b840191505092915050565b5f81519050919050565b5f82825260208201905092915050565b5f819050602082019050919050565b6110ad81610eec565b82525050565b5f6110be83836110a4565b60208301905092915050565b5f602082019050919050565b5f6110e08261107b565b6110ea8185611085565b93506110f583611095565b805f5b8381101561112557815161110c88826110b3565b9750611117836110ca565b9250506001810190506110f8565b5085935050505092915050565b5f60c0820190506111455f830189610efd565b6111526020830188610e3f565b81810360408301526111648187611043565b90506111736060830186610f85565b6111806080830185610e3f565b81810360a083015261119281846110d6565b9050979650505050505050565b5f60a0820190506111b25f830188610efd565b6111bf6020830187610e3f565b81810360408301526111d18186611043565b90506111e06060830185610f85565b6111ed6080830184610e3f565b9695505050505050565b5f80fd5b5f80fd5b7f4e487b71000000000000000000000000000000000000000000000000000000005f52604160045260245ffd5b61123582611033565b810181811067ffffffffffffffff82111715611254576112536111ff565b5b80604052505050565b5f611266610e67565b9050611272828261122c565b919050565b5f67ffffffffffffffff821115611291576112906111ff565b5b61129a82611033565b9050602081019050919050565b828183375f83830152505050565b5f6112c76112c284611277565b61125d565b9050828152602081018484840111156112e3576112e26111fb565b5b6112ee8482856112a7565b509392505050565b5f82601f83011261130a576113096111f7565b5b813561131a8482602086016112b5565b91505092915050565b5f805f6060848603121561133a57611339610e70565b5b5f61134786828701610f3b565b935050602061135886828701610e8e565b925050604084013567ffffffffffffffff81111561137957611378610e74565b5b611385868287016112f6565b9150509250925092565b61139881610fad565b82525050565b5f6020820190506113b15f83018461138f565b92915050565b5f82825260208201905092915050565b7f5472616e73616374696f6e20646f6573206e6f742065786973740000000000005f82015250565b5f6113fb601a836113b7565b9150611406826113c7565b602082019050919050565b5f6020820190508181035f830152611428816113ef565b9050919050565b7f4e487b71000000000000000000000000000000000000000000000000000000005f52603260045260245ffd5b7f4e487b71000000000000000000000000000000000000000000000000000000005f52601160045260245ffd5b5f61149382610e36565b91507fffffffffffffffffffffffffffffffffffffffffffffffffffffffffffffffff82036114c5576114c461145c565b5b600182019050919050565b7f4e487b71000000000000000000000000000000000000000000000000000000005f52602260045260245ffd5b5f600282049050600182168061151457607f821691505b602082108103611527576115266114d0565b5b50919050565b7f4e6f7420617574686f72697a65643a2043616c6c6572206973206e6f7420616e5f8201527f206f776e65720000000000000000000000000000000000000000000000000000602082015250565b5f6115876026836113b7565b91506115928261152d565b604082019050919050565b5f6020820190508181035f8301526115b48161157b565b9050919050565b7f5472616e73616374696f6e20616c726561647920636f6e6669726d65640000005f82015250565b5f6115ef601d836113b7565b91506115fa826115bb565b602082019050919050565b5f6020820190508181035f83015261161c816115e3565b9050919050565b5f61162d82610e36565b915061163883610e36565b92508282019050808211156116505761164f61145c565b5b92915050565b5f8160601b9050919050565b5f61166c82611656565b9050919050565b5f61167d82611662565b9050919050565b61169561169082610eec565b611673565b82525050565b5f819050919050565b6116b56116b082610e36565b61169b565b82525050565b5f81905092915050565b5f6116cf8261100b565b6116d981856116bb565b93506116e9818560208601611025565b80840191505092915050565b5f6117008287611684565b60148201915061171082866116a4565b60208201915061172082856116c5565b915061172c82846116a4565b60208201915081905095945050505050565b7f5472616e73616374696f6e20616c7265616479206578697374730000000000005f82015250565b5f611772601a836113b7565b915061177d8261173e565b602082019050919050565b5f6020820190508181035f83015261179f81611766565b9050919050565b5f819050815f5260205f209050919050565b5f6020601f8301049050919050565b5f82821b905092915050565b5f600883026118027fffffffffffffffffffffffffffffffffffffffffffffffffffffffffffffffff826117c7565b61180c86836117c7565b95508019841693508086168417925050509392505050565b5f819050919050565b5f61184761184261183d84610e36565b611824565b610e36565b9050919050565b5f819050919050565b6118608361182d565b61187461186c8261184e565b8484546117d3565b825550505050565b5f90565b61188861187c565b611893818484611857565b505050565b5b818110156118b6576118ab5f82611880565b600181019050611899565b5050565b601f8211156118fb576118cc816117a6565b6118d5846117b8565b810160208510156118e4578190505b6118f86118f0856117b8565b830182611898565b50505b505050565b5f82821c905092915050565b5f61191b5f1984600802611900565b1980831691505092915050565b5f611933838361190c565b9150826002028217905092915050565b61194c8261100b565b67ffffffffffffffff811115611965576119646111ff565b5b61196f82546114fd565b61197a8282856118ba565b5f60209050601f8311600181146119ab575f8415611999578287015190505b6119a38582611928565b865550611a0a565b601f1984166119b9866117a6565b5f5b828110156119e0578489015182556001820191506020850194506020810190506119bb565b868310156119fd57848901516119f9601f89168261190c565b8355505b6001600288020188555050505b505050505050565b7f5472616e73616374696f6e20616c7265616479206578656375746564000000005f82015250565b5f611a46601c836113b7565b9150611a5182611a12565b602082019050919050565b5f6020820190508181035f830152611a7381611a3a565b9050919050565b7f496e73756666696369656e7420636f6e6669726d6174696f6e730000000000005f82015250565b5f611aae601a836113b7565b9150611ab982611a7a565b602082019050919050565b5f6020820190508181035f830152611adb81611aa2565b9050919050565b5f8154611aee816114fd565b611af881866116bb565b9450600182165f8114611b125760018114611b2757611b59565b60ff1983168652811515820286019350611b59565b611b30856117a6565b5f5b83811015611b5157815481890152600182019150602081019050611b32565b838801955050505b50505092915050565b5f611b6d8284611ae2565b915081905092915050565b7f5472616e73616374696f6e206661696c656400000000000000000000000000005f82015250565b5f611bac6012836113b7565b9150611bb782611b78565b602082019050919050565b5f6020820190508181035f830152611bd981611ba0565b9050919050565b5f8154611bec816114fd565b611bf68186611015565b9450600182165f8114611c105760018114611c2657611c58565b60ff198316865281151560200286019350611c58565b611c2f856117a6565b5f5b83811015611c5057815481890152600182019150602081019050611c31565b808801955050505b50505092915050565b5f604082019050611c745f830185610e3f565b8181036020830152611c868184611be0565b9050939250505056fea2646970667358221220c4dc08ee850956191e711f4859c859b6e5d16dec2bd93c380141091134e9ed8864736f6c634300081a0033",
					"opcodes": "PUSH1 0x80 PUSH1 0x40 MSTORE CALLVALUE DUP1 ISZERO PUSH2 0xF JUMPI PUSH0 DUP1 REVERT JUMPDEST POP PUSH1 0x40 MLOAD PUSH2 0x241D CODESIZE SUB DUP1 PUSH2 0x241D DUP4 CODECOPY DUP2 DUP2 ADD PUSH1 0x40 MSTORE DUP2 ADD SWAP1 PUSH2 0x31 SWAP2 SWAP1 PUSH2 0x4A2 JUMP JUMPDEST PUSH0 DUP3 MLOAD GT PUSH2 0x74 JUMPI PUSH1 0x40 MLOAD PUSH32 0x8C379A000000000000000000000000000000000000000000000000000000000 DUP2 MSTORE PUSH1 0x4 ADD PUSH2 0x6B SWAP1 PUSH2 0x556 JUMP JUMPDEST PUSH1 0x40 MLOAD DUP1 SWAP2 SUB SWAP1 REVERT JUMPDEST PUSH0 DUP2 GT DUP1 ISZERO PUSH2 0x84 JUMPI POP DUP2 MLOAD DUP2 GT ISZERO JUMPDEST PUSH2 0xC3 JUMPI PUSH1 0x40 MLOAD PUSH32 0x8C379A000000000000000000000000000000000000000000000000000000000 DUP2 MSTORE PUSH1 0x4 ADD PUSH2 0xBA SWAP1 PUSH2 0x5E4 JUMP JUMPDEST PUSH1 0x40 MLOAD DUP1 SWAP2 SUB SWAP1 REVERT JUMPDEST PUSH0 JUMPDEST DUP3 MLOAD DUP2 LT ISZERO PUSH2 0x2A5 JUMPI PUSH0 DUP4 DUP3 DUP2 MLOAD DUP2 LT PUSH2 0xE2 JUMPI PUSH2 0xE1 PUSH2 0x602 JUMP JUMPDEST JUMPDEST PUSH1 0x20 MUL PUSH1 0x20 ADD ADD MLOAD SWAP1 POP PUSH0 PUSH20 0xFFFFFFFFFFFFFFFFFFFFFFFFFFFFFFFFFFFFFFFF AND DUP2 PUSH20 0xFFFFFFFFFFFFFFFFFFFFFFFFFFFFFFFFFFFFFFFF AND SUB PUSH2 0x15A JUMPI PUSH1 0x40 MLOAD PUSH32 0x8C379A000000000000000000000000000000000000000000000000000000000 DUP2 MSTORE PUSH1 0x4 ADD PUSH2 0x151 SWAP1 PUSH2 0x69F JUMP JUMPDEST PUSH1 0x40 MLOAD DUP1 SWAP2 SUB SWAP1 REVERT JUMPDEST PUSH1 0x1 PUSH0 DUP3 PUSH20 0xFFFFFFFFFFFFFFFFFFFFFFFFFFFFFFFFFFFFFFFF AND PUSH20 0xFFFFFFFFFFFFFFFFFFFFFFFFFFFFFFFFFFFFFFFF AND DUP2 MSTORE PUSH1 0x20 ADD SWAP1 DUP2 MSTORE PUSH1 0x20 ADD PUSH0 KECCAK256 PUSH0 SWAP1 SLOAD SWAP1 PUSH2 0x100 EXP SWAP1 DIV PUSH1 0xFF AND ISZERO PUSH2 0x1E4 JUMPI PUSH1 0x40 MLOAD PUSH32 0x8C379A000000000000000000000000000000000000000000000000000000000 DUP2 MSTORE PUSH1 0x4 ADD PUSH2 0x1DB SWAP1 PUSH2 0x72D JUMP JUMPDEST PUSH1 0x40 MLOAD DUP1 SWAP2 SUB SWAP1 REVERT JUMPDEST PUSH1 0x1 DUP1 PUSH0 DUP4 PUSH20 0xFFFFFFFFFFFFFFFFFFFFFFFFFFFFFFFFFFFFFFFF AND PUSH20 0xFFFFFFFFFFFFFFFFFFFFFFFFFFFFFFFFFFFFFFFF AND DUP2 MSTORE PUSH1 0x20 ADD SWAP1 DUP2 MSTORE PUSH1 0x20 ADD PUSH0 KECCAK256 PUSH0 PUSH2 0x100 EXP DUP2 SLOAD DUP2 PUSH1 0xFF MUL NOT AND SWAP1 DUP4 ISZERO ISZERO MUL OR SWAP1 SSTORE POP PUSH0 DUP2 SWAP1 DUP1 PUSH1 0x1 DUP2 SLOAD ADD DUP1 DUP3 SSTORE DUP1 SWAP2 POP POP PUSH1 0x1 SWAP1 SUB SWAP1 PUSH0 MSTORE PUSH1 0x20 PUSH0 KECCAK256 ADD PUSH0 SWAP1 SWAP2 SWAP1 SWAP2 SWAP1 SWAP2 PUSH2 0x100 EXP DUP2 SLOAD DUP2 PUSH20 0xFFFFFFFFFFFFFFFFFFFFFFFFFFFFFFFFFFFFFFFF MUL NOT AND SWAP1 DUP4 PUSH20 0xFFFFFFFFFFFFFFFFFFFFFFFFFFFFFFFFFFFFFFFF AND MUL OR SWAP1 SSTORE POP POP DUP1 DUP1 PUSH1 0x1 ADD SWAP2 POP POP PUSH2 0xC5 JUMP JUMPDEST POP DUP1 PUSH1 0x2 DUP2 SWAP1 SSTORE POP POP POP PUSH2 0x74B JUMP JUMPDEST PUSH0 PUSH1 0x40 MLOAD SWAP1 POP SWAP1 JUMP JUMPDEST PUSH0 DUP1 REVERT JUMPDEST PUSH0 DUP1 REVERT JUMPDEST PUSH0 DUP1 REVERT JUMPDEST PUSH0 PUSH1 0x1F NOT PUSH1 0x1F DUP4 ADD AND SWAP1 POP SWAP2 SWAP1 POP JUMP JUMPDEST PUSH32 0x4E487B7100000000000000000000000000000000000000000000000000000000 PUSH0 MSTORE PUSH1 0x41 PUSH1 0x4 MSTORE PUSH1 0x24 PUSH0 REVERT JUMPDEST PUSH2 0x30F DUP3 PUSH2 0x2C9 JUMP JUMPDEST DUP2 ADD DUP2 DUP2 LT PUSH8 0xFFFFFFFFFFFFFFFF DUP3 GT OR ISZERO PUSH2 0x32E JUMPI PUSH2 0x32D PUSH2 0x2D9 JUMP JUMPDEST JUMPDEST DUP1 PUSH1 0x40 MSTORE POP POP POP JUMP JUMPDEST PUSH0 PUSH2 0x340 PUSH2 0x2B4 JUMP JUMPDEST SWAP1 POP PUSH2 0x34C DUP3 DUP3 PUSH2 0x306 JUMP JUMPDEST SWAP2 SWAP1 POP JUMP JUMPDEST PUSH0 PUSH8 0xFFFFFFFFFFFFFFFF DUP3 GT ISZERO PUSH2 0x36B JUMPI PUSH2 0x36A PUSH2 0x2D9 JUMP JUMPDEST JUMPDEST PUSH1 0x20 DUP3 MUL SWAP1 POP PUSH1 0x20 DUP2 ADD SWAP1 POP SWAP2 SWAP1 POP JUMP JUMPDEST PUSH0 DUP1 REVERT JUMPDEST PUSH0 PUSH20 0xFFFFFFFFFFFFFFFFFFFFFFFFFFFFFFFFFFFFFFFF DUP3 AND SWAP1 POP SWAP2 SWAP1 POP JUMP JUMPDEST PUSH0 PUSH2 0x3A9 DUP3 PUSH2 0x380 JUMP JUMPDEST SWAP1 POP SWAP2 SWAP1 POP JUMP JUMPDEST PUSH2 0x3B9 DUP2 PUSH2 0x39F JUMP JUMPDEST DUP2 EQ PUSH2 0x3C3 JUMPI PUSH0 DUP1 REVERT JUMPDEST POP JUMP JUMPDEST PUSH0 DUP2 MLOAD SWAP1 POP PUSH2 0x3D4 DUP2 PUSH2 0x3B0 JUMP JUMPDEST SWAP3 SWAP2 POP POP JUMP JUMPDEST PUSH0 PUSH2 0x3EC PUSH2 0x3E7 DUP5 PUSH2 0x351 JUMP JUMPDEST PUSH2 0x337 JUMP JUMPDEST SWAP1 POP DUP1 DUP4 DUP3 MSTORE PUSH1 0x20 DUP3 ADD SWAP1 POP PUSH1 0x20 DUP5 MUL DUP4 ADD DUP6 DUP2 GT ISZERO PUSH2 0x40F JUMPI PUSH2 0x40E PUSH2 0x37C JUMP JUMPDEST JUMPDEST DUP4 JUMPDEST DUP2 DUP2 LT ISZERO PUSH2 0x438 JUMPI DUP1 PUSH2 0x424 DUP9 DUP3 PUSH2 0x3C6 JUMP JUMPDEST DUP5 MSTORE PUSH1 0x20 DUP5 ADD SWAP4 POP POP PUSH1 0x20 DUP2 ADD SWAP1 POP PUSH2 0x411 JUMP JUMPDEST POP POP POP SWAP4 SWAP3 POP POP POP JUMP JUMPDEST PUSH0 DUP3 PUSH1 0x1F DUP4 ADD SLT PUSH2 0x456 JUMPI PUSH2 0x455 PUSH2 0x2C5 JUMP JUMPDEST JUMPDEST DUP2 MLOAD PUSH2 0x466 DUP5 DUP3 PUSH1 0x20 DUP7 ADD PUSH2 0x3DA JUMP JUMPDEST SWAP2 POP POP SWAP3 SWAP2 POP POP JUMP JUMPDEST PUSH0 DUP2 SWAP1 POP SWAP2 SWAP1 POP JUMP JUMPDEST PUSH2 0x481 DUP2 PUSH2 0x46F JUMP JUMPDEST DUP2 EQ PUSH2 0x48B JUMPI PUSH0 DUP1 REVERT JUMPDEST POP JUMP JUMPDEST PUSH0 DUP2 MLOAD SWAP1 POP PUSH2 0x49C DUP2 PUSH2 0x478 JUMP JUMPDEST SWAP3 SWAP2 POP POP JUMP JUMPDEST PUSH0 DUP1 PUSH1 0x40 DUP4 DUP6 SUB SLT ISZERO PUSH2 0x4B8 JUMPI PUSH2 0x4B7 PUSH2 0x2BD JUMP JUMPDEST JUMPDEST PUSH0 DUP4 ADD MLOAD PUSH8 0xFFFFFFFFFFFFFFFF DUP2 GT ISZERO PUSH2 0x4D5 JUMPI PUSH2 0x4D4 PUSH2 0x2C1 JUMP JUMPDEST JUMPDEST PUSH2 0x4E1 DUP6 DUP3 DUP7 ADD PUSH2 0x442 JUMP JUMPDEST SWAP3 POP POP PUSH1 0x20 PUSH2 0x4F2 DUP6 DUP3 DUP7 ADD PUSH2 0x48E JUMP JUMPDEST SWAP2 POP POP SWAP3 POP SWAP3 SWAP1 POP JUMP JUMPDEST PUSH0 DUP3 DUP3 MSTORE PUSH1 0x20 DUP3 ADD SWAP1 POP SWAP3 SWAP2 POP POP JUMP JUMPDEST PUSH32 0x4E6F206F776E6572732070726F76696465640000000000000000000000000000 PUSH0 DUP3 ADD MSTORE POP JUMP JUMPDEST PUSH0 PUSH2 0x540 PUSH1 0x12 DUP4 PUSH2 0x4FC JUMP JUMPDEST SWAP2 POP PUSH2 0x54B DUP3 PUSH2 0x50C JUMP JUMPDEST PUSH1 0x20 DUP3 ADD SWAP1 POP SWAP2 SWAP1 POP JUMP JUMPDEST PUSH0 PUSH1 0x20 DUP3 ADD SWAP1 POP DUP2 DUP2 SUB PUSH0 DUP4 ADD MSTORE PUSH2 0x56D DUP2 PUSH2 0x534 JUMP JUMPDEST SWAP1 POP SWAP2 SWAP1 POP JUMP JUMPDEST PUSH32 0x496E76616C6964206E756D626572206F6620726571756972656420636F6E6669 PUSH0 DUP3 ADD MSTORE PUSH32 0x726D6174696F6E73000000000000000000000000000000000000000000000000 PUSH1 0x20 DUP3 ADD MSTORE POP JUMP JUMPDEST PUSH0 PUSH2 0x5CE PUSH1 0x28 DUP4 PUSH2 0x4FC JUMP JUMPDEST SWAP2 POP PUSH2 0x5D9 DUP3 PUSH2 0x574 JUMP JUMPDEST PUSH1 0x40 DUP3 ADD SWAP1 POP SWAP2 SWAP1 POP JUMP JUMPDEST PUSH0 PUSH1 0x20 DUP3 ADD SWAP1 POP DUP2 DUP2 SUB PUSH0 DUP4 ADD MSTORE PUSH2 0x5FB DUP2 PUSH2 0x5C2 JUMP JUMPDEST SWAP1 POP SWAP2 SWAP1 POP JUMP JUMPDEST PUSH32 0x4E487B7100000000000000000000000000000000000000000000000000000000 PUSH0 MSTORE PUSH1 0x32 PUSH1 0x4 MSTORE PUSH1 0x24 PUSH0 REVERT JUMPDEST PUSH32 0x496E76616C696420616464726573733A204F776E65722063616E6E6F74206265 PUSH0 DUP3 ADD MSTORE PUSH32 0x207A65726F206164647265737300000000000000000000000000000000000000 PUSH1 0x20 DUP3 ADD MSTORE POP JUMP JUMPDEST PUSH0 PUSH2 0x689 PUSH1 0x2D DUP4 PUSH2 0x4FC JUMP JUMPDEST SWAP2 POP PUSH2 0x694 DUP3 PUSH2 0x62F JUMP JUMPDEST PUSH1 0x40 DUP3 ADD SWAP1 POP SWAP2 SWAP1 POP JUMP JUMPDEST PUSH0 PUSH1 0x20 DUP3 ADD SWAP1 POP DUP2 DUP2 SUB PUSH0 DUP4 ADD MSTORE PUSH2 0x6B6 DUP2 PUSH2 0x67D JUMP JUMPDEST SWAP1 POP SWAP2 SWAP1 POP JUMP JUMPDEST PUSH32 0x4475706C6963617465206F776E65723A204164647265737320616C7265616479 PUSH0 DUP3 ADD MSTORE PUSH32 0x20616E206F776E65720000000000000000000000000000000000000000000000 PUSH1 0x20 DUP3 ADD MSTORE POP JUMP JUMPDEST PUSH0 PUSH2 0x717 PUSH1 0x29 DUP4 PUSH2 0x4FC JUMP JUMPDEST SWAP2 POP PUSH2 0x722 DUP3 PUSH2 0x6BD JUMP JUMPDEST PUSH1 0x40 DUP3 ADD SWAP1 POP SWAP2 SWAP1 POP JUMP JUMPDEST PUSH0 PUSH1 0x20 DUP3 ADD SWAP1 POP DUP2 DUP2 SUB PUSH0 DUP4 ADD MSTORE PUSH2 0x744 DUP2 PUSH2 0x70B JUMP JUMPDEST SWAP1 POP SWAP2 SWAP1 POP JUMP JUMPDEST PUSH2 0x1CC5 DUP1 PUSH2 0x758 PUSH0 CODECOPY PUSH0 RETURN INVALID PUSH1 0x80 PUSH1 0x40 MSTORE PUSH1 0x4 CALLDATASIZE LT PUSH2 0x73 JUMPI PUSH0 CALLDATALOAD PUSH1 0xE0 SHR DUP1 PUSH4 0x642F2EAF GT PUSH2 0x4D JUMPI DUP1 PUSH4 0x642F2EAF EQ PUSH2 0x185 JUMPI DUP1 PUSH4 0x79716E43 EQ PUSH2 0x1C5 JUMPI DUP1 PUSH4 0x82E717F7 EQ PUSH2 0x1ED JUMPI DUP1 PUSH4 0xA9496E75 EQ PUSH2 0x217 JUMPI PUSH2 0xC8 JUMP JUMPDEST DUP1 PUSH4 0x25E7C27 EQ PUSH2 0xCC JUMPI DUP1 PUSH4 0x2F54BF6E EQ PUSH2 0x108 JUMPI DUP1 PUSH4 0x515A39B6 EQ PUSH2 0x144 JUMPI PUSH2 0xC8 JUMP JUMPDEST CALLDATASIZE PUSH2 0xC8 JUMPI CALLER PUSH20 0xFFFFFFFFFFFFFFFFFFFFFFFFFFFFFFFFFFFFFFFF AND PUSH32 0xE1FFFCC4923D04B559F4D29A8BFC6CDA04EB5B0D3C460751C2402C5C5CC9109C CALLVALUE PUSH1 0x40 MLOAD PUSH2 0xBE SWAP2 SWAP1 PUSH2 0xE4E JUMP JUMPDEST PUSH1 0x40 MLOAD DUP1 SWAP2 SUB SWAP1 LOG2 STOP JUMPDEST PUSH0 DUP1 REVERT JUMPDEST CALLVALUE DUP1 ISZERO PUSH2 0xD7 JUMPI PUSH0 DUP1 REVERT JUMPDEST POP PUSH2 0xF2 PUSH1 0x4 DUP1 CALLDATASIZE SUB DUP2 ADD SWAP1 PUSH2 0xED SWAP2 SWAP1 PUSH2 0xEA2 JUMP JUMPDEST PUSH2 0x253 JUMP JUMPDEST PUSH1 0x40 MLOAD PUSH2 0xFF SWAP2 SWAP1 PUSH2 0xF0C JUMP JUMPDEST PUSH1 0x40 MLOAD DUP1 SWAP2 SUB SWAP1 RETURN JUMPDEST CALLVALUE DUP1 ISZERO PUSH2 0x113 JUMPI PUSH0 DUP1 REVERT JUMPDEST POP PUSH2 0x12E PUSH1 0x4 DUP1 CALLDATASIZE SUB DUP2 ADD SWAP1 PUSH2 0x129 SWAP2 SWAP1 PUSH2 0xF4F JUMP JUMPDEST PUSH2 0x28D JUMP JUMPDEST PUSH1 0x40 MLOAD PUSH2 0x13B SWAP2 SWAP1 PUSH2 0xF94 JUMP JUMPDEST PUSH1 0x40 MLOAD DUP1 SWAP2 SUB SWAP1 RETURN JUMPDEST CALLVALUE DUP1 ISZERO PUSH2 0x14F JUMPI PUSH0 DUP1 REVERT JUMPDEST POP PUSH2 0x16A PUSH1 0x4 DUP1 CALLDATASIZE SUB DUP2 ADD SWAP1 PUSH2 0x165 SWAP2 SWAP1 PUSH2 0xFE0 JUMP JUMPDEST PUSH2 0x2AA JUMP JUMPDEST PUSH1 0x40 MLOAD PUSH2 0x17C SWAP7 SWAP6 SWAP5 SWAP4 SWAP3 SWAP2 SWAP1 PUSH2 0x1132 JUMP JUMPDEST PUSH1 0x40 MLOAD DUP1 SWAP2 SUB SWAP1 RETURN JUMPDEST CALLVALUE DUP1 ISZERO PUSH2 0x190 JUMPI PUSH0 DUP1 REVERT JUMPDEST POP PUSH2 0x1AB PUSH1 0x4 DUP1 CALLDATASIZE SUB DUP2 ADD SWAP1 PUSH2 0x1A6 SWAP2 SWAP1 PUSH2 0xFE0 JUMP JUMPDEST PUSH2 0x5CA JUMP JUMPDEST PUSH1 0x40 MLOAD PUSH2 0x1BC SWAP6 SWAP5 SWAP4 SWAP3 SWAP2 SWAP1 PUSH2 0x119F JUMP JUMPDEST PUSH1 0x40 MLOAD DUP1 SWAP2 SUB SWAP1 RETURN JUMPDEST CALLVALUE DUP1 ISZERO PUSH2 0x1D0 JUMPI PUSH0 DUP1 REVERT JUMPDEST POP PUSH2 0x1EB PUSH1 0x4 DUP1 CALLDATASIZE SUB DUP2 ADD SWAP1 PUSH2 0x1E6 SWAP2 SWAP1 PUSH2 0xFE0 JUMP JUMPDEST PUSH2 0x6AD JUMP JUMPDEST STOP JUMPDEST CALLVALUE DUP1 ISZERO PUSH2 0x1F8 JUMPI PUSH0 DUP1 REVERT JUMPDEST POP PUSH2 0x201 PUSH2 0x917 JUMP JUMPDEST PUSH1 0x40 MLOAD PUSH2 0x20E SWAP2 SWAP1 PUSH2 0xE4E JUMP JUMPDEST PUSH1 0x40 MLOAD DUP1 SWAP2 SUB SWAP1 RETURN JUMPDEST CALLVALUE DUP1 ISZERO PUSH2 0x222 JUMPI PUSH0 DUP1 REVERT JUMPDEST POP PUSH2 0x23D PUSH1 0x4 DUP1 CALLDATASIZE SUB DUP2 ADD SWAP1 PUSH2 0x238 SWAP2 SWAP1 PUSH2 0x1323 JUMP JUMPDEST PUSH2 0x91D JUMP JUMPDEST PUSH1 0x40 MLOAD PUSH2 0x24A SWAP2 SWAP1 PUSH2 0x139E JUMP JUMPDEST PUSH1 0x40 MLOAD DUP1 SWAP2 SUB SWAP1 RETURN JUMPDEST PUSH0 DUP2 DUP2 SLOAD DUP2 LT PUSH2 0x261 JUMPI PUSH0 DUP1 REVERT JUMPDEST SWAP1 PUSH0 MSTORE PUSH1 0x20 PUSH0 KECCAK256 ADD PUSH0 SWAP2 POP SLOAD SWAP1 PUSH2 0x100 EXP SWAP1 DIV PUSH20 0xFFFFFFFFFFFFFFFFFFFFFFFFFFFFFFFFFFFFFFFF AND DUP2 JUMP JUMPDEST PUSH1 0x1 PUSH1 0x20 MSTORE DUP1 PUSH0 MSTORE PUSH1 0x40 PUSH0 KECCAK256 PUSH0 SWAP2 POP SLOAD SWAP1 PUSH2 0x100 EXP SWAP1 DIV PUSH1 0xFF AND DUP2 JUMP JUMPDEST PUSH0 DUP1 PUSH1 0x60 PUSH0 DUP1 PUSH1 0x60 PUSH0 PUSH1 0x3 PUSH0 DUP10 DUP2 MSTORE PUSH1 0x20 ADD SWAP1 DUP2 MSTORE PUSH1 0x20 ADD PUSH0 KECCAK256 SWAP1 POP PUSH0 PUSH20 0xFFFFFFFFFFFFFFFFFFFFFFFFFFFFFFFFFFFFFFFF AND DUP2 PUSH0 ADD PUSH0 SWAP1 SLOAD SWAP1 PUSH2 0x100 EXP SWAP1 DIV PUSH20 0xFFFFFFFFFFFFFFFFFFFFFFFFFFFFFFFFFFFFFFFF AND PUSH20 0xFFFFFFFFFFFFFFFFFFFFFFFFFFFFFFFFFFFFFFFF AND SUB PUSH2 0x356 JUMPI PUSH1 0x40 MLOAD PUSH32 0x8C379A000000000000000000000000000000000000000000000000000000000 DUP2 MSTORE PUSH1 0x4 ADD PUSH2 0x34D SWAP1 PUSH2 0x1411 JUMP JUMPDEST PUSH1 0x40 MLOAD DUP1 SWAP2 SUB SWAP1 REVERT JUMPDEST PUSH0 DUP1 DUP1 SLOAD SWAP1 POP PUSH8 0xFFFFFFFFFFFFFFFF DUP2 GT ISZERO PUSH2 0x375 JUMPI PUSH2 0x374 PUSH2 0x11FF JUMP JUMPDEST JUMPDEST PUSH1 0x40 MLOAD SWAP1 DUP1 DUP3 MSTORE DUP1 PUSH1 0x20 MUL PUSH1 0x20 ADD DUP3 ADD PUSH1 0x40 MSTORE DUP1 ISZERO PUSH2 0x3A3 JUMPI DUP2 PUSH1 0x20 ADD PUSH1 0x20 DUP3 MUL DUP1 CALLDATASIZE DUP4 CALLDATACOPY DUP1 DUP3 ADD SWAP2 POP POP SWAP1 POP JUMPDEST POP SWAP1 POP PUSH0 DUP1 JUMPDEST PUSH0 DUP1 SLOAD SWAP1 POP DUP2 LT ISZERO PUSH2 0x4E4 JUMPI DUP4 PUSH1 0x5 ADD PUSH0 DUP1 DUP4 DUP2 SLOAD DUP2 LT PUSH2 0x3CD JUMPI PUSH2 0x3CC PUSH2 0x142F JUMP JUMPDEST JUMPDEST SWAP1 PUSH0 MSTORE PUSH1 0x20 PUSH0 KECCAK256 ADD PUSH0 SWAP1 SLOAD SWAP1 PUSH2 0x100 EXP SWAP1 DIV PUSH20 0xFFFFFFFFFFFFFFFFFFFFFFFFFFFFFFFFFFFFFFFF AND PUSH20 0xFFFFFFFFFFFFFFFFFFFFFFFFFFFFFFFFFFFFFFFF AND PUSH20 0xFFFFFFFFFFFFFFFFFFFFFFFFFFFFFFFFFFFFFFFF AND DUP2 MSTORE PUSH1 0x20 ADD SWAP1 DUP2 MSTORE PUSH1 0x20 ADD PUSH0 KECCAK256 PUSH0 SWAP1 SLOAD SWAP1 PUSH2 0x100 EXP SWAP1 DIV PUSH1 0xFF AND ISZERO PUSH2 0x4D7 JUMPI PUSH0 DUP2 DUP2 SLOAD DUP2 LT PUSH2 0x453 JUMPI PUSH2 0x452 PUSH2 0x142F JUMP JUMPDEST JUMPDEST SWAP1 PUSH0 MSTORE PUSH1 0x20 PUSH0 KECCAK256 ADD PUSH0 SWAP1 SLOAD SWAP1 PUSH2 0x100 EXP SWAP1 DIV PUSH20 0xFFFFFFFFFFFFFFFFFFFFFFFFFFFFFFFFFFFFFFFF AND DUP4 DUP4 DUP2 MLOAD DUP2 LT PUSH2 0x48E JUMPI PUSH2 0x48D PUSH2 0x142F JUMP JUMPDEST JUMPDEST PUSH1 0x20 MUL PUSH1 0x20 ADD ADD SWAP1 PUSH20 0xFFFFFFFFFFFFFFFFFFFFFFFFFFFFFFFFFFFFFFFF AND SWAP1 DUP2 PUSH20 0xFFFFFFFFFFFFFFFFFFFFFFFFFFFFFFFFFFFFFFFF AND DUP2 MSTORE POP POP DUP2 DUP1 PUSH2 0x4D3 SWAP1 PUSH2 0x1489 JUMP JUMPDEST SWAP3 POP POP JUMPDEST DUP1 DUP1 PUSH1 0x1 ADD SWAP2 POP POP PUSH2 0x3A9 JUMP JUMPDEST POP DUP3 PUSH0 ADD PUSH0 SWAP1 SLOAD SWAP1 PUSH2 0x100 EXP SWAP1 DIV PUSH20 0xFFFFFFFFFFFFFFFFFFFFFFFFFFFFFFFFFFFFFFFF AND DUP4 PUSH1 0x1 ADD SLOAD DUP5 PUSH1 0x2 ADD DUP6 PUSH1 0x3 ADD PUSH0 SWAP1 SLOAD SWAP1 PUSH2 0x100 EXP SWAP1 DIV PUSH1 0xFF AND DUP7 PUSH1 0x4 ADD SLOAD DUP7 DUP4 DUP1 SLOAD PUSH2 0x534 SWAP1 PUSH2 0x14FD JUMP JUMPDEST DUP1 PUSH1 0x1F ADD PUSH1 0x20 DUP1 SWAP2 DIV MUL PUSH1 0x20 ADD PUSH1 0x40 MLOAD SWAP1 DUP2 ADD PUSH1 0x40 MSTORE DUP1 SWAP3 SWAP2 SWAP1 DUP2 DUP2 MSTORE PUSH1 0x20 ADD DUP3 DUP1 SLOAD PUSH2 0x560 SWAP1 PUSH2 0x14FD JUMP JUMPDEST DUP1 ISZERO PUSH2 0x5AB JUMPI DUP1 PUSH1 0x1F LT PUSH2 0x582 JUMPI PUSH2 0x100 DUP1 DUP4 SLOAD DIV MUL DUP4 MSTORE SWAP2 PUSH1 0x20 ADD SWAP2 PUSH2 0x5AB JUMP JUMPDEST DUP3 ADD SWAP2 SWAP1 PUSH0 MSTORE PUSH1 0x20 PUSH0 KECCAK256 SWAP1 JUMPDEST DUP2 SLOAD DUP2 MSTORE SWAP1 PUSH1 0x1 ADD SWAP1 PUSH1 0x20 ADD DUP1 DUP4 GT PUSH2 0x58E JUMPI DUP3 SWAP1 SUB PUSH1 0x1F AND DUP3 ADD SWAP2 JUMPDEST POP POP POP POP POP SWAP4 POP SWAP9 POP SWAP9 POP SWAP9 POP SWAP9 POP SWAP9 POP SWAP9 POP POP POP POP SWAP2 SWAP4 SWAP6 POP SWAP2 SWAP4 SWAP6 JUMP JUMPDEST PUSH1 0x3 PUSH1 0x20 MSTORE DUP1 PUSH0 MSTORE PUSH1 0x40 PUSH0 KECCAK256 PUSH0 SWAP2 POP SWAP1 POP DUP1 PUSH0 ADD PUSH0 SWAP1 SLOAD SWAP1 PUSH2 0x100 EXP SWAP1 DIV PUSH20 0xFFFFFFFFFFFFFFFFFFFFFFFFFFFFFFFFFFFFFFFF AND SWAP1 DUP1 PUSH1 0x1 ADD SLOAD SWAP1 DUP1 PUSH1 0x2 ADD DUP1 SLOAD PUSH2 0x614 SWAP1 PUSH2 0x14FD JUMP JUMPDEST DUP1 PUSH1 0x1F ADD PUSH1 0x20 DUP1 SWAP2 DIV MUL PUSH1 0x20 ADD PUSH1 0x40 MLOAD SWAP1 DUP2 ADD PUSH1 0x40 MSTORE DUP1 SWAP3 SWAP2 SWAP1 DUP2 DUP2 MSTORE PUSH1 0x20 ADD DUP3 DUP1 SLOAD PUSH2 0x640 SWAP1 PUSH2 0x14FD JUMP JUMPDEST DUP1 ISZERO PUSH2 0x68B JUMPI DUP1 PUSH1 0x1F LT PUSH2 0x662 JUMPI PUSH2 0x100 DUP1 DUP4 SLOAD DIV MUL DUP4 MSTORE SWAP2 PUSH1 0x20 ADD SWAP2 PUSH2 0x68B JUMP JUMPDEST DUP3 ADD SWAP2 SWAP1 PUSH0 MSTORE PUSH1 0x20 PUSH0 KECCAK256 SWAP1 JUMPDEST DUP2 SLOAD DUP2 MSTORE SWAP1 PUSH1 0x1 ADD SWAP1 PUSH1 0x20 ADD DUP1 DUP4 GT PUSH2 0x66E JUMPI DUP3 SWAP1 SUB PUSH1 0x1F AND DUP3 ADD SWAP2 JUMPDEST POP POP POP POP POP SWAP1 DUP1 PUSH1 0x3 ADD PUSH0 SWAP1 SLOAD SWAP1 PUSH2 0x100 EXP SWAP1 DIV PUSH1 0xFF AND SWAP1 DUP1 PUSH1 0x4 ADD SLOAD SWAP1 POP DUP6 JUMP JUMPDEST PUSH1 0x1 PUSH0 CALLER PUSH20 0xFFFFFFFFFFFFFFFFFFFFFFFFFFFFFFFFFFFFFFFF AND PUSH20 0xFFFFFFFFFFFFFFFFFFFFFFFFFFFFFFFFFFFFFFFF AND DUP2 MSTORE PUSH1 0x20 ADD SWAP1 DUP2 MSTORE PUSH1 0x20 ADD PUSH0 KECCAK256 PUSH0 SWAP1 SLOAD SWAP1 PUSH2 0x100 EXP SWAP1 DIV PUSH1 0xFF AND PUSH2 0x736 JUMPI PUSH1 0x40 MLOAD PUSH32 0x8C379A000000000000000000000000000000000000000000000000000000000 DUP2 MSTORE PUSH1 0x4 ADD PUSH2 0x72D SWAP1 PUSH2 0x159D JUMP JUMPDEST PUSH1 0x40 MLOAD DUP1 SWAP2 SUB SWAP1 REVERT JUMPDEST DUP1 PUSH0 PUSH20 0xFFFFFFFFFFFFFFFFFFFFFFFFFFFFFFFFFFFFFFFF AND PUSH1 0x3 PUSH0 DUP4 DUP2 MSTORE PUSH1 0x20 ADD SWAP1 DUP2 MSTORE PUSH1 0x20 ADD PUSH0 KECCAK256 PUSH0 ADD PUSH0 SWAP1 SLOAD SWAP1 PUSH2 0x100 EXP SWAP1 DIV PUSH20 0xFFFFFFFFFFFFFFFFFFFFFFFFFFFFFFFFFFFFFFFF AND PUSH20 0xFFFFFFFFFFFFFFFFFFFFFFFFFFFFFFFFFFFFFFFF AND SUB PUSH2 0x7D7 JUMPI PUSH1 0x40 MLOAD PUSH32 0x8C379A000000000000000000000000000000000000000000000000000000000 DUP2 MSTORE PUSH1 0x4 ADD PUSH2 0x7CE SWAP1 PUSH2 0x1411 JUMP JUMPDEST PUSH1 0x40 MLOAD DUP1 SWAP2 SUB SWAP1 REVERT JUMPDEST DUP2 PUSH1 0x3 PUSH0 DUP3 DUP2 MSTORE PUSH1 0x20 ADD SWAP1 DUP2 MSTORE PUSH1 0x20 ADD PUSH0 KECCAK256 PUSH1 0x5 ADD PUSH0 CALLER PUSH20 0xFFFFFFFFFFFFFFFFFFFFFFFFFFFFFFFFFFFFFFFF AND PUSH20 0xFFFFFFFFFFFFFFFFFFFFFFFFFFFFFFFFFFFFFFFF AND DUP2 MSTORE PUSH1 0x20 ADD SWAP1 DUP2 MSTORE PUSH1 0x20 ADD PUSH0 KECCAK256 PUSH0 SWAP1 SLOAD SWAP1 PUSH2 0x100 EXP SWAP1 DIV PUSH1 0xFF AND ISZERO PUSH2 0x874 JUMPI PUSH1 0x40 MLOAD PUSH32 0x8C379A000000000000000000000000000000000000000000000000000000000 DUP2 MSTORE PUSH1 0x4 ADD PUSH2 0x86B SWAP1 PUSH2 0x1605 JUMP JUMPDEST PUSH1 0x40 MLOAD DUP1 SWAP2 SUB SWAP1 REVERT JUMPDEST PUSH0 PUSH1 0x3 PUSH0 DUP6 DUP2 MSTORE PUSH1 0x20 ADD SWAP1 DUP2 MSTORE PUSH1 0x20 ADD PUSH0 KECCAK256 SWAP1 POP PUSH1 0x1 DUP2 PUSH1 0x5 ADD PUSH0 CALLER PUSH20 0xFFFFFFFFFFFFFFFFFFFFFFFFFFFFFFFFFFFFFFFF AND PUSH20 0xFFFFFFFFFFFFFFFFFFFFFFFFFFFFFFFFFFFFFFFF AND DUP2 MSTORE PUSH1 0x20 ADD SWAP1 DUP2 MSTORE PUSH1 0x20 ADD PUSH0 KECCAK256 PUSH0 PUSH2 0x100 EXP DUP2 SLOAD DUP2 PUSH1 0xFF MUL NOT AND SWAP1 DUP4 ISZERO ISZERO MUL OR SWAP1 SSTORE POP PUSH1 0x1 DUP2 PUSH1 0x4 ADD PUSH0 DUP3 DUP3 SLOAD PUSH2 0x8F3 SWAP2 SWAP1 PUSH2 0x1623 JUMP JUMPDEST SWAP3 POP POP DUP2 SWAP1 SSTORE POP PUSH1 0x2 SLOAD DUP2 PUSH1 0x4 ADD SLOAD LT PUSH2 0x911 JUMPI PUSH2 0x910 DUP5 PUSH2 0xB67 JUMP JUMPDEST JUMPDEST POP POP POP POP JUMP JUMPDEST PUSH1 0x2 SLOAD DUP2 JUMP JUMPDEST PUSH0 PUSH1 0x1 PUSH0 CALLER PUSH20 0xFFFFFFFFFFFFFFFFFFFFFFFFFFFFFFFFFFFFFFFF AND PUSH20 0xFFFFFFFFFFFFFFFFFFFFFFFFFFFFFFFFFFFFFFFF AND DUP2 MSTORE PUSH1 0x20 ADD SWAP1 DUP2 MSTORE PUSH1 0x20 ADD PUSH0 KECCAK256 PUSH0 SWAP1 SLOAD SWAP1 PUSH2 0x100 EXP SWAP1 DIV PUSH1 0xFF AND PUSH2 0x9A7 JUMPI PUSH1 0x40 MLOAD PUSH32 0x8C379A000000000000000000000000000000000000000000000000000000000 DUP2 MSTORE PUSH1 0x4 ADD PUSH2 0x99E SWAP1 PUSH2 0x159D JUMP JUMPDEST PUSH1 0x40 MLOAD DUP1 SWAP2 SUB SWAP1 REVERT JUMPDEST DUP4 DUP4 DUP4 TIMESTAMP PUSH1 0x40 MLOAD PUSH1 0x20 ADD PUSH2 0x9BE SWAP5 SWAP4 SWAP3 SWAP2 SWAP1 PUSH2 0x16F5 JUMP JUMPDEST PUSH1 0x40 MLOAD PUSH1 0x20 DUP2 DUP4 SUB SUB DUP2 MSTORE SWAP1 PUSH1 0x40 MSTORE DUP1 MLOAD SWAP1 PUSH1 0x20 ADD KECCAK256 SWAP1 POP PUSH0 PUSH1 0x3 PUSH0 DUP4 DUP2 MSTORE PUSH1 0x20 ADD SWAP1 DUP2 MSTORE PUSH1 0x20 ADD PUSH0 KECCAK256 SWAP1 POP PUSH0 PUSH20 0xFFFFFFFFFFFFFFFFFFFFFFFFFFFFFFFFFFFFFFFF AND DUP2 PUSH0 ADD PUSH0 SWAP1 SLOAD SWAP1 PUSH2 0x100 EXP SWAP1 DIV PUSH20 0xFFFFFFFFFFFFFFFFFFFFFFFFFFFFFFFFFFFFFFFF AND PUSH20 0xFFFFFFFFFFFFFFFFFFFFFFFFFFFFFFFFFFFFFFFF AND EQ PUSH2 0xA7A JUMPI PUSH1 0x40 MLOAD PUSH32 0x8C379A000000000000000000000000000000000000000000000000000000000 DUP2 MSTORE PUSH1 0x4 ADD PUSH2 0xA71 SWAP1 PUSH2 0x1788 JUMP JUMPDEST PUSH1 0x40 MLOAD DUP1 SWAP2 SUB SWAP1 REVERT JUMPDEST DUP5 DUP2 PUSH0 ADD PUSH0 PUSH2 0x100 EXP DUP2 SLOAD DUP2 PUSH20 0xFFFFFFFFFFFFFFFFFFFFFFFFFFFFFFFFFFFFFFFF MUL NOT AND SWAP1 DUP4 PUSH20 0xFFFFFFFFFFFFFFFFFFFFFFFFFFFFFFFFFFFFFFFF AND MUL OR SWAP1 SSTORE POP DUP4 DUP2 PUSH1 0x1 ADD DUP2 SWAP1 SSTORE POP DUP3 DUP2 PUSH1 0x2 ADD SWAP1 DUP2 PUSH2 0xAD5 SWAP2 SWAP1 PUSH2 0x1943 JUMP JUMPDEST POP PUSH0 DUP2 PUSH1 0x3 ADD PUSH0 PUSH2 0x100 EXP DUP2 SLOAD DUP2 PUSH1 0xFF MUL NOT AND SWAP1 DUP4 ISZERO ISZERO MUL OR SWAP1 SSTORE POP PUSH0 DUP2 PUSH1 0x4 ADD DUP2 SWAP1 SSTORE POP DUP5 PUSH20 0xFFFFFFFFFFFFFFFFFFFFFFFFFFFFFFFFFFFFFFFF AND CALLER PUSH20 0xFFFFFFFFFFFFFFFFFFFFFFFFFFFFFFFFFFFFFFFF AND PUSH32 0x8C5BE1E5EBEC7D5BD14F71427D1E84F3DD0314C0F7B2291E5B200AC8C7C3B925 DUP7 PUSH1 0x40 MLOAD PUSH2 0xB57 SWAP2 SWAP1 PUSH2 0xE4E JUMP JUMPDEST PUSH1 0x40 MLOAD DUP1 SWAP2 SUB SWAP1 LOG3 POP SWAP4 SWAP3 POP POP POP JUMP JUMPDEST DUP1 PUSH0 PUSH20 0xFFFFFFFFFFFFFFFFFFFFFFFFFFFFFFFFFFFFFFFF AND PUSH1 0x3 PUSH0 DUP4 DUP2 MSTORE PUSH1 0x20 ADD SWAP1 DUP2 MSTORE PUSH1 0x20 ADD PUSH0 KECCAK256 PUSH0 ADD PUSH0 SWAP1 SLOAD SWAP1 PUSH2 0x100 EXP SWAP1 DIV PUSH20 0xFFFFFFFFFFFFFFFFFFFFFFFFFFFFFFFFFFFFFFFF AND PUSH20 0xFFFFFFFFFFFFFFFFFFFFFFFFFFFFFFFFFFFFFFFF AND SUB PUSH2 0xC08 JUMPI PUSH1 0x40 MLOAD PUSH32 0x8C379A000000000000000000000000000000000000000000000000000000000 DUP2 MSTORE PUSH1 0x4 ADD PUSH2 0xBFF SWAP1 PUSH2 0x1411 JUMP JUMPDEST PUSH1 0x40 MLOAD DUP1 SWAP2 SUB SWAP1 REVERT JUMPDEST DUP2 PUSH1 0x3 PUSH0 DUP3 DUP2 MSTORE PUSH1 0x20 ADD SWAP1 DUP2 MSTORE PUSH1 0x20 ADD PUSH0 KECCAK256 PUSH1 0x3 ADD PUSH0 SWAP1 SLOAD SWAP1 PUSH2 0x100 EXP SWAP1 DIV PUSH1 0xFF AND ISZERO PUSH2 0xC6A JUMPI PUSH1 0x40 MLOAD PUSH32 0x8C379A000000000000000000000000000000000000000000000000000000000 DUP2 MSTORE PUSH1 0x4 ADD PUSH2 0xC61 SWAP1 PUSH2 0x1A5C JUMP JUMPDEST PUSH1 0x40 MLOAD DUP1 SWAP2 SUB SWAP1 REVERT JUMPDEST PUSH0 PUSH1 0x3 PUSH0 DUP6 DUP2 MSTORE PUSH1 0x20 ADD SWAP1 DUP2 MSTORE PUSH1 0x20 ADD PUSH0 KECCAK256 SWAP1 POP PUSH1 0x2 SLOAD DUP2 PUSH1 0x4 ADD SLOAD LT ISZERO PUSH2 0xCC7 JUMPI PUSH1 0x40 MLOAD PUSH32 0x8C379A000000000000000000000000000000000000000000000000000000000 DUP2 MSTORE PUSH1 0x4 ADD PUSH2 0xCBE SWAP1 PUSH2 0x1AC4 JUMP JUMPDEST PUSH1 0x40 MLOAD DUP1 SWAP2 SUB SWAP1 REVERT JUMPDEST PUSH1 0x1 DUP2 PUSH1 0x3 ADD PUSH0 PUSH2 0x100 EXP DUP2 SLOAD DUP2 PUSH1 0xFF MUL NOT AND SWAP1 DUP4 ISZERO ISZERO MUL OR SWAP1 SSTORE POP PUSH0 DUP2 PUSH0 ADD PUSH0 SWAP1 SLOAD SWAP1 PUSH2 0x100 EXP SWAP1 DIV PUSH20 0xFFFFFFFFFFFFFFFFFFFFFFFFFFFFFFFFFFFFFFFF AND PUSH20 0xFFFFFFFFFFFFFFFFFFFFFFFFFFFFFFFFFFFFFFFF AND DUP3 PUSH1 0x1 ADD SLOAD DUP4 PUSH1 0x2 ADD PUSH1 0x40 MLOAD PUSH2 0xD33 SWAP2 SWAP1 PUSH2 0x1B62 JUMP JUMPDEST PUSH0 PUSH1 0x40 MLOAD DUP1 DUP4 SUB DUP2 DUP6 DUP8 GAS CALL SWAP3 POP POP POP RETURNDATASIZE DUP1 PUSH0 DUP2 EQ PUSH2 0xD6D JUMPI PUSH1 0x40 MLOAD SWAP2 POP PUSH1 0x1F NOT PUSH1 0x3F RETURNDATASIZE ADD AND DUP3 ADD PUSH1 0x40 MSTORE RETURNDATASIZE DUP3 MSTORE RETURNDATASIZE PUSH0 PUSH1 0x20 DUP5 ADD RETURNDATACOPY PUSH2 0xD72 JUMP JUMPDEST PUSH1 0x60 SWAP2 POP JUMPDEST POP POP SWAP1 POP DUP1 PUSH2 0xDB6 JUMPI PUSH1 0x40 MLOAD PUSH32 0x8C379A000000000000000000000000000000000000000000000000000000000 DUP2 MSTORE PUSH1 0x4 ADD PUSH2 0xDAD SWAP1 PUSH2 0x1BC2 JUMP JUMPDEST PUSH1 0x40 MLOAD DUP1 SWAP2 SUB SWAP1 REVERT JUMPDEST DUP2 PUSH0 ADD PUSH0 SWAP1 SLOAD SWAP1 PUSH2 0x100 EXP SWAP1 DIV PUSH20 0xFFFFFFFFFFFFFFFFFFFFFFFFFFFFFFFFFFFFFFFF AND PUSH20 0xFFFFFFFFFFFFFFFFFFFFFFFFFFFFFFFFFFFFFFFF AND PUSH32 0x47D99AD340F52DA66535AFF7E10DA1CEB85A32BCBD9FA1C42314D194545E14D2 DUP4 PUSH1 0x1 ADD SLOAD DUP5 PUSH1 0x2 ADD PUSH1 0x40 MLOAD PUSH2 0xE27 SWAP3 SWAP2 SWAP1 PUSH2 0x1C61 JUMP JUMPDEST PUSH1 0x40 MLOAD DUP1 SWAP2 SUB SWAP1 LOG2 POP POP POP POP POP JUMP JUMPDEST PUSH0 DUP2 SWAP1 POP SWAP2 SWAP1 POP JUMP JUMPDEST PUSH2 0xE48 DUP2 PUSH2 0xE36 JUMP JUMPDEST DUP3 MSTORE POP POP JUMP JUMPDEST PUSH0 PUSH1 0x20 DUP3 ADD SWAP1 POP PUSH2 0xE61 PUSH0 DUP4 ADD DUP5 PUSH2 0xE3F JUMP JUMPDEST SWAP3 SWAP2 POP POP JUMP JUMPDEST PUSH0 PUSH1 0x40 MLOAD SWAP1 POP SWAP1 JUMP JUMPDEST PUSH0 DUP1 REVERT JUMPDEST PUSH0 DUP1 REVERT JUMPDEST PUSH2 0xE81 DUP2 PUSH2 0xE36 JUMP JUMPDEST DUP2 EQ PUSH2 0xE8B JUMPI PUSH0 DUP1 REVERT JUMPDEST POP JUMP JUMPDEST PUSH0 DUP2 CALLDATALOAD SWAP1 POP PUSH2 0xE9C DUP2 PUSH2 0xE78 JUMP JUMPDEST SWAP3 SWAP2 POP POP JUMP JUMPDEST PUSH0 PUSH1 0x20 DUP3 DUP5 SUB SLT ISZERO PUSH2 0xEB7 JUMPI PUSH2 0xEB6 PUSH2 0xE70 JUMP JUMPDEST JUMPDEST PUSH0 PUSH2 0xEC4 DUP5 DUP3 DUP6 ADD PUSH2 0xE8E JUMP JUMPDEST SWAP2 POP POP SWAP3 SWAP2 POP POP JUMP JUMPDEST PUSH0 PUSH20 0xFFFFFFFFFFFFFFFFFFFFFFFFFFFFFFFFFFFFFFFF DUP3 AND SWAP1 POP SWAP2 SWAP1 POP JUMP JUMPDEST PUSH0 PUSH2 0xEF6 DUP3 PUSH2 0xECD JUMP JUMPDEST SWAP1 POP SWAP2 SWAP1 POP JUMP JUMPDEST PUSH2 0xF06 DUP2 PUSH2 0xEEC JUMP JUMPDEST DUP3 MSTORE POP POP JUMP JUMPDEST PUSH0 PUSH1 0x20 DUP3 ADD SWAP1 POP PUSH2 0xF1F PUSH0 DUP4 ADD DUP5 PUSH2 0xEFD JUMP JUMPDEST SWAP3 SWAP2 POP POP JUMP JUMPDEST PUSH2 0xF2E DUP2 PUSH2 0xEEC JUMP JUMPDEST DUP2 EQ PUSH2 0xF38 JUMPI PUSH0 DUP1 REVERT JUMPDEST POP JUMP JUMPDEST PUSH0 DUP2 CALLDATALOAD SWAP1 POP PUSH2 0xF49 DUP2 PUSH2 0xF25 JUMP JUMPDEST SWAP3 SWAP2 POP POP JUMP JUMPDEST PUSH0 PUSH1 0x20 DUP3 DUP5 SUB SLT ISZERO PUSH2 0xF64 JUMPI PUSH2 0xF63 PUSH2 0xE70 JUMP JUMPDEST JUMPDEST PUSH0 PUSH2 0xF71 DUP5 DUP3 DUP6 ADD PUSH2 0xF3B JUMP JUMPDEST SWAP2 POP POP SWAP3 SWAP2 POP POP JUMP JUMPDEST PUSH0 DUP2 ISZERO ISZERO SWAP1 POP SWAP2 SWAP1 POP JUMP JUMPDEST PUSH2 0xF8E DUP2 PUSH2 0xF7A JUMP JUMPDEST DUP3 MSTORE POP POP JUMP JUMPDEST PUSH0 PUSH1 0x20 DUP3 ADD SWAP1 POP PUSH2 0xFA7 PUSH0 DUP4 ADD DUP5 PUSH2 0xF85 JUMP JUMPDEST SWAP3 SWAP2 POP POP JUMP JUMPDEST PUSH0 DUP2 SWAP1 POP SWAP2 SWAP1 POP JUMP JUMPDEST PUSH2 0xFBF DUP2 PUSH2 0xFAD JUMP JUMPDEST DUP2 EQ PUSH2 0xFC9 JUMPI PUSH0 DUP1 REVERT JUMPDEST POP JUMP JUMPDEST PUSH0 DUP2 CALLDATALOAD SWAP1 POP PUSH2 0xFDA DUP2 PUSH2 0xFB6 JUMP JUMPDEST SWAP3 SWAP2 POP POP JUMP JUMPDEST PUSH0 PUSH1 0x20 DUP3 DUP5 SUB SLT ISZERO PUSH2 0xFF5 JUMPI PUSH2 0xFF4 PUSH2 0xE70 JUMP JUMPDEST JUMPDEST PUSH0 PUSH2 0x1002 DUP5 DUP3 DUP6 ADD PUSH2 0xFCC JUMP JUMPDEST SWAP2 POP POP SWAP3 SWAP2 POP POP JUMP JUMPDEST PUSH0 DUP2 MLOAD SWAP1 POP SWAP2 SWAP1 POP JUMP JUMPDEST PUSH0 DUP3 DUP3 MSTORE PUSH1 0x20 DUP3 ADD SWAP1 POP SWAP3 SWAP2 POP POP JUMP JUMPDEST DUP3 DUP2 DUP4 MCOPY PUSH0 DUP4 DUP4 ADD MSTORE POP POP POP JUMP JUMPDEST PUSH0 PUSH1 0x1F NOT PUSH1 0x1F DUP4 ADD AND SWAP1 POP SWAP2 SWAP1 POP JUMP JUMPDEST PUSH0 PUSH2 0x104D DUP3 PUSH2 0x100B JUMP JUMPDEST PUSH2 0x1057 DUP2 DUP6 PUSH2 0x1015 JUMP JUMPDEST SWAP4 POP PUSH2 0x1067 DUP2 DUP6 PUSH1 0x20 DUP7 ADD PUSH2 0x1025 JUMP JUMPDEST PUSH2 0x1070 DUP2 PUSH2 0x1033 JUMP JUMPDEST DUP5 ADD SWAP2 POP POP SWAP3 SWAP2 POP POP JUMP JUMPDEST PUSH0 DUP2 MLOAD SWAP1 POP SWAP2 SWAP1 POP JUMP JUMPDEST PUSH0 DUP3 DUP3 MSTORE PUSH1 0x20 DUP3 ADD SWAP1 POP SWAP3 SWAP2 POP POP JUMP JUMPDEST PUSH0 DUP2 SWAP1 POP PUSH1 0x20 DUP3 ADD SWAP1 POP SWAP2 SWAP1 POP JUMP JUMPDEST PUSH2 0x10AD DUP2 PUSH2 0xEEC JUMP JUMPDEST DUP3 MSTORE POP POP JUMP JUMPDEST PUSH0 PUSH2 0x10BE DUP4 DUP4 PUSH2 0x10A4 JUMP JUMPDEST PUSH1 0x20 DUP4 ADD SWAP1 POP SWAP3 SWAP2 POP POP JUMP JUMPDEST PUSH0 PUSH1 0x20 DUP3 ADD SWAP1 POP SWAP2 SWAP1 POP JUMP JUMPDEST PUSH0 PUSH2 0x10E0 DUP3 PUSH2 0x107B JUMP JUMPDEST PUSH2 0x10EA DUP2 DUP6 PUSH2 0x1085 JUMP JUMPDEST SWAP4 POP PUSH2 0x10F5 DUP4 PUSH2 0x1095 JUMP JUMPDEST DUP1 PUSH0 JUMPDEST DUP4 DUP2 LT ISZERO PUSH2 0x1125 JUMPI DUP2 MLOAD PUSH2 0x110C DUP9 DUP3 PUSH2 0x10B3 JUMP JUMPDEST SWAP8 POP PUSH2 0x1117 DUP4 PUSH2 0x10CA JUMP JUMPDEST SWAP3 POP POP PUSH1 0x1 DUP2 ADD SWAP1 POP PUSH2 0x10F8 JUMP JUMPDEST POP DUP6 SWAP4 POP POP POP POP SWAP3 SWAP2 POP POP JUMP JUMPDEST PUSH0 PUSH1 0xC0 DUP3 ADD SWAP1 POP PUSH2 0x1145 PUSH0 DUP4 ADD DUP10 PUSH2 0xEFD JUMP JUMPDEST PUSH2 0x1152 PUSH1 0x20 DUP4 ADD DUP9 PUSH2 0xE3F JUMP JUMPDEST DUP2 DUP2 SUB PUSH1 0x40 DUP4 ADD MSTORE PUSH2 0x1164 DUP2 DUP8 PUSH2 0x1043 JUMP JUMPDEST SWAP1 POP PUSH2 0x1173 PUSH1 0x60 DUP4 ADD DUP7 PUSH2 0xF85 JUMP JUMPDEST PUSH2 0x1180 PUSH1 0x80 DUP4 ADD DUP6 PUSH2 0xE3F JUMP JUMPDEST DUP2 DUP2 SUB PUSH1 0xA0 DUP4 ADD MSTORE PUSH2 0x1192 DUP2 DUP5 PUSH2 0x10D6 JUMP JUMPDEST SWAP1 POP SWAP8 SWAP7 POP POP POP POP POP POP POP JUMP JUMPDEST PUSH0 PUSH1 0xA0 DUP3 ADD SWAP1 POP PUSH2 0x11B2 PUSH0 DUP4 ADD DUP9 PUSH2 0xEFD JUMP JUMPDEST PUSH2 0x11BF PUSH1 0x20 DUP4 ADD DUP8 PUSH2 0xE3F JUMP JUMPDEST DUP2 DUP2 SUB PUSH1 0x40 DUP4 ADD MSTORE PUSH2 0x11D1 DUP2 DUP7 PUSH2 0x1043 JUMP JUMPDEST SWAP1 POP PUSH2 0x11E0 PUSH1 0x60 DUP4 ADD DUP6 PUSH2 0xF85 JUMP JUMPDEST PUSH2 0x11ED PUSH1 0x80 DUP4 ADD DUP5 PUSH2 0xE3F JUMP JUMPDEST SWAP7 SWAP6 POP POP POP POP POP POP JUMP JUMPDEST PUSH0 DUP1 REVERT JUMPDEST PUSH0 DUP1 REVERT JUMPDEST PUSH32 0x4E487B7100000000000000000000000000000000000000000000000000000000 PUSH0 MSTORE PUSH1 0x41 PUSH1 0x4 MSTORE PUSH1 0x24 PUSH0 REVERT JUMPDEST PUSH2 0x1235 DUP3 PUSH2 0x1033 JUMP JUMPDEST DUP2 ADD DUP2 DUP2 LT PUSH8 0xFFFFFFFFFFFFFFFF DUP3 GT OR ISZERO PUSH2 0x1254 JUMPI PUSH2 0x1253 PUSH2 0x11FF JUMP JUMPDEST JUMPDEST DUP1 PUSH1 0x40 MSTORE POP POP POP JUMP JUMPDEST PUSH0 PUSH2 0x1266 PUSH2 0xE67 JUMP JUMPDEST SWAP1 POP PUSH2 0x1272 DUP3 DUP3 PUSH2 0x122C JUMP JUMPDEST SWAP2 SWAP1 POP JUMP JUMPDEST PUSH0 PUSH8 0xFFFFFFFFFFFFFFFF DUP3 GT ISZERO PUSH2 0x1291 JUMPI PUSH2 0x1290 PUSH2 0x11FF JUMP JUMPDEST JUMPDEST PUSH2 0x129A DUP3 PUSH2 0x1033 JUMP JUMPDEST SWAP1 POP PUSH1 0x20 DUP2 ADD SWAP1 POP SWAP2 SWAP1 POP JUMP JUMPDEST DUP3 DUP2 DUP4 CALLDATACOPY PUSH0 DUP4 DUP4 ADD MSTORE POP POP POP JUMP JUMPDEST PUSH0 PUSH2 0x12C7 PUSH2 0x12C2 DUP5 PUSH2 0x1277 JUMP JUMPDEST PUSH2 0x125D JUMP JUMPDEST SWAP1 POP DUP3 DUP2 MSTORE PUSH1 0x20 DUP2 ADD DUP5 DUP5 DUP5 ADD GT ISZERO PUSH2 0x12E3 JUMPI PUSH2 0x12E2 PUSH2 0x11FB JUMP JUMPDEST JUMPDEST PUSH2 0x12EE DUP5 DUP3 DUP6 PUSH2 0x12A7 JUMP JUMPDEST POP SWAP4 SWAP3 POP POP POP JUMP JUMPDEST PUSH0 DUP3 PUSH1 0x1F DUP4 ADD SLT PUSH2 0x130A JUMPI PUSH2 0x1309 PUSH2 0x11F7 JUMP JUMPDEST JUMPDEST DUP2 CALLDATALOAD PUSH2 0x131A DUP5 DUP3 PUSH1 0x20 DUP7 ADD PUSH2 0x12B5 JUMP JUMPDEST SWAP2 POP POP SWAP3 SWAP2 POP POP JUMP JUMPDEST PUSH0 DUP1 PUSH0 PUSH1 0x60 DUP5 DUP7 SUB SLT ISZERO PUSH2 0x133A JUMPI PUSH2 0x1339 PUSH2 0xE70 JUMP JUMPDEST JUMPDEST PUSH0 PUSH2 0x1347 DUP7 DUP3 DUP8 ADD PUSH2 0xF3B JUMP JUMPDEST SWAP4 POP POP PUSH1 0x20 PUSH2 0x1358 DUP7 DUP3 DUP8 ADD PUSH2 0xE8E JUMP JUMPDEST SWAP3 POP POP PUSH1 0x40 DUP5 ADD CALLDATALOAD PUSH8 0xFFFFFFFFFFFFFFFF DUP2 GT ISZERO PUSH2 0x1379 JUMPI PUSH2 0x1378 PUSH2 0xE74 JUMP JUMPDEST JUMPDEST PUSH2 0x1385 DUP7 DUP3 DUP8 ADD PUSH2 0x12F6 JUMP JUMPDEST SWAP2 POP POP SWAP3 POP SWAP3 POP SWAP3 JUMP JUMPDEST PUSH2 0x1398 DUP2 PUSH2 0xFAD JUMP JUMPDEST DUP3 MSTORE POP POP JUMP JUMPDEST PUSH0 PUSH1 0x20 DUP3 ADD SWAP1 POP PUSH2 0x13B1 PUSH0 DUP4 ADD DUP5 PUSH2 0x138F JUMP JUMPDEST SWAP3 SWAP2 POP POP JUMP JUMPDEST PUSH0 DUP3 DUP3 MSTORE PUSH1 0x20 DUP3 ADD SWAP1 POP SWAP3 SWAP2 POP POP JUMP JUMPDEST PUSH32 0x5472616E73616374696F6E20646F6573206E6F74206578697374000000000000 PUSH0 DUP3 ADD MSTORE POP JUMP JUMPDEST PUSH0 PUSH2 0x13FB PUSH1 0x1A DUP4 PUSH2 0x13B7 JUMP JUMPDEST SWAP2 POP PUSH2 0x1406 DUP3 PUSH2 0x13C7 JUMP JUMPDEST PUSH1 0x20 DUP3 ADD SWAP1 POP SWAP2 SWAP1 POP JUMP JUMPDEST PUSH0 PUSH1 0x20 DUP3 ADD SWAP1 POP DUP2 DUP2 SUB PUSH0 DUP4 ADD MSTORE PUSH2 0x1428 DUP2 PUSH2 0x13EF JUMP JUMPDEST SWAP1 POP SWAP2 SWAP1 POP JUMP JUMPDEST PUSH32 0x4E487B7100000000000000000000000000000000000000000000000000000000 PUSH0 MSTORE PUSH1 0x32 PUSH1 0x4 MSTORE PUSH1 0x24 PUSH0 REVERT JUMPDEST PUSH32 0x4E487B7100000000000000000000000000000000000000000000000000000000 PUSH0 MSTORE PUSH1 0x11 PUSH1 0x4 MSTORE PUSH1 0x24 PUSH0 REVERT JUMPDEST PUSH0 PUSH2 0x1493 DUP3 PUSH2 0xE36 JUMP JUMPDEST SWAP2 POP PUSH32 0xFFFFFFFFFFFFFFFFFFFFFFFFFFFFFFFFFFFFFFFFFFFFFFFFFFFFFFFFFFFFFFFF DUP3 SUB PUSH2 0x14C5 JUMPI PUSH2 0x14C4 PUSH2 0x145C JUMP JUMPDEST JUMPDEST PUSH1 0x1 DUP3 ADD SWAP1 POP SWAP2 SWAP1 POP JUMP JUMPDEST PUSH32 0x4E487B7100000000000000000000000000000000000000000000000000000000 PUSH0 MSTORE PUSH1 0x22 PUSH1 0x4 MSTORE PUSH1 0x24 PUSH0 REVERT JUMPDEST PUSH0 PUSH1 0x2 DUP3 DIV SWAP1 POP PUSH1 0x1 DUP3 AND DUP1 PUSH2 0x1514 JUMPI PUSH1 0x7F DUP3 AND SWAP2 POP JUMPDEST PUSH1 0x20 DUP3 LT DUP2 SUB PUSH2 0x1527 JUMPI PUSH2 0x1526 PUSH2 0x14D0 JUMP JUMPDEST JUMPDEST POP SWAP2 SWAP1 POP JUMP JUMPDEST PUSH32 0x4E6F7420617574686F72697A65643A2043616C6C6572206973206E6F7420616E PUSH0 DUP3 ADD MSTORE PUSH32 0x206F776E65720000000000000000000000000000000000000000000000000000 PUSH1 0x20 DUP3 ADD MSTORE POP JUMP JUMPDEST PUSH0 PUSH2 0x1587 PUSH1 0x26 DUP4 PUSH2 0x13B7 JUMP JUMPDEST SWAP2 POP PUSH2 0x1592 DUP3 PUSH2 0x152D JUMP JUMPDEST PUSH1 0x40 DUP3 ADD SWAP1 POP SWAP2 SWAP1 POP JUMP JUMPDEST PUSH0 PUSH1 0x20 DUP3 ADD SWAP1 POP DUP2 DUP2 SUB PUSH0 DUP4 ADD MSTORE PUSH2 0x15B4 DUP2 PUSH2 0x157B JUMP JUMPDEST SWAP1 POP SWAP2 SWAP1 POP JUMP JUMPDEST PUSH32 0x5472616E73616374696F6E20616C726561647920636F6E6669726D6564000000 PUSH0 DUP3 ADD MSTORE POP JUMP JUMPDEST PUSH0 PUSH2 0x15EF PUSH1 0x1D DUP4 PUSH2 0x13B7 JUMP JUMPDEST SWAP2 POP PUSH2 0x15FA DUP3 PUSH2 0x15BB JUMP JUMPDEST PUSH1 0x20 DUP3 ADD SWAP1 POP SWAP2 SWAP1 POP JUMP JUMPDEST PUSH0 PUSH1 0x20 DUP3 ADD SWAP1 POP DUP2 DUP2 SUB PUSH0 DUP4 ADD MSTORE PUSH2 0x161C DUP2 PUSH2 0x15E3 JUMP JUMPDEST SWAP1 POP SWAP2 SWAP1 POP JUMP JUMPDEST PUSH0 PUSH2 0x162D DUP3 PUSH2 0xE36 JUMP JUMPDEST SWAP2 POP PUSH2 0x1638 DUP4 PUSH2 0xE36 JUMP JUMPDEST SWAP3 POP DUP3 DUP3 ADD SWAP1 POP DUP1 DUP3 GT ISZERO PUSH2 0x1650 JUMPI PUSH2 0x164F PUSH2 0x145C JUMP JUMPDEST JUMPDEST SWAP3 SWAP2 POP POP JUMP JUMPDEST PUSH0 DUP2 PUSH1 0x60 SHL SWAP1 POP SWAP2 SWAP1 POP JUMP JUMPDEST PUSH0 PUSH2 0x166C DUP3 PUSH2 0x1656 JUMP JUMPDEST SWAP1 POP SWAP2 SWAP1 POP JUMP JUMPDEST PUSH0 PUSH2 0x167D DUP3 PUSH2 0x1662 JUMP JUMPDEST SWAP1 POP SWAP2 SWAP1 POP JUMP JUMPDEST PUSH2 0x1695 PUSH2 0x1690 DUP3 PUSH2 0xEEC JUMP JUMPDEST PUSH2 0x1673 JUMP JUMPDEST DUP3 MSTORE POP POP JUMP JUMPDEST PUSH0 DUP2 SWAP1 POP SWAP2 SWAP1 POP JUMP JUMPDEST PUSH2 0x16B5 PUSH2 0x16B0 DUP3 PUSH2 0xE36 JUMP JUMPDEST PUSH2 0x169B JUMP JUMPDEST DUP3 MSTORE POP POP JUMP JUMPDEST PUSH0 DUP2 SWAP1 POP SWAP3 SWAP2 POP POP JUMP JUMPDEST PUSH0 PUSH2 0x16CF DUP3 PUSH2 0x100B JUMP JUMPDEST PUSH2 0x16D9 DUP2 DUP6 PUSH2 0x16BB JUMP JUMPDEST SWAP4 POP PUSH2 0x16E9 DUP2 DUP6 PUSH1 0x20 DUP7 ADD PUSH2 0x1025 JUMP JUMPDEST DUP1 DUP5 ADD SWAP2 POP POP SWAP3 SWAP2 POP POP JUMP JUMPDEST PUSH0 PUSH2 0x1700 DUP3 DUP8 PUSH2 0x1684 JUMP JUMPDEST PUSH1 0x14 DUP3 ADD SWAP2 POP PUSH2 0x1710 DUP3 DUP7 PUSH2 0x16A4 JUMP JUMPDEST PUSH1 0x20 DUP3 ADD SWAP2 POP PUSH2 0x1720 DUP3 DUP6 PUSH2 0x16C5 JUMP JUMPDEST SWAP2 POP PUSH2 0x172C DUP3 DUP5 PUSH2 0x16A4 JUMP JUMPDEST PUSH1 0x20 DUP3 ADD SWAP2 POP DUP2 SWAP1 POP SWAP6 SWAP5 POP POP POP POP POP JUMP JUMPDEST PUSH32 0x5472616E73616374696F6E20616C726561647920657869737473000000000000 PUSH0 DUP3 ADD MSTORE POP JUMP JUMPDEST PUSH0 PUSH2 0x1772 PUSH1 0x1A DUP4 PUSH2 0x13B7 JUMP JUMPDEST SWAP2 POP PUSH2 0x177D DUP3 PUSH2 0x173E JUMP JUMPDEST PUSH1 0x20 DUP3 ADD SWAP1 POP SWAP2 SWAP1 POP JUMP JUMPDEST PUSH0 PUSH1 0x20 DUP3 ADD SWAP1 POP DUP2 DUP2 SUB PUSH0 DUP4 ADD MSTORE PUSH2 0x179F DUP2 PUSH2 0x1766 JUMP JUMPDEST SWAP1 POP SWAP2 SWAP1 POP JUMP JUMPDEST PUSH0 DUP2 SWAP1 POP DUP2 PUSH0 MSTORE PUSH1 0x20 PUSH0 KECCAK256 SWAP1 POP SWAP2 SWAP1 POP JUMP JUMPDEST PUSH0 PUSH1 0x20 PUSH1 0x1F DUP4 ADD DIV SWAP1 POP SWAP2 SWAP1 POP JUMP JUMPDEST PUSH0 DUP3 DUP3 SHL SWAP1 POP SWAP3 SWAP2 POP POP JUMP JUMPDEST PUSH0 PUSH1 0x8 DUP4 MUL PUSH2 0x1802 PUSH32 0xFFFFFFFFFFFFFFFFFFFFFFFFFFFFFFFFFFFFFFFFFFFFFFFFFFFFFFFFFFFFFFFF DUP3 PUSH2 0x17C7 JUMP JUMPDEST PUSH2 0x180C DUP7 DUP4 PUSH2 0x17C7 JUMP JUMPDEST SWAP6 POP DUP1 NOT DUP5 AND SWAP4 POP DUP1 DUP7 AND DUP5 OR SWAP3 POP POP POP SWAP4 SWAP3 POP POP POP JUMP JUMPDEST PUSH0 DUP2 SWAP1 POP SWAP2 SWAP1 POP JUMP JUMPDEST PUSH0 PUSH2 0x1847 PUSH2 0x1842 PUSH2 0x183D DUP5 PUSH2 0xE36 JUMP JUMPDEST PUSH2 0x1824 JUMP JUMPDEST PUSH2 0xE36 JUMP JUMPDEST SWAP1 POP SWAP2 SWAP1 POP JUMP JUMPDEST PUSH0 DUP2 SWAP1 POP SWAP2 SWAP1 POP JUMP JUMPDEST PUSH2 0x1860 DUP4 PUSH2 0x182D JUMP JUMPDEST PUSH2 0x1874 PUSH2 0x186C DUP3 PUSH2 0x184E JUMP JUMPDEST DUP5 DUP5 SLOAD PUSH2 0x17D3 JUMP JUMPDEST DUP3 SSTORE POP POP POP POP JUMP JUMPDEST PUSH0 SWAP1 JUMP JUMPDEST PUSH2 0x1888 PUSH2 0x187C JUMP JUMPDEST PUSH2 0x1893 DUP2 DUP5 DUP5 PUSH2 0x1857 JUMP JUMPDEST POP POP POP JUMP JUMPDEST JUMPDEST DUP2 DUP2 LT ISZERO PUSH2 0x18B6 JUMPI PUSH2 0x18AB PUSH0 DUP3 PUSH2 0x1880 JUMP JUMPDEST PUSH1 0x1 DUP2 ADD SWAP1 POP PUSH2 0x1899 JUMP JUMPDEST POP POP JUMP JUMPDEST PUSH1 0x1F DUP3 GT ISZERO PUSH2 0x18FB JUMPI PUSH2 0x18CC DUP2 PUSH2 0x17A6 JUMP JUMPDEST PUSH2 0x18D5 DUP5 PUSH2 0x17B8 JUMP JUMPDEST DUP2 ADD PUSH1 0x20 DUP6 LT ISZERO PUSH2 0x18E4 JUMPI DUP2 SWAP1 POP JUMPDEST PUSH2 0x18F8 PUSH2 0x18F0 DUP6 PUSH2 0x17B8 JUMP JUMPDEST DUP4 ADD DUP3 PUSH2 0x1898 JUMP JUMPDEST POP POP JUMPDEST POP POP POP JUMP JUMPDEST PUSH0 DUP3 DUP3 SHR SWAP1 POP SWAP3 SWAP2 POP POP JUMP JUMPDEST PUSH0 PUSH2 0x191B PUSH0 NOT DUP5 PUSH1 0x8 MUL PUSH2 0x1900 JUMP JUMPDEST NOT DUP1 DUP4 AND SWAP2 POP POP SWAP3 SWAP2 POP POP JUMP JUMPDEST PUSH0 PUSH2 0x1933 DUP4 DUP4 PUSH2 0x190C JUMP JUMPDEST SWAP2 POP DUP3 PUSH1 0x2 MUL DUP3 OR SWAP1 POP SWAP3 SWAP2 POP POP JUMP JUMPDEST PUSH2 0x194C DUP3 PUSH2 0x100B JUMP JUMPDEST PUSH8 0xFFFFFFFFFFFFFFFF DUP2 GT ISZERO PUSH2 0x1965 JUMPI PUSH2 0x1964 PUSH2 0x11FF JUMP JUMPDEST JUMPDEST PUSH2 0x196F DUP3 SLOAD PUSH2 0x14FD JUMP JUMPDEST PUSH2 0x197A DUP3 DUP3 DUP6 PUSH2 0x18BA JUMP JUMPDEST PUSH0 PUSH1 0x20 SWAP1 POP PUSH1 0x1F DUP4 GT PUSH1 0x1 DUP2 EQ PUSH2 0x19AB JUMPI PUSH0 DUP5 ISZERO PUSH2 0x1999 JUMPI DUP3 DUP8 ADD MLOAD SWAP1 POP JUMPDEST PUSH2 0x19A3 DUP6 DUP3 PUSH2 0x1928 JUMP JUMPDEST DUP7 SSTORE POP PUSH2 0x1A0A JUMP JUMPDEST PUSH1 0x1F NOT DUP5 AND PUSH2 0x19B9 DUP7 PUSH2 0x17A6 JUMP JUMPDEST PUSH0 JUMPDEST DUP3 DUP2 LT ISZERO PUSH2 0x19E0 JUMPI DUP5 DUP10 ADD MLOAD DUP3 SSTORE PUSH1 0x1 DUP3 ADD SWAP2 POP PUSH1 0x20 DUP6 ADD SWAP5 POP PUSH1 0x20 DUP2 ADD SWAP1 POP PUSH2 0x19BB JUMP JUMPDEST DUP7 DUP4 LT ISZERO PUSH2 0x19FD JUMPI DUP5 DUP10 ADD MLOAD PUSH2 0x19F9 PUSH1 0x1F DUP10 AND DUP3 PUSH2 0x190C JUMP JUMPDEST DUP4 SSTORE POP JUMPDEST PUSH1 0x1 PUSH1 0x2 DUP9 MUL ADD DUP9 SSTORE POP POP POP JUMPDEST POP POP POP POP POP POP JUMP JUMPDEST PUSH32 0x5472616E73616374696F6E20616C726561647920657865637574656400000000 PUSH0 DUP3 ADD MSTORE POP JUMP JUMPDEST PUSH0 PUSH2 0x1A46 PUSH1 0x1C DUP4 PUSH2 0x13B7 JUMP JUMPDEST SWAP2 POP PUSH2 0x1A51 DUP3 PUSH2 0x1A12 JUMP JUMPDEST PUSH1 0x20 DUP3 ADD SWAP1 POP SWAP2 SWAP1 POP JUMP JUMPDEST PUSH0 PUSH1 0x20 DUP3 ADD SWAP1 POP DUP2 DUP2 SUB PUSH0 DUP4 ADD MSTORE PUSH2 0x1A73 DUP2 PUSH2 0x1A3A JUMP JUMPDEST SWAP1 POP SWAP2 SWAP1 POP JUMP JUMPDEST PUSH32 0x496E73756666696369656E7420636F6E6669726D6174696F6E73000000000000 PUSH0 DUP3 ADD MSTORE POP JUMP JUMPDEST PUSH0 PUSH2 0x1AAE PUSH1 0x1A DUP4 PUSH2 0x13B7 JUMP JUMPDEST SWAP2 POP PUSH2 0x1AB9 DUP3 PUSH2 0x1A7A JUMP JUMPDEST PUSH1 0x20 DUP3 ADD SWAP1 POP SWAP2 SWAP1 POP JUMP JUMPDEST PUSH0 PUSH1 0x20 DUP3 ADD SWAP1 POP DUP2 DUP2 SUB PUSH0 DUP4 ADD MSTORE PUSH2 0x1ADB DUP2 PUSH2 0x1AA2 JUMP JUMPDEST SWAP1 POP SWAP2 SWAP1 POP JUMP JUMPDEST PUSH0 DUP2 SLOAD PUSH2 0x1AEE DUP2 PUSH2 0x14FD JUMP JUMPDEST PUSH2 0x1AF8 DUP2 DUP7 PUSH2 0x16BB JUMP JUMPDEST SWAP5 POP PUSH1 0x1 DUP3 AND PUSH0 DUP2 EQ PUSH2 0x1B12 JUMPI PUSH1 0x1 DUP2 EQ PUSH2 0x1B27 JUMPI PUSH2 0x1B59 JUMP JUMPDEST PUSH1 0xFF NOT DUP4 AND DUP7 MSTORE DUP2 ISZERO ISZERO DUP3 MUL DUP7 ADD SWAP4 POP PUSH2 0x1B59 JUMP JUMPDEST PUSH2 0x1B30 DUP6 PUSH2 0x17A6 JUMP JUMPDEST PUSH0 JUMPDEST DUP4 DUP2 LT ISZERO PUSH2 0x1B51 JUMPI DUP2 SLOAD DUP2 DUP10 ADD MSTORE PUSH1 0x1 DUP3 ADD SWAP2 POP PUSH1 0x20 DUP2 ADD SWAP1 POP PUSH2 0x1B32 JUMP JUMPDEST DUP4 DUP9 ADD SWAP6 POP POP POP JUMPDEST POP POP POP SWAP3 SWAP2 POP POP JUMP JUMPDEST PUSH0 PUSH2 0x1B6D DUP3 DUP5 PUSH2 0x1AE2 JUMP JUMPDEST SWAP2 POP DUP2 SWAP1 POP SWAP3 SWAP2 POP POP JUMP JUMPDEST PUSH32 0x5472616E73616374696F6E206661696C65640000000000000000000000000000 PUSH0 DUP3 ADD MSTORE POP JUMP JUMPDEST PUSH0 PUSH2 0x1BAC PUSH1 0x12 DUP4 PUSH2 0x13B7 JUMP JUMPDEST SWAP2 POP PUSH2 0x1BB7 DUP3 PUSH2 0x1B78 JUMP JUMPDEST PUSH1 0x20 DUP3 ADD SWAP1 POP SWAP2 SWAP1 POP JUMP JUMPDEST PUSH0 PUSH1 0x20 DUP3 ADD SWAP1 POP DUP2 DUP2 SUB PUSH0 DUP4 ADD MSTORE PUSH2 0x1BD9 DUP2 PUSH2 0x1BA0 JUMP JUMPDEST SWAP1 POP SWAP2 SWAP1 POP JUMP JUMPDEST PUSH0 DUP2 SLOAD PUSH2 0x1BEC DUP2 PUSH2 0x14FD JUMP JUMPDEST PUSH2 0x1BF6 DUP2 DUP7 PUSH2 0x1015 JUMP JUMPDEST SWAP5 POP PUSH1 0x1 DUP3 AND PUSH0 DUP2 EQ PUSH2 0x1C10 JUMPI PUSH1 0x1 DUP2 EQ PUSH2 0x1C26 JUMPI PUSH2 0x1C58 JUMP JUMPDEST PUSH1 0xFF NOT DUP4 AND DUP7 MSTORE DUP2 ISZERO ISZERO PUSH1 0x20 MUL DUP7 ADD SWAP4 POP PUSH2 0x1C58 JUMP JUMPDEST PUSH2 0x1C2F DUP6 PUSH2 0x17A6 JUMP JUMPDEST PUSH0 JUMPDEST DUP4 DUP2 LT ISZERO PUSH2 0x1C50 JUMPI DUP2 SLOAD DUP2 DUP10 ADD MSTORE PUSH1 0x1 DUP3 ADD SWAP2 POP PUSH1 0x20 DUP2 ADD SWAP1 POP PUSH2 0x1C31 JUMP JUMPDEST DUP1 DUP9 ADD SWAP6 POP POP POP JUMPDEST POP POP POP SWAP3 SWAP2 POP POP JUMP JUMPDEST PUSH0 PUSH1 0x40 DUP3 ADD SWAP1 POP PUSH2 0x1C74 PUSH0 DUP4 ADD DUP6 PUSH2 0xE3F JUMP JUMPDEST DUP2 DUP2 SUB PUSH1 0x20 DUP4 ADD MSTORE PUSH2 0x1C86 DUP2 DUP5 PUSH2 0x1BE0 JUMP JUMPDEST SWAP1 POP SWAP4 SWAP3 POP POP POP JUMP INVALID LOG2 PUSH5 0x6970667358 0x22 SLT KECCAK256 0xC4 0xDC ADDMOD 0xEE DUP6 MULMOD JUMP NOT 0x1E PUSH18 0x1F4859C859B6E5D16DEC2BD93C3801410911 CALLVALUE 0xE9 0xED DUP9 PUSH5 0x736F6C6343 STOP ADDMOD BYTE STOP CALLER "
				},
				"gasEstimates": {
					"creation": {
						"codeDepositCost": "1473000",
						"executionCost": "infinite",
						"totalCost": "infinite"
					},
					"external": {
						"confirmTransaction(bytes32)": "infinite",
						"createTransaction(address,uint256,bytes)": "infinite",
						"getTransactionDetails(bytes32)": "infinite",
						"isOwner(address)": "2856",
						"owners(uint256)": "4944",
						"requiredConfirmations()": "2469",
						"transactions(bytes32)": "infinite"
					},
					"internal": {
						"executeTransaction(bytes32)": "infinite"
					}
				},
				"methodIdentifiers": {
					"confirmTransaction(bytes32)": "79716e43",
					"createTransaction(address,uint256,bytes)": "a9496e75",
					"getTransactionDetails(bytes32)": "515a39b6",
					"isOwner(address)": "2f54bf6e",
					"owners(uint256)": "025e7c27",
					"requiredConfirmations()": "82e717f7",
					"transactions(bytes32)": "642f2eaf"
				}
			},
			"storageLayout": {
				"storage": [
					{
						"astId": 33,
						"contract": "contracts/wallets/ZrWallet.sol:ZrWallet",
						"label": "owners",
						"offset": 0,
						"slot": "0",
						"type": "t_array(t_address)dyn_storage"
					},
					{
						"astId": 37,
						"contract": "contracts/wallets/ZrWallet.sol:ZrWallet",
						"label": "isOwner",
						"offset": 0,
						"slot": "1",
						"type": "t_mapping(t_address,t_bool)"
					},
					{
						"astId": 39,
						"contract": "contracts/wallets/ZrWallet.sol:ZrWallet",
						"label": "requiredConfirmations",
						"offset": 0,
						"slot": "2",
						"type": "t_uint256"
					},
					{
						"astId": 44,
						"contract": "contracts/wallets/ZrWallet.sol:ZrWallet",
						"label": "transactions",
						"offset": 0,
						"slot": "3",
						"type": "t_mapping(t_bytes32,t_struct(Transaction)59_storage)"
					}
				],
				"types": {
					"t_address": {
						"encoding": "inplace",
						"label": "address",
						"numberOfBytes": "20"
					},
					"t_array(t_address)dyn_storage": {
						"base": "t_address",
						"encoding": "dynamic_array",
						"label": "address[]",
						"numberOfBytes": "32"
					},
					"t_bool": {
						"encoding": "inplace",
						"label": "bool",
						"numberOfBytes": "1"
					},
					"t_bytes32": {
						"encoding": "inplace",
						"label": "bytes32",
						"numberOfBytes": "32"
					},
					"t_bytes_storage": {
						"encoding": "bytes",
						"label": "bytes",
						"numberOfBytes": "32"
					},
					"t_mapping(t_address,t_bool)": {
						"encoding": "mapping",
						"key": "t_address",
						"label": "mapping(address => bool)",
						"numberOfBytes": "32",
						"value": "t_bool"
					},
					"t_mapping(t_bytes32,t_struct(Transaction)59_storage)": {
						"encoding": "mapping",
						"key": "t_bytes32",
						"label": "mapping(bytes32 => struct ZrWallet.Transaction)",
						"numberOfBytes": "32",
						"value": "t_struct(Transaction)59_storage"
					},
					"t_struct(Transaction)59_storage": {
						"encoding": "inplace",
						"label": "struct ZrWallet.Transaction",
						"members": [
							{
								"astId": 46,
								"contract": "contracts/wallets/ZrWallet.sol:ZrWallet",
								"label": "to",
								"offset": 0,
								"slot": "0",
								"type": "t_address"
							},
							{
								"astId": 48,
								"contract": "contracts/wallets/ZrWallet.sol:ZrWallet",
								"label": "amount",
								"offset": 0,
								"slot": "1",
								"type": "t_uint256"
							},
							{
								"astId": 50,
								"contract": "contracts/wallets/ZrWallet.sol:ZrWallet",
								"label": "data",
								"offset": 0,
								"slot": "2",
								"type": "t_bytes_storage"
							},
							{
								"astId": 52,
								"contract": "contracts/wallets/ZrWallet.sol:ZrWallet",
								"label": "executed",
								"offset": 0,
								"slot": "3",
								"type": "t_bool"
							},
							{
								"astId": 54,
								"contract": "contracts/wallets/ZrWallet.sol:ZrWallet",
								"label": "confirmations",
								"offset": 0,
								"slot": "4",
								"type": "t_uint256"
							},
							{
								"astId": 58,
								"contract": "contracts/wallets/ZrWallet.sol:ZrWallet",
								"label": "confirmedBy",
								"offset": 0,
								"slot": "5",
								"type": "t_mapping(t_address,t_bool)"
							}
						],
						"numberOfBytes": "192"
					},
					"t_uint256": {
						"encoding": "inplace",
						"label": "uint256",
						"numberOfBytes": "32"
					}
				}
			},
			"userdoc": {
				"kind": "user",
				"methods": {
					"confirmTransaction(bytes32)": {
						"notice": "Confirm a transaction."
					},
					"createTransaction(address,uint256,bytes)": {
						"notice": "Create a transaction for execution."
					},
					"getTransactionDetails(bytes32)": {
						"notice": "Get the transaction details."
					}
				},
				"version": 1
			}
		}
	}
}