{
	"contracts/utils/GasManager.sol": {
		"GasManager": {
			"abi": [
				{
					"anonymous": false,
					"inputs": [
						{
							"indexed": true,
							"internalType": "address",
							"name": "contractAddress",
							"type": "address"
						},
						{
							"indexed": false,
							"internalType": "uint256",
							"name": "newGasLimit",
							"type": "uint256"
						}
					],
					"name": "GasLimitUpdated",
					"type": "event"
				},
				{
					"anonymous": false,
					"inputs": [
						{
							"indexed": true,
							"internalType": "address",
							"name": "contractAddress",
							"type": "address"
						},
						{
							"indexed": false,
							"internalType": "uint256",
							"name": "gasUsed",
							"type": "uint256"
						},
						{
							"indexed": false,
							"internalType": "uint256",
							"name": "timestamp",
							"type": "uint256"
						}
					],
					"name": "GasUsageRecorded",
					"type": "event"
				},
				{
					"inputs": [],
					"name": "DEFAULT_GAS_LIMIT",
					"outputs": [
						{
							"internalType": "uint256",
							"name": "",
							"type": "uint256"
						}
					],
					"stateMutability": "view",
					"type": "function"
				},
				{
					"inputs": [
						{
							"internalType": "address",
							"name": "contractAddress",
							"type": "address"
						},
						{
							"internalType": "bytes",
							"name": "data",
							"type": "bytes"
						}
					],
					"name": "estimateGasUsage",
					"outputs": [
						{
							"internalType": "uint256",
							"name": "",
							"type": "uint256"
						}
					],
					"stateMutability": "view",
					"type": "function"
				},
				{
					"inputs": [
						{
							"internalType": "address",
							"name": "",
							"type": "address"
						}
					],
					"name": "gasLimits",
					"outputs": [
						{
							"internalType": "uint256",
							"name": "",
							"type": "uint256"
						}
					],
					"stateMutability": "view",
					"type": "function"
				},
				{
					"inputs": [
						{
							"internalType": "address",
							"name": "",
							"type": "address"
						},
						{
							"internalType": "uint256",
							"name": "",
							"type": "uint256"
						}
					],
					"name": "gasUsageRecords",
					"outputs": [
						{
							"internalType": "uint256",
							"name": "",
							"type": "uint256"
						}
					],
					"stateMutability": "view",
					"type": "function"
				},
				{
					"inputs": [
						{
							"internalType": "address",
							"name": "contractAddress",
							"type": "address"
						}
					],
					"name": "getGasLimit",
					"outputs": [
						{
							"internalType": "uint256",
							"name": "",
							"type": "uint256"
						}
					],
					"stateMutability": "view",
					"type": "function"
				},
				{
					"inputs": [
						{
							"internalType": "address",
							"name": "contractAddress",
							"type": "address"
						}
					],
					"name": "getGasUsageRecords",
					"outputs": [
						{
							"internalType": "uint256[]",
							"name": "",
							"type": "uint256[]"
						}
					],
					"stateMutability": "view",
					"type": "function"
				},
				{
					"inputs": [
						{
							"internalType": "address",
							"name": "contractAddress",
							"type": "address"
						},
						{
							"internalType": "uint256",
							"name": "gasUsed",
							"type": "uint256"
						}
					],
					"name": "recordGasUsage",
					"outputs": [],
					"stateMutability": "nonpayable",
					"type": "function"
				},
				{
					"inputs": [
						{
							"internalType": "address",
							"name": "contractAddress",
							"type": "address"
						},
						{
							"internalType": "uint256",
							"name": "newGasLimit",
							"type": "uint256"
						}
					],
					"name": "setGasLimit",
					"outputs": [],
					"stateMutability": "nonpayable",
					"type": "function"
				}
			],
			"devdoc": {
				"details": "Manages and optimizes gas usage for transactions.",
				"kind": "dev",
				"methods": {
					"estimateGasUsage(address,bytes)": {
						"params": {
							"contractAddress": "Address of the contract.",
							"data": "Call data for the transaction."
						},
						"returns": {
							"_0": "Estimated gas usage for the transaction."
						}
					},
					"getGasLimit(address)": {
						"params": {
							"contractAddress": "Address of the contract."
						},
						"returns": {
							"_0": "The gas limit for the contract."
						}
					},
					"getGasUsageRecords(address)": {
						"params": {
							"contractAddress": "Address of the contract."
						},
						"returns": {
							"_0": "Array of recorded gas usage values."
						}
					},
					"recordGasUsage(address,uint256)": {
						"params": {
							"contractAddress": "Address of the contract.",
							"gasUsed": "Amount of gas used in a transaction."
						}
					},
					"setGasLimit(address,uint256)": {
						"params": {
							"contractAddress": "Address of the contract.",
							"newGasLimit": "New gas limit to set."
						}
					}
				},
				"title": "GasManager",
				"version": 1
			},
			"evm": {
				"assembly": "    /* \"contracts/utils/GasManager.sol\":145:3084  contract GasManager {... */\n  mstore(0x40, 0x80)\n  callvalue\n  dup1\n  iszero\n  tag_1\n  jumpi\n  0x00\n  dup1\n  revert\ntag_1:\n  pop\n  dataSize(sub_0)\n  dup1\n  dataOffset(sub_0)\n  0x00\n  codecopy\n  0x00\n  return\nstop\n\nsub_0: assembly {\n        /* \"contracts/utils/GasManager.sol\":145:3084  contract GasManager {... */\n      mstore(0x40, 0x80)\n      callvalue\n      dup1\n      iszero\n      tag_1\n      jumpi\n      0x00\n      dup1\n      revert\n    tag_1:\n      pop\n      jumpi(tag_2, lt(calldatasize, 0x04))\n      shr(0xe0, calldataload(0x00))\n      dup1\n      0xcb75efac\n      gt\n      tag_11\n      jumpi\n      dup1\n      0xcb75efac\n      eq\n      tag_7\n      jumpi\n      dup1\n      0xce5ac327\n      eq\n      tag_8\n      jumpi\n      dup1\n      0xd6be695a\n      eq\n      tag_9\n      jumpi\n      dup1\n      0xf757a632\n      eq\n      tag_10\n      jumpi\n      jump(tag_2)\n    tag_11:\n      dup1\n      0x06d2a1c3\n      eq\n      tag_3\n      jumpi\n      dup1\n      0x17b04a33\n      eq\n      tag_4\n      jumpi\n      dup1\n      0xbfd008dc\n      eq\n      tag_5\n      jumpi\n      dup1\n      0xc7c8459a\n      eq\n      tag_6\n      jumpi\n    tag_2:\n      0x00\n      dup1\n      revert\n        /* \"contracts/utils/GasManager.sol\":1660:1968  function recordGasUsage(address contractAddress, uint256 gasUsed) external {... */\n    tag_3:\n      tag_12\n      0x04\n      dup1\n      calldatasize\n      sub\n      dup2\n      add\n      swap1\n      tag_13\n      swap2\n      swap1\n      tag_14\n      jump\t// in\n    tag_13:\n      tag_15\n      jump\t// in\n    tag_12:\n      stop\n        /* \"contracts/utils/GasManager.sol\":2154:2304  function getGasUsageRecords(address contractAddress) external view returns (uint256[] memory) {... */\n    tag_4:\n      tag_16\n      0x04\n      dup1\n      calldatasize\n      sub\n      dup2\n      add\n      swap1\n      tag_17\n      swap2\n      swap1\n      tag_18\n      jump\t// in\n    tag_17:\n      tag_19\n      jump\t// in\n    tag_16:\n      mload(0x40)\n      tag_20\n      swap2\n      swap1\n      tag_21\n      jump\t// in\n    tag_20:\n      mload(0x40)\n      dup1\n      swap2\n      sub\n      swap1\n      return\n        /* \"contracts/utils/GasManager.sol\":2540:3082  function estimateGasUsage(address contractAddress, bytes calldata data) external view returns (uint256) {... */\n    tag_5:\n      tag_22\n      0x04\n      dup1\n      calldatasize\n      sub\n      dup2\n      add\n      swap1\n      tag_23\n      swap2\n      swap1\n      tag_24\n      jump\t// in\n    tag_23:\n      tag_25\n      jump\t// in\n    tag_22:\n      mload(0x40)\n      tag_26\n      swap2\n      swap1\n      tag_27\n      jump\t// in\n    tag_26:\n      mload(0x40)\n      dup1\n      swap2\n      sub\n      swap1\n      return\n        /* \"contracts/utils/GasManager.sol\":773:1123  function setGasLimit(address contractAddress, uint256 newGasLimit) external {... */\n    tag_6:\n      tag_28\n      0x04\n      dup1\n      calldatasize\n      sub\n      dup2\n      add\n      swap1\n      tag_29\n      swap2\n      swap1\n      tag_14\n      jump\t// in\n    tag_29:\n      tag_30\n      jump\t// in\n    tag_28:\n      stop\n        /* \"contracts/utils/GasManager.sol\":1296:1476  function getGasLimit(address contractAddress) public view returns (uint256) {... */\n    tag_7:\n      tag_31\n      0x04\n      dup1\n      calldatasize\n      sub\n      dup2\n      add\n      swap1\n      tag_32\n      swap2\n      swap1\n      tag_18\n      jump\t// in\n    tag_32:\n      tag_33\n      jump\t// in\n    tag_31:\n      mload(0x40)\n      tag_34\n      swap2\n      swap1\n      tag_27\n      jump\t// in\n    tag_34:\n      mload(0x40)\n      dup1\n      swap2\n      sub\n      swap1\n      return\n        /* \"contracts/utils/GasManager.sol\":387:431  mapping(address => uint256) public gasLimits */\n    tag_8:\n      tag_35\n      0x04\n      dup1\n      calldatasize\n      sub\n      dup2\n      add\n      swap1\n      tag_36\n      swap2\n      swap1\n      tag_18\n      jump\t// in\n    tag_36:\n      tag_37\n      jump\t// in\n    tag_35:\n      mload(0x40)\n      tag_38\n      swap2\n      swap1\n      tag_27\n      jump\t// in\n    tag_38:\n      mload(0x40)\n      dup1\n      swap2\n      sub\n      swap1\n      return\n        /* \"contracts/utils/GasManager.sol\":513:564  uint256 public constant DEFAULT_GAS_LIMIT = 3000000 */\n    tag_9:\n      tag_39\n      tag_40\n      jump\t// in\n    tag_39:\n      mload(0x40)\n      tag_41\n      swap2\n      swap1\n      tag_27\n      jump\t// in\n    tag_41:\n      mload(0x40)\n      dup1\n      swap2\n      sub\n      swap1\n      return\n        /* \"contracts/utils/GasManager.sol\":437:489  mapping(address => uint256[]) public gasUsageRecords */\n    tag_10:\n      tag_42\n      0x04\n      dup1\n      calldatasize\n      sub\n      dup2\n      add\n      swap1\n      tag_43\n      swap2\n      swap1\n      tag_14\n      jump\t// in\n    tag_43:\n      tag_44\n      jump\t// in\n    tag_42:\n      mload(0x40)\n      tag_45\n      swap2\n      swap1\n      tag_27\n      jump\t// in\n    tag_45:\n      mload(0x40)\n      dup1\n      swap2\n      sub\n      swap1\n      return\n        /* \"contracts/utils/GasManager.sol\":1660:1968  function recordGasUsage(address contractAddress, uint256 gasUsed) external {... */\n    tag_15:\n        /* \"contracts/utils/GasManager.sol\":1840:1855  gasUsageRecords */\n      0x01\n        /* \"contracts/utils/GasManager.sol\":1840:1872  gasUsageRecords[contractAddress] */\n      0x00\n        /* \"contracts/utils/GasManager.sol\":1856:1871  contractAddress */\n      dup4\n        /* \"contracts/utils/GasManager.sol\":1840:1872  gasUsageRecords[contractAddress] */\n      0xffffffffffffffffffffffffffffffffffffffff\n      and\n      0xffffffffffffffffffffffffffffffffffffffff\n      and\n      dup2\n      mstore\n      0x20\n      add\n      swap1\n      dup2\n      mstore\n      0x20\n      add\n      0x00\n      keccak256\n        /* \"contracts/utils/GasManager.sol\":1878:1885  gasUsed */\n      dup2\n        /* \"contracts/utils/GasManager.sol\":1840:1886  gasUsageRecords[contractAddress].push(gasUsed) */\n      swap1\n      dup1\n      0x01\n      dup2\n      sload\n      add\n      dup1\n      dup3\n      sstore\n      dup1\n      swap2\n      pop\n      pop\n      0x01\n      swap1\n      sub\n      swap1\n      0x00\n      mstore\n      keccak256(0x00, 0x20)\n      add\n      0x00\n      swap1\n      swap2\n      swap1\n      swap2\n      swap1\n      swap2\n      pop\n      sstore\n        /* \"contracts/utils/GasManager.sol\":1919:1934  contractAddress */\n      dup2\n        /* \"contracts/utils/GasManager.sol\":1902:1961  GasUsageRecorded(contractAddress, gasUsed, block.timestamp) */\n      0xffffffffffffffffffffffffffffffffffffffff\n      and\n      0x439f90badf38d3970f50605068ccc1a253300e9dc12f024016780b5201dad981\n        /* \"contracts/utils/GasManager.sol\":1936:1943  gasUsed */\n      dup3\n        /* \"contracts/utils/GasManager.sol\":1945:1960  block.timestamp */\n      timestamp\n        /* \"contracts/utils/GasManager.sol\":1902:1961  GasUsageRecorded(contractAddress, gasUsed, block.timestamp) */\n      mload(0x40)\n      tag_48\n      swap3\n      swap2\n      swap1\n      tag_49\n      jump\t// in\n    tag_48:\n      mload(0x40)\n      dup1\n      swap2\n      sub\n      swap1\n      log2\n        /* \"contracts/utils/GasManager.sol\":1660:1968  function recordGasUsage(address contractAddress, uint256 gasUsed) external {... */\n      pop\n      pop\n      jump\t// out\n        /* \"contracts/utils/GasManager.sol\":2154:2304  function getGasUsageRecords(address contractAddress) external view returns (uint256[] memory) {... */\n    tag_19:\n        /* \"contracts/utils/GasManager.sol\":2230:2246  uint256[] memory */\n      0x60\n        /* \"contracts/utils/GasManager.sol\":2265:2280  gasUsageRecords */\n      0x01\n        /* \"contracts/utils/GasManager.sol\":2265:2297  gasUsageRecords[contractAddress] */\n      0x00\n        /* \"contracts/utils/GasManager.sol\":2281:2296  contractAddress */\n      dup4\n        /* \"contracts/utils/GasManager.sol\":2265:2297  gasUsageRecords[contractAddress] */\n      0xffffffffffffffffffffffffffffffffffffffff\n      and\n      0xffffffffffffffffffffffffffffffffffffffff\n      and\n      dup2\n      mstore\n      0x20\n      add\n      swap1\n      dup2\n      mstore\n      0x20\n      add\n      0x00\n      keccak256\n        /* \"contracts/utils/GasManager.sol\":2258:2297  return gasUsageRecords[contractAddress] */\n      dup1\n      sload\n      dup1\n      0x20\n      mul\n      0x20\n      add\n      mload(0x40)\n      swap1\n      dup2\n      add\n      0x40\n      mstore\n      dup1\n      swap3\n      swap2\n      swap1\n      dup2\n      dup2\n      mstore\n      0x20\n      add\n      dup3\n      dup1\n      sload\n      dup1\n      iszero\n      tag_51\n      jumpi\n      0x20\n      mul\n      dup3\n      add\n      swap2\n      swap1\n      0x00\n      mstore\n      keccak256(0x00, 0x20)\n      swap1\n    tag_52:\n      dup2\n      sload\n      dup2\n      mstore\n      0x20\n      add\n      swap1\n      0x01\n      add\n      swap1\n      dup1\n      dup4\n      gt\n      tag_52\n      jumpi\n    tag_51:\n      pop\n      pop\n      pop\n      pop\n      pop\n      swap1\n      pop\n        /* \"contracts/utils/GasManager.sol\":2154:2304  function getGasUsageRecords(address contractAddress) external view returns (uint256[] memory) {... */\n      swap2\n      swap1\n      pop\n      jump\t// out\n        /* \"contracts/utils/GasManager.sol\":2540:3082  function estimateGasUsage(address contractAddress, bytes calldata data) external view returns (uint256) {... */\n    tag_25:\n        /* \"contracts/utils/GasManager.sol\":2635:2642  uint256 */\n      0x00\n        /* \"contracts/utils/GasManager.sol\":2654:2670  uint256 gasLimit */\n      dup1\n        /* \"contracts/utils/GasManager.sol\":2673:2701  getGasLimit(contractAddress) */\n      tag_54\n        /* \"contracts/utils/GasManager.sol\":2685:2700  contractAddress */\n      dup6\n        /* \"contracts/utils/GasManager.sol\":2673:2684  getGasLimit */\n      tag_33\n        /* \"contracts/utils/GasManager.sol\":2673:2701  getGasLimit(contractAddress) */\n      jump\t// in\n    tag_54:\n        /* \"contracts/utils/GasManager.sol\":2654:2701  uint256 gasLimit = getGasLimit(contractAddress) */\n      swap1\n      pop\n        /* \"contracts/utils/GasManager.sol\":2763:2775  bool success */\n      0x00\n        /* \"contracts/utils/GasManager.sol\":2777:2796  bytes memory result */\n      dup1\n        /* \"contracts/utils/GasManager.sol\":2800:2815  contractAddress */\n      dup7\n        /* \"contracts/utils/GasManager.sol\":2800:2826  contractAddress.staticcall */\n      0xffffffffffffffffffffffffffffffffffffffff\n      and\n        /* \"contracts/utils/GasManager.sol\":2832:2840  gasLimit */\n      dup4\n        /* \"contracts/utils/GasManager.sol\":2842:2846  data */\n      dup8\n      dup8\n        /* \"contracts/utils/GasManager.sol\":2800:2847  contractAddress.staticcall{gas: gasLimit}(data) */\n      mload(0x40)\n      tag_55\n      swap3\n      swap2\n      swap1\n      tag_56\n      jump\t// in\n    tag_55:\n      0x00\n      mload(0x40)\n      dup1\n      dup4\n      sub\n      dup2\n      dup7\n      dup7\n      staticcall\n      swap3\n      pop\n      pop\n      pop\n      returndatasize\n      dup1\n      0x00\n      dup2\n      eq\n      tag_59\n      jumpi\n      mload(0x40)\n      swap2\n      pop\n      and(add(returndatasize, 0x3f), not(0x1f))\n      dup3\n      add\n      0x40\n      mstore\n      returndatasize\n      dup3\n      mstore\n      returndatasize\n      0x00\n      0x20\n      dup5\n      add\n      returndatacopy\n      jump(tag_58)\n    tag_59:\n      0x60\n      swap2\n      pop\n    tag_58:\n      pop\n        /* \"contracts/utils/GasManager.sol\":2762:2847  (bool success, bytes memory result) = contractAddress.staticcall{gas: gasLimit}(data) */\n      swap2\n      pop\n      swap2\n      pop\n        /* \"contracts/utils/GasManager.sol\":2865:2872  success */\n      dup2\n        /* \"contracts/utils/GasManager.sol\":2857:2905  require(success, \"Failed to estimate gas usage\") */\n      tag_60\n      jumpi\n      mload(0x40)\n      0x08c379a000000000000000000000000000000000000000000000000000000000\n      dup2\n      mstore\n      0x04\n      add\n      tag_61\n      swap1\n      tag_62\n      jump\t// in\n    tag_61:\n      mload(0x40)\n      dup1\n      swap2\n      sub\n      swap1\n      revert\n    tag_60:\n        /* \"contracts/utils/GasManager.sol\":3004:3019  uint256 gasUsed */\n      0x00\n        /* \"contracts/utils/GasManager.sol\":3033:3039  result */\n      dup2\n        /* \"contracts/utils/GasManager.sol\":3022:3051  abi.decode(result, (uint256)) */\n      dup1\n      0x20\n      add\n      swap1\n      mload\n      dup2\n      add\n      swap1\n      tag_63\n      swap2\n      swap1\n      tag_64\n      jump\t// in\n    tag_63:\n        /* \"contracts/utils/GasManager.sol\":3004:3051  uint256 gasUsed = abi.decode(result, (uint256)) */\n      swap1\n      pop\n        /* \"contracts/utils/GasManager.sol\":3068:3075  gasUsed */\n      dup1\n        /* \"contracts/utils/GasManager.sol\":3061:3075  return gasUsed */\n      swap5\n      pop\n      pop\n      pop\n      pop\n      pop\n        /* \"contracts/utils/GasManager.sol\":2540:3082  function estimateGasUsage(address contractAddress, bytes calldata data) external view returns (uint256) {... */\n      swap4\n      swap3\n      pop\n      pop\n      pop\n      jump\t// out\n        /* \"contracts/utils/GasManager.sol\":773:1123  function setGasLimit(address contractAddress, uint256 newGasLimit) external {... */\n    tag_30:\n        /* \"contracts/utils/GasManager.sol\":964:965  0 */\n      0x00\n        /* \"contracts/utils/GasManager.sol\":950:961  newGasLimit */\n      dup2\n        /* \"contracts/utils/GasManager.sol\":950:965  newGasLimit > 0 */\n      gt\n        /* \"contracts/utils/GasManager.sol\":942:1005  require(newGasLimit > 0, \"Gas limit must be greater than zero\") */\n      tag_66\n      jumpi\n      mload(0x40)\n      0x08c379a000000000000000000000000000000000000000000000000000000000\n      dup2\n      mstore\n      0x04\n      add\n      tag_67\n      swap1\n      tag_68\n      jump\t// in\n    tag_67:\n      mload(0x40)\n      dup1\n      swap2\n      sub\n      swap1\n      revert\n    tag_66:\n        /* \"contracts/utils/GasManager.sol\":1044:1055  newGasLimit */\n      dup1\n        /* \"contracts/utils/GasManager.sol\":1015:1024  gasLimits */\n      0x00\n        /* \"contracts/utils/GasManager.sol\":1015:1041  gasLimits[contractAddress] */\n      dup1\n        /* \"contracts/utils/GasManager.sol\":1025:1040  contractAddress */\n      dup5\n        /* \"contracts/utils/GasManager.sol\":1015:1041  gasLimits[contractAddress] */\n      0xffffffffffffffffffffffffffffffffffffffff\n      and\n      0xffffffffffffffffffffffffffffffffffffffff\n      and\n      dup2\n      mstore\n      0x20\n      add\n      swap1\n      dup2\n      mstore\n      0x20\n      add\n      0x00\n      keccak256\n        /* \"contracts/utils/GasManager.sol\":1015:1055  gasLimits[contractAddress] = newGasLimit */\n      dup2\n      swap1\n      sstore\n      pop\n        /* \"contracts/utils/GasManager.sol\":1087:1102  contractAddress */\n      dup2\n        /* \"contracts/utils/GasManager.sol\":1071:1116  GasLimitUpdated(contractAddress, newGasLimit) */\n      0xffffffffffffffffffffffffffffffffffffffff\n      and\n      0x0665c7e38bc9150441c6581c0f1c5f26e868d5fed825451289170ce2111b41a3\n        /* \"contracts/utils/GasManager.sol\":1104:1115  newGasLimit */\n      dup3\n        /* \"contracts/utils/GasManager.sol\":1071:1116  GasLimitUpdated(contractAddress, newGasLimit) */\n      mload(0x40)\n      tag_69\n      swap2\n      swap1\n      tag_27\n      jump\t// in\n    tag_69:\n      mload(0x40)\n      dup1\n      swap2\n      sub\n      swap1\n      log2\n        /* \"contracts/utils/GasManager.sol\":773:1123  function setGasLimit(address contractAddress, uint256 newGasLimit) external {... */\n      pop\n      pop\n      jump\t// out\n        /* \"contracts/utils/GasManager.sol\":1296:1476  function getGasLimit(address contractAddress) public view returns (uint256) {... */\n    tag_33:\n        /* \"contracts/utils/GasManager.sol\":1363:1370  uint256 */\n      0x00\n        /* \"contracts/utils/GasManager.sol\":1419:1420  0 */\n      dup1\n        /* \"contracts/utils/GasManager.sol\":1389:1398  gasLimits */\n      0x00\n        /* \"contracts/utils/GasManager.sol\":1389:1415  gasLimits[contractAddress] */\n      dup1\n        /* \"contracts/utils/GasManager.sol\":1399:1414  contractAddress */\n      dup5\n        /* \"contracts/utils/GasManager.sol\":1389:1415  gasLimits[contractAddress] */\n      0xffffffffffffffffffffffffffffffffffffffff\n      and\n      0xffffffffffffffffffffffffffffffffffffffff\n      and\n      dup2\n      mstore\n      0x20\n      add\n      swap1\n      dup2\n      mstore\n      0x20\n      add\n      0x00\n      keccak256\n      sload\n        /* \"contracts/utils/GasManager.sol\":1389:1420  gasLimits[contractAddress] == 0 */\n      eq\n        /* \"contracts/utils/GasManager.sol\":1389:1469  gasLimits[contractAddress] == 0 ? DEFAULT_GAS_LIMIT : gasLimits[contractAddress] */\n      tag_71\n      jumpi\n        /* \"contracts/utils/GasManager.sol\":1443:1452  gasLimits */\n      0x00\n        /* \"contracts/utils/GasManager.sol\":1443:1469  gasLimits[contractAddress] */\n      dup1\n        /* \"contracts/utils/GasManager.sol\":1453:1468  contractAddress */\n      dup4\n        /* \"contracts/utils/GasManager.sol\":1443:1469  gasLimits[contractAddress] */\n      0xffffffffffffffffffffffffffffffffffffffff\n      and\n      0xffffffffffffffffffffffffffffffffffffffff\n      and\n      dup2\n      mstore\n      0x20\n      add\n      swap1\n      dup2\n      mstore\n      0x20\n      add\n      0x00\n      keccak256\n      sload\n        /* \"contracts/utils/GasManager.sol\":1389:1469  gasLimits[contractAddress] == 0 ? DEFAULT_GAS_LIMIT : gasLimits[contractAddress] */\n      jump(tag_72)\n    tag_71:\n        /* \"contracts/utils/GasManager.sol\":557:564  3000000 */\n      0x2dc6c0\n        /* \"contracts/utils/GasManager.sol\":1389:1469  gasLimits[contractAddress] == 0 ? DEFAULT_GAS_LIMIT : gasLimits[contractAddress] */\n    tag_72:\n        /* \"contracts/utils/GasManager.sol\":1382:1469  return gasLimits[contractAddress] == 0 ? DEFAULT_GAS_LIMIT : gasLimits[contractAddress] */\n      swap1\n      pop\n        /* \"contracts/utils/GasManager.sol\":1296:1476  function getGasLimit(address contractAddress) public view returns (uint256) {... */\n      swap2\n      swap1\n      pop\n      jump\t// out\n        /* \"contracts/utils/GasManager.sol\":387:431  mapping(address => uint256) public gasLimits */\n    tag_37:\n      mstore(0x20, 0x00)\n      dup1\n      0x00\n      mstore\n      keccak256(0x00, 0x40)\n      0x00\n      swap2\n      pop\n      swap1\n      pop\n      sload\n      dup2\n      jump\t// out\n        /* \"contracts/utils/GasManager.sol\":513:564  uint256 public constant DEFAULT_GAS_LIMIT = 3000000 */\n    tag_40:\n        /* \"contracts/utils/GasManager.sol\":557:564  3000000 */\n      0x2dc6c0\n        /* \"contracts/utils/GasManager.sol\":513:564  uint256 public constant DEFAULT_GAS_LIMIT = 3000000 */\n      dup2\n      jump\t// out\n        /* \"contracts/utils/GasManager.sol\":437:489  mapping(address => uint256[]) public gasUsageRecords */\n    tag_44:\n      mstore(0x20, 0x01)\n      dup2\n      0x00\n      mstore\n      keccak256(0x00, 0x40)\n      dup2\n      dup2\n      sload\n      dup2\n      lt\n      tag_73\n      jumpi\n      0x00\n      dup1\n      revert\n    tag_73:\n      swap1\n      0x00\n      mstore\n      keccak256(0x00, 0x20)\n      add\n      0x00\n      swap2\n      pop\n      swap2\n      pop\n      pop\n      sload\n      dup2\n      jump\t// out\n        /* \"#utility.yul\":88:205   */\n    tag_76:\n        /* \"#utility.yul\":197:198   */\n      0x00\n        /* \"#utility.yul\":194:195   */\n      dup1\n        /* \"#utility.yul\":187:199   */\n      revert\n        /* \"#utility.yul\":211:328   */\n    tag_77:\n        /* \"#utility.yul\":320:321   */\n      0x00\n        /* \"#utility.yul\":317:318   */\n      dup1\n        /* \"#utility.yul\":310:322   */\n      revert\n        /* \"#utility.yul\":334:460   */\n    tag_78:\n        /* \"#utility.yul\":371:378   */\n      0x00\n        /* \"#utility.yul\":411:453   */\n      0xffffffffffffffffffffffffffffffffffffffff\n        /* \"#utility.yul\":404:409   */\n      dup3\n        /* \"#utility.yul\":400:454   */\n      and\n        /* \"#utility.yul\":389:454   */\n      swap1\n      pop\n        /* \"#utility.yul\":334:460   */\n      swap2\n      swap1\n      pop\n      jump\t// out\n        /* \"#utility.yul\":466:562   */\n    tag_79:\n        /* \"#utility.yul\":503:510   */\n      0x00\n        /* \"#utility.yul\":532:556   */\n      tag_112\n        /* \"#utility.yul\":550:555   */\n      dup3\n        /* \"#utility.yul\":532:556   */\n      tag_78\n      jump\t// in\n    tag_112:\n        /* \"#utility.yul\":521:556   */\n      swap1\n      pop\n        /* \"#utility.yul\":466:562   */\n      swap2\n      swap1\n      pop\n      jump\t// out\n        /* \"#utility.yul\":568:690   */\n    tag_80:\n        /* \"#utility.yul\":641:665   */\n      tag_114\n        /* \"#utility.yul\":659:664   */\n      dup2\n        /* \"#utility.yul\":641:665   */\n      tag_79\n      jump\t// in\n    tag_114:\n        /* \"#utility.yul\":634:639   */\n      dup2\n        /* \"#utility.yul\":631:666   */\n      eq\n        /* \"#utility.yul\":621:684   */\n      tag_115\n      jumpi\n        /* \"#utility.yul\":680:681   */\n      0x00\n        /* \"#utility.yul\":677:678   */\n      dup1\n        /* \"#utility.yul\":670:682   */\n      revert\n        /* \"#utility.yul\":621:684   */\n    tag_115:\n        /* \"#utility.yul\":568:690   */\n      pop\n      jump\t// out\n        /* \"#utility.yul\":696:835   */\n    tag_81:\n        /* \"#utility.yul\":742:747   */\n      0x00\n        /* \"#utility.yul\":780:786   */\n      dup2\n        /* \"#utility.yul\":767:787   */\n      calldataload\n        /* \"#utility.yul\":758:787   */\n      swap1\n      pop\n        /* \"#utility.yul\":796:829   */\n      tag_117\n        /* \"#utility.yul\":823:828   */\n      dup2\n        /* \"#utility.yul\":796:829   */\n      tag_80\n      jump\t// in\n    tag_117:\n        /* \"#utility.yul\":696:835   */\n      swap3\n      swap2\n      pop\n      pop\n      jump\t// out\n        /* \"#utility.yul\":841:918   */\n    tag_82:\n        /* \"#utility.yul\":878:885   */\n      0x00\n        /* \"#utility.yul\":907:912   */\n      dup2\n        /* \"#utility.yul\":896:912   */\n      swap1\n      pop\n        /* \"#utility.yul\":841:918   */\n      swap2\n      swap1\n      pop\n      jump\t// out\n        /* \"#utility.yul\":924:1046   */\n    tag_83:\n        /* \"#utility.yul\":997:1021   */\n      tag_120\n        /* \"#utility.yul\":1015:1020   */\n      dup2\n        /* \"#utility.yul\":997:1021   */\n      tag_82\n      jump\t// in\n    tag_120:\n        /* \"#utility.yul\":990:995   */\n      dup2\n        /* \"#utility.yul\":987:1022   */\n      eq\n        /* \"#utility.yul\":977:1040   */\n      tag_121\n      jumpi\n        /* \"#utility.yul\":1036:1037   */\n      0x00\n        /* \"#utility.yul\":1033:1034   */\n      dup1\n        /* \"#utility.yul\":1026:1038   */\n      revert\n        /* \"#utility.yul\":977:1040   */\n    tag_121:\n        /* \"#utility.yul\":924:1046   */\n      pop\n      jump\t// out\n        /* \"#utility.yul\":1052:1191   */\n    tag_84:\n        /* \"#utility.yul\":1098:1103   */\n      0x00\n        /* \"#utility.yul\":1136:1142   */\n      dup2\n        /* \"#utility.yul\":1123:1143   */\n      calldataload\n        /* \"#utility.yul\":1114:1143   */\n      swap1\n      pop\n        /* \"#utility.yul\":1152:1185   */\n      tag_123\n        /* \"#utility.yul\":1179:1184   */\n      dup2\n        /* \"#utility.yul\":1152:1185   */\n      tag_83\n      jump\t// in\n    tag_123:\n        /* \"#utility.yul\":1052:1191   */\n      swap3\n      swap2\n      pop\n      pop\n      jump\t// out\n        /* \"#utility.yul\":1197:1671   */\n    tag_14:\n        /* \"#utility.yul\":1265:1271   */\n      0x00\n        /* \"#utility.yul\":1273:1279   */\n      dup1\n        /* \"#utility.yul\":1322:1324   */\n      0x40\n        /* \"#utility.yul\":1310:1319   */\n      dup4\n        /* \"#utility.yul\":1301:1308   */\n      dup6\n        /* \"#utility.yul\":1297:1320   */\n      sub\n        /* \"#utility.yul\":1293:1325   */\n      slt\n        /* \"#utility.yul\":1290:1409   */\n      iszero\n      tag_125\n      jumpi\n        /* \"#utility.yul\":1328:1407   */\n      tag_126\n      tag_76\n      jump\t// in\n    tag_126:\n        /* \"#utility.yul\":1290:1409   */\n    tag_125:\n        /* \"#utility.yul\":1448:1449   */\n      0x00\n        /* \"#utility.yul\":1473:1526   */\n      tag_127\n        /* \"#utility.yul\":1518:1525   */\n      dup6\n        /* \"#utility.yul\":1509:1515   */\n      dup3\n        /* \"#utility.yul\":1498:1507   */\n      dup7\n        /* \"#utility.yul\":1494:1516   */\n      add\n        /* \"#utility.yul\":1473:1526   */\n      tag_81\n      jump\t// in\n    tag_127:\n        /* \"#utility.yul\":1463:1526   */\n      swap3\n      pop\n        /* \"#utility.yul\":1419:1536   */\n      pop\n        /* \"#utility.yul\":1575:1577   */\n      0x20\n        /* \"#utility.yul\":1601:1654   */\n      tag_128\n        /* \"#utility.yul\":1646:1653   */\n      dup6\n        /* \"#utility.yul\":1637:1643   */\n      dup3\n        /* \"#utility.yul\":1626:1635   */\n      dup7\n        /* \"#utility.yul\":1622:1644   */\n      add\n        /* \"#utility.yul\":1601:1654   */\n      tag_84\n      jump\t// in\n    tag_128:\n        /* \"#utility.yul\":1591:1654   */\n      swap2\n      pop\n        /* \"#utility.yul\":1546:1664   */\n      pop\n        /* \"#utility.yul\":1197:1671   */\n      swap3\n      pop\n      swap3\n      swap1\n      pop\n      jump\t// out\n        /* \"#utility.yul\":1677:2006   */\n    tag_18:\n        /* \"#utility.yul\":1736:1742   */\n      0x00\n        /* \"#utility.yul\":1785:1787   */\n      0x20\n        /* \"#utility.yul\":1773:1782   */\n      dup3\n        /* \"#utility.yul\":1764:1771   */\n      dup5\n        /* \"#utility.yul\":1760:1783   */\n      sub\n        /* \"#utility.yul\":1756:1788   */\n      slt\n        /* \"#utility.yul\":1753:1872   */\n      iszero\n      tag_130\n      jumpi\n        /* \"#utility.yul\":1791:1870   */\n      tag_131\n      tag_76\n      jump\t// in\n    tag_131:\n        /* \"#utility.yul\":1753:1872   */\n    tag_130:\n        /* \"#utility.yul\":1911:1912   */\n      0x00\n        /* \"#utility.yul\":1936:1989   */\n      tag_132\n        /* \"#utility.yul\":1981:1988   */\n      dup5\n        /* \"#utility.yul\":1972:1978   */\n      dup3\n        /* \"#utility.yul\":1961:1970   */\n      dup6\n        /* \"#utility.yul\":1957:1979   */\n      add\n        /* \"#utility.yul\":1936:1989   */\n      tag_81\n      jump\t// in\n    tag_132:\n        /* \"#utility.yul\":1926:1989   */\n      swap2\n      pop\n        /* \"#utility.yul\":1882:1999   */\n      pop\n        /* \"#utility.yul\":1677:2006   */\n      swap3\n      swap2\n      pop\n      pop\n      jump\t// out\n        /* \"#utility.yul\":2012:2126   */\n    tag_85:\n        /* \"#utility.yul\":2079:2085   */\n      0x00\n        /* \"#utility.yul\":2113:2118   */\n      dup2\n        /* \"#utility.yul\":2107:2119   */\n      mload\n        /* \"#utility.yul\":2097:2119   */\n      swap1\n      pop\n        /* \"#utility.yul\":2012:2126   */\n      swap2\n      swap1\n      pop\n      jump\t// out\n        /* \"#utility.yul\":2132:2316   */\n    tag_86:\n        /* \"#utility.yul\":2231:2242   */\n      0x00\n        /* \"#utility.yul\":2265:2271   */\n      dup3\n        /* \"#utility.yul\":2260:2263   */\n      dup3\n        /* \"#utility.yul\":2253:2272   */\n      mstore\n        /* \"#utility.yul\":2305:2309   */\n      0x20\n        /* \"#utility.yul\":2300:2303   */\n      dup3\n        /* \"#utility.yul\":2296:2310   */\n      add\n        /* \"#utility.yul\":2281:2310   */\n      swap1\n      pop\n        /* \"#utility.yul\":2132:2316   */\n      swap3\n      swap2\n      pop\n      pop\n      jump\t// out\n        /* \"#utility.yul\":2322:2454   */\n    tag_87:\n        /* \"#utility.yul\":2389:2393   */\n      0x00\n        /* \"#utility.yul\":2412:2415   */\n      dup2\n        /* \"#utility.yul\":2404:2415   */\n      swap1\n      pop\n        /* \"#utility.yul\":2442:2446   */\n      0x20\n        /* \"#utility.yul\":2437:2440   */\n      dup3\n        /* \"#utility.yul\":2433:2447   */\n      add\n        /* \"#utility.yul\":2425:2447   */\n      swap1\n      pop\n        /* \"#utility.yul\":2322:2454   */\n      swap2\n      swap1\n      pop\n      jump\t// out\n        /* \"#utility.yul\":2460:2568   */\n    tag_88:\n        /* \"#utility.yul\":2537:2561   */\n      tag_137\n        /* \"#utility.yul\":2555:2560   */\n      dup2\n        /* \"#utility.yul\":2537:2561   */\n      tag_82\n      jump\t// in\n    tag_137:\n        /* \"#utility.yul\":2532:2535   */\n      dup3\n        /* \"#utility.yul\":2525:2562   */\n      mstore\n        /* \"#utility.yul\":2460:2568   */\n      pop\n      pop\n      jump\t// out\n        /* \"#utility.yul\":2574:2753   */\n    tag_89:\n        /* \"#utility.yul\":2643:2653   */\n      0x00\n        /* \"#utility.yul\":2664:2710   */\n      tag_139\n        /* \"#utility.yul\":2706:2709   */\n      dup4\n        /* \"#utility.yul\":2698:2704   */\n      dup4\n        /* \"#utility.yul\":2664:2710   */\n      tag_88\n      jump\t// in\n    tag_139:\n        /* \"#utility.yul\":2742:2746   */\n      0x20\n        /* \"#utility.yul\":2737:2740   */\n      dup4\n        /* \"#utility.yul\":2733:2747   */\n      add\n        /* \"#utility.yul\":2719:2747   */\n      swap1\n      pop\n        /* \"#utility.yul\":2574:2753   */\n      swap3\n      swap2\n      pop\n      pop\n      jump\t// out\n        /* \"#utility.yul\":2759:2872   */\n    tag_90:\n        /* \"#utility.yul\":2829:2833   */\n      0x00\n        /* \"#utility.yul\":2861:2865   */\n      0x20\n        /* \"#utility.yul\":2856:2859   */\n      dup3\n        /* \"#utility.yul\":2852:2866   */\n      add\n        /* \"#utility.yul\":2844:2866   */\n      swap1\n      pop\n        /* \"#utility.yul\":2759:2872   */\n      swap2\n      swap1\n      pop\n      jump\t// out\n        /* \"#utility.yul\":2908:3640   */\n    tag_91:\n        /* \"#utility.yul\":3027:3030   */\n      0x00\n        /* \"#utility.yul\":3056:3110   */\n      tag_142\n        /* \"#utility.yul\":3104:3109   */\n      dup3\n        /* \"#utility.yul\":3056:3110   */\n      tag_85\n      jump\t// in\n    tag_142:\n        /* \"#utility.yul\":3126:3212   */\n      tag_143\n        /* \"#utility.yul\":3205:3211   */\n      dup2\n        /* \"#utility.yul\":3200:3203   */\n      dup6\n        /* \"#utility.yul\":3126:3212   */\n      tag_86\n      jump\t// in\n    tag_143:\n        /* \"#utility.yul\":3119:3212   */\n      swap4\n      pop\n        /* \"#utility.yul\":3236:3292   */\n      tag_144\n        /* \"#utility.yul\":3286:3291   */\n      dup4\n        /* \"#utility.yul\":3236:3292   */\n      tag_87\n      jump\t// in\n    tag_144:\n        /* \"#utility.yul\":3315:3322   */\n      dup1\n        /* \"#utility.yul\":3346:3347   */\n      0x00\n        /* \"#utility.yul\":3331:3615   */\n    tag_145:\n        /* \"#utility.yul\":3356:3362   */\n      dup4\n        /* \"#utility.yul\":3353:3354   */\n      dup2\n        /* \"#utility.yul\":3350:3363   */\n      lt\n        /* \"#utility.yul\":3331:3615   */\n      iszero\n      tag_147\n      jumpi\n        /* \"#utility.yul\":3432:3438   */\n      dup2\n        /* \"#utility.yul\":3426:3439   */\n      mload\n        /* \"#utility.yul\":3459:3522   */\n      tag_148\n        /* \"#utility.yul\":3518:3521   */\n      dup9\n        /* \"#utility.yul\":3503:3516   */\n      dup3\n        /* \"#utility.yul\":3459:3522   */\n      tag_89\n      jump\t// in\n    tag_148:\n        /* \"#utility.yul\":3452:3522   */\n      swap8\n      pop\n        /* \"#utility.yul\":3545:3605   */\n      tag_149\n        /* \"#utility.yul\":3598:3604   */\n      dup4\n        /* \"#utility.yul\":3545:3605   */\n      tag_90\n      jump\t// in\n    tag_149:\n        /* \"#utility.yul\":3535:3605   */\n      swap3\n      pop\n        /* \"#utility.yul\":3391:3615   */\n      pop\n        /* \"#utility.yul\":3378:3379   */\n      0x01\n        /* \"#utility.yul\":3375:3376   */\n      dup2\n        /* \"#utility.yul\":3371:3380   */\n      add\n        /* \"#utility.yul\":3366:3380   */\n      swap1\n      pop\n        /* \"#utility.yul\":3331:3615   */\n      jump(tag_145)\n    tag_147:\n        /* \"#utility.yul\":3335:3349   */\n      pop\n        /* \"#utility.yul\":3631:3634   */\n      dup6\n        /* \"#utility.yul\":3624:3634   */\n      swap4\n      pop\n        /* \"#utility.yul\":3032:3640   */\n      pop\n      pop\n      pop\n        /* \"#utility.yul\":2908:3640   */\n      swap3\n      swap2\n      pop\n      pop\n      jump\t// out\n        /* \"#utility.yul\":3646:4019   */\n    tag_21:\n        /* \"#utility.yul\":3789:3793   */\n      0x00\n        /* \"#utility.yul\":3827:3829   */\n      0x20\n        /* \"#utility.yul\":3816:3825   */\n      dup3\n        /* \"#utility.yul\":3812:3830   */\n      add\n        /* \"#utility.yul\":3804:3830   */\n      swap1\n      pop\n        /* \"#utility.yul\":3876:3885   */\n      dup2\n        /* \"#utility.yul\":3870:3874   */\n      dup2\n        /* \"#utility.yul\":3866:3886   */\n      sub\n        /* \"#utility.yul\":3862:3863   */\n      0x00\n        /* \"#utility.yul\":3851:3860   */\n      dup4\n        /* \"#utility.yul\":3847:3864   */\n      add\n        /* \"#utility.yul\":3840:3887   */\n      mstore\n        /* \"#utility.yul\":3904:4012   */\n      tag_151\n        /* \"#utility.yul\":4007:4011   */\n      dup2\n        /* \"#utility.yul\":3998:4004   */\n      dup5\n        /* \"#utility.yul\":3904:4012   */\n      tag_91\n      jump\t// in\n    tag_151:\n        /* \"#utility.yul\":3896:4012   */\n      swap1\n      pop\n        /* \"#utility.yul\":3646:4019   */\n      swap3\n      swap2\n      pop\n      pop\n      jump\t// out\n        /* \"#utility.yul\":4025:4142   */\n    tag_92:\n        /* \"#utility.yul\":4134:4135   */\n      0x00\n        /* \"#utility.yul\":4131:4132   */\n      dup1\n        /* \"#utility.yul\":4124:4136   */\n      revert\n        /* \"#utility.yul\":4148:4265   */\n    tag_93:\n        /* \"#utility.yul\":4257:4258   */\n      0x00\n        /* \"#utility.yul\":4254:4255   */\n      dup1\n        /* \"#utility.yul\":4247:4259   */\n      revert\n        /* \"#utility.yul\":4271:4388   */\n    tag_94:\n        /* \"#utility.yul\":4380:4381   */\n      0x00\n        /* \"#utility.yul\":4377:4378   */\n      dup1\n        /* \"#utility.yul\":4370:4382   */\n      revert\n        /* \"#utility.yul\":4407:4959   */\n    tag_95:\n        /* \"#utility.yul\":4464:4472   */\n      0x00\n        /* \"#utility.yul\":4474:4480   */\n      dup1\n        /* \"#utility.yul\":4524:4527   */\n      dup4\n        /* \"#utility.yul\":4517:4521   */\n      0x1f\n        /* \"#utility.yul\":4509:4515   */\n      dup5\n        /* \"#utility.yul\":4505:4522   */\n      add\n        /* \"#utility.yul\":4501:4528   */\n      slt\n        /* \"#utility.yul\":4491:4613   */\n      tag_156\n      jumpi\n        /* \"#utility.yul\":4532:4611   */\n      tag_157\n      tag_92\n      jump\t// in\n    tag_157:\n        /* \"#utility.yul\":4491:4613   */\n    tag_156:\n        /* \"#utility.yul\":4645:4651   */\n      dup3\n        /* \"#utility.yul\":4632:4652   */\n      calldataload\n        /* \"#utility.yul\":4622:4652   */\n      swap1\n      pop\n        /* \"#utility.yul\":4675:4693   */\n      0xffffffffffffffff\n        /* \"#utility.yul\":4667:4673   */\n      dup2\n        /* \"#utility.yul\":4664:4694   */\n      gt\n        /* \"#utility.yul\":4661:4778   */\n      iszero\n      tag_158\n      jumpi\n        /* \"#utility.yul\":4697:4776   */\n      tag_159\n      tag_93\n      jump\t// in\n    tag_159:\n        /* \"#utility.yul\":4661:4778   */\n    tag_158:\n        /* \"#utility.yul\":4811:4815   */\n      0x20\n        /* \"#utility.yul\":4803:4809   */\n      dup4\n        /* \"#utility.yul\":4799:4816   */\n      add\n        /* \"#utility.yul\":4787:4816   */\n      swap2\n      pop\n        /* \"#utility.yul\":4865:4868   */\n      dup4\n        /* \"#utility.yul\":4857:4861   */\n      0x01\n        /* \"#utility.yul\":4849:4855   */\n      dup3\n        /* \"#utility.yul\":4845:4862   */\n      mul\n        /* \"#utility.yul\":4835:4843   */\n      dup4\n        /* \"#utility.yul\":4831:4863   */\n      add\n        /* \"#utility.yul\":4828:4869   */\n      gt\n        /* \"#utility.yul\":4825:4953   */\n      iszero\n      tag_160\n      jumpi\n        /* \"#utility.yul\":4872:4951   */\n      tag_161\n      tag_94\n      jump\t// in\n    tag_161:\n        /* \"#utility.yul\":4825:4953   */\n    tag_160:\n        /* \"#utility.yul\":4407:4959   */\n      swap3\n      pop\n      swap3\n      swap1\n      pop\n      jump\t// out\n        /* \"#utility.yul\":4965:5637   */\n    tag_24:\n        /* \"#utility.yul\":5044:5050   */\n      0x00\n        /* \"#utility.yul\":5052:5058   */\n      dup1\n        /* \"#utility.yul\":5060:5066   */\n      0x00\n        /* \"#utility.yul\":5109:5111   */\n      0x40\n        /* \"#utility.yul\":5097:5106   */\n      dup5\n        /* \"#utility.yul\":5088:5095   */\n      dup7\n        /* \"#utility.yul\":5084:5107   */\n      sub\n        /* \"#utility.yul\":5080:5112   */\n      slt\n        /* \"#utility.yul\":5077:5196   */\n      iszero\n      tag_163\n      jumpi\n        /* \"#utility.yul\":5115:5194   */\n      tag_164\n      tag_76\n      jump\t// in\n    tag_164:\n        /* \"#utility.yul\":5077:5196   */\n    tag_163:\n        /* \"#utility.yul\":5235:5236   */\n      0x00\n        /* \"#utility.yul\":5260:5313   */\n      tag_165\n        /* \"#utility.yul\":5305:5312   */\n      dup7\n        /* \"#utility.yul\":5296:5302   */\n      dup3\n        /* \"#utility.yul\":5285:5294   */\n      dup8\n        /* \"#utility.yul\":5281:5303   */\n      add\n        /* \"#utility.yul\":5260:5313   */\n      tag_81\n      jump\t// in\n    tag_165:\n        /* \"#utility.yul\":5250:5313   */\n      swap4\n      pop\n        /* \"#utility.yul\":5206:5323   */\n      pop\n        /* \"#utility.yul\":5390:5392   */\n      0x20\n        /* \"#utility.yul\":5379:5388   */\n      dup5\n        /* \"#utility.yul\":5375:5393   */\n      add\n        /* \"#utility.yul\":5362:5394   */\n      calldataload\n        /* \"#utility.yul\":5421:5439   */\n      0xffffffffffffffff\n        /* \"#utility.yul\":5413:5419   */\n      dup2\n        /* \"#utility.yul\":5410:5440   */\n      gt\n        /* \"#utility.yul\":5407:5524   */\n      iszero\n      tag_166\n      jumpi\n        /* \"#utility.yul\":5443:5522   */\n      tag_167\n      tag_77\n      jump\t// in\n    tag_167:\n        /* \"#utility.yul\":5407:5524   */\n    tag_166:\n        /* \"#utility.yul\":5556:5620   */\n      tag_168\n        /* \"#utility.yul\":5612:5619   */\n      dup7\n        /* \"#utility.yul\":5603:5609   */\n      dup3\n        /* \"#utility.yul\":5592:5601   */\n      dup8\n        /* \"#utility.yul\":5588:5610   */\n      add\n        /* \"#utility.yul\":5556:5620   */\n      tag_95\n      jump\t// in\n    tag_168:\n        /* \"#utility.yul\":5538:5620   */\n      swap3\n      pop\n      swap3\n      pop\n        /* \"#utility.yul\":5333:5630   */\n      pop\n        /* \"#utility.yul\":4965:5637   */\n      swap3\n      pop\n      swap3\n      pop\n      swap3\n      jump\t// out\n        /* \"#utility.yul\":5643:5761   */\n    tag_96:\n        /* \"#utility.yul\":5730:5754   */\n      tag_170\n        /* \"#utility.yul\":5748:5753   */\n      dup2\n        /* \"#utility.yul\":5730:5754   */\n      tag_82\n      jump\t// in\n    tag_170:\n        /* \"#utility.yul\":5725:5728   */\n      dup3\n        /* \"#utility.yul\":5718:5755   */\n      mstore\n        /* \"#utility.yul\":5643:5761   */\n      pop\n      pop\n      jump\t// out\n        /* \"#utility.yul\":5767:5989   */\n    tag_27:\n        /* \"#utility.yul\":5860:5864   */\n      0x00\n        /* \"#utility.yul\":5898:5900   */\n      0x20\n        /* \"#utility.yul\":5887:5896   */\n      dup3\n        /* \"#utility.yul\":5883:5901   */\n      add\n        /* \"#utility.yul\":5875:5901   */\n      swap1\n      pop\n        /* \"#utility.yul\":5911:5982   */\n      tag_172\n        /* \"#utility.yul\":5979:5980   */\n      0x00\n        /* \"#utility.yul\":5968:5977   */\n      dup4\n        /* \"#utility.yul\":5964:5981   */\n      add\n        /* \"#utility.yul\":5955:5961   */\n      dup5\n        /* \"#utility.yul\":5911:5982   */\n      tag_96\n      jump\t// in\n    tag_172:\n        /* \"#utility.yul\":5767:5989   */\n      swap3\n      swap2\n      pop\n      pop\n      jump\t// out\n        /* \"#utility.yul\":5995:6327   */\n    tag_49:\n        /* \"#utility.yul\":6116:6120   */\n      0x00\n        /* \"#utility.yul\":6154:6156   */\n      0x40\n        /* \"#utility.yul\":6143:6152   */\n      dup3\n        /* \"#utility.yul\":6139:6157   */\n      add\n        /* \"#utility.yul\":6131:6157   */\n      swap1\n      pop\n        /* \"#utility.yul\":6167:6238   */\n      tag_174\n        /* \"#utility.yul\":6235:6236   */\n      0x00\n        /* \"#utility.yul\":6224:6233   */\n      dup4\n        /* \"#utility.yul\":6220:6237   */\n      add\n        /* \"#utility.yul\":6211:6217   */\n      dup6\n        /* \"#utility.yul\":6167:6238   */\n      tag_96\n      jump\t// in\n    tag_174:\n        /* \"#utility.yul\":6248:6320   */\n      tag_175\n        /* \"#utility.yul\":6316:6318   */\n      0x20\n        /* \"#utility.yul\":6305:6314   */\n      dup4\n        /* \"#utility.yul\":6301:6319   */\n      add\n        /* \"#utility.yul\":6292:6298   */\n      dup5\n        /* \"#utility.yul\":6248:6320   */\n      tag_96\n      jump\t// in\n    tag_175:\n        /* \"#utility.yul\":5995:6327   */\n      swap4\n      swap3\n      pop\n      pop\n      pop\n      jump\t// out\n        /* \"#utility.yul\":6333:6480   */\n    tag_97:\n        /* \"#utility.yul\":6434:6445   */\n      0x00\n        /* \"#utility.yul\":6471:6474   */\n      dup2\n        /* \"#utility.yul\":6456:6474   */\n      swap1\n      pop\n        /* \"#utility.yul\":6333:6480   */\n      swap3\n      swap2\n      pop\n      pop\n      jump\t// out\n        /* \"#utility.yul\":6486:6634   */\n    tag_98:\n        /* \"#utility.yul\":6584:6590   */\n      dup3\n        /* \"#utility.yul\":6579:6582   */\n      dup2\n        /* \"#utility.yul\":6574:6577   */\n      dup4\n        /* \"#utility.yul\":6561:6591   */\n      calldatacopy\n        /* \"#utility.yul\":6625:6626   */\n      0x00\n        /* \"#utility.yul\":6616:6622   */\n      dup4\n        /* \"#utility.yul\":6611:6614   */\n      dup4\n        /* \"#utility.yul\":6607:6623   */\n      add\n        /* \"#utility.yul\":6600:6627   */\n      mstore\n        /* \"#utility.yul\":6486:6634   */\n      pop\n      pop\n      pop\n      jump\t// out\n        /* \"#utility.yul\":6662:6989   */\n    tag_99:\n        /* \"#utility.yul\":6776:6779   */\n      0x00\n        /* \"#utility.yul\":6797:6885   */\n      tag_179\n        /* \"#utility.yul\":6878:6884   */\n      dup4\n        /* \"#utility.yul\":6873:6876   */\n      dup6\n        /* \"#utility.yul\":6797:6885   */\n      tag_97\n      jump\t// in\n    tag_179:\n        /* \"#utility.yul\":6790:6885   */\n      swap4\n      pop\n        /* \"#utility.yul\":6895:6951   */\n      tag_180\n        /* \"#utility.yul\":6944:6950   */\n      dup4\n        /* \"#utility.yul\":6939:6942   */\n      dup6\n        /* \"#utility.yul\":6932:6937   */\n      dup5\n        /* \"#utility.yul\":6895:6951   */\n      tag_98\n      jump\t// in\n    tag_180:\n        /* \"#utility.yul\":6976:6982   */\n      dup3\n        /* \"#utility.yul\":6971:6974   */\n      dup5\n        /* \"#utility.yul\":6967:6983   */\n      add\n        /* \"#utility.yul\":6960:6983   */\n      swap1\n      pop\n        /* \"#utility.yul\":6662:6989   */\n      swap4\n      swap3\n      pop\n      pop\n      pop\n      jump\t// out\n        /* \"#utility.yul\":6995:7286   */\n    tag_56:\n        /* \"#utility.yul\":7135:7138   */\n      0x00\n        /* \"#utility.yul\":7157:7260   */\n      tag_182\n        /* \"#utility.yul\":7256:7259   */\n      dup3\n        /* \"#utility.yul\":7247:7253   */\n      dup5\n        /* \"#utility.yul\":7239:7245   */\n      dup7\n        /* \"#utility.yul\":7157:7260   */\n      tag_99\n      jump\t// in\n    tag_182:\n        /* \"#utility.yul\":7150:7260   */\n      swap2\n      pop\n        /* \"#utility.yul\":7277:7280   */\n      dup2\n        /* \"#utility.yul\":7270:7280   */\n      swap1\n      pop\n        /* \"#utility.yul\":6995:7286   */\n      swap4\n      swap3\n      pop\n      pop\n      pop\n      jump\t// out\n        /* \"#utility.yul\":7292:7461   */\n    tag_100:\n        /* \"#utility.yul\":7376:7387   */\n      0x00\n        /* \"#utility.yul\":7410:7416   */\n      dup3\n        /* \"#utility.yul\":7405:7408   */\n      dup3\n        /* \"#utility.yul\":7398:7417   */\n      mstore\n        /* \"#utility.yul\":7450:7454   */\n      0x20\n        /* \"#utility.yul\":7445:7448   */\n      dup3\n        /* \"#utility.yul\":7441:7455   */\n      add\n        /* \"#utility.yul\":7426:7455   */\n      swap1\n      pop\n        /* \"#utility.yul\":7292:7461   */\n      swap3\n      swap2\n      pop\n      pop\n      jump\t// out\n        /* \"#utility.yul\":7467:7645   */\n    tag_101:\n        /* \"#utility.yul\":7607:7637   */\n      0x4661696c656420746f20657374696d6174652067617320757361676500000000\n        /* \"#utility.yul\":7603:7604   */\n      0x00\n        /* \"#utility.yul\":7595:7601   */\n      dup3\n        /* \"#utility.yul\":7591:7605   */\n      add\n        /* \"#utility.yul\":7584:7638   */\n      mstore\n        /* \"#utility.yul\":7467:7645   */\n      pop\n      jump\t// out\n        /* \"#utility.yul\":7651:8017   */\n    tag_102:\n        /* \"#utility.yul\":7793:7796   */\n      0x00\n        /* \"#utility.yul\":7814:7881   */\n      tag_186\n        /* \"#utility.yul\":7878:7880   */\n      0x1c\n        /* \"#utility.yul\":7873:7876   */\n      dup4\n        /* \"#utility.yul\":7814:7881   */\n      tag_100\n      jump\t// in\n    tag_186:\n        /* \"#utility.yul\":7807:7881   */\n      swap2\n      pop\n        /* \"#utility.yul\":7890:7983   */\n      tag_187\n        /* \"#utility.yul\":7979:7982   */\n      dup3\n        /* \"#utility.yul\":7890:7983   */\n      tag_101\n      jump\t// in\n    tag_187:\n        /* \"#utility.yul\":8008:8010   */\n      0x20\n        /* \"#utility.yul\":8003:8006   */\n      dup3\n        /* \"#utility.yul\":7999:8011   */\n      add\n        /* \"#utility.yul\":7992:8011   */\n      swap1\n      pop\n        /* \"#utility.yul\":7651:8017   */\n      swap2\n      swap1\n      pop\n      jump\t// out\n        /* \"#utility.yul\":8023:8442   */\n    tag_62:\n        /* \"#utility.yul\":8189:8193   */\n      0x00\n        /* \"#utility.yul\":8227:8229   */\n      0x20\n        /* \"#utility.yul\":8216:8225   */\n      dup3\n        /* \"#utility.yul\":8212:8230   */\n      add\n        /* \"#utility.yul\":8204:8230   */\n      swap1\n      pop\n        /* \"#utility.yul\":8276:8285   */\n      dup2\n        /* \"#utility.yul\":8270:8274   */\n      dup2\n        /* \"#utility.yul\":8266:8286   */\n      sub\n        /* \"#utility.yul\":8262:8263   */\n      0x00\n        /* \"#utility.yul\":8251:8260   */\n      dup4\n        /* \"#utility.yul\":8247:8264   */\n      add\n        /* \"#utility.yul\":8240:8287   */\n      mstore\n        /* \"#utility.yul\":8304:8435   */\n      tag_189\n        /* \"#utility.yul\":8430:8434   */\n      dup2\n        /* \"#utility.yul\":8304:8435   */\n      tag_102\n      jump\t// in\n    tag_189:\n        /* \"#utility.yul\":8296:8435   */\n      swap1\n      pop\n        /* \"#utility.yul\":8023:8442   */\n      swap2\n      swap1\n      pop\n      jump\t// out\n        /* \"#utility.yul\":8448:8591   */\n    tag_103:\n        /* \"#utility.yul\":8505:8510   */\n      0x00\n        /* \"#utility.yul\":8536:8542   */\n      dup2\n        /* \"#utility.yul\":8530:8543   */\n      mload\n        /* \"#utility.yul\":8521:8543   */\n      swap1\n      pop\n        /* \"#utility.yul\":8552:8585   */\n      tag_191\n        /* \"#utility.yul\":8579:8584   */\n      dup2\n        /* \"#utility.yul\":8552:8585   */\n      tag_83\n      jump\t// in\n    tag_191:\n        /* \"#utility.yul\":8448:8591   */\n      swap3\n      swap2\n      pop\n      pop\n      jump\t// out\n        /* \"#utility.yul\":8597:8948   */\n    tag_64:\n        /* \"#utility.yul\":8667:8673   */\n      0x00\n        /* \"#utility.yul\":8716:8718   */\n      0x20\n        /* \"#utility.yul\":8704:8713   */\n      dup3\n        /* \"#utility.yul\":8695:8702   */\n      dup5\n        /* \"#utility.yul\":8691:8714   */\n      sub\n        /* \"#utility.yul\":8687:8719   */\n      slt\n        /* \"#utility.yul\":8684:8803   */\n      iszero\n      tag_193\n      jumpi\n        /* \"#utility.yul\":8722:8801   */\n      tag_194\n      tag_76\n      jump\t// in\n    tag_194:\n        /* \"#utility.yul\":8684:8803   */\n    tag_193:\n        /* \"#utility.yul\":8842:8843   */\n      0x00\n        /* \"#utility.yul\":8867:8931   */\n      tag_195\n        /* \"#utility.yul\":8923:8930   */\n      dup5\n        /* \"#utility.yul\":8914:8920   */\n      dup3\n        /* \"#utility.yul\":8903:8912   */\n      dup6\n        /* \"#utility.yul\":8899:8921   */\n      add\n        /* \"#utility.yul\":8867:8931   */\n      tag_103\n      jump\t// in\n    tag_195:\n        /* \"#utility.yul\":8857:8931   */\n      swap2\n      pop\n        /* \"#utility.yul\":8813:8941   */\n      pop\n        /* \"#utility.yul\":8597:8948   */\n      swap3\n      swap2\n      pop\n      pop\n      jump\t// out\n        /* \"#utility.yul\":8954:9176   */\n    tag_104:\n        /* \"#utility.yul\":9094:9128   */\n      0x476173206c696d6974206d7573742062652067726561746572207468616e207a\n        /* \"#utility.yul\":9090:9091   */\n      0x00\n        /* \"#utility.yul\":9082:9088   */\n      dup3\n        /* \"#utility.yul\":9078:9092   */\n      add\n        /* \"#utility.yul\":9071:9129   */\n      mstore\n        /* \"#utility.yul\":9163:9168   */\n      0x65726f0000000000000000000000000000000000000000000000000000000000\n        /* \"#utility.yul\":9158:9160   */\n      0x20\n        /* \"#utility.yul\":9150:9156   */\n      dup3\n        /* \"#utility.yul\":9146:9161   */\n      add\n        /* \"#utility.yul\":9139:9169   */\n      mstore\n        /* \"#utility.yul\":8954:9176   */\n      pop\n      jump\t// out\n        /* \"#utility.yul\":9182:9548   */\n    tag_105:\n        /* \"#utility.yul\":9324:9327   */\n      0x00\n        /* \"#utility.yul\":9345:9412   */\n      tag_198\n        /* \"#utility.yul\":9409:9411   */\n      0x23\n        /* \"#utility.yul\":9404:9407   */\n      dup4\n        /* \"#utility.yul\":9345:9412   */\n      tag_100\n      jump\t// in\n    tag_198:\n        /* \"#utility.yul\":9338:9412   */\n      swap2\n      pop\n        /* \"#utility.yul\":9421:9514   */\n      tag_199\n        /* \"#utility.yul\":9510:9513   */\n      dup3\n        /* \"#utility.yul\":9421:9514   */\n      tag_104\n      jump\t// in\n    tag_199:\n        /* \"#utility.yul\":9539:9541   */\n      0x40\n        /* \"#utility.yul\":9534:9537   */\n      dup3\n        /* \"#utility.yul\":9530:9542   */\n      add\n        /* \"#utility.yul\":9523:9542   */\n      swap1\n      pop\n        /* \"#utility.yul\":9182:9548   */\n      swap2\n      swap1\n      pop\n      jump\t// out\n        /* \"#utility.yul\":9554:9973   */\n    tag_68:\n        /* \"#utility.yul\":9720:9724   */\n      0x00\n        /* \"#utility.yul\":9758:9760   */\n      0x20\n        /* \"#utility.yul\":9747:9756   */\n      dup3\n        /* \"#utility.yul\":9743:9761   */\n      add\n        /* \"#utility.yul\":9735:9761   */\n      swap1\n      pop\n        /* \"#utility.yul\":9807:9816   */\n      dup2\n        /* \"#utility.yul\":9801:9805   */\n      dup2\n        /* \"#utility.yul\":9797:9817   */\n      sub\n        /* \"#utility.yul\":9793:9794   */\n      0x00\n        /* \"#utility.yul\":9782:9791   */\n      dup4\n        /* \"#utility.yul\":9778:9795   */\n      add\n        /* \"#utility.yul\":9771:9818   */\n      mstore\n        /* \"#utility.yul\":9835:9966   */\n      tag_201\n        /* \"#utility.yul\":9961:9965   */\n      dup2\n        /* \"#utility.yul\":9835:9966   */\n      tag_105\n      jump\t// in\n    tag_201:\n        /* \"#utility.yul\":9827:9966   */\n      swap1\n      pop\n        /* \"#utility.yul\":9554:9973   */\n      swap2\n      swap1\n      pop\n      jump\t// out\n\n    auxdata: 0xa2646970667358221220a4e3d220b71a5060f352f58cd5208eb49f0a5630fc73a1f805fc4c0ded79372a64736f6c634300081a0033\n}\n",
				"bytecode": {
					"linkReferences": {},
					"object": "6080604052348015600e575f80fd5b50610a558061001c5f395ff3fe608060405234801561000f575f80fd5b5060043610610086575f3560e01c8063cb75efac11610059578063cb75efac14610122578063ce5ac32714610152578063d6be695a14610182578063f757a632146101a057610086565b806306d2a1c31461008a57806317b04a33146100a6578063bfd008dc146100d6578063c7c8459a14610106575b5f80fd5b6100a4600480360381019061009f9190610639565b6101d0565b005b6100c060048036038101906100bb9190610677565b610285565b6040516100cd9190610759565b60405180910390f35b6100f060048036038101906100eb91906107da565b610318565b6040516100fd9190610846565b60405180910390f35b610120600480360381019061011b9190610639565b6103f7565b005b61013c60048036038101906101379190610677565b6104cc565b6040516101499190610846565b60405180910390f35b61016c60048036038101906101679190610677565b61055e565b6040516101799190610846565b60405180910390f35b61018a610572565b6040516101979190610846565b60405180910390f35b6101ba60048036038101906101b59190610639565b610579565b6040516101c79190610846565b60405180910390f35b60015f8373ffffffffffffffffffffffffffffffffffffffff1673ffffffffffffffffffffffffffffffffffffffff1681526020019081526020015f2081908060018154018082558091505060019003905f5260205f20015f90919091909150558173ffffffffffffffffffffffffffffffffffffffff167f439f90badf38d3970f50605068ccc1a253300e9dc12f024016780b5201dad981824260405161027992919061085f565b60405180910390a25050565b606060015f8373ffffffffffffffffffffffffffffffffffffffff1673ffffffffffffffffffffffffffffffffffffffff1681526020019081526020015f2080548060200260200160405190810160405280929190818152602001828054801561030c57602002820191905f5260205f20905b8154815260200190600101908083116102f8575b50505050509050919050565b5f80610323856104cc565b90505f808673ffffffffffffffffffffffffffffffffffffffff1683878760405161034f9291906108c2565b5f604051808303818686fa925050503d805f8114610388576040519150601f19603f3d011682016040523d82523d5f602084013e61038d565b606091505b5091509150816103d2576040517f08c379a00000000000000000000000000000000000000000000000000000000081526004016103c990610934565b60405180910390fd5b5f818060200190518101906103e79190610966565b9050809450505050509392505050565b5f8111610439576040517f08c379a000000000000000000000000000000000000000000000000000000000815260040161043090610a01565b60405180910390fd5b805f808473ffffffffffffffffffffffffffffffffffffffff1673ffffffffffffffffffffffffffffffffffffffff1681526020019081526020015f20819055508173ffffffffffffffffffffffffffffffffffffffff167f0665c7e38bc9150441c6581c0f1c5f26e868d5fed825451289170ce2111b41a3826040516104c09190610846565b60405180910390a25050565b5f805f808473ffffffffffffffffffffffffffffffffffffffff1673ffffffffffffffffffffffffffffffffffffffff1681526020019081526020015f205414610552575f808373ffffffffffffffffffffffffffffffffffffffff1673ffffffffffffffffffffffffffffffffffffffff1681526020019081526020015f2054610557565b622dc6c05b9050919050565b5f602052805f5260405f205f915090505481565b622dc6c081565b6001602052815f5260405f208181548110610592575f80fd5b905f5260205f20015f91509150505481565b5f80fd5b5f80fd5b5f73ffffffffffffffffffffffffffffffffffffffff82169050919050565b5f6105d5826105ac565b9050919050565b6105e5816105cb565b81146105ef575f80fd5b50565b5f81359050610600816105dc565b92915050565b5f819050919050565b61061881610606565b8114610622575f80fd5b50565b5f813590506106338161060f565b92915050565b5f806040838503121561064f5761064e6105a4565b5b5f61065c858286016105f2565b925050602061066d85828601610625565b9150509250929050565b5f6020828403121561068c5761068b6105a4565b5b5f610699848285016105f2565b91505092915050565b5f81519050919050565b5f82825260208201905092915050565b5f819050602082019050919050565b6106d481610606565b82525050565b5f6106e583836106cb565b60208301905092915050565b5f602082019050919050565b5f610707826106a2565b61071181856106ac565b935061071c836106bc565b805f5b8381101561074c57815161073388826106da565b975061073e836106f1565b92505060018101905061071f565b5085935050505092915050565b5f6020820190508181035f83015261077181846106fd565b905092915050565b5f80fd5b5f80fd5b5f80fd5b5f8083601f84011261079a57610799610779565b5b8235905067ffffffffffffffff8111156107b7576107b661077d565b5b6020830191508360018202830111156107d3576107d2610781565b5b9250929050565b5f805f604084860312156107f1576107f06105a4565b5b5f6107fe868287016105f2565b935050602084013567ffffffffffffffff81111561081f5761081e6105a8565b5b61082b86828701610785565b92509250509250925092565b61084081610606565b82525050565b5f6020820190506108595f830184610837565b92915050565b5f6040820190506108725f830185610837565b61087f6020830184610837565b9392505050565b5f81905092915050565b828183375f83830152505050565b5f6108a98385610886565b93506108b6838584610890565b82840190509392505050565b5f6108ce82848661089e565b91508190509392505050565b5f82825260208201905092915050565b7f4661696c656420746f20657374696d61746520676173207573616765000000005f82015250565b5f61091e601c836108da565b9150610929826108ea565b602082019050919050565b5f6020820190508181035f83015261094b81610912565b9050919050565b5f815190506109608161060f565b92915050565b5f6020828403121561097b5761097a6105a4565b5b5f61098884828501610952565b91505092915050565b7f476173206c696d6974206d7573742062652067726561746572207468616e207a5f8201527f65726f0000000000000000000000000000000000000000000000000000000000602082015250565b5f6109eb6023836108da565b91506109f682610991565b604082019050919050565b5f6020820190508181035f830152610a18816109df565b905091905056fea2646970667358221220a4e3d220b71a5060f352f58cd5208eb49f0a5630fc73a1f805fc4c0ded79372a64736f6c634300081a0033",
					"opcodes": "PUSH1 0x80 PUSH1 0x40 MSTORE CALLVALUE DUP1 ISZERO PUSH1 0xE JUMPI PUSH0 DUP1 REVERT JUMPDEST POP PUSH2 0xA55 DUP1 PUSH2 0x1C PUSH0 CODECOPY PUSH0 RETURN INVALID PUSH1 0x80 PUSH1 0x40 MSTORE CALLVALUE DUP1 ISZERO PUSH2 0xF JUMPI PUSH0 DUP1 REVERT JUMPDEST POP PUSH1 0x4 CALLDATASIZE LT PUSH2 0x86 JUMPI PUSH0 CALLDATALOAD PUSH1 0xE0 SHR DUP1 PUSH4 0xCB75EFAC GT PUSH2 0x59 JUMPI DUP1 PUSH4 0xCB75EFAC EQ PUSH2 0x122 JUMPI DUP1 PUSH4 0xCE5AC327 EQ PUSH2 0x152 JUMPI DUP1 PUSH4 0xD6BE695A EQ PUSH2 0x182 JUMPI DUP1 PUSH4 0xF757A632 EQ PUSH2 0x1A0 JUMPI PUSH2 0x86 JUMP JUMPDEST DUP1 PUSH4 0x6D2A1C3 EQ PUSH2 0x8A JUMPI DUP1 PUSH4 0x17B04A33 EQ PUSH2 0xA6 JUMPI DUP1 PUSH4 0xBFD008DC EQ PUSH2 0xD6 JUMPI DUP1 PUSH4 0xC7C8459A EQ PUSH2 0x106 JUMPI JUMPDEST PUSH0 DUP1 REVERT JUMPDEST PUSH2 0xA4 PUSH1 0x4 DUP1 CALLDATASIZE SUB DUP2 ADD SWAP1 PUSH2 0x9F SWAP2 SWAP1 PUSH2 0x639 JUMP JUMPDEST PUSH2 0x1D0 JUMP JUMPDEST STOP JUMPDEST PUSH2 0xC0 PUSH1 0x4 DUP1 CALLDATASIZE SUB DUP2 ADD SWAP1 PUSH2 0xBB SWAP2 SWAP1 PUSH2 0x677 JUMP JUMPDEST PUSH2 0x285 JUMP JUMPDEST PUSH1 0x40 MLOAD PUSH2 0xCD SWAP2 SWAP1 PUSH2 0x759 JUMP JUMPDEST PUSH1 0x40 MLOAD DUP1 SWAP2 SUB SWAP1 RETURN JUMPDEST PUSH2 0xF0 PUSH1 0x4 DUP1 CALLDATASIZE SUB DUP2 ADD SWAP1 PUSH2 0xEB SWAP2 SWAP1 PUSH2 0x7DA JUMP JUMPDEST PUSH2 0x318 JUMP JUMPDEST PUSH1 0x40 MLOAD PUSH2 0xFD SWAP2 SWAP1 PUSH2 0x846 JUMP JUMPDEST PUSH1 0x40 MLOAD DUP1 SWAP2 SUB SWAP1 RETURN JUMPDEST PUSH2 0x120 PUSH1 0x4 DUP1 CALLDATASIZE SUB DUP2 ADD SWAP1 PUSH2 0x11B SWAP2 SWAP1 PUSH2 0x639 JUMP JUMPDEST PUSH2 0x3F7 JUMP JUMPDEST STOP JUMPDEST PUSH2 0x13C PUSH1 0x4 DUP1 CALLDATASIZE SUB DUP2 ADD SWAP1 PUSH2 0x137 SWAP2 SWAP1 PUSH2 0x677 JUMP JUMPDEST PUSH2 0x4CC JUMP JUMPDEST PUSH1 0x40 MLOAD PUSH2 0x149 SWAP2 SWAP1 PUSH2 0x846 JUMP JUMPDEST PUSH1 0x40 MLOAD DUP1 SWAP2 SUB SWAP1 RETURN JUMPDEST PUSH2 0x16C PUSH1 0x4 DUP1 CALLDATASIZE SUB DUP2 ADD SWAP1 PUSH2 0x167 SWAP2 SWAP1 PUSH2 0x677 JUMP JUMPDEST PUSH2 0x55E JUMP JUMPDEST PUSH1 0x40 MLOAD PUSH2 0x179 SWAP2 SWAP1 PUSH2 0x846 JUMP JUMPDEST PUSH1 0x40 MLOAD DUP1 SWAP2 SUB SWAP1 RETURN JUMPDEST PUSH2 0x18A PUSH2 0x572 JUMP JUMPDEST PUSH1 0x40 MLOAD PUSH2 0x197 SWAP2 SWAP1 PUSH2 0x846 JUMP JUMPDEST PUSH1 0x40 MLOAD DUP1 SWAP2 SUB SWAP1 RETURN JUMPDEST PUSH2 0x1BA PUSH1 0x4 DUP1 CALLDATASIZE SUB DUP2 ADD SWAP1 PUSH2 0x1B5 SWAP2 SWAP1 PUSH2 0x639 JUMP JUMPDEST PUSH2 0x579 JUMP JUMPDEST PUSH1 0x40 MLOAD PUSH2 0x1C7 SWAP2 SWAP1 PUSH2 0x846 JUMP JUMPDEST PUSH1 0x40 MLOAD DUP1 SWAP2 SUB SWAP1 RETURN JUMPDEST PUSH1 0x1 PUSH0 DUP4 PUSH20 0xFFFFFFFFFFFFFFFFFFFFFFFFFFFFFFFFFFFFFFFF AND PUSH20 0xFFFFFFFFFFFFFFFFFFFFFFFFFFFFFFFFFFFFFFFF AND DUP2 MSTORE PUSH1 0x20 ADD SWAP1 DUP2 MSTORE PUSH1 0x20 ADD PUSH0 KECCAK256 DUP2 SWAP1 DUP1 PUSH1 0x1 DUP2 SLOAD ADD DUP1 DUP3 SSTORE DUP1 SWAP2 POP POP PUSH1 0x1 SWAP1 SUB SWAP1 PUSH0 MSTORE PUSH1 0x20 PUSH0 KECCAK256 ADD PUSH0 SWAP1 SWAP2 SWAP1 SWAP2 SWAP1 SWAP2 POP SSTORE DUP2 PUSH20 0xFFFFFFFFFFFFFFFFFFFFFFFFFFFFFFFFFFFFFFFF AND PUSH32 0x439F90BADF38D3970F50605068CCC1A253300E9DC12F024016780B5201DAD981 DUP3 TIMESTAMP PUSH1 0x40 MLOAD PUSH2 0x279 SWAP3 SWAP2 SWAP1 PUSH2 0x85F JUMP JUMPDEST PUSH1 0x40 MLOAD DUP1 SWAP2 SUB SWAP1 LOG2 POP POP JUMP JUMPDEST PUSH1 0x60 PUSH1 0x1 PUSH0 DUP4 PUSH20 0xFFFFFFFFFFFFFFFFFFFFFFFFFFFFFFFFFFFFFFFF AND PUSH20 0xFFFFFFFFFFFFFFFFFFFFFFFFFFFFFFFFFFFFFFFF AND DUP2 MSTORE PUSH1 0x20 ADD SWAP1 DUP2 MSTORE PUSH1 0x20 ADD PUSH0 KECCAK256 DUP1 SLOAD DUP1 PUSH1 0x20 MUL PUSH1 0x20 ADD PUSH1 0x40 MLOAD SWAP1 DUP2 ADD PUSH1 0x40 MSTORE DUP1 SWAP3 SWAP2 SWAP1 DUP2 DUP2 MSTORE PUSH1 0x20 ADD DUP3 DUP1 SLOAD DUP1 ISZERO PUSH2 0x30C JUMPI PUSH1 0x20 MUL DUP3 ADD SWAP2 SWAP1 PUSH0 MSTORE PUSH1 0x20 PUSH0 KECCAK256 SWAP1 JUMPDEST DUP2 SLOAD DUP2 MSTORE PUSH1 0x20 ADD SWAP1 PUSH1 0x1 ADD SWAP1 DUP1 DUP4 GT PUSH2 0x2F8 JUMPI JUMPDEST POP POP POP POP POP SWAP1 POP SWAP2 SWAP1 POP JUMP JUMPDEST PUSH0 DUP1 PUSH2 0x323 DUP6 PUSH2 0x4CC JUMP JUMPDEST SWAP1 POP PUSH0 DUP1 DUP7 PUSH20 0xFFFFFFFFFFFFFFFFFFFFFFFFFFFFFFFFFFFFFFFF AND DUP4 DUP8 DUP8 PUSH1 0x40 MLOAD PUSH2 0x34F SWAP3 SWAP2 SWAP1 PUSH2 0x8C2 JUMP JUMPDEST PUSH0 PUSH1 0x40 MLOAD DUP1 DUP4 SUB DUP2 DUP7 DUP7 STATICCALL SWAP3 POP POP POP RETURNDATASIZE DUP1 PUSH0 DUP2 EQ PUSH2 0x388 JUMPI PUSH1 0x40 MLOAD SWAP2 POP PUSH1 0x1F NOT PUSH1 0x3F RETURNDATASIZE ADD AND DUP3 ADD PUSH1 0x40 MSTORE RETURNDATASIZE DUP3 MSTORE RETURNDATASIZE PUSH0 PUSH1 0x20 DUP5 ADD RETURNDATACOPY PUSH2 0x38D JUMP JUMPDEST PUSH1 0x60 SWAP2 POP JUMPDEST POP SWAP2 POP SWAP2 POP DUP2 PUSH2 0x3D2 JUMPI PUSH1 0x40 MLOAD PUSH32 0x8C379A000000000000000000000000000000000000000000000000000000000 DUP2 MSTORE PUSH1 0x4 ADD PUSH2 0x3C9 SWAP1 PUSH2 0x934 JUMP JUMPDEST PUSH1 0x40 MLOAD DUP1 SWAP2 SUB SWAP1 REVERT JUMPDEST PUSH0 DUP2 DUP1 PUSH1 0x20 ADD SWAP1 MLOAD DUP2 ADD SWAP1 PUSH2 0x3E7 SWAP2 SWAP1 PUSH2 0x966 JUMP JUMPDEST SWAP1 POP DUP1 SWAP5 POP POP POP POP POP SWAP4 SWAP3 POP POP POP JUMP JUMPDEST PUSH0 DUP2 GT PUSH2 0x439 JUMPI PUSH1 0x40 MLOAD PUSH32 0x8C379A000000000000000000000000000000000000000000000000000000000 DUP2 MSTORE PUSH1 0x4 ADD PUSH2 0x430 SWAP1 PUSH2 0xA01 JUMP JUMPDEST PUSH1 0x40 MLOAD DUP1 SWAP2 SUB SWAP1 REVERT JUMPDEST DUP1 PUSH0 DUP1 DUP5 PUSH20 0xFFFFFFFFFFFFFFFFFFFFFFFFFFFFFFFFFFFFFFFF AND PUSH20 0xFFFFFFFFFFFFFFFFFFFFFFFFFFFFFFFFFFFFFFFF AND DUP2 MSTORE PUSH1 0x20 ADD SWAP1 DUP2 MSTORE PUSH1 0x20 ADD PUSH0 KECCAK256 DUP2 SWAP1 SSTORE POP DUP2 PUSH20 0xFFFFFFFFFFFFFFFFFFFFFFFFFFFFFFFFFFFFFFFF AND PUSH32 0x665C7E38BC9150441C6581C0F1C5F26E868D5FED825451289170CE2111B41A3 DUP3 PUSH1 0x40 MLOAD PUSH2 0x4C0 SWAP2 SWAP1 PUSH2 0x846 JUMP JUMPDEST PUSH1 0x40 MLOAD DUP1 SWAP2 SUB SWAP1 LOG2 POP POP JUMP JUMPDEST PUSH0 DUP1 PUSH0 DUP1 DUP5 PUSH20 0xFFFFFFFFFFFFFFFFFFFFFFFFFFFFFFFFFFFFFFFF AND PUSH20 0xFFFFFFFFFFFFFFFFFFFFFFFFFFFFFFFFFFFFFFFF AND DUP2 MSTORE PUSH1 0x20 ADD SWAP1 DUP2 MSTORE PUSH1 0x20 ADD PUSH0 KECCAK256 SLOAD EQ PUSH2 0x552 JUMPI PUSH0 DUP1 DUP4 PUSH20 0xFFFFFFFFFFFFFFFFFFFFFFFFFFFFFFFFFFFFFFFF AND PUSH20 0xFFFFFFFFFFFFFFFFFFFFFFFFFFFFFFFFFFFFFFFF AND DUP2 MSTORE PUSH1 0x20 ADD SWAP1 DUP2 MSTORE PUSH1 0x20 ADD PUSH0 KECCAK256 SLOAD PUSH2 0x557 JUMP JUMPDEST PUSH3 0x2DC6C0 JUMPDEST SWAP1 POP SWAP2 SWAP1 POP JUMP JUMPDEST PUSH0 PUSH1 0x20 MSTORE DUP1 PUSH0 MSTORE PUSH1 0x40 PUSH0 KECCAK256 PUSH0 SWAP2 POP SWAP1 POP SLOAD DUP2 JUMP JUMPDEST PUSH3 0x2DC6C0 DUP2 JUMP JUMPDEST PUSH1 0x1 PUSH1 0x20 MSTORE DUP2 PUSH0 MSTORE PUSH1 0x40 PUSH0 KECCAK256 DUP2 DUP2 SLOAD DUP2 LT PUSH2 0x592 JUMPI PUSH0 DUP1 REVERT JUMPDEST SWAP1 PUSH0 MSTORE PUSH1 0x20 PUSH0 KECCAK256 ADD PUSH0 SWAP2 POP SWAP2 POP POP SLOAD DUP2 JUMP JUMPDEST PUSH0 DUP1 REVERT JUMPDEST PUSH0 DUP1 REVERT JUMPDEST PUSH0 PUSH20 0xFFFFFFFFFFFFFFFFFFFFFFFFFFFFFFFFFFFFFFFF DUP3 AND SWAP1 POP SWAP2 SWAP1 POP JUMP JUMPDEST PUSH0 PUSH2 0x5D5 DUP3 PUSH2 0x5AC JUMP JUMPDEST SWAP1 POP SWAP2 SWAP1 POP JUMP JUMPDEST PUSH2 0x5E5 DUP2 PUSH2 0x5CB JUMP JUMPDEST DUP2 EQ PUSH2 0x5EF JUMPI PUSH0 DUP1 REVERT JUMPDEST POP JUMP JUMPDEST PUSH0 DUP2 CALLDATALOAD SWAP1 POP PUSH2 0x600 DUP2 PUSH2 0x5DC JUMP JUMPDEST SWAP3 SWAP2 POP POP JUMP JUMPDEST PUSH0 DUP2 SWAP1 POP SWAP2 SWAP1 POP JUMP JUMPDEST PUSH2 0x618 DUP2 PUSH2 0x606 JUMP JUMPDEST DUP2 EQ PUSH2 0x622 JUMPI PUSH0 DUP1 REVERT JUMPDEST POP JUMP JUMPDEST PUSH0 DUP2 CALLDATALOAD SWAP1 POP PUSH2 0x633 DUP2 PUSH2 0x60F JUMP JUMPDEST SWAP3 SWAP2 POP POP JUMP JUMPDEST PUSH0 DUP1 PUSH1 0x40 DUP4 DUP6 SUB SLT ISZERO PUSH2 0x64F JUMPI PUSH2 0x64E PUSH2 0x5A4 JUMP JUMPDEST JUMPDEST PUSH0 PUSH2 0x65C DUP6 DUP3 DUP7 ADD PUSH2 0x5F2 JUMP JUMPDEST SWAP3 POP POP PUSH1 0x20 PUSH2 0x66D DUP6 DUP3 DUP7 ADD PUSH2 0x625 JUMP JUMPDEST SWAP2 POP POP SWAP3 POP SWAP3 SWAP1 POP JUMP JUMPDEST PUSH0 PUSH1 0x20 DUP3 DUP5 SUB SLT ISZERO PUSH2 0x68C JUMPI PUSH2 0x68B PUSH2 0x5A4 JUMP JUMPDEST JUMPDEST PUSH0 PUSH2 0x699 DUP5 DUP3 DUP6 ADD PUSH2 0x5F2 JUMP JUMPDEST SWAP2 POP POP SWAP3 SWAP2 POP POP JUMP JUMPDEST PUSH0 DUP2 MLOAD SWAP1 POP SWAP2 SWAP1 POP JUMP JUMPDEST PUSH0 DUP3 DUP3 MSTORE PUSH1 0x20 DUP3 ADD SWAP1 POP SWAP3 SWAP2 POP POP JUMP JUMPDEST PUSH0 DUP2 SWAP1 POP PUSH1 0x20 DUP3 ADD SWAP1 POP SWAP2 SWAP1 POP JUMP JUMPDEST PUSH2 0x6D4 DUP2 PUSH2 0x606 JUMP JUMPDEST DUP3 MSTORE POP POP JUMP JUMPDEST PUSH0 PUSH2 0x6E5 DUP4 DUP4 PUSH2 0x6CB JUMP JUMPDEST PUSH1 0x20 DUP4 ADD SWAP1 POP SWAP3 SWAP2 POP POP JUMP JUMPDEST PUSH0 PUSH1 0x20 DUP3 ADD SWAP1 POP SWAP2 SWAP1 POP JUMP JUMPDEST PUSH0 PUSH2 0x707 DUP3 PUSH2 0x6A2 JUMP JUMPDEST PUSH2 0x711 DUP2 DUP6 PUSH2 0x6AC JUMP JUMPDEST SWAP4 POP PUSH2 0x71C DUP4 PUSH2 0x6BC JUMP JUMPDEST DUP1 PUSH0 JUMPDEST DUP4 DUP2 LT ISZERO PUSH2 0x74C JUMPI DUP2 MLOAD PUSH2 0x733 DUP9 DUP3 PUSH2 0x6DA JUMP JUMPDEST SWAP8 POP PUSH2 0x73E DUP4 PUSH2 0x6F1 JUMP JUMPDEST SWAP3 POP POP PUSH1 0x1 DUP2 ADD SWAP1 POP PUSH2 0x71F JUMP JUMPDEST POP DUP6 SWAP4 POP POP POP POP SWAP3 SWAP2 POP POP JUMP JUMPDEST PUSH0 PUSH1 0x20 DUP3 ADD SWAP1 POP DUP2 DUP2 SUB PUSH0 DUP4 ADD MSTORE PUSH2 0x771 DUP2 DUP5 PUSH2 0x6FD JUMP JUMPDEST SWAP1 POP SWAP3 SWAP2 POP POP JUMP JUMPDEST PUSH0 DUP1 REVERT JUMPDEST PUSH0 DUP1 REVERT JUMPDEST PUSH0 DUP1 REVERT JUMPDEST PUSH0 DUP1 DUP4 PUSH1 0x1F DUP5 ADD SLT PUSH2 0x79A JUMPI PUSH2 0x799 PUSH2 0x779 JUMP JUMPDEST JUMPDEST DUP3 CALLDATALOAD SWAP1 POP PUSH8 0xFFFFFFFFFFFFFFFF DUP2 GT ISZERO PUSH2 0x7B7 JUMPI PUSH2 0x7B6 PUSH2 0x77D JUMP JUMPDEST JUMPDEST PUSH1 0x20 DUP4 ADD SWAP2 POP DUP4 PUSH1 0x1 DUP3 MUL DUP4 ADD GT ISZERO PUSH2 0x7D3 JUMPI PUSH2 0x7D2 PUSH2 0x781 JUMP JUMPDEST JUMPDEST SWAP3 POP SWAP3 SWAP1 POP JUMP JUMPDEST PUSH0 DUP1 PUSH0 PUSH1 0x40 DUP5 DUP7 SUB SLT ISZERO PUSH2 0x7F1 JUMPI PUSH2 0x7F0 PUSH2 0x5A4 JUMP JUMPDEST JUMPDEST PUSH0 PUSH2 0x7FE DUP7 DUP3 DUP8 ADD PUSH2 0x5F2 JUMP JUMPDEST SWAP4 POP POP PUSH1 0x20 DUP5 ADD CALLDATALOAD PUSH8 0xFFFFFFFFFFFFFFFF DUP2 GT ISZERO PUSH2 0x81F JUMPI PUSH2 0x81E PUSH2 0x5A8 JUMP JUMPDEST JUMPDEST PUSH2 0x82B DUP7 DUP3 DUP8 ADD PUSH2 0x785 JUMP JUMPDEST SWAP3 POP SWAP3 POP POP SWAP3 POP SWAP3 POP SWAP3 JUMP JUMPDEST PUSH2 0x840 DUP2 PUSH2 0x606 JUMP JUMPDEST DUP3 MSTORE POP POP JUMP JUMPDEST PUSH0 PUSH1 0x20 DUP3 ADD SWAP1 POP PUSH2 0x859 PUSH0 DUP4 ADD DUP5 PUSH2 0x837 JUMP JUMPDEST SWAP3 SWAP2 POP POP JUMP JUMPDEST PUSH0 PUSH1 0x40 DUP3 ADD SWAP1 POP PUSH2 0x872 PUSH0 DUP4 ADD DUP6 PUSH2 0x837 JUMP JUMPDEST PUSH2 0x87F PUSH1 0x20 DUP4 ADD DUP5 PUSH2 0x837 JUMP JUMPDEST SWAP4 SWAP3 POP POP POP JUMP JUMPDEST PUSH0 DUP2 SWAP1 POP SWAP3 SWAP2 POP POP JUMP JUMPDEST DUP3 DUP2 DUP4 CALLDATACOPY PUSH0 DUP4 DUP4 ADD MSTORE POP POP POP JUMP JUMPDEST PUSH0 PUSH2 0x8A9 DUP4 DUP6 PUSH2 0x886 JUMP JUMPDEST SWAP4 POP PUSH2 0x8B6 DUP4 DUP6 DUP5 PUSH2 0x890 JUMP JUMPDEST DUP3 DUP5 ADD SWAP1 POP SWAP4 SWAP3 POP POP POP JUMP JUMPDEST PUSH0 PUSH2 0x8CE DUP3 DUP5 DUP7 PUSH2 0x89E JUMP JUMPDEST SWAP2 POP DUP2 SWAP1 POP SWAP4 SWAP3 POP POP POP JUMP JUMPDEST PUSH0 DUP3 DUP3 MSTORE PUSH1 0x20 DUP3 ADD SWAP1 POP SWAP3 SWAP2 POP POP JUMP JUMPDEST PUSH32 0x4661696C656420746F20657374696D6174652067617320757361676500000000 PUSH0 DUP3 ADD MSTORE POP JUMP JUMPDEST PUSH0 PUSH2 0x91E PUSH1 0x1C DUP4 PUSH2 0x8DA JUMP JUMPDEST SWAP2 POP PUSH2 0x929 DUP3 PUSH2 0x8EA JUMP JUMPDEST PUSH1 0x20 DUP3 ADD SWAP1 POP SWAP2 SWAP1 POP JUMP JUMPDEST PUSH0 PUSH1 0x20 DUP3 ADD SWAP1 POP DUP2 DUP2 SUB PUSH0 DUP4 ADD MSTORE PUSH2 0x94B DUP2 PUSH2 0x912 JUMP JUMPDEST SWAP1 POP SWAP2 SWAP1 POP JUMP JUMPDEST PUSH0 DUP2 MLOAD SWAP1 POP PUSH2 0x960 DUP2 PUSH2 0x60F JUMP JUMPDEST SWAP3 SWAP2 POP POP JUMP JUMPDEST PUSH0 PUSH1 0x20 DUP3 DUP5 SUB SLT ISZERO PUSH2 0x97B JUMPI PUSH2 0x97A PUSH2 0x5A4 JUMP JUMPDEST JUMPDEST PUSH0 PUSH2 0x988 DUP5 DUP3 DUP6 ADD PUSH2 0x952 JUMP JUMPDEST SWAP2 POP POP SWAP3 SWAP2 POP POP JUMP JUMPDEST PUSH32 0x476173206C696D6974206D7573742062652067726561746572207468616E207A PUSH0 DUP3 ADD MSTORE PUSH32 0x65726F0000000000000000000000000000000000000000000000000000000000 PUSH1 0x20 DUP3 ADD MSTORE POP JUMP JUMPDEST PUSH0 PUSH2 0x9EB PUSH1 0x23 DUP4 PUSH2 0x8DA JUMP JUMPDEST SWAP2 POP PUSH2 0x9F6 DUP3 PUSH2 0x991 JUMP JUMPDEST PUSH1 0x40 DUP3 ADD SWAP1 POP SWAP2 SWAP1 POP JUMP JUMPDEST PUSH0 PUSH1 0x20 DUP3 ADD SWAP1 POP DUP2 DUP2 SUB PUSH0 DUP4 ADD MSTORE PUSH2 0xA18 DUP2 PUSH2 0x9DF JUMP JUMPDEST SWAP1 POP SWAP2 SWAP1 POP JUMP INVALID LOG2 PUSH5 0x6970667358 0x22 SLT KECCAK256 LOG4 0xE3 0xD2 KECCAK256 0xB7 BYTE POP PUSH1 0xF3 MSTORE CREATE2 DUP13 0xD5 KECCAK256 DUP15 0xB4 SWAP16 EXP JUMP ADDRESS 0xFC PUSH20 0xA1F805FC4C0DED79372A64736F6C634300081A00 CALLER "
				},
				"gasEstimates": {
					"creation": {
						"codeDepositCost": "529000",
						"executionCost": "560",
						"totalCost": "529560"
					},
					"external": {
						"DEFAULT_GAS_LIMIT()": "369",
						"estimateGasUsage(address,bytes)": "infinite",
						"gasLimits(address)": "2823",
						"gasUsageRecords(address,uint256)": "infinite",
						"getGasLimit(address)": "5051",
						"getGasUsageRecords(address)": "infinite",
						"recordGasUsage(address,uint256)": "infinite",
						"setGasLimit(address,uint256)": "infinite"
					}
				},
				"methodIdentifiers": {
					"DEFAULT_GAS_LIMIT()": "d6be695a",
					"estimateGasUsage(address,bytes)": "bfd008dc",
					"gasLimits(address)": "ce5ac327",
					"gasUsageRecords(address,uint256)": "f757a632",
					"getGasLimit(address)": "cb75efac",
					"getGasUsageRecords(address)": "17b04a33",
					"recordGasUsage(address,uint256)": "06d2a1c3",
					"setGasLimit(address,uint256)": "c7c8459a"
				}
			},
			"storageLayout": {
				"storage": [
					{
						"astId": 20,
						"contract": "contracts/utils/GasManager.sol:GasManager",
						"label": "gasLimits",
						"offset": 0,
						"slot": "0",
						"type": "t_mapping(t_address,t_uint256)"
					},
					{
						"astId": 25,
						"contract": "contracts/utils/GasManager.sol:GasManager",
						"label": "gasUsageRecords",
						"offset": 0,
						"slot": "1",
						"type": "t_mapping(t_address,t_array(t_uint256)dyn_storage)"
					}
				],
				"types": {
					"t_address": {
						"encoding": "inplace",
						"label": "address",
						"numberOfBytes": "20"
					},
					"t_array(t_uint256)dyn_storage": {
						"base": "t_uint256",
						"encoding": "dynamic_array",
						"label": "uint256[]",
						"numberOfBytes": "32"
					},
					"t_mapping(t_address,t_array(t_uint256)dyn_storage)": {
						"encoding": "mapping",
						"key": "t_address",
						"label": "mapping(address => uint256[])",
						"numberOfBytes": "32",
						"value": "t_array(t_uint256)dyn_storage"
					},
					"t_mapping(t_address,t_uint256)": {
						"encoding": "mapping",
						"key": "t_address",
						"label": "mapping(address => uint256)",
						"numberOfBytes": "32",
						"value": "t_uint256"
					},
					"t_uint256": {
						"encoding": "inplace",
						"label": "uint256",
						"numberOfBytes": "32"
					}
				}
			},
			"userdoc": {
				"kind": "user",
				"methods": {
					"estimateGasUsage(address,bytes)": {
						"notice": "Estimate gas usage for a transaction."
					},
					"getGasLimit(address)": {
						"notice": "Get the gas limit for a contract."
					},
					"getGasUsageRecords(address)": {
						"notice": "Get the recorded gas usage for a contract."
					},
					"recordGasUsage(address,uint256)": {
						"notice": "Record gas usage for a contract."
					},
					"setGasLimit(address,uint256)": {
						"notice": "Set a custom gas limit for a contract."
					}
				},
				"version": 1
			}
		}
	}
}