{
	"contracts/transactions/ZrTransaction.sol": {
		"ZrSignTransferETH": {
			"abi": [
				{
					"anonymous": false,
					"inputs": [
						{
							"indexed": true,
							"internalType": "address",
							"name": "sender",
							"type": "address"
						},
						{
							"indexed": false,
							"internalType": "uint256",
							"name": "amount",
							"type": "uint256"
						},
						{
							"indexed": false,
							"internalType": "uint256",
							"name": "balance",
							"type": "uint256"
						}
					],
					"name": "Deposit",
					"type": "event"
				},
				{
					"inputs": [
						{
							"internalType": "bytes",
							"name": "payload",
							"type": "bytes"
						}
					],
					"name": "calculateFeeForSign",
					"outputs": [
						{
							"internalType": "uint256",
							"name": "",
							"type": "uint256"
						}
					],
					"stateMutability": "view",
					"type": "function"
				},
				{
					"inputs": [
						{
							"internalType": "uint256",
							"name": "index",
							"type": "uint256"
						}
					],
					"name": "getEVMWallet",
					"outputs": [
						{
							"internalType": "string",
							"name": "",
							"type": "string"
						}
					],
					"stateMutability": "view",
					"type": "function"
				},
				{
					"inputs": [],
					"name": "getEVMWallets",
					"outputs": [
						{
							"internalType": "string[]",
							"name": "",
							"type": "string[]"
						}
					],
					"stateMutability": "view",
					"type": "function"
				},
				{
					"inputs": [],
					"name": "requestNewEVMWallet",
					"outputs": [],
					"stateMutability": "nonpayable",
					"type": "function"
				},
				{
					"inputs": [
						{
							"internalType": "uint256",
							"name": "fromKeyIndex",
							"type": "uint256"
						},
						{
							"internalType": "address",
							"name": "to",
							"type": "address"
						},
						{
							"internalType": "uint256",
							"name": "value",
							"type": "uint256"
						},
						{
							"internalType": "uint256",
							"name": "gasPrice",
							"type": "uint256"
						},
						{
							"internalType": "uint256",
							"name": "gasLimit",
							"type": "uint256"
						},
						{
							"internalType": "uint256",
							"name": "nonce",
							"type": "uint256"
						},
						{
							"internalType": "bytes",
							"name": "data",
							"type": "bytes"
						}
					],
					"name": "submitTransaction",
					"outputs": [],
					"stateMutability": "nonpayable",
					"type": "function"
				},
				{
					"inputs": [
						{
							"internalType": "uint256",
							"name": "fromKeyIndex",
							"type": "uint256"
						},
						{
							"internalType": "address",
							"name": "to",
							"type": "address"
						},
						{
							"internalType": "uint256",
							"name": "value",
							"type": "uint256"
						},
						{
							"internalType": "uint256",
							"name": "gasPrice",
							"type": "uint256"
						},
						{
							"internalType": "uint256",
							"name": "gasLimit",
							"type": "uint256"
						},
						{
							"internalType": "uint256",
							"name": "nonce",
							"type": "uint256"
						},
						{
							"internalType": "bytes",
							"name": "data",
							"type": "bytes"
						},
						{
							"internalType": "bool",
							"name": "broadcast",
							"type": "bool"
						}
					],
					"name": "submitTransaction",
					"outputs": [],
					"stateMutability": "nonpayable",
					"type": "function"
				},
				{
					"inputs": [
						{
							"internalType": "uint256",
							"name": "_fromKeyIndex",
							"type": "uint256"
						},
						{
							"internalType": "address",
							"name": "_to",
							"type": "address"
						},
						{
							"internalType": "uint256",
							"name": "_value",
							"type": "uint256"
						},
						{
							"internalType": "bytes",
							"name": "_data",
							"type": "bytes"
						}
					],
					"name": "submitTransaction",
					"outputs": [],
					"stateMutability": "nonpayable",
					"type": "function"
				},
				{
					"stateMutability": "payable",
					"type": "receive"
				}
			],
			"devdoc": {
				"kind": "dev",
				"methods": {},
				"version": 1
			},
			"evm": {
				"assembly": "    /* \"contracts/transactions/ZrTransaction.sol\":14995:17381  contract ZrSignTransferETH is ZrSignConnect {... */\n  mstore(0x40, 0x80)\n    /* \"contracts/transactions/ZrTransaction.sol\":15150:15160  5000000000 */\n  0x012a05f200\n    /* \"contracts/transactions/ZrTransaction.sol\":15121:15160  uint256 internal _gasPrice = 5000000000 */\n  0x00\n  sstore\n    /* \"contracts/transactions/ZrTransaction.sol\":15195:15201  250000 */\n  0x03d090\n    /* \"contracts/transactions/ZrTransaction.sol\":15166:15201  uint256 internal _gasLimit = 250000 */\n  0x01\n  sstore\n    /* \"contracts/transactions/ZrTransaction.sol\":15356:15357  0 */\n  0x00\n    /* \"contracts/transactions/ZrTransaction.sol\":15330:15357  uint256 internal _nonce = 0 */\n  0x02\n  sstore\n    /* \"contracts/transactions/ZrTransaction.sol\":14995:17381  contract ZrSignTransferETH is ZrSignConnect {... */\n  callvalue\n  dup1\n  iszero\n  tag_1\n  jumpi\n  0x00\n  dup1\n  revert\ntag_1:\n  pop\n  dataSize(sub_0)\n  dup1\n  dataOffset(sub_0)\n  0x00\n  codecopy\n  0x00\n  return\nstop\n\nsub_0: assembly {\n        /* \"contracts/transactions/ZrTransaction.sol\":14995:17381  contract ZrSignTransferETH is ZrSignConnect {... */\n      mstore(0x40, 0x80)\n      jumpi(tag_1, lt(calldatasize, 0x04))\n      shr(0xe0, calldataload(0x00))\n      dup1\n      0xc6b4a8f7\n      gt\n      tag_10\n      jumpi\n      dup1\n      0xc6b4a8f7\n      eq\n      tag_6\n      jumpi\n      dup1\n      0xdbe637c6\n      eq\n      tag_7\n      jumpi\n      dup1\n      0xe6bdb7d6\n      eq\n      tag_8\n      jumpi\n      dup1\n      0xecf4ec57\n      eq\n      tag_9\n      jumpi\n      jump(tag_2)\n    tag_10:\n      dup1\n      0x32398d50\n      eq\n      tag_3\n      jumpi\n      dup1\n      0x681face9\n      eq\n      tag_4\n      jumpi\n      dup1\n      0x94e375dd\n      eq\n      tag_5\n      jumpi\n      jump(tag_2)\n    tag_1:\n      jumpi(tag_2, calldatasize)\n        /* \"contracts/transactions/ZrTransaction.sol\":15414:15424  msg.sender */\n      caller\n        /* \"contracts/transactions/ZrTransaction.sol\":15406:15459  Deposit(msg.sender, msg.value, address(this).balance) */\n      0xffffffffffffffffffffffffffffffffffffffff\n      and\n      0x90890809c654f11d6e72a28fa60149770a0d11ec6c92319d6ceb2bb0a4ea1a15\n        /* \"contracts/transactions/ZrTransaction.sol\":15426:15435  msg.value */\n      callvalue\n        /* \"contracts/transactions/ZrTransaction.sol\":15437:15458  address(this).balance */\n      selfbalance\n        /* \"contracts/transactions/ZrTransaction.sol\":15406:15459  Deposit(msg.sender, msg.value, address(this).balance) */\n      mload(0x40)\n      tag_13\n      swap3\n      swap2\n      swap1\n      tag_14\n      jump\t// in\n    tag_13:\n      mload(0x40)\n      dup1\n      swap2\n      sub\n      swap1\n      log2\n        /* \"contracts/transactions/ZrTransaction.sol\":14995:17381  contract ZrSignTransferETH is ZrSignConnect {... */\n      stop\n    tag_2:\n      0x00\n      dup1\n      revert\n        /* \"contracts/transactions/ZrTransaction.sol\":13133:13291  function getEVMWallet(uint256 index) public view returns (string memory) {... */\n    tag_3:\n      callvalue\n      dup1\n      iszero\n      tag_15\n      jumpi\n      0x00\n      dup1\n      revert\n    tag_15:\n      pop\n      tag_16\n      0x04\n      dup1\n      calldatasize\n      sub\n      dup2\n      add\n      swap1\n      tag_17\n      swap2\n      swap1\n      tag_18\n      jump\t// in\n    tag_17:\n      tag_19\n      jump\t// in\n    tag_16:\n      mload(0x40)\n      tag_20\n      swap2\n      swap1\n      tag_21\n      jump\t// in\n    tag_20:\n      mload(0x40)\n      dup1\n      swap2\n      sub\n      swap1\n      return\n        /* \"contracts/transactions/ZrTransaction.sol\":16056:16700  function submitTransaction(... */\n    tag_4:\n      callvalue\n      dup1\n      iszero\n      tag_22\n      jumpi\n      0x00\n      dup1\n      revert\n    tag_22:\n      pop\n      tag_23\n      0x04\n      dup1\n      calldatasize\n      sub\n      dup2\n      add\n      swap1\n      tag_24\n      swap2\n      swap1\n      tag_25\n      jump\t// in\n    tag_24:\n      tag_26\n      jump\t// in\n    tag_23:\n      stop\n        /* \"contracts/transactions/ZrTransaction.sol\":16706:17379  function submitTransaction(... */\n    tag_5:\n      callvalue\n      dup1\n      iszero\n      tag_27\n      jumpi\n      0x00\n      dup1\n      revert\n    tag_27:\n      pop\n      tag_28\n      0x04\n      dup1\n      calldatasize\n      sub\n      dup2\n      add\n      swap1\n      tag_29\n      swap2\n      swap1\n      tag_30\n      jump\t// in\n    tag_29:\n      tag_31\n      jump\t// in\n    tag_28:\n      stop\n        /* \"contracts/transactions/ZrTransaction.sol\":12707:12857  function getEVMWallets() public view virtual returns (string[] memory) {... */\n    tag_6:\n      callvalue\n      dup1\n      iszero\n      tag_32\n      jumpi\n      0x00\n      dup1\n      revert\n    tag_32:\n      pop\n      tag_33\n      tag_34\n      jump\t// in\n    tag_33:\n      mload(0x40)\n      tag_35\n      swap2\n      swap1\n      tag_36\n      jump\t// in\n    tag_35:\n      mload(0x40)\n      dup1\n      swap2\n      sub\n      swap1\n      return\n        /* \"contracts/transactions/ZrTransaction.sol\":15472:16050  function submitTransaction(... */\n    tag_7:\n      callvalue\n      dup1\n      iszero\n      tag_37\n      jumpi\n      0x00\n      dup1\n      revert\n    tag_37:\n      pop\n      tag_38\n      0x04\n      dup1\n      calldatasize\n      sub\n      dup2\n      add\n      swap1\n      tag_39\n      swap2\n      swap1\n      tag_40\n      jump\t// in\n    tag_39:\n      tag_41\n      jump\t// in\n    tag_38:\n      stop\n        /* \"contracts/transactions/ZrTransaction.sol\":8745:9088  function requestNewEVMWallet() public virtual {... */\n    tag_8:\n      callvalue\n      dup1\n      iszero\n      tag_42\n      jumpi\n      0x00\n      dup1\n      revert\n    tag_42:\n      pop\n      tag_43\n      tag_44\n      jump\t// in\n    tag_43:\n      stop\n        /* \"contracts/transactions/ZrTransaction.sol\":12244:12534  function calculateFeeForSign(bytes memory payload)... */\n    tag_9:\n      callvalue\n      dup1\n      iszero\n      tag_45\n      jumpi\n      0x00\n      dup1\n      revert\n    tag_45:\n      pop\n      tag_46\n      0x04\n      dup1\n      calldatasize\n      sub\n      dup2\n      add\n      swap1\n      tag_47\n      swap2\n      swap1\n      tag_48\n      jump\t// in\n    tag_47:\n      tag_49\n      jump\t// in\n    tag_46:\n      mload(0x40)\n      tag_50\n      swap2\n      swap1\n      tag_51\n      jump\t// in\n    tag_50:\n      mload(0x40)\n      dup1\n      swap2\n      sub\n      swap1\n      return\n        /* \"contracts/transactions/ZrTransaction.sol\":13133:13291  function getEVMWallet(uint256 index) public view returns (string memory) {... */\n    tag_19:\n        /* \"contracts/transactions/ZrTransaction.sol\":13191:13204  string memory */\n      0x60\n        /* \"contracts/transactions/ZrTransaction.sol\":8370:8412  0x8F309C9550D0d69C3f9b8d7BCdC7C93B05Cd089e */\n      0x8f309c9550d0d69c3f9b8d7bcdc7c93b05cd089e\n        /* \"contracts/transactions/ZrTransaction.sol\":13223:13247  IZrSign(zrSign).getZrKey */\n      0xffffffffffffffffffffffffffffffffffffffff\n      and\n      0x187e5818\n        /* \"contracts/transactions/ZrTransaction.sol\":8542:8608  0xe146c2986893c43af5ff396310220be92058fb9f4ce76b929b80ef0d5307100a */\n      0xe146c2986893c43af5ff396310220be92058fb9f4ce76b929b80ef0d5307100a\n        /* \"contracts/transactions/ZrTransaction.sol\":13248:13261  EVMWalletType */\n      0x00\n      shl\n        /* \"contracts/transactions/ZrTransaction.sol\":13271:13275  this */\n      address\n        /* \"contracts/transactions/ZrTransaction.sol\":13278:13283  index */\n      dup6\n        /* \"contracts/transactions/ZrTransaction.sol\":13223:13284  IZrSign(zrSign).getZrKey(EVMWalletType, address(this), index) */\n      mload(0x40)\n      dup5\n      0xffffffff\n      and\n      0xe0\n      shl\n      dup2\n      mstore\n      0x04\n      add\n      tag_53\n      swap4\n      swap3\n      swap2\n      swap1\n      tag_54\n      jump\t// in\n    tag_53:\n      0x00\n      mload(0x40)\n      dup1\n      dup4\n      sub\n      dup2\n      dup7\n      gas\n      staticcall\n      iszero\n      dup1\n      iszero\n      tag_56\n      jumpi\n      returndatasize\n      0x00\n      dup1\n      returndatacopy\n      revert(0x00, returndatasize)\n    tag_56:\n      pop\n      pop\n      pop\n      pop\n      mload(0x40)\n      returndatasize\n      0x00\n      dup3\n      returndatacopy\n      returndatasize\n      not(0x1f)\n      0x1f\n      dup3\n      add\n      and\n      dup3\n      add\n      dup1\n      0x40\n      mstore\n      pop\n      dup2\n      add\n      swap1\n      tag_57\n      swap2\n      swap1\n      tag_58\n      jump\t// in\n    tag_57:\n        /* \"contracts/transactions/ZrTransaction.sol\":13216:13284  return IZrSign(zrSign).getZrKey(EVMWalletType, address(this), index) */\n      swap1\n      pop\n        /* \"contracts/transactions/ZrTransaction.sol\":13133:13291  function getEVMWallet(uint256 index) public view returns (string memory) {... */\n      swap2\n      swap1\n      pop\n      jump\t// out\n        /* \"contracts/transactions/ZrTransaction.sol\":16056:16700  function submitTransaction(... */\n    tag_26:\n        /* \"contracts/transactions/ZrTransaction.sol\":16281:16308  bytes memory rlpPayloadData */\n      0x00\n        /* \"contracts/transactions/ZrTransaction.sol\":16311:16330  rlpEncodeData(data) */\n      tag_60\n        /* \"contracts/transactions/ZrTransaction.sol\":16325:16329  data */\n      dup3\n        /* \"contracts/transactions/ZrTransaction.sol\":16311:16324  rlpEncodeData */\n      tag_61\n        /* \"contracts/transactions/ZrTransaction.sol\":16311:16330  rlpEncodeData(data) */\n      jump\t// in\n    tag_60:\n        /* \"contracts/transactions/ZrTransaction.sol\":16281:16330  bytes memory rlpPayloadData = rlpEncodeData(data) */\n      swap1\n      pop\n        /* \"contracts/transactions/ZrTransaction.sol\":16340:16371  bytes memory rlpTransactionData */\n      0x00\n        /* \"contracts/transactions/ZrTransaction.sol\":16374:16530  rlpEncodeTransaction(... */\n      tag_62\n        /* \"contracts/transactions/ZrTransaction.sol\":16408:16413  nonce */\n      dup5\n        /* \"contracts/transactions/ZrTransaction.sol\":16427:16435  gasPrice */\n      dup8\n        /* \"contracts/transactions/ZrTransaction.sol\":16449:16457  gasLimit */\n      dup8\n        /* \"contracts/transactions/ZrTransaction.sol\":16471:16473  to */\n      dup12\n        /* \"contracts/transactions/ZrTransaction.sol\":16487:16492  value */\n      dup12\n        /* \"contracts/transactions/ZrTransaction.sol\":16506:16520  rlpPayloadData */\n      dup8\n        /* \"contracts/transactions/ZrTransaction.sol\":16374:16394  rlpEncodeTransaction */\n      tag_63\n        /* \"contracts/transactions/ZrTransaction.sol\":16374:16530  rlpEncodeTransaction(... */\n      jump\t// in\n    tag_62:\n        /* \"contracts/transactions/ZrTransaction.sol\":16340:16530  bytes memory rlpTransactionData = rlpEncodeTransaction(... */\n      swap1\n      pop\n        /* \"contracts/transactions/ZrTransaction.sol\":16540:16693  reqSignForTx(... */\n      tag_64\n        /* \"contracts/transactions/ZrTransaction.sol\":8542:8608  0xe146c2986893c43af5ff396310220be92058fb9f4ce76b929b80ef0d5307100a */\n      0xe146c2986893c43af5ff396310220be92058fb9f4ce76b929b80ef0d5307100a\n        /* \"contracts/transactions/ZrTransaction.sol\":16566:16579  EVMWalletType */\n      0x00\n      shl\n        /* \"contracts/transactions/ZrTransaction.sol\":16593:16605  fromKeyIndex */\n      dup11\n        /* \"contracts/transactions/ZrTransaction.sol\":15258:15324  0xafa90c317deacd3d68f330a30f96e4fa7736e35e8d1426b2e1b2c04bce1c2fb7 */\n      0xafa90c317deacd3d68f330a30f96e4fa7736e35e8d1426b2e1b2c04bce1c2fb7\n        /* \"contracts/transactions/ZrTransaction.sol\":16619:16633  sepoliaChainId */\n      0x00\n      shl\n        /* \"contracts/transactions/ZrTransaction.sol\":16647:16665  rlpTransactionData */\n      dup5\n        /* \"contracts/transactions/ZrTransaction.sol\":16679:16683  true */\n      0x01\n        /* \"contracts/transactions/ZrTransaction.sol\":16540:16552  reqSignForTx */\n      tag_65\n        /* \"contracts/transactions/ZrTransaction.sol\":16540:16693  reqSignForTx(... */\n      jump\t// in\n    tag_64:\n        /* \"contracts/transactions/ZrTransaction.sol\":16271:16700  {... */\n      pop\n      pop\n        /* \"contracts/transactions/ZrTransaction.sol\":16056:16700  function submitTransaction(... */\n      pop\n      pop\n      pop\n      pop\n      pop\n      pop\n      pop\n      jump\t// out\n        /* \"contracts/transactions/ZrTransaction.sol\":16706:17379  function submitTransaction(... */\n    tag_31:\n        /* \"contracts/transactions/ZrTransaction.sol\":16955:16982  bytes memory rlpPayloadData */\n      0x00\n        /* \"contracts/transactions/ZrTransaction.sol\":16985:17004  rlpEncodeData(data) */\n      tag_67\n        /* \"contracts/transactions/ZrTransaction.sol\":16999:17003  data */\n      dup4\n        /* \"contracts/transactions/ZrTransaction.sol\":16985:16998  rlpEncodeData */\n      tag_61\n        /* \"contracts/transactions/ZrTransaction.sol\":16985:17004  rlpEncodeData(data) */\n      jump\t// in\n    tag_67:\n        /* \"contracts/transactions/ZrTransaction.sol\":16955:17004  bytes memory rlpPayloadData = rlpEncodeData(data) */\n      swap1\n      pop\n        /* \"contracts/transactions/ZrTransaction.sol\":17014:17045  bytes memory rlpTransactionData */\n      0x00\n        /* \"contracts/transactions/ZrTransaction.sol\":17048:17204  rlpEncodeTransaction(... */\n      tag_68\n        /* \"contracts/transactions/ZrTransaction.sol\":17082:17087  nonce */\n      dup6\n        /* \"contracts/transactions/ZrTransaction.sol\":17101:17109  gasPrice */\n      dup9\n        /* \"contracts/transactions/ZrTransaction.sol\":17123:17131  gasLimit */\n      dup9\n        /* \"contracts/transactions/ZrTransaction.sol\":17145:17147  to */\n      dup13\n        /* \"contracts/transactions/ZrTransaction.sol\":17161:17166  value */\n      dup13\n        /* \"contracts/transactions/ZrTransaction.sol\":17180:17194  rlpPayloadData */\n      dup8\n        /* \"contracts/transactions/ZrTransaction.sol\":17048:17068  rlpEncodeTransaction */\n      tag_63\n        /* \"contracts/transactions/ZrTransaction.sol\":17048:17204  rlpEncodeTransaction(... */\n      jump\t// in\n    tag_68:\n        /* \"contracts/transactions/ZrTransaction.sol\":17014:17204  bytes memory rlpTransactionData = rlpEncodeTransaction(... */\n      swap1\n      pop\n        /* \"contracts/transactions/ZrTransaction.sol\":17214:17372  reqSignForTx(... */\n      tag_69\n        /* \"contracts/transactions/ZrTransaction.sol\":8542:8608  0xe146c2986893c43af5ff396310220be92058fb9f4ce76b929b80ef0d5307100a */\n      0xe146c2986893c43af5ff396310220be92058fb9f4ce76b929b80ef0d5307100a\n        /* \"contracts/transactions/ZrTransaction.sol\":17240:17253  EVMWalletType */\n      0x00\n      shl\n        /* \"contracts/transactions/ZrTransaction.sol\":17267:17279  fromKeyIndex */\n      dup12\n        /* \"contracts/transactions/ZrTransaction.sol\":15258:15324  0xafa90c317deacd3d68f330a30f96e4fa7736e35e8d1426b2e1b2c04bce1c2fb7 */\n      0xafa90c317deacd3d68f330a30f96e4fa7736e35e8d1426b2e1b2c04bce1c2fb7\n        /* \"contracts/transactions/ZrTransaction.sol\":17293:17307  sepoliaChainId */\n      0x00\n      shl\n        /* \"contracts/transactions/ZrTransaction.sol\":17321:17339  rlpTransactionData */\n      dup5\n        /* \"contracts/transactions/ZrTransaction.sol\":17353:17362  broadcast */\n      dup8\n        /* \"contracts/transactions/ZrTransaction.sol\":17214:17226  reqSignForTx */\n      tag_65\n        /* \"contracts/transactions/ZrTransaction.sol\":17214:17372  reqSignForTx(... */\n      jump\t// in\n    tag_69:\n        /* \"contracts/transactions/ZrTransaction.sol\":16945:17379  {... */\n      pop\n      pop\n        /* \"contracts/transactions/ZrTransaction.sol\":16706:17379  function submitTransaction(... */\n      pop\n      pop\n      pop\n      pop\n      pop\n      pop\n      pop\n      pop\n      jump\t// out\n        /* \"contracts/transactions/ZrTransaction.sol\":12707:12857  function getEVMWallets() public view virtual returns (string[] memory) {... */\n    tag_34:\n        /* \"contracts/transactions/ZrTransaction.sol\":12761:12776  string[] memory */\n      0x60\n        /* \"contracts/transactions/ZrTransaction.sol\":8370:8412  0x8F309C9550D0d69C3f9b8d7BCdC7C93B05Cd089e */\n      0x8f309c9550d0d69c3f9b8d7bcdc7c93b05cd089e\n        /* \"contracts/transactions/ZrTransaction.sol\":12795:12820  IZrSign(zrSign).getZrKeys */\n      0xffffffffffffffffffffffffffffffffffffffff\n      and\n      0xa11a572d\n        /* \"contracts/transactions/ZrTransaction.sol\":8542:8608  0xe146c2986893c43af5ff396310220be92058fb9f4ce76b929b80ef0d5307100a */\n      0xe146c2986893c43af5ff396310220be92058fb9f4ce76b929b80ef0d5307100a\n        /* \"contracts/transactions/ZrTransaction.sol\":12821:12834  EVMWalletType */\n      0x00\n      shl\n        /* \"contracts/transactions/ZrTransaction.sol\":12844:12848  this */\n      address\n        /* \"contracts/transactions/ZrTransaction.sol\":12795:12850  IZrSign(zrSign).getZrKeys(EVMWalletType, address(this)) */\n      mload(0x40)\n      dup4\n      0xffffffff\n      and\n      0xe0\n      shl\n      dup2\n      mstore\n      0x04\n      add\n      tag_71\n      swap3\n      swap2\n      swap1\n      tag_72\n      jump\t// in\n    tag_71:\n      0x00\n      mload(0x40)\n      dup1\n      dup4\n      sub\n      dup2\n      dup7\n      gas\n      staticcall\n      iszero\n      dup1\n      iszero\n      tag_74\n      jumpi\n      returndatasize\n      0x00\n      dup1\n      returndatacopy\n      revert(0x00, returndatasize)\n    tag_74:\n      pop\n      pop\n      pop\n      pop\n      mload(0x40)\n      returndatasize\n      0x00\n      dup3\n      returndatacopy\n      returndatasize\n      not(0x1f)\n      0x1f\n      dup3\n      add\n      and\n      dup3\n      add\n      dup1\n      0x40\n      mstore\n      pop\n      dup2\n      add\n      swap1\n      tag_75\n      swap2\n      swap1\n      tag_76\n      jump\t// in\n    tag_75:\n        /* \"contracts/transactions/ZrTransaction.sol\":12788:12850  return IZrSign(zrSign).getZrKeys(EVMWalletType, address(this)) */\n      swap1\n      pop\n        /* \"contracts/transactions/ZrTransaction.sol\":12707:12857  function getEVMWallets() public view virtual returns (string[] memory) {... */\n      swap1\n      jump\t// out\n        /* \"contracts/transactions/ZrTransaction.sol\":15472:16050  function submitTransaction(... */\n    tag_41:\n        /* \"contracts/transactions/ZrTransaction.sol\":15626:15643  bytes memory data */\n      0x00\n        /* \"contracts/transactions/ZrTransaction.sol\":15646:15666  rlpEncodeData(_data) */\n      tag_78\n        /* \"contracts/transactions/ZrTransaction.sol\":15660:15665  _data */\n      dup3\n        /* \"contracts/transactions/ZrTransaction.sol\":15646:15659  rlpEncodeData */\n      tag_61\n        /* \"contracts/transactions/ZrTransaction.sol\":15646:15666  rlpEncodeData(_data) */\n      jump\t// in\n    tag_78:\n        /* \"contracts/transactions/ZrTransaction.sol\":15626:15666  bytes memory data = rlpEncodeData(_data) */\n      swap1\n      pop\n        /* \"contracts/transactions/ZrTransaction.sol\":15676:15707  bytes memory rlpTransactionData */\n      0x00\n        /* \"contracts/transactions/ZrTransaction.sol\":15710:15861  rlpEncodeTransaction(... */\n      tag_79\n        /* \"contracts/transactions/ZrTransaction.sol\":15744:15750  _nonce */\n      sload(0x02)\n        /* \"contracts/transactions/ZrTransaction.sol\":15764:15773  _gasPrice */\n      sload(0x00)\n        /* \"contracts/transactions/ZrTransaction.sol\":15787:15796  _gasLimit */\n      sload(0x01)\n        /* \"contracts/transactions/ZrTransaction.sol\":15810:15813  _to */\n      dup9\n        /* \"contracts/transactions/ZrTransaction.sol\":15827:15833  _value */\n      dup9\n        /* \"contracts/transactions/ZrTransaction.sol\":15847:15851  data */\n      dup8\n        /* \"contracts/transactions/ZrTransaction.sol\":15710:15730  rlpEncodeTransaction */\n      tag_63\n        /* \"contracts/transactions/ZrTransaction.sol\":15710:15861  rlpEncodeTransaction(... */\n      jump\t// in\n    tag_79:\n        /* \"contracts/transactions/ZrTransaction.sol\":15676:15861  bytes memory rlpTransactionData = rlpEncodeTransaction(... */\n      swap1\n      pop\n        /* \"contracts/transactions/ZrTransaction.sol\":15871:16025  reqSignForTx(... */\n      tag_80\n        /* \"contracts/transactions/ZrTransaction.sol\":8542:8608  0xe146c2986893c43af5ff396310220be92058fb9f4ce76b929b80ef0d5307100a */\n      0xe146c2986893c43af5ff396310220be92058fb9f4ce76b929b80ef0d5307100a\n        /* \"contracts/transactions/ZrTransaction.sol\":15897:15910  EVMWalletType */\n      0x00\n      shl\n        /* \"contracts/transactions/ZrTransaction.sol\":15924:15937  _fromKeyIndex */\n      dup8\n        /* \"contracts/transactions/ZrTransaction.sol\":15258:15324  0xafa90c317deacd3d68f330a30f96e4fa7736e35e8d1426b2e1b2c04bce1c2fb7 */\n      0xafa90c317deacd3d68f330a30f96e4fa7736e35e8d1426b2e1b2c04bce1c2fb7\n        /* \"contracts/transactions/ZrTransaction.sol\":15951:15965  sepoliaChainId */\n      0x00\n      shl\n        /* \"contracts/transactions/ZrTransaction.sol\":15979:15997  rlpTransactionData */\n      dup5\n        /* \"contracts/transactions/ZrTransaction.sol\":16011:16015  true */\n      0x01\n        /* \"contracts/transactions/ZrTransaction.sol\":15871:15883  reqSignForTx */\n      tag_65\n        /* \"contracts/transactions/ZrTransaction.sol\":15871:16025  reqSignForTx(... */\n      jump\t// in\n    tag_80:\n        /* \"contracts/transactions/ZrTransaction.sol\":16035:16041  _nonce */\n      0x02\n      0x00\n        /* \"contracts/transactions/ZrTransaction.sol\":16035:16043  _nonce++ */\n      dup2\n      sload\n      dup1\n      swap3\n      swap2\n      swap1\n      tag_81\n      swap1\n      tag_82\n      jump\t// in\n    tag_81:\n      swap2\n      swap1\n      pop\n      sstore\n      pop\n        /* \"contracts/transactions/ZrTransaction.sol\":15616:16050  {... */\n      pop\n      pop\n        /* \"contracts/transactions/ZrTransaction.sol\":15472:16050  function submitTransaction(... */\n      pop\n      pop\n      pop\n      pop\n      jump\t// out\n        /* \"contracts/transactions/ZrTransaction.sol\":8745:9088  function requestNewEVMWallet() public virtual {... */\n    tag_44:\n        /* \"contracts/transactions/ZrTransaction.sol\":8801:8813  uint256 _fee */\n      0x00\n        /* \"contracts/transactions/ZrTransaction.sol\":8370:8412  0x8F309C9550D0d69C3f9b8d7BCdC7C93B05Cd089e */\n      0x8f309c9550d0d69c3f9b8d7bcdc7c93b05cd089e\n        /* \"contracts/transactions/ZrTransaction.sol\":8816:8842  IZrSign(zrSign).getBaseFee */\n      0xffffffffffffffffffffffffffffffffffffffff\n      and\n      0x15e812ad\n        /* \"contracts/transactions/ZrTransaction.sol\":8816:8844  IZrSign(zrSign).getBaseFee() */\n      mload(0x40)\n      dup2\n      0xffffffff\n      and\n      0xe0\n      shl\n      dup2\n      mstore\n      0x04\n      add\n      0x20\n      mload(0x40)\n      dup1\n      dup4\n      sub\n      dup2\n      dup7\n      gas\n      staticcall\n      iszero\n      dup1\n      iszero\n      tag_85\n      jumpi\n      returndatasize\n      0x00\n      dup1\n      returndatacopy\n      revert(0x00, returndatasize)\n    tag_85:\n      pop\n      pop\n      pop\n      pop\n      mload(0x40)\n      returndatasize\n      not(0x1f)\n      0x1f\n      dup3\n      add\n      and\n      dup3\n      add\n      dup1\n      0x40\n      mstore\n      pop\n      dup2\n      add\n      swap1\n      tag_86\n      swap2\n      swap1\n      tag_87\n      jump\t// in\n    tag_86:\n        /* \"contracts/transactions/ZrTransaction.sol\":8801:8844  uint256 _fee = IZrSign(zrSign).getBaseFee() */\n      swap1\n      pop\n        /* \"contracts/transactions/ZrTransaction.sol\":8908:8946  SignTypes.ZrKeyReqParams memory params */\n      0x00\n        /* \"contracts/transactions/ZrTransaction.sol\":8949:9026  SignTypes.ZrKeyReqParams({... */\n      mload(0x40)\n      dup1\n      0x20\n      add\n      0x40\n      mstore\n      dup1\n        /* \"contracts/transactions/ZrTransaction.sol\":8542:8608  0xe146c2986893c43af5ff396310220be92058fb9f4ce76b929b80ef0d5307100a */\n      0xe146c2986893c43af5ff396310220be92058fb9f4ce76b929b80ef0d5307100a\n        /* \"contracts/transactions/ZrTransaction.sol\":9002:9015  EVMWalletType */\n      0x00\n      shl\n        /* \"contracts/transactions/ZrTransaction.sol\":8949:9026  SignTypes.ZrKeyReqParams({... */\n      dup2\n      mstore\n      pop\n        /* \"contracts/transactions/ZrTransaction.sol\":8908:9026  SignTypes.ZrKeyReqParams memory params = SignTypes.ZrKeyReqParams({... */\n      swap1\n      pop\n        /* \"contracts/transactions/ZrTransaction.sol\":8370:8412  0x8F309C9550D0d69C3f9b8d7BCdC7C93B05Cd089e */\n      0x8f309c9550d0d69c3f9b8d7bcdc7c93b05cd089e\n        /* \"contracts/transactions/ZrTransaction.sol\":9036:9060  IZrSign(zrSign).zrKeyReq */\n      0xffffffffffffffffffffffffffffffffffffffff\n      and\n      0x331eba82\n        /* \"contracts/transactions/ZrTransaction.sol\":9068:9072  _fee */\n      dup4\n        /* \"contracts/transactions/ZrTransaction.sol\":9074:9080  params */\n      dup4\n        /* \"contracts/transactions/ZrTransaction.sol\":9036:9081  IZrSign(zrSign).zrKeyReq{value: _fee}(params) */\n      mload(0x40)\n      dup4\n      0xffffffff\n      and\n      0xe0\n      shl\n      dup2\n      mstore\n      0x04\n      add\n      tag_88\n      swap2\n      swap1\n      tag_89\n      jump\t// in\n    tag_88:\n      0x00\n      mload(0x40)\n      dup1\n      dup4\n      sub\n      dup2\n      dup6\n      dup9\n      dup1\n      extcodesize\n      iszero\n      dup1\n      iszero\n      tag_90\n      jumpi\n      0x00\n      dup1\n      revert\n    tag_90:\n      pop\n      gas\n      call\n      iszero\n      dup1\n      iszero\n      tag_92\n      jumpi\n      returndatasize\n      0x00\n      dup1\n      returndatacopy\n      revert(0x00, returndatasize)\n    tag_92:\n      pop\n      pop\n      pop\n      pop\n      pop\n        /* \"contracts/transactions/ZrTransaction.sol\":8791:9088  {... */\n      pop\n      pop\n        /* \"contracts/transactions/ZrTransaction.sol\":8745:9088  function requestNewEVMWallet() public virtual {... */\n      jump\t// out\n        /* \"contracts/transactions/ZrTransaction.sol\":12244:12534  function calculateFeeForSign(bytes memory payload)... */\n    tag_49:\n        /* \"contracts/transactions/ZrTransaction.sol\":12340:12347  uint256 */\n      0x00\n        /* \"contracts/transactions/ZrTransaction.sol\":12363:12381  uint256 networkFee */\n      dup1\n        /* \"contracts/transactions/ZrTransaction.sol\":8370:8412  0x8F309C9550D0d69C3f9b8d7BCdC7C93B05Cd089e */\n      0x8f309c9550d0d69c3f9b8d7bcdc7c93b05cd089e\n        /* \"contracts/transactions/ZrTransaction.sol\":12401:12430  IZrSign(zrSign).getNetworkFee */\n      0xffffffffffffffffffffffffffffffffffffffff\n      and\n      0xfc043830\n        /* \"contracts/transactions/ZrTransaction.sol\":12401:12432  IZrSign(zrSign).getNetworkFee() */\n      mload(0x40)\n      dup2\n      0xffffffff\n      and\n      0xe0\n      shl\n      dup2\n      mstore\n      0x04\n      add\n      0x20\n      mload(0x40)\n      dup1\n      dup4\n      sub\n      dup2\n      dup7\n      gas\n      staticcall\n      iszero\n      dup1\n      iszero\n      tag_95\n      jumpi\n      returndatasize\n      0x00\n      dup1\n      returndatacopy\n      revert(0x00, returndatasize)\n    tag_95:\n      pop\n      pop\n      pop\n      pop\n      mload(0x40)\n      returndatasize\n      not(0x1f)\n      0x1f\n      dup3\n      add\n      and\n      dup3\n      add\n      dup1\n      0x40\n      mstore\n      pop\n      dup2\n      add\n      swap1\n      tag_96\n      swap2\n      swap1\n      tag_87\n      jump\t// in\n    tag_96:\n        /* \"contracts/transactions/ZrTransaction.sol\":12384:12391  payload */\n      dup4\n        /* \"contracts/transactions/ZrTransaction.sol\":12384:12398  payload.length */\n      mload\n        /* \"contracts/transactions/ZrTransaction.sol\":12384:12432  payload.length * IZrSign(zrSign).getNetworkFee() */\n      tag_97\n      swap2\n      swap1\n      tag_98\n      jump\t// in\n    tag_97:\n        /* \"contracts/transactions/ZrTransaction.sol\":12363:12432  uint256 networkFee = payload.length * IZrSign(zrSign).getNetworkFee() */\n      swap1\n      pop\n        /* \"contracts/transactions/ZrTransaction.sol\":12442:12458  uint256 totalFee */\n      0x00\n        /* \"contracts/transactions/ZrTransaction.sol\":12492:12502  networkFee */\n      dup2\n        /* \"contracts/transactions/ZrTransaction.sol\":8370:8412  0x8F309C9550D0d69C3f9b8d7BCdC7C93B05Cd089e */\n      0x8f309c9550d0d69c3f9b8d7bcdc7c93b05cd089e\n        /* \"contracts/transactions/ZrTransaction.sol\":12461:12487  IZrSign(zrSign).getBaseFee */\n      0xffffffffffffffffffffffffffffffffffffffff\n      and\n      0x15e812ad\n        /* \"contracts/transactions/ZrTransaction.sol\":12461:12489  IZrSign(zrSign).getBaseFee() */\n      mload(0x40)\n      dup2\n      0xffffffff\n      and\n      0xe0\n      shl\n      dup2\n      mstore\n      0x04\n      add\n      0x20\n      mload(0x40)\n      dup1\n      dup4\n      sub\n      dup2\n      dup7\n      gas\n      staticcall\n      iszero\n      dup1\n      iszero\n      tag_100\n      jumpi\n      returndatasize\n      0x00\n      dup1\n      returndatacopy\n      revert(0x00, returndatasize)\n    tag_100:\n      pop\n      pop\n      pop\n      pop\n      mload(0x40)\n      returndatasize\n      not(0x1f)\n      0x1f\n      dup3\n      add\n      and\n      dup3\n      add\n      dup1\n      0x40\n      mstore\n      pop\n      dup2\n      add\n      swap1\n      tag_101\n      swap2\n      swap1\n      tag_87\n      jump\t// in\n    tag_101:\n        /* \"contracts/transactions/ZrTransaction.sol\":12461:12502  IZrSign(zrSign).getBaseFee() + networkFee */\n      tag_102\n      swap2\n      swap1\n      tag_103\n      jump\t// in\n    tag_102:\n        /* \"contracts/transactions/ZrTransaction.sol\":12442:12502  uint256 totalFee = IZrSign(zrSign).getBaseFee() + networkFee */\n      swap1\n      pop\n        /* \"contracts/transactions/ZrTransaction.sol\":12519:12527  totalFee */\n      dup1\n        /* \"contracts/transactions/ZrTransaction.sol\":12512:12527  return totalFee */\n      swap3\n      pop\n      pop\n      pop\n        /* \"contracts/transactions/ZrTransaction.sol\":12244:12534  function calculateFeeForSign(bytes memory payload)... */\n      swap2\n      swap1\n      pop\n      jump\t// out\n        /* \"contracts/transactions/ZrTransaction.sol\":13405:13556  function rlpEncodeData(bytes memory data)... */\n    tag_61:\n        /* \"contracts/transactions/ZrTransaction.sol\":13497:13509  bytes memory */\n      0x60\n        /* \"contracts/transactions/ZrTransaction.sol\":13532:13549  data.writeBytes() */\n      tag_105\n        /* \"contracts/transactions/ZrTransaction.sol\":13532:13536  data */\n      dup3\n        /* \"contracts/transactions/ZrTransaction.sol\":13532:13547  data.writeBytes */\n      tag_106\n        /* \"contracts/transactions/ZrTransaction.sol\":13532:13549  data.writeBytes() */\n      jump\t// in\n    tag_105:\n        /* \"contracts/transactions/ZrTransaction.sol\":13525:13549  return data.writeBytes() */\n      swap1\n      pop\n        /* \"contracts/transactions/ZrTransaction.sol\":13405:13556  function rlpEncodeData(bytes memory data)... */\n      swap2\n      swap1\n      pop\n      jump\t// out\n        /* \"contracts/transactions/ZrTransaction.sol\":13688:14204  function rlpEncodeTransaction(... */\n    tag_63:\n        /* \"contracts/transactions/ZrTransaction.sol\":13895:13907  bytes memory */\n      0x60\n        /* \"contracts/transactions/ZrTransaction.sol\":13919:13934  bytes memory nb */\n      0x00\n        /* \"contracts/transactions/ZrTransaction.sol\":13937:13954  nonce.writeUint() */\n      tag_108\n        /* \"contracts/transactions/ZrTransaction.sol\":13937:13942  nonce */\n      dup9\n        /* \"contracts/transactions/ZrTransaction.sol\":13937:13952  nonce.writeUint */\n      tag_109\n        /* \"contracts/transactions/ZrTransaction.sol\":13937:13954  nonce.writeUint() */\n      jump\t// in\n    tag_108:\n        /* \"contracts/transactions/ZrTransaction.sol\":13919:13954  bytes memory nb = nonce.writeUint() */\n      swap1\n      pop\n        /* \"contracts/transactions/ZrTransaction.sol\":13964:13979  bytes memory gp */\n      0x00\n        /* \"contracts/transactions/ZrTransaction.sol\":13982:14002  gasPrice.writeUint() */\n      tag_110\n        /* \"contracts/transactions/ZrTransaction.sol\":13982:13990  gasPrice */\n      dup9\n        /* \"contracts/transactions/ZrTransaction.sol\":13982:14000  gasPrice.writeUint */\n      tag_109\n        /* \"contracts/transactions/ZrTransaction.sol\":13982:14002  gasPrice.writeUint() */\n      jump\t// in\n    tag_110:\n        /* \"contracts/transactions/ZrTransaction.sol\":13964:14002  bytes memory gp = gasPrice.writeUint() */\n      swap1\n      pop\n        /* \"contracts/transactions/ZrTransaction.sol\":14012:14027  bytes memory gl */\n      0x00\n        /* \"contracts/transactions/ZrTransaction.sol\":14030:14050  gasLimit.writeUint() */\n      tag_111\n        /* \"contracts/transactions/ZrTransaction.sol\":14030:14038  gasLimit */\n      dup9\n        /* \"contracts/transactions/ZrTransaction.sol\":14030:14048  gasLimit.writeUint */\n      tag_109\n        /* \"contracts/transactions/ZrTransaction.sol\":14030:14050  gasLimit.writeUint() */\n      jump\t// in\n    tag_111:\n        /* \"contracts/transactions/ZrTransaction.sol\":14012:14050  bytes memory gl = gasLimit.writeUint() */\n      swap1\n      pop\n        /* \"contracts/transactions/ZrTransaction.sol\":14060:14074  bytes memory t */\n      0x00\n        /* \"contracts/transactions/ZrTransaction.sol\":14077:14094  to.writeAddress() */\n      tag_112\n        /* \"contracts/transactions/ZrTransaction.sol\":14077:14079  to */\n      dup9\n        /* \"contracts/transactions/ZrTransaction.sol\":14077:14092  to.writeAddress */\n      0xffffffffffffffffffffffffffffffffffffffff\n      and\n      tag_113\n        /* \"contracts/transactions/ZrTransaction.sol\":14077:14094  to.writeAddress() */\n      jump\t// in\n    tag_112:\n        /* \"contracts/transactions/ZrTransaction.sol\":14060:14094  bytes memory t = to.writeAddress() */\n      swap1\n      pop\n        /* \"contracts/transactions/ZrTransaction.sol\":14104:14118  bytes memory v */\n      0x00\n        /* \"contracts/transactions/ZrTransaction.sol\":14121:14138  value.writeUint() */\n      tag_114\n        /* \"contracts/transactions/ZrTransaction.sol\":14121:14126  value */\n      dup9\n        /* \"contracts/transactions/ZrTransaction.sol\":14121:14136  value.writeUint */\n      tag_109\n        /* \"contracts/transactions/ZrTransaction.sol\":14121:14138  value.writeUint() */\n      jump\t// in\n    tag_114:\n        /* \"contracts/transactions/ZrTransaction.sol\":14104:14138  bytes memory v = value.writeUint() */\n      swap1\n      pop\n        /* \"contracts/transactions/ZrTransaction.sol\":14155:14197  _encodeTransaction(nb, gp, gl, t, v, data) */\n      tag_115\n        /* \"contracts/transactions/ZrTransaction.sol\":14174:14176  nb */\n      dup6\n        /* \"contracts/transactions/ZrTransaction.sol\":14178:14180  gp */\n      dup6\n        /* \"contracts/transactions/ZrTransaction.sol\":14182:14184  gl */\n      dup6\n        /* \"contracts/transactions/ZrTransaction.sol\":14186:14187  t */\n      dup6\n        /* \"contracts/transactions/ZrTransaction.sol\":14189:14190  v */\n      dup6\n        /* \"contracts/transactions/ZrTransaction.sol\":14192:14196  data */\n      dup13\n        /* \"contracts/transactions/ZrTransaction.sol\":14155:14173  _encodeTransaction */\n      tag_116\n        /* \"contracts/transactions/ZrTransaction.sol\":14155:14197  _encodeTransaction(nb, gp, gl, t, v, data) */\n      jump\t// in\n    tag_115:\n        /* \"contracts/transactions/ZrTransaction.sol\":14148:14197  return _encodeTransaction(nb, gp, gl, t, v, data) */\n      swap6\n      pop\n      pop\n      pop\n      pop\n      pop\n      pop\n        /* \"contracts/transactions/ZrTransaction.sol\":13688:14204  function rlpEncodeTransaction(... */\n      swap7\n      swap6\n      pop\n      pop\n      pop\n      pop\n      pop\n      pop\n      jump\t// out\n        /* \"contracts/transactions/ZrTransaction.sol\":11663:12238  function reqSignForTx(... */\n    tag_65:\n        /* \"contracts/transactions/ZrTransaction.sol\":11859:11871  uint256 _fee */\n      0x00\n        /* \"contracts/transactions/ZrTransaction.sol\":11874:11914  calculateFeeForSign(abi.encode(payload)) */\n      tag_118\n        /* \"contracts/transactions/ZrTransaction.sol\":11905:11912  payload */\n      dup4\n        /* \"contracts/transactions/ZrTransaction.sol\":11894:11913  abi.encode(payload) */\n      add(0x20, mload(0x40))\n      tag_119\n      swap2\n      swap1\n      tag_120\n      jump\t// in\n    tag_119:\n      mload(0x40)\n      0x20\n      dup2\n      dup4\n      sub\n      sub\n      dup2\n      mstore\n      swap1\n      0x40\n      mstore\n        /* \"contracts/transactions/ZrTransaction.sol\":11874:11893  calculateFeeForSign */\n      tag_49\n        /* \"contracts/transactions/ZrTransaction.sol\":11874:11914  calculateFeeForSign(abi.encode(payload)) */\n      jump\t// in\n    tag_118:\n        /* \"contracts/transactions/ZrTransaction.sol\":11859:11914  uint256 _fee = calculateFeeForSign(abi.encode(payload)) */\n      swap1\n      pop\n        /* \"contracts/transactions/ZrTransaction.sol\":11924:11960  SignTypes.ZrSignParams memory params */\n      0x00\n        /* \"contracts/transactions/ZrTransaction.sol\":11963:12175  SignTypes.ZrSignParams({... */\n      mload(0x40)\n      dup1\n      0xa0\n      add\n      0x40\n      mstore\n      dup1\n        /* \"contracts/transactions/ZrTransaction.sol\":12014:12026  walletTypeId */\n      dup9\n        /* \"contracts/transactions/ZrTransaction.sol\":11963:12175  SignTypes.ZrSignParams({... */\n      dup2\n      mstore\n      0x20\n      add\n        /* \"contracts/transactions/ZrTransaction.sol\":12053:12064  walletIndex */\n      dup8\n        /* \"contracts/transactions/ZrTransaction.sol\":11963:12175  SignTypes.ZrSignParams({... */\n      dup2\n      mstore\n      0x20\n      add\n        /* \"contracts/transactions/ZrTransaction.sol\":12090:12100  dstChainId */\n      dup7\n        /* \"contracts/transactions/ZrTransaction.sol\":11963:12175  SignTypes.ZrSignParams({... */\n      dup2\n      mstore\n      0x20\n      add\n        /* \"contracts/transactions/ZrTransaction.sol\":12123:12130  payload */\n      dup6\n        /* \"contracts/transactions/ZrTransaction.sol\":11963:12175  SignTypes.ZrSignParams({... */\n      dup2\n      mstore\n      0x20\n      add\n        /* \"contracts/transactions/ZrTransaction.sol\":12155:12164  broadcast */\n      dup5\n        /* \"contracts/transactions/ZrTransaction.sol\":11963:12175  SignTypes.ZrSignParams({... */\n      iszero\n      iszero\n      dup2\n      mstore\n      pop\n        /* \"contracts/transactions/ZrTransaction.sol\":11924:12175  SignTypes.ZrSignParams memory params = SignTypes.ZrSignParams({... */\n      swap1\n      pop\n        /* \"contracts/transactions/ZrTransaction.sol\":8370:8412  0x8F309C9550D0d69C3f9b8d7BCdC7C93B05Cd089e */\n      0x8f309c9550d0d69c3f9b8d7bcdc7c93b05cd089e\n        /* \"contracts/transactions/ZrTransaction.sol\":12186:12210  IZrSign(zrSign).zrSignTx */\n      0xffffffffffffffffffffffffffffffffffffffff\n      and\n      0x93f874c4\n        /* \"contracts/transactions/ZrTransaction.sol\":12218:12222  _fee */\n      dup4\n        /* \"contracts/transactions/ZrTransaction.sol\":12224:12230  params */\n      dup4\n        /* \"contracts/transactions/ZrTransaction.sol\":12186:12231  IZrSign(zrSign).zrSignTx{value: _fee}(params) */\n      mload(0x40)\n      dup4\n      0xffffffff\n      and\n      0xe0\n      shl\n      dup2\n      mstore\n      0x04\n      add\n      tag_121\n      swap2\n      swap1\n      tag_122\n      jump\t// in\n    tag_121:\n      0x00\n      mload(0x40)\n      dup1\n      dup4\n      sub\n      dup2\n      dup6\n      dup9\n      dup1\n      extcodesize\n      iszero\n      dup1\n      iszero\n      tag_123\n      jumpi\n      0x00\n      dup1\n      revert\n    tag_123:\n      pop\n      gas\n      call\n      iszero\n      dup1\n      iszero\n      tag_125\n      jumpi\n      returndatasize\n      0x00\n      dup1\n      returndatacopy\n      revert(0x00, returndatasize)\n    tag_125:\n      pop\n      pop\n      pop\n      pop\n      pop\n        /* \"contracts/transactions/ZrTransaction.sol\":11849:12238  {... */\n      pop\n      pop\n        /* \"contracts/transactions/ZrTransaction.sol\":11663:12238  function reqSignForTx(... */\n      pop\n      pop\n      pop\n      pop\n      pop\n      jump\t// out\n        /* \"contracts/transactions/ZrTransaction.sol\":1214:1536  function writeBytes(bytes memory _in) internal pure returns (bytes memory) {... */\n    tag_106:\n        /* \"contracts/transactions/ZrTransaction.sol\":1275:1287  bytes memory */\n      0x60\n        /* \"contracts/transactions/ZrTransaction.sol\":1299:1319  bytes memory encoded */\n      dup1\n        /* \"contracts/transactions/ZrTransaction.sol\":1348:1349  1 */\n      0x01\n        /* \"contracts/transactions/ZrTransaction.sol\":1334:1337  _in */\n      dup4\n        /* \"contracts/transactions/ZrTransaction.sol\":1334:1344  _in.length */\n      mload\n        /* \"contracts/transactions/ZrTransaction.sol\":1334:1349  _in.length == 1 */\n      eq\n        /* \"contracts/transactions/ZrTransaction.sol\":1334:1372  _in.length == 1 && uint8(_in[0]) < 128 */\n      dup1\n      iszero\n      tag_127\n      jumpi\n      pop\n        /* \"contracts/transactions/ZrTransaction.sol\":1369:1372  128 */\n      0x80\n        /* \"contracts/transactions/ZrTransaction.sol\":1359:1362  _in */\n      dup4\n        /* \"contracts/transactions/ZrTransaction.sol\":1363:1364  0 */\n      0x00\n        /* \"contracts/transactions/ZrTransaction.sol\":1359:1365  _in[0] */\n      dup2\n      mload\n      dup2\n      lt\n      tag_128\n      jumpi\n      tag_129\n      tag_130\n      jump\t// in\n    tag_129:\n    tag_128:\n      0x20\n      add\n      add\n      mload\n      0xf8\n      shr\n      0xf8\n      shl\n        /* \"contracts/transactions/ZrTransaction.sol\":1353:1366  uint8(_in[0]) */\n      0xf8\n      shr\n        /* \"contracts/transactions/ZrTransaction.sol\":1353:1372  uint8(_in[0]) < 128 */\n      0xff\n      and\n      lt\n        /* \"contracts/transactions/ZrTransaction.sol\":1334:1372  _in.length == 1 && uint8(_in[0]) < 128 */\n    tag_127:\n        /* \"contracts/transactions/ZrTransaction.sol\":1330:1505  if (_in.length == 1 && uint8(_in[0]) < 128) {... */\n      iszero\n      tag_131\n      jumpi\n        /* \"contracts/transactions/ZrTransaction.sol\":1398:1401  _in */\n      dup3\n        /* \"contracts/transactions/ZrTransaction.sol\":1388:1401  encoded = _in */\n      swap1\n      pop\n        /* \"contracts/transactions/ZrTransaction.sol\":1330:1505  if (_in.length == 1 && uint8(_in[0]) < 128) {... */\n      jump(tag_132)\n    tag_131:\n        /* \"contracts/transactions/ZrTransaction.sol\":1459:1488  _writeLength(_in.length, 128) */\n      tag_133\n        /* \"contracts/transactions/ZrTransaction.sol\":1472:1475  _in */\n      dup4\n        /* \"contracts/transactions/ZrTransaction.sol\":1472:1482  _in.length */\n      mload\n        /* \"contracts/transactions/ZrTransaction.sol\":1484:1487  128 */\n      0x80\n        /* \"contracts/transactions/ZrTransaction.sol\":1459:1471  _writeLength */\n      tag_134\n        /* \"contracts/transactions/ZrTransaction.sol\":1459:1488  _writeLength(_in.length, 128) */\n      jump\t// in\n    tag_133:\n        /* \"contracts/transactions/ZrTransaction.sol\":1490:1493  _in */\n      dup4\n        /* \"contracts/transactions/ZrTransaction.sol\":1442:1494  abi.encodePacked(_writeLength(_in.length, 128), _in) */\n      add(0x20, mload(0x40))\n      tag_135\n      swap3\n      swap2\n      swap1\n      tag_136\n      jump\t// in\n    tag_135:\n      mload(0x40)\n      0x20\n      dup2\n      dup4\n      sub\n      sub\n      dup2\n      mstore\n      swap1\n      0x40\n      mstore\n        /* \"contracts/transactions/ZrTransaction.sol\":1432:1494  encoded = abi.encodePacked(_writeLength(_in.length, 128), _in) */\n      swap1\n      pop\n        /* \"contracts/transactions/ZrTransaction.sol\":1330:1505  if (_in.length == 1 && uint8(_in[0]) < 128) {... */\n    tag_132:\n        /* \"contracts/transactions/ZrTransaction.sol\":1522:1529  encoded */\n      dup1\n        /* \"contracts/transactions/ZrTransaction.sol\":1515:1529  return encoded */\n      swap2\n      pop\n      pop\n        /* \"contracts/transactions/ZrTransaction.sol\":1214:1536  function writeBytes(bytes memory _in) internal pure returns (bytes memory) {... */\n      swap2\n      swap1\n      pop\n      jump\t// out\n        /* \"contracts/transactions/ZrTransaction.sol\":2655:2774  function writeUint(uint256 _in) internal pure returns (bytes memory) {... */\n    tag_109:\n        /* \"contracts/transactions/ZrTransaction.sol\":2710:2722  bytes memory */\n      0x60\n        /* \"contracts/transactions/ZrTransaction.sol\":2741:2767  writeBytes(_toBinary(_in)) */\n      tag_138\n        /* \"contracts/transactions/ZrTransaction.sol\":2752:2766  _toBinary(_in) */\n      tag_139\n        /* \"contracts/transactions/ZrTransaction.sol\":2762:2765  _in */\n      dup4\n        /* \"contracts/transactions/ZrTransaction.sol\":2752:2761  _toBinary */\n      tag_140\n        /* \"contracts/transactions/ZrTransaction.sol\":2752:2766  _toBinary(_in) */\n      jump\t// in\n    tag_139:\n        /* \"contracts/transactions/ZrTransaction.sol\":2741:2751  writeBytes */\n      tag_106\n        /* \"contracts/transactions/ZrTransaction.sol\":2741:2767  writeBytes(_toBinary(_in)) */\n      jump\t// in\n    tag_138:\n        /* \"contracts/transactions/ZrTransaction.sol\":2734:2767  return writeBytes(_toBinary(_in)) */\n      swap1\n      pop\n        /* \"contracts/transactions/ZrTransaction.sol\":2655:2774  function writeUint(uint256 _in) internal pure returns (bytes memory) {... */\n      swap2\n      swap1\n      pop\n      jump\t// out\n        /* \"contracts/transactions/ZrTransaction.sol\":2387:2516  function writeAddress(address _in) internal pure returns (bytes memory) {... */\n    tag_113:\n        /* \"contracts/transactions/ZrTransaction.sol\":2445:2457  bytes memory */\n      0x60\n        /* \"contracts/transactions/ZrTransaction.sol\":2476:2509  writeBytes(abi.encodePacked(_in)) */\n      tag_142\n        /* \"contracts/transactions/ZrTransaction.sol\":2504:2507  _in */\n      dup3\n        /* \"contracts/transactions/ZrTransaction.sol\":2487:2508  abi.encodePacked(_in) */\n      add(0x20, mload(0x40))\n      tag_143\n      swap2\n      swap1\n      tag_144\n      jump\t// in\n    tag_143:\n      mload(0x40)\n      0x20\n      dup2\n      dup4\n      sub\n      sub\n      dup2\n      mstore\n      swap1\n      0x40\n      mstore\n        /* \"contracts/transactions/ZrTransaction.sol\":2476:2486  writeBytes */\n      tag_106\n        /* \"contracts/transactions/ZrTransaction.sol\":2476:2509  writeBytes(abi.encodePacked(_in)) */\n      jump\t// in\n    tag_142:\n        /* \"contracts/transactions/ZrTransaction.sol\":2469:2509  return writeBytes(abi.encodePacked(_in)) */\n      swap1\n      pop\n        /* \"contracts/transactions/ZrTransaction.sol\":2387:2516  function writeAddress(address _in) internal pure returns (bytes memory) {... */\n      swap2\n      swap1\n      pop\n      jump\t// out\n        /* \"contracts/transactions/ZrTransaction.sol\":14363:14991  function _encodeTransaction(... */\n    tag_116:\n        /* \"contracts/transactions/ZrTransaction.sol\":14590:14602  bytes memory */\n      0x60\n        /* \"contracts/transactions/ZrTransaction.sol\":14614:14629  bytes memory zb */\n      0x00\n        /* \"contracts/transactions/ZrTransaction.sol\":14632:14654  uint256(0).writeUint() */\n      tag_146\n        /* \"contracts/transactions/ZrTransaction.sol\":14640:14641  0 */\n      0x00\n        /* \"contracts/transactions/ZrTransaction.sol\":14632:14652  uint256(0).writeUint */\n      tag_109\n        /* \"contracts/transactions/ZrTransaction.sol\":14632:14654  uint256(0).writeUint() */\n      jump\t// in\n    tag_146:\n        /* \"contracts/transactions/ZrTransaction.sol\":14614:14654  bytes memory zb = uint256(0).writeUint() */\n      swap1\n      pop\n        /* \"contracts/transactions/ZrTransaction.sol\":14664:14686  bytes[] memory payload */\n      0x00\n        /* \"contracts/transactions/ZrTransaction.sol\":14701:14702  9 */\n      0x09\n        /* \"contracts/transactions/ZrTransaction.sol\":14689:14703  new bytes[](9) */\n      0xffffffffffffffff\n      dup2\n      gt\n      iszero\n      tag_147\n      jumpi\n      tag_148\n      tag_149\n      jump\t// in\n    tag_148:\n    tag_147:\n      mload(0x40)\n      swap1\n      dup1\n      dup3\n      mstore\n      dup1\n      0x20\n      mul\n      0x20\n      add\n      dup3\n      add\n      0x40\n      mstore\n      dup1\n      iszero\n      tag_150\n      jumpi\n      dup2\n      0x20\n      add\n    tag_151:\n      0x60\n      dup2\n      mstore\n      0x20\n      add\n      swap1\n      0x01\n      swap1\n      sub\n      swap1\n      dup2\n      tag_151\n      jumpi\n      swap1\n      pop\n    tag_150:\n      pop\n        /* \"contracts/transactions/ZrTransaction.sol\":14664:14703  bytes[] memory payload = new bytes[](9) */\n      swap1\n      pop\n        /* \"contracts/transactions/ZrTransaction.sol\":14726:14731  nonce */\n      dup9\n        /* \"contracts/transactions/ZrTransaction.sol\":14713:14720  payload */\n      dup2\n        /* \"contracts/transactions/ZrTransaction.sol\":14721:14722  0 */\n      0x00\n        /* \"contracts/transactions/ZrTransaction.sol\":14713:14723  payload[0] */\n      dup2\n      mload\n      dup2\n      lt\n      tag_152\n      jumpi\n      tag_153\n      tag_130\n      jump\t// in\n    tag_153:\n    tag_152:\n      0x20\n      mul\n      0x20\n      add\n      add\n        /* \"contracts/transactions/ZrTransaction.sol\":14713:14731  payload[0] = nonce */\n      dup2\n      swap1\n      mstore\n      pop\n        /* \"contracts/transactions/ZrTransaction.sol\":14754:14762  gasPrice */\n      dup8\n        /* \"contracts/transactions/ZrTransaction.sol\":14741:14748  payload */\n      dup2\n        /* \"contracts/transactions/ZrTransaction.sol\":14749:14750  1 */\n      0x01\n        /* \"contracts/transactions/ZrTransaction.sol\":14741:14751  payload[1] */\n      dup2\n      mload\n      dup2\n      lt\n      tag_154\n      jumpi\n      tag_155\n      tag_130\n      jump\t// in\n    tag_155:\n    tag_154:\n      0x20\n      mul\n      0x20\n      add\n      add\n        /* \"contracts/transactions/ZrTransaction.sol\":14741:14762  payload[1] = gasPrice */\n      dup2\n      swap1\n      mstore\n      pop\n        /* \"contracts/transactions/ZrTransaction.sol\":14785:14793  gasLimit */\n      dup7\n        /* \"contracts/transactions/ZrTransaction.sol\":14772:14779  payload */\n      dup2\n        /* \"contracts/transactions/ZrTransaction.sol\":14780:14781  2 */\n      0x02\n        /* \"contracts/transactions/ZrTransaction.sol\":14772:14782  payload[2] */\n      dup2\n      mload\n      dup2\n      lt\n      tag_156\n      jumpi\n      tag_157\n      tag_130\n      jump\t// in\n    tag_157:\n    tag_156:\n      0x20\n      mul\n      0x20\n      add\n      add\n        /* \"contracts/transactions/ZrTransaction.sol\":14772:14793  payload[2] = gasLimit */\n      dup2\n      swap1\n      mstore\n      pop\n        /* \"contracts/transactions/ZrTransaction.sol\":14816:14818  to */\n      dup6\n        /* \"contracts/transactions/ZrTransaction.sol\":14803:14810  payload */\n      dup2\n        /* \"contracts/transactions/ZrTransaction.sol\":14811:14812  3 */\n      0x03\n        /* \"contracts/transactions/ZrTransaction.sol\":14803:14813  payload[3] */\n      dup2\n      mload\n      dup2\n      lt\n      tag_158\n      jumpi\n      tag_159\n      tag_130\n      jump\t// in\n    tag_159:\n    tag_158:\n      0x20\n      mul\n      0x20\n      add\n      add\n        /* \"contracts/transactions/ZrTransaction.sol\":14803:14818  payload[3] = to */\n      dup2\n      swap1\n      mstore\n      pop\n        /* \"contracts/transactions/ZrTransaction.sol\":14841:14846  value */\n      dup5\n        /* \"contracts/transactions/ZrTransaction.sol\":14828:14835  payload */\n      dup2\n        /* \"contracts/transactions/ZrTransaction.sol\":14836:14837  4 */\n      0x04\n        /* \"contracts/transactions/ZrTransaction.sol\":14828:14838  payload[4] */\n      dup2\n      mload\n      dup2\n      lt\n      tag_160\n      jumpi\n      tag_161\n      tag_130\n      jump\t// in\n    tag_161:\n    tag_160:\n      0x20\n      mul\n      0x20\n      add\n      add\n        /* \"contracts/transactions/ZrTransaction.sol\":14828:14846  payload[4] = value */\n      dup2\n      swap1\n      mstore\n      pop\n        /* \"contracts/transactions/ZrTransaction.sol\":14869:14873  data */\n      dup4\n        /* \"contracts/transactions/ZrTransaction.sol\":14856:14863  payload */\n      dup2\n        /* \"contracts/transactions/ZrTransaction.sol\":14864:14865  5 */\n      0x05\n        /* \"contracts/transactions/ZrTransaction.sol\":14856:14866  payload[5] */\n      dup2\n      mload\n      dup2\n      lt\n      tag_162\n      jumpi\n      tag_163\n      tag_130\n      jump\t// in\n    tag_163:\n    tag_162:\n      0x20\n      mul\n      0x20\n      add\n      add\n        /* \"contracts/transactions/ZrTransaction.sol\":14856:14873  payload[5] = data */\n      dup2\n      swap1\n      mstore\n      pop\n        /* \"contracts/transactions/ZrTransaction.sol\":14896:14898  zb */\n      dup2\n        /* \"contracts/transactions/ZrTransaction.sol\":14883:14890  payload */\n      dup2\n        /* \"contracts/transactions/ZrTransaction.sol\":14891:14892  6 */\n      0x06\n        /* \"contracts/transactions/ZrTransaction.sol\":14883:14893  payload[6] */\n      dup2\n      mload\n      dup2\n      lt\n      tag_164\n      jumpi\n      tag_165\n      tag_130\n      jump\t// in\n    tag_165:\n    tag_164:\n      0x20\n      mul\n      0x20\n      add\n      add\n        /* \"contracts/transactions/ZrTransaction.sol\":14883:14898  payload[6] = zb */\n      dup2\n      swap1\n      mstore\n      pop\n        /* \"contracts/transactions/ZrTransaction.sol\":14921:14923  zb */\n      dup2\n        /* \"contracts/transactions/ZrTransaction.sol\":14908:14915  payload */\n      dup2\n        /* \"contracts/transactions/ZrTransaction.sol\":14916:14917  7 */\n      0x07\n        /* \"contracts/transactions/ZrTransaction.sol\":14908:14918  payload[7] */\n      dup2\n      mload\n      dup2\n      lt\n      tag_166\n      jumpi\n      tag_167\n      tag_130\n      jump\t// in\n    tag_167:\n    tag_166:\n      0x20\n      mul\n      0x20\n      add\n      add\n        /* \"contracts/transactions/ZrTransaction.sol\":14908:14923  payload[7] = zb */\n      dup2\n      swap1\n      mstore\n      pop\n        /* \"contracts/transactions/ZrTransaction.sol\":14946:14948  zb */\n      dup2\n        /* \"contracts/transactions/ZrTransaction.sol\":14933:14940  payload */\n      dup2\n        /* \"contracts/transactions/ZrTransaction.sol\":14941:14942  8 */\n      0x08\n        /* \"contracts/transactions/ZrTransaction.sol\":14933:14943  payload[8] */\n      dup2\n      mload\n      dup2\n      lt\n      tag_168\n      jumpi\n      tag_169\n      tag_130\n      jump\t// in\n    tag_169:\n    tag_168:\n      0x20\n      mul\n      0x20\n      add\n      add\n        /* \"contracts/transactions/ZrTransaction.sol\":14933:14948  payload[8] = zb */\n      dup2\n      swap1\n      mstore\n      pop\n        /* \"contracts/transactions/ZrTransaction.sol\":14965:14984  payload.writeList() */\n      tag_170\n        /* \"contracts/transactions/ZrTransaction.sol\":14965:14972  payload */\n      dup2\n        /* \"contracts/transactions/ZrTransaction.sol\":14965:14982  payload.writeList */\n      tag_171\n        /* \"contracts/transactions/ZrTransaction.sol\":14965:14984  payload.writeList() */\n      jump\t// in\n    tag_170:\n        /* \"contracts/transactions/ZrTransaction.sol\":14958:14984  return payload.writeList() */\n      swap3\n      pop\n      pop\n      pop\n        /* \"contracts/transactions/ZrTransaction.sol\":14363:14991  function _encodeTransaction(... */\n      swap7\n      swap6\n      pop\n      pop\n      pop\n      pop\n      pop\n      pop\n      jump\t// out\n        /* \"contracts/transactions/ZrTransaction.sol\":3468:4210  function _writeLength(uint256 _len, uint256 _offset)... */\n    tag_134:\n        /* \"contracts/transactions/ZrTransaction.sol\":3567:3579  bytes memory */\n      0x60\n        /* \"contracts/transactions/ZrTransaction.sol\":3595:3615  bytes memory encoded */\n      dup1\n        /* \"contracts/transactions/ZrTransaction.sol\":3637:3639  56 */\n      0x38\n        /* \"contracts/transactions/ZrTransaction.sol\":3630:3634  _len */\n      dup5\n        /* \"contracts/transactions/ZrTransaction.sol\":3630:3639  _len < 56 */\n      lt\n        /* \"contracts/transactions/ZrTransaction.sol\":3626:4179  if (_len < 56) {... */\n      iszero\n      tag_173\n      jumpi\n        /* \"contracts/transactions/ZrTransaction.sol\":3675:3676  1 */\n      0x01\n        /* \"contracts/transactions/ZrTransaction.sol\":3665:3677  new bytes(1) */\n      0xffffffffffffffff\n      dup2\n      gt\n      iszero\n      tag_174\n      jumpi\n      tag_175\n      tag_149\n      jump\t// in\n    tag_175:\n    tag_174:\n      mload(0x40)\n      swap1\n      dup1\n      dup3\n      mstore\n      dup1\n      0x1f\n      add\n      not(0x1f)\n      and\n      0x20\n      add\n      dup3\n      add\n      0x40\n      mstore\n      dup1\n      iszero\n      tag_176\n      jumpi\n      dup2\n      0x20\n      add\n      0x01\n      dup3\n      mul\n      dup1\n      calldatasize\n      dup4\n      calldatacopy\n      dup1\n      dup3\n      add\n      swap2\n      pop\n      pop\n      swap1\n      pop\n    tag_176:\n      pop\n        /* \"contracts/transactions/ZrTransaction.sol\":3655:3677  encoded = new bytes(1) */\n      swap1\n      pop\n        /* \"contracts/transactions/ZrTransaction.sol\":3731:3738  _offset */\n      dup3\n        /* \"contracts/transactions/ZrTransaction.sol\":3717:3721  _len */\n      dup5\n        /* \"contracts/transactions/ZrTransaction.sol\":3711:3739  uint8(_len) + uint8(_offset) */\n      tag_177\n      swap2\n      swap1\n      tag_178\n      jump\t// in\n    tag_177:\n        /* \"contracts/transactions/ZrTransaction.sol\":3704:3740  bytes1(uint8(_len) + uint8(_offset)) */\n      0xf8\n      shl\n        /* \"contracts/transactions/ZrTransaction.sol\":3691:3698  encoded */\n      dup2\n        /* \"contracts/transactions/ZrTransaction.sol\":3699:3700  0 */\n      0x00\n        /* \"contracts/transactions/ZrTransaction.sol\":3691:3701  encoded[0] */\n      dup2\n      mload\n      dup2\n      lt\n      tag_179\n      jumpi\n      tag_180\n      tag_130\n      jump\t// in\n    tag_180:\n    tag_179:\n      0x20\n      add\n      add\n        /* \"contracts/transactions/ZrTransaction.sol\":3691:3740  encoded[0] = bytes1(uint8(_len) + uint8(_offset)) */\n      swap1\n      not(0xffffffffffffffffffffffffffffffffffffffffffffffffffffffffffffff)\n      and\n      swap1\n      dup2\n      0x00\n      byte\n      swap1\n      mstore8\n      pop\n        /* \"contracts/transactions/ZrTransaction.sol\":3626:4179  if (_len < 56) {... */\n      jump(tag_181)\n    tag_173:\n        /* \"contracts/transactions/ZrTransaction.sol\":3771:3785  uint256 lenLen */\n      0x00\n        /* \"contracts/transactions/ZrTransaction.sol\":3799:3808  uint256 i */\n      dup1\n        /* \"contracts/transactions/ZrTransaction.sol\":3811:3812  1 */\n      0x01\n        /* \"contracts/transactions/ZrTransaction.sol\":3799:3812  uint256 i = 1 */\n      swap1\n      pop\n        /* \"contracts/transactions/ZrTransaction.sol\":3826:3915  while (_len / i != 0) {... */\n    tag_182:\n        /* \"contracts/transactions/ZrTransaction.sol\":3845:3846  0 */\n      0x00\n        /* \"contracts/transactions/ZrTransaction.sol\":3840:3841  i */\n      dup2\n        /* \"contracts/transactions/ZrTransaction.sol\":3833:3837  _len */\n      dup8\n        /* \"contracts/transactions/ZrTransaction.sol\":3833:3841  _len / i */\n      tag_184\n      swap2\n      swap1\n      tag_185\n      jump\t// in\n    tag_184:\n        /* \"contracts/transactions/ZrTransaction.sol\":3833:3846  _len / i != 0 */\n      eq\n        /* \"contracts/transactions/ZrTransaction.sol\":3826:3915  while (_len / i != 0) {... */\n      tag_183\n      jumpi\n        /* \"contracts/transactions/ZrTransaction.sol\":3866:3874  lenLen++ */\n      dup2\n      dup1\n      tag_186\n      swap1\n      tag_82\n      jump\t// in\n    tag_186:\n      swap3\n      pop\n      pop\n        /* \"contracts/transactions/ZrTransaction.sol\":3897:3900  256 */\n      0x0100\n        /* \"contracts/transactions/ZrTransaction.sol\":3892:3900  i *= 256 */\n      dup2\n      tag_187\n      swap2\n      swap1\n      tag_98\n      jump\t// in\n    tag_187:\n      swap1\n      pop\n        /* \"contracts/transactions/ZrTransaction.sol\":3826:3915  while (_len / i != 0) {... */\n      jump(tag_182)\n    tag_183:\n        /* \"contracts/transactions/ZrTransaction.sol\":3958:3959  1 */\n      0x01\n        /* \"contracts/transactions/ZrTransaction.sol\":3949:3955  lenLen */\n      dup3\n        /* \"contracts/transactions/ZrTransaction.sol\":3949:3959  lenLen + 1 */\n      tag_188\n      swap2\n      swap1\n      tag_103\n      jump\t// in\n    tag_188:\n        /* \"contracts/transactions/ZrTransaction.sol\":3939:3960  new bytes(lenLen + 1) */\n      0xffffffffffffffff\n      dup2\n      gt\n      iszero\n      tag_189\n      jumpi\n      tag_190\n      tag_149\n      jump\t// in\n    tag_190:\n    tag_189:\n      mload(0x40)\n      swap1\n      dup1\n      dup3\n      mstore\n      dup1\n      0x1f\n      add\n      not(0x1f)\n      and\n      0x20\n      add\n      dup3\n      add\n      0x40\n      mstore\n      dup1\n      iszero\n      tag_191\n      jumpi\n      dup2\n      0x20\n      add\n      0x01\n      dup3\n      mul\n      dup1\n      calldatasize\n      dup4\n      calldatacopy\n      dup1\n      dup3\n      add\n      swap2\n      pop\n      pop\n      swap1\n      pop\n    tag_191:\n      pop\n        /* \"contracts/transactions/ZrTransaction.sol\":3929:3960  encoded = new bytes(lenLen + 1) */\n      swap3\n      pop\n        /* \"contracts/transactions/ZrTransaction.sol\":4027:4029  55 */\n      0x37\n        /* \"contracts/transactions/ZrTransaction.sol\":4016:4023  _offset */\n      dup6\n        /* \"contracts/transactions/ZrTransaction.sol\":4000:4006  lenLen */\n      dup4\n        /* \"contracts/transactions/ZrTransaction.sol\":3994:4024  uint8(lenLen) + uint8(_offset) */\n      tag_192\n      swap2\n      swap1\n      tag_178\n      jump\t// in\n    tag_192:\n        /* \"contracts/transactions/ZrTransaction.sol\":3994:4029  uint8(lenLen) + uint8(_offset) + 55 */\n      tag_193\n      swap2\n      swap1\n      tag_178\n      jump\t// in\n    tag_193:\n        /* \"contracts/transactions/ZrTransaction.sol\":3987:4030  bytes1(uint8(lenLen) + uint8(_offset) + 55) */\n      0xf8\n      shl\n        /* \"contracts/transactions/ZrTransaction.sol\":3974:3981  encoded */\n      dup4\n        /* \"contracts/transactions/ZrTransaction.sol\":3982:3983  0 */\n      0x00\n        /* \"contracts/transactions/ZrTransaction.sol\":3974:3984  encoded[0] */\n      dup2\n      mload\n      dup2\n      lt\n      tag_194\n      jumpi\n      tag_195\n      tag_130\n      jump\t// in\n    tag_195:\n    tag_194:\n      0x20\n      add\n      add\n        /* \"contracts/transactions/ZrTransaction.sol\":3974:4030  encoded[0] = bytes1(uint8(lenLen) + uint8(_offset) + 55) */\n      swap1\n      not(0xffffffffffffffffffffffffffffffffffffffffffffffffffffffffffffff)\n      and\n      swap1\n      dup2\n      0x00\n      byte\n      swap1\n      mstore8\n      pop\n        /* \"contracts/transactions/ZrTransaction.sol\":4053:4054  1 */\n      0x01\n        /* \"contracts/transactions/ZrTransaction.sol\":4049:4054  i = 1 */\n      swap1\n      pop\n        /* \"contracts/transactions/ZrTransaction.sol\":4044:4169  for (i = 1; i <= lenLen; i++) {... */\n    tag_196:\n        /* \"contracts/transactions/ZrTransaction.sol\":4061:4067  lenLen */\n      dup2\n        /* \"contracts/transactions/ZrTransaction.sol\":4056:4057  i */\n      dup2\n        /* \"contracts/transactions/ZrTransaction.sol\":4056:4067  i <= lenLen */\n      gt\n        /* \"contracts/transactions/ZrTransaction.sol\":4044:4169  for (i = 1; i <= lenLen; i++) {... */\n      tag_197\n      jumpi\n        /* \"contracts/transactions/ZrTransaction.sol\":4149:4152  256 */\n      0x0100\n        /* \"contracts/transactions/ZrTransaction.sol\":4142:4143  i */\n      dup2\n        /* \"contracts/transactions/ZrTransaction.sol\":4133:4139  lenLen */\n      dup4\n        /* \"contracts/transactions/ZrTransaction.sol\":4133:4143  lenLen - i */\n      tag_199\n      swap2\n      swap1\n      tag_200\n      jump\t// in\n    tag_199:\n        /* \"contracts/transactions/ZrTransaction.sol\":4127:4130  256 */\n      0x0100\n        /* \"contracts/transactions/ZrTransaction.sol\":4127:4144  256**(lenLen - i) */\n      tag_201\n      swap2\n      swap1\n      tag_202\n      jump\t// in\n    tag_201:\n        /* \"contracts/transactions/ZrTransaction.sol\":4119:4123  _len */\n      dup8\n        /* \"contracts/transactions/ZrTransaction.sol\":4119:4145  _len / (256**(lenLen - i)) */\n      tag_203\n      swap2\n      swap1\n      tag_185\n      jump\t// in\n    tag_203:\n        /* \"contracts/transactions/ZrTransaction.sol\":4118:4152  (_len / (256**(lenLen - i))) % 256 */\n      tag_204\n      swap2\n      swap1\n      tag_205\n      jump\t// in\n    tag_204:\n        /* \"contracts/transactions/ZrTransaction.sol\":4105:4154  bytes1(uint8((_len / (256**(lenLen - i))) % 256)) */\n      0xf8\n      shl\n        /* \"contracts/transactions/ZrTransaction.sol\":4092:4099  encoded */\n      dup4\n        /* \"contracts/transactions/ZrTransaction.sol\":4100:4101  i */\n      dup3\n        /* \"contracts/transactions/ZrTransaction.sol\":4092:4102  encoded[i] */\n      dup2\n      mload\n      dup2\n      lt\n      tag_206\n      jumpi\n      tag_207\n      tag_130\n      jump\t// in\n    tag_207:\n    tag_206:\n      0x20\n      add\n      add\n        /* \"contracts/transactions/ZrTransaction.sol\":4092:4154  encoded[i] = bytes1(uint8((_len / (256**(lenLen - i))) % 256)) */\n      swap1\n      not(0xffffffffffffffffffffffffffffffffffffffffffffffffffffffffffffff)\n      and\n      swap1\n      dup2\n      0x00\n      byte\n      swap1\n      mstore8\n      pop\n        /* \"contracts/transactions/ZrTransaction.sol\":4069:4072  i++ */\n      dup1\n      dup1\n      tag_208\n      swap1\n      tag_82\n      jump\t// in\n    tag_208:\n      swap2\n      pop\n      pop\n        /* \"contracts/transactions/ZrTransaction.sol\":4044:4169  for (i = 1; i <= lenLen; i++) {... */\n      jump(tag_196)\n    tag_197:\n        /* \"contracts/transactions/ZrTransaction.sol\":3757:4179  {... */\n      pop\n      pop\n        /* \"contracts/transactions/ZrTransaction.sol\":3626:4179  if (_len < 56) {... */\n    tag_181:\n        /* \"contracts/transactions/ZrTransaction.sol\":4196:4203  encoded */\n      dup1\n        /* \"contracts/transactions/ZrTransaction.sol\":4189:4203  return encoded */\n      swap2\n      pop\n      pop\n        /* \"contracts/transactions/ZrTransaction.sol\":3468:4210  function _writeLength(uint256 _len, uint256 _offset)... */\n      swap3\n      swap2\n      pop\n      pop\n      jump\t// out\n        /* \"contracts/transactions/ZrTransaction.sol\":4457:4867  function _toBinary(uint256 _x) internal pure returns (bytes memory) {... */\n    tag_140:\n        /* \"contracts/transactions/ZrTransaction.sol\":4511:4523  bytes memory */\n      0x60\n        /* \"contracts/transactions/ZrTransaction.sol\":4535:4549  bytes memory b */\n      0x00\n        /* \"contracts/transactions/ZrTransaction.sol\":4569:4571  _x */\n      dup3\n        /* \"contracts/transactions/ZrTransaction.sol\":4552:4572  abi.encodePacked(_x) */\n      add(0x20, mload(0x40))\n      tag_210\n      swap2\n      swap1\n      tag_211\n      jump\t// in\n    tag_210:\n      mload(0x40)\n      0x20\n      dup2\n      dup4\n      sub\n      sub\n      dup2\n      mstore\n      swap1\n      0x40\n      mstore\n        /* \"contracts/transactions/ZrTransaction.sol\":4535:4572  bytes memory b = abi.encodePacked(_x) */\n      swap1\n      pop\n        /* \"contracts/transactions/ZrTransaction.sol\":4583:4592  uint256 i */\n      0x00\n        /* \"contracts/transactions/ZrTransaction.sol\":4606:4703  for (; i < 32; i++) {... */\n    tag_212:\n        /* \"contracts/transactions/ZrTransaction.sol\":4617:4619  32 */\n      0x20\n        /* \"contracts/transactions/ZrTransaction.sol\":4613:4614  i */\n      dup2\n        /* \"contracts/transactions/ZrTransaction.sol\":4613:4619  i < 32 */\n      lt\n        /* \"contracts/transactions/ZrTransaction.sol\":4606:4703  for (; i < 32; i++) {... */\n      iszero\n      tag_213\n      jumpi\n        /* \"contracts/transactions/ZrTransaction.sol\":4652:4653  0 */\n      0x00\n        /* \"contracts/transactions/ZrTransaction.sol\":4644:4653  b[i] != 0 */\n      0xf8\n      shl\n        /* \"contracts/transactions/ZrTransaction.sol\":4644:4645  b */\n      dup3\n        /* \"contracts/transactions/ZrTransaction.sol\":4646:4647  i */\n      dup3\n        /* \"contracts/transactions/ZrTransaction.sol\":4644:4648  b[i] */\n      dup2\n      mload\n      dup2\n      lt\n      tag_215\n      jumpi\n      tag_216\n      tag_130\n      jump\t// in\n    tag_216:\n    tag_215:\n      0x20\n      add\n      add\n      mload\n      0xf8\n      shr\n      0xf8\n      shl\n        /* \"contracts/transactions/ZrTransaction.sol\":4644:4653  b[i] != 0 */\n      not(0xffffffffffffffffffffffffffffffffffffffffffffffffffffffffffffff)\n      and\n      sub\n        /* \"contracts/transactions/ZrTransaction.sol\":4673:4678  break */\n      tag_213\n        /* \"contracts/transactions/ZrTransaction.sol\":4640:4693  if (b[i] != 0) {... */\n      jumpi\n        /* \"contracts/transactions/ZrTransaction.sol\":4621:4624  i++ */\n      dup1\n      dup1\n      0x01\n      add\n      swap2\n      pop\n      pop\n        /* \"contracts/transactions/ZrTransaction.sol\":4606:4703  for (; i < 32; i++) {... */\n      jump(tag_212)\n    tag_213:\n        /* \"contracts/transactions/ZrTransaction.sol\":4713:4729  bytes memory res */\n      0x00\n        /* \"contracts/transactions/ZrTransaction.sol\":4747:4748  i */\n      dup2\n        /* \"contracts/transactions/ZrTransaction.sol\":4742:4744  32 */\n      0x20\n        /* \"contracts/transactions/ZrTransaction.sol\":4742:4748  32 - i */\n      tag_218\n      swap2\n      swap1\n      tag_200\n      jump\t// in\n    tag_218:\n        /* \"contracts/transactions/ZrTransaction.sol\":4732:4749  new bytes(32 - i) */\n      0xffffffffffffffff\n      dup2\n      gt\n      iszero\n      tag_219\n      jumpi\n      tag_220\n      tag_149\n      jump\t// in\n    tag_220:\n    tag_219:\n      mload(0x40)\n      swap1\n      dup1\n      dup3\n      mstore\n      dup1\n      0x1f\n      add\n      not(0x1f)\n      and\n      0x20\n      add\n      dup3\n      add\n      0x40\n      mstore\n      dup1\n      iszero\n      tag_221\n      jumpi\n      dup2\n      0x20\n      add\n      0x01\n      dup3\n      mul\n      dup1\n      calldatasize\n      dup4\n      calldatacopy\n      dup1\n      dup3\n      add\n      swap2\n      pop\n      pop\n      swap1\n      pop\n    tag_221:\n      pop\n        /* \"contracts/transactions/ZrTransaction.sol\":4713:4749  bytes memory res = new bytes(32 - i) */\n      swap1\n      pop\n        /* \"contracts/transactions/ZrTransaction.sol\":4764:4773  uint256 j */\n      0x00\n        /* \"contracts/transactions/ZrTransaction.sol\":4759:4840  for (uint256 j = 0; j < res.length; j++) {... */\n    tag_222:\n        /* \"contracts/transactions/ZrTransaction.sol\":4783:4786  res */\n      dup2\n        /* \"contracts/transactions/ZrTransaction.sol\":4783:4793  res.length */\n      mload\n        /* \"contracts/transactions/ZrTransaction.sol\":4779:4780  j */\n      dup2\n        /* \"contracts/transactions/ZrTransaction.sol\":4779:4793  j < res.length */\n      lt\n        /* \"contracts/transactions/ZrTransaction.sol\":4759:4840  for (uint256 j = 0; j < res.length; j++) {... */\n      iszero\n      tag_223\n      jumpi\n        /* \"contracts/transactions/ZrTransaction.sol\":4823:4824  b */\n      dup4\n        /* \"contracts/transactions/ZrTransaction.sol\":4825:4828  i++ */\n      dup4\n      dup1\n      tag_225\n      swap1\n      tag_82\n      jump\t// in\n    tag_225:\n      swap5\n      pop\n        /* \"contracts/transactions/ZrTransaction.sol\":4823:4829  b[i++] */\n      dup2\n      mload\n      dup2\n      lt\n      tag_226\n      jumpi\n      tag_227\n      tag_130\n      jump\t// in\n    tag_227:\n    tag_226:\n      0x20\n      add\n      add\n      mload\n      0xf8\n      shr\n      0xf8\n      shl\n        /* \"contracts/transactions/ZrTransaction.sol\":4814:4817  res */\n      dup3\n        /* \"contracts/transactions/ZrTransaction.sol\":4818:4819  j */\n      dup3\n        /* \"contracts/transactions/ZrTransaction.sol\":4814:4820  res[j] */\n      dup2\n      mload\n      dup2\n      lt\n      tag_228\n      jumpi\n      tag_229\n      tag_130\n      jump\t// in\n    tag_229:\n    tag_228:\n      0x20\n      add\n      add\n        /* \"contracts/transactions/ZrTransaction.sol\":4814:4829  res[j] = b[i++] */\n      swap1\n      not(0xffffffffffffffffffffffffffffffffffffffffffffffffffffffffffffff)\n      and\n      swap1\n      dup2\n      0x00\n      byte\n      swap1\n      mstore8\n      pop\n        /* \"contracts/transactions/ZrTransaction.sol\":4795:4798  j++ */\n      dup1\n      dup1\n      0x01\n      add\n      swap2\n      pop\n      pop\n        /* \"contracts/transactions/ZrTransaction.sol\":4759:4840  for (uint256 j = 0; j < res.length; j++) {... */\n      jump(tag_222)\n    tag_223:\n      pop\n        /* \"contracts/transactions/ZrTransaction.sol\":4857:4860  res */\n      dup1\n        /* \"contracts/transactions/ZrTransaction.sol\":4850:4860  return res */\n      swap4\n      pop\n      pop\n      pop\n      pop\n        /* \"contracts/transactions/ZrTransaction.sol\":4457:4867  function _toBinary(uint256 _x) internal pure returns (bytes memory) {... */\n      swap2\n      swap1\n      pop\n      jump\t// out\n        /* \"contracts/transactions/ZrTransaction.sol\":1729:1954  function writeList(bytes[] memory _in)... */\n    tag_171:\n        /* \"contracts/transactions/ZrTransaction.sol\":1815:1827  bytes memory */\n      0x60\n        /* \"contracts/transactions/ZrTransaction.sol\":1843:1860  bytes memory list */\n      0x00\n        /* \"contracts/transactions/ZrTransaction.sol\":1863:1876  _flatten(_in) */\n      tag_231\n        /* \"contracts/transactions/ZrTransaction.sol\":1872:1875  _in */\n      dup4\n        /* \"contracts/transactions/ZrTransaction.sol\":1863:1871  _flatten */\n      tag_232\n        /* \"contracts/transactions/ZrTransaction.sol\":1863:1876  _flatten(_in) */\n      jump\t// in\n    tag_231:\n        /* \"contracts/transactions/ZrTransaction.sol\":1843:1876  bytes memory list = _flatten(_in) */\n      swap1\n      pop\n        /* \"contracts/transactions/ZrTransaction.sol\":1910:1940  _writeLength(list.length, 192) */\n      tag_233\n        /* \"contracts/transactions/ZrTransaction.sol\":1923:1927  list */\n      dup2\n        /* \"contracts/transactions/ZrTransaction.sol\":1923:1934  list.length */\n      mload\n        /* \"contracts/transactions/ZrTransaction.sol\":1936:1939  192 */\n      0xc0\n        /* \"contracts/transactions/ZrTransaction.sol\":1910:1922  _writeLength */\n      tag_134\n        /* \"contracts/transactions/ZrTransaction.sol\":1910:1940  _writeLength(list.length, 192) */\n      jump\t// in\n    tag_233:\n        /* \"contracts/transactions/ZrTransaction.sol\":1942:1946  list */\n      dup2\n        /* \"contracts/transactions/ZrTransaction.sol\":1893:1947  abi.encodePacked(_writeLength(list.length, 192), list) */\n      add(0x20, mload(0x40))\n      tag_234\n      swap3\n      swap2\n      swap1\n      tag_136\n      jump\t// in\n    tag_234:\n      mload(0x40)\n      0x20\n      dup2\n      dup4\n      sub\n      sub\n      dup2\n      mstore\n      swap1\n      0x40\n      mstore\n        /* \"contracts/transactions/ZrTransaction.sol\":1886:1947  return abi.encodePacked(_writeLength(list.length, 192), list) */\n      swap2\n      pop\n      pop\n        /* \"contracts/transactions/ZrTransaction.sol\":1729:1954  function writeList(bytes[] memory _in)... */\n      swap2\n      swap1\n      pop\n      jump\t// out\n        /* \"contracts/transactions/ZrTransaction.sol\":6084:6898  function _flatten(bytes[] memory _list)... */\n    tag_232:\n        /* \"contracts/transactions/ZrTransaction.sol\":6170:6182  bytes memory */\n      0x60\n        /* \"contracts/transactions/ZrTransaction.sol\":6218:6219  0 */\n      0x00\n        /* \"contracts/transactions/ZrTransaction.sol\":6202:6207  _list */\n      dup3\n        /* \"contracts/transactions/ZrTransaction.sol\":6202:6214  _list.length */\n      mload\n        /* \"contracts/transactions/ZrTransaction.sol\":6202:6219  _list.length == 0 */\n      sub\n        /* \"contracts/transactions/ZrTransaction.sol\":6198:6265  if (_list.length == 0) {... */\n      tag_236\n      jumpi\n        /* \"contracts/transactions/ZrTransaction.sol\":6252:6253  0 */\n      0x00\n        /* \"contracts/transactions/ZrTransaction.sol\":6242:6254  new bytes(0) */\n      0xffffffffffffffff\n      dup2\n      gt\n      iszero\n      tag_237\n      jumpi\n      tag_238\n      tag_149\n      jump\t// in\n    tag_238:\n    tag_237:\n      mload(0x40)\n      swap1\n      dup1\n      dup3\n      mstore\n      dup1\n      0x1f\n      add\n      not(0x1f)\n      and\n      0x20\n      add\n      dup3\n      add\n      0x40\n      mstore\n      dup1\n      iszero\n      tag_239\n      jumpi\n      dup2\n      0x20\n      add\n      0x01\n      dup3\n      mul\n      dup1\n      calldatasize\n      dup4\n      calldatacopy\n      dup1\n      dup3\n      add\n      swap2\n      pop\n      pop\n      swap1\n      pop\n    tag_239:\n      pop\n        /* \"contracts/transactions/ZrTransaction.sol\":6235:6254  return new bytes(0) */\n      swap1\n      pop\n      jump(tag_235)\n        /* \"contracts/transactions/ZrTransaction.sol\":6198:6265  if (_list.length == 0) {... */\n    tag_236:\n        /* \"contracts/transactions/ZrTransaction.sol\":6275:6286  uint256 len */\n      0x00\n        /* \"contracts/transactions/ZrTransaction.sol\":6296:6305  uint256 i */\n      dup1\n        /* \"contracts/transactions/ZrTransaction.sol\":6308:6309  0 */\n      0x00\n        /* \"contracts/transactions/ZrTransaction.sol\":6296:6309  uint256 i = 0 */\n      swap1\n      pop\n        /* \"contracts/transactions/ZrTransaction.sol\":6319:6396  for (; i < _list.length; i++) {... */\n    tag_240:\n        /* \"contracts/transactions/ZrTransaction.sol\":6330:6335  _list */\n      dup4\n        /* \"contracts/transactions/ZrTransaction.sol\":6330:6342  _list.length */\n      mload\n        /* \"contracts/transactions/ZrTransaction.sol\":6326:6327  i */\n      dup2\n        /* \"contracts/transactions/ZrTransaction.sol\":6326:6342  i < _list.length */\n      lt\n        /* \"contracts/transactions/ZrTransaction.sol\":6319:6396  for (; i < _list.length; i++) {... */\n      iszero\n      tag_241\n      jumpi\n        /* \"contracts/transactions/ZrTransaction.sol\":6370:6375  _list */\n      dup4\n        /* \"contracts/transactions/ZrTransaction.sol\":6376:6377  i */\n      dup2\n        /* \"contracts/transactions/ZrTransaction.sol\":6370:6378  _list[i] */\n      dup2\n      mload\n      dup2\n      lt\n      tag_243\n      jumpi\n      tag_244\n      tag_130\n      jump\t// in\n    tag_244:\n    tag_243:\n      0x20\n      mul\n      0x20\n      add\n      add\n      mload\n        /* \"contracts/transactions/ZrTransaction.sol\":6370:6385  _list[i].length */\n      mload\n        /* \"contracts/transactions/ZrTransaction.sol\":6363:6385  len += _list[i].length */\n      dup3\n      tag_245\n      swap2\n      swap1\n      tag_103\n      jump\t// in\n    tag_245:\n      swap2\n      pop\n        /* \"contracts/transactions/ZrTransaction.sol\":6344:6347  i++ */\n      dup1\n      dup1\n      0x01\n      add\n      swap2\n      pop\n      pop\n        /* \"contracts/transactions/ZrTransaction.sol\":6319:6396  for (; i < _list.length; i++) {... */\n      jump(tag_240)\n    tag_241:\n        /* \"contracts/transactions/ZrTransaction.sol\":6406:6428  bytes memory flattened */\n      0x00\n        /* \"contracts/transactions/ZrTransaction.sol\":6441:6444  len */\n      dup3\n        /* \"contracts/transactions/ZrTransaction.sol\":6431:6445  new bytes(len) */\n      0xffffffffffffffff\n      dup2\n      gt\n      iszero\n      tag_246\n      jumpi\n      tag_247\n      tag_149\n      jump\t// in\n    tag_247:\n    tag_246:\n      mload(0x40)\n      swap1\n      dup1\n      dup3\n      mstore\n      dup1\n      0x1f\n      add\n      not(0x1f)\n      and\n      0x20\n      add\n      dup3\n      add\n      0x40\n      mstore\n      dup1\n      iszero\n      tag_248\n      jumpi\n      dup2\n      0x20\n      add\n      0x01\n      dup3\n      mul\n      dup1\n      calldatasize\n      dup4\n      calldatacopy\n      dup1\n      dup3\n      add\n      swap2\n      pop\n      pop\n      swap1\n      pop\n    tag_248:\n      pop\n        /* \"contracts/transactions/ZrTransaction.sol\":6406:6445  bytes memory flattened = new bytes(len) */\n      swap1\n      pop\n        /* \"contracts/transactions/ZrTransaction.sol\":6455:6475  uint256 flattenedPtr */\n      0x00\n        /* \"contracts/transactions/ZrTransaction.sol\":6539:6543  0x20 */\n      0x20\n        /* \"contracts/transactions/ZrTransaction.sol\":6528:6537  flattened */\n      dup3\n        /* \"contracts/transactions/ZrTransaction.sol\":6524:6544  add(flattened, 0x20) */\n      add\n        /* \"contracts/transactions/ZrTransaction.sol\":6508:6544  flattenedPtr := add(flattened, 0x20) */\n      swap1\n      pop\n        /* \"contracts/transactions/ZrTransaction.sol\":6573:6574  0 */\n      0x00\n        /* \"contracts/transactions/ZrTransaction.sol\":6569:6574  i = 0 */\n      swap3\n      pop\n        /* \"contracts/transactions/ZrTransaction.sol\":6564:6865  for (i = 0; i < _list.length; i++) {... */\n    tag_249:\n        /* \"contracts/transactions/ZrTransaction.sol\":6580:6585  _list */\n      dup6\n        /* \"contracts/transactions/ZrTransaction.sol\":6580:6592  _list.length */\n      mload\n        /* \"contracts/transactions/ZrTransaction.sol\":6576:6577  i */\n      dup4\n        /* \"contracts/transactions/ZrTransaction.sol\":6576:6592  i < _list.length */\n      lt\n        /* \"contracts/transactions/ZrTransaction.sol\":6564:6865  for (i = 0; i < _list.length; i++) {... */\n      iszero\n      tag_250\n      jumpi\n        /* \"contracts/transactions/ZrTransaction.sol\":6613:6630  bytes memory item */\n      0x00\n        /* \"contracts/transactions/ZrTransaction.sol\":6633:6638  _list */\n      dup7\n        /* \"contracts/transactions/ZrTransaction.sol\":6639:6640  i */\n      dup5\n        /* \"contracts/transactions/ZrTransaction.sol\":6633:6641  _list[i] */\n      dup2\n      mload\n      dup2\n      lt\n      tag_252\n      jumpi\n      tag_253\n      tag_130\n      jump\t// in\n    tag_253:\n    tag_252:\n      0x20\n      mul\n      0x20\n      add\n      add\n      mload\n        /* \"contracts/transactions/ZrTransaction.sol\":6613:6641  bytes memory item = _list[i] */\n      swap1\n      pop\n        /* \"contracts/transactions/ZrTransaction.sol\":6656:6671  uint256 listPtr */\n      0x00\n        /* \"contracts/transactions/ZrTransaction.sol\":6733:6737  0x20 */\n      0x20\n        /* \"contracts/transactions/ZrTransaction.sol\":6727:6731  item */\n      dup3\n        /* \"contracts/transactions/ZrTransaction.sol\":6723:6738  add(item, 0x20) */\n      add\n        /* \"contracts/transactions/ZrTransaction.sol\":6712:6738  listPtr := add(item, 0x20) */\n      swap1\n      pop\n        /* \"contracts/transactions/ZrTransaction.sol\":6766:6809  _memcpy(flattenedPtr, listPtr, item.length) */\n      tag_254\n        /* \"contracts/transactions/ZrTransaction.sol\":6774:6786  flattenedPtr */\n      dup4\n        /* \"contracts/transactions/ZrTransaction.sol\":6788:6795  listPtr */\n      dup3\n        /* \"contracts/transactions/ZrTransaction.sol\":6797:6801  item */\n      dup5\n        /* \"contracts/transactions/ZrTransaction.sol\":6797:6808  item.length */\n      mload\n        /* \"contracts/transactions/ZrTransaction.sol\":6766:6773  _memcpy */\n      tag_255\n        /* \"contracts/transactions/ZrTransaction.sol\":6766:6809  _memcpy(flattenedPtr, listPtr, item.length) */\n      jump\t// in\n    tag_254:\n        /* \"contracts/transactions/ZrTransaction.sol\":6839:6844  _list */\n      dup8\n        /* \"contracts/transactions/ZrTransaction.sol\":6845:6846  i */\n      dup6\n        /* \"contracts/transactions/ZrTransaction.sol\":6839:6847  _list[i] */\n      dup2\n      mload\n      dup2\n      lt\n      tag_256\n      jumpi\n      tag_257\n      tag_130\n      jump\t// in\n    tag_257:\n    tag_256:\n      0x20\n      mul\n      0x20\n      add\n      add\n      mload\n        /* \"contracts/transactions/ZrTransaction.sol\":6839:6854  _list[i].length */\n      mload\n        /* \"contracts/transactions/ZrTransaction.sol\":6823:6854  flattenedPtr += _list[i].length */\n      dup4\n      tag_258\n      swap2\n      swap1\n      tag_103\n      jump\t// in\n    tag_258:\n      swap3\n      pop\n        /* \"contracts/transactions/ZrTransaction.sol\":6599:6865  {... */\n      pop\n      pop\n        /* \"contracts/transactions/ZrTransaction.sol\":6594:6597  i++ */\n      dup3\n      dup1\n      0x01\n      add\n      swap4\n      pop\n      pop\n        /* \"contracts/transactions/ZrTransaction.sol\":6564:6865  for (i = 0; i < _list.length; i++) {... */\n      jump(tag_249)\n    tag_250:\n        /* \"contracts/transactions/ZrTransaction.sol\":6882:6891  flattened */\n      dup2\n        /* \"contracts/transactions/ZrTransaction.sol\":6875:6891  return flattened */\n      swap5\n      pop\n      pop\n      pop\n      pop\n      pop\n        /* \"contracts/transactions/ZrTransaction.sol\":6084:6898  function _flatten(bytes[] memory _list)... */\n    tag_235:\n      swap2\n      swap1\n      pop\n      jump\t// out\n        /* \"contracts/transactions/ZrTransaction.sol\":5164:5810  function _memcpy(... */\n    tag_255:\n        /* \"contracts/transactions/ZrTransaction.sol\":5277:5289  uint256 dest */\n      0x00\n        /* \"contracts/transactions/ZrTransaction.sol\":5292:5297  _dest */\n      dup4\n        /* \"contracts/transactions/ZrTransaction.sol\":5277:5297  uint256 dest = _dest */\n      swap1\n      pop\n        /* \"contracts/transactions/ZrTransaction.sol\":5307:5318  uint256 src */\n      0x00\n        /* \"contracts/transactions/ZrTransaction.sol\":5321:5325  _src */\n      dup4\n        /* \"contracts/transactions/ZrTransaction.sol\":5307:5325  uint256 src = _src */\n      swap1\n      pop\n        /* \"contracts/transactions/ZrTransaction.sol\":5335:5346  uint256 len */\n      0x00\n        /* \"contracts/transactions/ZrTransaction.sol\":5349:5353  _len */\n      dup4\n        /* \"contracts/transactions/ZrTransaction.sol\":5335:5353  uint256 len = _len */\n      swap1\n      pop\n        /* \"contracts/transactions/ZrTransaction.sol\":5364:5529  for (; len >= 32; len -= 32) {... */\n    tag_260:\n        /* \"contracts/transactions/ZrTransaction.sol\":5378:5380  32 */\n      0x20\n        /* \"contracts/transactions/ZrTransaction.sol\":5371:5374  len */\n      dup2\n        /* \"contracts/transactions/ZrTransaction.sol\":5371:5380  len >= 32 */\n      lt\n        /* \"contracts/transactions/ZrTransaction.sol\":5364:5529  for (; len >= 32; len -= 32) {... */\n      tag_261\n      jumpi\n        /* \"contracts/transactions/ZrTransaction.sol\":5453:5456  src */\n      dup2\n        /* \"contracts/transactions/ZrTransaction.sol\":5447:5457  mload(src) */\n      mload\n        /* \"contracts/transactions/ZrTransaction.sol\":5441:5445  dest */\n      dup4\n        /* \"contracts/transactions/ZrTransaction.sol\":5434:5458  mstore(dest, mload(src)) */\n      mstore\n        /* \"contracts/transactions/ZrTransaction.sol\":5493:5495  32 */\n      0x20\n        /* \"contracts/transactions/ZrTransaction.sol\":5485:5495  dest += 32 */\n      dup4\n      tag_263\n      swap2\n      swap1\n      tag_103\n      jump\t// in\n    tag_263:\n      swap3\n      pop\n        /* \"contracts/transactions/ZrTransaction.sol\":5516:5518  32 */\n      0x20\n        /* \"contracts/transactions/ZrTransaction.sol\":5509:5518  src += 32 */\n      dup3\n      tag_264\n      swap2\n      swap1\n      tag_103\n      jump\t// in\n    tag_264:\n      swap2\n      pop\n        /* \"contracts/transactions/ZrTransaction.sol\":5389:5391  32 */\n      0x20\n        /* \"contracts/transactions/ZrTransaction.sol\":5382:5391  len -= 32 */\n      dup2\n      tag_265\n      swap2\n      swap1\n      tag_200\n      jump\t// in\n    tag_265:\n      swap1\n      pop\n        /* \"contracts/transactions/ZrTransaction.sol\":5364:5529  for (; len >= 32; len -= 32) {... */\n      jump(tag_260)\n    tag_261:\n        /* \"contracts/transactions/ZrTransaction.sol\":5539:5551  uint256 mask */\n      0x00\n        /* \"contracts/transactions/ZrTransaction.sol\":5610:5611  1 */\n      0x01\n        /* \"contracts/transactions/ZrTransaction.sol\":5603:5606  len */\n      dup3\n        /* \"contracts/transactions/ZrTransaction.sol\":5598:5600  32 */\n      0x20\n        /* \"contracts/transactions/ZrTransaction.sol\":5598:5606  32 - len */\n      sub\n        /* \"contracts/transactions/ZrTransaction.sol\":5592:5595  256 */\n      0x0100\n        /* \"contracts/transactions/ZrTransaction.sol\":5592:5607  256**(32 - len) */\n      exp\n        /* \"contracts/transactions/ZrTransaction.sol\":5592:5611  256**(32 - len) - 1 */\n      sub\n        /* \"contracts/transactions/ZrTransaction.sol\":5585:5611  mask = 256**(32 - len) - 1 */\n      swap1\n      pop\n        /* \"contracts/transactions/ZrTransaction.sol\":5689:5693  mask */\n      dup1\n        /* \"contracts/transactions/ZrTransaction.sol\":5685:5694  not(mask) */\n      not\n        /* \"contracts/transactions/ZrTransaction.sol\":5679:5682  src */\n      dup4\n        /* \"contracts/transactions/ZrTransaction.sol\":5673:5683  mload(src) */\n      mload\n        /* \"contracts/transactions/ZrTransaction.sol\":5669:5695  and(mload(src), not(mask)) */\n      and\n        /* \"contracts/transactions/ZrTransaction.sol\":5741:5745  mask */\n      dup2\n        /* \"contracts/transactions/ZrTransaction.sol\":5734:5738  dest */\n      dup6\n        /* \"contracts/transactions/ZrTransaction.sol\":5728:5739  mload(dest) */\n      mload\n        /* \"contracts/transactions/ZrTransaction.sol\":5724:5746  and(mload(dest), mask) */\n      and\n        /* \"contracts/transactions/ZrTransaction.sol\":5785:5792  srcpart */\n      dup2\n        /* \"contracts/transactions/ZrTransaction.sol\":5775:5783  destpart */\n      dup2\n        /* \"contracts/transactions/ZrTransaction.sol\":5772:5793  or(destpart, srcpart) */\n      or\n        /* \"contracts/transactions/ZrTransaction.sol\":5766:5770  dest */\n      dup7\n        /* \"contracts/transactions/ZrTransaction.sol\":5759:5794  mstore(dest, or(destpart, srcpart)) */\n      mstore\n        /* \"contracts/transactions/ZrTransaction.sol\":5640:5804  {... */\n      pop\n      pop\n      pop\n      pop\n      pop\n      pop\n        /* \"contracts/transactions/ZrTransaction.sol\":5164:5810  function _memcpy(... */\n      pop\n      pop\n      pop\n      jump\t// out\n        /* \"#utility.yul\":7:84   */\n    tag_266:\n        /* \"#utility.yul\":44:51   */\n      0x00\n        /* \"#utility.yul\":73:78   */\n      dup2\n        /* \"#utility.yul\":62:78   */\n      swap1\n      pop\n        /* \"#utility.yul\":7:84   */\n      swap2\n      swap1\n      pop\n      jump\t// out\n        /* \"#utility.yul\":90:208   */\n    tag_267:\n        /* \"#utility.yul\":177:201   */\n      tag_339\n        /* \"#utility.yul\":195:200   */\n      dup2\n        /* \"#utility.yul\":177:201   */\n      tag_266\n      jump\t// in\n    tag_339:\n        /* \"#utility.yul\":172:175   */\n      dup3\n        /* \"#utility.yul\":165:202   */\n      mstore\n        /* \"#utility.yul\":90:208   */\n      pop\n      pop\n      jump\t// out\n        /* \"#utility.yul\":214:546   */\n    tag_14:\n        /* \"#utility.yul\":335:339   */\n      0x00\n        /* \"#utility.yul\":373:375   */\n      0x40\n        /* \"#utility.yul\":362:371   */\n      dup3\n        /* \"#utility.yul\":358:376   */\n      add\n        /* \"#utility.yul\":350:376   */\n      swap1\n      pop\n        /* \"#utility.yul\":386:457   */\n      tag_341\n        /* \"#utility.yul\":454:455   */\n      0x00\n        /* \"#utility.yul\":443:452   */\n      dup4\n        /* \"#utility.yul\":439:456   */\n      add\n        /* \"#utility.yul\":430:436   */\n      dup6\n        /* \"#utility.yul\":386:457   */\n      tag_267\n      jump\t// in\n    tag_341:\n        /* \"#utility.yul\":467:539   */\n      tag_342\n        /* \"#utility.yul\":535:537   */\n      0x20\n        /* \"#utility.yul\":524:533   */\n      dup4\n        /* \"#utility.yul\":520:538   */\n      add\n        /* \"#utility.yul\":511:517   */\n      dup5\n        /* \"#utility.yul\":467:539   */\n      tag_267\n      jump\t// in\n    tag_342:\n        /* \"#utility.yul\":214:546   */\n      swap4\n      swap3\n      pop\n      pop\n      pop\n      jump\t// out\n        /* \"#utility.yul\":552:627   */\n    tag_268:\n        /* \"#utility.yul\":585:591   */\n      0x00\n        /* \"#utility.yul\":618:620   */\n      0x40\n        /* \"#utility.yul\":612:621   */\n      mload\n        /* \"#utility.yul\":602:621   */\n      swap1\n      pop\n        /* \"#utility.yul\":552:627   */\n      swap1\n      jump\t// out\n        /* \"#utility.yul\":633:750   */\n    tag_269:\n        /* \"#utility.yul\":742:743   */\n      0x00\n        /* \"#utility.yul\":739:740   */\n      dup1\n        /* \"#utility.yul\":732:744   */\n      revert\n        /* \"#utility.yul\":756:873   */\n    tag_270:\n        /* \"#utility.yul\":865:866   */\n      0x00\n        /* \"#utility.yul\":862:863   */\n      dup1\n        /* \"#utility.yul\":855:867   */\n      revert\n        /* \"#utility.yul\":879:1001   */\n    tag_271:\n        /* \"#utility.yul\":952:976   */\n      tag_347\n        /* \"#utility.yul\":970:975   */\n      dup2\n        /* \"#utility.yul\":952:976   */\n      tag_266\n      jump\t// in\n    tag_347:\n        /* \"#utility.yul\":945:950   */\n      dup2\n        /* \"#utility.yul\":942:977   */\n      eq\n        /* \"#utility.yul\":932:995   */\n      tag_348\n      jumpi\n        /* \"#utility.yul\":991:992   */\n      0x00\n        /* \"#utility.yul\":988:989   */\n      dup1\n        /* \"#utility.yul\":981:993   */\n      revert\n        /* \"#utility.yul\":932:995   */\n    tag_348:\n        /* \"#utility.yul\":879:1001   */\n      pop\n      jump\t// out\n        /* \"#utility.yul\":1007:1146   */\n    tag_272:\n        /* \"#utility.yul\":1053:1058   */\n      0x00\n        /* \"#utility.yul\":1091:1097   */\n      dup2\n        /* \"#utility.yul\":1078:1098   */\n      calldataload\n        /* \"#utility.yul\":1069:1098   */\n      swap1\n      pop\n        /* \"#utility.yul\":1107:1140   */\n      tag_350\n        /* \"#utility.yul\":1134:1139   */\n      dup2\n        /* \"#utility.yul\":1107:1140   */\n      tag_271\n      jump\t// in\n    tag_350:\n        /* \"#utility.yul\":1007:1146   */\n      swap3\n      swap2\n      pop\n      pop\n      jump\t// out\n        /* \"#utility.yul\":1152:1481   */\n    tag_18:\n        /* \"#utility.yul\":1211:1217   */\n      0x00\n        /* \"#utility.yul\":1260:1262   */\n      0x20\n        /* \"#utility.yul\":1248:1257   */\n      dup3\n        /* \"#utility.yul\":1239:1246   */\n      dup5\n        /* \"#utility.yul\":1235:1258   */\n      sub\n        /* \"#utility.yul\":1231:1263   */\n      slt\n        /* \"#utility.yul\":1228:1347   */\n      iszero\n      tag_352\n      jumpi\n        /* \"#utility.yul\":1266:1345   */\n      tag_353\n      tag_269\n      jump\t// in\n    tag_353:\n        /* \"#utility.yul\":1228:1347   */\n    tag_352:\n        /* \"#utility.yul\":1386:1387   */\n      0x00\n        /* \"#utility.yul\":1411:1464   */\n      tag_354\n        /* \"#utility.yul\":1456:1463   */\n      dup5\n        /* \"#utility.yul\":1447:1453   */\n      dup3\n        /* \"#utility.yul\":1436:1445   */\n      dup6\n        /* \"#utility.yul\":1432:1454   */\n      add\n        /* \"#utility.yul\":1411:1464   */\n      tag_272\n      jump\t// in\n    tag_354:\n        /* \"#utility.yul\":1401:1464   */\n      swap2\n      pop\n        /* \"#utility.yul\":1357:1474   */\n      pop\n        /* \"#utility.yul\":1152:1481   */\n      swap3\n      swap2\n      pop\n      pop\n      jump\t// out\n        /* \"#utility.yul\":1487:1586   */\n    tag_273:\n        /* \"#utility.yul\":1539:1545   */\n      0x00\n        /* \"#utility.yul\":1573:1578   */\n      dup2\n        /* \"#utility.yul\":1567:1579   */\n      mload\n        /* \"#utility.yul\":1557:1579   */\n      swap1\n      pop\n        /* \"#utility.yul\":1487:1586   */\n      swap2\n      swap1\n      pop\n      jump\t// out\n        /* \"#utility.yul\":1592:1761   */\n    tag_274:\n        /* \"#utility.yul\":1676:1687   */\n      0x00\n        /* \"#utility.yul\":1710:1716   */\n      dup3\n        /* \"#utility.yul\":1705:1708   */\n      dup3\n        /* \"#utility.yul\":1698:1717   */\n      mstore\n        /* \"#utility.yul\":1750:1754   */\n      0x20\n        /* \"#utility.yul\":1745:1748   */\n      dup3\n        /* \"#utility.yul\":1741:1755   */\n      add\n        /* \"#utility.yul\":1726:1755   */\n      swap1\n      pop\n        /* \"#utility.yul\":1592:1761   */\n      swap3\n      swap2\n      pop\n      pop\n      jump\t// out\n        /* \"#utility.yul\":1767:1906   */\n    tag_275:\n        /* \"#utility.yul\":1856:1862   */\n      dup3\n        /* \"#utility.yul\":1851:1854   */\n      dup2\n        /* \"#utility.yul\":1846:1849   */\n      dup4\n        /* \"#utility.yul\":1840:1863   */\n      mcopy\n        /* \"#utility.yul\":1897:1898   */\n      0x00\n        /* \"#utility.yul\":1888:1894   */\n      dup4\n        /* \"#utility.yul\":1883:1886   */\n      dup4\n        /* \"#utility.yul\":1879:1895   */\n      add\n        /* \"#utility.yul\":1872:1899   */\n      mstore\n        /* \"#utility.yul\":1767:1906   */\n      pop\n      pop\n      pop\n      jump\t// out\n        /* \"#utility.yul\":1912:2014   */\n    tag_276:\n        /* \"#utility.yul\":1953:1959   */\n      0x00\n        /* \"#utility.yul\":2004:2006   */\n      0x1f\n        /* \"#utility.yul\":2000:2007   */\n      not\n        /* \"#utility.yul\":1995:1997   */\n      0x1f\n        /* \"#utility.yul\":1988:1993   */\n      dup4\n        /* \"#utility.yul\":1984:1998   */\n      add\n        /* \"#utility.yul\":1980:2008   */\n      and\n        /* \"#utility.yul\":1970:2008   */\n      swap1\n      pop\n        /* \"#utility.yul\":1912:2014   */\n      swap2\n      swap1\n      pop\n      jump\t// out\n        /* \"#utility.yul\":2020:2397   */\n    tag_277:\n        /* \"#utility.yul\":2108:2111   */\n      0x00\n        /* \"#utility.yul\":2136:2175   */\n      tag_360\n        /* \"#utility.yul\":2169:2174   */\n      dup3\n        /* \"#utility.yul\":2136:2175   */\n      tag_273\n      jump\t// in\n    tag_360:\n        /* \"#utility.yul\":2191:2262   */\n      tag_361\n        /* \"#utility.yul\":2255:2261   */\n      dup2\n        /* \"#utility.yul\":2250:2253   */\n      dup6\n        /* \"#utility.yul\":2191:2262   */\n      tag_274\n      jump\t// in\n    tag_361:\n        /* \"#utility.yul\":2184:2262   */\n      swap4\n      pop\n        /* \"#utility.yul\":2271:2336   */\n      tag_362\n        /* \"#utility.yul\":2329:2335   */\n      dup2\n        /* \"#utility.yul\":2324:2327   */\n      dup6\n        /* \"#utility.yul\":2317:2321   */\n      0x20\n        /* \"#utility.yul\":2310:2315   */\n      dup7\n        /* \"#utility.yul\":2306:2322   */\n      add\n        /* \"#utility.yul\":2271:2336   */\n      tag_275\n      jump\t// in\n    tag_362:\n        /* \"#utility.yul\":2361:2390   */\n      tag_363\n        /* \"#utility.yul\":2383:2389   */\n      dup2\n        /* \"#utility.yul\":2361:2390   */\n      tag_276\n      jump\t// in\n    tag_363:\n        /* \"#utility.yul\":2356:2359   */\n      dup5\n        /* \"#utility.yul\":2352:2391   */\n      add\n        /* \"#utility.yul\":2345:2391   */\n      swap2\n      pop\n        /* \"#utility.yul\":2112:2397   */\n      pop\n        /* \"#utility.yul\":2020:2397   */\n      swap3\n      swap2\n      pop\n      pop\n      jump\t// out\n        /* \"#utility.yul\":2403:2716   */\n    tag_21:\n        /* \"#utility.yul\":2516:2520   */\n      0x00\n        /* \"#utility.yul\":2554:2556   */\n      0x20\n        /* \"#utility.yul\":2543:2552   */\n      dup3\n        /* \"#utility.yul\":2539:2557   */\n      add\n        /* \"#utility.yul\":2531:2557   */\n      swap1\n      pop\n        /* \"#utility.yul\":2603:2612   */\n      dup2\n        /* \"#utility.yul\":2597:2601   */\n      dup2\n        /* \"#utility.yul\":2593:2613   */\n      sub\n        /* \"#utility.yul\":2589:2590   */\n      0x00\n        /* \"#utility.yul\":2578:2587   */\n      dup4\n        /* \"#utility.yul\":2574:2591   */\n      add\n        /* \"#utility.yul\":2567:2614   */\n      mstore\n        /* \"#utility.yul\":2631:2709   */\n      tag_365\n        /* \"#utility.yul\":2704:2708   */\n      dup2\n        /* \"#utility.yul\":2695:2701   */\n      dup5\n        /* \"#utility.yul\":2631:2709   */\n      tag_277\n      jump\t// in\n    tag_365:\n        /* \"#utility.yul\":2623:2709   */\n      swap1\n      pop\n        /* \"#utility.yul\":2403:2716   */\n      swap3\n      swap2\n      pop\n      pop\n      jump\t// out\n        /* \"#utility.yul\":2722:2848   */\n    tag_278:\n        /* \"#utility.yul\":2759:2766   */\n      0x00\n        /* \"#utility.yul\":2799:2841   */\n      0xffffffffffffffffffffffffffffffffffffffff\n        /* \"#utility.yul\":2792:2797   */\n      dup3\n        /* \"#utility.yul\":2788:2842   */\n      and\n        /* \"#utility.yul\":2777:2842   */\n      swap1\n      pop\n        /* \"#utility.yul\":2722:2848   */\n      swap2\n      swap1\n      pop\n      jump\t// out\n        /* \"#utility.yul\":2854:2950   */\n    tag_279:\n        /* \"#utility.yul\":2891:2898   */\n      0x00\n        /* \"#utility.yul\":2920:2944   */\n      tag_368\n        /* \"#utility.yul\":2938:2943   */\n      dup3\n        /* \"#utility.yul\":2920:2944   */\n      tag_278\n      jump\t// in\n    tag_368:\n        /* \"#utility.yul\":2909:2944   */\n      swap1\n      pop\n        /* \"#utility.yul\":2854:2950   */\n      swap2\n      swap1\n      pop\n      jump\t// out\n        /* \"#utility.yul\":2956:3078   */\n    tag_280:\n        /* \"#utility.yul\":3029:3053   */\n      tag_370\n        /* \"#utility.yul\":3047:3052   */\n      dup2\n        /* \"#utility.yul\":3029:3053   */\n      tag_279\n      jump\t// in\n    tag_370:\n        /* \"#utility.yul\":3022:3027   */\n      dup2\n        /* \"#utility.yul\":3019:3054   */\n      eq\n        /* \"#utility.yul\":3009:3072   */\n      tag_371\n      jumpi\n        /* \"#utility.yul\":3068:3069   */\n      0x00\n        /* \"#utility.yul\":3065:3066   */\n      dup1\n        /* \"#utility.yul\":3058:3070   */\n      revert\n        /* \"#utility.yul\":3009:3072   */\n    tag_371:\n        /* \"#utility.yul\":2956:3078   */\n      pop\n      jump\t// out\n        /* \"#utility.yul\":3084:3223   */\n    tag_281:\n        /* \"#utility.yul\":3130:3135   */\n      0x00\n        /* \"#utility.yul\":3168:3174   */\n      dup2\n        /* \"#utility.yul\":3155:3175   */\n      calldataload\n        /* \"#utility.yul\":3146:3175   */\n      swap1\n      pop\n        /* \"#utility.yul\":3184:3217   */\n      tag_373\n        /* \"#utility.yul\":3211:3216   */\n      dup2\n        /* \"#utility.yul\":3184:3217   */\n      tag_280\n      jump\t// in\n    tag_373:\n        /* \"#utility.yul\":3084:3223   */\n      swap3\n      swap2\n      pop\n      pop\n      jump\t// out\n        /* \"#utility.yul\":3229:3346   */\n    tag_282:\n        /* \"#utility.yul\":3338:3339   */\n      0x00\n        /* \"#utility.yul\":3335:3336   */\n      dup1\n        /* \"#utility.yul\":3328:3340   */\n      revert\n        /* \"#utility.yul\":3352:3469   */\n    tag_283:\n        /* \"#utility.yul\":3461:3462   */\n      0x00\n        /* \"#utility.yul\":3458:3459   */\n      dup1\n        /* \"#utility.yul\":3451:3463   */\n      revert\n        /* \"#utility.yul\":3475:3655   */\n    tag_149:\n        /* \"#utility.yul\":3523:3600   */\n      0x4e487b7100000000000000000000000000000000000000000000000000000000\n        /* \"#utility.yul\":3520:3521   */\n      0x00\n        /* \"#utility.yul\":3513:3601   */\n      mstore\n        /* \"#utility.yul\":3620:3624   */\n      0x41\n        /* \"#utility.yul\":3617:3618   */\n      0x04\n        /* \"#utility.yul\":3610:3625   */\n      mstore\n        /* \"#utility.yul\":3644:3648   */\n      0x24\n        /* \"#utility.yul\":3641:3642   */\n      0x00\n        /* \"#utility.yul\":3634:3649   */\n      revert\n        /* \"#utility.yul\":3661:3942   */\n    tag_284:\n        /* \"#utility.yul\":3744:3771   */\n      tag_378\n        /* \"#utility.yul\":3766:3770   */\n      dup3\n        /* \"#utility.yul\":3744:3771   */\n      tag_276\n      jump\t// in\n    tag_378:\n        /* \"#utility.yul\":3736:3742   */\n      dup2\n        /* \"#utility.yul\":3732:3772   */\n      add\n        /* \"#utility.yul\":3874:3880   */\n      dup2\n        /* \"#utility.yul\":3862:3872   */\n      dup2\n        /* \"#utility.yul\":3859:3881   */\n      lt\n        /* \"#utility.yul\":3838:3856   */\n      0xffffffffffffffff\n        /* \"#utility.yul\":3826:3836   */\n      dup3\n        /* \"#utility.yul\":3823:3857   */\n      gt\n        /* \"#utility.yul\":3820:3882   */\n      or\n        /* \"#utility.yul\":3817:3905   */\n      iszero\n      tag_379\n      jumpi\n        /* \"#utility.yul\":3885:3903   */\n      tag_380\n      tag_149\n      jump\t// in\n    tag_380:\n        /* \"#utility.yul\":3817:3905   */\n    tag_379:\n        /* \"#utility.yul\":3925:3935   */\n      dup1\n        /* \"#utility.yul\":3921:3923   */\n      0x40\n        /* \"#utility.yul\":3914:3936   */\n      mstore\n        /* \"#utility.yul\":3704:3942   */\n      pop\n        /* \"#utility.yul\":3661:3942   */\n      pop\n      pop\n      jump\t// out\n        /* \"#utility.yul\":3948:4077   */\n    tag_285:\n        /* \"#utility.yul\":3982:3988   */\n      0x00\n        /* \"#utility.yul\":4009:4029   */\n      tag_382\n      tag_268\n      jump\t// in\n    tag_382:\n        /* \"#utility.yul\":3999:4029   */\n      swap1\n      pop\n        /* \"#utility.yul\":4038:4071   */\n      tag_383\n        /* \"#utility.yul\":4066:4070   */\n      dup3\n        /* \"#utility.yul\":4058:4064   */\n      dup3\n        /* \"#utility.yul\":4038:4071   */\n      tag_284\n      jump\t// in\n    tag_383:\n        /* \"#utility.yul\":3948:4077   */\n      swap2\n      swap1\n      pop\n      jump\t// out\n        /* \"#utility.yul\":4083:4390   */\n    tag_286:\n        /* \"#utility.yul\":4144:4148   */\n      0x00\n        /* \"#utility.yul\":4234:4252   */\n      0xffffffffffffffff\n        /* \"#utility.yul\":4226:4232   */\n      dup3\n        /* \"#utility.yul\":4223:4253   */\n      gt\n        /* \"#utility.yul\":4220:4276   */\n      iszero\n      tag_385\n      jumpi\n        /* \"#utility.yul\":4256:4274   */\n      tag_386\n      tag_149\n      jump\t// in\n    tag_386:\n        /* \"#utility.yul\":4220:4276   */\n    tag_385:\n        /* \"#utility.yul\":4294:4323   */\n      tag_387\n        /* \"#utility.yul\":4316:4322   */\n      dup3\n        /* \"#utility.yul\":4294:4323   */\n      tag_276\n      jump\t// in\n    tag_387:\n        /* \"#utility.yul\":4286:4323   */\n      swap1\n      pop\n        /* \"#utility.yul\":4378:4382   */\n      0x20\n        /* \"#utility.yul\":4372:4376   */\n      dup2\n        /* \"#utility.yul\":4368:4383   */\n      add\n        /* \"#utility.yul\":4360:4383   */\n      swap1\n      pop\n        /* \"#utility.yul\":4083:4390   */\n      swap2\n      swap1\n      pop\n      jump\t// out\n        /* \"#utility.yul\":4396:4544   */\n    tag_287:\n        /* \"#utility.yul\":4494:4500   */\n      dup3\n        /* \"#utility.yul\":4489:4492   */\n      dup2\n        /* \"#utility.yul\":4484:4487   */\n      dup4\n        /* \"#utility.yul\":4471:4501   */\n      calldatacopy\n        /* \"#utility.yul\":4535:4536   */\n      0x00\n        /* \"#utility.yul\":4526:4532   */\n      dup4\n        /* \"#utility.yul\":4521:4524   */\n      dup4\n        /* \"#utility.yul\":4517:4533   */\n      add\n        /* \"#utility.yul\":4510:4537   */\n      mstore\n        /* \"#utility.yul\":4396:4544   */\n      pop\n      pop\n      pop\n      jump\t// out\n        /* \"#utility.yul\":4550:4973   */\n    tag_288:\n        /* \"#utility.yul\":4627:4632   */\n      0x00\n        /* \"#utility.yul\":4652:4717   */\n      tag_390\n        /* \"#utility.yul\":4668:4716   */\n      tag_391\n        /* \"#utility.yul\":4709:4715   */\n      dup5\n        /* \"#utility.yul\":4668:4716   */\n      tag_286\n      jump\t// in\n    tag_391:\n        /* \"#utility.yul\":4652:4717   */\n      tag_285\n      jump\t// in\n    tag_390:\n        /* \"#utility.yul\":4643:4717   */\n      swap1\n      pop\n        /* \"#utility.yul\":4740:4746   */\n      dup3\n        /* \"#utility.yul\":4733:4738   */\n      dup2\n        /* \"#utility.yul\":4726:4747   */\n      mstore\n        /* \"#utility.yul\":4778:4782   */\n      0x20\n        /* \"#utility.yul\":4771:4776   */\n      dup2\n        /* \"#utility.yul\":4767:4783   */\n      add\n        /* \"#utility.yul\":4816:4819   */\n      dup5\n        /* \"#utility.yul\":4807:4813   */\n      dup5\n        /* \"#utility.yul\":4802:4805   */\n      dup5\n        /* \"#utility.yul\":4798:4814   */\n      add\n        /* \"#utility.yul\":4795:4820   */\n      gt\n        /* \"#utility.yul\":4792:4904   */\n      iszero\n      tag_392\n      jumpi\n        /* \"#utility.yul\":4823:4902   */\n      tag_393\n      tag_283\n      jump\t// in\n    tag_393:\n        /* \"#utility.yul\":4792:4904   */\n    tag_392:\n        /* \"#utility.yul\":4913:4967   */\n      tag_394\n        /* \"#utility.yul\":4960:4966   */\n      dup5\n        /* \"#utility.yul\":4955:4958   */\n      dup3\n        /* \"#utility.yul\":4950:4953   */\n      dup6\n        /* \"#utility.yul\":4913:4967   */\n      tag_287\n      jump\t// in\n    tag_394:\n        /* \"#utility.yul\":4633:4973   */\n      pop\n        /* \"#utility.yul\":4550:4973   */\n      swap4\n      swap3\n      pop\n      pop\n      pop\n      jump\t// out\n        /* \"#utility.yul\":4992:5330   */\n    tag_289:\n        /* \"#utility.yul\":5047:5052   */\n      0x00\n        /* \"#utility.yul\":5096:5099   */\n      dup3\n        /* \"#utility.yul\":5089:5093   */\n      0x1f\n        /* \"#utility.yul\":5081:5087   */\n      dup4\n        /* \"#utility.yul\":5077:5094   */\n      add\n        /* \"#utility.yul\":5073:5100   */\n      slt\n        /* \"#utility.yul\":5063:5185   */\n      tag_396\n      jumpi\n        /* \"#utility.yul\":5104:5183   */\n      tag_397\n      tag_282\n      jump\t// in\n    tag_397:\n        /* \"#utility.yul\":5063:5185   */\n    tag_396:\n        /* \"#utility.yul\":5221:5227   */\n      dup2\n        /* \"#utility.yul\":5208:5228   */\n      calldataload\n        /* \"#utility.yul\":5246:5324   */\n      tag_398\n        /* \"#utility.yul\":5320:5323   */\n      dup5\n        /* \"#utility.yul\":5312:5318   */\n      dup3\n        /* \"#utility.yul\":5305:5309   */\n      0x20\n        /* \"#utility.yul\":5297:5303   */\n      dup7\n        /* \"#utility.yul\":5293:5310   */\n      add\n        /* \"#utility.yul\":5246:5324   */\n      tag_288\n      jump\t// in\n    tag_398:\n        /* \"#utility.yul\":5237:5324   */\n      swap2\n      pop\n        /* \"#utility.yul\":5053:5330   */\n      pop\n        /* \"#utility.yul\":4992:5330   */\n      swap3\n      swap2\n      pop\n      pop\n      jump\t// out\n        /* \"#utility.yul\":5336:6717   */\n    tag_25:\n        /* \"#utility.yul\":5458:5464   */\n      0x00\n        /* \"#utility.yul\":5466:5472   */\n      dup1\n        /* \"#utility.yul\":5474:5480   */\n      0x00\n        /* \"#utility.yul\":5482:5488   */\n      dup1\n        /* \"#utility.yul\":5490:5496   */\n      0x00\n        /* \"#utility.yul\":5498:5504   */\n      dup1\n        /* \"#utility.yul\":5506:5512   */\n      0x00\n        /* \"#utility.yul\":5555:5558   */\n      0xe0\n        /* \"#utility.yul\":5543:5552   */\n      dup9\n        /* \"#utility.yul\":5534:5541   */\n      dup11\n        /* \"#utility.yul\":5530:5553   */\n      sub\n        /* \"#utility.yul\":5526:5559   */\n      slt\n        /* \"#utility.yul\":5523:5643   */\n      iszero\n      tag_400\n      jumpi\n        /* \"#utility.yul\":5562:5641   */\n      tag_401\n      tag_269\n      jump\t// in\n    tag_401:\n        /* \"#utility.yul\":5523:5643   */\n    tag_400:\n        /* \"#utility.yul\":5682:5683   */\n      0x00\n        /* \"#utility.yul\":5707:5760   */\n      tag_402\n        /* \"#utility.yul\":5752:5759   */\n      dup11\n        /* \"#utility.yul\":5743:5749   */\n      dup3\n        /* \"#utility.yul\":5732:5741   */\n      dup12\n        /* \"#utility.yul\":5728:5750   */\n      add\n        /* \"#utility.yul\":5707:5760   */\n      tag_272\n      jump\t// in\n    tag_402:\n        /* \"#utility.yul\":5697:5760   */\n      swap8\n      pop\n        /* \"#utility.yul\":5653:5770   */\n      pop\n        /* \"#utility.yul\":5809:5811   */\n      0x20\n        /* \"#utility.yul\":5835:5888   */\n      tag_403\n        /* \"#utility.yul\":5880:5887   */\n      dup11\n        /* \"#utility.yul\":5871:5877   */\n      dup3\n        /* \"#utility.yul\":5860:5869   */\n      dup12\n        /* \"#utility.yul\":5856:5878   */\n      add\n        /* \"#utility.yul\":5835:5888   */\n      tag_281\n      jump\t// in\n    tag_403:\n        /* \"#utility.yul\":5825:5888   */\n      swap7\n      pop\n        /* \"#utility.yul\":5780:5898   */\n      pop\n        /* \"#utility.yul\":5937:5939   */\n      0x40\n        /* \"#utility.yul\":5963:6016   */\n      tag_404\n        /* \"#utility.yul\":6008:6015   */\n      dup11\n        /* \"#utility.yul\":5999:6005   */\n      dup3\n        /* \"#utility.yul\":5988:5997   */\n      dup12\n        /* \"#utility.yul\":5984:6006   */\n      add\n        /* \"#utility.yul\":5963:6016   */\n      tag_272\n      jump\t// in\n    tag_404:\n        /* \"#utility.yul\":5953:6016   */\n      swap6\n      pop\n        /* \"#utility.yul\":5908:6026   */\n      pop\n        /* \"#utility.yul\":6065:6067   */\n      0x60\n        /* \"#utility.yul\":6091:6144   */\n      tag_405\n        /* \"#utility.yul\":6136:6143   */\n      dup11\n        /* \"#utility.yul\":6127:6133   */\n      dup3\n        /* \"#utility.yul\":6116:6125   */\n      dup12\n        /* \"#utility.yul\":6112:6134   */\n      add\n        /* \"#utility.yul\":6091:6144   */\n      tag_272\n      jump\t// in\n    tag_405:\n        /* \"#utility.yul\":6081:6144   */\n      swap5\n      pop\n        /* \"#utility.yul\":6036:6154   */\n      pop\n        /* \"#utility.yul\":6193:6196   */\n      0x80\n        /* \"#utility.yul\":6220:6273   */\n      tag_406\n        /* \"#utility.yul\":6265:6272   */\n      dup11\n        /* \"#utility.yul\":6256:6262   */\n      dup3\n        /* \"#utility.yul\":6245:6254   */\n      dup12\n        /* \"#utility.yul\":6241:6263   */\n      add\n        /* \"#utility.yul\":6220:6273   */\n      tag_272\n      jump\t// in\n    tag_406:\n        /* \"#utility.yul\":6210:6273   */\n      swap4\n      pop\n        /* \"#utility.yul\":6164:6283   */\n      pop\n        /* \"#utility.yul\":6322:6325   */\n      0xa0\n        /* \"#utility.yul\":6349:6402   */\n      tag_407\n        /* \"#utility.yul\":6394:6401   */\n      dup11\n        /* \"#utility.yul\":6385:6391   */\n      dup3\n        /* \"#utility.yul\":6374:6383   */\n      dup12\n        /* \"#utility.yul\":6370:6392   */\n      add\n        /* \"#utility.yul\":6349:6402   */\n      tag_272\n      jump\t// in\n    tag_407:\n        /* \"#utility.yul\":6339:6402   */\n      swap3\n      pop\n        /* \"#utility.yul\":6293:6412   */\n      pop\n        /* \"#utility.yul\":6479:6482   */\n      0xc0\n        /* \"#utility.yul\":6468:6477   */\n      dup9\n        /* \"#utility.yul\":6464:6483   */\n      add\n        /* \"#utility.yul\":6451:6484   */\n      calldataload\n        /* \"#utility.yul\":6511:6529   */\n      0xffffffffffffffff\n        /* \"#utility.yul\":6503:6509   */\n      dup2\n        /* \"#utility.yul\":6500:6530   */\n      gt\n        /* \"#utility.yul\":6497:6614   */\n      iszero\n      tag_408\n      jumpi\n        /* \"#utility.yul\":6533:6612   */\n      tag_409\n      tag_270\n      jump\t// in\n    tag_409:\n        /* \"#utility.yul\":6497:6614   */\n    tag_408:\n        /* \"#utility.yul\":6638:6700   */\n      tag_410\n        /* \"#utility.yul\":6692:6699   */\n      dup11\n        /* \"#utility.yul\":6683:6689   */\n      dup3\n        /* \"#utility.yul\":6672:6681   */\n      dup12\n        /* \"#utility.yul\":6668:6690   */\n      add\n        /* \"#utility.yul\":6638:6700   */\n      tag_289\n      jump\t// in\n    tag_410:\n        /* \"#utility.yul\":6628:6700   */\n      swap2\n      pop\n        /* \"#utility.yul\":6422:6710   */\n      pop\n        /* \"#utility.yul\":5336:6717   */\n      swap3\n      swap6\n      swap9\n      swap2\n      swap5\n      swap8\n      pop\n      swap3\n      swap6\n      pop\n      jump\t// out\n        /* \"#utility.yul\":6723:6813   */\n    tag_290:\n        /* \"#utility.yul\":6757:6764   */\n      0x00\n        /* \"#utility.yul\":6800:6805   */\n      dup2\n        /* \"#utility.yul\":6793:6806   */\n      iszero\n        /* \"#utility.yul\":6786:6807   */\n      iszero\n        /* \"#utility.yul\":6775:6807   */\n      swap1\n      pop\n        /* \"#utility.yul\":6723:6813   */\n      swap2\n      swap1\n      pop\n      jump\t// out\n        /* \"#utility.yul\":6819:6935   */\n    tag_291:\n        /* \"#utility.yul\":6889:6910   */\n      tag_413\n        /* \"#utility.yul\":6904:6909   */\n      dup2\n        /* \"#utility.yul\":6889:6910   */\n      tag_290\n      jump\t// in\n    tag_413:\n        /* \"#utility.yul\":6882:6887   */\n      dup2\n        /* \"#utility.yul\":6879:6911   */\n      eq\n        /* \"#utility.yul\":6869:6929   */\n      tag_414\n      jumpi\n        /* \"#utility.yul\":6925:6926   */\n      0x00\n        /* \"#utility.yul\":6922:6923   */\n      dup1\n        /* \"#utility.yul\":6915:6927   */\n      revert\n        /* \"#utility.yul\":6869:6929   */\n    tag_414:\n        /* \"#utility.yul\":6819:6935   */\n      pop\n      jump\t// out\n        /* \"#utility.yul\":6941:7074   */\n    tag_292:\n        /* \"#utility.yul\":6984:6989   */\n      0x00\n        /* \"#utility.yul\":7022:7028   */\n      dup2\n        /* \"#utility.yul\":7009:7029   */\n      calldataload\n        /* \"#utility.yul\":7000:7029   */\n      swap1\n      pop\n        /* \"#utility.yul\":7038:7068   */\n      tag_416\n        /* \"#utility.yul\":7062:7067   */\n      dup2\n        /* \"#utility.yul\":7038:7068   */\n      tag_291\n      jump\t// in\n    tag_416:\n        /* \"#utility.yul\":6941:7074   */\n      swap3\n      swap2\n      pop\n      pop\n      jump\t// out\n        /* \"#utility.yul\":7080:8601   */\n    tag_30:\n        /* \"#utility.yul\":7208:7214   */\n      0x00\n        /* \"#utility.yul\":7216:7222   */\n      dup1\n        /* \"#utility.yul\":7224:7230   */\n      0x00\n        /* \"#utility.yul\":7232:7238   */\n      dup1\n        /* \"#utility.yul\":7240:7246   */\n      0x00\n        /* \"#utility.yul\":7248:7254   */\n      dup1\n        /* \"#utility.yul\":7256:7262   */\n      0x00\n        /* \"#utility.yul\":7264:7270   */\n      dup1\n        /* \"#utility.yul\":7313:7316   */\n      0x0100\n        /* \"#utility.yul\":7301:7310   */\n      dup10\n        /* \"#utility.yul\":7292:7299   */\n      dup12\n        /* \"#utility.yul\":7288:7311   */\n      sub\n        /* \"#utility.yul\":7284:7317   */\n      slt\n        /* \"#utility.yul\":7281:7401   */\n      iszero\n      tag_418\n      jumpi\n        /* \"#utility.yul\":7320:7399   */\n      tag_419\n      tag_269\n      jump\t// in\n    tag_419:\n        /* \"#utility.yul\":7281:7401   */\n    tag_418:\n        /* \"#utility.yul\":7440:7441   */\n      0x00\n        /* \"#utility.yul\":7465:7518   */\n      tag_420\n        /* \"#utility.yul\":7510:7517   */\n      dup12\n        /* \"#utility.yul\":7501:7507   */\n      dup3\n        /* \"#utility.yul\":7490:7499   */\n      dup13\n        /* \"#utility.yul\":7486:7508   */\n      add\n        /* \"#utility.yul\":7465:7518   */\n      tag_272\n      jump\t// in\n    tag_420:\n        /* \"#utility.yul\":7455:7518   */\n      swap9\n      pop\n        /* \"#utility.yul\":7411:7528   */\n      pop\n        /* \"#utility.yul\":7567:7569   */\n      0x20\n        /* \"#utility.yul\":7593:7646   */\n      tag_421\n        /* \"#utility.yul\":7638:7645   */\n      dup12\n        /* \"#utility.yul\":7629:7635   */\n      dup3\n        /* \"#utility.yul\":7618:7627   */\n      dup13\n        /* \"#utility.yul\":7614:7636   */\n      add\n        /* \"#utility.yul\":7593:7646   */\n      tag_281\n      jump\t// in\n    tag_421:\n        /* \"#utility.yul\":7583:7646   */\n      swap8\n      pop\n        /* \"#utility.yul\":7538:7656   */\n      pop\n        /* \"#utility.yul\":7695:7697   */\n      0x40\n        /* \"#utility.yul\":7721:7774   */\n      tag_422\n        /* \"#utility.yul\":7766:7773   */\n      dup12\n        /* \"#utility.yul\":7757:7763   */\n      dup3\n        /* \"#utility.yul\":7746:7755   */\n      dup13\n        /* \"#utility.yul\":7742:7764   */\n      add\n        /* \"#utility.yul\":7721:7774   */\n      tag_272\n      jump\t// in\n    tag_422:\n        /* \"#utility.yul\":7711:7774   */\n      swap7\n      pop\n        /* \"#utility.yul\":7666:7784   */\n      pop\n        /* \"#utility.yul\":7823:7825   */\n      0x60\n        /* \"#utility.yul\":7849:7902   */\n      tag_423\n        /* \"#utility.yul\":7894:7901   */\n      dup12\n        /* \"#utility.yul\":7885:7891   */\n      dup3\n        /* \"#utility.yul\":7874:7883   */\n      dup13\n        /* \"#utility.yul\":7870:7892   */\n      add\n        /* \"#utility.yul\":7849:7902   */\n      tag_272\n      jump\t// in\n    tag_423:\n        /* \"#utility.yul\":7839:7902   */\n      swap6\n      pop\n        /* \"#utility.yul\":7794:7912   */\n      pop\n        /* \"#utility.yul\":7951:7954   */\n      0x80\n        /* \"#utility.yul\":7978:8031   */\n      tag_424\n        /* \"#utility.yul\":8023:8030   */\n      dup12\n        /* \"#utility.yul\":8014:8020   */\n      dup3\n        /* \"#utility.yul\":8003:8012   */\n      dup13\n        /* \"#utility.yul\":7999:8021   */\n      add\n        /* \"#utility.yul\":7978:8031   */\n      tag_272\n      jump\t// in\n    tag_424:\n        /* \"#utility.yul\":7968:8031   */\n      swap5\n      pop\n        /* \"#utility.yul\":7922:8041   */\n      pop\n        /* \"#utility.yul\":8080:8083   */\n      0xa0\n        /* \"#utility.yul\":8107:8160   */\n      tag_425\n        /* \"#utility.yul\":8152:8159   */\n      dup12\n        /* \"#utility.yul\":8143:8149   */\n      dup3\n        /* \"#utility.yul\":8132:8141   */\n      dup13\n        /* \"#utility.yul\":8128:8150   */\n      add\n        /* \"#utility.yul\":8107:8160   */\n      tag_272\n      jump\t// in\n    tag_425:\n        /* \"#utility.yul\":8097:8160   */\n      swap4\n      pop\n        /* \"#utility.yul\":8051:8170   */\n      pop\n        /* \"#utility.yul\":8237:8240   */\n      0xc0\n        /* \"#utility.yul\":8226:8235   */\n      dup10\n        /* \"#utility.yul\":8222:8241   */\n      add\n        /* \"#utility.yul\":8209:8242   */\n      calldataload\n        /* \"#utility.yul\":8269:8287   */\n      0xffffffffffffffff\n        /* \"#utility.yul\":8261:8267   */\n      dup2\n        /* \"#utility.yul\":8258:8288   */\n      gt\n        /* \"#utility.yul\":8255:8372   */\n      iszero\n      tag_426\n      jumpi\n        /* \"#utility.yul\":8291:8370   */\n      tag_427\n      tag_270\n      jump\t// in\n    tag_427:\n        /* \"#utility.yul\":8255:8372   */\n    tag_426:\n        /* \"#utility.yul\":8396:8458   */\n      tag_428\n        /* \"#utility.yul\":8450:8457   */\n      dup12\n        /* \"#utility.yul\":8441:8447   */\n      dup3\n        /* \"#utility.yul\":8430:8439   */\n      dup13\n        /* \"#utility.yul\":8426:8448   */\n      add\n        /* \"#utility.yul\":8396:8458   */\n      tag_289\n      jump\t// in\n    tag_428:\n        /* \"#utility.yul\":8386:8458   */\n      swap3\n      pop\n        /* \"#utility.yul\":8180:8468   */\n      pop\n        /* \"#utility.yul\":8507:8510   */\n      0xe0\n        /* \"#utility.yul\":8534:8584   */\n      tag_429\n        /* \"#utility.yul\":8576:8583   */\n      dup12\n        /* \"#utility.yul\":8567:8573   */\n      dup3\n        /* \"#utility.yul\":8556:8565   */\n      dup13\n        /* \"#utility.yul\":8552:8574   */\n      add\n        /* \"#utility.yul\":8534:8584   */\n      tag_292\n      jump\t// in\n    tag_429:\n        /* \"#utility.yul\":8524:8584   */\n      swap2\n      pop\n        /* \"#utility.yul\":8478:8594   */\n      pop\n        /* \"#utility.yul\":7080:8601   */\n      swap3\n      swap6\n      swap9\n      pop\n      swap3\n      swap6\n      swap9\n      swap1\n      swap4\n      swap7\n      pop\n      jump\t// out\n        /* \"#utility.yul\":8607:8731   */\n    tag_293:\n        /* \"#utility.yul\":8684:8690   */\n      0x00\n        /* \"#utility.yul\":8718:8723   */\n      dup2\n        /* \"#utility.yul\":8712:8724   */\n      mload\n        /* \"#utility.yul\":8702:8724   */\n      swap1\n      pop\n        /* \"#utility.yul\":8607:8731   */\n      swap2\n      swap1\n      pop\n      jump\t// out\n        /* \"#utility.yul\":8737:8931   */\n    tag_294:\n        /* \"#utility.yul\":8846:8857   */\n      0x00\n        /* \"#utility.yul\":8880:8886   */\n      dup3\n        /* \"#utility.yul\":8875:8878   */\n      dup3\n        /* \"#utility.yul\":8868:8887   */\n      mstore\n        /* \"#utility.yul\":8920:8924   */\n      0x20\n        /* \"#utility.yul\":8915:8918   */\n      dup3\n        /* \"#utility.yul\":8911:8925   */\n      add\n        /* \"#utility.yul\":8896:8925   */\n      swap1\n      pop\n        /* \"#utility.yul\":8737:8931   */\n      swap3\n      swap2\n      pop\n      pop\n      jump\t// out\n        /* \"#utility.yul\":8937:9079   */\n    tag_295:\n        /* \"#utility.yul\":9014:9018   */\n      0x00\n        /* \"#utility.yul\":9037:9040   */\n      dup2\n        /* \"#utility.yul\":9029:9040   */\n      swap1\n      pop\n        /* \"#utility.yul\":9067:9071   */\n      0x20\n        /* \"#utility.yul\":9062:9065   */\n      dup3\n        /* \"#utility.yul\":9058:9072   */\n      add\n        /* \"#utility.yul\":9050:9072   */\n      swap1\n      pop\n        /* \"#utility.yul\":8937:9079   */\n      swap2\n      swap1\n      pop\n      jump\t// out\n        /* \"#utility.yul\":9085:9244   */\n    tag_296:\n        /* \"#utility.yul\":9159:9170   */\n      0x00\n        /* \"#utility.yul\":9193:9199   */\n      dup3\n        /* \"#utility.yul\":9188:9191   */\n      dup3\n        /* \"#utility.yul\":9181:9200   */\n      mstore\n        /* \"#utility.yul\":9233:9237   */\n      0x20\n        /* \"#utility.yul\":9228:9231   */\n      dup3\n        /* \"#utility.yul\":9224:9238   */\n      add\n        /* \"#utility.yul\":9209:9238   */\n      swap1\n      pop\n        /* \"#utility.yul\":9085:9244   */\n      swap3\n      swap2\n      pop\n      pop\n      jump\t// out\n        /* \"#utility.yul\":9250:9607   */\n    tag_297:\n        /* \"#utility.yul\":9328:9331   */\n      0x00\n        /* \"#utility.yul\":9356:9395   */\n      tag_435\n        /* \"#utility.yul\":9389:9394   */\n      dup3\n        /* \"#utility.yul\":9356:9395   */\n      tag_273\n      jump\t// in\n    tag_435:\n        /* \"#utility.yul\":9411:9472   */\n      tag_436\n        /* \"#utility.yul\":9465:9471   */\n      dup2\n        /* \"#utility.yul\":9460:9463   */\n      dup6\n        /* \"#utility.yul\":9411:9472   */\n      tag_296\n      jump\t// in\n    tag_436:\n        /* \"#utility.yul\":9404:9472   */\n      swap4\n      pop\n        /* \"#utility.yul\":9481:9546   */\n      tag_437\n        /* \"#utility.yul\":9539:9545   */\n      dup2\n        /* \"#utility.yul\":9534:9537   */\n      dup6\n        /* \"#utility.yul\":9527:9531   */\n      0x20\n        /* \"#utility.yul\":9520:9525   */\n      dup7\n        /* \"#utility.yul\":9516:9532   */\n      add\n        /* \"#utility.yul\":9481:9546   */\n      tag_275\n      jump\t// in\n    tag_437:\n        /* \"#utility.yul\":9571:9600   */\n      tag_438\n        /* \"#utility.yul\":9593:9599   */\n      dup2\n        /* \"#utility.yul\":9571:9600   */\n      tag_276\n      jump\t// in\n    tag_438:\n        /* \"#utility.yul\":9566:9569   */\n      dup5\n        /* \"#utility.yul\":9562:9601   */\n      add\n        /* \"#utility.yul\":9555:9601   */\n      swap2\n      pop\n        /* \"#utility.yul\":9332:9607   */\n      pop\n        /* \"#utility.yul\":9250:9607   */\n      swap3\n      swap2\n      pop\n      pop\n      jump\t// out\n        /* \"#utility.yul\":9613:9809   */\n    tag_298:\n        /* \"#utility.yul\":9702:9712   */\n      0x00\n        /* \"#utility.yul\":9737:9803   */\n      tag_440\n        /* \"#utility.yul\":9799:9802   */\n      dup4\n        /* \"#utility.yul\":9791:9797   */\n      dup4\n        /* \"#utility.yul\":9737:9803   */\n      tag_297\n      jump\t// in\n    tag_440:\n        /* \"#utility.yul\":9723:9803   */\n      swap1\n      pop\n        /* \"#utility.yul\":9613:9809   */\n      swap3\n      swap2\n      pop\n      pop\n      jump\t// out\n        /* \"#utility.yul\":9815:9938   */\n    tag_299:\n        /* \"#utility.yul\":9895:9899   */\n      0x00\n        /* \"#utility.yul\":9927:9931   */\n      0x20\n        /* \"#utility.yul\":9922:9925   */\n      dup3\n        /* \"#utility.yul\":9918:9932   */\n      add\n        /* \"#utility.yul\":9910:9932   */\n      swap1\n      pop\n        /* \"#utility.yul\":9815:9938   */\n      swap2\n      swap1\n      pop\n      jump\t// out\n        /* \"#utility.yul\":9972:10963   */\n    tag_300:\n        /* \"#utility.yul\":10111:10114   */\n      0x00\n        /* \"#utility.yul\":10140:10204   */\n      tag_443\n        /* \"#utility.yul\":10198:10203   */\n      dup3\n        /* \"#utility.yul\":10140:10204   */\n      tag_293\n      jump\t// in\n    tag_443:\n        /* \"#utility.yul\":10220:10316   */\n      tag_444\n        /* \"#utility.yul\":10309:10315   */\n      dup2\n        /* \"#utility.yul\":10304:10307   */\n      dup6\n        /* \"#utility.yul\":10220:10316   */\n      tag_294\n      jump\t// in\n    tag_444:\n        /* \"#utility.yul\":10213:10316   */\n      swap4\n      pop\n        /* \"#utility.yul\":10342:10345   */\n      dup4\n        /* \"#utility.yul\":10387:10391   */\n      0x20\n        /* \"#utility.yul\":10379:10385   */\n      dup3\n        /* \"#utility.yul\":10375:10392   */\n      mul\n        /* \"#utility.yul\":10370:10373   */\n      dup6\n        /* \"#utility.yul\":10366:10393   */\n      add\n        /* \"#utility.yul\":10417:10483   */\n      tag_445\n        /* \"#utility.yul\":10477:10482   */\n      dup6\n        /* \"#utility.yul\":10417:10483   */\n      tag_295\n      jump\t// in\n    tag_445:\n        /* \"#utility.yul\":10506:10513   */\n      dup1\n        /* \"#utility.yul\":10537:10538   */\n      0x00\n        /* \"#utility.yul\":10522:10918   */\n    tag_446:\n        /* \"#utility.yul\":10547:10553   */\n      dup6\n        /* \"#utility.yul\":10544:10545   */\n      dup2\n        /* \"#utility.yul\":10541:10554   */\n      lt\n        /* \"#utility.yul\":10522:10918   */\n      iszero\n      tag_448\n      jumpi\n        /* \"#utility.yul\":10618:10627   */\n      dup5\n        /* \"#utility.yul\":10612:10616   */\n      dup5\n        /* \"#utility.yul\":10608:10628   */\n      sub\n        /* \"#utility.yul\":10603:10606   */\n      dup10\n        /* \"#utility.yul\":10596:10629   */\n      mstore\n        /* \"#utility.yul\":10669:10675   */\n      dup2\n        /* \"#utility.yul\":10663:10676   */\n      mload\n        /* \"#utility.yul\":10697:10781   */\n      tag_449\n        /* \"#utility.yul\":10776:10780   */\n      dup6\n        /* \"#utility.yul\":10761:10774   */\n      dup3\n        /* \"#utility.yul\":10697:10781   */\n      tag_298\n      jump\t// in\n    tag_449:\n        /* \"#utility.yul\":10689:10781   */\n      swap5\n      pop\n        /* \"#utility.yul\":10804:10874   */\n      tag_450\n        /* \"#utility.yul\":10867:10873   */\n      dup4\n        /* \"#utility.yul\":10804:10874   */\n      tag_299\n      jump\t// in\n    tag_450:\n        /* \"#utility.yul\":10794:10874   */\n      swap3\n      pop\n        /* \"#utility.yul\":10903:10907   */\n      0x20\n        /* \"#utility.yul\":10898:10901   */\n      dup11\n        /* \"#utility.yul\":10894:10908   */\n      add\n        /* \"#utility.yul\":10887:10908   */\n      swap10\n      pop\n        /* \"#utility.yul\":10582:10918   */\n      pop\n        /* \"#utility.yul\":10569:10570   */\n      0x01\n        /* \"#utility.yul\":10566:10567   */\n      dup2\n        /* \"#utility.yul\":10562:10571   */\n      add\n        /* \"#utility.yul\":10557:10571   */\n      swap1\n      pop\n        /* \"#utility.yul\":10522:10918   */\n      jump(tag_446)\n    tag_448:\n        /* \"#utility.yul\":10526:10540   */\n      pop\n        /* \"#utility.yul\":10934:10938   */\n      dup3\n        /* \"#utility.yul\":10927:10938   */\n      swap8\n      pop\n        /* \"#utility.yul\":10954:10957   */\n      dup8\n        /* \"#utility.yul\":10947:10957   */\n      swap6\n      pop\n        /* \"#utility.yul\":10116:10963   */\n      pop\n      pop\n      pop\n      pop\n      pop\n        /* \"#utility.yul\":9972:10963   */\n      swap3\n      swap2\n      pop\n      pop\n      jump\t// out\n        /* \"#utility.yul\":10969:11382   */\n    tag_36:\n        /* \"#utility.yul\":11132:11136   */\n      0x00\n        /* \"#utility.yul\":11170:11172   */\n      0x20\n        /* \"#utility.yul\":11159:11168   */\n      dup3\n        /* \"#utility.yul\":11155:11173   */\n      add\n        /* \"#utility.yul\":11147:11173   */\n      swap1\n      pop\n        /* \"#utility.yul\":11219:11228   */\n      dup2\n        /* \"#utility.yul\":11213:11217   */\n      dup2\n        /* \"#utility.yul\":11209:11229   */\n      sub\n        /* \"#utility.yul\":11205:11206   */\n      0x00\n        /* \"#utility.yul\":11194:11203   */\n      dup4\n        /* \"#utility.yul\":11190:11207   */\n      add\n        /* \"#utility.yul\":11183:11230   */\n      mstore\n        /* \"#utility.yul\":11247:11375   */\n      tag_452\n        /* \"#utility.yul\":11370:11374   */\n      dup2\n        /* \"#utility.yul\":11361:11367   */\n      dup5\n        /* \"#utility.yul\":11247:11375   */\n      tag_300\n      jump\t// in\n    tag_452:\n        /* \"#utility.yul\":11239:11375   */\n      swap1\n      pop\n        /* \"#utility.yul\":10969:11382   */\n      swap3\n      swap2\n      pop\n      pop\n      jump\t// out\n        /* \"#utility.yul\":11388:12331   */\n    tag_40:\n        /* \"#utility.yul\":11483:11489   */\n      0x00\n        /* \"#utility.yul\":11491:11497   */\n      dup1\n        /* \"#utility.yul\":11499:11505   */\n      0x00\n        /* \"#utility.yul\":11507:11513   */\n      dup1\n        /* \"#utility.yul\":11556:11559   */\n      0x80\n        /* \"#utility.yul\":11544:11553   */\n      dup6\n        /* \"#utility.yul\":11535:11542   */\n      dup8\n        /* \"#utility.yul\":11531:11554   */\n      sub\n        /* \"#utility.yul\":11527:11560   */\n      slt\n        /* \"#utility.yul\":11524:11644   */\n      iszero\n      tag_454\n      jumpi\n        /* \"#utility.yul\":11563:11642   */\n      tag_455\n      tag_269\n      jump\t// in\n    tag_455:\n        /* \"#utility.yul\":11524:11644   */\n    tag_454:\n        /* \"#utility.yul\":11683:11684   */\n      0x00\n        /* \"#utility.yul\":11708:11761   */\n      tag_456\n        /* \"#utility.yul\":11753:11760   */\n      dup8\n        /* \"#utility.yul\":11744:11750   */\n      dup3\n        /* \"#utility.yul\":11733:11742   */\n      dup9\n        /* \"#utility.yul\":11729:11751   */\n      add\n        /* \"#utility.yul\":11708:11761   */\n      tag_272\n      jump\t// in\n    tag_456:\n        /* \"#utility.yul\":11698:11761   */\n      swap5\n      pop\n        /* \"#utility.yul\":11654:11771   */\n      pop\n        /* \"#utility.yul\":11810:11812   */\n      0x20\n        /* \"#utility.yul\":11836:11889   */\n      tag_457\n        /* \"#utility.yul\":11881:11888   */\n      dup8\n        /* \"#utility.yul\":11872:11878   */\n      dup3\n        /* \"#utility.yul\":11861:11870   */\n      dup9\n        /* \"#utility.yul\":11857:11879   */\n      add\n        /* \"#utility.yul\":11836:11889   */\n      tag_281\n      jump\t// in\n    tag_457:\n        /* \"#utility.yul\":11826:11889   */\n      swap4\n      pop\n        /* \"#utility.yul\":11781:11899   */\n      pop\n        /* \"#utility.yul\":11938:11940   */\n      0x40\n        /* \"#utility.yul\":11964:12017   */\n      tag_458\n        /* \"#utility.yul\":12009:12016   */\n      dup8\n        /* \"#utility.yul\":12000:12006   */\n      dup3\n        /* \"#utility.yul\":11989:11998   */\n      dup9\n        /* \"#utility.yul\":11985:12007   */\n      add\n        /* \"#utility.yul\":11964:12017   */\n      tag_272\n      jump\t// in\n    tag_458:\n        /* \"#utility.yul\":11954:12017   */\n      swap3\n      pop\n        /* \"#utility.yul\":11909:12027   */\n      pop\n        /* \"#utility.yul\":12094:12096   */\n      0x60\n        /* \"#utility.yul\":12083:12092   */\n      dup6\n        /* \"#utility.yul\":12079:12097   */\n      add\n        /* \"#utility.yul\":12066:12098   */\n      calldataload\n        /* \"#utility.yul\":12125:12143   */\n      0xffffffffffffffff\n        /* \"#utility.yul\":12117:12123   */\n      dup2\n        /* \"#utility.yul\":12114:12144   */\n      gt\n        /* \"#utility.yul\":12111:12228   */\n      iszero\n      tag_459\n      jumpi\n        /* \"#utility.yul\":12147:12226   */\n      tag_460\n      tag_270\n      jump\t// in\n    tag_460:\n        /* \"#utility.yul\":12111:12228   */\n    tag_459:\n        /* \"#utility.yul\":12252:12314   */\n      tag_461\n        /* \"#utility.yul\":12306:12313   */\n      dup8\n        /* \"#utility.yul\":12297:12303   */\n      dup3\n        /* \"#utility.yul\":12286:12295   */\n      dup9\n        /* \"#utility.yul\":12282:12304   */\n      add\n        /* \"#utility.yul\":12252:12314   */\n      tag_289\n      jump\t// in\n    tag_461:\n        /* \"#utility.yul\":12242:12314   */\n      swap2\n      pop\n        /* \"#utility.yul\":12037:12324   */\n      pop\n        /* \"#utility.yul\":11388:12331   */\n      swap3\n      swap6\n      swap2\n      swap5\n      pop\n      swap3\n      pop\n      jump\t// out\n        /* \"#utility.yul\":12337:12844   */\n    tag_48:\n        /* \"#utility.yul\":12405:12411   */\n      0x00\n        /* \"#utility.yul\":12454:12456   */\n      0x20\n        /* \"#utility.yul\":12442:12451   */\n      dup3\n        /* \"#utility.yul\":12433:12440   */\n      dup5\n        /* \"#utility.yul\":12429:12452   */\n      sub\n        /* \"#utility.yul\":12425:12457   */\n      slt\n        /* \"#utility.yul\":12422:12541   */\n      iszero\n      tag_463\n      jumpi\n        /* \"#utility.yul\":12460:12539   */\n      tag_464\n      tag_269\n      jump\t// in\n    tag_464:\n        /* \"#utility.yul\":12422:12541   */\n    tag_463:\n        /* \"#utility.yul\":12608:12609   */\n      0x00\n        /* \"#utility.yul\":12597:12606   */\n      dup3\n        /* \"#utility.yul\":12593:12610   */\n      add\n        /* \"#utility.yul\":12580:12611   */\n      calldataload\n        /* \"#utility.yul\":12638:12656   */\n      0xffffffffffffffff\n        /* \"#utility.yul\":12630:12636   */\n      dup2\n        /* \"#utility.yul\":12627:12657   */\n      gt\n        /* \"#utility.yul\":12624:12741   */\n      iszero\n      tag_465\n      jumpi\n        /* \"#utility.yul\":12660:12739   */\n      tag_466\n      tag_270\n      jump\t// in\n    tag_466:\n        /* \"#utility.yul\":12624:12741   */\n    tag_465:\n        /* \"#utility.yul\":12765:12827   */\n      tag_467\n        /* \"#utility.yul\":12819:12826   */\n      dup5\n        /* \"#utility.yul\":12810:12816   */\n      dup3\n        /* \"#utility.yul\":12799:12808   */\n      dup6\n        /* \"#utility.yul\":12795:12817   */\n      add\n        /* \"#utility.yul\":12765:12827   */\n      tag_289\n      jump\t// in\n    tag_467:\n        /* \"#utility.yul\":12755:12827   */\n      swap2\n      pop\n        /* \"#utility.yul\":12551:12837   */\n      pop\n        /* \"#utility.yul\":12337:12844   */\n      swap3\n      swap2\n      pop\n      pop\n      jump\t// out\n        /* \"#utility.yul\":12850:13072   */\n    tag_51:\n        /* \"#utility.yul\":12943:12947   */\n      0x00\n        /* \"#utility.yul\":12981:12983   */\n      0x20\n        /* \"#utility.yul\":12970:12979   */\n      dup3\n        /* \"#utility.yul\":12966:12984   */\n      add\n        /* \"#utility.yul\":12958:12984   */\n      swap1\n      pop\n        /* \"#utility.yul\":12994:13065   */\n      tag_469\n        /* \"#utility.yul\":13062:13063   */\n      0x00\n        /* \"#utility.yul\":13051:13060   */\n      dup4\n        /* \"#utility.yul\":13047:13064   */\n      add\n        /* \"#utility.yul\":13038:13044   */\n      dup5\n        /* \"#utility.yul\":12994:13065   */\n      tag_267\n      jump\t// in\n    tag_469:\n        /* \"#utility.yul\":12850:13072   */\n      swap3\n      swap2\n      pop\n      pop\n      jump\t// out\n        /* \"#utility.yul\":13078:13155   */\n    tag_301:\n        /* \"#utility.yul\":13115:13122   */\n      0x00\n        /* \"#utility.yul\":13144:13149   */\n      dup2\n        /* \"#utility.yul\":13133:13149   */\n      swap1\n      pop\n        /* \"#utility.yul\":13078:13155   */\n      swap2\n      swap1\n      pop\n      jump\t// out\n        /* \"#utility.yul\":13161:13279   */\n    tag_302:\n        /* \"#utility.yul\":13248:13272   */\n      tag_472\n        /* \"#utility.yul\":13266:13271   */\n      dup2\n        /* \"#utility.yul\":13248:13272   */\n      tag_301\n      jump\t// in\n    tag_472:\n        /* \"#utility.yul\":13243:13246   */\n      dup3\n        /* \"#utility.yul\":13236:13273   */\n      mstore\n        /* \"#utility.yul\":13161:13279   */\n      pop\n      pop\n      jump\t// out\n        /* \"#utility.yul\":13285:13403   */\n    tag_303:\n        /* \"#utility.yul\":13372:13396   */\n      tag_474\n        /* \"#utility.yul\":13390:13395   */\n      dup2\n        /* \"#utility.yul\":13372:13396   */\n      tag_279\n      jump\t// in\n    tag_474:\n        /* \"#utility.yul\":13367:13370   */\n      dup3\n        /* \"#utility.yul\":13360:13397   */\n      mstore\n        /* \"#utility.yul\":13285:13403   */\n      pop\n      pop\n      jump\t// out\n        /* \"#utility.yul\":13409:13851   */\n    tag_54:\n        /* \"#utility.yul\":13558:13562   */\n      0x00\n        /* \"#utility.yul\":13596:13598   */\n      0x60\n        /* \"#utility.yul\":13585:13594   */\n      dup3\n        /* \"#utility.yul\":13581:13599   */\n      add\n        /* \"#utility.yul\":13573:13599   */\n      swap1\n      pop\n        /* \"#utility.yul\":13609:13680   */\n      tag_476\n        /* \"#utility.yul\":13677:13678   */\n      0x00\n        /* \"#utility.yul\":13666:13675   */\n      dup4\n        /* \"#utility.yul\":13662:13679   */\n      add\n        /* \"#utility.yul\":13653:13659   */\n      dup7\n        /* \"#utility.yul\":13609:13680   */\n      tag_302\n      jump\t// in\n    tag_476:\n        /* \"#utility.yul\":13690:13762   */\n      tag_477\n        /* \"#utility.yul\":13758:13760   */\n      0x20\n        /* \"#utility.yul\":13747:13756   */\n      dup4\n        /* \"#utility.yul\":13743:13761   */\n      add\n        /* \"#utility.yul\":13734:13740   */\n      dup6\n        /* \"#utility.yul\":13690:13762   */\n      tag_303\n      jump\t// in\n    tag_477:\n        /* \"#utility.yul\":13772:13844   */\n      tag_478\n        /* \"#utility.yul\":13840:13842   */\n      0x40\n        /* \"#utility.yul\":13829:13838   */\n      dup4\n        /* \"#utility.yul\":13825:13843   */\n      add\n        /* \"#utility.yul\":13816:13822   */\n      dup5\n        /* \"#utility.yul\":13772:13844   */\n      tag_267\n      jump\t// in\n    tag_478:\n        /* \"#utility.yul\":13409:13851   */\n      swap5\n      swap4\n      pop\n      pop\n      pop\n      pop\n      jump\t// out\n        /* \"#utility.yul\":13857:14165   */\n    tag_304:\n        /* \"#utility.yul\":13919:13923   */\n      0x00\n        /* \"#utility.yul\":14009:14027   */\n      0xffffffffffffffff\n        /* \"#utility.yul\":14001:14007   */\n      dup3\n        /* \"#utility.yul\":13998:14028   */\n      gt\n        /* \"#utility.yul\":13995:14051   */\n      iszero\n      tag_480\n      jumpi\n        /* \"#utility.yul\":14031:14049   */\n      tag_481\n      tag_149\n      jump\t// in\n    tag_481:\n        /* \"#utility.yul\":13995:14051   */\n    tag_480:\n        /* \"#utility.yul\":14069:14098   */\n      tag_482\n        /* \"#utility.yul\":14091:14097   */\n      dup3\n        /* \"#utility.yul\":14069:14098   */\n      tag_276\n      jump\t// in\n    tag_482:\n        /* \"#utility.yul\":14061:14098   */\n      swap1\n      pop\n        /* \"#utility.yul\":14153:14157   */\n      0x20\n        /* \"#utility.yul\":14147:14151   */\n      dup2\n        /* \"#utility.yul\":14143:14158   */\n      add\n        /* \"#utility.yul\":14135:14158   */\n      swap1\n      pop\n        /* \"#utility.yul\":13857:14165   */\n      swap2\n      swap1\n      pop\n      jump\t// out\n        /* \"#utility.yul\":14171:14605   */\n    tag_305:\n        /* \"#utility.yul\":14260:14265   */\n      0x00\n        /* \"#utility.yul\":14285:14351   */\n      tag_484\n        /* \"#utility.yul\":14301:14350   */\n      tag_485\n        /* \"#utility.yul\":14343:14349   */\n      dup5\n        /* \"#utility.yul\":14301:14350   */\n      tag_304\n      jump\t// in\n    tag_485:\n        /* \"#utility.yul\":14285:14351   */\n      tag_285\n      jump\t// in\n    tag_484:\n        /* \"#utility.yul\":14276:14351   */\n      swap1\n      pop\n        /* \"#utility.yul\":14374:14380   */\n      dup3\n        /* \"#utility.yul\":14367:14372   */\n      dup2\n        /* \"#utility.yul\":14360:14381   */\n      mstore\n        /* \"#utility.yul\":14412:14416   */\n      0x20\n        /* \"#utility.yul\":14405:14410   */\n      dup2\n        /* \"#utility.yul\":14401:14417   */\n      add\n        /* \"#utility.yul\":14450:14453   */\n      dup5\n        /* \"#utility.yul\":14441:14447   */\n      dup5\n        /* \"#utility.yul\":14436:14439   */\n      dup5\n        /* \"#utility.yul\":14432:14448   */\n      add\n        /* \"#utility.yul\":14429:14454   */\n      gt\n        /* \"#utility.yul\":14426:14538   */\n      iszero\n      tag_486\n      jumpi\n        /* \"#utility.yul\":14457:14536   */\n      tag_487\n      tag_283\n      jump\t// in\n    tag_487:\n        /* \"#utility.yul\":14426:14538   */\n    tag_486:\n        /* \"#utility.yul\":14547:14599   */\n      tag_488\n        /* \"#utility.yul\":14592:14598   */\n      dup5\n        /* \"#utility.yul\":14587:14590   */\n      dup3\n        /* \"#utility.yul\":14582:14585   */\n      dup6\n        /* \"#utility.yul\":14547:14599   */\n      tag_275\n      jump\t// in\n    tag_488:\n        /* \"#utility.yul\":14266:14605   */\n      pop\n        /* \"#utility.yul\":14171:14605   */\n      swap4\n      swap3\n      pop\n      pop\n      pop\n      jump\t// out\n        /* \"#utility.yul\":14625:14980   */\n    tag_306:\n        /* \"#utility.yul\":14692:14697   */\n      0x00\n        /* \"#utility.yul\":14741:14744   */\n      dup3\n        /* \"#utility.yul\":14734:14738   */\n      0x1f\n        /* \"#utility.yul\":14726:14732   */\n      dup4\n        /* \"#utility.yul\":14722:14739   */\n      add\n        /* \"#utility.yul\":14718:14745   */\n      slt\n        /* \"#utility.yul\":14708:14830   */\n      tag_490\n      jumpi\n        /* \"#utility.yul\":14749:14828   */\n      tag_491\n      tag_282\n      jump\t// in\n    tag_491:\n        /* \"#utility.yul\":14708:14830   */\n    tag_490:\n        /* \"#utility.yul\":14859:14865   */\n      dup2\n        /* \"#utility.yul\":14853:14866   */\n      mload\n        /* \"#utility.yul\":14884:14974   */\n      tag_492\n        /* \"#utility.yul\":14970:14973   */\n      dup5\n        /* \"#utility.yul\":14962:14968   */\n      dup3\n        /* \"#utility.yul\":14955:14959   */\n      0x20\n        /* \"#utility.yul\":14947:14953   */\n      dup7\n        /* \"#utility.yul\":14943:14960   */\n      add\n        /* \"#utility.yul\":14884:14974   */\n      tag_305\n      jump\t// in\n    tag_492:\n        /* \"#utility.yul\":14875:14974   */\n      swap2\n      pop\n        /* \"#utility.yul\":14698:14980   */\n      pop\n        /* \"#utility.yul\":14625:14980   */\n      swap3\n      swap2\n      pop\n      pop\n      jump\t// out\n        /* \"#utility.yul\":14986:15510   */\n    tag_58:\n        /* \"#utility.yul\":15066:15072   */\n      0x00\n        /* \"#utility.yul\":15115:15117   */\n      0x20\n        /* \"#utility.yul\":15103:15112   */\n      dup3\n        /* \"#utility.yul\":15094:15101   */\n      dup5\n        /* \"#utility.yul\":15090:15113   */\n      sub\n        /* \"#utility.yul\":15086:15118   */\n      slt\n        /* \"#utility.yul\":15083:15202   */\n      iszero\n      tag_494\n      jumpi\n        /* \"#utility.yul\":15121:15200   */\n      tag_495\n      tag_269\n      jump\t// in\n    tag_495:\n        /* \"#utility.yul\":15083:15202   */\n    tag_494:\n        /* \"#utility.yul\":15262:15263   */\n      0x00\n        /* \"#utility.yul\":15251:15260   */\n      dup3\n        /* \"#utility.yul\":15247:15264   */\n      add\n        /* \"#utility.yul\":15241:15265   */\n      mload\n        /* \"#utility.yul\":15292:15310   */\n      0xffffffffffffffff\n        /* \"#utility.yul\":15284:15290   */\n      dup2\n        /* \"#utility.yul\":15281:15311   */\n      gt\n        /* \"#utility.yul\":15278:15395   */\n      iszero\n      tag_496\n      jumpi\n        /* \"#utility.yul\":15314:15393   */\n      tag_497\n      tag_270\n      jump\t// in\n    tag_497:\n        /* \"#utility.yul\":15278:15395   */\n    tag_496:\n        /* \"#utility.yul\":15419:15493   */\n      tag_498\n        /* \"#utility.yul\":15485:15492   */\n      dup5\n        /* \"#utility.yul\":15476:15482   */\n      dup3\n        /* \"#utility.yul\":15465:15474   */\n      dup6\n        /* \"#utility.yul\":15461:15483   */\n      add\n        /* \"#utility.yul\":15419:15493   */\n      tag_306\n      jump\t// in\n    tag_498:\n        /* \"#utility.yul\":15409:15493   */\n      swap2\n      pop\n        /* \"#utility.yul\":15212:15503   */\n      pop\n        /* \"#utility.yul\":14986:15510   */\n      swap3\n      swap2\n      pop\n      pop\n      jump\t// out\n        /* \"#utility.yul\":15516:15848   */\n    tag_72:\n        /* \"#utility.yul\":15637:15641   */\n      0x00\n        /* \"#utility.yul\":15675:15677   */\n      0x40\n        /* \"#utility.yul\":15664:15673   */\n      dup3\n        /* \"#utility.yul\":15660:15678   */\n      add\n        /* \"#utility.yul\":15652:15678   */\n      swap1\n      pop\n        /* \"#utility.yul\":15688:15759   */\n      tag_500\n        /* \"#utility.yul\":15756:15757   */\n      0x00\n        /* \"#utility.yul\":15745:15754   */\n      dup4\n        /* \"#utility.yul\":15741:15758   */\n      add\n        /* \"#utility.yul\":15732:15738   */\n      dup6\n        /* \"#utility.yul\":15688:15759   */\n      tag_302\n      jump\t// in\n    tag_500:\n        /* \"#utility.yul\":15769:15841   */\n      tag_501\n        /* \"#utility.yul\":15837:15839   */\n      0x20\n        /* \"#utility.yul\":15826:15835   */\n      dup4\n        /* \"#utility.yul\":15822:15840   */\n      add\n        /* \"#utility.yul\":15813:15819   */\n      dup5\n        /* \"#utility.yul\":15769:15841   */\n      tag_303\n      jump\t// in\n    tag_501:\n        /* \"#utility.yul\":15516:15848   */\n      swap4\n      swap3\n      pop\n      pop\n      pop\n      jump\t// out\n        /* \"#utility.yul\":15854:16175   */\n    tag_307:\n        /* \"#utility.yul\":15941:15945   */\n      0x00\n        /* \"#utility.yul\":16031:16049   */\n      0xffffffffffffffff\n        /* \"#utility.yul\":16023:16029   */\n      dup3\n        /* \"#utility.yul\":16020:16050   */\n      gt\n        /* \"#utility.yul\":16017:16073   */\n      iszero\n      tag_503\n      jumpi\n        /* \"#utility.yul\":16053:16071   */\n      tag_504\n      tag_149\n      jump\t// in\n    tag_504:\n        /* \"#utility.yul\":16017:16073   */\n    tag_503:\n        /* \"#utility.yul\":16103:16107   */\n      0x20\n        /* \"#utility.yul\":16095:16101   */\n      dup3\n        /* \"#utility.yul\":16091:16108   */\n      mul\n        /* \"#utility.yul\":16083:16108   */\n      swap1\n      pop\n        /* \"#utility.yul\":16163:16167   */\n      0x20\n        /* \"#utility.yul\":16157:16161   */\n      dup2\n        /* \"#utility.yul\":16153:16168   */\n      add\n        /* \"#utility.yul\":16145:16168   */\n      swap1\n      pop\n        /* \"#utility.yul\":15854:16175   */\n      swap2\n      swap1\n      pop\n      jump\t// out\n        /* \"#utility.yul\":16181:16298   */\n    tag_308:\n        /* \"#utility.yul\":16290:16291   */\n      0x00\n        /* \"#utility.yul\":16287:16288   */\n      dup1\n        /* \"#utility.yul\":16280:16292   */\n      revert\n        /* \"#utility.yul\":16320:17280   */\n    tag_309:\n        /* \"#utility.yul\":16437:16442   */\n      0x00\n        /* \"#utility.yul\":16462:16553   */\n      tag_507\n        /* \"#utility.yul\":16478:16552   */\n      tag_508\n        /* \"#utility.yul\":16545:16551   */\n      dup5\n        /* \"#utility.yul\":16478:16552   */\n      tag_307\n      jump\t// in\n    tag_508:\n        /* \"#utility.yul\":16462:16553   */\n      tag_285\n      jump\t// in\n    tag_507:\n        /* \"#utility.yul\":16453:16553   */\n      swap1\n      pop\n        /* \"#utility.yul\":16573:16578   */\n      dup1\n        /* \"#utility.yul\":16602:16608   */\n      dup4\n        /* \"#utility.yul\":16595:16600   */\n      dup3\n        /* \"#utility.yul\":16588:16609   */\n      mstore\n        /* \"#utility.yul\":16636:16640   */\n      0x20\n        /* \"#utility.yul\":16629:16634   */\n      dup3\n        /* \"#utility.yul\":16625:16641   */\n      add\n        /* \"#utility.yul\":16618:16641   */\n      swap1\n      pop\n        /* \"#utility.yul\":16689:16693   */\n      0x20\n        /* \"#utility.yul\":16681:16687   */\n      dup5\n        /* \"#utility.yul\":16677:16694   */\n      mul\n        /* \"#utility.yul\":16669:16675   */\n      dup4\n        /* \"#utility.yul\":16665:16695   */\n      add\n        /* \"#utility.yul\":16718:16721   */\n      dup6\n        /* \"#utility.yul\":16710:16716   */\n      dup2\n        /* \"#utility.yul\":16707:16722   */\n      gt\n        /* \"#utility.yul\":16704:16826   */\n      iszero\n      tag_509\n      jumpi\n        /* \"#utility.yul\":16737:16816   */\n      tag_510\n      tag_308\n      jump\t// in\n    tag_510:\n        /* \"#utility.yul\":16704:16826   */\n    tag_509:\n        /* \"#utility.yul\":16852:16858   */\n      dup4\n        /* \"#utility.yul\":16835:17274   */\n    tag_511:\n        /* \"#utility.yul\":16869:16875   */\n      dup2\n        /* \"#utility.yul\":16864:16867   */\n      dup2\n        /* \"#utility.yul\":16861:16876   */\n      lt\n        /* \"#utility.yul\":16835:17274   */\n      iszero\n      tag_513\n      jumpi\n        /* \"#utility.yul\":16951:16954   */\n      dup1\n        /* \"#utility.yul\":16945:16955   */\n      mload\n        /* \"#utility.yul\":16987:17005   */\n      0xffffffffffffffff\n        /* \"#utility.yul\":16974:16985   */\n      dup2\n        /* \"#utility.yul\":16971:17006   */\n      gt\n        /* \"#utility.yul\":16968:17090   */\n      iszero\n      tag_514\n      jumpi\n        /* \"#utility.yul\":17009:17088   */\n      tag_515\n      tag_282\n      jump\t// in\n    tag_515:\n        /* \"#utility.yul\":16968:17090   */\n    tag_514:\n        /* \"#utility.yul\":17133:17144   */\n      dup1\n        /* \"#utility.yul\":17125:17131   */\n      dup7\n        /* \"#utility.yul\":17121:17145   */\n      add\n        /* \"#utility.yul\":17171:17229   */\n      tag_516\n        /* \"#utility.yul\":17225:17228   */\n      dup10\n        /* \"#utility.yul\":17213:17223   */\n      dup3\n        /* \"#utility.yul\":17171:17229   */\n      tag_306\n      jump\t// in\n    tag_516:\n        /* \"#utility.yul\":17166:17169   */\n      dup6\n        /* \"#utility.yul\":17159:17230   */\n      mstore\n        /* \"#utility.yul\":17259:17263   */\n      0x20\n        /* \"#utility.yul\":17254:17257   */\n      dup6\n        /* \"#utility.yul\":17250:17264   */\n      add\n        /* \"#utility.yul\":17243:17264   */\n      swap5\n      pop\n        /* \"#utility.yul\":16911:17274   */\n      pop\n      pop\n        /* \"#utility.yul\":16895:16899   */\n      0x20\n        /* \"#utility.yul\":16890:16893   */\n      dup2\n        /* \"#utility.yul\":16886:16900   */\n      add\n        /* \"#utility.yul\":16879:16900   */\n      swap1\n      pop\n        /* \"#utility.yul\":16835:17274   */\n      jump(tag_511)\n    tag_513:\n        /* \"#utility.yul\":16839:16860   */\n      pop\n        /* \"#utility.yul\":16443:17280   */\n      pop\n      pop\n        /* \"#utility.yul\":16320:17280   */\n      swap4\n      swap3\n      pop\n      pop\n      pop\n      jump\t// out\n        /* \"#utility.yul\":17302:17707   */\n    tag_310:\n        /* \"#utility.yul\":17394:17399   */\n      0x00\n        /* \"#utility.yul\":17443:17446   */\n      dup3\n        /* \"#utility.yul\":17436:17440   */\n      0x1f\n        /* \"#utility.yul\":17428:17434   */\n      dup4\n        /* \"#utility.yul\":17424:17441   */\n      add\n        /* \"#utility.yul\":17420:17447   */\n      slt\n        /* \"#utility.yul\":17410:17532   */\n      tag_518\n      jumpi\n        /* \"#utility.yul\":17451:17530   */\n      tag_519\n      tag_282\n      jump\t// in\n    tag_519:\n        /* \"#utility.yul\":17410:17532   */\n    tag_518:\n        /* \"#utility.yul\":17561:17567   */\n      dup2\n        /* \"#utility.yul\":17555:17568   */\n      mload\n        /* \"#utility.yul\":17586:17701   */\n      tag_520\n        /* \"#utility.yul\":17697:17700   */\n      dup5\n        /* \"#utility.yul\":17689:17695   */\n      dup3\n        /* \"#utility.yul\":17682:17686   */\n      0x20\n        /* \"#utility.yul\":17674:17680   */\n      dup7\n        /* \"#utility.yul\":17670:17687   */\n      add\n        /* \"#utility.yul\":17586:17701   */\n      tag_309\n      jump\t// in\n    tag_520:\n        /* \"#utility.yul\":17577:17701   */\n      swap2\n      pop\n        /* \"#utility.yul\":17400:17707   */\n      pop\n        /* \"#utility.yul\":17302:17707   */\n      swap3\n      swap2\n      pop\n      pop\n      jump\t// out\n        /* \"#utility.yul\":17713:18287   */\n    tag_76:\n        /* \"#utility.yul\":17818:17824   */\n      0x00\n        /* \"#utility.yul\":17867:17869   */\n      0x20\n        /* \"#utility.yul\":17855:17864   */\n      dup3\n        /* \"#utility.yul\":17846:17853   */\n      dup5\n        /* \"#utility.yul\":17842:17865   */\n      sub\n        /* \"#utility.yul\":17838:17870   */\n      slt\n        /* \"#utility.yul\":17835:17954   */\n      iszero\n      tag_522\n      jumpi\n        /* \"#utility.yul\":17873:17952   */\n      tag_523\n      tag_269\n      jump\t// in\n    tag_523:\n        /* \"#utility.yul\":17835:17954   */\n    tag_522:\n        /* \"#utility.yul\":18014:18015   */\n      0x00\n        /* \"#utility.yul\":18003:18012   */\n      dup3\n        /* \"#utility.yul\":17999:18016   */\n      add\n        /* \"#utility.yul\":17993:18017   */\n      mload\n        /* \"#utility.yul\":18044:18062   */\n      0xffffffffffffffff\n        /* \"#utility.yul\":18036:18042   */\n      dup2\n        /* \"#utility.yul\":18033:18063   */\n      gt\n        /* \"#utility.yul\":18030:18147   */\n      iszero\n      tag_524\n      jumpi\n        /* \"#utility.yul\":18066:18145   */\n      tag_525\n      tag_270\n      jump\t// in\n    tag_525:\n        /* \"#utility.yul\":18030:18147   */\n    tag_524:\n        /* \"#utility.yul\":18171:18270   */\n      tag_526\n        /* \"#utility.yul\":18262:18269   */\n      dup5\n        /* \"#utility.yul\":18253:18259   */\n      dup3\n        /* \"#utility.yul\":18242:18251   */\n      dup6\n        /* \"#utility.yul\":18238:18260   */\n      add\n        /* \"#utility.yul\":18171:18270   */\n      tag_310\n      jump\t// in\n    tag_526:\n        /* \"#utility.yul\":18161:18270   */\n      swap2\n      pop\n        /* \"#utility.yul\":17964:18280   */\n      pop\n        /* \"#utility.yul\":17713:18287   */\n      swap3\n      swap2\n      pop\n      pop\n      jump\t// out\n        /* \"#utility.yul\":18293:18473   */\n    tag_311:\n        /* \"#utility.yul\":18341:18418   */\n      0x4e487b7100000000000000000000000000000000000000000000000000000000\n        /* \"#utility.yul\":18338:18339   */\n      0x00\n        /* \"#utility.yul\":18331:18419   */\n      mstore\n        /* \"#utility.yul\":18438:18442   */\n      0x11\n        /* \"#utility.yul\":18435:18436   */\n      0x04\n        /* \"#utility.yul\":18428:18443   */\n      mstore\n        /* \"#utility.yul\":18462:18466   */\n      0x24\n        /* \"#utility.yul\":18459:18460   */\n      0x00\n        /* \"#utility.yul\":18452:18467   */\n      revert\n        /* \"#utility.yul\":18479:18712   */\n    tag_82:\n        /* \"#utility.yul\":18518:18521   */\n      0x00\n        /* \"#utility.yul\":18541:18565   */\n      tag_529\n        /* \"#utility.yul\":18559:18564   */\n      dup3\n        /* \"#utility.yul\":18541:18565   */\n      tag_266\n      jump\t// in\n    tag_529:\n        /* \"#utility.yul\":18532:18565   */\n      swap2\n      pop\n        /* \"#utility.yul\":18587:18653   */\n      0xffffffffffffffffffffffffffffffffffffffffffffffffffffffffffffffff\n        /* \"#utility.yul\":18580:18585   */\n      dup3\n        /* \"#utility.yul\":18577:18654   */\n      sub\n        /* \"#utility.yul\":18574:18677   */\n      tag_530\n      jumpi\n        /* \"#utility.yul\":18657:18675   */\n      tag_531\n      tag_311\n      jump\t// in\n    tag_531:\n        /* \"#utility.yul\":18574:18677   */\n    tag_530:\n        /* \"#utility.yul\":18704:18705   */\n      0x01\n        /* \"#utility.yul\":18697:18702   */\n      dup3\n        /* \"#utility.yul\":18693:18706   */\n      add\n        /* \"#utility.yul\":18686:18706   */\n      swap1\n      pop\n        /* \"#utility.yul\":18479:18712   */\n      swap2\n      swap1\n      pop\n      jump\t// out\n        /* \"#utility.yul\":18718:18861   */\n    tag_312:\n        /* \"#utility.yul\":18775:18780   */\n      0x00\n        /* \"#utility.yul\":18806:18812   */\n      dup2\n        /* \"#utility.yul\":18800:18813   */\n      mload\n        /* \"#utility.yul\":18791:18813   */\n      swap1\n      pop\n        /* \"#utility.yul\":18822:18855   */\n      tag_533\n        /* \"#utility.yul\":18849:18854   */\n      dup2\n        /* \"#utility.yul\":18822:18855   */\n      tag_271\n      jump\t// in\n    tag_533:\n        /* \"#utility.yul\":18718:18861   */\n      swap3\n      swap2\n      pop\n      pop\n      jump\t// out\n        /* \"#utility.yul\":18867:19218   */\n    tag_87:\n        /* \"#utility.yul\":18937:18943   */\n      0x00\n        /* \"#utility.yul\":18986:18988   */\n      0x20\n        /* \"#utility.yul\":18974:18983   */\n      dup3\n        /* \"#utility.yul\":18965:18972   */\n      dup5\n        /* \"#utility.yul\":18961:18984   */\n      sub\n        /* \"#utility.yul\":18957:18989   */\n      slt\n        /* \"#utility.yul\":18954:19073   */\n      iszero\n      tag_535\n      jumpi\n        /* \"#utility.yul\":18992:19071   */\n      tag_536\n      tag_269\n      jump\t// in\n    tag_536:\n        /* \"#utility.yul\":18954:19073   */\n    tag_535:\n        /* \"#utility.yul\":19112:19113   */\n      0x00\n        /* \"#utility.yul\":19137:19201   */\n      tag_537\n        /* \"#utility.yul\":19193:19200   */\n      dup5\n        /* \"#utility.yul\":19184:19190   */\n      dup3\n        /* \"#utility.yul\":19173:19182   */\n      dup6\n        /* \"#utility.yul\":19169:19191   */\n      add\n        /* \"#utility.yul\":19137:19201   */\n      tag_312\n      jump\t// in\n    tag_537:\n        /* \"#utility.yul\":19127:19201   */\n      swap2\n      pop\n        /* \"#utility.yul\":19083:19211   */\n      pop\n        /* \"#utility.yul\":18867:19218   */\n      swap3\n      swap2\n      pop\n      pop\n      jump\t// out\n        /* \"#utility.yul\":19224:19332   */\n    tag_313:\n        /* \"#utility.yul\":19301:19325   */\n      tag_539\n        /* \"#utility.yul\":19319:19324   */\n      dup2\n        /* \"#utility.yul\":19301:19325   */\n      tag_301\n      jump\t// in\n    tag_539:\n        /* \"#utility.yul\":19296:19299   */\n      dup3\n        /* \"#utility.yul\":19289:19326   */\n      mstore\n        /* \"#utility.yul\":19224:19332   */\n      pop\n      pop\n      jump\t// out\n        /* \"#utility.yul\":19412:19761   */\n    tag_314:\n        /* \"#utility.yul\":19567:19571   */\n      0x20\n        /* \"#utility.yul\":19562:19565   */\n      dup3\n        /* \"#utility.yul\":19558:19572   */\n      add\n        /* \"#utility.yul\":19662:19666   */\n      0x00\n        /* \"#utility.yul\":19655:19660   */\n      dup3\n        /* \"#utility.yul\":19651:19667   */\n      add\n        /* \"#utility.yul\":19645:19668   */\n      mload\n        /* \"#utility.yul\":19681:19744   */\n      tag_541\n        /* \"#utility.yul\":19738:19742   */\n      0x00\n        /* \"#utility.yul\":19733:19736   */\n      dup6\n        /* \"#utility.yul\":19729:19743   */\n      add\n        /* \"#utility.yul\":19715:19727   */\n      dup3\n        /* \"#utility.yul\":19681:19744   */\n      tag_313\n      jump\t// in\n    tag_541:\n        /* \"#utility.yul\":19582:19754   */\n      pop\n        /* \"#utility.yul\":19536:19761   */\n      pop\n        /* \"#utility.yul\":19412:19761   */\n      pop\n      pop\n      jump\t// out\n        /* \"#utility.yul\":19767:20105   */\n    tag_89:\n        /* \"#utility.yul\":19918:19922   */\n      0x00\n        /* \"#utility.yul\":19956:19958   */\n      0x20\n        /* \"#utility.yul\":19945:19954   */\n      dup3\n        /* \"#utility.yul\":19941:19959   */\n      add\n        /* \"#utility.yul\":19933:19959   */\n      swap1\n      pop\n        /* \"#utility.yul\":19969:20098   */\n      tag_543\n        /* \"#utility.yul\":20095:20096   */\n      0x00\n        /* \"#utility.yul\":20084:20093   */\n      dup4\n        /* \"#utility.yul\":20080:20097   */\n      add\n        /* \"#utility.yul\":20071:20077   */\n      dup5\n        /* \"#utility.yul\":19969:20098   */\n      tag_314\n      jump\t// in\n    tag_543:\n        /* \"#utility.yul\":19767:20105   */\n      swap3\n      swap2\n      pop\n      pop\n      jump\t// out\n        /* \"#utility.yul\":20111:20521   */\n    tag_98:\n        /* \"#utility.yul\":20151:20158   */\n      0x00\n        /* \"#utility.yul\":20174:20194   */\n      tag_545\n        /* \"#utility.yul\":20192:20193   */\n      dup3\n        /* \"#utility.yul\":20174:20194   */\n      tag_266\n      jump\t// in\n    tag_545:\n        /* \"#utility.yul\":20169:20194   */\n      swap2\n      pop\n        /* \"#utility.yul\":20208:20228   */\n      tag_546\n        /* \"#utility.yul\":20226:20227   */\n      dup4\n        /* \"#utility.yul\":20208:20228   */\n      tag_266\n      jump\t// in\n    tag_546:\n        /* \"#utility.yul\":20203:20228   */\n      swap3\n      pop\n        /* \"#utility.yul\":20263:20264   */\n      dup3\n        /* \"#utility.yul\":20260:20261   */\n      dup3\n        /* \"#utility.yul\":20256:20265   */\n      mul\n        /* \"#utility.yul\":20285:20315   */\n      tag_547\n        /* \"#utility.yul\":20303:20314   */\n      dup2\n        /* \"#utility.yul\":20285:20315   */\n      tag_266\n      jump\t// in\n    tag_547:\n        /* \"#utility.yul\":20274:20315   */\n      swap2\n      pop\n        /* \"#utility.yul\":20464:20465   */\n      dup3\n        /* \"#utility.yul\":20455:20462   */\n      dup3\n        /* \"#utility.yul\":20451:20466   */\n      div\n        /* \"#utility.yul\":20448:20449   */\n      dup5\n        /* \"#utility.yul\":20445:20467   */\n      eq\n        /* \"#utility.yul\":20425:20426   */\n      dup4\n        /* \"#utility.yul\":20418:20427   */\n      iszero\n        /* \"#utility.yul\":20398:20481   */\n      or\n        /* \"#utility.yul\":20375:20514   */\n      tag_548\n      jumpi\n        /* \"#utility.yul\":20494:20512   */\n      tag_549\n      tag_311\n      jump\t// in\n    tag_549:\n        /* \"#utility.yul\":20375:20514   */\n    tag_548:\n        /* \"#utility.yul\":20159:20521   */\n      pop\n        /* \"#utility.yul\":20111:20521   */\n      swap3\n      swap2\n      pop\n      pop\n      jump\t// out\n        /* \"#utility.yul\":20527:20718   */\n    tag_103:\n        /* \"#utility.yul\":20567:20570   */\n      0x00\n        /* \"#utility.yul\":20586:20606   */\n      tag_551\n        /* \"#utility.yul\":20604:20605   */\n      dup3\n        /* \"#utility.yul\":20586:20606   */\n      tag_266\n      jump\t// in\n    tag_551:\n        /* \"#utility.yul\":20581:20606   */\n      swap2\n      pop\n        /* \"#utility.yul\":20620:20640   */\n      tag_552\n        /* \"#utility.yul\":20638:20639   */\n      dup4\n        /* \"#utility.yul\":20620:20640   */\n      tag_266\n      jump\t// in\n    tag_552:\n        /* \"#utility.yul\":20615:20640   */\n      swap3\n      pop\n        /* \"#utility.yul\":20663:20664   */\n      dup3\n        /* \"#utility.yul\":20660:20661   */\n      dup3\n        /* \"#utility.yul\":20656:20665   */\n      add\n        /* \"#utility.yul\":20649:20665   */\n      swap1\n      pop\n        /* \"#utility.yul\":20684:20687   */\n      dup1\n        /* \"#utility.yul\":20681:20682   */\n      dup3\n        /* \"#utility.yul\":20678:20688   */\n      gt\n        /* \"#utility.yul\":20675:20711   */\n      iszero\n      tag_553\n      jumpi\n        /* \"#utility.yul\":20691:20709   */\n      tag_554\n      tag_311\n      jump\t// in\n    tag_554:\n        /* \"#utility.yul\":20675:20711   */\n    tag_553:\n        /* \"#utility.yul\":20527:20718   */\n      swap3\n      swap2\n      pop\n      pop\n      jump\t// out\n        /* \"#utility.yul\":20724:20822   */\n    tag_315:\n        /* \"#utility.yul\":20775:20781   */\n      0x00\n        /* \"#utility.yul\":20809:20814   */\n      dup2\n        /* \"#utility.yul\":20803:20815   */\n      mload\n        /* \"#utility.yul\":20793:20815   */\n      swap1\n      pop\n        /* \"#utility.yul\":20724:20822   */\n      swap2\n      swap1\n      pop\n      jump\t// out\n        /* \"#utility.yul\":20828:20996   */\n    tag_316:\n        /* \"#utility.yul\":20911:20922   */\n      0x00\n        /* \"#utility.yul\":20945:20951   */\n      dup3\n        /* \"#utility.yul\":20940:20943   */\n      dup3\n        /* \"#utility.yul\":20933:20952   */\n      mstore\n        /* \"#utility.yul\":20985:20989   */\n      0x20\n        /* \"#utility.yul\":20980:20983   */\n      dup3\n        /* \"#utility.yul\":20976:20990   */\n      add\n        /* \"#utility.yul\":20961:20990   */\n      swap1\n      pop\n        /* \"#utility.yul\":20828:20996   */\n      swap3\n      swap2\n      pop\n      pop\n      jump\t// out\n        /* \"#utility.yul\":21002:21375   */\n    tag_317:\n        /* \"#utility.yul\":21088:21091   */\n      0x00\n        /* \"#utility.yul\":21116:21154   */\n      tag_558\n        /* \"#utility.yul\":21148:21153   */\n      dup3\n        /* \"#utility.yul\":21116:21154   */\n      tag_315\n      jump\t// in\n    tag_558:\n        /* \"#utility.yul\":21170:21240   */\n      tag_559\n        /* \"#utility.yul\":21233:21239   */\n      dup2\n        /* \"#utility.yul\":21228:21231   */\n      dup6\n        /* \"#utility.yul\":21170:21240   */\n      tag_316\n      jump\t// in\n    tag_559:\n        /* \"#utility.yul\":21163:21240   */\n      swap4\n      pop\n        /* \"#utility.yul\":21249:21314   */\n      tag_560\n        /* \"#utility.yul\":21307:21313   */\n      dup2\n        /* \"#utility.yul\":21302:21305   */\n      dup6\n        /* \"#utility.yul\":21295:21299   */\n      0x20\n        /* \"#utility.yul\":21288:21293   */\n      dup7\n        /* \"#utility.yul\":21284:21300   */\n      add\n        /* \"#utility.yul\":21249:21314   */\n      tag_275\n      jump\t// in\n    tag_560:\n        /* \"#utility.yul\":21339:21368   */\n      tag_561\n        /* \"#utility.yul\":21361:21367   */\n      dup2\n        /* \"#utility.yul\":21339:21368   */\n      tag_276\n      jump\t// in\n    tag_561:\n        /* \"#utility.yul\":21334:21337   */\n      dup5\n        /* \"#utility.yul\":21330:21369   */\n      add\n        /* \"#utility.yul\":21323:21369   */\n      swap2\n      pop\n        /* \"#utility.yul\":21092:21375   */\n      pop\n        /* \"#utility.yul\":21002:21375   */\n      swap3\n      swap2\n      pop\n      pop\n      jump\t// out\n        /* \"#utility.yul\":21381:21690   */\n    tag_120:\n        /* \"#utility.yul\":21492:21496   */\n      0x00\n        /* \"#utility.yul\":21530:21532   */\n      0x20\n        /* \"#utility.yul\":21519:21528   */\n      dup3\n        /* \"#utility.yul\":21515:21533   */\n      add\n        /* \"#utility.yul\":21507:21533   */\n      swap1\n      pop\n        /* \"#utility.yul\":21579:21588   */\n      dup2\n        /* \"#utility.yul\":21573:21577   */\n      dup2\n        /* \"#utility.yul\":21569:21589   */\n      sub\n        /* \"#utility.yul\":21565:21566   */\n      0x00\n        /* \"#utility.yul\":21554:21563   */\n      dup4\n        /* \"#utility.yul\":21550:21567   */\n      add\n        /* \"#utility.yul\":21543:21590   */\n      mstore\n        /* \"#utility.yul\":21607:21683   */\n      tag_563\n        /* \"#utility.yul\":21678:21682   */\n      dup2\n        /* \"#utility.yul\":21669:21675   */\n      dup5\n        /* \"#utility.yul\":21607:21683   */\n      tag_317\n      jump\t// in\n    tag_563:\n        /* \"#utility.yul\":21599:21683   */\n      swap1\n      pop\n        /* \"#utility.yul\":21381:21690   */\n      swap3\n      swap2\n      pop\n      pop\n      jump\t// out\n        /* \"#utility.yul\":21696:21804   */\n    tag_318:\n        /* \"#utility.yul\":21773:21797   */\n      tag_565\n        /* \"#utility.yul\":21791:21796   */\n      dup2\n        /* \"#utility.yul\":21773:21797   */\n      tag_266\n      jump\t// in\n    tag_565:\n        /* \"#utility.yul\":21768:21771   */\n      dup3\n        /* \"#utility.yul\":21761:21798   */\n      mstore\n        /* \"#utility.yul\":21696:21804   */\n      pop\n      pop\n      jump\t// out\n        /* \"#utility.yul\":21810:21968   */\n    tag_319:\n        /* \"#utility.yul\":21883:21894   */\n      0x00\n        /* \"#utility.yul\":21917:21923   */\n      dup3\n        /* \"#utility.yul\":21912:21915   */\n      dup3\n        /* \"#utility.yul\":21905:21924   */\n      mstore\n        /* \"#utility.yul\":21957:21961   */\n      0x20\n        /* \"#utility.yul\":21952:21955   */\n      dup3\n        /* \"#utility.yul\":21948:21962   */\n      add\n        /* \"#utility.yul\":21933:21962   */\n      swap1\n      pop\n        /* \"#utility.yul\":21810:21968   */\n      swap3\n      swap2\n      pop\n      pop\n      jump\t// out\n        /* \"#utility.yul\":21974:22327   */\n    tag_320:\n        /* \"#utility.yul\":22050:22053   */\n      0x00\n        /* \"#utility.yul\":22078:22116   */\n      tag_568\n        /* \"#utility.yul\":22110:22115   */\n      dup3\n        /* \"#utility.yul\":22078:22116   */\n      tag_315\n      jump\t// in\n    tag_568:\n        /* \"#utility.yul\":22132:22192   */\n      tag_569\n        /* \"#utility.yul\":22185:22191   */\n      dup2\n        /* \"#utility.yul\":22180:22183   */\n      dup6\n        /* \"#utility.yul\":22132:22192   */\n      tag_319\n      jump\t// in\n    tag_569:\n        /* \"#utility.yul\":22125:22192   */\n      swap4\n      pop\n        /* \"#utility.yul\":22201:22266   */\n      tag_570\n        /* \"#utility.yul\":22259:22265   */\n      dup2\n        /* \"#utility.yul\":22254:22257   */\n      dup6\n        /* \"#utility.yul\":22247:22251   */\n      0x20\n        /* \"#utility.yul\":22240:22245   */\n      dup7\n        /* \"#utility.yul\":22236:22252   */\n      add\n        /* \"#utility.yul\":22201:22266   */\n      tag_275\n      jump\t// in\n    tag_570:\n        /* \"#utility.yul\":22291:22320   */\n      tag_571\n        /* \"#utility.yul\":22313:22319   */\n      dup2\n        /* \"#utility.yul\":22291:22320   */\n      tag_276\n      jump\t// in\n    tag_571:\n        /* \"#utility.yul\":22286:22289   */\n      dup5\n        /* \"#utility.yul\":22282:22321   */\n      add\n        /* \"#utility.yul\":22275:22321   */\n      swap2\n      pop\n        /* \"#utility.yul\":22054:22327   */\n      pop\n        /* \"#utility.yul\":21974:22327   */\n      swap3\n      swap2\n      pop\n      pop\n      jump\t// out\n        /* \"#utility.yul\":22333:22432   */\n    tag_321:\n        /* \"#utility.yul\":22404:22425   */\n      tag_573\n        /* \"#utility.yul\":22419:22424   */\n      dup2\n        /* \"#utility.yul\":22404:22425   */\n      tag_290\n      jump\t// in\n    tag_573:\n        /* \"#utility.yul\":22399:22402   */\n      dup3\n        /* \"#utility.yul\":22392:22426   */\n      mstore\n        /* \"#utility.yul\":22333:22432   */\n      pop\n      pop\n      jump\t// out\n        /* \"#utility.yul\":22508:23663   */\n    tag_322:\n        /* \"#utility.yul\":22633:22636   */\n      0x00\n        /* \"#utility.yul\":22669:22673   */\n      0xa0\n        /* \"#utility.yul\":22664:22667   */\n      dup4\n        /* \"#utility.yul\":22660:22674   */\n      add\n        /* \"#utility.yul\":22764:22768   */\n      0x00\n        /* \"#utility.yul\":22757:22762   */\n      dup4\n        /* \"#utility.yul\":22753:22769   */\n      add\n        /* \"#utility.yul\":22747:22770   */\n      mload\n        /* \"#utility.yul\":22783:22846   */\n      tag_575\n        /* \"#utility.yul\":22840:22844   */\n      0x00\n        /* \"#utility.yul\":22835:22838   */\n      dup7\n        /* \"#utility.yul\":22831:22845   */\n      add\n        /* \"#utility.yul\":22817:22829   */\n      dup3\n        /* \"#utility.yul\":22783:22846   */\n      tag_313\n      jump\t// in\n    tag_575:\n        /* \"#utility.yul\":22684:22856   */\n      pop\n        /* \"#utility.yul\":22945:22949   */\n      0x20\n        /* \"#utility.yul\":22938:22943   */\n      dup4\n        /* \"#utility.yul\":22934:22950   */\n      add\n        /* \"#utility.yul\":22928:22951   */\n      mload\n        /* \"#utility.yul\":22964:23027   */\n      tag_576\n        /* \"#utility.yul\":23021:23025   */\n      0x20\n        /* \"#utility.yul\":23016:23019   */\n      dup7\n        /* \"#utility.yul\":23012:23026   */\n      add\n        /* \"#utility.yul\":22998:23010   */\n      dup3\n        /* \"#utility.yul\":22964:23027   */\n      tag_318\n      jump\t// in\n    tag_576:\n        /* \"#utility.yul\":22866:23037   */\n      pop\n        /* \"#utility.yul\":23125:23129   */\n      0x40\n        /* \"#utility.yul\":23118:23123   */\n      dup4\n        /* \"#utility.yul\":23114:23130   */\n      add\n        /* \"#utility.yul\":23108:23131   */\n      mload\n        /* \"#utility.yul\":23144:23207   */\n      tag_577\n        /* \"#utility.yul\":23201:23205   */\n      0x40\n        /* \"#utility.yul\":23196:23199   */\n      dup7\n        /* \"#utility.yul\":23192:23206   */\n      add\n        /* \"#utility.yul\":23178:23190   */\n      dup3\n        /* \"#utility.yul\":23144:23207   */\n      tag_313\n      jump\t// in\n    tag_577:\n        /* \"#utility.yul\":23047:23217   */\n      pop\n        /* \"#utility.yul\":23302:23306   */\n      0x60\n        /* \"#utility.yul\":23295:23300   */\n      dup4\n        /* \"#utility.yul\":23291:23307   */\n      add\n        /* \"#utility.yul\":23285:23308   */\n      mload\n        /* \"#utility.yul\":23355:23358   */\n      dup5\n        /* \"#utility.yul\":23349:23353   */\n      dup3\n        /* \"#utility.yul\":23345:23359   */\n      sub\n        /* \"#utility.yul\":23338:23342   */\n      0x60\n        /* \"#utility.yul\":23333:23336   */\n      dup7\n        /* \"#utility.yul\":23329:23343   */\n      add\n        /* \"#utility.yul\":23322:23360   */\n      mstore\n        /* \"#utility.yul\":23381:23452   */\n      tag_578\n        /* \"#utility.yul\":23447:23451   */\n      dup3\n        /* \"#utility.yul\":23433:23445   */\n      dup3\n        /* \"#utility.yul\":23381:23452   */\n      tag_320\n      jump\t// in\n    tag_578:\n        /* \"#utility.yul\":23373:23452   */\n      swap2\n      pop\n        /* \"#utility.yul\":23227:23463   */\n      pop\n        /* \"#utility.yul\":23550:23554   */\n      0x80\n        /* \"#utility.yul\":23543:23548   */\n      dup4\n        /* \"#utility.yul\":23539:23555   */\n      add\n        /* \"#utility.yul\":23533:23556   */\n      mload\n        /* \"#utility.yul\":23569:23626   */\n      tag_579\n        /* \"#utility.yul\":23620:23624   */\n      0x80\n        /* \"#utility.yul\":23615:23618   */\n      dup7\n        /* \"#utility.yul\":23611:23625   */\n      add\n        /* \"#utility.yul\":23597:23609   */\n      dup3\n        /* \"#utility.yul\":23569:23626   */\n      tag_321\n      jump\t// in\n    tag_579:\n        /* \"#utility.yul\":23473:23636   */\n      pop\n        /* \"#utility.yul\":23653:23657   */\n      dup1\n        /* \"#utility.yul\":23646:23657   */\n      swap2\n      pop\n        /* \"#utility.yul\":22638:23663   */\n      pop\n        /* \"#utility.yul\":22508:23663   */\n      swap3\n      swap2\n      pop\n      pop\n      jump\t// out\n        /* \"#utility.yul\":23669:24054   */\n    tag_122:\n        /* \"#utility.yul\":23818:23822   */\n      0x00\n        /* \"#utility.yul\":23856:23858   */\n      0x20\n        /* \"#utility.yul\":23845:23854   */\n      dup3\n        /* \"#utility.yul\":23841:23859   */\n      add\n        /* \"#utility.yul\":23833:23859   */\n      swap1\n      pop\n        /* \"#utility.yul\":23905:23914   */\n      dup2\n        /* \"#utility.yul\":23899:23903   */\n      dup2\n        /* \"#utility.yul\":23895:23915   */\n      sub\n        /* \"#utility.yul\":23891:23892   */\n      0x00\n        /* \"#utility.yul\":23880:23889   */\n      dup4\n        /* \"#utility.yul\":23876:23893   */\n      add\n        /* \"#utility.yul\":23869:23916   */\n      mstore\n        /* \"#utility.yul\":23933:24047   */\n      tag_581\n        /* \"#utility.yul\":24042:24046   */\n      dup2\n        /* \"#utility.yul\":24033:24039   */\n      dup5\n        /* \"#utility.yul\":23933:24047   */\n      tag_322\n      jump\t// in\n    tag_581:\n        /* \"#utility.yul\":23925:24047   */\n      swap1\n      pop\n        /* \"#utility.yul\":23669:24054   */\n      swap3\n      swap2\n      pop\n      pop\n      jump\t// out\n        /* \"#utility.yul\":24060:24240   */\n    tag_130:\n        /* \"#utility.yul\":24108:24185   */\n      0x4e487b7100000000000000000000000000000000000000000000000000000000\n        /* \"#utility.yul\":24105:24106   */\n      0x00\n        /* \"#utility.yul\":24098:24186   */\n      mstore\n        /* \"#utility.yul\":24205:24209   */\n      0x32\n        /* \"#utility.yul\":24202:24203   */\n      0x04\n        /* \"#utility.yul\":24195:24210   */\n      mstore\n        /* \"#utility.yul\":24229:24233   */\n      0x24\n        /* \"#utility.yul\":24226:24227   */\n      0x00\n        /* \"#utility.yul\":24219:24234   */\n      revert\n        /* \"#utility.yul\":24246:24393   */\n    tag_323:\n        /* \"#utility.yul\":24347:24358   */\n      0x00\n        /* \"#utility.yul\":24384:24387   */\n      dup2\n        /* \"#utility.yul\":24369:24387   */\n      swap1\n      pop\n        /* \"#utility.yul\":24246:24393   */\n      swap3\n      swap2\n      pop\n      pop\n      jump\t// out\n        /* \"#utility.yul\":24399:24785   */\n    tag_324:\n        /* \"#utility.yul\":24503:24506   */\n      0x00\n        /* \"#utility.yul\":24531:24569   */\n      tag_585\n        /* \"#utility.yul\":24563:24568   */\n      dup3\n        /* \"#utility.yul\":24531:24569   */\n      tag_315\n      jump\t// in\n    tag_585:\n        /* \"#utility.yul\":24585:24673   */\n      tag_586\n        /* \"#utility.yul\":24666:24672   */\n      dup2\n        /* \"#utility.yul\":24661:24664   */\n      dup6\n        /* \"#utility.yul\":24585:24673   */\n      tag_323\n      jump\t// in\n    tag_586:\n        /* \"#utility.yul\":24578:24673   */\n      swap4\n      pop\n        /* \"#utility.yul\":24682:24747   */\n      tag_587\n        /* \"#utility.yul\":24740:24746   */\n      dup2\n        /* \"#utility.yul\":24735:24738   */\n      dup6\n        /* \"#utility.yul\":24728:24732   */\n      0x20\n        /* \"#utility.yul\":24721:24726   */\n      dup7\n        /* \"#utility.yul\":24717:24733   */\n      add\n        /* \"#utility.yul\":24682:24747   */\n      tag_275\n      jump\t// in\n    tag_587:\n        /* \"#utility.yul\":24772:24778   */\n      dup1\n        /* \"#utility.yul\":24767:24770   */\n      dup5\n        /* \"#utility.yul\":24763:24779   */\n      add\n        /* \"#utility.yul\":24756:24779   */\n      swap2\n      pop\n        /* \"#utility.yul\":24507:24785   */\n      pop\n        /* \"#utility.yul\":24399:24785   */\n      swap3\n      swap2\n      pop\n      pop\n      jump\t// out\n        /* \"#utility.yul\":24791:25218   */\n    tag_136:\n        /* \"#utility.yul\":24967:24970   */\n      0x00\n        /* \"#utility.yul\":24989:25082   */\n      tag_589\n        /* \"#utility.yul\":25078:25081   */\n      dup3\n        /* \"#utility.yul\":25069:25075   */\n      dup6\n        /* \"#utility.yul\":24989:25082   */\n      tag_324\n      jump\t// in\n    tag_589:\n        /* \"#utility.yul\":24982:25082   */\n      swap2\n      pop\n        /* \"#utility.yul\":25099:25192   */\n      tag_590\n        /* \"#utility.yul\":25188:25191   */\n      dup3\n        /* \"#utility.yul\":25179:25185   */\n      dup5\n        /* \"#utility.yul\":25099:25192   */\n      tag_324\n      jump\t// in\n    tag_590:\n        /* \"#utility.yul\":25092:25192   */\n      swap2\n      pop\n        /* \"#utility.yul\":25209:25212   */\n      dup2\n        /* \"#utility.yul\":25202:25212   */\n      swap1\n      pop\n        /* \"#utility.yul\":24791:25218   */\n      swap4\n      swap3\n      pop\n      pop\n      pop\n      jump\t// out\n        /* \"#utility.yul\":25224:25318   */\n    tag_325:\n        /* \"#utility.yul\":25257:25265   */\n      0x00\n        /* \"#utility.yul\":25305:25310   */\n      dup2\n        /* \"#utility.yul\":25301:25303   */\n      0x60\n        /* \"#utility.yul\":25297:25311   */\n      shl\n        /* \"#utility.yul\":25276:25311   */\n      swap1\n      pop\n        /* \"#utility.yul\":25224:25318   */\n      swap2\n      swap1\n      pop\n      jump\t// out\n        /* \"#utility.yul\":25324:25418   */\n    tag_326:\n        /* \"#utility.yul\":25363:25370   */\n      0x00\n        /* \"#utility.yul\":25392:25412   */\n      tag_593\n        /* \"#utility.yul\":25406:25411   */\n      dup3\n        /* \"#utility.yul\":25392:25412   */\n      tag_325\n      jump\t// in\n    tag_593:\n        /* \"#utility.yul\":25381:25412   */\n      swap1\n      pop\n        /* \"#utility.yul\":25324:25418   */\n      swap2\n      swap1\n      pop\n      jump\t// out\n        /* \"#utility.yul\":25424:25524   */\n    tag_327:\n        /* \"#utility.yul\":25463:25470   */\n      0x00\n        /* \"#utility.yul\":25492:25518   */\n      tag_595\n        /* \"#utility.yul\":25512:25517   */\n      dup3\n        /* \"#utility.yul\":25492:25518   */\n      tag_326\n      jump\t// in\n    tag_595:\n        /* \"#utility.yul\":25481:25518   */\n      swap1\n      pop\n        /* \"#utility.yul\":25424:25524   */\n      swap2\n      swap1\n      pop\n      jump\t// out\n        /* \"#utility.yul\":25530:25687   */\n    tag_328:\n        /* \"#utility.yul\":25635:25680   */\n      tag_597\n        /* \"#utility.yul\":25655:25679   */\n      tag_598\n        /* \"#utility.yul\":25673:25678   */\n      dup3\n        /* \"#utility.yul\":25655:25679   */\n      tag_279\n      jump\t// in\n    tag_598:\n        /* \"#utility.yul\":25635:25680   */\n      tag_327\n      jump\t// in\n    tag_597:\n        /* \"#utility.yul\":25630:25633   */\n      dup3\n        /* \"#utility.yul\":25623:25681   */\n      mstore\n        /* \"#utility.yul\":25530:25687   */\n      pop\n      pop\n      jump\t// out\n        /* \"#utility.yul\":25693:25949   */\n    tag_144:\n        /* \"#utility.yul\":25805:25808   */\n      0x00\n        /* \"#utility.yul\":25820:25895   */\n      tag_600\n        /* \"#utility.yul\":25891:25894   */\n      dup3\n        /* \"#utility.yul\":25882:25888   */\n      dup5\n        /* \"#utility.yul\":25820:25895   */\n      tag_328\n      jump\t// in\n    tag_600:\n        /* \"#utility.yul\":25920:25922   */\n      0x14\n        /* \"#utility.yul\":25915:25918   */\n      dup3\n        /* \"#utility.yul\":25911:25923   */\n      add\n        /* \"#utility.yul\":25904:25923   */\n      swap2\n      pop\n        /* \"#utility.yul\":25940:25943   */\n      dup2\n        /* \"#utility.yul\":25933:25943   */\n      swap1\n      pop\n        /* \"#utility.yul\":25693:25949   */\n      swap3\n      swap2\n      pop\n      pop\n      jump\t// out\n        /* \"#utility.yul\":25955:26041   */\n    tag_329:\n        /* \"#utility.yul\":25990:25997   */\n      0x00\n        /* \"#utility.yul\":26030:26034   */\n      0xff\n        /* \"#utility.yul\":26023:26028   */\n      dup3\n        /* \"#utility.yul\":26019:26035   */\n      and\n        /* \"#utility.yul\":26008:26035   */\n      swap1\n      pop\n        /* \"#utility.yul\":25955:26041   */\n      swap2\n      swap1\n      pop\n      jump\t// out\n        /* \"#utility.yul\":26047:26235   */\n    tag_178:\n        /* \"#utility.yul\":26085:26088   */\n      0x00\n        /* \"#utility.yul\":26104:26122   */\n      tag_603\n        /* \"#utility.yul\":26120:26121   */\n      dup3\n        /* \"#utility.yul\":26104:26122   */\n      tag_329\n      jump\t// in\n    tag_603:\n        /* \"#utility.yul\":26099:26122   */\n      swap2\n      pop\n        /* \"#utility.yul\":26136:26154   */\n      tag_604\n        /* \"#utility.yul\":26152:26153   */\n      dup4\n        /* \"#utility.yul\":26136:26154   */\n      tag_329\n      jump\t// in\n    tag_604:\n        /* \"#utility.yul\":26131:26154   */\n      swap3\n      pop\n        /* \"#utility.yul\":26177:26178   */\n      dup3\n        /* \"#utility.yul\":26174:26175   */\n      dup3\n        /* \"#utility.yul\":26170:26179   */\n      add\n        /* \"#utility.yul\":26163:26179   */\n      swap1\n      pop\n        /* \"#utility.yul\":26200:26204   */\n      0xff\n        /* \"#utility.yul\":26195:26198   */\n      dup2\n        /* \"#utility.yul\":26192:26205   */\n      gt\n        /* \"#utility.yul\":26189:26228   */\n      iszero\n      tag_605\n      jumpi\n        /* \"#utility.yul\":26208:26226   */\n      tag_606\n      tag_311\n      jump\t// in\n    tag_606:\n        /* \"#utility.yul\":26189:26228   */\n    tag_605:\n        /* \"#utility.yul\":26047:26235   */\n      swap3\n      swap2\n      pop\n      pop\n      jump\t// out\n        /* \"#utility.yul\":26241:26421   */\n    tag_330:\n        /* \"#utility.yul\":26289:26366   */\n      0x4e487b7100000000000000000000000000000000000000000000000000000000\n        /* \"#utility.yul\":26286:26287   */\n      0x00\n        /* \"#utility.yul\":26279:26367   */\n      mstore\n        /* \"#utility.yul\":26386:26390   */\n      0x12\n        /* \"#utility.yul\":26383:26384   */\n      0x04\n        /* \"#utility.yul\":26376:26391   */\n      mstore\n        /* \"#utility.yul\":26410:26414   */\n      0x24\n        /* \"#utility.yul\":26407:26408   */\n      0x00\n        /* \"#utility.yul\":26400:26415   */\n      revert\n        /* \"#utility.yul\":26427:26612   */\n    tag_185:\n        /* \"#utility.yul\":26467:26468   */\n      0x00\n        /* \"#utility.yul\":26484:26504   */\n      tag_609\n        /* \"#utility.yul\":26502:26503   */\n      dup3\n        /* \"#utility.yul\":26484:26504   */\n      tag_266\n      jump\t// in\n    tag_609:\n        /* \"#utility.yul\":26479:26504   */\n      swap2\n      pop\n        /* \"#utility.yul\":26518:26538   */\n      tag_610\n        /* \"#utility.yul\":26536:26537   */\n      dup4\n        /* \"#utility.yul\":26518:26538   */\n      tag_266\n      jump\t// in\n    tag_610:\n        /* \"#utility.yul\":26513:26538   */\n      swap3\n      pop\n        /* \"#utility.yul\":26557:26558   */\n      dup3\n        /* \"#utility.yul\":26547:26582   */\n      tag_611\n      jumpi\n        /* \"#utility.yul\":26562:26580   */\n      tag_612\n      tag_330\n      jump\t// in\n    tag_612:\n        /* \"#utility.yul\":26547:26582   */\n    tag_611:\n        /* \"#utility.yul\":26604:26605   */\n      dup3\n        /* \"#utility.yul\":26601:26602   */\n      dup3\n        /* \"#utility.yul\":26597:26606   */\n      div\n        /* \"#utility.yul\":26592:26606   */\n      swap1\n      pop\n        /* \"#utility.yul\":26427:26612   */\n      swap3\n      swap2\n      pop\n      pop\n      jump\t// out\n        /* \"#utility.yul\":26618:26812   */\n    tag_200:\n        /* \"#utility.yul\":26658:26662   */\n      0x00\n        /* \"#utility.yul\":26678:26698   */\n      tag_614\n        /* \"#utility.yul\":26696:26697   */\n      dup3\n        /* \"#utility.yul\":26678:26698   */\n      tag_266\n      jump\t// in\n    tag_614:\n        /* \"#utility.yul\":26673:26698   */\n      swap2\n      pop\n        /* \"#utility.yul\":26712:26732   */\n      tag_615\n        /* \"#utility.yul\":26730:26731   */\n      dup4\n        /* \"#utility.yul\":26712:26732   */\n      tag_266\n      jump\t// in\n    tag_615:\n        /* \"#utility.yul\":26707:26732   */\n      swap3\n      pop\n        /* \"#utility.yul\":26756:26757   */\n      dup3\n        /* \"#utility.yul\":26753:26754   */\n      dup3\n        /* \"#utility.yul\":26749:26758   */\n      sub\n        /* \"#utility.yul\":26741:26758   */\n      swap1\n      pop\n        /* \"#utility.yul\":26780:26781   */\n      dup2\n        /* \"#utility.yul\":26774:26778   */\n      dup2\n        /* \"#utility.yul\":26771:26782   */\n      gt\n        /* \"#utility.yul\":26768:26805   */\n      iszero\n      tag_616\n      jumpi\n        /* \"#utility.yul\":26785:26803   */\n      tag_617\n      tag_311\n      jump\t// in\n    tag_617:\n        /* \"#utility.yul\":26768:26805   */\n    tag_616:\n        /* \"#utility.yul\":26618:26812   */\n      swap3\n      swap2\n      pop\n      pop\n      jump\t// out\n        /* \"#utility.yul\":26818:26920   */\n    tag_331:\n        /* \"#utility.yul\":26860:26868   */\n      0x00\n        /* \"#utility.yul\":26907:26912   */\n      dup2\n        /* \"#utility.yul\":26904:26905   */\n      0x01\n        /* \"#utility.yul\":26900:26913   */\n      shr\n        /* \"#utility.yul\":26879:26913   */\n      swap1\n      pop\n        /* \"#utility.yul\":26818:26920   */\n      swap2\n      swap1\n      pop\n      jump\t// out\n        /* \"#utility.yul\":26926:27774   */\n    tag_332:\n        /* \"#utility.yul\":26987:26992   */\n      0x00\n        /* \"#utility.yul\":26994:26998   */\n      dup1\n        /* \"#utility.yul\":27018:27024   */\n      dup3\n        /* \"#utility.yul\":27009:27024   */\n      swap2\n      pop\n        /* \"#utility.yul\":27042:27047   */\n      dup4\n        /* \"#utility.yul\":27033:27047   */\n      swap1\n      pop\n        /* \"#utility.yul\":27056:27768   */\n    tag_620:\n        /* \"#utility.yul\":27077:27078   */\n      0x01\n        /* \"#utility.yul\":27067:27075   */\n      dup6\n        /* \"#utility.yul\":27064:27079   */\n      gt\n        /* \"#utility.yul\":27056:27768   */\n      iszero\n      tag_622\n      jumpi\n        /* \"#utility.yul\":27172:27176   */\n      dup1\n        /* \"#utility.yul\":27167:27170   */\n      dup7\n        /* \"#utility.yul\":27163:27177   */\n      div\n        /* \"#utility.yul\":27157:27161   */\n      dup2\n        /* \"#utility.yul\":27154:27178   */\n      gt\n        /* \"#utility.yul\":27151:27201   */\n      iszero\n      tag_623\n      jumpi\n        /* \"#utility.yul\":27181:27199   */\n      tag_624\n      tag_311\n      jump\t// in\n    tag_624:\n        /* \"#utility.yul\":27151:27201   */\n    tag_623:\n        /* \"#utility.yul\":27231:27232   */\n      0x01\n        /* \"#utility.yul\":27221:27229   */\n      dup6\n        /* \"#utility.yul\":27217:27233   */\n      and\n        /* \"#utility.yul\":27214:27665   */\n      iszero\n      tag_625\n      jumpi\n        /* \"#utility.yul\":27646:27650   */\n      dup1\n        /* \"#utility.yul\":27639:27644   */\n      dup3\n        /* \"#utility.yul\":27635:27651   */\n      mul\n        /* \"#utility.yul\":27626:27651   */\n      swap2\n      pop\n        /* \"#utility.yul\":27214:27665   */\n    tag_625:\n        /* \"#utility.yul\":27696:27700   */\n      dup1\n        /* \"#utility.yul\":27690:27694   */\n      dup2\n        /* \"#utility.yul\":27686:27701   */\n      mul\n        /* \"#utility.yul\":27678:27701   */\n      swap1\n      pop\n        /* \"#utility.yul\":27726:27758   */\n      tag_626\n        /* \"#utility.yul\":27749:27757   */\n      dup6\n        /* \"#utility.yul\":27726:27758   */\n      tag_331\n      jump\t// in\n    tag_626:\n        /* \"#utility.yul\":27714:27758   */\n      swap5\n      pop\n        /* \"#utility.yul\":27056:27768   */\n      jump(tag_620)\n    tag_622:\n        /* \"#utility.yul\":26926:27774   */\n      swap5\n      pop\n      swap5\n      swap3\n      pop\n      pop\n      pop\n      jump\t// out\n        /* \"#utility.yul\":27780:28853   */\n    tag_333:\n        /* \"#utility.yul\":27834:27839   */\n      0x00\n        /* \"#utility.yul\":28025:28033   */\n      dup3\n        /* \"#utility.yul\":28015:28055   */\n      tag_628\n      jumpi\n        /* \"#utility.yul\":28046:28047   */\n      0x01\n        /* \"#utility.yul\":28037:28047   */\n      swap1\n      pop\n        /* \"#utility.yul\":28048:28053   */\n      jump(tag_627)\n        /* \"#utility.yul\":28015:28055   */\n    tag_628:\n        /* \"#utility.yul\":28074:28078   */\n      dup2\n        /* \"#utility.yul\":28064:28100   */\n      tag_629\n      jumpi\n        /* \"#utility.yul\":28091:28092   */\n      0x00\n        /* \"#utility.yul\":28082:28092   */\n      swap1\n      pop\n        /* \"#utility.yul\":28093:28098   */\n      jump(tag_627)\n        /* \"#utility.yul\":28064:28100   */\n    tag_629:\n        /* \"#utility.yul\":28160:28164   */\n      dup2\n        /* \"#utility.yul\":28208:28209   */\n      0x01\n        /* \"#utility.yul\":28203:28230   */\n      dup2\n      eq\n      tag_631\n      jumpi\n        /* \"#utility.yul\":28244:28245   */\n      0x02\n        /* \"#utility.yul\":28239:28430   */\n      dup2\n      eq\n      tag_632\n      jumpi\n        /* \"#utility.yul\":28153:28430   */\n      jump(tag_630)\n        /* \"#utility.yul\":28203:28230   */\n    tag_631:\n        /* \"#utility.yul\":28221:28222   */\n      0x01\n        /* \"#utility.yul\":28212:28222   */\n      swap2\n      pop\n        /* \"#utility.yul\":28223:28228   */\n      pop\n      jump(tag_627)\n        /* \"#utility.yul\":28239:28430   */\n    tag_632:\n        /* \"#utility.yul\":28284:28287   */\n      0xff\n        /* \"#utility.yul\":28274:28282   */\n      dup5\n        /* \"#utility.yul\":28271:28288   */\n      gt\n        /* \"#utility.yul\":28268:28311   */\n      iszero\n      tag_633\n      jumpi\n        /* \"#utility.yul\":28291:28309   */\n      tag_634\n      tag_311\n      jump\t// in\n    tag_634:\n        /* \"#utility.yul\":28268:28311   */\n    tag_633:\n        /* \"#utility.yul\":28340:28348   */\n      dup4\n        /* \"#utility.yul\":28337:28338   */\n      0x02\n        /* \"#utility.yul\":28333:28349   */\n      exp\n        /* \"#utility.yul\":28324:28349   */\n      swap2\n      pop\n        /* \"#utility.yul\":28375:28378   */\n      dup5\n        /* \"#utility.yul\":28368:28373   */\n      dup3\n        /* \"#utility.yul\":28365:28379   */\n      gt\n        /* \"#utility.yul\":28362:28402   */\n      iszero\n      tag_635\n      jumpi\n        /* \"#utility.yul\":28382:28400   */\n      tag_636\n      tag_311\n      jump\t// in\n    tag_636:\n        /* \"#utility.yul\":28362:28402   */\n    tag_635:\n        /* \"#utility.yul\":28415:28420   */\n      pop\n      jump(tag_627)\n        /* \"#utility.yul\":28153:28430   */\n    tag_630:\n      pop\n        /* \"#utility.yul\":28539:28541   */\n      0x20\n        /* \"#utility.yul\":28529:28537   */\n      dup4\n        /* \"#utility.yul\":28526:28542   */\n      lt\n        /* \"#utility.yul\":28520:28523   */\n      0x0133\n        /* \"#utility.yul\":28514:28518   */\n      dup4\n        /* \"#utility.yul\":28511:28524   */\n      lt\n        /* \"#utility.yul\":28507:28543   */\n      and\n        /* \"#utility.yul\":28489:28491   */\n      0x4e\n        /* \"#utility.yul\":28479:28487   */\n      dup5\n        /* \"#utility.yul\":28476:28492   */\n      lt\n        /* \"#utility.yul\":28471:28473   */\n      0x0b\n        /* \"#utility.yul\":28465:28469   */\n      dup5\n        /* \"#utility.yul\":28462:28474   */\n      lt\n        /* \"#utility.yul\":28458:28493   */\n      and\n        /* \"#utility.yul\":28442:28553   */\n      or\n        /* \"#utility.yul\":28439:28685   */\n      iszero\n      tag_637\n      jumpi\n        /* \"#utility.yul\":28595:28603   */\n      dup3\n        /* \"#utility.yul\":28589:28593   */\n      dup3\n        /* \"#utility.yul\":28585:28604   */\n      exp\n        /* \"#utility.yul\":28576:28604   */\n      swap1\n      pop\n        /* \"#utility.yul\":28630:28633   */\n      dup4\n        /* \"#utility.yul\":28623:28628   */\n      dup2\n        /* \"#utility.yul\":28620:28634   */\n      gt\n        /* \"#utility.yul\":28617:28657   */\n      iszero\n      tag_638\n      jumpi\n        /* \"#utility.yul\":28637:28655   */\n      tag_639\n      tag_311\n      jump\t// in\n    tag_639:\n        /* \"#utility.yul\":28617:28657   */\n    tag_638:\n        /* \"#utility.yul\":28670:28675   */\n      jump(tag_627)\n        /* \"#utility.yul\":28439:28685   */\n    tag_637:\n        /* \"#utility.yul\":28710:28752   */\n      tag_640\n        /* \"#utility.yul\":28748:28751   */\n      dup5\n        /* \"#utility.yul\":28738:28746   */\n      dup5\n        /* \"#utility.yul\":28732:28736   */\n      dup5\n        /* \"#utility.yul\":28729:28730   */\n      0x01\n        /* \"#utility.yul\":28710:28752   */\n      tag_332\n      jump\t// in\n    tag_640:\n        /* \"#utility.yul\":28695:28752   */\n      swap3\n      pop\n      swap1\n      pop\n        /* \"#utility.yul\":28784:28788   */\n      dup2\n        /* \"#utility.yul\":28779:28782   */\n      dup5\n        /* \"#utility.yul\":28775:28789   */\n      div\n        /* \"#utility.yul\":28768:28773   */\n      dup2\n        /* \"#utility.yul\":28765:28790   */\n      gt\n        /* \"#utility.yul\":28762:28813   */\n      iszero\n      tag_641\n      jumpi\n        /* \"#utility.yul\":28793:28811   */\n      tag_642\n      tag_311\n      jump\t// in\n    tag_642:\n        /* \"#utility.yul\":28762:28813   */\n    tag_641:\n        /* \"#utility.yul\":28842:28846   */\n      dup2\n        /* \"#utility.yul\":28835:28840   */\n      dup2\n        /* \"#utility.yul\":28831:28847   */\n      mul\n        /* \"#utility.yul\":28822:28847   */\n      swap1\n      pop\n        /* \"#utility.yul\":27780:28853   */\n    tag_627:\n      swap4\n      swap3\n      pop\n      pop\n      pop\n      jump\t// out\n        /* \"#utility.yul\":28859:29144   */\n    tag_202:\n        /* \"#utility.yul\":28919:28924   */\n      0x00\n        /* \"#utility.yul\":28943:28966   */\n      tag_644\n        /* \"#utility.yul\":28961:28965   */\n      dup3\n        /* \"#utility.yul\":28943:28966   */\n      tag_266\n      jump\t// in\n    tag_644:\n        /* \"#utility.yul\":28935:28966   */\n      swap2\n      pop\n        /* \"#utility.yul\":28987:29014   */\n      tag_645\n        /* \"#utility.yul\":29005:29013   */\n      dup4\n        /* \"#utility.yul\":28987:29014   */\n      tag_266\n      jump\t// in\n    tag_645:\n        /* \"#utility.yul\":28975:29014   */\n      swap3\n      pop\n        /* \"#utility.yul\":29033:29137   */\n      tag_646\n        /* \"#utility.yul\":29070:29136   */\n      0xffffffffffffffffffffffffffffffffffffffffffffffffffffffffffffffff\n        /* \"#utility.yul\":29060:29068   */\n      dup5\n        /* \"#utility.yul\":29054:29058   */\n      dup5\n        /* \"#utility.yul\":29033:29137   */\n      tag_333\n      jump\t// in\n    tag_646:\n        /* \"#utility.yul\":29024:29137   */\n      swap1\n      pop\n        /* \"#utility.yul\":28859:29144   */\n      swap3\n      swap2\n      pop\n      pop\n      jump\t// out\n        /* \"#utility.yul\":29150:29326   */\n    tag_205:\n        /* \"#utility.yul\":29182:29183   */\n      0x00\n        /* \"#utility.yul\":29199:29219   */\n      tag_648\n        /* \"#utility.yul\":29217:29218   */\n      dup3\n        /* \"#utility.yul\":29199:29219   */\n      tag_266\n      jump\t// in\n    tag_648:\n        /* \"#utility.yul\":29194:29219   */\n      swap2\n      pop\n        /* \"#utility.yul\":29233:29253   */\n      tag_649\n        /* \"#utility.yul\":29251:29252   */\n      dup4\n        /* \"#utility.yul\":29233:29253   */\n      tag_266\n      jump\t// in\n    tag_649:\n        /* \"#utility.yul\":29228:29253   */\n      swap3\n      pop\n        /* \"#utility.yul\":29272:29273   */\n      dup3\n        /* \"#utility.yul\":29262:29297   */\n      tag_650\n      jumpi\n        /* \"#utility.yul\":29277:29295   */\n      tag_651\n      tag_330\n      jump\t// in\n    tag_651:\n        /* \"#utility.yul\":29262:29297   */\n    tag_650:\n        /* \"#utility.yul\":29318:29319   */\n      dup3\n        /* \"#utility.yul\":29315:29316   */\n      dup3\n        /* \"#utility.yul\":29311:29320   */\n      mod\n        /* \"#utility.yul\":29306:29320   */\n      swap1\n      pop\n        /* \"#utility.yul\":29150:29326   */\n      swap3\n      swap2\n      pop\n      pop\n      jump\t// out\n        /* \"#utility.yul\":29332:29411   */\n    tag_334:\n        /* \"#utility.yul\":29371:29378   */\n      0x00\n        /* \"#utility.yul\":29400:29405   */\n      dup2\n        /* \"#utility.yul\":29389:29405   */\n      swap1\n      pop\n        /* \"#utility.yul\":29332:29411   */\n      swap2\n      swap1\n      pop\n      jump\t// out\n        /* \"#utility.yul\":29417:29574   */\n    tag_335:\n        /* \"#utility.yul\":29522:29567   */\n      tag_654\n        /* \"#utility.yul\":29542:29566   */\n      tag_655\n        /* \"#utility.yul\":29560:29565   */\n      dup3\n        /* \"#utility.yul\":29542:29566   */\n      tag_266\n      jump\t// in\n    tag_655:\n        /* \"#utility.yul\":29522:29567   */\n      tag_334\n      jump\t// in\n    tag_654:\n        /* \"#utility.yul\":29517:29520   */\n      dup3\n        /* \"#utility.yul\":29510:29568   */\n      mstore\n        /* \"#utility.yul\":29417:29574   */\n      pop\n      pop\n      jump\t// out\n        /* \"#utility.yul\":29580:29836   */\n    tag_211:\n        /* \"#utility.yul\":29692:29695   */\n      0x00\n        /* \"#utility.yul\":29707:29782   */\n      tag_657\n        /* \"#utility.yul\":29778:29781   */\n      dup3\n        /* \"#utility.yul\":29769:29775   */\n      dup5\n        /* \"#utility.yul\":29707:29782   */\n      tag_335\n      jump\t// in\n    tag_657:\n        /* \"#utility.yul\":29807:29809   */\n      0x20\n        /* \"#utility.yul\":29802:29805   */\n      dup3\n        /* \"#utility.yul\":29798:29810   */\n      add\n        /* \"#utility.yul\":29791:29810   */\n      swap2\n      pop\n        /* \"#utility.yul\":29827:29830   */\n      dup2\n        /* \"#utility.yul\":29820:29830   */\n      swap1\n      pop\n        /* \"#utility.yul\":29580:29836   */\n      swap3\n      swap2\n      pop\n      pop\n      jump\t// out\n\n    auxdata: 0xa2646970667358221220e56966b6ff129ca969c5e5c8543a774a50bb1a026d873ac465bfcb75bfbe2f9864736f6c634300081a0033\n}\n",
				"bytecode": {
					"linkReferences": {},
					"object": "608060405264012a05f2005f556203d0906001555f6002553480156021575f80fd5b506120b68061002f5f395ff3fe608060405260043610610073575f3560e01c8063c6b4a8f71161004d578063c6b4a8f71461015a578063dbe637c614610184578063e6bdb7d6146101ac578063ecf4ec57146101c2576100ca565b806332398d50146100ce578063681face91461010a57806394e375dd14610132576100ca565b366100ca573373ffffffffffffffffffffffffffffffffffffffff167f90890809c654f11d6e72a28fa60149770a0d11ec6c92319d6ceb2bb0a4ea1a1534476040516100c092919061111e565b60405180910390a2005b5f80fd5b3480156100d9575f80fd5b506100f460048036038101906100ef9190611180565b6101fe565b604051610101919061121b565b60405180910390f35b348015610115575f80fd5b50610130600480360381019061012b91906113c1565b6102bc565b005b34801561013d575f80fd5b50610158600480360381019061015391906114af565b610336565b005b348015610165575f80fd5b5061016e6103b0565b60405161017b919061167f565b60405180910390f35b34801561018f575f80fd5b506101aa60048036038101906101a5919061169f565b61046a565b005b3480156101b7575f80fd5b506101c06104fd565b005b3480156101cd575f80fd5b506101e860048036038101906101e3919061171f565b610635565b6040516101f59190611766565b60405180910390f35b6060738f309c9550d0d69c3f9b8d7bcdc7c93b05cd089e73ffffffffffffffffffffffffffffffffffffffff1663187e58187fe146c2986893c43af5ff396310220be92058fb9f4ce76b929b80ef0d5307100a5f1b30856040518463ffffffff1660e01b8152600401610273939291906117a6565b5f60405180830381865afa15801561028d573d5f803e3d5ffd5b505050506040513d5f823e3d601f19601f820116820180604052508101906102b59190611879565b9050919050565b5f6102c68261075f565b90505f6102d78487878b8b87610771565b905061032b7fe146c2986893c43af5ff396310220be92058fb9f4ce76b929b80ef0d5307100a5f1b8a7fafa90c317deacd3d68f330a30f96e4fa7736e35e8d1426b2e1b2c04bce1c2fb75f1b8460016107e4565b505050505050505050565b5f6103408361075f565b90505f6103518588888c8c87610771565b90506103a47fe146c2986893c43af5ff396310220be92058fb9f4ce76b929b80ef0d5307100a5f1b8b7fafa90c317deacd3d68f330a30f96e4fa7736e35e8d1426b2e1b2c04bce1c2fb75f1b84876107e4565b50505050505050505050565b6060738f309c9550d0d69c3f9b8d7bcdc7c93b05cd089e73ffffffffffffffffffffffffffffffffffffffff1663a11a572d7fe146c2986893c43af5ff396310220be92058fb9f4ce76b929b80ef0d5307100a5f1b306040518363ffffffff1660e01b81526004016104239291906118c0565b5f60405180830381865afa15801561043d573d5f803e3d5ffd5b505050506040513d5f823e3d601f19601f8201168201806040525081019061046591906119c9565b905090565b5f6104748261075f565b90505f61048a6002545f54600154888887610771565b90506104de7fe146c2986893c43af5ff396310220be92058fb9f4ce76b929b80ef0d5307100a5f1b877fafa90c317deacd3d68f330a30f96e4fa7736e35e8d1426b2e1b2c04bce1c2fb75f1b8460016107e4565b60025f8154809291906104f090611a3d565b9190505550505050505050565b5f738f309c9550d0d69c3f9b8d7bcdc7c93b05cd089e73ffffffffffffffffffffffffffffffffffffffff166315e812ad6040518163ffffffff1660e01b8152600401602060405180830381865afa15801561055b573d5f803e3d5ffd5b505050506040513d601f19601f8201168201806040525081019061057f9190611a98565b90505f60405180602001604052807fe146c2986893c43af5ff396310220be92058fb9f4ce76b929b80ef0d5307100a5f1b8152509050738f309c9550d0d69c3f9b8d7bcdc7c93b05cd089e73ffffffffffffffffffffffffffffffffffffffff1663331eba8283836040518363ffffffff1660e01b81526004016106039190611aec565b5f604051808303818588803b15801561061a575f80fd5b505af115801561062c573d5f803e3d5ffd5b50505050505050565b5f80738f309c9550d0d69c3f9b8d7bcdc7c93b05cd089e73ffffffffffffffffffffffffffffffffffffffff1663fc0438306040518163ffffffff1660e01b8152600401602060405180830381865afa158015610694573d5f803e3d5ffd5b505050506040513d601f19601f820116820180604052508101906106b89190611a98565b83516106c49190611b05565b90505f81738f309c9550d0d69c3f9b8d7bcdc7c93b05cd089e73ffffffffffffffffffffffffffffffffffffffff166315e812ad6040518163ffffffff1660e01b8152600401602060405180830381865afa158015610725573d5f803e3d5ffd5b505050506040513d601f19601f820116820180604052508101906107499190611a98565b6107539190611b46565b90508092505050919050565b606061076a826108c0565b9050919050565b60605f61077d8861093d565b90505f6107898861093d565b90505f6107958861093d565b90505f6107b78873ffffffffffffffffffffffffffffffffffffffff16610957565b90505f6107c38861093d565b90506107d385858585858c610988565b955050505050509695505050505050565b5f61080d836040516020016107f99190611bcb565b604051602081830303815290604052610635565b90505f6040518060a001604052808881526020018781526020018681526020018581526020018415158152509050738f309c9550d0d69c3f9b8d7bcdc7c93b05cd089e73ffffffffffffffffffffffffffffffffffffffff166393f874c483836040518363ffffffff1660e01b81526004016108899190611cc4565b5f604051808303818588803b1580156108a0575f80fd5b505af11580156108b2573d5f803e3d5ffd5b505050505050505050505050565b606080600183511480156108f757506080835f815181106108e4576108e3611ce4565b5b602001015160f81c60f81b60f81c60ff16105b1561090457829050610934565b61091083516080610b1e565b83604051602001610922929190611d4b565b60405160208183030381529060405290505b80915050919050565b606061095061094b83610d63565b6108c0565b9050919050565b60606109818260405160200161096d9190611db3565b6040516020818303038152906040526108c0565b9050919050565b60605f6109945f61093d565b90505f600967ffffffffffffffff8111156109b2576109b161129d565b5b6040519080825280602002602001820160405280156109e557816020015b60608152602001906001900390816109d05790505b50905088815f815181106109fc576109fb611ce4565b5b60200260200101819052508781600181518110610a1c57610a1b611ce4565b5b60200260200101819052508681600281518110610a3c57610a3b611ce4565b5b60200260200101819052508581600381518110610a5c57610a5b611ce4565b5b60200260200101819052508481600481518110610a7c57610a7b611ce4565b5b60200260200101819052508381600581518110610a9c57610a9b611ce4565b5b60200260200101819052508181600681518110610abc57610abb611ce4565b5b60200260200101819052508181600781518110610adc57610adb611ce4565b5b60200260200101819052508181600881518110610afc57610afb611ce4565b5b6020026020010181905250610b1081610ed4565b925050509695505050505050565b6060806038841015610bcf57600167ffffffffffffffff811115610b4557610b4461129d565b5b6040519080825280601f01601f191660200182016040528015610b775781602001600182028036833780820191505090505b5090508284610b869190611dd9565b60f81b815f81518110610b9c57610b9b611ce4565b5b60200101907effffffffffffffffffffffffffffffffffffffffffffffffffffffffffffff191690815f1a905350610d59565b5f80600190505b5f8187610be39190611e3a565b14610c0b578180610bf390611a3d565b92505061010081610c049190611b05565b9050610bd6565b600182610c189190611b46565b67ffffffffffffffff811115610c3157610c3061129d565b5b6040519080825280601f01601f191660200182016040528015610c635781602001600182028036833780820191505090505b50925060378583610c749190611dd9565b610c7e9190611dd9565b60f81b835f81518110610c9457610c93611ce4565b5b60200101907effffffffffffffffffffffffffffffffffffffffffffffffffffffffffffff191690815f1a905350600190505b818111610d56576101008183610cdd9190611e6a565b610100610cea9190611fcc565b87610cf59190611e3a565b610cff9190612016565b60f81b838281518110610d1557610d14611ce4565b5b60200101907effffffffffffffffffffffffffffffffffffffffffffffffffffffffffffff191690815f1a9053508080610d4e90611a3d565b915050610cc7565b50505b8091505092915050565b60605f82604051602001610d779190612066565b60405160208183030381529060405290505f5b6020811015610de9575f60f81b828281518110610daa57610da9611ce4565b5b602001015160f81c60f81b7effffffffffffffffffffffffffffffffffffffffffffffffffffffffffffff191603610de9578080600101915050610d8a565b5f816020610df79190611e6a565b67ffffffffffffffff811115610e1057610e0f61129d565b5b6040519080825280601f01601f191660200182016040528015610e425781602001600182028036833780820191505090505b5090505f5b8151811015610ec857838380610e5c90611a3d565b945081518110610e6f57610e6e611ce4565b5b602001015160f81c60f81b828281518110610e8d57610e8c611ce4565b5b60200101907effffffffffffffffffffffffffffffffffffffffffffffffffffffffffffff191690815f1a9053508080600101915050610e47565b50809350505050919050565b60605f610ee083610f17565b9050610eee815160c0610b1e565b81604051602001610f00929190611d4b565b604051602081830303815290604052915050919050565b60605f825103610f75575f67ffffffffffffffff811115610f3b57610f3a61129d565b5b6040519080825280601f01601f191660200182016040528015610f6d5781602001600182028036833780820191505090505b50905061108f565b5f805f90505b8351811015610fba57838181518110610f9757610f96611ce4565b5b60200260200101515182610fab9190611b46565b91508080600101915050610f7b565b5f8267ffffffffffffffff811115610fd557610fd461129d565b5b6040519080825280601f01601f1916602001820160405280156110075781602001600182028036833780820191505090505b5090505f6020820190505f92505b8551831015611087575f86848151811061103257611031611ce4565b5b602002602001015190505f60208201905061104f83828451611094565b87858151811061106257611061611ce4565b5b602002602001015151836110769190611b46565b925050508280600101935050611015565b819450505050505b919050565b5f8390505f8390505f8390505b602081106110df57815183526020836110ba9190611b46565b92506020826110c99190611b46565b91506020816110d89190611e6a565b90506110a1565b5f6001826020036101000a0390508019835116818551168181178652505050505050505050565b5f819050919050565b61111881611106565b82525050565b5f6040820190506111315f83018561110f565b61113e602083018461110f565b9392505050565b5f604051905090565b5f80fd5b5f80fd5b61115f81611106565b8114611169575f80fd5b50565b5f8135905061117a81611156565b92915050565b5f602082840312156111955761119461114e565b5b5f6111a28482850161116c565b91505092915050565b5f81519050919050565b5f82825260208201905092915050565b8281835e5f83830152505050565b5f601f19601f8301169050919050565b5f6111ed826111ab565b6111f781856111b5565b93506112078185602086016111c5565b611210816111d3565b840191505092915050565b5f6020820190508181035f83015261123381846111e3565b905092915050565b5f73ffffffffffffffffffffffffffffffffffffffff82169050919050565b5f6112648261123b565b9050919050565b6112748161125a565b811461127e575f80fd5b50565b5f8135905061128f8161126b565b92915050565b5f80fd5b5f80fd5b7f4e487b71000000000000000000000000000000000000000000000000000000005f52604160045260245ffd5b6112d3826111d3565b810181811067ffffffffffffffff821117156112f2576112f161129d565b5b80604052505050565b5f611304611145565b905061131082826112ca565b919050565b5f67ffffffffffffffff82111561132f5761132e61129d565b5b611338826111d3565b9050602081019050919050565b828183375f83830152505050565b5f61136561136084611315565b6112fb565b90508281526020810184848401111561138157611380611299565b5b61138c848285611345565b509392505050565b5f82601f8301126113a8576113a7611295565b5b81356113b8848260208601611353565b91505092915050565b5f805f805f805f60e0888a0312156113dc576113db61114e565b5b5f6113e98a828b0161116c565b97505060206113fa8a828b01611281565b965050604061140b8a828b0161116c565b955050606061141c8a828b0161116c565b945050608061142d8a828b0161116c565b93505060a061143e8a828b0161116c565b92505060c088013567ffffffffffffffff81111561145f5761145e611152565b5b61146b8a828b01611394565b91505092959891949750929550565b5f8115159050919050565b61148e8161147a565b8114611498575f80fd5b50565b5f813590506114a981611485565b92915050565b5f805f805f805f80610100898b0312156114cc576114cb61114e565b5b5f6114d98b828c0161116c565b98505060206114ea8b828c01611281565b97505060406114fb8b828c0161116c565b965050606061150c8b828c0161116c565b955050608061151d8b828c0161116c565b94505060a061152e8b828c0161116c565b93505060c089013567ffffffffffffffff81111561154f5761154e611152565b5b61155b8b828c01611394565b92505060e061156c8b828c0161149b565b9150509295985092959890939650565b5f81519050919050565b5f82825260208201905092915050565b5f819050602082019050919050565b5f82825260208201905092915050565b5f6115bf826111ab565b6115c981856115a5565b93506115d98185602086016111c5565b6115e2816111d3565b840191505092915050565b5f6115f883836115b5565b905092915050565b5f602082019050919050565b5f6116168261157c565b6116208185611586565b93508360208202850161163285611596565b805f5b8581101561166d578484038952815161164e85826115ed565b945061165983611600565b925060208a01995050600181019050611635565b50829750879550505050505092915050565b5f6020820190508181035f830152611697818461160c565b905092915050565b5f805f80608085870312156116b7576116b661114e565b5b5f6116c48782880161116c565b94505060206116d587828801611281565b93505060406116e68782880161116c565b925050606085013567ffffffffffffffff81111561170757611706611152565b5b61171387828801611394565b91505092959194509250565b5f602082840312156117345761173361114e565b5b5f82013567ffffffffffffffff81111561175157611750611152565b5b61175d84828501611394565b91505092915050565b5f6020820190506117795f83018461110f565b92915050565b5f819050919050565b6117918161177f565b82525050565b6117a08161125a565b82525050565b5f6060820190506117b95f830186611788565b6117c66020830185611797565b6117d3604083018461110f565b949350505050565b5f67ffffffffffffffff8211156117f5576117f461129d565b5b6117fe826111d3565b9050602081019050919050565b5f61181d611818846117db565b6112fb565b90508281526020810184848401111561183957611838611299565b5b6118448482856111c5565b509392505050565b5f82601f8301126118605761185f611295565b5b815161187084826020860161180b565b91505092915050565b5f6020828403121561188e5761188d61114e565b5b5f82015167ffffffffffffffff8111156118ab576118aa611152565b5b6118b78482850161184c565b91505092915050565b5f6040820190506118d35f830185611788565b6118e06020830184611797565b9392505050565b5f67ffffffffffffffff8211156119015761190061129d565b5b602082029050602081019050919050565b5f80fd5b5f611928611923846118e7565b6112fb565b9050808382526020820190506020840283018581111561194b5761194a611912565b5b835b8181101561199257805167ffffffffffffffff8111156119705761196f611295565b5b80860161197d898261184c565b8552602085019450505060208101905061194d565b5050509392505050565b5f82601f8301126119b0576119af611295565b5b81516119c0848260208601611916565b91505092915050565b5f602082840312156119de576119dd61114e565b5b5f82015167ffffffffffffffff8111156119fb576119fa611152565b5b611a078482850161199c565b91505092915050565b7f4e487b71000000000000000000000000000000000000000000000000000000005f52601160045260245ffd5b5f611a4782611106565b91507fffffffffffffffffffffffffffffffffffffffffffffffffffffffffffffffff8203611a7957611a78611a10565b5b600182019050919050565b5f81519050611a9281611156565b92915050565b5f60208284031215611aad57611aac61114e565b5b5f611aba84828501611a84565b91505092915050565b611acc8161177f565b82525050565b602082015f820151611ae65f850182611ac3565b50505050565b5f602082019050611aff5f830184611ad2565b92915050565b5f611b0f82611106565b9150611b1a83611106565b9250828202611b2881611106565b91508282048414831517611b3f57611b3e611a10565b5b5092915050565b5f611b5082611106565b9150611b5b83611106565b9250828201905080821115611b7357611b72611a10565b5b92915050565b5f81519050919050565b5f82825260208201905092915050565b5f611b9d82611b79565b611ba78185611b83565b9350611bb78185602086016111c5565b611bc0816111d3565b840191505092915050565b5f6020820190508181035f830152611be38184611b93565b905092915050565b611bf481611106565b82525050565b5f82825260208201905092915050565b5f611c1482611b79565b611c1e8185611bfa565b9350611c2e8185602086016111c5565b611c37816111d3565b840191505092915050565b611c4b8161147a565b82525050565b5f60a083015f830151611c665f860182611ac3565b506020830151611c796020860182611beb565b506040830151611c8c6040860182611ac3565b5060608301518482036060860152611ca48282611c0a565b9150506080830151611cb96080860182611c42565b508091505092915050565b5f6020820190508181035f830152611cdc8184611c51565b905092915050565b7f4e487b71000000000000000000000000000000000000000000000000000000005f52603260045260245ffd5b5f81905092915050565b5f611d2582611b79565b611d2f8185611d11565b9350611d3f8185602086016111c5565b80840191505092915050565b5f611d568285611d1b565b9150611d628284611d1b565b91508190509392505050565b5f8160601b9050919050565b5f611d8482611d6e565b9050919050565b5f611d9582611d7a565b9050919050565b611dad611da88261125a565b611d8b565b82525050565b5f611dbe8284611d9c565b60148201915081905092915050565b5f60ff82169050919050565b5f611de382611dcd565b9150611dee83611dcd565b9250828201905060ff811115611e0757611e06611a10565b5b92915050565b7f4e487b71000000000000000000000000000000000000000000000000000000005f52601260045260245ffd5b5f611e4482611106565b9150611e4f83611106565b925082611e5f57611e5e611e0d565b5b828204905092915050565b5f611e7482611106565b9150611e7f83611106565b9250828203905081811115611e9757611e96611a10565b5b92915050565b5f8160011c9050919050565b5f808291508390505b6001851115611ef257808604811115611ece57611ecd611a10565b5b6001851615611edd5780820291505b8081029050611eeb85611e9d565b9450611eb2565b94509492505050565b5f82611f0a5760019050611fc5565b81611f17575f9050611fc5565b8160018114611f2d5760028114611f3757611f66565b6001915050611fc5565b60ff841115611f4957611f48611a10565b5b8360020a915084821115611f6057611f5f611a10565b5b50611fc5565b5060208310610133831016604e8410600b8410161715611f9b5782820a905083811115611f9657611f95611a10565b5b611fc5565b611fa88484846001611ea9565b92509050818404811115611fbf57611fbe611a10565b5b81810290505b9392505050565b5f611fd682611106565b9150611fe183611106565b925061200e7fffffffffffffffffffffffffffffffffffffffffffffffffffffffffffffffff8484611efb565b905092915050565b5f61202082611106565b915061202b83611106565b92508261203b5761203a611e0d565b5b828206905092915050565b5f819050919050565b61206061205b82611106565b612046565b82525050565b5f612071828461204f565b6020820191508190509291505056fea2646970667358221220e56966b6ff129ca969c5e5c8543a774a50bb1a026d873ac465bfcb75bfbe2f9864736f6c634300081a0033",
					"opcodes": "PUSH1 0x80 PUSH1 0x40 MSTORE PUSH5 0x12A05F200 PUSH0 SSTORE PUSH3 0x3D090 PUSH1 0x1 SSTORE PUSH0 PUSH1 0x2 SSTORE CALLVALUE DUP1 ISZERO PUSH1 0x21 JUMPI PUSH0 DUP1 REVERT JUMPDEST POP PUSH2 0x20B6 DUP1 PUSH2 0x2F PUSH0 CODECOPY PUSH0 RETURN INVALID PUSH1 0x80 PUSH1 0x40 MSTORE PUSH1 0x4 CALLDATASIZE LT PUSH2 0x73 JUMPI PUSH0 CALLDATALOAD PUSH1 0xE0 SHR DUP1 PUSH4 0xC6B4A8F7 GT PUSH2 0x4D JUMPI DUP1 PUSH4 0xC6B4A8F7 EQ PUSH2 0x15A JUMPI DUP1 PUSH4 0xDBE637C6 EQ PUSH2 0x184 JUMPI DUP1 PUSH4 0xE6BDB7D6 EQ PUSH2 0x1AC JUMPI DUP1 PUSH4 0xECF4EC57 EQ PUSH2 0x1C2 JUMPI PUSH2 0xCA JUMP JUMPDEST DUP1 PUSH4 0x32398D50 EQ PUSH2 0xCE JUMPI DUP1 PUSH4 0x681FACE9 EQ PUSH2 0x10A JUMPI DUP1 PUSH4 0x94E375DD EQ PUSH2 0x132 JUMPI PUSH2 0xCA JUMP JUMPDEST CALLDATASIZE PUSH2 0xCA JUMPI CALLER PUSH20 0xFFFFFFFFFFFFFFFFFFFFFFFFFFFFFFFFFFFFFFFF AND PUSH32 0x90890809C654F11D6E72A28FA60149770A0D11EC6C92319D6CEB2BB0A4EA1A15 CALLVALUE SELFBALANCE PUSH1 0x40 MLOAD PUSH2 0xC0 SWAP3 SWAP2 SWAP1 PUSH2 0x111E JUMP JUMPDEST PUSH1 0x40 MLOAD DUP1 SWAP2 SUB SWAP1 LOG2 STOP JUMPDEST PUSH0 DUP1 REVERT JUMPDEST CALLVALUE DUP1 ISZERO PUSH2 0xD9 JUMPI PUSH0 DUP1 REVERT JUMPDEST POP PUSH2 0xF4 PUSH1 0x4 DUP1 CALLDATASIZE SUB DUP2 ADD SWAP1 PUSH2 0xEF SWAP2 SWAP1 PUSH2 0x1180 JUMP JUMPDEST PUSH2 0x1FE JUMP JUMPDEST PUSH1 0x40 MLOAD PUSH2 0x101 SWAP2 SWAP1 PUSH2 0x121B JUMP JUMPDEST PUSH1 0x40 MLOAD DUP1 SWAP2 SUB SWAP1 RETURN JUMPDEST CALLVALUE DUP1 ISZERO PUSH2 0x115 JUMPI PUSH0 DUP1 REVERT JUMPDEST POP PUSH2 0x130 PUSH1 0x4 DUP1 CALLDATASIZE SUB DUP2 ADD SWAP1 PUSH2 0x12B SWAP2 SWAP1 PUSH2 0x13C1 JUMP JUMPDEST PUSH2 0x2BC JUMP JUMPDEST STOP JUMPDEST CALLVALUE DUP1 ISZERO PUSH2 0x13D JUMPI PUSH0 DUP1 REVERT JUMPDEST POP PUSH2 0x158 PUSH1 0x4 DUP1 CALLDATASIZE SUB DUP2 ADD SWAP1 PUSH2 0x153 SWAP2 SWAP1 PUSH2 0x14AF JUMP JUMPDEST PUSH2 0x336 JUMP JUMPDEST STOP JUMPDEST CALLVALUE DUP1 ISZERO PUSH2 0x165 JUMPI PUSH0 DUP1 REVERT JUMPDEST POP PUSH2 0x16E PUSH2 0x3B0 JUMP JUMPDEST PUSH1 0x40 MLOAD PUSH2 0x17B SWAP2 SWAP1 PUSH2 0x167F JUMP JUMPDEST PUSH1 0x40 MLOAD DUP1 SWAP2 SUB SWAP1 RETURN JUMPDEST CALLVALUE DUP1 ISZERO PUSH2 0x18F JUMPI PUSH0 DUP1 REVERT JUMPDEST POP PUSH2 0x1AA PUSH1 0x4 DUP1 CALLDATASIZE SUB DUP2 ADD SWAP1 PUSH2 0x1A5 SWAP2 SWAP1 PUSH2 0x169F JUMP JUMPDEST PUSH2 0x46A JUMP JUMPDEST STOP JUMPDEST CALLVALUE DUP1 ISZERO PUSH2 0x1B7 JUMPI PUSH0 DUP1 REVERT JUMPDEST POP PUSH2 0x1C0 PUSH2 0x4FD JUMP JUMPDEST STOP JUMPDEST CALLVALUE DUP1 ISZERO PUSH2 0x1CD JUMPI PUSH0 DUP1 REVERT JUMPDEST POP PUSH2 0x1E8 PUSH1 0x4 DUP1 CALLDATASIZE SUB DUP2 ADD SWAP1 PUSH2 0x1E3 SWAP2 SWAP1 PUSH2 0x171F JUMP JUMPDEST PUSH2 0x635 JUMP JUMPDEST PUSH1 0x40 MLOAD PUSH2 0x1F5 SWAP2 SWAP1 PUSH2 0x1766 JUMP JUMPDEST PUSH1 0x40 MLOAD DUP1 SWAP2 SUB SWAP1 RETURN JUMPDEST PUSH1 0x60 PUSH20 0x8F309C9550D0D69C3F9B8D7BCDC7C93B05CD089E PUSH20 0xFFFFFFFFFFFFFFFFFFFFFFFFFFFFFFFFFFFFFFFF AND PUSH4 0x187E5818 PUSH32 0xE146C2986893C43AF5FF396310220BE92058FB9F4CE76B929B80EF0D5307100A PUSH0 SHL ADDRESS DUP6 PUSH1 0x40 MLOAD DUP5 PUSH4 0xFFFFFFFF AND PUSH1 0xE0 SHL DUP2 MSTORE PUSH1 0x4 ADD PUSH2 0x273 SWAP4 SWAP3 SWAP2 SWAP1 PUSH2 0x17A6 JUMP JUMPDEST PUSH0 PUSH1 0x40 MLOAD DUP1 DUP4 SUB DUP2 DUP7 GAS STATICCALL ISZERO DUP1 ISZERO PUSH2 0x28D JUMPI RETURNDATASIZE PUSH0 DUP1 RETURNDATACOPY RETURNDATASIZE PUSH0 REVERT JUMPDEST POP POP POP POP PUSH1 0x40 MLOAD RETURNDATASIZE PUSH0 DUP3 RETURNDATACOPY RETURNDATASIZE PUSH1 0x1F NOT PUSH1 0x1F DUP3 ADD AND DUP3 ADD DUP1 PUSH1 0x40 MSTORE POP DUP2 ADD SWAP1 PUSH2 0x2B5 SWAP2 SWAP1 PUSH2 0x1879 JUMP JUMPDEST SWAP1 POP SWAP2 SWAP1 POP JUMP JUMPDEST PUSH0 PUSH2 0x2C6 DUP3 PUSH2 0x75F JUMP JUMPDEST SWAP1 POP PUSH0 PUSH2 0x2D7 DUP5 DUP8 DUP8 DUP12 DUP12 DUP8 PUSH2 0x771 JUMP JUMPDEST SWAP1 POP PUSH2 0x32B PUSH32 0xE146C2986893C43AF5FF396310220BE92058FB9F4CE76B929B80EF0D5307100A PUSH0 SHL DUP11 PUSH32 0xAFA90C317DEACD3D68F330A30F96E4FA7736E35E8D1426B2E1B2C04BCE1C2FB7 PUSH0 SHL DUP5 PUSH1 0x1 PUSH2 0x7E4 JUMP JUMPDEST POP POP POP POP POP POP POP POP POP JUMP JUMPDEST PUSH0 PUSH2 0x340 DUP4 PUSH2 0x75F JUMP JUMPDEST SWAP1 POP PUSH0 PUSH2 0x351 DUP6 DUP9 DUP9 DUP13 DUP13 DUP8 PUSH2 0x771 JUMP JUMPDEST SWAP1 POP PUSH2 0x3A4 PUSH32 0xE146C2986893C43AF5FF396310220BE92058FB9F4CE76B929B80EF0D5307100A PUSH0 SHL DUP12 PUSH32 0xAFA90C317DEACD3D68F330A30F96E4FA7736E35E8D1426B2E1B2C04BCE1C2FB7 PUSH0 SHL DUP5 DUP8 PUSH2 0x7E4 JUMP JUMPDEST POP POP POP POP POP POP POP POP POP POP JUMP JUMPDEST PUSH1 0x60 PUSH20 0x8F309C9550D0D69C3F9B8D7BCDC7C93B05CD089E PUSH20 0xFFFFFFFFFFFFFFFFFFFFFFFFFFFFFFFFFFFFFFFF AND PUSH4 0xA11A572D PUSH32 0xE146C2986893C43AF5FF396310220BE92058FB9F4CE76B929B80EF0D5307100A PUSH0 SHL ADDRESS PUSH1 0x40 MLOAD DUP4 PUSH4 0xFFFFFFFF AND PUSH1 0xE0 SHL DUP2 MSTORE PUSH1 0x4 ADD PUSH2 0x423 SWAP3 SWAP2 SWAP1 PUSH2 0x18C0 JUMP JUMPDEST PUSH0 PUSH1 0x40 MLOAD DUP1 DUP4 SUB DUP2 DUP7 GAS STATICCALL ISZERO DUP1 ISZERO PUSH2 0x43D JUMPI RETURNDATASIZE PUSH0 DUP1 RETURNDATACOPY RETURNDATASIZE PUSH0 REVERT JUMPDEST POP POP POP POP PUSH1 0x40 MLOAD RETURNDATASIZE PUSH0 DUP3 RETURNDATACOPY RETURNDATASIZE PUSH1 0x1F NOT PUSH1 0x1F DUP3 ADD AND DUP3 ADD DUP1 PUSH1 0x40 MSTORE POP DUP2 ADD SWAP1 PUSH2 0x465 SWAP2 SWAP1 PUSH2 0x19C9 JUMP JUMPDEST SWAP1 POP SWAP1 JUMP JUMPDEST PUSH0 PUSH2 0x474 DUP3 PUSH2 0x75F JUMP JUMPDEST SWAP1 POP PUSH0 PUSH2 0x48A PUSH1 0x2 SLOAD PUSH0 SLOAD PUSH1 0x1 SLOAD DUP9 DUP9 DUP8 PUSH2 0x771 JUMP JUMPDEST SWAP1 POP PUSH2 0x4DE PUSH32 0xE146C2986893C43AF5FF396310220BE92058FB9F4CE76B929B80EF0D5307100A PUSH0 SHL DUP8 PUSH32 0xAFA90C317DEACD3D68F330A30F96E4FA7736E35E8D1426B2E1B2C04BCE1C2FB7 PUSH0 SHL DUP5 PUSH1 0x1 PUSH2 0x7E4 JUMP JUMPDEST PUSH1 0x2 PUSH0 DUP2 SLOAD DUP1 SWAP3 SWAP2 SWAP1 PUSH2 0x4F0 SWAP1 PUSH2 0x1A3D JUMP JUMPDEST SWAP2 SWAP1 POP SSTORE POP POP POP POP POP POP POP JUMP JUMPDEST PUSH0 PUSH20 0x8F309C9550D0D69C3F9B8D7BCDC7C93B05CD089E PUSH20 0xFFFFFFFFFFFFFFFFFFFFFFFFFFFFFFFFFFFFFFFF AND PUSH4 0x15E812AD PUSH1 0x40 MLOAD DUP2 PUSH4 0xFFFFFFFF AND PUSH1 0xE0 SHL DUP2 MSTORE PUSH1 0x4 ADD PUSH1 0x20 PUSH1 0x40 MLOAD DUP1 DUP4 SUB DUP2 DUP7 GAS STATICCALL ISZERO DUP1 ISZERO PUSH2 0x55B JUMPI RETURNDATASIZE PUSH0 DUP1 RETURNDATACOPY RETURNDATASIZE PUSH0 REVERT JUMPDEST POP POP POP POP PUSH1 0x40 MLOAD RETURNDATASIZE PUSH1 0x1F NOT PUSH1 0x1F DUP3 ADD AND DUP3 ADD DUP1 PUSH1 0x40 MSTORE POP DUP2 ADD SWAP1 PUSH2 0x57F SWAP2 SWAP1 PUSH2 0x1A98 JUMP JUMPDEST SWAP1 POP PUSH0 PUSH1 0x40 MLOAD DUP1 PUSH1 0x20 ADD PUSH1 0x40 MSTORE DUP1 PUSH32 0xE146C2986893C43AF5FF396310220BE92058FB9F4CE76B929B80EF0D5307100A PUSH0 SHL DUP2 MSTORE POP SWAP1 POP PUSH20 0x8F309C9550D0D69C3F9B8D7BCDC7C93B05CD089E PUSH20 0xFFFFFFFFFFFFFFFFFFFFFFFFFFFFFFFFFFFFFFFF AND PUSH4 0x331EBA82 DUP4 DUP4 PUSH1 0x40 MLOAD DUP4 PUSH4 0xFFFFFFFF AND PUSH1 0xE0 SHL DUP2 MSTORE PUSH1 0x4 ADD PUSH2 0x603 SWAP2 SWAP1 PUSH2 0x1AEC JUMP JUMPDEST PUSH0 PUSH1 0x40 MLOAD DUP1 DUP4 SUB DUP2 DUP6 DUP9 DUP1 EXTCODESIZE ISZERO DUP1 ISZERO PUSH2 0x61A JUMPI PUSH0 DUP1 REVERT JUMPDEST POP GAS CALL ISZERO DUP1 ISZERO PUSH2 0x62C JUMPI RETURNDATASIZE PUSH0 DUP1 RETURNDATACOPY RETURNDATASIZE PUSH0 REVERT JUMPDEST POP POP POP POP POP POP POP JUMP JUMPDEST PUSH0 DUP1 PUSH20 0x8F309C9550D0D69C3F9B8D7BCDC7C93B05CD089E PUSH20 0xFFFFFFFFFFFFFFFFFFFFFFFFFFFFFFFFFFFFFFFF AND PUSH4 0xFC043830 PUSH1 0x40 MLOAD DUP2 PUSH4 0xFFFFFFFF AND PUSH1 0xE0 SHL DUP2 MSTORE PUSH1 0x4 ADD PUSH1 0x20 PUSH1 0x40 MLOAD DUP1 DUP4 SUB DUP2 DUP7 GAS STATICCALL ISZERO DUP1 ISZERO PUSH2 0x694 JUMPI RETURNDATASIZE PUSH0 DUP1 RETURNDATACOPY RETURNDATASIZE PUSH0 REVERT JUMPDEST POP POP POP POP PUSH1 0x40 MLOAD RETURNDATASIZE PUSH1 0x1F NOT PUSH1 0x1F DUP3 ADD AND DUP3 ADD DUP1 PUSH1 0x40 MSTORE POP DUP2 ADD SWAP1 PUSH2 0x6B8 SWAP2 SWAP1 PUSH2 0x1A98 JUMP JUMPDEST DUP4 MLOAD PUSH2 0x6C4 SWAP2 SWAP1 PUSH2 0x1B05 JUMP JUMPDEST SWAP1 POP PUSH0 DUP2 PUSH20 0x8F309C9550D0D69C3F9B8D7BCDC7C93B05CD089E PUSH20 0xFFFFFFFFFFFFFFFFFFFFFFFFFFFFFFFFFFFFFFFF AND PUSH4 0x15E812AD PUSH1 0x40 MLOAD DUP2 PUSH4 0xFFFFFFFF AND PUSH1 0xE0 SHL DUP2 MSTORE PUSH1 0x4 ADD PUSH1 0x20 PUSH1 0x40 MLOAD DUP1 DUP4 SUB DUP2 DUP7 GAS STATICCALL ISZERO DUP1 ISZERO PUSH2 0x725 JUMPI RETURNDATASIZE PUSH0 DUP1 RETURNDATACOPY RETURNDATASIZE PUSH0 REVERT JUMPDEST POP POP POP POP PUSH1 0x40 MLOAD RETURNDATASIZE PUSH1 0x1F NOT PUSH1 0x1F DUP3 ADD AND DUP3 ADD DUP1 PUSH1 0x40 MSTORE POP DUP2 ADD SWAP1 PUSH2 0x749 SWAP2 SWAP1 PUSH2 0x1A98 JUMP JUMPDEST PUSH2 0x753 SWAP2 SWAP1 PUSH2 0x1B46 JUMP JUMPDEST SWAP1 POP DUP1 SWAP3 POP POP POP SWAP2 SWAP1 POP JUMP JUMPDEST PUSH1 0x60 PUSH2 0x76A DUP3 PUSH2 0x8C0 JUMP JUMPDEST SWAP1 POP SWAP2 SWAP1 POP JUMP JUMPDEST PUSH1 0x60 PUSH0 PUSH2 0x77D DUP9 PUSH2 0x93D JUMP JUMPDEST SWAP1 POP PUSH0 PUSH2 0x789 DUP9 PUSH2 0x93D JUMP JUMPDEST SWAP1 POP PUSH0 PUSH2 0x795 DUP9 PUSH2 0x93D JUMP JUMPDEST SWAP1 POP PUSH0 PUSH2 0x7B7 DUP9 PUSH20 0xFFFFFFFFFFFFFFFFFFFFFFFFFFFFFFFFFFFFFFFF AND PUSH2 0x957 JUMP JUMPDEST SWAP1 POP PUSH0 PUSH2 0x7C3 DUP9 PUSH2 0x93D JUMP JUMPDEST SWAP1 POP PUSH2 0x7D3 DUP6 DUP6 DUP6 DUP6 DUP6 DUP13 PUSH2 0x988 JUMP JUMPDEST SWAP6 POP POP POP POP POP POP SWAP7 SWAP6 POP POP POP POP POP POP JUMP JUMPDEST PUSH0 PUSH2 0x80D DUP4 PUSH1 0x40 MLOAD PUSH1 0x20 ADD PUSH2 0x7F9 SWAP2 SWAP1 PUSH2 0x1BCB JUMP JUMPDEST PUSH1 0x40 MLOAD PUSH1 0x20 DUP2 DUP4 SUB SUB DUP2 MSTORE SWAP1 PUSH1 0x40 MSTORE PUSH2 0x635 JUMP JUMPDEST SWAP1 POP PUSH0 PUSH1 0x40 MLOAD DUP1 PUSH1 0xA0 ADD PUSH1 0x40 MSTORE DUP1 DUP9 DUP2 MSTORE PUSH1 0x20 ADD DUP8 DUP2 MSTORE PUSH1 0x20 ADD DUP7 DUP2 MSTORE PUSH1 0x20 ADD DUP6 DUP2 MSTORE PUSH1 0x20 ADD DUP5 ISZERO ISZERO DUP2 MSTORE POP SWAP1 POP PUSH20 0x8F309C9550D0D69C3F9B8D7BCDC7C93B05CD089E PUSH20 0xFFFFFFFFFFFFFFFFFFFFFFFFFFFFFFFFFFFFFFFF AND PUSH4 0x93F874C4 DUP4 DUP4 PUSH1 0x40 MLOAD DUP4 PUSH4 0xFFFFFFFF AND PUSH1 0xE0 SHL DUP2 MSTORE PUSH1 0x4 ADD PUSH2 0x889 SWAP2 SWAP1 PUSH2 0x1CC4 JUMP JUMPDEST PUSH0 PUSH1 0x40 MLOAD DUP1 DUP4 SUB DUP2 DUP6 DUP9 DUP1 EXTCODESIZE ISZERO DUP1 ISZERO PUSH2 0x8A0 JUMPI PUSH0 DUP1 REVERT JUMPDEST POP GAS CALL ISZERO DUP1 ISZERO PUSH2 0x8B2 JUMPI RETURNDATASIZE PUSH0 DUP1 RETURNDATACOPY RETURNDATASIZE PUSH0 REVERT JUMPDEST POP POP POP POP POP POP POP POP POP POP POP POP JUMP JUMPDEST PUSH1 0x60 DUP1 PUSH1 0x1 DUP4 MLOAD EQ DUP1 ISZERO PUSH2 0x8F7 JUMPI POP PUSH1 0x80 DUP4 PUSH0 DUP2 MLOAD DUP2 LT PUSH2 0x8E4 JUMPI PUSH2 0x8E3 PUSH2 0x1CE4 JUMP JUMPDEST JUMPDEST PUSH1 0x20 ADD ADD MLOAD PUSH1 0xF8 SHR PUSH1 0xF8 SHL PUSH1 0xF8 SHR PUSH1 0xFF AND LT JUMPDEST ISZERO PUSH2 0x904 JUMPI DUP3 SWAP1 POP PUSH2 0x934 JUMP JUMPDEST PUSH2 0x910 DUP4 MLOAD PUSH1 0x80 PUSH2 0xB1E JUMP JUMPDEST DUP4 PUSH1 0x40 MLOAD PUSH1 0x20 ADD PUSH2 0x922 SWAP3 SWAP2 SWAP1 PUSH2 0x1D4B JUMP JUMPDEST PUSH1 0x40 MLOAD PUSH1 0x20 DUP2 DUP4 SUB SUB DUP2 MSTORE SWAP1 PUSH1 0x40 MSTORE SWAP1 POP JUMPDEST DUP1 SWAP2 POP POP SWAP2 SWAP1 POP JUMP JUMPDEST PUSH1 0x60 PUSH2 0x950 PUSH2 0x94B DUP4 PUSH2 0xD63 JUMP JUMPDEST PUSH2 0x8C0 JUMP JUMPDEST SWAP1 POP SWAP2 SWAP1 POP JUMP JUMPDEST PUSH1 0x60 PUSH2 0x981 DUP3 PUSH1 0x40 MLOAD PUSH1 0x20 ADD PUSH2 0x96D SWAP2 SWAP1 PUSH2 0x1DB3 JUMP JUMPDEST PUSH1 0x40 MLOAD PUSH1 0x20 DUP2 DUP4 SUB SUB DUP2 MSTORE SWAP1 PUSH1 0x40 MSTORE PUSH2 0x8C0 JUMP JUMPDEST SWAP1 POP SWAP2 SWAP1 POP JUMP JUMPDEST PUSH1 0x60 PUSH0 PUSH2 0x994 PUSH0 PUSH2 0x93D JUMP JUMPDEST SWAP1 POP PUSH0 PUSH1 0x9 PUSH8 0xFFFFFFFFFFFFFFFF DUP2 GT ISZERO PUSH2 0x9B2 JUMPI PUSH2 0x9B1 PUSH2 0x129D JUMP JUMPDEST JUMPDEST PUSH1 0x40 MLOAD SWAP1 DUP1 DUP3 MSTORE DUP1 PUSH1 0x20 MUL PUSH1 0x20 ADD DUP3 ADD PUSH1 0x40 MSTORE DUP1 ISZERO PUSH2 0x9E5 JUMPI DUP2 PUSH1 0x20 ADD JUMPDEST PUSH1 0x60 DUP2 MSTORE PUSH1 0x20 ADD SWAP1 PUSH1 0x1 SWAP1 SUB SWAP1 DUP2 PUSH2 0x9D0 JUMPI SWAP1 POP JUMPDEST POP SWAP1 POP DUP9 DUP2 PUSH0 DUP2 MLOAD DUP2 LT PUSH2 0x9FC JUMPI PUSH2 0x9FB PUSH2 0x1CE4 JUMP JUMPDEST JUMPDEST PUSH1 0x20 MUL PUSH1 0x20 ADD ADD DUP2 SWAP1 MSTORE POP DUP8 DUP2 PUSH1 0x1 DUP2 MLOAD DUP2 LT PUSH2 0xA1C JUMPI PUSH2 0xA1B PUSH2 0x1CE4 JUMP JUMPDEST JUMPDEST PUSH1 0x20 MUL PUSH1 0x20 ADD ADD DUP2 SWAP1 MSTORE POP DUP7 DUP2 PUSH1 0x2 DUP2 MLOAD DUP2 LT PUSH2 0xA3C JUMPI PUSH2 0xA3B PUSH2 0x1CE4 JUMP JUMPDEST JUMPDEST PUSH1 0x20 MUL PUSH1 0x20 ADD ADD DUP2 SWAP1 MSTORE POP DUP6 DUP2 PUSH1 0x3 DUP2 MLOAD DUP2 LT PUSH2 0xA5C JUMPI PUSH2 0xA5B PUSH2 0x1CE4 JUMP JUMPDEST JUMPDEST PUSH1 0x20 MUL PUSH1 0x20 ADD ADD DUP2 SWAP1 MSTORE POP DUP5 DUP2 PUSH1 0x4 DUP2 MLOAD DUP2 LT PUSH2 0xA7C JUMPI PUSH2 0xA7B PUSH2 0x1CE4 JUMP JUMPDEST JUMPDEST PUSH1 0x20 MUL PUSH1 0x20 ADD ADD DUP2 SWAP1 MSTORE POP DUP4 DUP2 PUSH1 0x5 DUP2 MLOAD DUP2 LT PUSH2 0xA9C JUMPI PUSH2 0xA9B PUSH2 0x1CE4 JUMP JUMPDEST JUMPDEST PUSH1 0x20 MUL PUSH1 0x20 ADD ADD DUP2 SWAP1 MSTORE POP DUP2 DUP2 PUSH1 0x6 DUP2 MLOAD DUP2 LT PUSH2 0xABC JUMPI PUSH2 0xABB PUSH2 0x1CE4 JUMP JUMPDEST JUMPDEST PUSH1 0x20 MUL PUSH1 0x20 ADD ADD DUP2 SWAP1 MSTORE POP DUP2 DUP2 PUSH1 0x7 DUP2 MLOAD DUP2 LT PUSH2 0xADC JUMPI PUSH2 0xADB PUSH2 0x1CE4 JUMP JUMPDEST JUMPDEST PUSH1 0x20 MUL PUSH1 0x20 ADD ADD DUP2 SWAP1 MSTORE POP DUP2 DUP2 PUSH1 0x8 DUP2 MLOAD DUP2 LT PUSH2 0xAFC JUMPI PUSH2 0xAFB PUSH2 0x1CE4 JUMP JUMPDEST JUMPDEST PUSH1 0x20 MUL PUSH1 0x20 ADD ADD DUP2 SWAP1 MSTORE POP PUSH2 0xB10 DUP2 PUSH2 0xED4 JUMP JUMPDEST SWAP3 POP POP POP SWAP7 SWAP6 POP POP POP POP POP POP JUMP JUMPDEST PUSH1 0x60 DUP1 PUSH1 0x38 DUP5 LT ISZERO PUSH2 0xBCF JUMPI PUSH1 0x1 PUSH8 0xFFFFFFFFFFFFFFFF DUP2 GT ISZERO PUSH2 0xB45 JUMPI PUSH2 0xB44 PUSH2 0x129D JUMP JUMPDEST JUMPDEST PUSH1 0x40 MLOAD SWAP1 DUP1 DUP3 MSTORE DUP1 PUSH1 0x1F ADD PUSH1 0x1F NOT AND PUSH1 0x20 ADD DUP3 ADD PUSH1 0x40 MSTORE DUP1 ISZERO PUSH2 0xB77 JUMPI DUP2 PUSH1 0x20 ADD PUSH1 0x1 DUP3 MUL DUP1 CALLDATASIZE DUP4 CALLDATACOPY DUP1 DUP3 ADD SWAP2 POP POP SWAP1 POP JUMPDEST POP SWAP1 POP DUP3 DUP5 PUSH2 0xB86 SWAP2 SWAP1 PUSH2 0x1DD9 JUMP JUMPDEST PUSH1 0xF8 SHL DUP2 PUSH0 DUP2 MLOAD DUP2 LT PUSH2 0xB9C JUMPI PUSH2 0xB9B PUSH2 0x1CE4 JUMP JUMPDEST JUMPDEST PUSH1 0x20 ADD ADD SWAP1 PUSH31 0xFFFFFFFFFFFFFFFFFFFFFFFFFFFFFFFFFFFFFFFFFFFFFFFFFFFFFFFFFFFFFF NOT AND SWAP1 DUP2 PUSH0 BYTE SWAP1 MSTORE8 POP PUSH2 0xD59 JUMP JUMPDEST PUSH0 DUP1 PUSH1 0x1 SWAP1 POP JUMPDEST PUSH0 DUP2 DUP8 PUSH2 0xBE3 SWAP2 SWAP1 PUSH2 0x1E3A JUMP JUMPDEST EQ PUSH2 0xC0B JUMPI DUP2 DUP1 PUSH2 0xBF3 SWAP1 PUSH2 0x1A3D JUMP JUMPDEST SWAP3 POP POP PUSH2 0x100 DUP2 PUSH2 0xC04 SWAP2 SWAP1 PUSH2 0x1B05 JUMP JUMPDEST SWAP1 POP PUSH2 0xBD6 JUMP JUMPDEST PUSH1 0x1 DUP3 PUSH2 0xC18 SWAP2 SWAP1 PUSH2 0x1B46 JUMP JUMPDEST PUSH8 0xFFFFFFFFFFFFFFFF DUP2 GT ISZERO PUSH2 0xC31 JUMPI PUSH2 0xC30 PUSH2 0x129D JUMP JUMPDEST JUMPDEST PUSH1 0x40 MLOAD SWAP1 DUP1 DUP3 MSTORE DUP1 PUSH1 0x1F ADD PUSH1 0x1F NOT AND PUSH1 0x20 ADD DUP3 ADD PUSH1 0x40 MSTORE DUP1 ISZERO PUSH2 0xC63 JUMPI DUP2 PUSH1 0x20 ADD PUSH1 0x1 DUP3 MUL DUP1 CALLDATASIZE DUP4 CALLDATACOPY DUP1 DUP3 ADD SWAP2 POP POP SWAP1 POP JUMPDEST POP SWAP3 POP PUSH1 0x37 DUP6 DUP4 PUSH2 0xC74 SWAP2 SWAP1 PUSH2 0x1DD9 JUMP JUMPDEST PUSH2 0xC7E SWAP2 SWAP1 PUSH2 0x1DD9 JUMP JUMPDEST PUSH1 0xF8 SHL DUP4 PUSH0 DUP2 MLOAD DUP2 LT PUSH2 0xC94 JUMPI PUSH2 0xC93 PUSH2 0x1CE4 JUMP JUMPDEST JUMPDEST PUSH1 0x20 ADD ADD SWAP1 PUSH31 0xFFFFFFFFFFFFFFFFFFFFFFFFFFFFFFFFFFFFFFFFFFFFFFFFFFFFFFFFFFFFFF NOT AND SWAP1 DUP2 PUSH0 BYTE SWAP1 MSTORE8 POP PUSH1 0x1 SWAP1 POP JUMPDEST DUP2 DUP2 GT PUSH2 0xD56 JUMPI PUSH2 0x100 DUP2 DUP4 PUSH2 0xCDD SWAP2 SWAP1 PUSH2 0x1E6A JUMP JUMPDEST PUSH2 0x100 PUSH2 0xCEA SWAP2 SWAP1 PUSH2 0x1FCC JUMP JUMPDEST DUP8 PUSH2 0xCF5 SWAP2 SWAP1 PUSH2 0x1E3A JUMP JUMPDEST PUSH2 0xCFF SWAP2 SWAP1 PUSH2 0x2016 JUMP JUMPDEST PUSH1 0xF8 SHL DUP4 DUP3 DUP2 MLOAD DUP2 LT PUSH2 0xD15 JUMPI PUSH2 0xD14 PUSH2 0x1CE4 JUMP JUMPDEST JUMPDEST PUSH1 0x20 ADD ADD SWAP1 PUSH31 0xFFFFFFFFFFFFFFFFFFFFFFFFFFFFFFFFFFFFFFFFFFFFFFFFFFFFFFFFFFFFFF NOT AND SWAP1 DUP2 PUSH0 BYTE SWAP1 MSTORE8 POP DUP1 DUP1 PUSH2 0xD4E SWAP1 PUSH2 0x1A3D JUMP JUMPDEST SWAP2 POP POP PUSH2 0xCC7 JUMP JUMPDEST POP POP JUMPDEST DUP1 SWAP2 POP POP SWAP3 SWAP2 POP POP JUMP JUMPDEST PUSH1 0x60 PUSH0 DUP3 PUSH1 0x40 MLOAD PUSH1 0x20 ADD PUSH2 0xD77 SWAP2 SWAP1 PUSH2 0x2066 JUMP JUMPDEST PUSH1 0x40 MLOAD PUSH1 0x20 DUP2 DUP4 SUB SUB DUP2 MSTORE SWAP1 PUSH1 0x40 MSTORE SWAP1 POP PUSH0 JUMPDEST PUSH1 0x20 DUP2 LT ISZERO PUSH2 0xDE9 JUMPI PUSH0 PUSH1 0xF8 SHL DUP3 DUP3 DUP2 MLOAD DUP2 LT PUSH2 0xDAA JUMPI PUSH2 0xDA9 PUSH2 0x1CE4 JUMP JUMPDEST JUMPDEST PUSH1 0x20 ADD ADD MLOAD PUSH1 0xF8 SHR PUSH1 0xF8 SHL PUSH31 0xFFFFFFFFFFFFFFFFFFFFFFFFFFFFFFFFFFFFFFFFFFFFFFFFFFFFFFFFFFFFFF NOT AND SUB PUSH2 0xDE9 JUMPI DUP1 DUP1 PUSH1 0x1 ADD SWAP2 POP POP PUSH2 0xD8A JUMP JUMPDEST PUSH0 DUP2 PUSH1 0x20 PUSH2 0xDF7 SWAP2 SWAP1 PUSH2 0x1E6A JUMP JUMPDEST PUSH8 0xFFFFFFFFFFFFFFFF DUP2 GT ISZERO PUSH2 0xE10 JUMPI PUSH2 0xE0F PUSH2 0x129D JUMP JUMPDEST JUMPDEST PUSH1 0x40 MLOAD SWAP1 DUP1 DUP3 MSTORE DUP1 PUSH1 0x1F ADD PUSH1 0x1F NOT AND PUSH1 0x20 ADD DUP3 ADD PUSH1 0x40 MSTORE DUP1 ISZERO PUSH2 0xE42 JUMPI DUP2 PUSH1 0x20 ADD PUSH1 0x1 DUP3 MUL DUP1 CALLDATASIZE DUP4 CALLDATACOPY DUP1 DUP3 ADD SWAP2 POP POP SWAP1 POP JUMPDEST POP SWAP1 POP PUSH0 JUMPDEST DUP2 MLOAD DUP2 LT ISZERO PUSH2 0xEC8 JUMPI DUP4 DUP4 DUP1 PUSH2 0xE5C SWAP1 PUSH2 0x1A3D JUMP JUMPDEST SWAP5 POP DUP2 MLOAD DUP2 LT PUSH2 0xE6F JUMPI PUSH2 0xE6E PUSH2 0x1CE4 JUMP JUMPDEST JUMPDEST PUSH1 0x20 ADD ADD MLOAD PUSH1 0xF8 SHR PUSH1 0xF8 SHL DUP3 DUP3 DUP2 MLOAD DUP2 LT PUSH2 0xE8D JUMPI PUSH2 0xE8C PUSH2 0x1CE4 JUMP JUMPDEST JUMPDEST PUSH1 0x20 ADD ADD SWAP1 PUSH31 0xFFFFFFFFFFFFFFFFFFFFFFFFFFFFFFFFFFFFFFFFFFFFFFFFFFFFFFFFFFFFFF NOT AND SWAP1 DUP2 PUSH0 BYTE SWAP1 MSTORE8 POP DUP1 DUP1 PUSH1 0x1 ADD SWAP2 POP POP PUSH2 0xE47 JUMP JUMPDEST POP DUP1 SWAP4 POP POP POP POP SWAP2 SWAP1 POP JUMP JUMPDEST PUSH1 0x60 PUSH0 PUSH2 0xEE0 DUP4 PUSH2 0xF17 JUMP JUMPDEST SWAP1 POP PUSH2 0xEEE DUP2 MLOAD PUSH1 0xC0 PUSH2 0xB1E JUMP JUMPDEST DUP2 PUSH1 0x40 MLOAD PUSH1 0x20 ADD PUSH2 0xF00 SWAP3 SWAP2 SWAP1 PUSH2 0x1D4B JUMP JUMPDEST PUSH1 0x40 MLOAD PUSH1 0x20 DUP2 DUP4 SUB SUB DUP2 MSTORE SWAP1 PUSH1 0x40 MSTORE SWAP2 POP POP SWAP2 SWAP1 POP JUMP JUMPDEST PUSH1 0x60 PUSH0 DUP3 MLOAD SUB PUSH2 0xF75 JUMPI PUSH0 PUSH8 0xFFFFFFFFFFFFFFFF DUP2 GT ISZERO PUSH2 0xF3B JUMPI PUSH2 0xF3A PUSH2 0x129D JUMP JUMPDEST JUMPDEST PUSH1 0x40 MLOAD SWAP1 DUP1 DUP3 MSTORE DUP1 PUSH1 0x1F ADD PUSH1 0x1F NOT AND PUSH1 0x20 ADD DUP3 ADD PUSH1 0x40 MSTORE DUP1 ISZERO PUSH2 0xF6D JUMPI DUP2 PUSH1 0x20 ADD PUSH1 0x1 DUP3 MUL DUP1 CALLDATASIZE DUP4 CALLDATACOPY DUP1 DUP3 ADD SWAP2 POP POP SWAP1 POP JUMPDEST POP SWAP1 POP PUSH2 0x108F JUMP JUMPDEST PUSH0 DUP1 PUSH0 SWAP1 POP JUMPDEST DUP4 MLOAD DUP2 LT ISZERO PUSH2 0xFBA JUMPI DUP4 DUP2 DUP2 MLOAD DUP2 LT PUSH2 0xF97 JUMPI PUSH2 0xF96 PUSH2 0x1CE4 JUMP JUMPDEST JUMPDEST PUSH1 0x20 MUL PUSH1 0x20 ADD ADD MLOAD MLOAD DUP3 PUSH2 0xFAB SWAP2 SWAP1 PUSH2 0x1B46 JUMP JUMPDEST SWAP2 POP DUP1 DUP1 PUSH1 0x1 ADD SWAP2 POP POP PUSH2 0xF7B JUMP JUMPDEST PUSH0 DUP3 PUSH8 0xFFFFFFFFFFFFFFFF DUP2 GT ISZERO PUSH2 0xFD5 JUMPI PUSH2 0xFD4 PUSH2 0x129D JUMP JUMPDEST JUMPDEST PUSH1 0x40 MLOAD SWAP1 DUP1 DUP3 MSTORE DUP1 PUSH1 0x1F ADD PUSH1 0x1F NOT AND PUSH1 0x20 ADD DUP3 ADD PUSH1 0x40 MSTORE DUP1 ISZERO PUSH2 0x1007 JUMPI DUP2 PUSH1 0x20 ADD PUSH1 0x1 DUP3 MUL DUP1 CALLDATASIZE DUP4 CALLDATACOPY DUP1 DUP3 ADD SWAP2 POP POP SWAP1 POP JUMPDEST POP SWAP1 POP PUSH0 PUSH1 0x20 DUP3 ADD SWAP1 POP PUSH0 SWAP3 POP JUMPDEST DUP6 MLOAD DUP4 LT ISZERO PUSH2 0x1087 JUMPI PUSH0 DUP7 DUP5 DUP2 MLOAD DUP2 LT PUSH2 0x1032 JUMPI PUSH2 0x1031 PUSH2 0x1CE4 JUMP JUMPDEST JUMPDEST PUSH1 0x20 MUL PUSH1 0x20 ADD ADD MLOAD SWAP1 POP PUSH0 PUSH1 0x20 DUP3 ADD SWAP1 POP PUSH2 0x104F DUP4 DUP3 DUP5 MLOAD PUSH2 0x1094 JUMP JUMPDEST DUP8 DUP6 DUP2 MLOAD DUP2 LT PUSH2 0x1062 JUMPI PUSH2 0x1061 PUSH2 0x1CE4 JUMP JUMPDEST JUMPDEST PUSH1 0x20 MUL PUSH1 0x20 ADD ADD MLOAD MLOAD DUP4 PUSH2 0x1076 SWAP2 SWAP1 PUSH2 0x1B46 JUMP JUMPDEST SWAP3 POP POP POP DUP3 DUP1 PUSH1 0x1 ADD SWAP4 POP POP PUSH2 0x1015 JUMP JUMPDEST DUP2 SWAP5 POP POP POP POP POP JUMPDEST SWAP2 SWAP1 POP JUMP JUMPDEST PUSH0 DUP4 SWAP1 POP PUSH0 DUP4 SWAP1 POP PUSH0 DUP4 SWAP1 POP JUMPDEST PUSH1 0x20 DUP2 LT PUSH2 0x10DF JUMPI DUP2 MLOAD DUP4 MSTORE PUSH1 0x20 DUP4 PUSH2 0x10BA SWAP2 SWAP1 PUSH2 0x1B46 JUMP JUMPDEST SWAP3 POP PUSH1 0x20 DUP3 PUSH2 0x10C9 SWAP2 SWAP1 PUSH2 0x1B46 JUMP JUMPDEST SWAP2 POP PUSH1 0x20 DUP2 PUSH2 0x10D8 SWAP2 SWAP1 PUSH2 0x1E6A JUMP JUMPDEST SWAP1 POP PUSH2 0x10A1 JUMP JUMPDEST PUSH0 PUSH1 0x1 DUP3 PUSH1 0x20 SUB PUSH2 0x100 EXP SUB SWAP1 POP DUP1 NOT DUP4 MLOAD AND DUP2 DUP6 MLOAD AND DUP2 DUP2 OR DUP7 MSTORE POP POP POP POP POP POP POP POP POP JUMP JUMPDEST PUSH0 DUP2 SWAP1 POP SWAP2 SWAP1 POP JUMP JUMPDEST PUSH2 0x1118 DUP2 PUSH2 0x1106 JUMP JUMPDEST DUP3 MSTORE POP POP JUMP JUMPDEST PUSH0 PUSH1 0x40 DUP3 ADD SWAP1 POP PUSH2 0x1131 PUSH0 DUP4 ADD DUP6 PUSH2 0x110F JUMP JUMPDEST PUSH2 0x113E PUSH1 0x20 DUP4 ADD DUP5 PUSH2 0x110F JUMP JUMPDEST SWAP4 SWAP3 POP POP POP JUMP JUMPDEST PUSH0 PUSH1 0x40 MLOAD SWAP1 POP SWAP1 JUMP JUMPDEST PUSH0 DUP1 REVERT JUMPDEST PUSH0 DUP1 REVERT JUMPDEST PUSH2 0x115F DUP2 PUSH2 0x1106 JUMP JUMPDEST DUP2 EQ PUSH2 0x1169 JUMPI PUSH0 DUP1 REVERT JUMPDEST POP JUMP JUMPDEST PUSH0 DUP2 CALLDATALOAD SWAP1 POP PUSH2 0x117A DUP2 PUSH2 0x1156 JUMP JUMPDEST SWAP3 SWAP2 POP POP JUMP JUMPDEST PUSH0 PUSH1 0x20 DUP3 DUP5 SUB SLT ISZERO PUSH2 0x1195 JUMPI PUSH2 0x1194 PUSH2 0x114E JUMP JUMPDEST JUMPDEST PUSH0 PUSH2 0x11A2 DUP5 DUP3 DUP6 ADD PUSH2 0x116C JUMP JUMPDEST SWAP2 POP POP SWAP3 SWAP2 POP POP JUMP JUMPDEST PUSH0 DUP2 MLOAD SWAP1 POP SWAP2 SWAP1 POP JUMP JUMPDEST PUSH0 DUP3 DUP3 MSTORE PUSH1 0x20 DUP3 ADD SWAP1 POP SWAP3 SWAP2 POP POP JUMP JUMPDEST DUP3 DUP2 DUP4 MCOPY PUSH0 DUP4 DUP4 ADD MSTORE POP POP POP JUMP JUMPDEST PUSH0 PUSH1 0x1F NOT PUSH1 0x1F DUP4 ADD AND SWAP1 POP SWAP2 SWAP1 POP JUMP JUMPDEST PUSH0 PUSH2 0x11ED DUP3 PUSH2 0x11AB JUMP JUMPDEST PUSH2 0x11F7 DUP2 DUP6 PUSH2 0x11B5 JUMP JUMPDEST SWAP4 POP PUSH2 0x1207 DUP2 DUP6 PUSH1 0x20 DUP7 ADD PUSH2 0x11C5 JUMP JUMPDEST PUSH2 0x1210 DUP2 PUSH2 0x11D3 JUMP JUMPDEST DUP5 ADD SWAP2 POP POP SWAP3 SWAP2 POP POP JUMP JUMPDEST PUSH0 PUSH1 0x20 DUP3 ADD SWAP1 POP DUP2 DUP2 SUB PUSH0 DUP4 ADD MSTORE PUSH2 0x1233 DUP2 DUP5 PUSH2 0x11E3 JUMP JUMPDEST SWAP1 POP SWAP3 SWAP2 POP POP JUMP JUMPDEST PUSH0 PUSH20 0xFFFFFFFFFFFFFFFFFFFFFFFFFFFFFFFFFFFFFFFF DUP3 AND SWAP1 POP SWAP2 SWAP1 POP JUMP JUMPDEST PUSH0 PUSH2 0x1264 DUP3 PUSH2 0x123B JUMP JUMPDEST SWAP1 POP SWAP2 SWAP1 POP JUMP JUMPDEST PUSH2 0x1274 DUP2 PUSH2 0x125A JUMP JUMPDEST DUP2 EQ PUSH2 0x127E JUMPI PUSH0 DUP1 REVERT JUMPDEST POP JUMP JUMPDEST PUSH0 DUP2 CALLDATALOAD SWAP1 POP PUSH2 0x128F DUP2 PUSH2 0x126B JUMP JUMPDEST SWAP3 SWAP2 POP POP JUMP JUMPDEST PUSH0 DUP1 REVERT JUMPDEST PUSH0 DUP1 REVERT JUMPDEST PUSH32 0x4E487B7100000000000000000000000000000000000000000000000000000000 PUSH0 MSTORE PUSH1 0x41 PUSH1 0x4 MSTORE PUSH1 0x24 PUSH0 REVERT JUMPDEST PUSH2 0x12D3 DUP3 PUSH2 0x11D3 JUMP JUMPDEST DUP2 ADD DUP2 DUP2 LT PUSH8 0xFFFFFFFFFFFFFFFF DUP3 GT OR ISZERO PUSH2 0x12F2 JUMPI PUSH2 0x12F1 PUSH2 0x129D JUMP JUMPDEST JUMPDEST DUP1 PUSH1 0x40 MSTORE POP POP POP JUMP JUMPDEST PUSH0 PUSH2 0x1304 PUSH2 0x1145 JUMP JUMPDEST SWAP1 POP PUSH2 0x1310 DUP3 DUP3 PUSH2 0x12CA JUMP JUMPDEST SWAP2 SWAP1 POP JUMP JUMPDEST PUSH0 PUSH8 0xFFFFFFFFFFFFFFFF DUP3 GT ISZERO PUSH2 0x132F JUMPI PUSH2 0x132E PUSH2 0x129D JUMP JUMPDEST JUMPDEST PUSH2 0x1338 DUP3 PUSH2 0x11D3 JUMP JUMPDEST SWAP1 POP PUSH1 0x20 DUP2 ADD SWAP1 POP SWAP2 SWAP1 POP JUMP JUMPDEST DUP3 DUP2 DUP4 CALLDATACOPY PUSH0 DUP4 DUP4 ADD MSTORE POP POP POP JUMP JUMPDEST PUSH0 PUSH2 0x1365 PUSH2 0x1360 DUP5 PUSH2 0x1315 JUMP JUMPDEST PUSH2 0x12FB JUMP JUMPDEST SWAP1 POP DUP3 DUP2 MSTORE PUSH1 0x20 DUP2 ADD DUP5 DUP5 DUP5 ADD GT ISZERO PUSH2 0x1381 JUMPI PUSH2 0x1380 PUSH2 0x1299 JUMP JUMPDEST JUMPDEST PUSH2 0x138C DUP5 DUP3 DUP6 PUSH2 0x1345 JUMP JUMPDEST POP SWAP4 SWAP3 POP POP POP JUMP JUMPDEST PUSH0 DUP3 PUSH1 0x1F DUP4 ADD SLT PUSH2 0x13A8 JUMPI PUSH2 0x13A7 PUSH2 0x1295 JUMP JUMPDEST JUMPDEST DUP2 CALLDATALOAD PUSH2 0x13B8 DUP5 DUP3 PUSH1 0x20 DUP7 ADD PUSH2 0x1353 JUMP JUMPDEST SWAP2 POP POP SWAP3 SWAP2 POP POP JUMP JUMPDEST PUSH0 DUP1 PUSH0 DUP1 PUSH0 DUP1 PUSH0 PUSH1 0xE0 DUP9 DUP11 SUB SLT ISZERO PUSH2 0x13DC JUMPI PUSH2 0x13DB PUSH2 0x114E JUMP JUMPDEST JUMPDEST PUSH0 PUSH2 0x13E9 DUP11 DUP3 DUP12 ADD PUSH2 0x116C JUMP JUMPDEST SWAP8 POP POP PUSH1 0x20 PUSH2 0x13FA DUP11 DUP3 DUP12 ADD PUSH2 0x1281 JUMP JUMPDEST SWAP7 POP POP PUSH1 0x40 PUSH2 0x140B DUP11 DUP3 DUP12 ADD PUSH2 0x116C JUMP JUMPDEST SWAP6 POP POP PUSH1 0x60 PUSH2 0x141C DUP11 DUP3 DUP12 ADD PUSH2 0x116C JUMP JUMPDEST SWAP5 POP POP PUSH1 0x80 PUSH2 0x142D DUP11 DUP3 DUP12 ADD PUSH2 0x116C JUMP JUMPDEST SWAP4 POP POP PUSH1 0xA0 PUSH2 0x143E DUP11 DUP3 DUP12 ADD PUSH2 0x116C JUMP JUMPDEST SWAP3 POP POP PUSH1 0xC0 DUP9 ADD CALLDATALOAD PUSH8 0xFFFFFFFFFFFFFFFF DUP2 GT ISZERO PUSH2 0x145F JUMPI PUSH2 0x145E PUSH2 0x1152 JUMP JUMPDEST JUMPDEST PUSH2 0x146B DUP11 DUP3 DUP12 ADD PUSH2 0x1394 JUMP JUMPDEST SWAP2 POP POP SWAP3 SWAP6 SWAP9 SWAP2 SWAP5 SWAP8 POP SWAP3 SWAP6 POP JUMP JUMPDEST PUSH0 DUP2 ISZERO ISZERO SWAP1 POP SWAP2 SWAP1 POP JUMP JUMPDEST PUSH2 0x148E DUP2 PUSH2 0x147A JUMP JUMPDEST DUP2 EQ PUSH2 0x1498 JUMPI PUSH0 DUP1 REVERT JUMPDEST POP JUMP JUMPDEST PUSH0 DUP2 CALLDATALOAD SWAP1 POP PUSH2 0x14A9 DUP2 PUSH2 0x1485 JUMP JUMPDEST SWAP3 SWAP2 POP POP JUMP JUMPDEST PUSH0 DUP1 PUSH0 DUP1 PUSH0 DUP1 PUSH0 DUP1 PUSH2 0x100 DUP10 DUP12 SUB SLT ISZERO PUSH2 0x14CC JUMPI PUSH2 0x14CB PUSH2 0x114E JUMP JUMPDEST JUMPDEST PUSH0 PUSH2 0x14D9 DUP12 DUP3 DUP13 ADD PUSH2 0x116C JUMP JUMPDEST SWAP9 POP POP PUSH1 0x20 PUSH2 0x14EA DUP12 DUP3 DUP13 ADD PUSH2 0x1281 JUMP JUMPDEST SWAP8 POP POP PUSH1 0x40 PUSH2 0x14FB DUP12 DUP3 DUP13 ADD PUSH2 0x116C JUMP JUMPDEST SWAP7 POP POP PUSH1 0x60 PUSH2 0x150C DUP12 DUP3 DUP13 ADD PUSH2 0x116C JUMP JUMPDEST SWAP6 POP POP PUSH1 0x80 PUSH2 0x151D DUP12 DUP3 DUP13 ADD PUSH2 0x116C JUMP JUMPDEST SWAP5 POP POP PUSH1 0xA0 PUSH2 0x152E DUP12 DUP3 DUP13 ADD PUSH2 0x116C JUMP JUMPDEST SWAP4 POP POP PUSH1 0xC0 DUP10 ADD CALLDATALOAD PUSH8 0xFFFFFFFFFFFFFFFF DUP2 GT ISZERO PUSH2 0x154F JUMPI PUSH2 0x154E PUSH2 0x1152 JUMP JUMPDEST JUMPDEST PUSH2 0x155B DUP12 DUP3 DUP13 ADD PUSH2 0x1394 JUMP JUMPDEST SWAP3 POP POP PUSH1 0xE0 PUSH2 0x156C DUP12 DUP3 DUP13 ADD PUSH2 0x149B JUMP JUMPDEST SWAP2 POP POP SWAP3 SWAP6 SWAP9 POP SWAP3 SWAP6 SWAP9 SWAP1 SWAP4 SWAP7 POP JUMP JUMPDEST PUSH0 DUP2 MLOAD SWAP1 POP SWAP2 SWAP1 POP JUMP JUMPDEST PUSH0 DUP3 DUP3 MSTORE PUSH1 0x20 DUP3 ADD SWAP1 POP SWAP3 SWAP2 POP POP JUMP JUMPDEST PUSH0 DUP2 SWAP1 POP PUSH1 0x20 DUP3 ADD SWAP1 POP SWAP2 SWAP1 POP JUMP JUMPDEST PUSH0 DUP3 DUP3 MSTORE PUSH1 0x20 DUP3 ADD SWAP1 POP SWAP3 SWAP2 POP POP JUMP JUMPDEST PUSH0 PUSH2 0x15BF DUP3 PUSH2 0x11AB JUMP JUMPDEST PUSH2 0x15C9 DUP2 DUP6 PUSH2 0x15A5 JUMP JUMPDEST SWAP4 POP PUSH2 0x15D9 DUP2 DUP6 PUSH1 0x20 DUP7 ADD PUSH2 0x11C5 JUMP JUMPDEST PUSH2 0x15E2 DUP2 PUSH2 0x11D3 JUMP JUMPDEST DUP5 ADD SWAP2 POP POP SWAP3 SWAP2 POP POP JUMP JUMPDEST PUSH0 PUSH2 0x15F8 DUP4 DUP4 PUSH2 0x15B5 JUMP JUMPDEST SWAP1 POP SWAP3 SWAP2 POP POP JUMP JUMPDEST PUSH0 PUSH1 0x20 DUP3 ADD SWAP1 POP SWAP2 SWAP1 POP JUMP JUMPDEST PUSH0 PUSH2 0x1616 DUP3 PUSH2 0x157C JUMP JUMPDEST PUSH2 0x1620 DUP2 DUP6 PUSH2 0x1586 JUMP JUMPDEST SWAP4 POP DUP4 PUSH1 0x20 DUP3 MUL DUP6 ADD PUSH2 0x1632 DUP6 PUSH2 0x1596 JUMP JUMPDEST DUP1 PUSH0 JUMPDEST DUP6 DUP2 LT ISZERO PUSH2 0x166D JUMPI DUP5 DUP5 SUB DUP10 MSTORE DUP2 MLOAD PUSH2 0x164E DUP6 DUP3 PUSH2 0x15ED JUMP JUMPDEST SWAP5 POP PUSH2 0x1659 DUP4 PUSH2 0x1600 JUMP JUMPDEST SWAP3 POP PUSH1 0x20 DUP11 ADD SWAP10 POP POP PUSH1 0x1 DUP2 ADD SWAP1 POP PUSH2 0x1635 JUMP JUMPDEST POP DUP3 SWAP8 POP DUP8 SWAP6 POP POP POP POP POP POP SWAP3 SWAP2 POP POP JUMP JUMPDEST PUSH0 PUSH1 0x20 DUP3 ADD SWAP1 POP DUP2 DUP2 SUB PUSH0 DUP4 ADD MSTORE PUSH2 0x1697 DUP2 DUP5 PUSH2 0x160C JUMP JUMPDEST SWAP1 POP SWAP3 SWAP2 POP POP JUMP JUMPDEST PUSH0 DUP1 PUSH0 DUP1 PUSH1 0x80 DUP6 DUP8 SUB SLT ISZERO PUSH2 0x16B7 JUMPI PUSH2 0x16B6 PUSH2 0x114E JUMP JUMPDEST JUMPDEST PUSH0 PUSH2 0x16C4 DUP8 DUP3 DUP9 ADD PUSH2 0x116C JUMP JUMPDEST SWAP5 POP POP PUSH1 0x20 PUSH2 0x16D5 DUP8 DUP3 DUP9 ADD PUSH2 0x1281 JUMP JUMPDEST SWAP4 POP POP PUSH1 0x40 PUSH2 0x16E6 DUP8 DUP3 DUP9 ADD PUSH2 0x116C JUMP JUMPDEST SWAP3 POP POP PUSH1 0x60 DUP6 ADD CALLDATALOAD PUSH8 0xFFFFFFFFFFFFFFFF DUP2 GT ISZERO PUSH2 0x1707 JUMPI PUSH2 0x1706 PUSH2 0x1152 JUMP JUMPDEST JUMPDEST PUSH2 0x1713 DUP8 DUP3 DUP9 ADD PUSH2 0x1394 JUMP JUMPDEST SWAP2 POP POP SWAP3 SWAP6 SWAP2 SWAP5 POP SWAP3 POP JUMP JUMPDEST PUSH0 PUSH1 0x20 DUP3 DUP5 SUB SLT ISZERO PUSH2 0x1734 JUMPI PUSH2 0x1733 PUSH2 0x114E JUMP JUMPDEST JUMPDEST PUSH0 DUP3 ADD CALLDATALOAD PUSH8 0xFFFFFFFFFFFFFFFF DUP2 GT ISZERO PUSH2 0x1751 JUMPI PUSH2 0x1750 PUSH2 0x1152 JUMP JUMPDEST JUMPDEST PUSH2 0x175D DUP5 DUP3 DUP6 ADD PUSH2 0x1394 JUMP JUMPDEST SWAP2 POP POP SWAP3 SWAP2 POP POP JUMP JUMPDEST PUSH0 PUSH1 0x20 DUP3 ADD SWAP1 POP PUSH2 0x1779 PUSH0 DUP4 ADD DUP5 PUSH2 0x110F JUMP JUMPDEST SWAP3 SWAP2 POP POP JUMP JUMPDEST PUSH0 DUP2 SWAP1 POP SWAP2 SWAP1 POP JUMP JUMPDEST PUSH2 0x1791 DUP2 PUSH2 0x177F JUMP JUMPDEST DUP3 MSTORE POP POP JUMP JUMPDEST PUSH2 0x17A0 DUP2 PUSH2 0x125A JUMP JUMPDEST DUP3 MSTORE POP POP JUMP JUMPDEST PUSH0 PUSH1 0x60 DUP3 ADD SWAP1 POP PUSH2 0x17B9 PUSH0 DUP4 ADD DUP7 PUSH2 0x1788 JUMP JUMPDEST PUSH2 0x17C6 PUSH1 0x20 DUP4 ADD DUP6 PUSH2 0x1797 JUMP JUMPDEST PUSH2 0x17D3 PUSH1 0x40 DUP4 ADD DUP5 PUSH2 0x110F JUMP JUMPDEST SWAP5 SWAP4 POP POP POP POP JUMP JUMPDEST PUSH0 PUSH8 0xFFFFFFFFFFFFFFFF DUP3 GT ISZERO PUSH2 0x17F5 JUMPI PUSH2 0x17F4 PUSH2 0x129D JUMP JUMPDEST JUMPDEST PUSH2 0x17FE DUP3 PUSH2 0x11D3 JUMP JUMPDEST SWAP1 POP PUSH1 0x20 DUP2 ADD SWAP1 POP SWAP2 SWAP1 POP JUMP JUMPDEST PUSH0 PUSH2 0x181D PUSH2 0x1818 DUP5 PUSH2 0x17DB JUMP JUMPDEST PUSH2 0x12FB JUMP JUMPDEST SWAP1 POP DUP3 DUP2 MSTORE PUSH1 0x20 DUP2 ADD DUP5 DUP5 DUP5 ADD GT ISZERO PUSH2 0x1839 JUMPI PUSH2 0x1838 PUSH2 0x1299 JUMP JUMPDEST JUMPDEST PUSH2 0x1844 DUP5 DUP3 DUP6 PUSH2 0x11C5 JUMP JUMPDEST POP SWAP4 SWAP3 POP POP POP JUMP JUMPDEST PUSH0 DUP3 PUSH1 0x1F DUP4 ADD SLT PUSH2 0x1860 JUMPI PUSH2 0x185F PUSH2 0x1295 JUMP JUMPDEST JUMPDEST DUP2 MLOAD PUSH2 0x1870 DUP5 DUP3 PUSH1 0x20 DUP7 ADD PUSH2 0x180B JUMP JUMPDEST SWAP2 POP POP SWAP3 SWAP2 POP POP JUMP JUMPDEST PUSH0 PUSH1 0x20 DUP3 DUP5 SUB SLT ISZERO PUSH2 0x188E JUMPI PUSH2 0x188D PUSH2 0x114E JUMP JUMPDEST JUMPDEST PUSH0 DUP3 ADD MLOAD PUSH8 0xFFFFFFFFFFFFFFFF DUP2 GT ISZERO PUSH2 0x18AB JUMPI PUSH2 0x18AA PUSH2 0x1152 JUMP JUMPDEST JUMPDEST PUSH2 0x18B7 DUP5 DUP3 DUP6 ADD PUSH2 0x184C JUMP JUMPDEST SWAP2 POP POP SWAP3 SWAP2 POP POP JUMP JUMPDEST PUSH0 PUSH1 0x40 DUP3 ADD SWAP1 POP PUSH2 0x18D3 PUSH0 DUP4 ADD DUP6 PUSH2 0x1788 JUMP JUMPDEST PUSH2 0x18E0 PUSH1 0x20 DUP4 ADD DUP5 PUSH2 0x1797 JUMP JUMPDEST SWAP4 SWAP3 POP POP POP JUMP JUMPDEST PUSH0 PUSH8 0xFFFFFFFFFFFFFFFF DUP3 GT ISZERO PUSH2 0x1901 JUMPI PUSH2 0x1900 PUSH2 0x129D JUMP JUMPDEST JUMPDEST PUSH1 0x20 DUP3 MUL SWAP1 POP PUSH1 0x20 DUP2 ADD SWAP1 POP SWAP2 SWAP1 POP JUMP JUMPDEST PUSH0 DUP1 REVERT JUMPDEST PUSH0 PUSH2 0x1928 PUSH2 0x1923 DUP5 PUSH2 0x18E7 JUMP JUMPDEST PUSH2 0x12FB JUMP JUMPDEST SWAP1 POP DUP1 DUP4 DUP3 MSTORE PUSH1 0x20 DUP3 ADD SWAP1 POP PUSH1 0x20 DUP5 MUL DUP4 ADD DUP6 DUP2 GT ISZERO PUSH2 0x194B JUMPI PUSH2 0x194A PUSH2 0x1912 JUMP JUMPDEST JUMPDEST DUP4 JUMPDEST DUP2 DUP2 LT ISZERO PUSH2 0x1992 JUMPI DUP1 MLOAD PUSH8 0xFFFFFFFFFFFFFFFF DUP2 GT ISZERO PUSH2 0x1970 JUMPI PUSH2 0x196F PUSH2 0x1295 JUMP JUMPDEST JUMPDEST DUP1 DUP7 ADD PUSH2 0x197D DUP10 DUP3 PUSH2 0x184C JUMP JUMPDEST DUP6 MSTORE PUSH1 0x20 DUP6 ADD SWAP5 POP POP POP PUSH1 0x20 DUP2 ADD SWAP1 POP PUSH2 0x194D JUMP JUMPDEST POP POP POP SWAP4 SWAP3 POP POP POP JUMP JUMPDEST PUSH0 DUP3 PUSH1 0x1F DUP4 ADD SLT PUSH2 0x19B0 JUMPI PUSH2 0x19AF PUSH2 0x1295 JUMP JUMPDEST JUMPDEST DUP2 MLOAD PUSH2 0x19C0 DUP5 DUP3 PUSH1 0x20 DUP7 ADD PUSH2 0x1916 JUMP JUMPDEST SWAP2 POP POP SWAP3 SWAP2 POP POP JUMP JUMPDEST PUSH0 PUSH1 0x20 DUP3 DUP5 SUB SLT ISZERO PUSH2 0x19DE JUMPI PUSH2 0x19DD PUSH2 0x114E JUMP JUMPDEST JUMPDEST PUSH0 DUP3 ADD MLOAD PUSH8 0xFFFFFFFFFFFFFFFF DUP2 GT ISZERO PUSH2 0x19FB JUMPI PUSH2 0x19FA PUSH2 0x1152 JUMP JUMPDEST JUMPDEST PUSH2 0x1A07 DUP5 DUP3 DUP6 ADD PUSH2 0x199C JUMP JUMPDEST SWAP2 POP POP SWAP3 SWAP2 POP POP JUMP JUMPDEST PUSH32 0x4E487B7100000000000000000000000000000000000000000000000000000000 PUSH0 MSTORE PUSH1 0x11 PUSH1 0x4 MSTORE PUSH1 0x24 PUSH0 REVERT JUMPDEST PUSH0 PUSH2 0x1A47 DUP3 PUSH2 0x1106 JUMP JUMPDEST SWAP2 POP PUSH32 0xFFFFFFFFFFFFFFFFFFFFFFFFFFFFFFFFFFFFFFFFFFFFFFFFFFFFFFFFFFFFFFFF DUP3 SUB PUSH2 0x1A79 JUMPI PUSH2 0x1A78 PUSH2 0x1A10 JUMP JUMPDEST JUMPDEST PUSH1 0x1 DUP3 ADD SWAP1 POP SWAP2 SWAP1 POP JUMP JUMPDEST PUSH0 DUP2 MLOAD SWAP1 POP PUSH2 0x1A92 DUP2 PUSH2 0x1156 JUMP JUMPDEST SWAP3 SWAP2 POP POP JUMP JUMPDEST PUSH0 PUSH1 0x20 DUP3 DUP5 SUB SLT ISZERO PUSH2 0x1AAD JUMPI PUSH2 0x1AAC PUSH2 0x114E JUMP JUMPDEST JUMPDEST PUSH0 PUSH2 0x1ABA DUP5 DUP3 DUP6 ADD PUSH2 0x1A84 JUMP JUMPDEST SWAP2 POP POP SWAP3 SWAP2 POP POP JUMP JUMPDEST PUSH2 0x1ACC DUP2 PUSH2 0x177F JUMP JUMPDEST DUP3 MSTORE POP POP JUMP JUMPDEST PUSH1 0x20 DUP3 ADD PUSH0 DUP3 ADD MLOAD PUSH2 0x1AE6 PUSH0 DUP6 ADD DUP3 PUSH2 0x1AC3 JUMP JUMPDEST POP POP POP POP JUMP JUMPDEST PUSH0 PUSH1 0x20 DUP3 ADD SWAP1 POP PUSH2 0x1AFF PUSH0 DUP4 ADD DUP5 PUSH2 0x1AD2 JUMP JUMPDEST SWAP3 SWAP2 POP POP JUMP JUMPDEST PUSH0 PUSH2 0x1B0F DUP3 PUSH2 0x1106 JUMP JUMPDEST SWAP2 POP PUSH2 0x1B1A DUP4 PUSH2 0x1106 JUMP JUMPDEST SWAP3 POP DUP3 DUP3 MUL PUSH2 0x1B28 DUP2 PUSH2 0x1106 JUMP JUMPDEST SWAP2 POP DUP3 DUP3 DIV DUP5 EQ DUP4 ISZERO OR PUSH2 0x1B3F JUMPI PUSH2 0x1B3E PUSH2 0x1A10 JUMP JUMPDEST JUMPDEST POP SWAP3 SWAP2 POP POP JUMP JUMPDEST PUSH0 PUSH2 0x1B50 DUP3 PUSH2 0x1106 JUMP JUMPDEST SWAP2 POP PUSH2 0x1B5B DUP4 PUSH2 0x1106 JUMP JUMPDEST SWAP3 POP DUP3 DUP3 ADD SWAP1 POP DUP1 DUP3 GT ISZERO PUSH2 0x1B73 JUMPI PUSH2 0x1B72 PUSH2 0x1A10 JUMP JUMPDEST JUMPDEST SWAP3 SWAP2 POP POP JUMP JUMPDEST PUSH0 DUP2 MLOAD SWAP1 POP SWAP2 SWAP1 POP JUMP JUMPDEST PUSH0 DUP3 DUP3 MSTORE PUSH1 0x20 DUP3 ADD SWAP1 POP SWAP3 SWAP2 POP POP JUMP JUMPDEST PUSH0 PUSH2 0x1B9D DUP3 PUSH2 0x1B79 JUMP JUMPDEST PUSH2 0x1BA7 DUP2 DUP6 PUSH2 0x1B83 JUMP JUMPDEST SWAP4 POP PUSH2 0x1BB7 DUP2 DUP6 PUSH1 0x20 DUP7 ADD PUSH2 0x11C5 JUMP JUMPDEST PUSH2 0x1BC0 DUP2 PUSH2 0x11D3 JUMP JUMPDEST DUP5 ADD SWAP2 POP POP SWAP3 SWAP2 POP POP JUMP JUMPDEST PUSH0 PUSH1 0x20 DUP3 ADD SWAP1 POP DUP2 DUP2 SUB PUSH0 DUP4 ADD MSTORE PUSH2 0x1BE3 DUP2 DUP5 PUSH2 0x1B93 JUMP JUMPDEST SWAP1 POP SWAP3 SWAP2 POP POP JUMP JUMPDEST PUSH2 0x1BF4 DUP2 PUSH2 0x1106 JUMP JUMPDEST DUP3 MSTORE POP POP JUMP JUMPDEST PUSH0 DUP3 DUP3 MSTORE PUSH1 0x20 DUP3 ADD SWAP1 POP SWAP3 SWAP2 POP POP JUMP JUMPDEST PUSH0 PUSH2 0x1C14 DUP3 PUSH2 0x1B79 JUMP JUMPDEST PUSH2 0x1C1E DUP2 DUP6 PUSH2 0x1BFA JUMP JUMPDEST SWAP4 POP PUSH2 0x1C2E DUP2 DUP6 PUSH1 0x20 DUP7 ADD PUSH2 0x11C5 JUMP JUMPDEST PUSH2 0x1C37 DUP2 PUSH2 0x11D3 JUMP JUMPDEST DUP5 ADD SWAP2 POP POP SWAP3 SWAP2 POP POP JUMP JUMPDEST PUSH2 0x1C4B DUP2 PUSH2 0x147A JUMP JUMPDEST DUP3 MSTORE POP POP JUMP JUMPDEST PUSH0 PUSH1 0xA0 DUP4 ADD PUSH0 DUP4 ADD MLOAD PUSH2 0x1C66 PUSH0 DUP7 ADD DUP3 PUSH2 0x1AC3 JUMP JUMPDEST POP PUSH1 0x20 DUP4 ADD MLOAD PUSH2 0x1C79 PUSH1 0x20 DUP7 ADD DUP3 PUSH2 0x1BEB JUMP JUMPDEST POP PUSH1 0x40 DUP4 ADD MLOAD PUSH2 0x1C8C PUSH1 0x40 DUP7 ADD DUP3 PUSH2 0x1AC3 JUMP JUMPDEST POP PUSH1 0x60 DUP4 ADD MLOAD DUP5 DUP3 SUB PUSH1 0x60 DUP7 ADD MSTORE PUSH2 0x1CA4 DUP3 DUP3 PUSH2 0x1C0A JUMP JUMPDEST SWAP2 POP POP PUSH1 0x80 DUP4 ADD MLOAD PUSH2 0x1CB9 PUSH1 0x80 DUP7 ADD DUP3 PUSH2 0x1C42 JUMP JUMPDEST POP DUP1 SWAP2 POP POP SWAP3 SWAP2 POP POP JUMP JUMPDEST PUSH0 PUSH1 0x20 DUP3 ADD SWAP1 POP DUP2 DUP2 SUB PUSH0 DUP4 ADD MSTORE PUSH2 0x1CDC DUP2 DUP5 PUSH2 0x1C51 JUMP JUMPDEST SWAP1 POP SWAP3 SWAP2 POP POP JUMP JUMPDEST PUSH32 0x4E487B7100000000000000000000000000000000000000000000000000000000 PUSH0 MSTORE PUSH1 0x32 PUSH1 0x4 MSTORE PUSH1 0x24 PUSH0 REVERT JUMPDEST PUSH0 DUP2 SWAP1 POP SWAP3 SWAP2 POP POP JUMP JUMPDEST PUSH0 PUSH2 0x1D25 DUP3 PUSH2 0x1B79 JUMP JUMPDEST PUSH2 0x1D2F DUP2 DUP6 PUSH2 0x1D11 JUMP JUMPDEST SWAP4 POP PUSH2 0x1D3F DUP2 DUP6 PUSH1 0x20 DUP7 ADD PUSH2 0x11C5 JUMP JUMPDEST DUP1 DUP5 ADD SWAP2 POP POP SWAP3 SWAP2 POP POP JUMP JUMPDEST PUSH0 PUSH2 0x1D56 DUP3 DUP6 PUSH2 0x1D1B JUMP JUMPDEST SWAP2 POP PUSH2 0x1D62 DUP3 DUP5 PUSH2 0x1D1B JUMP JUMPDEST SWAP2 POP DUP2 SWAP1 POP SWAP4 SWAP3 POP POP POP JUMP JUMPDEST PUSH0 DUP2 PUSH1 0x60 SHL SWAP1 POP SWAP2 SWAP1 POP JUMP JUMPDEST PUSH0 PUSH2 0x1D84 DUP3 PUSH2 0x1D6E JUMP JUMPDEST SWAP1 POP SWAP2 SWAP1 POP JUMP JUMPDEST PUSH0 PUSH2 0x1D95 DUP3 PUSH2 0x1D7A JUMP JUMPDEST SWAP1 POP SWAP2 SWAP1 POP JUMP JUMPDEST PUSH2 0x1DAD PUSH2 0x1DA8 DUP3 PUSH2 0x125A JUMP JUMPDEST PUSH2 0x1D8B JUMP JUMPDEST DUP3 MSTORE POP POP JUMP JUMPDEST PUSH0 PUSH2 0x1DBE DUP3 DUP5 PUSH2 0x1D9C JUMP JUMPDEST PUSH1 0x14 DUP3 ADD SWAP2 POP DUP2 SWAP1 POP SWAP3 SWAP2 POP POP JUMP JUMPDEST PUSH0 PUSH1 0xFF DUP3 AND SWAP1 POP SWAP2 SWAP1 POP JUMP JUMPDEST PUSH0 PUSH2 0x1DE3 DUP3 PUSH2 0x1DCD JUMP JUMPDEST SWAP2 POP PUSH2 0x1DEE DUP4 PUSH2 0x1DCD JUMP JUMPDEST SWAP3 POP DUP3 DUP3 ADD SWAP1 POP PUSH1 0xFF DUP2 GT ISZERO PUSH2 0x1E07 JUMPI PUSH2 0x1E06 PUSH2 0x1A10 JUMP JUMPDEST JUMPDEST SWAP3 SWAP2 POP POP JUMP JUMPDEST PUSH32 0x4E487B7100000000000000000000000000000000000000000000000000000000 PUSH0 MSTORE PUSH1 0x12 PUSH1 0x4 MSTORE PUSH1 0x24 PUSH0 REVERT JUMPDEST PUSH0 PUSH2 0x1E44 DUP3 PUSH2 0x1106 JUMP JUMPDEST SWAP2 POP PUSH2 0x1E4F DUP4 PUSH2 0x1106 JUMP JUMPDEST SWAP3 POP DUP3 PUSH2 0x1E5F JUMPI PUSH2 0x1E5E PUSH2 0x1E0D JUMP JUMPDEST JUMPDEST DUP3 DUP3 DIV SWAP1 POP SWAP3 SWAP2 POP POP JUMP JUMPDEST PUSH0 PUSH2 0x1E74 DUP3 PUSH2 0x1106 JUMP JUMPDEST SWAP2 POP PUSH2 0x1E7F DUP4 PUSH2 0x1106 JUMP JUMPDEST SWAP3 POP DUP3 DUP3 SUB SWAP1 POP DUP2 DUP2 GT ISZERO PUSH2 0x1E97 JUMPI PUSH2 0x1E96 PUSH2 0x1A10 JUMP JUMPDEST JUMPDEST SWAP3 SWAP2 POP POP JUMP JUMPDEST PUSH0 DUP2 PUSH1 0x1 SHR SWAP1 POP SWAP2 SWAP1 POP JUMP JUMPDEST PUSH0 DUP1 DUP3 SWAP2 POP DUP4 SWAP1 POP JUMPDEST PUSH1 0x1 DUP6 GT ISZERO PUSH2 0x1EF2 JUMPI DUP1 DUP7 DIV DUP2 GT ISZERO PUSH2 0x1ECE JUMPI PUSH2 0x1ECD PUSH2 0x1A10 JUMP JUMPDEST JUMPDEST PUSH1 0x1 DUP6 AND ISZERO PUSH2 0x1EDD JUMPI DUP1 DUP3 MUL SWAP2 POP JUMPDEST DUP1 DUP2 MUL SWAP1 POP PUSH2 0x1EEB DUP6 PUSH2 0x1E9D JUMP JUMPDEST SWAP5 POP PUSH2 0x1EB2 JUMP JUMPDEST SWAP5 POP SWAP5 SWAP3 POP POP POP JUMP JUMPDEST PUSH0 DUP3 PUSH2 0x1F0A JUMPI PUSH1 0x1 SWAP1 POP PUSH2 0x1FC5 JUMP JUMPDEST DUP2 PUSH2 0x1F17 JUMPI PUSH0 SWAP1 POP PUSH2 0x1FC5 JUMP JUMPDEST DUP2 PUSH1 0x1 DUP2 EQ PUSH2 0x1F2D JUMPI PUSH1 0x2 DUP2 EQ PUSH2 0x1F37 JUMPI PUSH2 0x1F66 JUMP JUMPDEST PUSH1 0x1 SWAP2 POP POP PUSH2 0x1FC5 JUMP JUMPDEST PUSH1 0xFF DUP5 GT ISZERO PUSH2 0x1F49 JUMPI PUSH2 0x1F48 PUSH2 0x1A10 JUMP JUMPDEST JUMPDEST DUP4 PUSH1 0x2 EXP SWAP2 POP DUP5 DUP3 GT ISZERO PUSH2 0x1F60 JUMPI PUSH2 0x1F5F PUSH2 0x1A10 JUMP JUMPDEST JUMPDEST POP PUSH2 0x1FC5 JUMP JUMPDEST POP PUSH1 0x20 DUP4 LT PUSH2 0x133 DUP4 LT AND PUSH1 0x4E DUP5 LT PUSH1 0xB DUP5 LT AND OR ISZERO PUSH2 0x1F9B JUMPI DUP3 DUP3 EXP SWAP1 POP DUP4 DUP2 GT ISZERO PUSH2 0x1F96 JUMPI PUSH2 0x1F95 PUSH2 0x1A10 JUMP JUMPDEST JUMPDEST PUSH2 0x1FC5 JUMP JUMPDEST PUSH2 0x1FA8 DUP5 DUP5 DUP5 PUSH1 0x1 PUSH2 0x1EA9 JUMP JUMPDEST SWAP3 POP SWAP1 POP DUP2 DUP5 DIV DUP2 GT ISZERO PUSH2 0x1FBF JUMPI PUSH2 0x1FBE PUSH2 0x1A10 JUMP JUMPDEST JUMPDEST DUP2 DUP2 MUL SWAP1 POP JUMPDEST SWAP4 SWAP3 POP POP POP JUMP JUMPDEST PUSH0 PUSH2 0x1FD6 DUP3 PUSH2 0x1106 JUMP JUMPDEST SWAP2 POP PUSH2 0x1FE1 DUP4 PUSH2 0x1106 JUMP JUMPDEST SWAP3 POP PUSH2 0x200E PUSH32 0xFFFFFFFFFFFFFFFFFFFFFFFFFFFFFFFFFFFFFFFFFFFFFFFFFFFFFFFFFFFFFFFF DUP5 DUP5 PUSH2 0x1EFB JUMP JUMPDEST SWAP1 POP SWAP3 SWAP2 POP POP JUMP JUMPDEST PUSH0 PUSH2 0x2020 DUP3 PUSH2 0x1106 JUMP JUMPDEST SWAP2 POP PUSH2 0x202B DUP4 PUSH2 0x1106 JUMP JUMPDEST SWAP3 POP DUP3 PUSH2 0x203B JUMPI PUSH2 0x203A PUSH2 0x1E0D JUMP JUMPDEST JUMPDEST DUP3 DUP3 MOD SWAP1 POP SWAP3 SWAP2 POP POP JUMP JUMPDEST PUSH0 DUP2 SWAP1 POP SWAP2 SWAP1 POP JUMP JUMPDEST PUSH2 0x2060 PUSH2 0x205B DUP3 PUSH2 0x1106 JUMP JUMPDEST PUSH2 0x2046 JUMP JUMPDEST DUP3 MSTORE POP POP JUMP JUMPDEST PUSH0 PUSH2 0x2071 DUP3 DUP5 PUSH2 0x204F JUMP JUMPDEST PUSH1 0x20 DUP3 ADD SWAP2 POP DUP2 SWAP1 POP SWAP3 SWAP2 POP POP JUMP INVALID LOG2 PUSH5 0x6970667358 0x22 SLT KECCAK256 0xE5 PUSH10 0x66B6FF129CA969C5E5C8 SLOAD GASPRICE PUSH24 0x4A50BB1A026D873AC465BFCB75BFBE2F9864736F6C634300 ADDMOD BYTE STOP CALLER "
				},
				"gasEstimates": {
					"creation": {
						"codeDepositCost": "1674800",
						"executionCost": "50971",
						"totalCost": "1725771"
					},
					"external": {
						"calculateFeeForSign(bytes)": "infinite",
						"getEVMWallet(uint256)": "infinite",
						"getEVMWallets()": "infinite",
						"requestNewEVMWallet()": "infinite",
						"submitTransaction(uint256,address,uint256,bytes)": "infinite",
						"submitTransaction(uint256,address,uint256,uint256,uint256,uint256,bytes)": "infinite",
						"submitTransaction(uint256,address,uint256,uint256,uint256,uint256,bytes,bool)": "infinite"
					}
				},
				"methodIdentifiers": {
					"calculateFeeForSign(bytes)": "ecf4ec57",
					"getEVMWallet(uint256)": "32398d50",
					"getEVMWallets()": "c6b4a8f7",
					"requestNewEVMWallet()": "e6bdb7d6",
					"submitTransaction(uint256,address,uint256,bytes)": "dbe637c6",
					"submitTransaction(uint256,address,uint256,uint256,uint256,uint256,bytes)": "681face9",
					"submitTransaction(uint256,address,uint256,uint256,uint256,uint256,bytes,bool)": "94e375dd"
				}
			},
			"storageLayout": {
				"storage": [
					{
						"astId": 1073,
						"contract": "contracts/transactions/ZrTransaction.sol:ZrSignTransferETH",
						"label": "_gasPrice",
						"offset": 0,
						"slot": "0",
						"type": "t_uint256"
					},
					{
						"astId": 1076,
						"contract": "contracts/transactions/ZrTransaction.sol:ZrSignTransferETH",
						"label": "_gasLimit",
						"offset": 0,
						"slot": "1",
						"type": "t_uint256"
					},
					{
						"astId": 1082,
						"contract": "contracts/transactions/ZrTransaction.sol:ZrSignTransferETH",
						"label": "_nonce",
						"offset": 0,
						"slot": "2",
						"type": "t_uint256"
					}
				],
				"types": {
					"t_uint256": {
						"encoding": "inplace",
						"label": "uint256",
						"numberOfBytes": "32"
					}
				}
			},
			"userdoc": {
				"kind": "user",
				"methods": {},
				"version": 1
			}
		}
	}
}